:2000000064420020613B000001CA011001CA011001CA011001CA011001CA011001CA011056
:1C00200001CA011001CA011001CA011001CA011001CA011001CA01103FCA011082
:20003C00F8B58C4645688468DCF8007095F85810B8B288401FFA80FE2068B0F1804F14BFBF
:20005C00234B244BDCF80820234832B995F858108E00815905F1720207E095F858108E0024
:20007C00811951F8081C7244521E99605A6021683A0143F6F077103A0831174019609A68CB
:20009C003A439A602368B3F1804F14BF134A144ADCF804C0BCF1000F04BF8059A61D05D0B9
:2000BC00801950F8100C0EEB0C06761E906016605160906807439760A168EE6EE068084340
:2000DC00716809688862586A40F003005862F8BD0005002030040020B059000010050020B5
:0400FC00400400209C
:200100003C000000000000000000000034010000000000000000000001000000000000006D
:1C01200000000000000000000000000001000000000000000800000000000000BA
:20013C00340000000000000000000000680100000000000000000000010000000000000005
:14015C00010000000000000000000000080000000000000086
:2001700030000000000000000000000098010000040000000000000001000000FFFFFFFFA5
:10019000FF00000001000000080000000000000057
:2001A0002C0000000000000000000000C4010000040000000000000001000000FFFFFFFF4D
:0C01C000FFFFFFFF08000000000000002F
:2001CC0034050000E401000099A1011095A70110A5C2011009B2011045B80110000000000B
:0801EC00000000002E000000DD
:2001F400280000000000000000000000140200000000000000000000FFFFFFFF00000000B1
:080214000800000000000000DA
:20021C00300500003002000069C201106DC101101FC2011095BA011000000000000000008E
:04023C00300000008E
:20024000300500005402000075C20110A9B601109DBF011049B601100000000000000000DE
:040260003100000069
:200264002400000000000000000000008002000000000000000000000000000008000000CC
:040284000000000076
:20028800240000000000000000000000A40200000000000000000000000000000800000084
:0402A8000000000052
:2002AC00240000000000000000000000C8020000000000000100000000000000080000003B
:0402CC00000000002E
:2002D00000000000482B0020040000000000000000000000200000007001000030000000B6
:2002F0001C020000502B00200400000000000000000000000C0000003004000018000000D9
:2003100040020000582B00200400000000000000000000002400000048040000180000005C
:2003300000000000602B002004000000000000000000000010000000A00100002C00000021
:20035000CC010000682B00200400000000000000000000002000000064020000240000005F
:20037000FFFFFFFF702B0020040000000000000000000000280000008802000024000000DC
:20039000FFFFFFFF782B0020040000000000000000000000580000003C01000034000000C1
:2003B000FFFFFFFF802B0020040000000000000000000000100000006004000018000000D6
:2003D000FFFFFFFF882B00200400000000000000000000001C000000AC020000240000004C
:2003F000FFFFFFFF902B002004000000000000000000000038000000F401000028000000BD
:20041000FFFFFFFF982B002004000000000000000000000054000000000100003C00000058
:1804300018000000000000000000000040040000080000000000000050
:1804480018000000000000000000000058040000080000000000000020
:18046000180000000000000000000000700400000800000000000000F0
:08047800010000003C5B0000E4
:0404800003F076B956
:040484000100000073
:0404880000000C0064
:04048C0000000D005F
:040490003200000036
:040494000200000062
:04049800DC2900203B
:04049C00000200005A
:0404A0000000000058
:0404A40001CA011078
:0404A8000000000050
:0404AC00000000004C
:0404B0000800000040
:0404B4000000200024
:0404B800A429002053
:0404BC00010000003B
:0404C000D42A00201A
:0404C400080000002C
:0404C8000000000030
:0404CC00000000002C
:0404D0000000000028
:0404D4000000000024
:0404D8000000000020
:0404DC00010000001B
:0404E0003C2A002092
:0404E400060000000E
:0404E800010000000F
:0404EC009428002030
:0404F0000000000008
:0404F4000000000004
:0404F80000020000FE
:0404FC0000000000FC
:02050000704742
:020502002A00CD
:020504000100F4
:020506002500CE
:020508003000C1
:02050A003100BE
:02050C002E00BF
:02050E000100EA
:0105100001E9
:0805140003000000F05A000092
:08051C000000000000000000D7
:0405240000000100D2
:0405280000000300CC
:04052C0087C401106F
:04053000380500008A
:040534003805000086
:0405380000000000BF
:04053C00800000003B
:040540008000000037
:0405440000000000B3
:04054800D42A002091
:04054C0073520000E6
:040550002000000087
:04055400A85A0000A1
:04055800F85900004E
:04055C000DC30110BA
:04056000473100001F
:040564007B320000E6
:0405680099C801101D
:04056C009BC8011017
:040570000000000087
:04057400DE5A00004B
:0405780068590000BE
:04057C0080590000A2
:0405800050590000CE
:0205840008006D
:0205860009006A
:02058800010070
:02058A0000006F
:01058C00016D
:040590000000000067
:040594000000000063
:04059800000000005F
:04059C00000000005B
:0405A00021510000E5
:0405A4006D3D0000A9
:0405A800F549000011
:0405AC00A53B00006B
:0405B000A53300006F
:0405B4007140000092
:0405B800BD2B000057
:0405BC000D4D0000E1
:0405C00005340000FE
:0405C40011C8011049
:0405C80021C8011035
:0405CC000800000023
:0405D0002400000003
:0405D400180000000B
:0405D80028000000F7
:0405DC0020000000FB
:0405E0003C000000DB
:0405E4000C00000007
:0405E80034000000DB
:2005EC002DE9F84F054640F29421012441F22D00C4F22231C4F2090040F81D4C086810B939
:20060C0008680028FAD046F2000043F6B477C021C4F20C00C5F2000701603E6857F8040C09
:20062C0046F25622C4F20802800806D257F8080C000C40F0F000107001E07220107041F2A9
:20064C00B820C5F200000068C0F3046004F076FE39680B171B185B1C13F10A0FB8BF6FF0B8
:20066C0009034FF0000CF10EB00E03F01F0381F00101C4F2203C80F0010043F4F85301F0DC
:20068C000101138300F00100CCF800103146CCF80800284601F0D6FA814604F089FE00211C
:2006AC00002808BF211C48F20008C4F20C08D8F8000018B9D8F800000028F8D04AF2080A47
:2006CC00C4F20C0ACAF81090C8F8004009B104F075FE284604F073FA40F2FF32002380B238
:2006EC002C2100904AF20000C4F20C0002F0B2FE284604F007FC814604F05AFE00210028B0
:20070C0008BF211CD8F8000018B9D8F800000028F8D0CAF81490C8F8004009B104F04EFE08
:20072C00284604F0C1F8814604F042FE0021002808BF211CD8F8000018B9D8F800000028B1
:20074C00F8D0CAF80C90C8F8004009B104F036FE284604F001FA814604F02AFE00210028FC
:20076C0008BF211CD8F8000018B9D8F800000028F8D0CAF80890C8F8004009B104F01EFEE4
:20078C00284602F0F9F8814604F012FE0021002808BF211CD8F8000018B9D8F8000000284B
:2007AC00F8D0CAF80490C8F8004009B104F006FE284604F077FB4AF24009C4F20C094000F9
:2007CC0040F0200089F80901284604F077FB40F0100089F80901284604F001FA834604F079
:2007EC00E7FD0021002808BF211CD8F8000018B9D8F800000028F8D0CAF820B0C8F80040C9
:20080C0009B104F0DBFD284604F064FB400040F0600089F80C01284604F068FBC00040F072
:20082C00800089F80101284604F078FB800040F47C40A9F89C01284603F094FE834604F076
:20084C00B7FD0021002808BF211CD8F8000018B9D8F800000028F8D0CAF800B0C8F80040B8
:20086C0009B104F0ABFD442089F8C5004FF0880E89F8C7E0284604F065FC40F03001C6F392
:20088C00815089F8C81078B3401E06D0401E26D00420022102F0B7FF30E0204604F0B8F866
:2008AC0005460420294602F0AEFF042004F0B0F88542FAD157F80C5C25F07F4003F044FD9E
:2008CC0040F2B410C1F200000068036807214FF06022280E98474FF48060C9F8000004208A
:2008EC00032102F090FF09E00420214602F08BFF43F2BD70C0F2860003F026FD41F2B8209C
:20090C00C5F20000D0F8B4004BF2700242F22C0E46F2000B47F618014FF0000C41F22D0A2D
:20092C00C4F20C02C4F2090E40F2944800F03F0089F8CB0FC4F20C0B1180DEF80000CBF88B
:20094C0000C0C4F2090A4AF81DCCC4F26028C8F80040BDE8F88F70472DE9F84FC64DC74E31
:20096C00D5F8EF1FCC4C7368D5F8F30F8843C5F8F30F002BC5F8FF1F00F011817788012B91
:20098C0000F0D680DFF8FCB2BF4FDFF800A3DFF80093DFF80083022B72D0032B40F06A817C
:2009AC000024B06855F8312C74600028A2F5C062B8BF404211460029B8BF494288422EDA43
:2009CC00111C54BF02206FF00100B26900EB4100032190FBF1F18918B161F36870699842B0
:2009EC000BD0B1F11002B8BF524230691038B8BF40428242B8BF88B209DB98B20090A0485C
:200A0C0030214FF47F42082302F024FD308A00909B4804214FF4F802122302F01BFD5846CB
:200A2C00046001688908FCD20460012644600E203E6001F0DBFA50460468EFF3118584F3CC
:200A4C00118849460820B0FA80F00A1AD07F431E0128D37704D14246106820F0080010607C
:200A6C0085F31188EFF3118384F311880420B0FA80F0091AC87F421E0128CA7754D14EE00E
:200A8C0055F8310CB0F5C06F17D00327776000F0DFFE45F8397C0027276020688008FCD2B9
:200AAC007748394660220523009102F0D3FC0126266020688008FCD364E000217160584690
:200ACC00016002689208FCD20160012641600E203E6001F08BFA50460468EFF3118584F37B
:200AEC00118849460820B0FA80F00A1AD07F431E0128D37704D14246106820F008001060DC
:200B0C0085F31188EFF3118384F311880420B0FA80F0091AC87F421E0128CA7704D1424663
:200B2C00106820F00400106083F31188BDE8F88F55F8312C02214BF2F52071605043000AE5
:200B4C0037B95649096821F07F414018400801E0002171806060000CA0600126E6600327C2
:200B6C0045F8397C0027276020688008FCD24448394660220523009102F06CFC266020683D
:200B8C008008FCD345F8216C45F8397C0820C5F8FF0FC5F8F30F45F8396CBDE8F88F4048EE
:200BAC000068006801462020884741F61D574FF002080F2045F82D0C00214FF4C0720723AA
:200BCC0045F8297C2E48CDF8008002F043FC012744F8047C54F8040C8008FBD3308845F8B0
:200BEC001D7C012821D0032045F8390C4FF00009C4F8009020688008FCD2214849466022A5
:200C0C000523009102F026FC276020688008FCD345F8217C45F8399C0820C5F8FF0FC5F8F9
:200C2C00F30F45F8397C474623E04FF00009C4F80C90032045F8390CC4F800902068800883
:200C4C00FCD20F48CDF8008049466022052302F001FC276020688008FCD3202045F8210CE6
:200C6C0045F8399C0824C5F8FF4FC5F8F34F45F8397C7760BDE8F88F39400C409C2A002080
:200C8C0000A00C4034600C4004800C40345B0000A02B0020D027002038600C4010200940BE
:200CAC00A00100102DE9F04F8146B9F1010FADF11C0D40F05781AD480068EFF3118280F38D
:200CCC001188DFF8CCB29BF80400012818BF012003D1022100208BF8041082F3118801287D
:200CEC0000F03E8104F0B8FC0390AA48046804EB0B0004F0ADFC4FF00008464637460BEBC3
:200D0C000401CDF810800191B0B90C46084604F09BFC0546A868400808D3E868296902469F
:200D2C0001209047C0B2012800F01281284604F087FC0546AC42EDD1002F40F00D8104F0D4
:200D4C007BFC029005978A480760012003F060FE012804D1404602F0C3FF4FF00108854FE3
:200D6C0038688068014630468847874819300090D0F8FF0FB9F1010F40F08C80864C0A34CF
:200D8C00E57905B10126A5790DB146F0020665790DB146F00406DFF8E09165782DB1B86AF1
:200DAC00006B49460246C88D904725782DB1B86A006B49460246488D9047704901200860EC
:200DCC00B86A8069014646F0200088476C4DDBF80010286840F001002860480813D26948C5
:200DEC0004F0A5FA8246BAF1040FF8D0D5F8180220F00300C5F81802B86C40680246614878
:200E0C000321904701E001200490059800F0C0F9B86A0099806BD1F8FF1F8047049858B9EE
:200E2C00B86C40680246574851469047D5F8180240F00300C5F818023868806801460120A4
:200E4C008847514801688909FCD3B8F1010F02D1012002F045FFB86A40690146304688471A
:200E6C00B86A406B0146304688470128F8D166782EB1B86AC06A49460246C88D9047267871
:200E8C002EB1B86AC06A49460246488D90473B49012008603A480168032221F00101016007
:200EAC0001988BF8042004F0D3FB0028059818BF01200125C8B9019C204604F0C5FB0646BD
:200ECC00B068C00807D3F0683169024604209047C0B2012806D0304604F0B2FB0646B4424D
:200EEC00EED102E02948006880472148009F0560D7F8FF0F04F062FA019804F0A9FB059F36
:200F0C00D0B9019C204604F09FFB0646B068000907D3F0683169024608209047C0B2012890
:200F2C0006D0304604F08CFB0646B442EED103E0164800688047022702988BF8045004F0DF
:200F4C0077FB02F0C7F9039804F06EFB38460AE00E4800688047022701208BF80400F2E7D2
:200F6C00062000E0022007B0BDE8F08F345B00000C40094090010010045900002820086090
:200F8C000C2008400040034014100940285B0000D0270020245B0000002B00202DE9F04136
:200FAC001C4615468C4208BF854282BF00230022E5E0002C08BF002D0AD100290EBF0028A8
:200FCC006FF000006FF0000100F0E1F8BDE8F0815FF000085FF0000E002C08BF8D429CBF96
:200FEC002C1C0025070C47EA01470E0CB44208BFBD429EBF5FEA044444EA15445FEA05450E
:20100C00070A47EA01670E0AB44208BFBD429EBF5FEA042444EA15645FEA0525470847EADE
:20102C00C1774E08B44208BFBD4200F29380870847EA81778E08B44208BFBD427CD8C70828
:20104C0047EA4177CE08B44208BFBD4266D8070947EA01770E09B44208BFBD4250D84709C7
:20106C0047EAC1674E09B44208BFBD423AD8870947EA81678E09B44208BFBD4224D8C7091E
:20108C0047EA4167CE09B44208BFBD420DD8E60146EA5566EF01B14208BFB84201D3C01BCE
:2010AC00B14158EB08085EEB0E0EA60146EA95664FEA8517B14208BFB84201D3C01BB1417E
:2010CC0058EB08084EEB0E0E660146EAD5666F01B14208BFB84201D3C01BB14158EB080872
:2010EC004EEB0E0E260146EA15762F01B14208BFB84201D3C01BB14158EB08085EEB0E0E70
:20110C00E60046EA5576EF00B14208BFB84201D3C01BB14158EB08084EEB0E0EA60046EA20
:20112C009576AF00B14208BFB84201D3C01BB14158EB08084EEB0E0E660046EAD5766F009C
:20114C00B14208BFB84201D3C01BB14158EB08085EEB0E0EA14208BFA84201D3401BA141D1
:20116C0058EB08085EEB0E0EA34208BFAA423EBF2D0A45EA0465240A89D3734642461E4618
:20118C0017460B46024631463846BDE8F0817047F8B507460020C4F209000068800880F052
:2011AC00CA8003F03BFA42F22421C4F208010A68002112F0030F18BF0121D20828BF41F0E7
:2011CC000201002F18BF41F0040141F60856C2F2000696F90720821A052A04DAB2798A421F
:2011EC0008BFB28871D041F29C340F28A0F10F02C5F2000426DB02EB0012F03A1712072F81
:20120C0088BF0727BC46BCF1060F88BF4FF0060C54F82CE00423254603EB8C03EB58CD0872
:20122C00A3EB0E0303F0FF0C24BFC3F30725AC448D0824BFC3F30745AC444D0805D30CEBC2
:20124C00136C02E04FF0000C674654F82730CC0803F0FF0524BFC3F3072425448C0824BF17
:20126C00C3F3074425444C0828BF05EB1365A2EB07221FFA8CF3534380330022082B88BF22
:20128C00012243F6B473C5F200031C681B684FF4D07C34275219241703F0FF0307FB14C49F
:2012AC005C434FF6FF73B4FBF2F2934238BF1A1C802892B2B28005DA10F1800F03DA6FF06E
:2012CC007F0000E07F20F071B17142F20800C4F2090001681F2A4FF00000316015D340F2EA
:2012EC00FF13934213D219465208401C93420ED25208401C93420AD25208401C914206D284
:20130C005208401C9142EFD301E01F22B2800F3A4FF600714FF0350E1209C8F2A401C4F271
:20132C00090E40EAC2000143CEF8FB1F4FF0000CCEF8FFCFF8BD41F60E524FF6FD50082194
:20134C0041F2300EC2F20002C0F2A4001170C4F2090ECEF80000F8BD2DE9F04FADF15C0DDF
:20136C0002F008FF0027012804D103F082FD022808BF012751490868C0F38150012806D12A
:20138C0051F80C0C0126010E06FA01F007434C484C4E00783068C0F3460602F0EBFE01282E
:2013AC0008BF761C484C26603EB1FF2204F140013046401E01F8012BFBD1DFF81091D9F85A
:2013CC0000004FF0000800F0FF01FF2918D04D4600F0FF03414601229E426CD902FA03F374
:2013EC001F4268D100F0FF00201880F8401055F8040F43EA0808491C00F0FF03FF2BEBD17E
:20140C00092000F087FDC4F8049001A800212422082304F005F94FF0010A04F1240001AA98
:20142C008DF81CA0514604F0F7F8236833B300262546B34660350AFA06F0074218D118EA27
:20144C00000F04BF06F0FF0141F4C04104D0A01990F8400059F820101D4800F053FFF0B263
:20146C004FF0FF3103F0B4FC2368C5F800B001E004202860761C2D1D9E42DCD30AA800218B
:20148C003022082304F0C4F8002010210AAB114A009004F1080004F0B7F80F4951F80D0CC8
:2014AC0020F4F85040F4005041F80D0C5746C1F8FF7F0A4E376017B0BDE8F08FB43F0050FD
:2014CC00111D002080120840F01A002068290020007FC7678D3A00000D30094008000940B2
:2014EC00B0B5456884684B48297BADF1180D012916D0217C627C484B2F7E0143009143EA1B
:20150C0002010191454937F0010718BF081CA27C1043029095F859000322FF2811D00DE06F
:20152C00677C217C3843A37C019041F00041009143F000403A49029095F859000143042219
:20154C000391FF204DF82200694605F15C0001F05BFAA866002808BF002058D0287B3149BC
:20156C0051F82000012828D02068B0F1804F14BF22220A22217CA86E03F082FA2068B0F14F
:20158C00804F14BF21220922617CA86E03F078FA2068B0F1804F14BF24220C22A17CA86E65
:2015AC0003F06EFA95F85910FF292FD02068B0F1804F14BF23220B2225E02068B0F1804F6D
:2015CC0014BF21220922217CA86E03F059FA2068B0F1804F14BF22220A22617CA86E03F0A4
:2015EC004FFA2068B0F1804F14BF24220C22A17CA86E03F045FA2068B0F1804F14BF2322E2
:20160C000B2295F85910A86E03F03AFA012006B0B0BDC046000480A0004000800004C0A0CC
:20162C0000200080985900002DE9F04304466668A5680F46ADF1540D03F0E2FF96F8A41035
:20164C002D1D012903D103F0D7FF002075E04FF0010986F8A49003F0CFFF1FB90DA803F0BC
:20166C00C7FD0DAF4FF00008C6F854803869306178697061387E3076387B3073387830701F
:20168C00786886F87080706078694146092828BF494686F85810687800F03CFC204601F0CC
:2016AC0033FFE87B86F859002046FFF719FF50B9687800F09BFC03F0A3FF86F8A48003F0A4
:2016CC009BFF444638E001A841463022082303F09FFF0694CDF80080194A297806F11C008E
:2016EC0001AB03F091FF307878B901A841462422082303F095FF8DF81C9006F138004146C7
:20170C0001AA03F089FF0F4800E0B868B06001F027FFF066307B012805D1B06E03F054FEB6
:20172C00B06E00B18460084ACDF8008006F190000421234602F0E6FE204615B0BDE8F08325
:20174C00611A00005D540000ED5300002DE9F0413E4C0E46A0F202311546082906D8DFE8F6
:20176C0001F0332C654E231C72150EC027286ADA022E68D1298802F017FDBDE8F081012ECE
:20178C0061D1287804285EDA083413E0012E5AD12878082857DAE41D0CE0012E53D128789D
:2017AC00042850DAA41D05E0012E4CD12878042849DC641D2070BDE8F081022E43D12888C9
:2017CC000E342080BDE8F081012E3CD1A1782878A07059B9002836D02078012818BF0328FD
:2017EC0031D1012003F05AFCBDE8F081287850BB2078022827D103F047FDBDE8F08194F81D
:20180C00038004F1430700211F22384601F09CFA29463246384601F017F8267104F124027C
:20182C000120414602F0DAFABDE8F08104F1240700211F22384601F087FA29463246384641
:20184C0001F002F8E670BDE8F081C046642400202DE9F843804603F0ABFD002100B90121C9
:20186C003A4D2D1F28680028FCD0DFF8DC90012609F10407FC6A2E6009B103F09FFD3448DD
:20188C00C4F3072100F10804616003F091FD0146002001B93046014628680028FCD03F6815
:2018AC002E6009B103F08AFDC7F38441A8F5C060A160B8F5C06F2060B4BF6FF001030223C6
:2018CC00626803EB4003032093FBF0F00918104602290FDB1E290BDB3F28B9BF521C401C0E
:2018EC003F22101CE2603029B4BF10391F210DE0E0600BE010F13F0FACBF401E6FF03F00EA
:20190C00E06011F1100FACBF10310021216180B24FF47F42082330210090484601F09AFDB3
:20192C000096484604214FF40032112301F092FD208A04214FF4F80212230090484601F0D9
:20194C0089FDBDE8F883C04600A00C4004800C409C2A00202DE9F04707467C68BE6803F096
:20196C004FFE0834E16C002967D003F045FE3168486820F0020048603168486A20F003008E
:20198C004862656EF068B168084369680968C1F804053168486920F00100486130684FF023
:2019AC000108C0F820803068B0F1804F14BF40F201104FF48070234909688847384601F04E
:2019CC00A3FDE06CD0F804A003F01AFE1E4D8146287850B11AF0704F02D1102002F0D0FA3D
:2019EC00042002F0CDFA00202870484603F004FEE16C087C042802D003200874E16CB268EE
:201A0C00F068636E4546104305FA00F258680068C2623068B0F1804F14BF0C480C480E687D
:201A2C00006800258204A6EB9250401E086038462268E5649047BDE8F08703F0DDFDBDE898
:201A4C00F087C04678000010101D002008050020380400202DE9F0470646B1680A6874689F
:201A6C00D06908341062400841D2606E40680268CD68D2F80405284206D00B68586A20F0AB
:201A8C0002005862C2F80455D2F804258868024256D00A68506A20F0010050628868616E70
:201AAC0049680968C1F80405E06C00250574E76CD7F804A003F0A4FDDFF88880814698F8BC
:201ACC00000050B11AF0704F02D1102002F058FA042002F055FA40460570484603F08CFD7F
:201AEC002268E564304639469047BDE8F0870A68506920F001005061E76CF7B9506820F067
:201B0C0002005060506A20F0030050628B68C868616E496809681843B2F1804FC1F80405E5
:201B2C000CBF4FF4807040F20110074909688847304601F0E9FCBDE8F0873046FFF70AFFEB
:201B4C00BDE8F087101D00207800001038482DE9FC4700680068014620208847354DDFF830
:201B6C00D8A04FF002080F2000214FF4C072072345F82D0C41F61D5045F8290C5046CDF8C2
:201B8C00008001F067FC2D4C012644F8046C54F8040C8008FBD3DFF8A890B9F8000045F86A
:201BAC001D6C01281FD0032045F8390C0027276020688008FCD239465046602205230091F7
:201BCC0001F048FC266020688008FCD345F8216C45F8397C0820C5F8FF0FC5F8F30F45F8B4
:201BEC00396C464620E00027E760032045F8390C276020688008FCD2CDF8008050463946D6
:201C0C006022052301F026FC266020688008FCD3202045F8210C45F8397C0824C5F8FF4FC3
:201C2C00C5F8F34F45F8396CC9F80460BDE8FC87A001001039400C4000A00C4038600C4024
:201C4C009C2A002010B50B46002804BF40F6FF70C0F20F006ED041F25030C5F2000000681B
:201C6C009A0CC0F38361C0F38F2061D243F30722002A26D55442B2F1FF3F4FEA640415DAFB
:201C8C00400805D1490806BF0121081C4FF6FF70400802F1010205D1490806BF0121081C9A
:201CAC004FF6FF70641E02F10102E9D15B0A08D3400805D1490806BF0121081C4FF6FF70C4
:201CCC00521C002A34DD022A4FEA620302F001041DDB4FF6FF7C400040F00100844507D2C3
:201CEC00480040F001010F2992BF01200F216046400040F00100844507D2480040F0010151
:201D0C000F2992BF01200F2160465B1EE3D1002C0EDD40004FF6FF7240F00100824207D22F
:201D2C00480040F001010F2992BF01200F21101C40EA014010BD7047F8B503F039FB314CD7
:201D4C00256805F00C000C2855D0E8082ED22E480068EFF3118780F311882C4EB068002189
:201D6C0003F046FC7169B269091A8A4238BF002187F3118826480068884217D22548264AAD
:201D8C00264D036812682868B3FBF2F22018891A03F02AFC2868201803F022FC0120FEF7DA
:201DAC0081FF2868201803F017FC25E0280922D21B48690939BF016821F00101016841F0BC
:201DCC00010102460160D2F898004FF0805440F00300C2F89800D4F8B8018069014620205D
:201DEC008847D4F8B8010F4C806B2168804701202060206800E030BF03F0E0FA01F032F90C
:201E0C00F8BDC046D0270020345B0000780100202C5B0000305B0000385B00001C5B0000A0
:201E2C008C2108402C2009402DE9F0430646ADF11C0D03F0CDFB02F075FC4FF000090546FF
:201E4C00CDF8009003F0D2FA30F0010002D00098A84202D16FF0040059E070684C4658B10B
:201E6C00B0F1FF3F05D001A902F004FB30B107464CE04FF0FF3000E02046019003F0A4FBD6
:201E8C000199012701EB000800E001936868019903F096FB00282ED003A802F0D3F9D8B9FE
:201EAC00BDF8100002A902F0B3F988B9B368BDF80800BDF81210059A984748B1BDF812706A
:201ECC00F781BDF80800B081059B33614F4612E00599684602F0E4FB0198641CB0F1FF3FC0
:201EEC00D4D00028D2D003F06FFBB8EB000302D001989842C9D2009905F1080002F0FCFC04
:201F0C0024B1686803F058FB641EFAD1384607B0BDE8F0832DE9F04105462E480068EFF3DE
:201F2C00118880F311882C4A505D411C0028515549D12A4CA900675C07F03F003F280C44B9
:201F4C0001D0FFF7E7FF607800F03F003F2801D0FFF7E0FF668837F07F0019D1F80911D252
:201F6C004FF08054D4F8B801406901463046884704F5DC742068406B014630468847012857
:201F8C00F8D120E0164850F82610012088471AE04FF08054D4F8B801C06901463046884759
:201FAC00D4F8B801406A014630468847D4F8B801C06A01463046884701210A4A0A481160E6
:201FCC0001688908FCD388F31188284602F0F8FCBDE8F081345B0000002B00200459000077
:201FEC002C2B002028200860282008402D492DE9F0410968EFF3118881F311882A4B195C7E
:20200C004A1E01291A5449D12849800045180E5C6F8836F07F0019D1F00911D24FF080546D
:20202C00D4F8B801806901463846884704F5DC742068406B0146384688470228F8D120E08F
:20204C001D4850F82710002088471AE04FF08054D4F8B801006A014638468847D4F8B8018C
:20206C00806A014638468847D4F8B801006B01463846884701210E4A0E4811600168890817
:20208C00FCD306F03F003F2801D0FFF7AFFF687800F03F003F2801D0FFF7A8FF88F311885C
:2020AC00BDE8F081345B0000002B00200459000028200860282008402C2B00202DE9F043C7
:2020CC002D4D2E68D5F804800446ADF1540D03F097FA3188012903D103F08EFA002048E04C
:2020EC000127378003F088FA1CB9684603F06CF86C4603A803F07CF860680790237A8DF861
:20210C00243098F8070003A902F0A4FF0028E5D07060DFF8689020680021C6F828902422A6
:20212C00B060082386F82C700BA803F079FA00240AE0A00039460BAA00EB44104844083040
:20214C0003F06AFA641CE4B2002CF2D08DF8447006F10C0039460BAA03F05EFA00F0DEFE91
:20216C000028BBD0D8F800102846112201F07AFA284615B0BDE8F083FC5A0000442900208C
:20218C002DE9F8430C46064620687568B768002850D003F035FA696D21B103F02DFA032071
:2021AC00207447E04FF0010884F810806C6503F023FA95F8700030B195F859201F49A86EC1
:2021CC00114302F007FB3968486840F00200486030462146FDF72CFF3968486940F0010001
:2021EC004861676803F00CFA154C8146207801280AD017F0704F02D1102001F017FF0420AB
:20220C0001F014FF84F80080484603F0F5F9287830B9696805F13804204603F0D1F910B1D3
:20222C004046BDE8F8833046FFF794FB2046002103F0C6F90020BDE8F883C04600000680EC
:20224C00101D00202DE9B8418278DFF8B4800024111C37D0891E15D0491E01292AD84078E2
:20226C0000282BD1032A0BD04546E88920B1A87818B101F015FD00E0AC700320444635E0AF
:20228C0002201CE04778451CC7B94246C078117948B9107802280BD002F0F4FE40B901209E
:2022AC0002F0FCFE04E04332204601F097FD2870287818B9012C1AD0BDE8B8810420424638
:2022CC00107014E042464778D17844466FB9C01C036804F11802136080889080012004F145
:2022EC002402207001F07AFD08B1042020704246506918B1016809B110788847BDE8B881E5
:20230C0064240020F8B50D46EEB2290824BF26494D40264BB400195985EA01020240C2F359
:20232C00006C234A00EA05078143FF323A4000F4E0270A43B7F5E02F01D1510E15D300F443
:20234C00E0215CEA010710D002F4E027B7F5A02707D0B7F5803704BF22F4003242F4A02295
:20236C0003E022F4803242F4C0221A51114CC10D04D3A4F18001C5F380528A55000E11D3B0
:20238C0003F03EF9290E03D201210022B14002E00121B1400A46503423688B431A432260C5
:2023AC0003F02AF9F8BDC046006000A000100840007F077F8020024041F21C3010B5C5F206
:2023CC0000000468B4F1FF3F08BF002402F01AFF40F2844346F25C01002242F2082E012071
:2023EC0040F2801CC4F26023C4F20C011A60C4F2043E0860C4F2283CCEF80000DCF8000079
:20240C0038B140F20010C4F2203000682046FEF7E7F844F20402C4F203021068052142F214
:20242C004803C2F20001C4F2030320F003000143116019684FF0000EC0F2391E6FF35B4137
:20244C004EEA01000421C4F2090118600868C0F30130012809D10A684FF6FF70CFF6FC405C
:20246C00104040F400320A60086010BD29482DE9F84FD0F80090EFF3118589F31188264CD6
:20248C00A068012103F0B4F84FF0010A4FF00008064621686769A4F81CA02068A4F81E8017
:2024AC00791A321A8A42A6EB07062DD385F311884546EF195046394603F07AF8761B0546CD
:2024CC00B542F6D9EFF3118B89F31188E08B012804D14046394603F06BF80546B5F1FF3FA4
:2024EC0006D0A169AD1BA94238BF0D1CE91901E0A5697919284603F057F8A4F820A0A4F8F2
:20250C001C805D46276001E0A4F81C8085F31188BDE8F88F345B000078010020FEB502F0C6
:20252C0013FA02F0A3FD264CA06001F009FE01250027022640F202308DF800502946ADF8C4
:20254C0002706A468DF80460FFF700F940F2033031460DF10202FFF7F9F840F2053019210F
:20256C0004F12402FFF7F2F84FF44170082104F11002FFF7EBF840F20630294601AAFFF7DF
:20258C00E5F80620A02101F00FFE0720A02101F00BFE0820A02101F007FE0920A02101F0D1
:2025AC0003FE02F073FC02A0394602F069F9FEBD424C452042726F61646361737465720020
:2025CC0018210020F0B5ADF1140D02F0E5F9254C0426002704F11E0502F0DEFBB8B90097B5
:2025EC0001A80DF106016A4601F0D3FF78B9BDF80400102807D16089BDF80610884202D163
:20260C00009802F0E7FE009808B102F0DBFCA0894108E1D320F00100A378A081002BDBD0DC
:20262C0060798DF80800A3798DF8093029680DF10A021160A9889180E0798DF81000237A75
:20264C008DF8113002A802F08FFE0028C4D0606926700028C0D001680029BDD03046884748
:20266C00BAE7C04664240020F8B5264C2068EFF3118680F3118824491D4D0B680420B0FABB
:20268C0080F043F00403281A1F3002780B60521C027086F311882068EFF3118380F3118812
:2026AC000A680820B0FA80F042F008022D1AE87F0A60401CE87783F311880E20FFF72AFCF2
:2026CC000C480068C0F38150032814BF0020012009490A4A088017683FB9094C4020206095
:2026EC000123D36100204860F8BD0120F8BDC046A02B0020B43F00509C2A002004800C4039
:20270C002C500C40345B0000D0270020F0B520480127F84201D001F08DF9204D204F214E3D
:20272C00BD4206D203CD0478A4003459401CA047F6E71D48002800D08047164D164FBD422E
:20274C0002D210CDA047FAE7F0BD03251BE0416808300A1C2A400BD11A1C2A40AB4305D074
:20276C00046804300C600431043BF9D1131C05D0047801300C700131013BF9D1021C2A4016
:20278C0001D0A84304300368002BE0D17047C046FFFFFFFF0000000000000000CC5F000012
:2027AC0054600000C45F000059C501102DE9F04708AF97F80080044691460D46084602F040
:2027CC0049FD21680646886A04680831086A09EBC317B8F1000F00F10800814603D009683F
:2027EC0002F0EEFE60B32EB3DFF858C0691E3846002511F8012F202A12D0071902EB8202EC
:20280C0007F1050E0319A53A052792B2624412F801AB7F1E03F801ABF9D18EF8005005E011
:20282C00021906277F1E02F8015BFBD1761E00F10600DED1B8F1000F02D0484602F0BCFE87
:20284C00BDE8F0876F560000002A4AD05FEA000C8B071CD1830722D1102A08D370B4103A73
:20286C0078C978C0103AFBD270BC103238D0042A2CD3082A05D30C2A24BF08C908C008C98C
:20288C0008C008C908C092072AD0920F22E00B780370491C401C521E22D08B07F7D1C30758
:2028AC0014D18307D8D0121F12D308C903801B0C4380001D121FF8D20AE008C903701B0A36
:2028CC0043701B0A83701B0AC370001D121FF4D2121D05D00B780370491C401C521EF9D1C0
:2028EC006046704770B5054601F048FF41F6E444C2F200046668034601F090FE22699B1BD9
:20290C004FF47A715943090C801A48BF404240F6B83249198A4216D3062814DAA268E06804
:20292C00824210D8216871B1801A44F24022C0F20F024243900C00EB1240814212D90846E5
:20294C00C82811D312E043F6AC71C5F200014868400828BF4FF4FA600DD209687D2001F03D
:20296C00FF014843C82801D2C82070BDB0F57A6F88BF4FF47A6070BD2DE98841071C3CD0BB
:20298C0041F2783043F6AC72C5F20000C5F2000200685168C0F3035CC0F3034E49081BD214
:2029AC00D2F800804FEA08511CEB217C05D4BCF1100F04DB4FF00F0C01E04FF0000C4FEA48
:2029CC0008411EEB217E05D4BEF1100F04DB4FF00F0E01E04FF0000E4EEA0C1E00F47F41D4
:2029EC0000F0FF02222F41EA0E4142EA010208D300F080401043BDE8888143F62772C0F2D0
:202A0C0071021046BDE888812DE9F843204D884606464FF0FF3105F12400814602F0D0FD4C
:202A2C00002000E0401CB8F1000F0DD018F82010FF2909D02A688A4204D905EB8101096E34
:202A4C000029EFD000261CE00024346074600127B4600EE005EB80000B787268066607FA70
:202A6C0003F0104370600A680A49304601F09CFE641CB8F1000F04D008EB84010878FF2843
:202A8C00E8D1484602F098FD3046BDE8F883C046F01A0020007FC76738B5042001F0B8FF30
:202AAC001A4C022818BF03281FD103200090164800214FF040521C2300F0CCFC17480068C7
:202ACC00EFF3118380F3118815480421B1FA81F1401AC17F4A1E0129C27703D1206820F0F8
:202AEC000400206083F3118838BD094D0A48094A296803686018B2FBF3F102F075FD28684E
:202B0C00201802F06DFD38BD00A00C40D0270020205B0000A0860100385B0000345B000059
:202B2C00A02B002010B51A481A490078086820F0030040F00100086001F092F801F038FCE0
:202B4C000021154C154821600068C0680146022088471349134A086820F001000860106827
:202B6C00D4F8EC1FEFF3118480F311880E4B0F481A680421B1FA81F1401A42F00402C17FA9
:202B8C001A60491CC17784F311884FF0FF3010BD111D00200440034040100940A0010010A8
:202BAC008C210840345B0000D0270020A02B0020F8B505461E480068EFF3118780F3118837
:202BCC001C4C20684FF0805640F080002060D6F88C014068014601208847D6F8B001006A91
:202BEC00014614208847286906F5C675810C14BF010C04212868406A024601209047D6F8DE
:202C0C008401006823210246002090472868C069014601208847206820F4C02040F48030E8
:202C2C002060206840F00100206087F31188F8BD345B000000200940F8B5001D84B214F00B
:202C4C00030002D0241A241DA4B202F0EBF801461948102C47680160C8BF8768388800229D
:202C6C001646C30BDD0319D126B984420ADD3A46012617E01388C3189BB29C42138011DC09
:202C8C00174618469FB1001B80B20428B4BF3C88385344F400443C803F1D08E080F40040B2
:202CAC00002680B2C71938880028DAD10027084602F05EFA3846F8BD54270020B0B5044601
:202CCC00A768ADF1280D27BB0C20FFF7B5FF071C16D0684600212422082302F061FC002393
:202CEC0006976A466168ADF810301448059302F053FC386038B902F030FA384601F0BAFCCE
:202D0C006FF0030018E0E06878602069B860A7600AE002F087F80546386802F05DFC20696B
:202D2C00B860284602F024FA3868616802F05CFC386802F055FC00200AB0B0BD8153000040
:202D4C00002213460A46194671B510F0030F0BD0002A82BF00F8011BB2F1010210F0030FF3
:202D6C00F6D1002A08BF71BD11F0FF0141EA0121042A18D341EA0141082A0FD30E46102AEB
:202D8C0008D30C460D46B2F10F0312F00F0272C0103BFCD812F0080F18BF42C012F0040F87
:202DAC0018BF40F8041B12F0020F18BF20F8021B12F0010F18BF017071BDFEE770B51546CD
:202DCC0086684268B1F1200002F10C0427D0401E21D0401E1CD1906E15492A78114300F0B7
:202DEC0047FA90B93068B0F1804F14BF23220B222978E06D01F044FEE06D94F84D1000F0A9
:202E0C007BFD287884F84D0010E04FF0FF3070BD6FF0010070BD002084F8640070BD2178E7
:202E2C000020012908BF012084F86400002070BD0020008070B50646F088F5680628A5F17D
:202E4C0008052CDAB088062829DA01F0EBFF154CF28891000C3401EBC20161184968E1B1F8
:202E6C0002F086F930792870B0796870307AA870F188880000EBC1002018F16840680830B3
:202E8C0001F00EFCF188880000EBC10024186068406802F091FB002070BD02F069F96FF054
:202EAC00020070BD7C27002041F2A00108B5C5F20001D1F878020B68020F03F0FF03802B64
:202ECC0028BF002301F056F94FF0FF3188B1401E05D0401E1FD1F2B90A3358B208BD101C90
:202EEC0002D0801E02D016E00A2008BD143358B208BD1046401E0DD0801E04D0001F04D093
:202F0C00401E04D007E0142008BD152008BD163358B208BD0A21084608BDFEE7154830B51C
:202F2C00016815480A79164CADF1140D024300928A794D1D104349790190104808430290FC
:202F4C00FF206946039004F10800FFF75DFD206068B10D480B490068B1FBF0F002F018FB7C
:202F6C0020682978012201F09DFA012000E0002005B030BD005B00000000C0800000808013
:202F8C00EC2A0020A0860100385B000038B50079184CA0B901F046FF2178002904BF6FF0F8
:202FAC000704051C13D0491EC9B2217029B902F0DFF8606801F072F818E0054613E001F08E
:202FCC0031FF05462078FF2805D16FF00604284602F0CEF80BE0401CC0B20128207002D101
:202FEC00606801F076F8284602F0C2F80024204638BDC046382B0020B0B5ADF1400D02F03A
:20300C002BFB044600213C220823684602F0BCFA1148416806918168006804901048001D41
:20302C000068002205900D480891694602F0A8FA071C0DD001F0F6FE0546384600F0D4FCC6
:20304C0030B1284602F094F8204602F0EDFA01E000F088FB10B0B0BD48580000C552000020
:20306C004427002045F2280080B5C4F2090007686FB343F6AC70C5F20000826802EA5201A0
:20308C00C90E24D24168890821D20021C4F20901D1F800C000681CF0050F4FEA104000F0BF
:2030AC00F00000F5E0700CD1B84210D2100F38BF4CF0010CD00E38BF4CF0040CC1F800C01D
:2030CC0080BDB84284BF2CF0050CC1F800C080BD2DE9F041054615F8017B90460E461CE046
:2030EC00B8F1000F05F101050BD0FF2C09D8022015F8011B401E41EA0424F9D101E0042C52
:20310C0002D315F8011B00E0394630462246FFF71BFEA61901E006F8010B15F8010B8742CD
:20312C00F9D115F8014B002CE9D115F8010B2C7800022418D4D1BDE8F081FEE7401E0EB5BE
:20314C000CD0401E08D0401E04D0401E14BF0AA00AA00CE00BA00AE00CA008E0684602F0E5
:20316C008BF800F0F1FB012101F08AFB0AA0022101F086FB0EBDC04600C046C04572726FDE
:20318C007200C04657616974696E67004164766572746973696E6700496E697469616C6925
:2031AC007A6564002DE9F843064635685FEA010805D0A96805F10C0002F002FA18B3A86A81
:2031CC000468B8F1000F00F10800814603D0A96802F0F6F998B100273046394601F03EFCAA
:2031EC0030462146802200F067FA7F1C8034082FF2DBB8F1000F06D0484602F0DDF905F1C6
:20320C000C0002F0D9F9BDE8F88310B5012001F0FFFB012829D04AF20000342101220023E8
:20322C00C4F20C0000F050FC002808BF00201DD08020C1F200000068804701F09FFA41F645
:20324C00E44344F24022C2F20003C0F20F029C681968D860041BA1EB91016243120C8A42A0
:20326C0024BF1A60012001D21960012010BD70472DE9F041071C0E4604D0144C2068F5B2B2
:20328C00A84202D80220BDE8F08104F124004FF0FF31804602F094F904EB850460342068C5
:2032AC0060B979680120A84027603246084308497860384601F078FA002400E001244046FC
:2032CC0002F07AF92046BDE8F081C046F01A0020007FC76798B541F23403C4F2090318682B
:2032EC000004070C26D001F099F941F60852C2F2000292F90710814205DD10F1800FB8BF9D
:20330C006FF07F00D0719188B94212D81468D3F8D40F001B801C1F2888BF1F207F1A4008F5
:20332C00C7404FF6FF70C919884238BF011C918098BD978098BD000038B502F061F9154C9A
:20334C000546A01D008840B9FFF78EF90446102000F032F9012C0DD017E0FFF756FF60B169
:20336C000020E080FFF780F90446102000F024F9012C0AD1FEF7EAFB07E030340521204612
:20338C0002F032F9204602F02BF9284602F034F938BDC046D0270020F8B5054605F12802D1
:2033AC000CCA0846002101F091FE05F1300292E8C00036184FEA164447EB0107380404433C
:2033CC0001F0DCF9211AB1F1004F08D8011B091DC90F05D1001DA04288BF041C00E0041DB8
:2033EC0004480068426A214601209047383585E8C000F8BD8C0100101549096821280ADC18
:20340C00212819D00C380FD00D380FD0001F0FD0C01E0FD01AE0253810D0401F10D0401E98
:20342C0010D0401E10D011E0086870474868704788687047C86870470869704748697047C5
:20344C00C8697047086A7047486A704700207047F00100202DE9F041984600EB4100164651
:20346C00B8F1100F06AF00F5007404D3A8F1100800F50174360C3D8801F09AFF05FA08F5DB
:20348C0045EA06450021002808BF012148F20002C4F20C02106810B910680028FAD0256044
:2034AC000120106009B101F089FFBDE8F0810000B0B5044602F08CF800F096FA054601F045
:2034CC00B1FC0146A2880F480023243030F80C7F5FB902804560A381A268826068682061A1
:2034EC000024084601F044FE09E0974208BF6FF00204F6D05B1C062BE8D300F033F9204682
:20350C00B0BDC046582700207FB5866831684568486820F0020048603168486920F00F0052
:20352C00486130680321016202A802F025F80B4800680468286900906869074B0190297E5B
:20354C0003EB81010A6A297B306853F821300399A04700907FBDC04698590000C401001088
:20356C00F0B5144C241F65686879ADF1340DFEF7D1FC02F045F826680746307890B901A804
:20358C0000213022082302F043F8069400200090074A297901AB301D02F036F8012030703D
:2035AC0001F07EFB384602F027F820460DB0F0BD53540000E45A0000F8B507461248134C9E
:2035CC000668301902F044F80025A419C0B9204602F03AF80646B068074206D0F26831699E
:2035EC0038469047C0B2012806D0304602F028F80646B442EFD103E00248006880470225EC
:20360C002846F8BD285B0000245B0000D0270020B0B5044601F0EAFE30F0010008BF6FF093
:20362C0004041BD001F0D4FF054601F0FBFB0C4A062132F80C7F6FB1A388BB4208D1526888
:20364C0012680021954208BF0121A160002403E0491EEED14FF0FF3401F08AFD2046B0BD18
:20366C007C2700202DE9F0478A460646114C71688F1D20683568097991460022804600F0DA
:20368C0011FF39780022404600F00CFF30464A46514601F06DF92D1D296889680A68D1684F
:2036AC004909FCD220B120683978012200F0FAFEBDE8F087EC2A00202DE9F0478A4606460E
:2036CC00114C71688F1D20683568097991460122804600F0E7FE39780022404600F0E2FE97
:2036EC0030464A46514601F043F92D1D296889680A68D1684909FCD220B120683978012230
:20370C0000F0D0FEBDE8F087EC2A00207CB5FEF705FF124C002501F057FF01F04BFB00283A
:20372C00F9D1009501A80DF106016A4600F048FF18B9009808B101F051FC206801F088FF29
:20374C000028E8D1206801F0BBFA061CF5D001F0FCFD304601F006FCEFE7C04620210020D7
:20376C0000BF704708B5FFF7FBFFFEE738B50D4C0546A06820B10C48B0F1FF3F00D0804701
:20378C000A4800688047606810B1014628468847206800B18047064800688047FFF7E2FF3B
:2037AC0038BDC046142B0020FFFFFFFF402B0020442B0020DCB5044601F00AFF00F0B2FF17
:2037CC00064601F013FE30F0010014BF002E6FF0040017D0606858B1B0F1FF3F05D06946EF
:2037EC0000F048FE30B107460BE04FF0FF3000E0002000907068009901F0E2FE002700B94E
:20380C0001273846DCBD70B504464AF200060D466008ADF1080DC4F20C0607D3A8B2002121
:20382C00009001220B463046FFF714FEA00807D3A8B200900021022201233046FFF70AFEB1
:20384C00E00807D3A8B2009000210C2202233046FFF700FE02B070BDB0B5054601F0B8FE9C
:20386C00044601F0C3FD30F0010008BF6FF0040416D001F0D7FA01460A48002230F80C7FDC
:20388C004FB143681B689C4204BFAA80002404D0521C062AF2D36FF00404084601F068FCBE
:2038AC002046B0BD7C270020F8B5044601F090FE00F09AF8071C19D001F0B4FA84460D48A4
:2038CC000021243030F80C6F6EB94FF6F87202804760A180002585607868A060604601F023
:2038EC0047FC2846F8BD491C0629EBD3FFF73AFFF8BDC0465827002010B50C46F0B1426819
:20390C000121A1400A4219D08A4342600C48002300EB840122180B6602F140010978FF2985
:20392C001ABF406850F8211044F020410548FEF7E9FC20464FF0FF3101F04AFA10BDC046E8
:20394C00F01A0020007FC767114990B504461122ADF1140D6846FEF777FF0E48A41D302128
:20396C0006270170821C7821417014F8011D09111DF80110237802F8011B03F00F011DF882
:20398C0001107F1E02F8011BEFD105B090BDC046BC5A0000F81C002038B544688568E06E71
:2039AC0000F043FFA06E01F0CAF92968486820F00200486004F11C0001F0DAFD6879FEF75D
:2039CC0015FB207818B904F1380001F0CDFD04F1900001F019FA01F013FE002184F8A4109E
:2039EC0001F00AFE38BD00002DE9F843804601F019FA0F4C03250026814654F80C7F5FB953
:203A0C003046C4F800800146A6600A4601F0A8FD606018B9FFF7A6FE474501D1264601E0DF
:203A2C006D1EEAD1484601F0A3FB3046BDE8F88358270020F8B506460F4D104F738800240F
:203A4C0017E0A00000EBC400321851689068D26852B9AF420BD00A7855F822200346491C49
:203A6C0008461946904701E0FEF7EEFE7388641CA4B2A342E5DCF8BDC45F0000CC5F00007A
:203A8C0008B50D480D4B006890FAA0F0B0FA80F1012000FA01F21A60094A1060094802680D
:203AAC008A4207D900EB8100006E18B102680AB1C9B2904708BDC046E0200240E0200260C5
:203ACC0080E200E0F01A002070B51E460C181546102E02D3103EA41C2D0C01F069FC002195
:203AEC00002808BF012148F20002C4F20C02106810B910680028FAD024880120106009B107
:203B0C0001F05CFC05EA0400304180B270BD00000F4838B5401C0578182001F070F8041CBF
:203B2C0012D00421002201F081FB00F08DFD207265720020A072E0602061606101F06FF8F4
:203B4C00024A214600F0FEF938BDC04671540000642400200C4885460C4885446F4607203F
:203B6C008743BD460A486F4607600A48002803D07946491D8E460047FEF7C8FD01F09AFA32
:203B8C0001F0EAFCFEE7C0466442002000040000A82B00202954000038B50F4C2C34A4F1E0
:203BAC002C01086820F00100086054F82C1C4FF0805541F0800144F82C1C01202060D5F897
:203BCC008C11226849688847D5F8B001006A014614208847206838BD0020094098B5044683
:203BEC002420FFF729F8071C14D000212422082301F016FD2079012804BF01203876A06865
:203C0C003946002201F0ACFCE060384600F032FDE06810B96FF0030098BD002098BDD0B5BF
:203C2C0004463C20FFF708F8071C14D000213C22082301F0A9FC207AB86160893862E06817
:203C4C00386160683946002201F09AFC0646384600F010FD16B96FF00300D0BD0020D0BD9D
:203C6C0010B54FF08054D4F8900181680120884741F21401C4F209010868800902D20868E5
:203C8C008009FCD3D4F8A00101684020884704F5D07420688168402088471128F9D110BD0E
:203CAC000E4838B5C4896430054601F0EEFB10B1284601F091FC084800684FF47A71B1FB70
:203CCC00F0F080B204FB00F1284601F08DFC284601F086FC38BDC046385B000064240020D7
:203CEC00012810B515D1012000F092FE012812D001F0B2F8094C0120E0803034204601F00C
:203D0C006BFC0521204601F06FFC204601F068FC01E000F04DFB002010BDC046D02700206A
:203D2C000C4810B50068EFF3118480F311880B48C088012809D10848342101220023FFF7F4
:203D4C00C3FE002808BF002000D0012084F3118810BDC046345B000000A00C40D027002021
:203D6C00B0B504460D48026840680F4600211200401841EB020104F128020CCAFDF70EF922
:203D8C0005460B4647B104F1280003C82A4601F09DF9303484E803002846B0BD0820094085
:203DAC0000B500213C220823ADF13C0D684601F0EBFB084800F1D80107914FF4027108912B
:203DCC0003210691044900236A46883001F0C0FB0FB000BD64240020D1250000F8B5044687
:203DEC0016460D46102000F00AFF071C10D00421072201F01BFA00F027FC38727C72BD72AE
:203E0C00FE6000F00CFF034A394600F09BF8F8BD0420F8BD8954000070B50446606810F04C
:203E2C007F4F18BF6FF0020011D100F0FBFF084D0646287828B1686800F030F9606800F0E9
:203E4C0048F960686860304601F092F9002070BD382B0020F8B500680E46816A0C6800F10A
:203E6C000801086A151C00F10800074603D0096801F0A6FB58B1002104EBC6148020401E7D
:203E8C0004F8011BFBD115B1384601F095FBF8BD014638B50A480C4B50F8212009481C687D
:203EAC0010400122084302FA01F5254218BF40F480008A40196D0A4218BF40F4000038BDB8
:203ECC0000100840007F077F80200240F8B50746BD68686800F1540490F8590001F0AEF8E7
:203EEC0061790646384600F075FC064800EA0601884205D12168042008742846FDF72AFD20
:203F0C00F8BDC0460000068000B500213C220823ADF13C0D684601F037FB084800F190016B
:203F2C0007914FF42F71089101210691044900236A46403001F00CFB0FB000BD182100204B
:203F4C00193700001CB51446CA78012A02D18A880A4B1A8000F0FCFB30B90020009069466A
:203F6C00204600F00AFF18B100F040FF044603E00098447801F01AF820461CBD202B0020B0
:203F8C000C4910B50968EFF3118481F311880A49B0FA80F2891ACA7F531E012ACB7703D1F9
:203FAC00034A11688143116084F3118810BDC046D0270020345B0000A02B002010B5044677
:203FCC000B4802680023D90750080143D007801A4FF47A729941FCF7E1FF002908BFB0F19B
:203FEC00004F28BF6FF000406060002010BDC046385B000000B5002124220823ADF1240D84
:20400C00684601F0CDFA01200022064906906B4605920548ADF81020643001F095FA09B0CF
:20402C0000BDC046A9500000642400200C4938B50968EFF3118581F31188074B07491A68B4
:20404C00B0FA80F4091B1043CA7F1860521CCA7785F3118838BDC046D0270020A02B002041
:20406C00345B000010B50C4600F088FB211AB1F1004F08D8011B091DC90F05D1001DA04220
:20408C0088BF041C00E0041D03480068406A214602460120904710BD8C01001038B5054606
:2040AC00012411E0C0F11F0004FA00F1052881EA050504DB401FC0B2FDF798FF04E004FA60
:2040CC0000F0C0B2FFF75CFFB5FA85F02028E9D138BD38B50546012411E0C0F11F0004FAEA
:2040EC0000F1052881EA050504DB401FC0B2FDF711FF04E004FA00F0C0B2FFF797FFB5FAEE
:20410C0085F02028E9D138BD98B50446A06858B1B0F1FF3F05D0694600F0ACF930B1074659
:20412C000BE04FF0FF3000E0002000906068009901F046FA002700B90127384698BD00001D
:20414C001FB50B4C04F1100004F10801FEF75CFC6060684601F038F8FDF7B0FF206020B155
:20416C0000F0D8F8206801F0B7F800901FBDC0462829002041F21830C5F2000001684BF68C
:20418C009A10C1F30F31884208BF00200BD02430884208BF012006D04BF6203088420CBFE7
:2041AC0002204FF0FF30704770B505460E460C2000F025FD041C0CD00421302201F036F818
:2041CC002581668100F02BFD034A2146FFF7BAFE70BD042070BDC0468354000038B504463A
:2041EC00A1686068086001F037F948B1002506490095064AA368097800F084F9284638BDAB
:20420C006FF0030038BDC046475A000021440000024680B5062A0CDA094F900000EBC20007
:20422C0007F13002175A13181FB14FF6F870B84202D14FF0FF3080BD18880880002080BD32
:20424C005827002010B5044601F0C2F900F06AFA002808BF6FF004000DD0083000F0C7F98D
:20426C00A06038B110F8081CA18010F8070CE080002010BD022010BD10B5044600212C2227
:20428C000823ADF1300D684601F0C2F8E0200890A168606800236A4601F052F9002818BF3C
:2042AC00002001D1FFF75EFA0CB010BD10B5044600212C220823ADF1300D684601F0A8F866
:2042CC00E068A1680890606800236A4601F038F9002818BF002001D1FFF744FA0CB010BD7E
:2042EC0010B5044600F09EFD094B0022014633F80C0F30B1A04208BF94B203D0521C062AD4
:20430C00F5D3FF24084600F033FF204610BDC0467C270020B0B50168083191F8240090B145
:20432C00086A4768046809680830054601F048F948B12FB100213846401E04F8011BFBD104
:20434C00284601F039F9B0BD010446F244020B0CC4F20C02C0F3074142F8083C012042F821
:20436C00041C40F68401C4F28C311060086810B908680028FAD0002010607047F8B504469A
:20438C0016460D46102000F03AFC071C0ED02A46042100F04BFF00F057F93872FC6000F006
:2043AC003EFC39463246FFF7CDFDF8BD0420F8BD08B503200021FFF726FA012000F028FB27
:2043CC0020B18020C1F200000068804700F0D6F941F6E443C2F20003586000F01FF9186171
:2043EC0008BD1078802811D1508840F27F6181420CD190883F21B1EBA02F07D1C0F3C2110F
:20440C00042903D100F07F00834201D0002070470120704710B5401E0C460DD0401E09D052
:20442C00801E05D0001F01D0FFF79CF9052004E0002002E0042000E0022022682146904789
:20444C00002010BD38B5094CE8210020218040F61432A4F8FC0B04F1E8010A80044D6961B5
:20446C00FEF7EAFBA8616C6138BDC04620050020442700200A4A10B512680C464FF47A71A2
:20448C000023A1FB0001FCF789FD002908BFB0F1004F2EBF6FF002002060002010BDC04636
:2044AC00385B000080B517460246084803688B420AD900EB8100006E824205D1002207B1CA
:2044CC0001220348D038425480BDC046F01A0020D020024010B501F0AFF801F0BDF80320FF
:2044EC0001F02AF806481030006830B1034C204600F096FE204600F090FE10BD2552000065
:20450C00A401002098B517460A46011C14BF002F032009D0064C8A600448CF6022680B6108
:20452C00801801F005F8002098BDC046D0270020245B0000094838B50068EFF3118580F347
:20454C001188074CA41D2088012803D1FEF75DFE0020208085F3118838BDC046345B000052
:20456C00D027002020280FD341F29830C5F2000001680803820D920500F47C1001F00F0121
:20458C00104340EA0130704748F20000C4F23F0070477FB50646082014460D46ADF80000CA
:2045AC000920ADF80200684600F0E7FABDF804103180BDF8061029800299216000907FBDCA
:2045CC007FB50646082014460D46ADF800000920ADF80200684600F0D0FABDF80410318023
:2045EC00BDF8061029800299216000907FBD98B5044600F017FC2168002908BF002709D040
:20460C000F4657F80C2C2260002347F80C3CFF2401F8024C00F0ACFD384698BD45F2280051
:20462C0041F20C31C4F20900C5F20001826891F900100068A0F540704143091142F3100073
:20464C00401A8030001270470EB55020ADF800000020ADF8020006480078ADF806006846BD
:20466C0000F08BFA002814BFFF209DF808000EBD6E24002010B5044600F0D4FB074934F83B
:20468C00042C6FF3DF3224F8042C4A680860241F944238BF4C6000F06BFD10BD5427002089
:2046AC0038B50C46054600F0BDFB002144F80C1C296811B92C6006E0114651F80C2C002A68
:2046CC00FAD141F80C4C00F053FD38BD10B5044660680C3080B2FEF7AFFA50B1A18800230D
:2046EC000181FF22036000F10C0182721846A16010BD6FF0030010BD38B50546FFF7A2FD8E
:20470C00041C0DD1A8886946FFF782FD28B1A86800F040FC6FF0050038BDBDF80000A880F0
:20472C00204638BD38B5054600F07CFB074C0322014654F80C0F18B1A84202D0521EF8D18F
:20474C000024084600F014FD204638BD5827002000B5ADF1140DADF8040003910822ADF860
:20476C000020ADF802201020ADF8060002208DF80800684600F001FA05B000BD38B500F0D4
:20478C0017FE0021002808BF012142F20800C4F20900046845685FEA010E01D000F00EFE8D
:2047AC00200440EA154038BD38B5094B1C6802F0FF05AC420AD902F0FF0403EB84031B6ED6
:2047CC00984203D108461146FDF79CFD38BDC046F01A00200A46094910B50B6802F0FF04F9
:2047EC00A3420AD902F0FF0301EB8301096E884203D14FF4E021FFF7D7FF10BDF01A002065
:20480C0010B50C46ADF1180D02900821ADF8001019216846ADF802104FF0FF31019100F0B2
:20482C00ACF90499216006B010BD70B505684468287870B1607900F0DFFD012806D12068FA
:20484C0000264660281D00F093FE2E706079FDF7CDFB70BD70B515460C46064600F09EF9B5
:20486C00011C03D1284600F089FB70BD8D60304600F05AFE14B1204600F09EFE70BD00009D
:20488C0070B5084C064620680D4648B100F01CFD20682A46314600F0C5FB206800F01CFDBA
:2048AC0070BDC0462829002070B141F27430C5F2000001684FF6FC4CC0F2FC0C01F07C423A
:2048CC000CEA0100104370470020C6F688007047084A0021032002F1140343F80C1F401E4C
:2048EC009960FAD144320620401E22F80C1BFBD100F080BB4427002098B50F46044600F04F
:20490C0091FA57B13A4600E00A4652F80C1C0029FAD1216842F80C1C276000F029FC98BD06
:20492C000EB50820ADF800000120ADF80200684600F023F90349BDF8040048810298086188
:20494C000EBDC046642400200EB50820ADF800000120ADF80200684600F00FF90349BDF8D3
:20496C0004000880029848600EBDC0461821002010B50024ADF1180D0191036803941B1DBB
:20498C00029418680092694600F058FD012808BF0124204606B010BD38B5FFF7C1FF074C7B
:2049AC0000252570FFF726FB01206070A5712572032060710720E07138BDC046642400206D
:2049CC0010B50E284FF0010403D00649085C28B105E0204600F01CF8012800D0002420465B
:2049EC0010BDC046002B002008B5283090E80C0005A003C8FCF7D2FA002908BFB0F1FF3FF6
:204A0C0088BF4FF0FF3008BD00000000907E000001464AF200000429C4F20C0005D1342165
:204A2C004FF0C0421D23FFF74FB834214FF080521C23FFF749B80EB50820ADF80000202080
:204A4C00ADF802001020ADF80400684600F095F8002814BF002002980EBD00001CB5074BFC
:204A6C001C880A4669460C809B788B700B78D2180A700322FEF7F6FD1CBDC0466C56000058
:204A8C00074B10B51C688C4208D903EB81031B6E984203D10846114600F09AF910BDC0461C
:204AAC00F01A002010B5044600F0C9F80246054801682AB10123138094704068FFF7CAFE06
:204ACC0010BDC0461C210020074808B51030006828B1034800F0A4FB024800F09EFB08BD9B
:204AEC00ED4C0000F1500000A4010020074810B51030006830B1044C204600F091FB204636
:204B0C0000F08BFB10BDC04663090000A4010020074808B500F004FDFFF7D6FF00F0FCFC5F
:204B2C0000F0F6FC00F0F0FC00F0EAFC08BDC046E144000010B50648064900684C684068BF
:204B4C00014601208847A06901466069884710BD8C010010E401002050B141F27030C5F230
:204B6C0000000068020400F47C01100C0843704747F28A60C0F26800704710B50446208881
:204B8C0000F07EF838B1816811B12046884710BD6FF0010010BD4FF0FF3010BD0EB50820BA
:204BAC00ADF800000420ADF802000C2001906846FFF7E3FF002814BF002002980EBD60B1A5
:204BCC0041F25031C5F2000108680968C0F3870001F0030140EA01207047D8207047202854
:204BEC000BD341F29830C5F200000068C10C01F44071C0F3845008437047002070470EB51B
:204C0C0001900821ADF8001068460221ADF80210FFF7B3FF002814BF002002980EBD0EB5A6
:204C2C000820ADF800001A20ADF802006846FFF7A4FF002814BFFF20BDF804000EBD0EB512
:204C4C000820ADF800000420ADF8020001906846FFF793FF002814BF002002980EBD000069
:204C6C0008B54288292A28BF6FF0010004D203490C3151F82210884708BDC04654580000E7
:204C8C0008B5FFF72DFBFF2808BF002004D0034B810001EBC001581808BDC04688270020C5
:204CAC000548006801680022CA62044A01688A600068012141607047E45A00000004002097
:204CCC0010B5044600F0C4FC002818BF002006D1204600F011FC846800F050F9204610BD58
:204CEC0010B5064C206900F003FC0146A06800B9E160A068401CA06010BDC046A4010020D4
:204D0C000648026840680021120040184FEA104041EB0201090408437047C046082009405E
:204D2C0010B50446E088FFF7DBFAFF2808BF4FF0FF3003D0E0802046FEF77CF810BD10B535
:204D4C00044607E090FAA0F0B0FA80F0C1B22046FEF7D2FD60680028F4D110BD08B5FCF713
:204D6C00FBFAFFF7B5FDFEF747F9FFF719F8FFF7CBF800F0B9FB002008BD38B50D46044682
:204D8C00FFF759FE002818BF6FF0040003D120462946FFF735FD38BD0EB50820ADF8000002
:204DAC000A20ADF802004FF0FF3001906846FFF7E4FE0EBD0EB50820ADF800000A20ADF867
:204DCC0002004FF0FF3001906846FFF7D6FE0EBD002948BF0021044A02EB8000026861F3B9
:204DEC00050202607047C0460010084050B110F1040F08BF042006D010F1030F0CBF022053
:204E0C000120704700207047054910B50968EFF3118481F3118800F063FB84F3118810BDA4
:204E2C00345B000010B500F017FC80B260F30F0400F0E6FB80B260F31F44204610BD1CB5BA
:204E4C00044660686946FFF715FB20B9009860602046FDF733FF1CBD08B503200121FEF7F2
:204E6C00D2FCFFF78BFC41F6EC41C2F20001086008BD41F29420C5F200000068C0F302409A
:204E8C000228C8BF4FF0FF30704700000449087818B90248486100F0F4BA704724210020E5
:204EAC0064240020222807D341F28C30C5F200000068C0F30070704701207047222807D336
:204ECC0041F28C30C5F200000068C0F34070704701207047202807D341F29830C5F20000F2
:204EEC000068C0F30150704700207047222807D341F28C30C5F200000068C0F3C0607047F0
:204F0C000020704738B141F27C30C5F200000068C0F30D00704740F2FF307047222807D314
:204F2C0041F28C30C5F200000068C0F3455070470020704708B5406810F07F4F18BF6FF018
:204F4C00020002D1FFF7AAF8002008BD08B5406810F07F4F18BF6FF0020002D1FFF7B9F80E
:204F6C00002008BD0EB501900821ADF8001068460521ADF80210FFF700FE0EBD0EB5019070
:204F8C000821ADF8001068460521ADF80210FFF7F4FD0EBD0EB501900821ADF8001068460A
:204FAC000321ADF80210FFF7E8FD0EBD0EB501900821ADF8001068460321ADF80210FFF7B3
:204FCC00DCFD0EBD0EB501900821ADF8001068460321ADF80210FFF7D0FD0EBD0EB5019084
:204FEC000821ADF8001068460321ADF80210FFF7C4FD0EBD04480821A0F844100149C164EC
:20500C00FFF720BA6D4C00004427002010B50446A088FDF711FE0028A06014BF00206FF0BC
:20502C00030010BD08B5036893F82C302BB10123009313460022FDF7B9FB08BD08B5FEF758
:20504C0027FF01460248484040F0004008BDC0460060002010B5044C830003EBC003E058C9
:20506C00C268E018904710BD485A000010B5044C00211834204600F02FFA204610BDC04682
:20508C0018210020044810B5643000F0FEF9002400B10124204610BD64240020044B03F107
:2050AC000C010A8810430880186900F085BAC046642400200449B1F1FF3F07BF0020011CDC
:2050CC000868091DFFF74ABEFFFFFFFF30B502FB01F403FB00444FF00005E2FB005421463F
:2050EC00284630BD04498868401E886003D10869C96800F0EDB97047A4010020012814BF42
:20510C00002040F2FF700249086000207047C04600000460044802684068002112004018E5
:20512C0041EB02017047C04608200940034804490068814201D0FDF7F0BE704798CA0110A6
:20514C007047282038B141F28C30C5F200000068C0F3C14070470020704708B50820ADF881
:20516C0000000C20ADF802006846FFF706FD08BD08B50090BDF8020000F03EFABDF8000003
:20518C0000F052FA08BD08B5406820B1006800F023FA002008BD6FF0020008BD10B504463D
:2051AC00FFF7A4FC032000F0C7F9204600F0D4F910BD38B50546FEF7B3FD002400B10124B3
:2051CC0000202C7138BD00004FF0FF3101600249416000210172704740420F0040680021B0
:2051EC0080F8A410014801707047C046101D0020034938B53CC93CC01EC980E81E0038BD17
:20520C006C5A000008B5FEF7B5FF18B9FDF74CFE162800DAFEE708BD704703490860704763
:20522C000149091F08607047442B0020812342EAC112037042F47C4282800023C370704729
:20524C0008B500F041F90248006800F039F908BD840100200146002001E0401CC0B20A5CA1
:20526C00002AFAD1704700B50A21ADF12C0D684600F022F90BB000BD02490A68026089885E
:20528C00818070477C240020024A00200821FFF775B8C0467754000010B504466068FDF736
:2052AC0021FBA060002010BD02490968416000207047C046385B00000246024808B59047E6
:2052CC0008BDC04654580000026892F82C2012B10122FEF7BFBD7047016891F82C1011B10D
:2052EC000121FDF75FBF704710B5044600F08AF86060002010BD08B500F0AEF900F080F9CC
:20530C00002008BD08B500F0D3F800F0CDF8002008BD08B540680C38FFF7ACF9002008BD61
:20532C0010B5044600F050F96060002010BD006801092CBF042000F00300704701461628BC
:20534C00A8BFA0F12001084670470188012902D18078FDF7F3BE7047D0F80320C31D084630
:20536C001946FDF771BA0000014A0621FFF706B87D54000008B5014688684968884708BD73
:20538C0008B5406800F08CF8002008BD08B5406800F082F8002008BD08B54068FFF76AF9D1
:2053AC00002008BD08B5406800F006F9002008BDEFF3108072B6704700207047EFF3108029
:2053CC0062B670470020704708B1014901607047D93E00000178D02901D1FCF733BF704709
:2053EC0008B50846FEF790F8002008BD0148007D7047C046A40100200149085C7047C04681
:20540C00002B0020014800797047C046D027002001B9014900F03CB8A001000008B5FCF766
:20542C00CBFFFFF783FE08BD08B5FFF783F8002008BD01468888891DFEF7EABE08B5026886
:20544C001269904708BD406800680121C16470474068383000F0B0B81420FDF7EDBB0122C0
:20546C00FDF736BE0023FEF7BCBF0823FEF7B9BF0623FEF7B6BF3023FEF7B3BF0723FEF7A1
:20548C00B0BFFEF745BB00207047808A70470000DFF800F0F1C50110DFF800F085C2011057
:2054AC00DFF800F081C20110DFF800F043C20110DFF800F055C10110DFF800F00DC3011052
:2054CC00DFF800F021B30110DFF800F067BE0110DFF800F04DC20110DFF800F0F5B80110AB
:2054EC00DFF800F021C10110DFF800F055C00110DFF800F049C20110DFF800F0A9C10110D4
:20550C00DFF800F009C30110DFF800F03DC20110DFF800F08DC20110DFF800F095B70110B9
:20552C00DFF800F081C60110DFF800F0B5C10110DFF800F02DBF0110DFF800F045C0011051
:20554C00DFF800F079AB0110DFF800F079B50110DFF800F025B10110DFF800F0D1C701101F
:20556C00DFF800F0ADB50110DFF800F0E1C20110DFF800F061C20110DFF800F0F9BF0110DF
:20558C00DFF800F019AE0110DFF800F0D9C10110DFF800F06DA90110DFF800F0EDB3011088
:2055AC00DFF800F085C10110DFF800F0BDBE0110DFF800F00DA80110DFF800F041AC01101C
:2055CC00DFF800F0CDA00110DFF800F0D9B60110DFF800F0E5C10110DFF800F025C20110D6
:2055EC00DFF800F0E3BF0110DFF800F0C1C20110DFF800F095C00110DFF800F019C20110EA
:20560C00DFF800F049C10110DFF800F029AF0110DFF800F03DC10110DFF800F009B701107E
:20562C00DFF800F0C1C10110DFF800F049BA0110DFF800F0E1B50110DFF800F0D5C001104E
:20564C00DFF800F0D9C20110DFF800F0D5C20110DFF800F013C10110DFF800F0F5C0011023
:20566C00B0100000005F00000007000700147F147F14242A7F2A12231308646236495522B4
:20568C00500005030000001C2241000041221C00082A1C2A0808083E080800503000000842
:2056AC0008080808006060000020100804023E5149453E00427F400042615149462141453A
:2056CC004B311814127F1027454545393C4A49493001710905033649494936064949291E55
:2056EC00003636000000563600000008142241141414141441221408000201510906324966
:20570C0079413E7E1111117E7F494949363E414141227F4141221C7F494949417F09090137
:20572C00013E414151327F0808087F00417F41002040413F017F081422417F404040407F25
:20574C000204027F7F0408107F3E4141413E7F090909063E4151215E7F0919294646494986
:20576C00493101017F01013F4040403F1F2040201F7F2018207F6314081463030478040352
:20578C00615149454300007F4141020408102041417F0000040201020440404040400001EC
:2057AC0002040020545454787F484444383844444420384444487F3854545418087E090135
:2057CC0002081454543C7F0804047800447D40002040443D00007F10284400417F40007C5B
:2057EC00041804787C0804047838444444387C14141408081414187C7C08040408485454BD
:20580C005420043F4440203C4040207C1C2040201C3C4030403C44281028440C5050503CC9
:20582C004464544C44000836410000007F00000041360800003E1C0800000000017001007F
:20584C000500000020030000874B0000314E00007D510000BD340000B5380000D9460000F8
:20586C001F53000019500000A5530000412E0000514200002D4D000005470000C137000089
:20588C00B153000081040000995300008D5300001153000003530000854200002D530000A6
:2058AC004B4E0000B5520000C93F00003F540000992F0000E9410000351E000065380000BF
:2058CC00C92C000093510000253E0000594F0000414F00001D360000BF510000F55200009E
:2058EC002B3C0000E93B00001541000035540000A5520000B94200008F3F00008F3F0100A3
:20590C008F3F02008F3F0300903F00018F3F0101903F0002903F00038F3F01048F3F0005F1
:20592C008F1208048F3F00048F3F0006513F00007F3F01003F3F04003F3F02003F3F010038
:20594C007F3F02007B756E6B6E6F776E2D696E7374616E63652D6E616D657D007B656D7066
:20596C0074792D696E7374616E63652D6E616D657D00C0467B7374617469632D696E73746D
:20598C00616E63652D6E616D657D00C00000000001000000018000C0018000D50180000C34
:2059AC000180005D018000CC018000DD00000000020000000100000003000000100000003C
:2059CC00200000000000004017040000080000001000000009080AFF008000401805000031
:2059EC00000001000000020017181EFF7FC80110C9BC011051B2011037C20110BDAD0110C5
:205A0C00C1B10110312B000071BA011069BB011021C00110EBC70CEEC90CF1CB0CF44B149C
:205A2C00F74E19FA521DFD582500613101144202184E031C5A0424930530930F8C5A0000D7
:205A4C00A0190020D05900008C5A0000481A0020E459000000000000000000000000000093
:205A6C0000000000FFFFFFFF000000000000000040420F0008000000000000000000000085
:205A8C00A5390000C92D0000E9510000351600008D21000061190000010500000100000072
:205AAC00000000000000000000000000010000003031323334353637383941424344454637
:205ACC000040A1C0A6A22FF800278116AC00AFB010000000C41C00200C5B0000000000006A
:205AEC000000000045B5011099A6011019B80110941C0020045B0000CD5A000004050E00F0
:205B0C0000000240290A0000205A00000D070000100000005000000008000000C72D00001A
:145B2C006400000082000000200000000A000000451D0000F3
:205B400000161600040C00B14A000002010404FF010203160C00150953696D706C65424CC6
:205B60004542726F6164636173746572020A16000312000103160A00307516140002010445
:205B8000160002B900874B0000B82A0020314E00007D51160E002005002016700001000023
:205BA00000D8270020D8270020002800209C010020161000431D16060020280020E0270091
:205BC0002016100045331606009C0100200028002010270000102716060001000000A52A8C
:205BE00016060007100000384035002D400140028460005D40014000F80118A38407008391
:205C0000057EA40306E0EA2306010088604500C300380103040102638400007384380035E2
:205C200040014008047F17AC526003A302AD01630268011604FF94280020942800201604D4
:205C4000000116070004160800020000A01700201604000BC20110161000011613000116CC
:205C60000B00C5A71606004D521608000100F4290020C5A7160E00C5A7160600C5A7160EEE
:205C8000000D00C080FF160F00181D00200004161E00190880801B088080070880800608A5
:205CA00080800B2000C0132000C00C2000C00F2000C0122000C00D0080800400C0800500E3
:205CC000C0800E00C0800300C080FF0000004002160A00011605000100B8290020B8290093
:205CE000204002160A00011605000100D4290020D42900201608006509000003000000FF3D
:205D0000002C160D00414B000003000000FF00141605000C2A00200C2A0020142A00201459
:205D20002A00201C2A00201C2A0020242A0020242A00202C2A00202C2A0020342A002034D3
:205D40002A00203C2A00203C2A00207924160A000500000020160F00342A00201604006CE2
:205D60002A00206C2A0020742A0020742A00207C2A00207C2A0020842A0020842A00208CF3
:205D80002A00208C2A0020942A0020942A0020000001161900010A1B0040280020145B00DA
:205DA0000003030000242B0020282B00202C010000CC01000008000000201100201604008E
:205DC00080060000081607001604FF16280001000000FFFF160A0009510000ED3C0000938C
:205DE00054160600060000002552000025520000482B0020482B0020502B0020502B0020E3
:205E0000582B0020582B0020602B0020602B0020682B0020682B0020702B0020702B00200A
:205E2000782B0020782B0020802B0020802B0020882B0020882B0020902B0020902B0020EA
:205E4000982B0020982B0020161400942800201600000000000000000002020400A62B0087
:205E600020AC2B0020B02B00200204006442002000040205002001010000CC1B0020020C02
:205E80000002000000000000000201020B0001020B006C2A0020021000B42B002002040015
:205EA00034010020340100203C0100203C01002002000000000000000002020800E0280068
:205EC000203C2A00200100000001020F00E027002020280020020000000000000000000078
:205EE00000010105006CDC02010800C0290020030107001D4B0000A95100000100000000D1
:205F00000002010213000C2A002002040002000000000000000000000001010400E02800FD
:205F200020010000000000000001010017F20001000000000000000000010800000001002A
:205F400000000000000000000001011000010000000000000000000000010110000100001B
:205F60000000000000000000000101100001000000000000000000000001011000010000FB
:205F80000000000000000000000101040001000000000000000000000001010800010000EF
:205FA000000000000000000000010108000100000000000000000000000101C8000100000B
:205FC000000000006B54000065530000405B0000181D0020585E000044010020885E000059
:205FE00000010020B85E000078010020E05E0000A4010020005F0000C8010020185F00000F
:20600000E4010020285F000020050020385F000000020020485F000030040020585F000044
:2060200000050020685F000040040020785F000010050020885F0000EC010020985F000019
:14604000F0010020A85F0000F8010020B85F000000000020E4
:020000040001F9
:20FFA80000008001100082FFFDFF58003AFFBFF3FFFFFFFFFFFFFFFFFFFFFFFFFFFFFFFFF8
:20FFC800FFFFFFFFFFFFFFFFFFFFFFFFFFFFFFFFFFFFFFC5FFFFFFFFC5FFFFFFC5C5C5FF5B
:18FFE800C5C5C5FF00000000FFFFFFFFFFFFFFFFFFFFFFFFFFFFFFFFC3
:00000001FF
