:20000000E83F0020C546000001CA011001CA011001CA011001CA011001CA011001CA011066
:1C00200001CA011001CA011001CA011001CA011001CA011001CA01103FCA011082
:20003C002DE9F0410E462A4990461C4606AF8C4672680878BB8851783F881278002502EB0E
:20005C00012242F62321521A2AD0521E052A19D9921F0DD0263A35D1072F31D8C7F10700FC
:20007C00984298BF83B20CEB070000F1080121E0B84225DBC01B9842D8BF83B22380DCF813
:20009C0004100BE0F06805F0CFFD80B2B84217DBC01B9842D8BF83B22380F168C9190AE0C5
:2000BC00082F0DD8C7F10800984298BF83B20CEB07010F31238040461A4603F077F903E0D4
:2000DC00072501E025800A252846BDE8F081C046F0220020024A0020082104F007BBC04616
:0400FC007F5E000023
:200100003C000000000000000000000034010000000000000000000001000000000000006D
:1C01200000000000000000000000000001000000000000000800000000000000BA
:20013C00340000000000000000000000680100000000000000000000010000000000000005
:14015C00010000000000000000000000080000000000000086
:2001700030000000000000000000000098010000040000000000000001000000FFFFFFFFA5
:10019000FF00000001000000080000000000000057
:2001A0002C0000000000000000000000C4010000040000000000000001000000FFFFFFFF4D
:0C01C000FFFFFFFF08000000000000002F
:2001CC0034050000E401000099A1011095A70110A5C2011009B2011045B80110000000000B
:0801EC00000000002E000000DD
:2001F400280000000000000000000000140200000000000000000000FFFFFFFF00000000B1
:080214000800000000000000DA
:20021C00300500003002000069C201106DC101101FC2011095BA011000000000000000008E
:04023C00300000008E
:20024000300500005402000075C20110A9B601109DBF011049B601100000000000000000DE
:040260003100000069
:200264002400000000000000000000008002000000000000000000000000000008000000CC
:040284000000000076
:20028800240000000000000000000000A40200000000000000000000000000000800000084
:0402A8000000000052
:2002AC00240000000000000000000000C8020000000000000100000000000000080000003B
:0402CC00000000002E
:2002D00000000000A829002004000000000000000000000020000000700100003000000058
:2002F0001C020000B02900200400000000000000000000000C00000030040000180000007B
:2003100040020000B8290020040000000000000000000000240000004804000018000000FE
:2003300000000000C029002004000000000000000000000010000000A00100002C000000C3
:20035000CC010000C829002004000000000000000000000020000000640200002400000001
:20037000FFFFFFFFD02900200400000000000000000000002800000088020000240000007E
:20039000FFFFFFFFD8290020040000000000000000000000580000003C0100003400000063
:2003B000FFFFFFFFE029002004000000000000000000000010000000600400001800000078
:2003D000FFFFFFFFE82900200400000000000000000000001C000000AC02000024000000EE
:2003F000FFFFFFFFF029002004000000000000000000000038000000F4010000280000005F
:20041000FFFFFFFFF829002004000000000000000000000054000000000100003C000000FA
:1804300018000000000000000000000040040000080000000000000050
:1804480018000000000000000000000058040000080000000000000020
:18046000180000000000000000000000700400000800000000000000F0
:080478000100000040630000D8
:0404800030BF7047D2
:040484000100000073
:0404880000000C0064
:04048C0000000D005F
:040490003200000036
:040494000200000062
:040498001828002000
:04049C00000200005A
:0404A0000000000058
:0404A40001CA011078
:0404A8000000000050
:0404AC00000000004C
:0404B0000800000040
:0404B4000000200024
:0404B800E027002019
:0404BC00010000003B
:0404C00028290020C7
:0404C400080000002C
:0404C8000000000030
:0404CC00000000002C
:0404D0000000000028
:0404D4000000000024
:0404D8000000000020
:0404DC00010000001B
:0404E0007828002058
:0404E400060000000E
:0404E800010000000F
:0404EC0004270020C1
:0404F0000000000008
:0404F4000000000004
:0404F80000020000FE
:0404FC0000000000FC
:02050000704742
:020502002A00CD
:020504000100F4
:020506002500CE
:020508003000C1
:02050A003100BE
:02050C002E00BF
:02050E000100EA
:0105100001E9
:0805140003000000E06200009A
:08051C000000000000000000D7
:0405240000000100D2
:0405280000000300CC
:04052C0087C401106F
:04053000380500008A
:040534003805000086
:0405380000000000BF
:04053C00800000003B
:040540008000000037
:0405440000000000B3
:04054800282900203E
:04054C00815C0000CE
:040550002000000087
:040554009C620000A5
:040558003862000005
:04055C000DC30110BA
:040560008F490000BF
:040564003754000008
:0405680099C801101D
:04056C009BC8011017
:040570000000000087
:0405740072630000AE
:040578009C61000082
:04057C00B461000066
:040580008461000092
:0205840008006D
:0205860009006A
:02058800010070
:02058A0000006F
:01058C00016D
:040590000000000067
:040594000000000063
:04059800000000005F
:04059C00000000005B
:0405A000815B00007B
:0405A40011490000F9
:0405A800C157000037
:0405AC00254C0000DA
:0405B0002D3E0000DC
:0405B400794D00007D
:0405B80035370000D3
:0405BC00E5580000FE
:0405C000E93E000010
:0405C40011C8011049
:0405C80021C8011035
:0405CC000800000023
:0405D0002400000003
:0405D400180000000B
:0405D80028000000F7
:0405DC0020000000FB
:0405E0003C000000DB
:0405E4000C00000007
:0405E80034000000DB
:2005EC002DE9F84F044640F294214FF0010A41F21000C4F22231C4F20900C0F800A0086844
:20060C0010B908680028FAD046F2000043F6B477C021C4F20C00C5F200070160D7F80080F6
:20062C0057F8041C46F25620C4F20800890806D257F8081C090C41F0F001017001E07221DB
:20064C00017041F2B821C5F200010968C1F304611629A8BF20393A68121789184B1C13F1F9
:20066C000A0FB8BF6FF0090300254FEAD8624FEA986103F01F03C4F2203582F00102002CE8
:20068C0081F0010143F4F853038302F001022A6001F00101A96041F25035C5F200056FD0A5
:2006AC002968C1F38360C1F38F265FEA984164D248F30721002927D54A42B1F1FF3F4FEA18
:2006CC00620215DA760805D1400806BF504656464FF6FF76760801F1010105D1400806BF19
:2006EC00504656464FF6FF76521E01F10101E9D15FEA582208D3760805D1400806BF50464F
:20070C0056464FF6FF76491C002936DD02294FEA610E01F001091EDB4FF6FF7C760046F0A3
:20072C000106B44507D2400040F001000F2892BF56460F206646760046F00106B44507D2DF
:20074C00400040F001000F2892BF56460F206646BEF1010EE2D1B9F1000F0EDD76004FF64D
:20076C00FF7146F00106B14207D2400040F001000F2892BF56460F200E1C46EA004603E0AD
:20078C0040F6FF76C0F20F0605F01FFB0021002808BF514648F20009C4F20C09D9F8000046
:2007AC0018B9D9F800000028F8D04AF2080BC4F20C0BCBF81060C9F800A009B105F00BFB36
:2007CC00002C08BFD82107D029682868C1F3870100F0030041EA002188B2009040F2FF3281
:2007EC0000232C214AF20000C4F20C0003F0A4FB3CB141F27C30C5F200000068C0F30D053D
:20080C0001E040F2FF3505F0E0FA0021002808BF5146D9F8000018B9D9F800000028F8D0AC
:20082C00CBF81450C9F800A009B105F0D4FA002C04BF0025C6F688050CD041F27430C5F2E0
:20084C00000001684FF6FC45C0F2FC0501F07C400D40054305F0B9FA0021002808BF514659
:20086C00D9F8000018B9D9F800000028F8D0CBF80C50C9F800A009B105F0ADFA002C04BF44
:20088C0047F28A65C0F2680509D041F27030C5F20000006801040D0C00F47C00054305F06F
:2008AC0094FA0021002808BF5146D9F8000018B9D9F800000028F8D0CBF80850C9F800A018
:2008CC0009B105F088FA002C33D041F27830C5F20000056857F8042CC5F30341C5F3035027
:2008EC00520816D243F6AC72C5F200021268130510EB237003D4102802DB0F2000E000205F
:20090C00120411EB227103D4102902DB0F2100E0002141EA001105F47F4005F0FF02222CD0
:20092C0040EA014042EA000207D305F08045154304E043F62772C0F27102154605F045FABC
:20094C000021002808BF5146D9F8000018B9D9F800000028F8D0CBF80450C9F800A009B14F
:20096C0005F039FA222C07D341F28C30C5F200000068C0F3007000E050464AF240064000B2
:20098C00222CC4F20C0640F0200086F8090107D341F28C30C5F200000068C0F3407000E032
:2009AC00504640F01000202C86F8090138BF00250AD341F29830C5F200000168C1F38455E0
:2009CC00C80C00F44070054305F0FFF90021002808BF5146D9F8000018B9D9F8000000281C
:2009EC00F8D0CBF82050C9F800A009B105F0F3F9202C07D341F29830C5F200000068C0F301
:200A0C00015000E000204000222C40F0600086F80C0107D341F28C30C5F200000068C0F335
:200A2C00C06000E00020C000222C40F0800086F8010107D341F28C30C5F200000068C0F3B1
:200A4C00455000E000208000202C40F47C40A6F89C013CBF48F20005C4F23F050ED341F2B6
:200A6C009830C5F2000000680503A90D890505F47C1500F00F000D4345EA003505F0A5F967
:200A8C000021002808BF5146D9F8000018B9D9F800000028F8D0CBF80050C9F800A009B112
:200AAC0005F099F944204FF0880E86F8C50086F8C7E03CB141F28C30C5F200000068C0F354
:200ACC00C14000E0002040F03001C8F3815086F8C81070B3401E06D0401E25D004200221D5
:200AEC0003F0D9FB2FE0504604F0E4FD04460420214603F0D0FB042004F0DCFD8442FAD194
:200B0C0057F80C4C24F07F4004F088FA40F2B410C1F200000068036807214FF06022200E46
:200B2C0098474FF4806030600420032103F0B3FB09E00420514603F0AEFB43F2BD70C0F2DA
:200B4C00860004F06BFA41F2B820C5F20000D0F8B4004BF2700242F22C0E46F2000B47F6CF
:200B6C0018014FF0000C41F21009C4F20C02C4F2090E40F2944800F03F0086F8CB0FC4F2DD
:200B8C000C0B1180DEF80000CBF800C0C4F20909C9F800C0C4F26028C8F800A0BDE8F88F35
:200BAC002DE9F04F0120ADF1440DADF81A000827ADF8187006A804F0C3FB00263546CA4C92
:200BCC008DF83E50BDF81C00208266700898A0624FF6FF70E082384604F00EFE5FEA000826
:200BEC000DD00121122205F0CBF804F015FE0DF13E010123CD4A0091414603F0D1FF9DF80F
:200C0C003E00DFF82C83324601232070414604F1A80003F009FD04F1CC00324602234146D6
:200C2C0003F002FD04F1F00032460423414603F0FBFC042031461022A07004F14A0002F0B3
:200C4C00FDFD04F15A003146102202F0F7FDE562E67126720720A67204F14A0210216072F7
:200C6C00022004F0F5F904F15A020320102104F0EFF9042004F12C02014604F0E9F922E07D
:200C8C006578228B618BA38BE08B062D1BD1062A19DBB2F5486F16DA062914DBB1F5486F2D
:200CAC0011DAB3F5FA7F0EDA0A280CDBB0F5486F09DAE08322836183A383012002F06EFE4B
:200CCC00BD4805F0F8F80A20ADF80A00ADF808704FF0FF35039502A804F032FB002840F0FA
:200CEC00818130460C90ADF824700925ADF8265009A804F025FBDDF82C900028CDF830904F
:200D0C0040F07081BDF82800102840F05F81208ABDF82A10884240F059814D4628884FF68C
:200D2C00FF71814200F04A812B78A23B00F02D812E3B40F04B81A878B046002800F0FA808E
:200D4C00801E00F0D380401E012840F2A780801E5DD0401E24D0401E03D0083800F00681C1
:200D6C0009E1AD4805F0A7F80C994878002840F002810846C1882184018961844089A0841C
:200D8C008D4804F0A1FF002840F0F580656B002D00F0F1802B68208C618CA28C984715E184
:200DAC00B5F804A00A2004F027FD5FEA00080AD00121152204F0E4FFA8F808A004F02CFDD4
:200DCC00414604F0B7FBB5483146062202F036FD26846684A684A8796073774805F06BF850
:200DEC008D4805F068F84FF001084FF6FF702379E0824BB9A879082814BF04200520607082
:200E0C00404604F07BFEB6E003206070B3E06B78E27A002B3CD1A149281D03680B60808833
:200E2C008880062363706889E082E8892084288A6084688AA084E878012A207308D11F2058
:200E4C0003F0A0FD4FF47A7141435B4803F03AFF95F803B0B5F80AA0142004F0CDFC5FEAA4
:200E6C00000800F08B800121142204F089FF88F808B02D1DC8F80C50A8F810A0042088F8FD
:200E8C00120004F0C9FC7E4A414603F06BFE75E06878312868D1E67004201EE06878002889
:200EAC0062D1A878A18A6278032811D0E078257921B9012814BF2671E67005E0054303D009
:200ECC00724803F0FFFE6278072AE5D1062004E0062A06D0E07810B9032060704EE0022027
:200EEC00FBE70720F9E7C046C8160020687800283AD1E878A17988B96078022813D0072817
:200F0C0011D0062802D1207901280CD15F4804F0DBFE40B9012004F0F1FD04E0604A4046C0
:200F2C0003F0E2F968706878F0B924E07F5D0000095B00006878B8B9554A0220102104F0FB
:200F4C00A1F8544A0320102104F09CF85548ED1C29680160AB888380534A01252846617999
:200F6C00657003F0C1F948B1677007E0A888454A102104F008F9B8F1010F27D1206B28B330
:200F8C00016819B36078884720E0687913281DD12889012808D1A07B022805D11E4804F037
:200FAC008AFF03F0B1FA11E0052003F0EBFC0146194803F087FE09E0941700206888C00B7F
:200FCC0004D3354A0420014604F05CF80C9848B1ADF810700320ADF81200CDF8149004A84B
:200FEC0004F0AEF9608A2579E17842082ED320F0010055EA0103608228D07DB92B49E079ED
:20100C008DF83400257A8DF835500A680DF136031A608988998004E0B817002003208DF89A
:20102C003400607AA57A184A8DF83C0006218DF83D500DA803F062FB216B30B1677021B100
:20104C00086810B1096838468847608A810806D320F002006082304602F0A0FC608AC1089E
:20106C00FFF431AE20F00400A57B6082681E3FF407AE401E7FF427AE03F046FA23E6C04626
:20108C00635D0000975E00008B5E0000701700201217002022170020F41600200C170020F0
:2010AC00511700200017002032170020061700202DE9F04F08260127ADF14C0DADF8186000
:2010CC0006A8ADF81A7004F03BF9924DBDF81C0068800898686005F1140004F027FE0A21B1
:2010EC00A8601F2003F0FEFE3046ADF83A000024ADF83C00B9468DF842903946ADF8384062
:20110C000DF142028DF843903220ADF83E004FF4FA70ADF8400040F2053000F08DFF40F24D
:20112C00063002210EAA00F087FF40F207300D2105F12C0200F080FF4FF442700E2105F1D8
:20114C00390200F079FF4FF4447039460DF1430200F072FF40F2113002210DF13A0200F006
:20116C006BFF40F2123002210FAA00F065FF40F2133002210DF13E0200F05EFF4FF445703A
:20118C00022110AA00F058FF6349032003F0CCFCA24603208DF846004FF00208CDF834A0DD
:2011AC004C468DF8448004218DF845A00DAA8DF847404FF4816003F07BFE4FF480604946B4
:2011CC0011AA03F075FE40F2024049460DF1450203F06EFE40F2034049460DF1460203F0FE
:2011EC0067FE40F2064049460DF1470203F060FEC548062101704078062801DA02F008FC83
:20120C0004F040F9C14CDFF80CB30028E06000F0888004F037F904F10C090028D9F800105B
:20122C0020617BD004F02EF9606128B9D9F8000004F034FC206972E0E06804F0CDFA2069BD
:20124C0004F0CAFA606904F0C7FAB14A04F16C001D2103F0B5FBD4F88810404603F0B2FA86
:20126C006179A27984F82010B4F8360184F8212004F11808A8F8000004F59E73E361E379C2
:20128C0084F82C3084F8227094F808C084F82DC0B4F87601A0845046A06284F8381084F880
:2012AC002E7084F83920B4F8A621228604F5D672626384F8443084F83A0084F845C0B4F8BB
:2012CC00D621A287206484F8507084F8517084F84600B4F8F631A4F8483004F5FE72E2648D
:2012EC00637A84F85C3084F85200A27A84F85D20B4F82632A4F8543004F16001A065032078
:20130C0084F85E7003F05EFA5C46C4F818800720207106E0981D0020735E0000084604F0B0
:20132C00BDFBEA685F4605F1200005F10C04F8613C622AB1784907F16400042303F074F960
:20134C00764C607828BB94F8109094F8028024371820276304F050FA071C1AD004215246A5
:20136C0004F074FC484604F0CAF9387287F8098087F80AA004F14A00F86004F15A033B6158
:20138C0004F12C027A6104F047FA654A394603F0E9FB0C2004F030FA071C0AD0012104227A
:2013AC0004F0EEFC5F48B86004F036FA394604F0C1F85D4C04F1180004F10C0102F0E0F8B2
:2013CC005A49A06004F046FD594F4FF4E0213A46521E04F0DBF8A0684FF4E0213A4604F0C4
:2013EC00D5F8544FA0684FF0C0513A46521E04F0CDF8A0684FF0C0513A4604F0C7F84E494E
:20140C00C822534604F1240003F00EF94B484FF003084FF005094FF0090B60600A20ADF81E
:20142C000200ADF800604FF0FF370197684603F087FF0028F2D1CDF830A0ADF82460ADF817
:20144C0026B009A803F07CFF0B9C0C94D8B9BDF8280010280DD16888BDF82A10884208D13E
:20146C0021460878B02804D101F10800097904F061FA0C9838B1ADF80860ADF80A800394A1
:20148C0002A803F05DFFA86804F0EEFD0028C5D1A86804F0F1F9071CF5D0388801282AD1E0
:2014AC00BC78A00805D3522003F01AFF504603F017FFE00805D3512003F012FF504603F091
:2014CC000FFF200905D3502003F00AFF504603F007FF600905D34F2003F002FF504603F0C9
:2014EC00FFFE600807D3287828B1012004F0F5F8504604F0F2F8ADF81060ADF812900597BA
:20150C0004A803F01DFFBEE75C250020B4200020C8620000341A0020315A0000C8160020A9
:20152C00795E0000FC62000050270020395400000200058002000010F55B0000814A000092
:20154C002DE9F84FCF4ED04C06F12D07CB4DDFF83083D7F8EF1F6368D7F8F30F8843C7F819
:20156C00F30F002BC7F8FF1F00F090816688012B00F04A81DFF86CA3DFF86CB3DFF86C93CD
:20158C00022B74D0032B40F0DA810026A06857F8312C66600028A2F5C062B8BF4042114644
:2015AC000029B8BF494288422EDA002A54BF02206FF00100A16900EB4200032290FBF2F09A
:2015CC000918A161E368606998420BD0B1F1100248BF52422069103848BF40428242B8BF2F
:2015EC0088B209DB98B20090D64830214FF47F42082302F0A1FC208A0090D24804214FF4FE
:20160C00F802122302F098FC2846066001688908FCD206605546012746600E202F6001F0F0
:20162C0043FCC9480468EFF3118584F3118859460820B0FA80F00A1AD07F431E0128D37732
:20164C0004D14A46106820F00800106085F31188EFF3118384F311880420B0FA80F0091A21
:20166C00C87F421E0128CA7740F0CA80C3E057F8316CB6F5C06F00F08B804FF00309C4F868
:20168C00049004F0A2FBB346002600B90126554633462D1F2E68002EFCD0AC4A0126D2F843
:2016AC002CA02E600BB104F096FBCAF30720E06004F08BFB002300B933461A462B68002B72
:2016CC00FCD0A248D0F800A02E600AB104F083FBCAF38441ABF5C0602161BBF5C06FA06082
:2016EC00B4BF6FF001030223E26803EB400393FBF9F00918104602290FDB1E290BDB3F28D1
:20170C00B9BF521C401C3F22101C62613029B4BF10391F210DE060610BE010F13F0FACBF83
:20172C00401E6FF03F00606111F1100FACBF10310021A16180B2009082484FF47F42082335
:20174C00302102F0F9FB7F48009604214FF40032112302F0F1FB208B00907A4804214FF4D8
:20176C00F802122302F0E8FB002547F8399C4446256020688008FCD2724829466022052360
:20178C00009102F0D9FB266020688008FCD367E0002161602846016002689208FCD2016056
:2017AC005546012741600E202F6001F07DFB66480468EFF3118584F3118859460820B0FA80
:2017CC0080F00A1AD07F431E0128D37704D14A46106820F00800106085F31188EFF311835A
:2017EC0084F311880420B0FA80F0091AC87F421E0128CA7704D14A46106820F004001060FA
:20180C0083F31188BDE8F88F57F8312C02214BF2F52061605043000A36B94D49096821F0FB
:20182C007F410918480801E0002161800835010C2860012669600323AE60444647F8393C54
:20184C000025256020688008FCD23E48294660220523009102F070FB266020688008FCD302
:20186C0047F8216C47F8395C0820C7F8FF0FC7F8F30F47F8396CBDE8F88FC04634600C4010
:20188C0038600C400C400C40D8280020314800680068014620208847B24641F61D564FF020
:2018AC0002090F2000214FF4C072CAF800000723CAF804602348CDF8009002F03DFB4646C4
:2018CC0028460125056056F8040C8008FBD32088CAF8105001280BD00020294602F0B2FB53
:2018EC004D462BE004800C40002A0020D425002040464FF000080C30C0F80080032347F865
:20190C00393CC6F8008030688008FCD20D48CDF8009041466022052302F00EFB3560306817
:20192C008008FCD3202047F8210C47F8398C0826C7F8FF6FC7F8F36F47F8395C6560BDE8DA
:20194C00F88FC04600A00C403863000004A00C4010200940A00100102DE9F04F4FF0080AA7
:20196C000125ADF1540DADF818A006A8ADF81A5003F0E6FCAF4CBDF81C00208108982061B9
:20198C0004F1340004F0D2F943F698220223BD49606104F1400002F047FE4FF0000840F28F
:2019AC000D40294613AA8DF84C8003F081FA032003F082FB042003F07FFBB348B34A132193
:2019CC0002F0FEFF0427B24EADF824A03078ADF8267080000A9009A803F0B2FC00280CBF36
:2019EC000B984046BF49486138B103F0F5FEBD48BD4A0621183002F0E3FF3046ADF830A0F8
:201A0C000078ADF8327080000D900CA803F098FC00280CBF0E984046C4498B46886038B1D5
:201A2C0003F0DAFEC24A0BF10C00062102F0C8FFC14FC048AB49CBF80070464688600A20FE
:201A4C00ADF80200ADF800A04FF0FF370197684603F076FC002840F0078130461290ADF8D1
:201A6C003CA00927ADF83E700FA803F069FC119F0028129740F0F280BDF8400010280DD1BE
:201A8C002089BDF84210884208D139460878B02804D101F10800097903F04CFF12980028AF
:201AAC0000F0DC80ADF808A00320ADF80A00039702A803F045FCD1E0606903F0DDFE5FEAA6
:201ACC00000800F0CB800746E3693888401E69D00F3857D0103842D0203840F0BC80D8F86B
:201AEC001000BB780078002B2AD0012B23D0022B27D130BBA089DBF808106570814604F027
:201B0C00C2F840081DD348462946324603F004FF0590B0B18B49ADF812500988ADF8101035
:201B2C00067004A9484603F071FF50B104A81B2103F000FF05E0A670E07000B9657000E0F1
:201B4C00A570E079A179884218D063786089ABB140F008006081206904F082FA0EE038697E
:201B6C00C18843B1D3F808C0BCF1000F03D0027A437AE04702E0084603F082FB386903F066
:201B8C0081FF68E0B9782078012905D0022962D16B4804F090F95EE006285CD1684804F0DE
:201BAC0088F958E03A48BF78C08A062F44D0207806284FD1236A23B11B6813B1624804F0E8
:201BCC007AF95E48057066706048A67031460B2201F034FE02F0DEF920B3206A00798008E9
:201BEC0020D306204FF4C86103F07CF907204FF4C86103F077F92846314603F073F930463C
:201C0C0029460DF14E028DF84E0040F20D3000F013FA8DF84E5040F2053029460DF14E0275
:201C2C0000F00AFAE0786571042813D102F08AFEE6700FE0341A0020A08131468DF84D10BF
:201C4C0066700DF14D0240F20530294600F0F4F903F0F4FE2770404603F014FF606904F0DD
:201C6C0003FA00283FF428AF60892178C20815D320F004000629608110D1A07850B902F0DD
:201C8C0043FC09E0315A000094230020BC620000C816002003F0D2FE60892178820812D3DE
:201CAC0020F00200062960810DD103F027F80D494978814203DD0B49487001F0A9FE204840
:201CCC0004F0F7F860890109FFF4B9AE20F0080067786081002F3FF4B2AEE179A0798142F8
:201CEC0019D003E05C250020B06200000B21401C0A46174690FBF1F15143154A401AA07159
:201D0C0078438318174659789A78385CDB1C01F0B7FEE179A07981423FF491AE608940F02F
:201D2C0008006081206904F09BF988E644260020D4620000395E000001050000B5200020DD
:201D4C00741A0020AA260020981A00205C1A00200C1B00202DE9F04F8146B9F1010FADF1B6
:201D6C00140D40F04981A6480068EFF3118280F31188AE4D2879012818BF012002D10221B2
:201D8C000020297182F31188012800F0338104F063F90290A6480668A81904F065F900242D
:201DAC002746009406EB05080197A8B9404604F04FF90646B068400808D3F068316902469C
:201DCC0001209047C0B2012800F00D81304604F03BF90646B045EDD1002F40F0088104F06D
:201DEC002FF90390049787480760012003F062FC012804D1384602F045FD01200090824FA7
:201E0C003868806801462046884780480068B9F1010F40F08A80874E0A36F37903B1012434
:201E2C00B3790BB144F0020473790BB144F00404DFF8DCB173782BB1B86A006B59460246F1
:201E4C00C88D904733782BB1B86A006B59460246488D90476F4901200860B86A8069014610
:201E6C0044F0200088476C4A2968DFF8B4A1106840F001001060480812D2684803F04FFF82
:201E8C008146B9F1040FF8D05146086820F003000860B86C4068024660480321904701E0D0
:201EAC0001200190049800F0E3FAB86A5749806B09688047019850B9B86C406802465748C1
:201ECC00494690475146086840F00300086038688068014601208847524908688009FCD3CC
:201EEC000098012802D1012002F0CCFCB86A4069014620468847B86A406B014620468847D7
:201F0C000128F8D174782CB1B86AC06A59460246C88D9047307828B1B86AC06A59460246E7
:201F2C00488D90473B49012008603B49032208682A7120F001000860404604F095F804990B
:201F4C0000B101214FF00109081C19D1404604F07FF844460646B068C00807D3F0683169D8
:201F6C00024604209047C0B2012806D0304604F06BF80646B442EED102E02B48006880474F
:201F8C002048224FC0F80090386803F024FF404604F06AF8049FD0B9404604F059F84646FF
:201FAC000446A068000907D3E0682169024608209047C0B2012806D0204604F045F8044675
:201FCC00A642EED103E0184800688047022748462871039804F030F801F090FE029804F0C8
:201FEC0027F8384609E0104800688047022701202871F3E7062000E0022005B0BDE8F08F0A
:20200C00386300000C400940900100102C20094038610000282008600C200840004003400E
:20202C0024220840141009402C630000D42500202863000040290020F8B5A0F2013517460B
:20204C000E46022D40F214818B4A8A492D1F0F2D04D9143D4BD0AD1E1CD011E0DFE815F03D
:20206C00C300BD00F500E500B500AD000801A4009C0010001000940089007A006F006100C8
:20208C00272880F2F580022E40F0F280398802F029FFF8BD012E40F0EB800D46E8780128F6
:2020AC0000F0E6800A4638781179107181B9002800F0DE805078012800F0A980042800F0DD
:2020CC00A680062800F0A380052800F0A080F8BD3878002840F0CC805078032800F0A28042
:2020EC00072800F09F80052800F09C80F8BD012E40F0BE803878012840F0BA800D4605F17F
:20210C00F00003F0E1FD002840F0B280002001F045FC002840F0AC802846CC3003F0CBFE6C
:20212C00F8BD022E40F0A48038880A28C0F2A080B0F5486F00F39C8015461E3517E0022E56
:20214C0040F096803888B0F5FA7F80F2918015461C350CE0022E40F08B8038880628C0F229
:20216C008780B0F5486F00F3838015461A352880F8BD022E7CD13888062879DBB0F5486FD8
:20218C0076DC0D461835F2E7012E71D1387802286EDA0D460B350EE0012E69D1387804280F
:2021AC0066DA0D460A3506E0012E61D1387808285EDA0D4609352870F8BD012E58D13878FC
:2021CC00042855DA0D460835F5E7012E50D1387804284DDC0D46ED1DEDE7022E48D138889D
:2021EC000D461435C3E7012E42D10D46287901283ED00A463878D178D07061B9002837D04E
:20220C005078012803D0042818BF052830D1012003F074FCF8BD387850BB5078022818BF00
:20222C00052825D1FDF75EFFF8BD0D4605F189041F220021204601F001FB39463246204681
:20224C0001F0BCF80020AE710EE00D4605F16A041F220021204601F0F1FA394632462046E8
:20226C0001F0ACF801206E713146224602F03CF8F8BDC046C8160020C81600202DE9F041BA
:20228C001C4615468C4208BF854282BF00230022E5E0002C08BF002D0AD100290EBF0028B5
:2022AC006FF000006FF0000100F0E1F8BDE8F0815FF000085FF0000E002C08BF8D429CBFA3
:2022CC002C1C0025070C47EA01470E0CB44208BFBD429EBF5FEA044444EA15445FEA05451B
:2022EC00070A47EA01670E0AB44208BFBD429EBF5FEA042444EA15645FEA0525470847EAEC
:20230C00C1774E08B44208BFBD4200F29380870847EA81778E08B44208BFBD427CD8C70835
:20232C0047EA4177CE08B44208BFBD4266D8070947EA01770E09B44208BFBD4250D84709D4
:20234C0047EAC1674E09B44208BFBD423AD8870947EA81678E09B44208BFBD4224D8C7092B
:20236C0047EA4167CE09B44208BFBD420DD8E60146EA5566EF01B14208BFB84201D3C01BDB
:20238C00B14158EB08085EEB0E0EA60146EA95664FEA8517B14208BFB84201D3C01BB1418B
:2023AC0058EB08084EEB0E0E660146EAD5666F01B14208BFB84201D3C01BB14158EB08087F
:2023CC004EEB0E0E260146EA15762F01B14208BFB84201D3C01BB14158EB08085EEB0E0E7D
:2023EC00E60046EA5576EF00B14208BFB84201D3C01BB14158EB08084EEB0E0EA60046EA2E
:20240C009576AF00B14208BFB84201D3C01BB14158EB08084EEB0E0E660046EAD5766F00A9
:20242C00B14208BFB84201D3C01BB14158EB08085EEB0E0EA14208BFA84201D3401BA141DE
:20244C0058EB08085EEB0E0EA34208BFAA423EBF2D0A45EA0465240A89D3734642461E4625
:20246C0017460B46024631463846BDE8F0817047F8B507460020C4F209000068800880F05F
:20248C00CE8002F0BCFF42F22421C4F208010A68002112F0030F18BF0121D20828BF41F06B
:2024AC000201002F18BF41F0040141F2B066C2F2000696F90720821A052A04DAB2798A4278
:2024CC0008BFB28875D041F29C340F28A0F10F02C5F2000429DB02EB0012F03A1712072F87
:2024EC0088BF0727BC46BCF1060F88BF4FF0060C54F82CE00423254603EB8C03EB585FEA0C
:20250C00D10CA3EB0E0303F0FF0524BFC3F3072C65445FEA910C24BFC3F3074C65445FEA03
:20252C00510C04D305EB136501E000252F4654F827405FEAD10C04F0FF0324BFC4F3072CDC
:20254C0063445FEA910C24BFC4F3074C63445FEA510C28BF03EB1463A2EB0722ACB2002523
:20256C0054438034082C88BF012543F6B472C5F200021468126834274FF4D07C24175B19BC
:20258C0002F0FF0207FB14C454434FF6FF72B4FBF3F39A4238BF131C80289AB2B28005DA79
:2025AC0010F1800F03DA6FF07F0000E07F20F071B17142F20800C4F2090001681F2A4FF0D6
:2025CC000000316015D340F2FF13934213D219465208401C93420ED25208401C93420AD247
:2025EC005208401C914206D25208401C9142EFD301E01F22B2800F3A4FF600714FF0350E4E
:20260C001209C8F2A401C4F2090E40EAC2000143CEF8FB1F4FF0000CCEF8FFCFF8BD41F290
:20262C00B6624FF6FD50082141F2300EC2F20002C0F2A4001170C4F2090ECEF80000F8BD75
:20264C002DE9F04FADF15C0D02F018FC0027012808D156480068C0F30240022802DC0228B6
:20266C0008BF012752490868C0F38150012806D151F80C0C0126010E06FA01F007434D4869
:20268C004D4E00783068C0F3460602F0F7FB012808BF761C494C26603EB1FF2204F14001BD
:2026AC003046401E01F8012BFBD1DFF81491D9F800004FF0000800F0FF01FF2918D04D4622
:2026CC0000F0FF03414601229E426CD902FA03F31F4268D100F0FF00201880F8401055F865
:2026EC00040F43EA0808491C00F0FF03FF2BEBD1092000F005FBC4F804900DA800212422BC
:20270C00082303F091FC4FF0010A04F124000DAA8DF84CA0514603F083FC236833B30026D7
:20272C002546B34660350AFA06F0074218D118EA000F04BF06F0FF0141F4C04104D030194B
:20274C0090F8400059F820101E4800F03DFDF0B24FF0FF3103F00AF92368C5F800B001E0B4
:20276C0004202860761C2D1D9E42DCD301A800213022082303F050FC0020102101AB124A57
:20278C00009004F1080003F043FC104951F80D0C20F4F85040F4005041F80D0C5746C1F82B
:2027AC00FF7F0B4E376017B0BDE8F08F94120050B43F0050C016002080120840F81400207F
:2027CC0010290020007FC767ED4500000D3009400800094041F21C302DE99041C5F20000C1
:2027EC000268B2F1FF3F08BF002202F047FB002840F08B8041F2183041F2A001C5F20000FC
:20280C00C5F200010068D1F80080070F08F0FF08B8F1800F28BF4FF0000802F02FFB4FF06D
:20282C00FF3190B1401E07D0401E1DD1E7B908F10A084FFA88F117E0381C66D0801E13D12A
:20284C0008F114084FFA88F10EE03846401E0AD0801E5AD0001F58D0401E05D108F1160897
:20286C004FFA88F100E00A2116294EDB40F2844446F25C01002342F2082E012040F2801C0C
:20288C00C4F26024C4F20C012360C4F2043E0860C4F2283CCEF80000DCF8000038B140F27D
:2028AC000010C4F2203000681046FDF799FE44F20402C4F203021068052142F24803C2F2E5
:2028CC000001C4F2030320F003000143116019684FF0000EC0F2391E6FF35B414EEA010059
:2028EC000421C4F2090118600868C0F3013001280CD10A684FF6FF70CFF6FC40104040F46A
:20290C0000320A600860BDE89081FEE7BDE890812DE9FE430AAFADF808303B8815460E46F7
:20292C00002B18BF0B2040F08680726851781778DFF80891002407EB012742F64D21B942A7
:20294C0064D01B39B94261D01A31B9424AD042F60218B84516D0891CB94268D1BDF808008C
:20296C00012851D1297831F001004BD1F0680170287800280CBF02200320494609684968CF
:20298C00884754E00093BDF8083031462A4601F0E6F9041C4ED16978287800EB012C71891F
:2029AC004F46A7F11C0006798769002E3FD07B6813B15A89914204D0761E07F10C07F6D17F
:2029CC0035E0002F33D0BCF1010F0CBF02230323C06902AA066800920195797A387A424639
:2029EC00B04724E0BDF8080001280DD1287830F0010107D1494609684968224600B1012285
:202A0C001046BDE7802415E00D2413E0708902F04FFC60B14946096802AB0E680093019560
:202A2C00027A417A234610463A46B04704460CB903F004F82046BDE8FE83C046501A002003
:202A4C002DE9F0430646ADF11C0D03F0DDFA02F05BFD4FF000090546CDF80C9003F0CEF94C
:202A6C0030F0010002D00398A84202D16FF0040066E070684C4658B1B0F1FF3F05D004A982
:202A8C0002F076FC30B1804659E04FF0FF3000E02046049003F0B4FA04994FF001084718B9
:202AAC0002E00A463BE004936868049903F0A4FA00282DD0684601F01DFBD8B9BDF8040002
:202ACC0005A902F043FA88B9B368BDF81400BDF80610029A984748B1BDF81400BDF80670B5
:202AEC00B081029BF781C846336111E0029903A802F0DEFC0498641CB0F1FF3FD4D0002818
:202B0C00D2D003F07DFA3B1A02D004989842CAD2039F02F047FF05F1080647B13A4652F8C4
:202B2C000C1C0029BDD1316842F80C1C376003F039F824B1686803F093FA641EFAD14046FC
:202B4C0007B0BDE8F0837047FEB54D681E46144608AF68783B88BA882D78002705EB002540
:202B6C0013BB42F64D20A84208D02B38A84205D01030A84202D0401CA8421BD1488902F001
:202B8C0097FB2849D1F800C0002808BF378042D000960194027A417ADCF8004001231046F5
:202BAC002A46A047074636E042F64B20A84218BF0B2036D142F64B20A8421FD0401EA842F5
:202BCC0016D042F60812AA420CD0001DA84203D0521EAA4206D01EE001203080C868007866
:202BEC00207018E002203080C8680088208012E004203080C868006820600CE0402B0EDAFA
:202C0C00C3F13F009042D8BF82B23280C9682046C91800F0D3FB1FB902F010FF00E0072749
:202C2C003846FEBD501A002038B5DFF8CCE0059C049D8C46002B01462DD142F64D23934254
:202C4C0007D1BCF1020F04D12878012802D00D2038BD28781B3B0021D21A12D01B3A18D11D
:202C6C00BCF1020F09D0BCF1030F04D101280AD17046801C0BE00A210BE0012803D1704613
:202C8C0005E0012801D00D2103E07046401C22780270084638BD012B15D0022B4FF000005A
:202CAC0008D0032B26D1012924D1BCF1010F21D1014605E001291DD1BCF1010F1AD101212F
:202CCC000E4A117038BD7146891EC87842F63223D21A0BD01B3A07D18878BCF1020F05D068
:202CEC000879BCF1030F01D0002001E0207001202880002038BDC046B6200020981D002077
:202D0C002DE9F04105462E480068EFF3118880F311882C4A505D411C0028515549D12A49D5
:202D2C00AC000F5D07F03F003F280C4401D0FFF7E7FF607800F03F003F2801D0FFF7E0FFC1
:202D4C00668837F07F0019D1F80911D24FF08054D4F8B801406901463046884704F5DC74EF
:202D6C002068406B0146304688470128F8D120E0164850F82610012088471AE04FF08054BD
:202D8C00D4F8B801C069014630468847D4F8B801406A014630468847D4F8B801C06A01463C
:202DAC003046884701210A4A0A48116001688908FCD388F31188284602F068FCBDE8F081D2
:202DCC00386300004029002038610000782900202820086028200840F8B5324C0D4606465F
:202DEC00217860781746062925D0022928D001F0D1F810B901F0A6FD22E00620202102F040
:202E0C0071F80720302102F06DF80120052102F069F8002001216A468DF8000040F20D30EE
:202E2C00FFF70AF9012140F205306A468DF80010FFF702F904E018B1E079A17988422AD0EA
:202E4C0001F0A8F868B3E2790B20521C92FBF0F14143521AE271A179914205D1491C91FB61
:202E6C00F0F34343C91AA171504304F1D80101230E542A460818437039468570C01C00F07E
:202E8C009DFA6078618960B141F008006081206903F0E6F8F8BD30462A4601213B4600F01A
:202EAC00EFFDF8BD341A00202D492DE9F0410968EFF3118881F311882A4B195C4A1E0129C5
:202ECC001A5449D1284980000D180E5C6F8836F07F0019D1F00911D24FF08054D4F8B801E4
:202EEC00806901463846884704F5DC742068406B0146384688470228F8D120E01D4850F899
:202F0C002710002088471AE04FF08054D4F8B801006A014638468847D4F8B801806A014639
:202F2C0038468847D4F8B801006B01463846884701210E4A0E48116001688908FCD306F0B4
:202F4C003F003F2801D0FFF7AFFF687800F03F003F2801D0FFF7A8FF88F31188BDE8F0813C
:202F6C003863000040290020386100002820086028200840782900202C482DE9FC47006852
:202F8C0000680146202088472D4DDFF8A4A04FF002080F2000214FF4C07207232D3D2860A8
:202FAC0041F61D5068605046CDF8008000F0C4FF214824490124A0F10C06091F0C6056F88B
:202FCC00041C8908FBD3DFF86C90B9F800102C61012905D00020214601F034F8444621E017
:202FEC000027164D0760032345F8393C376030688008FCD2CDF80080504639466022052373
:20300C0000F09AFF346030688008FCD3202045F8210C45F8397C0826C5F8FF6FC5F8F36F84
:20302C0045F8394CC9F80440BDE8FC87A001001000A00C40D828002044600C4039400C4023
:20304C0039400C4038600C4038B502F0BEFE2A4C256805F00C000C2846D0E8081ED202F000
:20306C005FF8014625480068884217D22448254A254D036812682868B3FBF2F20019891A0E
:20308C0002F0B6FF2868001902F0AEFF0120FEF761FE2868001902F0A3FF27E0280923D256
:2030AC001A4A680904D21168104621F0010103E01046016841F001010160983210684FF0C0
:2030CC00805440F003001060D4F8B8018069014620208847D4F8B8010D4C806B2168804790
:2030EC0001202060206801E0FDF7C4F902F073FE00F068FD38BDC046D425002030630000AA
:20310C00346300003C630000206300008C2108402C2009402A482DE9F84FD0F80090EFF357
:20312C00118489F31188274EB068012102F054FF4FF0010A4FF000080546326871697769B5
:20314C00A6F81CA03068A6F81E80891A2A1A8A42A5EB07052DD384F3118844463F1950465E
:20316C00394602F035FF2D1B0446AC42F6D9EFF3118B89F31188F08B012804D1404639463E
:20318C0002F026FF0446B4F1FF3F06D0B169641BA14238BF0C1C391901E0B469E1192046BE
:2031AC0002F012FFA6F820A0A6F81C805C46376001E0A6F81C8084F31188BDE8F88FC046D2
:2031CC003863000078010020F8B50D46EEB2290824BF25494D40254AB300D15885EA010441
:2031EC000440C4F3006C224C00EA050781433C4000F4E0272143B7F5E02F01D14C0E15D38A
:20320C0000F4E0245CEA040710D001F4E027B7F5A02707D0B7F5803704BF21F4003141F492
:20322C00A02103E021F4803141F4C021114CD150C10D04D3A4F18001C5F380528A55000E52
:20324C0011D302F0BDFE290E03D201210022B14002E00121B1400A46503423688B431A4311
:20326C00226002F0A9FEF8BD006000A000100840FF7F077F80200240F8B5264C2068EFF3AB
:20328C00118680F3118824491D4D0B680420B0FA80F043F00403281A1F3002780B60521CD9
:2032AC00027086F311882068EFF3118380F311880A680820B0FA80F042F008022D1AE87FD6
:2032CC000A60401CE87783F311880E20FFF718FD0C480068C0F38150032814BF00200120F6
:2032EC0009490A4A088017683FB9094C402020600123D36100204860F8BD0120F8BDC04637
:20330C00002A0020B43F0050D828002004800C402C500C4038630000D4250020F0B520489B
:20332C000127F84201D001F0A3F8204D204F214EBD4206D203CD0478A4003459401CA047E0
:20334C00F6E71D48002800D08047164D164FBD4202D210CDA047FAE7F0BD03251BE04168A7
:20336C0008300A1C2A400BD11A1C2A40AB4305D0046804300C600431043BF9D1131C05D0EC
:20338C00047801300C700131013BF9D1021C2A4001D0A84304300368002BE0D17047C04644
:2033AC00FFFFFFFF000000000000000078680000E06800002C68000059C50110002A4AD0D6
:2033CC005FEA000C8B071CD1830722D1102A08D370B4103A78C978C0103AFBD270BC10320F
:2033EC0038D0042A2CD3082A05D30C2A24BF08C908C008C908C008C908C092072AD0920F6A
:20340C0022E00B780370491C401C521E22D08B07F7D1C30714D18307D8D0121F12D308C963
:20342C0003801B0C4380001D121FF8D20AE008C903701B0A43701B0A83701B0AC370001D68
:20344C00121FF4D2121D05D00B780370491C401C521EF9D160467047B0B50446A768ADF1BB
:20346C00280D5FBB0C2000F0A3F9071C1DD0684600212422082302F09BFD002306976A46EF
:20348C006168ADF810301848059302F08DFD386070B90820ADF824000C25ADF8265009A84F
:2034AC0001F04EFF384601F0D7FF6FF0030018E0E06878602069B860A7600AE002F072FA13
:2034CC000546386802F08CFD2069B860284602F069FB3868616802F08BFD386802F084FD1F
:2034EC0000200AB0B0BDC0469B5D000070B5044602F036F841F29C65C2F200056E680346E0
:20350C0001F07DFF2A699B1B4FF47A715943090C801A48BF4042641840F6B831A14216D380
:20352C00062814DAAA68E868824210D8296871B1801A44F24022C0F20F024243900C00EBA1
:20354C001240814212D90846C82811D312E043F6AC71C5F200014868400828BF4FF4FA60C1
:20356C000DD209687D2001F0FF014843C82801D2C82070BDB0F57A6F88BF4FF47A6070BDDF
:20358C002DE9F843204D884606464FF0FF3105F12400814602F030FD002000E0401CB8F1D3
:2035AC00000F0DD018F82010FF2909D02A688A4204D905EB8101096E0029EFD000261CE0A4
:2035CC000024346074600127B4600EE005EB80000B787268066607FA03F0104370600A6867
:2035EC000A49304601F0D2FF641CB8F1000F04D008EB84010878FF28E8D1484602F030FDA3
:20360C003046BDE8F883C046F8140020007FC76738B5042002F04EF81A4C022818BF03284E
:20362C001FD103200090164800214FF040521C2300F082FC17480068EFF3118380F3118895
:20364C0015480421B1FA81F1401AC17F4A1E0129C27703D1206820F00400206083F311885B
:20366C0038BD094D0A49094A286809680019B2FBF1F102F0BDFC2868001902F0B5FC38BDB8
:20368C0000A00C40D425002024630000A08601003C63000038630000002A002010B51A48C0
:2036AC001A490078086820F0030040F00100086001F0C8F801F04EFD0021154C15482160BA
:2036CC000068C0680146022088471349134A086820F0010008601068D4F8EC1FEFF31184AE
:2036EC0080F311880E4B0F481A680421B1FA81F1401A42F00402C17F1A60491CC17784F3DE
:20370C0011884FF0FF3010BDC01600200440034040100940A00100108C2108403863000072
:20372C00D4250020002A0020F8B505461E480068EFF3118780F311881C4C20684FF08056C9
:20374C0040F080002060D6F88C014068014601208847D6F8B001006A01461420884728692F
:20376C0006F5C675810C14BF010C04212868406A024601209047D6F88401006823210246B4
:20378C00002090472868C069014601208847206820F4C02040F480302060206840F001009D
:2037AC00206087F31188F8BD3863000000200940F8B5001D84B214F0030002D0241A241D59
:2037CC00A4B202F0EFF81A49102C02464F690A61C8BF8F69388800231E46C10BCD0319D158
:2037EC0026B984420ADD3B46012617E01988091889B28C42198011DC1F4608469FB1001B23
:20380C0080B20428B4BF3C88385344F400443C803F1D08E080F40040002680B23F183888DD
:20382C000028DAD10027104602F0BCF93846F8BDC4240020002213460A46194671B510F0FA
:20384C00030F0BD0002A82BF00F8011BB2F1010210F0030FF6D1002A08BF71BD11F0FF0151
:20386C0041EA0121042A18D341EA0141082A0FD30E46102A08D30C460D46B2F10F0312F090
:20388C000F0272C0103BFCD812F0080F18BF42C012F0040F18BF40F8041B12F0020F18BF9B
:2038AC0020F8021B12F0010F18BF017071BD704770B5FEF7C5FE1B4C0025042004F11001F5
:2038CC0041F80C5F401E8D60FAD1241F062004F150010A46401E22F80C5BFBD108200880C8
:2038EC000E4E8E600E4EE823A6F86C5A2846338006F1E802626140F684111180FFF758FF39
:20390C00A061666100F028F900F07CFF01F076F801F092F802F044FB284670BD65580000F4
:20392C0008020020C824002070B50646F088F4680628A4F10C042CDAB088062829DA02F0CC
:20394C0031F8154DF28891000C3501EBC20149194968E1B102F026F930792071B0796071EB
:20396C00307AA071F188880000EBC1004019F1684068083001F09CFDF188880000EBC1000A
:20398C0040194068406802F06BFB002070BD02F009F96FF0020070BD08250020FEB51A4CE5
:2039AC000546208C218B81420CDC618B814209DBA08B618C884205D1E08BA18C884208BF39
:2039CC0018271FD0052000F0DDFF278B0646A18B638BADF80270E08AADF806100B4AADF86E
:2039EC000000E78BADF8043011216846ADF8087001F0E2FB071C05D1A57304F1F000314638
:203A0C0001F060F93846FEBDC8160020A95E00002DE9FE43194D184E287800244FF6FF786F
:203A2C00012724E0716931F8240080451CD0814602F029F9400817D348463946002201F049
:203A4C006BFF019080B1B6F84210ADF802707378ADF8001069460370484601F0D7FF18B137
:203A6C0068461B2101F066FF2878641CE4B2A042D8DCBDE8FE83C0465C250020C8160020E3
:203A8C002DE9F84399461546804601F0E3F80E46071C27D07968144CC968A089096802F091
:203AAC00F2F8C0B240081DD3607938B1621D40F219300121FEF7C0FA0020607138882946B9
:203ACC004A4600F045FD58B984F8288084F8296004F12B0049462A4684F82A50FFF76EFC69
:203AEC0001F0ACFFBDE8F883341A002038B50079184CA0B901F056FF2178002904BF6FF043
:203B0C000704051C13D0491EC9B2217029B902F049F8606801F046F918E0054613E001F0E3
:203B2C0041FF05462078FF2805D16FF00604284602F038F80BE0401CC0B20128207002D11B
:203B4C00606801F04AF9284602F02CF80024204638BDC04690290020B0B5ADF1400D02F039
:203B6C007BFA044600213C220823684602F014FA1148416806918168006804900F480068E5
:203B8C00002205900E480891694602F001FA071C0DD001F007FF0546384600F01DFC30B12D
:203BAC00284601F0FFFF204602F042FA01E000F0F7FA10B0B0BDC0467C600000C82400202B
:203BCC00C55C000045F2280080B5C4F2090007686FB343F6AC70C5F20000826802EA52019F
:203BEC00C90E24D24168890821D20021C4F20901D1F800C000681CF0050F4FEA104000F054
:203C0C00F00000F5E0700CD1B84210D2100F38BF4CF0010CD00E38BF4CF0040CC1F800C0B1
:203C2C0080BDB84284BF2CF0050CC1F800C080BDF8B5844640F6FF741CF8013B002210E099
:203C4C00481B401E10F8015B7F1E01F8015BF9D103E01CF8010B01F8010B521C5B08082A6C
:203C6C00EADA5808F5D21CF8010B1CF8015B05F00F07FF1CC5F30315122F45EA001508D169
:203C8C001CF8016B300A24BF1CF8010B60F3DF16BF19AC42D4D1F8BD10B5012001F00AFD15
:203CAC00012829D04AF20000342101220023C4F20C0000F071FC002808BF00201DD0802044
:203CCC00C1F200000068804701F04AFC41F29C6344F24022C2F20003C0F20F029C681968F6
:203CEC00D860041BA1EB91016243120C8A4224BF1A60012001D21960012010BD98B541F27C
:203D0C003403C4F2090318680004070C26D001F076FB41F2B062C2F2000292F9071081424F
:203D2C0005DD10F1800FB8BF6FF07F00D0719188B94212D81468D3F8D40F001B801C1F2849
:203D4C0088BF1F207F1A4008C7404FF6FF70C919884238BF011C918098BD978098BDF8B5F6
:203D6C0006AF3F880E4605463FBB022B23D15078147804EB002434F001001AD1F1680968C0
:203D8C00284601F080FF844211D0F06806683146284601F081FD48B94FF6FF70314601F05B
:203DAC007BFD002808BF112008D0058084700020F8BD8020F8BD0D20F8BD0B20F8BD70476B
:203DCC0038B502F0FDF8154C0546A01D008840B9FFF752FA0446102000F060F9012C0DD00A
:203DEC0017E0FFF759FF60B10020E080FFF744FA0446102000F052F9012C0AD1FFF7BCF846
:203E0C0007E030340521204602F0F2F8204602F0EBF8284602F0D0F838BDC046D42500206C
:203E2C00F8B5054605F128020CCA0846002101F07DFE05F1300292E8C00036184FEA16446A
:203E4C0047EB01073804044301F08AFB211AB1F1004F08D8011B091DC90F05D1001DA04228
:203E6C0088BF041C00E0041D04480068426A214601209047383585E8C000F8BD8C01001023
:203E8C00F8B506AF3F881D461446002F18BF0B2021D148684278007842F61927002600EBA2
:203EAC00022087420BD042F60812824218BF0A2610D102202880C868008820800AE000F036
:203ECC001DFF05494A788242C4BF021C4A700120288022703046F8BD5C2500201549096895
:203EEC0021280ADC212819D00C380FD00D380FD0001F0FD0C01E0FD01AE0253810D0401FBD
:203F0C0010D0401E10D0401E10D011E0086870474868704788687047C86870470869704704
:203F2C0048697047C8697047086A7047486A704700207047F00100202DE9F041984600EB9B
:203F4C0041001646B8F1100F06AF00F5007404D3A8F1100800F50174360C3D8801F035FFB4
:203F6C0005FA08F545EA06450021002808BF012148F20002C4F20C02106810B910680028AC
:203F8C00FAD025600120106009B101F024FFBDE8F081FEE73EB500250A208DF8045001F060
:203FAC002BFC041C1DD00421372201F04FFE40F20E40208101F030FC214601F0BBFA80B981
:203FCC0009480095694600F03EFF50B9009A507820B99168D27901A8FFF7F0F9009801F07A
:203FEC0075FD9DF804003EBD675E0000B0B5044602F00AF800F0F0F9054601F0D3FC01461C
:20400C00A2880F480023303030F80C7F5FB902804560A381A26882606868206100240846CB
:20402C0001F0C0FD09E0974208BF6FF00204F6D05B1C062BE8D300F0B3F82046B0BDC0463B
:20404C00D8240020F8B5124D124C0322002645F8392C0F46266021688908FCD280B200905C
:20406C000D48314660220523FFF766FF0121216020688008FCD345F8217C45F8396C0820FD
:20408C00C5F8FF0FC5F8F30F45F8391CF8BDC04639400C4038600C4000A00C40F8B50746AE
:2040AC001248134D0468281901F0DEFF00266419C0B9204601F0CCFF0546A868074206D007
:2040CC00EA68296938469047C0B2012806D0284601F0BAFF0546AC42EFD103E00248006884
:2040EC00804702263046F8BD2C63000028630000D4250020D0B5044601F086FF01F004FA33
:20410C00061C08BF6FF004001DD001F04BFCB168002908BF002709D051F80C2C0023B26063
:20412C000F4641F80C3CFF2601F8026C01F03AFDA7603FB117F8080CA08017F8070CE0802D
:20414C000020D0BD0220D0BDB0B5044601F056FE30F0010008BF6FF004041BD001F054FF85
:20416C00054601F01FFC0C4A062132F80C7F6FB1A388BB4208D1526812680021954208BF96
:20418C000121A160002403E0491EEED14FF0FF3401F008FD2046B0BD0825002000BF7047C5
:2041AC0008B5FFF7FBFFFEE738B50D4C0546A06820B10C48B0F1FF3F00D080470A48006873
:2041CC008047606810B1014628468847206800B18047064800688047FFF7E2FF38BDC046B0
:2041EC0054290020FFFFFFFF982900209C290020BCB506AF3F88002F18BF0B201ED14C6893
:20420C006578247804EB052442F64F25A54209D042F60215A54218BF0A200FD10097FFF7F1
:20422C009EFDBCBD042B18BF0D2007D10448CF68036811680120396098470020BCBDC046B4
:20424C0044260020DCB5044601F0DEFE01F05CF9064601F0D3FD30F0010014BF002E6FF04C
:20426C00040017D0606858B1B0F1FF3F05D0694601F07EF830B107460BE04FF0FF3000E045
:20428C00002000907068009901F0B6FE002700B901273846DCBD70B505464AF200060C4629
:2042AC006808ADF1080DC4F20C0607D3A0B20021009001220B463046FFF73EFEA80807D384
:2042CC00A0B200900021022201233046FFF734FEE80807D3A0B2009000210C220223304653
:2042EC00FFF72AFE02B070BD2DE9F04106461148103090F8008014460D46102001F07CFA3D
:20430C00071C12D00421072201F0A0FC404601F0F6F938727E72BD72FC6001F07DFA044A70
:20432C00394600F01FFCBDE8F0810420BDE8F081A35E0000C8160020B0B5054601F064FE95
:20434C00044601F05BFD30F0010008BF6FF0040416D001F027FB01460A48002230F80C7F08
:20436C004FB143681B689C4204BFAA80002404D0521C062AF2D36FF00404084601F012FC29
:20438C002046B0BD08250020F8B5044601F03CFE00F022F8071C19D001F004FB84460D48AA
:2043AC000021303030F80C6F6EB94FF6F87202804760A180002585607868A060604601F02C
:2043CC00F1FB2846F8BD491C0629EBD3FFF7E8FEF8BDC046D82400202DE9F843804601F0B5
:2043EC00E1FA0F4C04250026814654F80C7F5FB93046C4F800800146A6600A4601F0C4FD75
:20440C00606018B9FFF7CCFE474501D1264601E06D1EEAD1484601F0C5FB3046BDE8F88379
:20442C00D8240020BCB514464A685578127806AF02EB052242F60215954213D13A88009259
:20444C002246FFF78CFC074608480830016857B949B16278207810EB02200CBF0220012085
:20446C00884700E00A273846BCBDC0465C250020F8B506460F4D104F7388002417E0A20046
:20448C0002EBC402921951689068D26852B9AF420BD00A7855F822200346491C0846194684
:2044AC00904701E0FEF78AFF7388641CA4B2A342E5DCF8BD2C68000038680000BFB505469B
:2044CC00082014460F46ADF800000420ADF802000C200190684600F033FF00280CBF02986F
:2044EC000020014620B9204601F0E4FA002008E08C60284601F044FD17B1384601F0B0FDC3
:20450C0001200090BFBDFEE70F48B0B54178062918BF072917D1057CC48A0E2001F06CF997
:20452C00071C10D004210A2201F090FB284601F0E6F838727C811320387301F06DF9034A39
:20454C00394600F00FFBB0BDC81600209D5E0000FEB5104C0646A08917460D46002201F029
:20456C00DBF9019090B1ADF80060ADF8025039462A46FEF723FFA089694601F047FA041C5D
:20458C0005D068461B2101F0D5F900E013242046FEBDC046341A002070B540181E461546A9
:2045AC00102E044602D3103EA41C2D0C01F00DFC0021002808BF012148F20002C4F20C021F
:2045CC00106810B910680028FAD024880120106009B101F000FC05EA0400304180B270BD7D
:2045EC0008B50D480D4B006890FAA0F0B0FA80F1012000FA01F21A60094A106009480268A2
:20460C008A4207D900EB8100006E18B102680AB1C9B2904708BDC046E0200240E020026059
:20462C0080E200E0F8140020F0B50D4614461F460646002124220823ADF1240D684601F0FD
:20464C00B7FC00200590ADF8100008484FF47A716B4600680697B1FBF0F080B2294604FBD1
:20466C0000F2304601F088FC09B0F0BD3C6300002DE9F04105461E4690460C46142001F009
:20468C00BBF8071C13D03246032101F0DFFA3D81002038744046FC6001F031F8787401F08C
:2046AC00BBF8044A394600F05DFABDE8F0810420BDE8F081FF5900000C4885460C48854443
:2046CC006F4607208743BD460A486F4607600A48002803D07946491D8E460047FEF71EFE19
:2046EC0001F018FA01F044FCFEE7C046E83F002000040000082A00202D5E00002DE9F04120
:20470C0004460E48057890460E46102001F074F8071C10D03246042101F098FA284600F038
:20472C00EEFF3872FC6001F077F83946424600F019FABDE8F0810420BDE8F081D8160020B2
:20474C0098B504462420FFF733F8071C14D000212422082301F068FC2079012804BF0120BD
:20476C003876A0683946002201F00EFCE060384600F072FEE06810B96FF0030098BD0020D5
:20478C0098BDD0B504463C20FFF712F8071C14D000213C22082301F0FFFB207AB861608955
:2047AC003862E068386160683946002201F0F0FB0646384600F050FE16B96FF00300D0BD67
:2047CC000020D0BD0E4A10B553781478A8B1401E12D0401E0ED0401E10D1107902F14804D0
:2047EC00087250794C6001234872B2F842008B72088010BD508CFBE723460B7010BDC0462D
:20480C005C25002000B500213C220823ADF13C0D684601F0C1FB094800F5B27107914FF406
:20482C000271089103210691054900236A4600F58A7001F099FB0FB000BDC046C816002090
:20484C00AD0B000010B54FF08054D4F8900181680120884741F21401C4F209010868800985
:20486C0002D208688009FCD3D4F8A00101684020884704F5D0742068816840208847112875
:20488C00F9D110BD012810B515D1012000F012FF012812D001F0A0F8094C0120E0803034B1
:2048AC00204601F09DFB0521204601F0A1FB204601F09AFB01E000F04DFC002010BDC046EB
:2048CC00D42500200C4810B50068EFF3118480F311880B48C088012809D108483421012249
:2048EC000023FFF759FE002808BF002000D0012084F3118810BDC0463863000000A00C40D2
:20490C00D4250020B0B504460D48026840680F4600211200401841EB020104F128020CCA58
:20492C00FDF7ACFC05460B4647B104F1280003C82A4601F0FBF8303484E803002846B0BD51
:20494C000820094008B50620302100F0CBFA0720502100F0C7FA01203C2100F0C3FA00205D
:20496C0001216A468DF8000040F20D30FDF764FB012140F205306A468DF80010FDF75CFBF9
:20498C0008BDFEE73EB505460020ADF804000A2000F032FF041C0DD00421312201F056F95A
:2049AC00258100F039FF01A90223044A0091214600F0F6F8BDF804003EBDC046855E00008D
:2049CC00F8B5064614460D46142000F015FF071C0FD00421022201F0D3F9BE60BD81102059
:2049EC00B8733C6100F018FF034A394600F0BAF8F8BD0420F8BDC046555D000000B5002152
:204A0C003C220823ADF13C0D684601F0C5FA084800F25111079140F21221089102210691C8
:204A2C00044900236A46883001F09EFA0FB000BD341A00206519000000B500213C22082342
:204A4C00ADF13C0D684601F0A7FA084800F1980107914FF42171089101210691044900231A
:204A6C006A46483001F080FA0FB000BD981D0020BD1000001FB504460820ADF8000004206A
:204A8C00ADF8020010200190684600F059FC00280CBF029A0022054841682AB10123138076
:204AAC0094708068FFF70AFD00901FBD981D002070B50446606810F07F4F18BF6FF0020083
:204ACC0011D100F06FFF084D0646287828B1686800F068F9606800F080F960686860304618
:204AEC0001F060F8002070BD902900203EB50546FFF700FB041C15D1A88802A900F026FA1B
:204B0C0068B10821ADF80010A86801900321ADF80210684600F014FC6FF005003EBDBDF854
:204B2C000800A88020463EBDB0B504460D46102000F062FE071C10D02146062201F020F9BA
:204B4C000020388115247C81054AFA6000F064FE39462A4600F006F8B0BD0420B0BDC0465E
:204B6C00876200001CB51446CA78012A02D18A880A4B1A8000F0DEFC30B9002000906946C2
:204B8C00204600F060F918B100F0FEFE044603E00098447800F09AFF20461CBD60290020B3
:204BAC0038B51C46154600F0C5FCB0B9002000906946284600F047F978B90099487848B99D
:204BCC000846C1798C4205D10146049889682246FEF7F4FB009800F079FF38BD0C4910B56E
:204BEC000968EFF3118481F311880A49B0FA80F2891ACA7F531E012ACB7703D1034A1168E1
:204C0C008143116084F3118810BDC046D425002038630000002A002038B50D4C206820F094
:204C2C000100206021684FF0805541F0800121600120E062D5F88C11E26A49688847D5F8B1
:204C4C00B001006A014614208847E06A38BDC046002009400B4BB0B502461F79986977B171
:204C6C00094D037A9A4206D1437A994203D12B78847AA34204D07F1E00F10C00F1D1002060
:204C8C00B0BDC046341A0020B520002010B504460B4802680023D90750080143D007801A56
:204CAC0099414FF47A720023FDF7E8FA002908BFB0F1004F28BF6FF000406060002010BDD3
:204CCC003C63000038B50D46044601F0FAF810B1204601F085F9084800684FF47A71B1FB94
:204CEC00F0F080B205FB00F1204601F081F9204601F07AF938BDC0463C63000038B50C4C2B
:204D0C0004F10C00006800B180470848026861887D25642305FB02F0420903FB02F0B0FB02
:204D2C00F1F5206900B18047E8B238BD285009405C2500200C4938B50968EFF3118581F3F0
:204D4C001188074B07491A68B0FA80F4091B1043CA7F1860521CCA7785F3118838BDC04679
:204D6C00D4250020002A00203863000010B50C4600F0F6FB211AB1F1004F08D8011B091DE3
:204D8C00C90F05D1001DA04288BF041C00E0041D03480068406A214602460120904710BD21
:204DAC008C01001038B50546012411E0C0F11F0004FA00F1052881EA050504DB401FC0B2EB
:204DCC00FEF772F804E004FA00F0C0B2FFF706FFB5FA85F02028E9D138BD38B505460124B1
:204DEC0011E0C0F11F0004FA00F1052881EA050504DB401FC0B2FDF783FF04E004FA00F05D
:204E0C00C0B2FFF797FFB5FA85F02028E9D138BD98B50446A06858B1B0F1FF3F05D0694662
:204E2C0000F0A6FA30B107460BE04FF0FF3000E0002000906068009901F0DEF8002700B9B7
:204E4C000127384698BD3EB5054608200C46ADF800002020ADF802001020ADF80400684680
:204E6C0000F06EFA28B90298002818BF6FF0040003D12846214600F0CBFB3EBD41F218301C
:204E8C00C5F2000001684BF69A10C1F30F31884208BF00200BD02430884208BF012006D09F
:204EAC004BF6203088420CBF02204FF0FF307047F8B5064614460D46102000F09DFC071CF7
:204ECC000CD00421362200F0C1FE3E817D81FC6000F0A2FC024A3946FFF744FEF8BDC04659
:204EEC006D5E000070B506460D460C2000F084FC041C0CD00421302200F0A8FE26816581E5
:204F0C0000F08AFC034A2146FFF72CFE70BD042070BDC046915E000038B50446A1686068C0
:204F2C0008601420FEF744FC48B1002505490095054AA368097800F0D9F8284638BD6FF035
:204F4C00030038BD0B6200001D530000062880B50CDA0A4F820002EBC00207F13C00875A88
:204F6C0013181FB14FF6F870B84202D14FF0FF3080BD18880880002080BDC046D82400205E
:204F8C0010B5044600212C220823ADF1300D684600F040FFE0200890A168606800236A4668
:204FAC0000F0DEFF002818BF002001D1FFF7F8F80CB010BD10B5044600212C220823ADF171
:204FCC00300D684600F026FFE068A1680890606800236A4600F0C4FF002818BF002001D19D
:204FEC00FFF7DEF80CB010BD10B5044600F0DAFC094B0022014633F80C0F30B1A04208BFEE
:20500C0094B203D0521C062AF5D3FF24084600F0C9FD204610BDC04608250020010446F21B
:20502C0044020B0CC4F20C02C0F3074142F8083C012042F8041C40F68401C4F28C311060B1
:20504C00086810B908680028FAD0002010607047F8B5064614460D46102000F0CDFB071CB1
:20506C000CD00521012200F0F1FD3E727D72FC6000F0D2FB024A3946FFF774FDF8BDC0467C
:20508C00AF5E0000F8B5064614460D46102000F0B3FB071C0CD00521022200F0D7FD3E72C6
:2050AC007D72FC6000F0B8FB024A3946FFF75AFDF8BDC046B55E000038B505460C2000F0BC
:2050CC009BFB041C0DD02946002200F059FE4FF0FF30A06000F0A0FB034A2146FFF742FD77
:2050EC0038BD042038BDC046C55500008C4698B5014617460029604614BF002F032009D0E6
:20510C00054C8860054ACF6020680B61801800F023FF002098BDC04628630000D42500200F
:20512C000A4838B50068EFF3118580F31188084CA068002100F050FF6169A269081A8242C1
:20514C0038BF002085F3118838BDC046386300007801002008B503200021FFF79CF8012040
:20516C0000F0A8FA20B18020C1F200000068804700F0F6F941F29C63C2F20003586000F0CE
:20518C003EF9186108BDF8B5044616460D460C2000F032FB071C0DD02A46042100F056FDC7
:2051AC003C810520B87200F037FB39463246FFF7D9FCF8BD0420F8BDF8B5044616460D46BF
:2051CC00102000F019FB071C0DD02A46042100F03DFDBC600020F86000F01EFB394632463C
:2051EC00FFF7C0FCF8BD0420F8BD1078802811D1508840F27F6181420CD190883F21B1EBB3
:20520C00A02F07D1C0F3C211042903D100F07F00834201D000207047012070471078802870
:20522C0011D1508840F27F6181420CD190883F21B1EBA02F07D1C0F3C211032903D100F0C5
:20524C007F00834201D000207047012070471078802811D1508840F27F6181420CD19088CA
:20526C003F21B1EBA02F07D1C0F3C211052903D100F07F00834201D0002070470120704743
:20528C0038B50546102000F0B7FA041C0DD00121132200F075FD25810020A072E06000F03B
:2052AC00BBFA024A2146FFF75DFC38BD715D0000094A80B50146177990695FB1074A127825
:2052CC000C3830F80C3F994202D1837A9A4202D07F1EF6D1002080BD341A0020B52000208E
:2052EC000EB501468DF8021000208DF800008DF801008DF803008DF804008DF805008DF8B6
:20530C0006006A468DF807000821FDF765FD0EBD10B5401E0C460DD0401E09D0801E05D0F9
:20532C00001F01D0FEF73CFF052004E0002002E0042000E00220226821469047002010BD5B
:20534C0010B504462088FFF74FFEFF2808BF4FF0FF300AD0054B810001EBC000195811B161
:20536C002046884710BD6FF0010010BD1C2500200A4A10B512680C464FF47A710023A1FBBF
:20538C000001FCF77BFF002908BFB0F1004F2EBF6FF002002060002010BDC0463C63000053
:2053AC0010B500F04DFE00F057FE032000F0D0FD06481030006830B1034C204600F036FC0E
:2053CC00204600F030FC10BD315C0000A4010020F8B507461C4615460E460A2000F02CFAD5
:2053EC00021C0BD038460168116080889080D680002115722020547200F034F9F8BD45F22B
:20540C00280041F20C31C4F20900C5F20001826891F900100068A0F540704143091142F36D
:20542C001000401A803000127047704710B5012000F0EEFB00280CBF08240024022000F0B2
:20544C00E7FB08B944F0010402480470243000F030FD10BD5027002010B5044600F0A2FA36
:20546C00074934F8042C6FF3DF3224F8042C4A690861241F944238BF4C6100F093FB10BD91
:20548C00C42400200EB50820ADF800000420ADF8020006480078800001906846FFF750FFD3
:2054AC00002814BF002002980EBDC046C816002038B50C46054600F075FA002144F80C1CEE
:2054CC00296811B92C6006E0114651F80C2C002AFAD141F80C4C00F065FB38BD10B5044641
:2054EC0060680C3080B2FEF763F950B1A18800230181FF22036000F10C0182721846A16075
:20550C0010BD6FF0030010BD38B5054600F04AFA074C0422014654F80C0F18B1A84202D06B
:20552C00521EF8D10024084600F03CFB204638BDD824002000B5ADF1140DADF80400039165
:20554C000822ADF80020ADF802201020ADF8060002208DF808006846FFF7F2FE05B000BDF9
:20556C0038B500F032FC0021002808BF012142F20800C4F20900056844685FEA010E01D0A5
:20558C0000F029FC280440EA144038BD38B5094B1C6802F0FF05AC420AD902F0FF0403EBDC
:2055AC0084031B6E984203D108461146FDF70CFE38BDC046F81400201078802810D150886E
:2055CC0040F27F6181420BD19088032818BF042806D1917931F0100014BF1129012000D0B8
:2055EC0000207047084838B50068EFF3118580F31188064CE088012803D1FEF74DFB00208B
:20560C00E08085F3118838BD38630000D425002010B50C46ADF1180D02900821ADF800101A
:20562C0019216846ADF802104FF0FF310191FFF787FE0499216006B010BD80B5107802AF34
:20564C0080280DD1508840F27F61814208D19088834205D138789179884208BF012000D043
:20566C00002080BD70B5064614460D46142000F0E3F80246044801692AB116809570406987
:20568C001461FEF71BFF70BD341A002010B50E284FF0010403D00649085C28B105E02046F6
:2056AC0000F008F8012800D00024204610BDC0464029002001464AF200000429C4F20C009D
:2056CC0005D134214FF0C0421D23FEF765BF34214FF080521C23FEF75FBF0EB58DF80000F9
:2056EC0000208DF801008DF8020005218DF803006A468DF804000120FDF76EFB0EBD0EB57E
:20570C00ADF806005021ADF8001068460021ADF80210FFF715FE002814BFFF209DF8080066
:20572C000EBD0000074808B51030006828B1034800F07CFA024800F076FA08BDC5580000C8
:20574C00515B0000A4010020074810B51030006830B1044C204600F069FA204600F063FA73
:20576C0010BDC046BB380000A4010020074808B500F0EAFBFFF7D6FF00F0E2FB00F0DCFB52
:20578C0000F0D6FB00F0D0FB08BDC046AD53000010B50648064900684C6840680146012028
:2057AC008847A06901466069884710BD8C010010E4010020074908B5283090E80C000020AE
:2057CC00FCF75CFD002908BFB0F1FF3F88BF4FF0FF3008BD907E000001460648007840B11C
:2057EC004FF6FF73091F002221F8043F401E8A70FAD17047C81600200EB501900821ADF846
:20580C00001068460221ADF80210FFF799FD002814BF002002980EBD0EB50820ADF8000048
:20582C001A20ADF802006846FFF78AFD002814BFFF20BDF804000EBD0EB501900821ADF890
:20584C00001068460421ADF80210FFF779FD002814BF002002980EBD08B54288292A28BFF5
:20586C006FF0010004D203490C3151F82210884708BDC0468860000010B5044600F0F4FB72
:20588C00002818BF002006D1204600F049FB846800F010F9204610BD064A127842B1091F5F
:2058AC0031F8043F984208BF081C02D0521EF7D100207047C816002010B5064C206900F03C
:2058CC002BFB0146A06800B9E160A068401CA06010BDC046A40100200648026840680021D0
:2058EC00120040184FEA104041EB0201090408437047C0460820094010B50446E088FFF787
:20590C0073FBFF2808BF4FF0FF3003D0E0802046FEF70AF810BD00001CB5054B1C682CB1D2
:20592C00009202461B230120A0471CBD00201CBD6429002010B504460448001D03681BB10D
:20594C000A4601202146984710BDC0466429002038B5012014460D46FFF76EFF021C04D0F4
:20596C00147029464020FFF77DFE38BD002948BF0021044A02EB8000026861F3050202602F
:20598C007047C0460010084050B110F1040F08BF042006D010F1030F0CBF02200120704738
:2059AC000020704710B500F057FB80B260F30F0400F006FB80B260F31F44204610BD1CB588
:2059CC00044660686946FFF7D3FC20B9009860602046FDF741FD1CBD08B503200121FEF79C
:2059EC005AFCFFF7BDFD41F2A461C2F20001086008BD10B51D23FFF711FC012420B91B2337
:205A0C00FFF70CFC00B90024204610BD38B50C460546FFF701FFC2B21B2321462846FEF770
:205A2C0027FE38BD044B03F10A02118808431080186900F015BBC046341A00200448016A11
:205A4C0021B1096811B1643000F033BA7047C046341A002008B5406810F07F4F18BF6FF030
:205A6C00020002D1FFF79EF9002008BD08B5406810F07F4F18BF6FF0020002D1FFF7ADF9F9
:205A8C00002008BD0EB501900821ADF8001068460521ADF80210FFF753FC0EBD0EB50190F4
:205AAC000821ADF8001068460521ADF80210FFF747FC0EBD0EB501900821ADF8001068468D
:205ACC000521ADF80210FFF73BFC0EBD0EB501900821ADF8001068460321ADF80210FFF734
:205AEC002FFC0EBD10B50446A088FDF761FE0028A06014BF00206FF0030010BD044B03F18D
:205B0C001202118808431080986A00F0A9BAC046C81600200449B1F1FF3F07BF0020011C68
:205B2C000868091DFDF7C4BEFFFFFFFF30B502FB01F403FB00444FF00005E2FB005421465C
:205B4C00284630BD04498868401E886003D10869C96800F0DDB97047A4010020012814BFE7
:205B6C00002040F2FF700249086000207047C046000004600448026840680021120040187B
:205B8C0041EB02017047C04608200940034804490068814201D0FEF7B6BC704798CA011077
:205BAC007047282008B50090BDF8020000F004FABDF8000000F03CFA08BD08B5406820B112
:205BCC00006800F00DFA002008BD6FF0020008BD10B50446FFF7B8FD032000F0B9F920466A
:205BEC0000F0C6F910BD0000034808B5416809B10078884708BDC0465027002038B50546D1
:205C0C00FEF760FE002400B1012400202C7138BD0146034840300068C84000F0010070475F
:205C2C008020024070470349086070470149091F086070479C2900204FF0FF31421E12F805
:205C4C00010F491C0028FAD108467047812342EAC112037042F47C4282800023C3707047B2
:205C6C0008B500F051F90248006800F049F908BD8401002000B50A21ADF12C0D684600F07E
:205C8C003BF90BB000BD08B5FFF706FE002814BF8078002008BD10B504466068FDF726FCD0
:205CAC00A060002010BD000002490968416000207047C0463C6300000246024808B59047EC
:205CCC0008BDC0468860000010B500F0FAF8002400B10124204610BD10B5044600F094F8A6
:205CEC006060002010BD08B500F0B6F900F068F9002008BD08B500F0FBF800F0F5F80020BC
:205D0C0008BD08B540680C38FFF7A6FB002008BD10B5044600F074F96060002010BD00680C
:205D2C0001092CBF042000F00300704710B50021044600F0D5F8204610BDD0F80320C31DA9
:205D4C0008461946FDF73ABB08B5022004230090FFF773FC08BD08B5142001230090FFF746
:205D6C006CFC08BD08B5132001230090FFF765FC08BD08B5122001230090FFF75EFC08BD72
:205D8C0082230370818082710023C370704708B5014688684968884708BD08B5406800F050
:205DAC009BF8002008BD08B5406800F091F8002008BD08B54068FFF74FFB002008BD08B555
:205DCC00406800F04DF9002008BDEFF3108072B6704700207047EFF3108062B6704700206B
:205DEC007047D0F8032008460021FDF727BD08B506200090FFF721FC08BD00000148007D9D
:205E0C007047C046A4010020014800797047C046D425002001B9014900F056B8A0010000B9
:205E2C0008B5FCF7D7FCFFF7B1FE08BD014600221020FFF717BC014600220120FFF712BCB9
:205E4C0008B5FFF7CFFB002008BD01468888891DFFF77CB800B1016070473723FFF7C5B916
:205E6C003623FFF7C2B90323FFF7C1BF0023FFF7BCB90823FFF7B9B93123FFF7B6B90623AD
:205E8C00FFF7B3B93023FFF7B0B91023FFF7ADB90A23FFF7AAB90723FFF7A7B91123FFF723
:205EAC00A4B90123FFF7D3B90223FFF7D0B9FEF777B900F099B800F093B800207047002097
:205ECC007047808A70470000DFF800F0F1C50110DFF800F085C20110DFF800F081C2011076
:205EEC00DFF800F0F5B80110DFF800F043C20110DFF800F055C10110DFF800F00DC301109E
:205F0C00DFF800F021B30110DFF800F067BE0110DFF800F04DC20110DFF800F049C2011002
:205F2C00DFF800F0A9C10110DFF800F009C30110DFF800F03DC20110DFF800F08DC2011071
:205F4C00DFF800F095B70110DFF800F081C60110DFF800F045C00110DFF800F02DBF011051
:205F6C00DFF800F079AB0110DFF800F025B10110DFF800F0D1C70110DFF800F079B50110F5
:205F8C00DFF800F0B5C10110DFF800F0ADB50110DFF800F019AE0110DFF800F0D9C101105C
:205FAC00DFF800F055C00110DFF800F0EDB30110DFF800F085C10110DFF800F019C201109F
:205FCC00DFF800F049C10110DFF800F0BDBE0110DFF800F00DA80110DFF800F095C00110C6
:205FEC00DFF800F025C20110DFF800F0E3BF0110DFF800F0C1C20110DFF800F0CDA00110BC
:20600C00DFF800F0D9B60110DFF800F0E5C10110DFF800F029AF0110DFF800F03DC1011009
:20602C00DFF800F009B70110DFF800F0C1C10110DFF800F049BA0110DFF800F0E1B5011019
:20604C00DFF800F0D5C00110DFF800F0D9C20110DFF800F0D5C20110DFF800F0F5C0011058
:10606C00DFF800F041AC0110DFF800F013C10110B3
:20607C0001E0000005000000200300004D530000B1590000B15B0000F93F00009543000035
:20609C00E95400000F5D0000F15A0000BF5D0000353900000141000005590000F94A000083
:2060BC0051420000CB5D0000BB5E0000B35D0000A75D0000015D0000F35C00008D4F000053
:2060DC001D5D0000CB590000B55C0000994C0000575E0000F93A0000254F00004D2A00003D
:2060FC004543000065340000C75B0000BD4A0000795A0000615A000055410000095C0000B1
:20611C00E55C00008F4700004D4700001D4E00004D5E0000A35C0000C14F00008F3F0000C5
:20613C008F3F01008F3F02008F3F0300903F00018F3F0101903F0002903F00038F3F0104BD
:20615C008F3F00058F1208048F3F00048F3F0006513F00007F3F01003F3F04003F3F0200AC
:20617C003F3F01007F3F02007B756E6B6E6F776E2D696E7374616E63652D6E616D657D006C
:20619C007B656D7074792D696E7374616E63652D6E616D657D00C0467B7374617469632D36
:2061BC00696E7374616E63652D6E616D657D00C005010906A101050719E029E7150025015C
:2061DC00750195088102950175088101950575010508190129059102950175039101950645
:2061FC007508150025650507190029658100C00F002803280229042908290018011801282E
:20621C0002280029012903290529002A012A022A032A042A052A0629072900007FC80110C9
:20623C00C9BC011051B2011037C20110BDAD0110C1B10110A936000071BA011069BB011040
:20625C0021C00110EBC70CEEC90CF1CB0CF44B14F74E19FA521DFD58250061310114420268
:20627C00184E031C5A042493053093484944204B6579626F6172640000000000000000007A
:20629C0001000000000000000000000000000000010000008D3E00003144000000000000A0
:2062BC003D0000000000000000000000552B00001D29000000000000C75E0000FD4100005C
:2062DC000000000045B5011099A6011019B801100200000044630000020000005463000003
:2062FC00DD5300005D590000020000006A6300000200000070630000606200000D07110110
:20631C000001192A1000000050000000080000009F3F0000640000008200000020000000D1
:20633C000A000000553000000F182A2A262A272A292A242A502A252A0A18282A232A222A1F
:17635C00322A332A4C2A4A2A4E2A4B2A4D2A12184F2A312A131800FA
:20637800003F00000001000300500028FF3075FFFF0600800CE70000E8019C00DF2A02019E
:20639800063404CF38049FA80501351F0C435E324FF205675F34FB60EA36EF00352C000011
:2063B80053FD2B6915050319C10305FF0212180F180D0948FF4944204B6579626FD76172E2
:2063D800646A9FC3053F67B2010069029F0D997F4102A5800C626EE3EB046300F31C00F46C
:2063F8006C2900552001F10E01F46E00F4620270A540A9001A02F401F57002F4605A047028
:2064180080AB00B81603FB7104F4B5640670C0AD00B52005FB6F5A06F46605F4CC6109F3E8
:206438003409F4558D08FC7209F46808F4B906F455100CF081B300C005F4140DF4A5B906E0
:20645800FC7303F808F1B602FCBBAA09FC7410F45A0FF4BA06FCC4AA0CFC7513F45C0EF4C2
:20647800B70EFC76AA15F45E14F4BB0BFCC811FC77AA0AFCB80DFCBD14F00EC280079F235B
:206498000020010D10818C46FEFF006578706572696DFF656E74616C4D6F64FF656C204EEB
:2064B800756D6265D572C5265301E061015D4669FF726D7761726520527F65766973696F3A
:2064D8006EC81179485780014E536F6674029EFF4D616E7566616374FF75726572204E6180
:2064F8006DA565273EF427B0263984273458AC28B09821FF22283B8529344E5201F4150EEC
:20651800B02A39862B345203F4552A01FC872D344805F43F03FC55882F344A07F45405FC65
:20653800893134555609F46907FC8A33344C0BF4157E09FC8B3534460DF41AB13639D58C97
:206558003734500FF4F80FF04D53FE1270280020B15900007BB15BE03B08020020DAEF6700
:206578004F64C90C04B27F014539EC1DFC355345341E1DF45D253B37EDE1A97000F43B3553
:206598006001F4124A34A0E44930B9E5DC03B00031042600B7209C01107F00CB3DF2F32465
:2065B8001201F0E40670F23DCD01F403B1043163102743B00030BFE51D3652FF0CAD0C4F73
:2065D800FC052A52F36C4FF44894097053F90601F46E5670FC91BCFA4AFC4C0C700710004C
:2065F8000038FF4035002D40014002EF8460005D007000F801FF18A384070083057EFFA4A0
:206618000306E0EA230601FF0088604500C300387F010304010263844CB0EF8438003503EE
:206638003008047FFF17AC526003A302ADBF0163026801FF000004D12712300030CD690489
:206658006008F812CE24330BC20107D0D06F180120D707C0020030FFD62F31C5A716FFE305
:206678006D5CD807302F300175027D7202F5406C01DB2A0100F40EF0C4003101BF021034CD
:20669800700031FFE54D15662773FF00A700FFE89D570175A514FFE24837F0003150003446
:2066B80058AA0034600034680034700034781600342131FFE705FFE03ACD02F152FFE1A806
:2066D8003DF00031B00034B8003495C00034C80034D00034EA0F0A01AF0A1B00B0313014EE
:2066F8007CF003AA8420647C70687CB02CED3002FF4000800300C080094A00700800B00A0F
:2067180000F01BF1CCEEF06D08FFE0780C44F3800600F3EAFFEF0112F229FF1FCA0202043D
:20673800B706120E00100A694A709169483830F270020005192AFFE2E605A000311E7000A6
