:20000000E83F00201158000001CA011001CA011001CA011001CA011001CA011001CA011008
:1C00200001CA011001CA011001CA011001CA011001CA011001CA01103FCA011082
:20003C00F0B52B4D05F12C0158C9ADF11C0D02AA58C20AC94FF0805682E80A0047688468BF
:20005C00D6F8D001C16820688847216821488A6B10408863206840F2F271416497F83C00B6
:20007C0097F83D10C0100DEB80008068084321684863684600F032F8D6F8D001397F46680C
:20009C0005EB8101BA698B68797F206855F821101943BB7F05EB8305AB690B430199B047BD
:2000BC000D490A1F106840F010001060086840F001000860A07B0027FF2802D0E07BFF28B7
:2000DC0000D11FB1086840F44040086007B0F0BDD47500000DF8FFFF30100040DFF800F0E0
:0400FC00F9BF011037
:200100003C000000000000000000000034010000000000000000000001000000000000006D
:1C01200000000000000000000000000001000000000000000800000000000000BA
:20013C00340000000000000000000000680100000000000000000000010000000000000005
:14015C00010000000000000000000000080000000000000086
:2001700030000000000000000000000098010000040000000000000001000000FFFFFFFFA5
:10019000FF00000001000000080000000000000057
:2001A0002C0000000000000000000000C4010000040000000000000001000000FFFFFFFF4D
:0C01C000FFFFFFFF08000000000000002F
:2001CC0034050000E401000099A1011095A70110A5C2011009B2011045B80110000000000B
:0801EC00000000002E000000DD
:2001F400280000000000000000000000140200000000000000000000FFFFFFFF00000000B1
:080214000800000000000000DA
:20021C00300500003002000069C201106DC101101FC2011095BA011000000000000000008E
:04023C00300000008E
:20024000300500005402000075C20110A9B601109DBF011049B601100000000000000000DE
:040260003100000069
:200264002400000000000000000000008002000000000000000000000000000008000000CC
:040284000000000076
:20028800240000000000000000000000A40200000000000000000000000000000800000084
:0402A8000000000052
:2002AC00240000000000000000000000C8020000000000000100000000000000080000003B
:0402CC00000000002E
:2002D00000000000F018002004000000000000000000000020000000700100003000000021
:2002F0001C020000F81800200400000000000000000000000C000000300400001800000044
:200310004002000000190020040000000000000000000000240000004804000018000000C6
:20033000000000000819002004000000000000000000000010000000A00100002C0000008B
:20035000CC01000010190020040000000000000000000000200000006402000024000000C9
:20037000FFFFFFFF1819002004000000000000000000000028000000880200002400000046
:20039000FFFFFFFF20190020040000000000000000000000580000003C010000340000002B
:2003B000FFFFFFFF2819002004000000000000000000000010000000600400001800000040
:2003D000FFFFFFFF301900200400000000000000000000001C000000AC02000024000000B6
:2003F000FFFFFFFF3819002004000000000000000000000038000000F40100002800000027
:20041000FFFFFFFF4019002004000000000000000000000054000000000100003C000000C2
:1804300018000000000000000000000040040000080000000000000050
:1804480018000000000000000000000058040000080000000000000020
:18046000180000000000000000000000700400000800000000000000F0
:0804780002000000E47700001F
:0404800030BF7047D2
:040484000100000073
:0404880000000C0064
:04048C0000000D005F
:040490003200000036
:040494000200000062
:0404980060170020C9
:04049C00000200005A
:0404A0000000000058
:0404A40001CA011078
:0404A8000000000050
:0404AC00000000004C
:0404B0000800000040
:0404B4000000200024
:0404B80028170020E1
:0404BC00010000003B
:0404C0007018002090
:0404C400080000002C
:0404C8000000000030
:0404CC00000000002C
:0404D0000000000028
:0404D4000000000024
:0404D8000000000020
:0404DC00010000001B
:0404E000C017002021
:0404E400060000000E
:0404E800010000000F
:0404EC004C1600208A
:0404F0000000000008
:0404F4000000000004
:0404F80000020000FE
:0404FC0000000000FC
:02050000704742
:020502002A00CD
:020504000100F4
:020506002500CE
:020508003000C1
:02050A003100BE
:02050C002E00BF
:02050E000100EA
:0105100001E9
:0805140003000000B0770000B5
:08051C000000000000000000D7
:0405240000000100D2
:0405280000000300CC
:04052C0087C401106F
:04053000380500008A
:040534003805000086
:0405380000000000BF
:04053C00800000003B
:040540008000000037
:0405440000000000B3
:040548007018002007
:04054C00E16F00005B
:040550002000000087
:040554004A770000E2
:04055800A876000081
:04055C000DC30110BA
:040560001B5B000021
:04056400A766000086
:0405680099C801101D
:04056C009BC8011017
:040570000000000087
:04057400F776000016
:04057800A475000066
:04057C00BC7500004A
:040580008C75000076
:0205840008006D
:0205860009006A
:02058800010070
:02058A0000006F
:01058C00016D
:040590000000000067
:040594000000000063
:04059800000000005F
:04059C00000000005B
:0405A000E16E000008
:0405A4009D5A00005C
:0405A800AD6A000038
:0405AC00ED5D000001
:0405B000F14D000009
:0405B4007D5F000067
:0405B8009146000068
:0405BC00F56B0000DB
:0405C000AD4E00003C
:0405C40011C8011049
:0405C80021C8011035
:0405CC000800000023
:0405D0002400000003
:0405D400180000000B
:0405D80028000000F7
:0405DC0020000000FB
:0405E0003C000000DB
:0405E4000C00000007
:0405E80034000000DB
:2005EC002DE9F84F044640F294214FF0010A41F21000C4F22231C4F20900C0F800A0086844
:20060C0010B908680028FAD046F2000043F6B477C021C4F20C00C5F200070160D7F80080F6
:20062C0057F8041C46F25620C4F20800890806D257F8081C090C41F0F001017001E07221DB
:20064C00017041F2B821C5F200010968C1F304611629A8BF20393A68121789184B1C13F1F9
:20066C000A0FB8BF6FF0090300254FEAD8624FEA986103F01F03C4F2203582F00102002CE8
:20068C0081F0010143F4F853038302F001022A6001F00101A96041F25035C5F200056FD0A5
:2006AC002968C1F38360C1F38F265FEA984164D248F30721002927D54A42B1F1FF3F4FEA18
:2006CC00620215DA760805D1400806BF504656464FF6FF76760801F1010105D1400806BF19
:2006EC00504656464FF6FF76521E01F10101E9D15FEA582208D3760805D1400806BF50464F
:20070C0056464FF6FF76491C002936DD02294FEA610E01F001091EDB4FF6FF7C760046F0A3
:20072C000106B44507D2400040F001000F2892BF56460F206646760046F00106B44507D2DF
:20074C00400040F001000F2892BF56460F206646BEF1010EE2D1B9F1000F0EDD76004FF64D
:20076C00FF7146F00106B14207D2400040F001000F2892BF56460F200E1C46EA004603E0AD
:20078C0040F6FF76C0F20F0606F0F7FC0021002808BF514648F20009C4F20C09D9F800006C
:2007AC0018B9D9F800000028F8D04AF2080BC4F20C0BCBF81060C9F800A009B106F0E3FC5C
:2007CC00002C08BFD82107D029682868C1F3870100F0030041EA002188B2009040F2FF3281
:2007EC0000232C214AF20000C4F20C0004F086FB3CB141F27C30C5F200000068C0F30D055A
:20080C0001E040F2FF3506F0B8FC0021002808BF5146D9F8000018B9D9F800000028F8D0D1
:20082C00CBF81450C9F800A009B106F0ACFC002C04BF0025C6F688050CD041F27430C5F205
:20084C00000001684FF6FC45C0F2FC0501F07C400D40054306F091FC0021002808BF51467E
:20086C00D9F8000018B9D9F800000028F8D0CBF80C50C9F800A009B106F085FC002C04BF69
:20088C0047F28A65C0F2680509D041F27030C5F20000006801040D0C00F47C00054306F06E
:2008AC006CFC0021002808BF5146D9F8000018B9D9F800000028F8D0CBF80850C9F800A03E
:2008CC0009B106F060FC002C33D041F27830C5F20000056857F8042CC5F30341C5F303504C
:2008EC00520816D243F6AC72C5F200021268130510EB237003D4102802DB0F2000E000205F
:20090C00120411EB227103D4102902DB0F2100E0002141EA001105F47F4005F0FF02222CD0
:20092C0040EA014042EA000207D305F08045154304E043F62772C0F27102154606F01DFCE1
:20094C000021002808BF5146D9F8000018B9D9F800000028F8D0CBF80450C9F800A009B14F
:20096C0006F011FC222C07D341F28C30C5F200000068C0F3007000E050464AF240064000D7
:20098C00222CC4F20C0640F0200086F8090107D341F28C30C5F200000068C0F3407000E032
:2009AC00504640F01000202C86F8090138BF00250AD341F29830C5F200000168C1F38455E0
:2009CC00C80C00F44070054306F0D7FB0021002808BF5146D9F8000018B9D9F80000002841
:2009EC00F8D0CBF82050C9F800A009B106F0CBFB202C07D341F29830C5F200000068C0F326
:200A0C00015000E000204000222C40F0600086F80C0107D341F28C30C5F200000068C0F335
:200A2C00C06000E00020C000222C40F0800086F8010107D341F28C30C5F200000068C0F3B1
:200A4C00455000E000208000202C40F47C40A6F89C013CBF48F20005C4F23F050ED341F2B6
:200A6C009830C5F2000000680503A90D890505F47C1500F00F000D4345EA003506F07DFB8C
:200A8C000021002808BF5146D9F8000018B9D9F800000028F8D0CBF80050C9F800A009B112
:200AAC0006F071FB44204FF0880E86F8C50086F8C7E03CB141F28C30C5F200000068C0F379
:200ACC00C14000E0002040F03001C8F3815086F8C81070B3401E06D0401E25D004200221D5
:200AEC0004F0E5FB2FE0504605F048FF04460420214604F0DCFB042005F040FF8442FAD1AC
:200B0C0057F80C4C24F07F4005F0A6FB40F2B410C1F200000068036807214FF06022200E26
:200B2C0098474FF4806030600420032104F0BFFB09E00420514604F0BAFB43F2BD70C0F2C0
:200B4C00860005F089FB41F2B820C5F20000D0F8B4004BF2700242F22C0E46F2000B47F6AF
:200B6C0018014FF0000C41F21009C4F20C02C4F2090E40F2944800F03F0086F8CB0FC4F2DD
:200B8C000C0B1180DEF80000CBF800C0C4F20909C9F800C0C4F26028C8F800A0BDE8F88F35
:200BAC002DE9F04F0120ADF1440DADF81A000827ADF8187006A805F0FBFC00263546CA4C58
:200BCC008DF83E50BDF81C00208266700898A0624FF6FF70E082384605F096FF5FEA00089C
:200BEC000DD00121122206F0A3FA05F09DFF0DF13E010123CD4A0091414605F0B5F89DF8CB
:200C0C003E00DFF82C83324601232070414604F1A80004F08BFD04F1CC0032460223414653
:200C2C0004F084FD04F1F00032460423414604F07DFD042031461022A07004F14A0003F0AB
:200C4C00ABFD04F15A003146102203F0A5FDE562E67126720720A67204F14A02102160729A
:200C6C00022005F013FB04F15A020320102105F00DFB042004F12C02014605F007FB22E01A
:200C8C006578228B618BA38BE08B062D1BD1062A19DBB2F5486F16DA062914DBB1F5486F2D
:200CAC0011DAB3F5FA7F0EDA0A280CDBB0F5486F09DAE08322836183A383012003F01AFE9E
:200CCC00BD4806F0E7FA0A20ADF80A00ADF808704FF0FF35039502A805F06AFC002840F0CE
:200CEC00818130460C90ADF824700925ADF8265009A805F05DFCDDF82C900028CDF8309015
:200D0C0040F07081BDF82800102840F05F81208ABDF82A10884240F059814D4628884FF68C
:200D2C00FF71814200F04A812B78A23B00F02D812E3B40F04B81A878B046002800F0FA808E
:200D4C00801E00F0D380401E012840F2A780801E5DD0401E24D0401E03D0083800F00681C1
:200D6C0009E1AD4806F096FA0C994878002840F002810846C1882184018961844089A0842A
:200D8C008D4806F061F9002840F0F580656B002D00F0F1802B68208C618CA28C984715E1C8
:200DAC00B5F804A00A2005F0AFFE5FEA00080AD00121152206F0BCF9A8F808A005F0B4FEEC
:200DCC00414605F0EFFCB5483146062203F0E4FC26846684A684A8796073774806F05AFA76
:200DEC008D4806F057FA4FF001084FF6FF702379E0824BB9A879082814BF04200520607090
:200E0C00404606F02BF8B6E003206070B3E06B78E27A002B3CD1A149281D03680B60808887
:200E2C008880062363706889E082E8892084288A6084688AA084E878012A207308D11F2058
:200E4C0004F066FE4FF47A7141435B4805F03CF895F803B0B5F80AA0142005F055FE5FEA54
:200E6C00000800F08B800121142206F061F988F808B02D1DC8F80C50A8F810A0042088F829
:200E8C00120005F051FE7E4A414604F04FFF75E06878312868D1E67004201EE06878002818
:200EAC0062D1A878A18A6278032811D0E078257921B9012814BF2671E67005E0054303D009
:200ECC00724805F001F86278072AE5D1062004E0062A06D0E07810B9032060704EE0022029
:200EEC00FBE70720F9E7C04610060020687800283AD1E878A17988B96078022813D00728DF
:200F0C0011D0062802D1207901280CD15F4806F09BF840B9012005F0A1FF04E0604A404651
:200F2C0004F0EEF968706878F0B924E02F710000696E00006878B8B9554A0220102105F0B6
:200F4C00BFF9544A0320102105F0BAF95548ED1C29680160AB888380534A0125284661795A
:200F6C00657004F0CDF948B1677007E0A888454A102105F040FAB8F1010F27D1206B28B3E9
:200F8C00016819B36078884720E0687913281DD12889012808D1A07B022805D11E4806F035
:200FAC0079F904F033FB11E0052004F0B1FD0146194804F089FF09E0DC0600206888C00B0F
:200FCC0004D3354A0420014605F07AF90C9848B1ADF810700320ADF81200CDF8149004A82B
:200FEC0005F0E6FA608A2579E17842082ED320F0010055EA0103608228D07DB92B49E079B3
:20100C008DF83400257A8DF835500A680DF136031A608988998004E00007002003208DF862
:20102C003400607AA57A184A8DF83C0006218DF83D500DA804F008FC216B30B1677021B158
:20104C00086810B1096838468847608A810806D320F002006082304603F04CFC608AC108F1
:20106C00FFF431AE20F00400A57B6082681E3FF407AE401E7FF427AE04F0C8FA23E6C046A3
:20108C00137100007572000069720000B80600205A0600206A0600203C0600205406002034
:2010AC0099060020480600207A0600204E0600202DE9F04F08260127ADF14C0DADF8186024
:2010CC0006A8ADF81A7005F073FA924DBDF81C0068800898686005F1140005F0FFFF0A219D
:2010EC00A8601F2005F01CF83046ADF83A000024ADF83C00B9468DF842903946ADF8384048
:20110C000DF142028DF843903220ADF83E004FF4FA70ADF8400040F2053001F0A9F940F236
:20112C00063002210EAA01F0A3F940F207300D2105F12C0201F09CF94FF442700E2105F1AA
:20114C00390201F095F94FF4447039460DF1430201F08EF940F2113002210DF13A0201F0D7
:20116C0087F940F2123002210FAA01F081F940F2133002210DF13E0201F07AF94FF44570F6
:20118C00022110AA01F074F96349032004F092FDA24603208DF846004FF00208CDF834A0FE
:2011AC004C468DF8448004218DF845A00DAA8DF847404FF4816004F099FF4FF48060494694
:2011CC0011AA04F093FF40F2024049460DF1450204F08CFF40F2034049460DF1460204F0BD
:2011EC0085FF40F2064049460DF1470204F07EFFC448062101704078062801DA03F0B4FB99
:20120C0005F078FAC04CDFF808B30028E06000F0888005F06FFA04F10C090028D9F80010EC
:20122C0020617BD005F066FA606128B9D9F8000005F0D8FD206972E0E06805F055FC206952
:20124C0005F052FC606905F04FFCB04A04F16C001D2104F07BFCD4F88810404604F058FB01
:20126C006179A27984F82010B4F8360184F8212004F11808A8F8000004F59E73E361E379C2
:20128C0084F82C3084F8227094F808C084F82DC0B4F87601A0845046A06284F8381084F880
:2012AC002E7084F83920B4F8A621228604F5D672626384F8443084F83A0084F845C0B4F8BB
:2012CC00D621A287206484F8507084F8517084F84600B4F8F631A4F8483004F5FE72E2648D
:2012EC00637A84F85C3084F85200A27A84F85D20B4F82632A4F8543004F16001A065032078
:20130C0084F85E7004F004FB5C46C4F818800720207106E0E00C002051720000084605F0DE
:20132C0061FDEA685F4605F1200005F10C04F8613C622AB1774907F16400042304F0F6F938
:20134C00754C607828BB94F8109094F8028024371820276305F0D8FB071C1AD0042152461C
:20136C0005F024FE484605F02EFB387287F8098087F80AA004F14A00F86004F15A033B613E
:20138C0004F12C027A6105F0CFFB644A394604F0CDFC0C2005F0B8FB071C0AD00121042281
:2013AC0005F0C6FE5E48B86005F0BEFB394605F0F9F95C4C04F1180004F10C0103F000F8F4
:2013CC005949A06005F02FFF584F4FF4E0213A4605F014FAA0684FF4E0213A4605F00EFA05
:2013EC00534FA0684FF0C0513A4605F007FAA0684FF0C0513A4605F001FA4E49C82253468F
:20140C0004F1240004F092F94B484FF003084FF005094FF0090B60600A20ADF80200ADF875
:20142C0000604FF0FF370197684605F0C1F80028F2D1CDF830A0ADF82460ADF826B009A802
:20144C0005F0B6F80B9C0C94D8B9BDF8280010280DD16888BDF82A10884208D121460878A9
:20146C00B02804D101F10800097905F0F9FB0C9838B1ADF80860ADF80A80039402A805F04F
:20148C0097F8A86805F0F4FF0028C5D1A86805F07BFB071CF5D0388801282AD1BC78A008D8
:2014AC0005D3522005F054F8504605F051F8E00805D3512005F04CF8504605F049F8200962
:2014CC0005D3502005F044F8504605F041F8600905D34F2005F03CF8504605F039F86008C6
:2014EC0007D3287828B1012005F05BFA504605F058FAADF81060ADF81290059704A805F0AC
:20150C0057F8BEE7A4140020FC0F0020987700007C090020796D000010060020577200002F
:20152C00CC77000098160020A9660000FF000580FF000010556F00000D5C00002DE9F04F6A
:20154C0009AF0C4616461D46ADF13C0D089039880996171CADF8181008BF002000F001827D
:20156C004FF0000B7F1CCDF838B0ECE1252E40F0D78139787F1C09972D291CBF0E98ADF8BD
:20158C00060005D10121781CADF8061039780990302918BF0E9805D109990A460120521C7B
:2015AC00097809920E9A2A2984464FF0FF36009224D133462A6802930999CDF810C0D21C7E
:2015CC000B4622F00302121D5B1C2A6052F8042C09780993002A009218D50123ADF8063028
:2015EC005242009212E0009F099A7B0003EBC7035B18571C303B099711780093302901DB10
:20160C003A29F0DBCDF810C0324602922E292BD1099A11782A2902F10102099211D1296819
:20162C000E9BC91C029321F00301091D296051F8046C002E48BF1E1C1178521C3346099284
:20164C0011E00E9E33460AE0099A730003EBC60676181346303E5B1C1178099333463029EB
:20166C0001DB3A29F0DB029308B1009804906C2905D04C291CBF0E9AADF8042007D1099935
:20168C0001230A46ADF80430521C097809920DF1380C0AAFCDF814C00E9A0797642903926B
:2016AC0000F0AE80692900F0AB80BDF81830752979D0782975D06F2971D070294AD0632971
:2016CC003AD073291CD0099F012CA7F10107099714D9A7480068B6F1FF3F04D0B44284BF21
:2016EC00761C029600D80294844609A92A466B4608A8E047014603988B44BBE01046BAE096
:20170C002868099FC01C20F00300001D286050F8040C002B7F1C014608B993A001460791B9
:20172C0005F03AFC0390B6F1FF3F00F0A580B042C4BF301C03909FE02868C01C20F0030093
:20174C00001D286010F8041C8DF828100127039738468FE0082128680491C01C20F0030007
:20176C00001D286050F8047C16460EA8814A07F00F01515C3F0906F1010600F8011DF5D13D
:20178C00082E06DAC6F108063021761E00F8011DFAD14021461E00F8011C604667E00821AC
:2017AC0002E0102100E00A212A68D21C22F00302121D2A6052F8048CB042BCBF301C049088
:2017CC000E9E0EAF8A4681464046514604F000F96848405CB8FBFAF8B8F1000F06F101064C
:2017EC0007F8010DF0D1B14506DDA9EB06003021401E07F8011DFAD105980797C01B38E0D7
:20180C002968C91C21F00301091D296051F8041CB042BCBF301C04900EAE82460F460029CA
:20182C0058BF914604D57F42A0F1010A4FF02D09904638460A2104F0CBF84E48405C0A236E
:20184C00B7FBF3F7002F08F1010806F8010DF0D1C24506DDAAEB08003021401E06F8011D90
:20186C00FAD1B9F1000F18BF06F8019D05980796801B0390099F7F1CBDF806600099091AE3
:20188C000091BEB911E0012C0DD90898641E30B905F0F2FB38B1202005F0E6FB03E0202120
:2018AC000170461C08960BF1010B0098401E0090E9D503980646401E0390D6B9BDF806003D
:2018CC00002840D00098401E00903CD4012C0DD90898641E30B905F0CFFB38B1202005F033
:2018EC00C3FB03E020210170461C08960BF1010BE8E707994A1C07920E78012C0DD9089BD7
:20190C00641E3BB905F0B8FB10B1304605F0ACFB039802E01E705B1C08930BF1010BC9E7F5
:20192C00012C07F101070CD90898641E30B905F0A3FB30B1304605F097FB02E00670401C59
:20194C0008900BF1010B17F8016C0998002E00F1010009907FF40AAE089808B10E99017069
:20196C0058460FB0BDE8F08F286E756C6C2900C0207800005E7700002DE9F84FCF4ED04C0B
:20198C0006F12D07CB4DDFF83083D7F8EF1F6368D7F8F30F8843C7F8F30F002BC7F8FF1F61
:2019AC0000F090816688012B00F04A81DFF86CA3DFF86CB3DFF86C93022B74D0032B40F0C4
:2019CC00DA810026A06857F8312C66600028A2F5C062B8BF404211460029B8BF49428842DA
:2019EC002EDA002A54BF02206FF00100A16900EB4200032290FBF2F00918A161E368606914
:201A0C0098420BD0B1F1100248BF52422069103848BF40428242B8BF88B209DB98B2009029
:201A2C00D64830214FF47F42082303F067FA208A0090D24804214FF4F802122303F05EFA72
:201A4C002846066001688908FCD206605546012746600E202F6001F0EDFFC9480468EFF316
:201A6C00118584F3118859460820B0FA80F00A1AD07F431E0128D37704D14A46106820F09F
:201A8C000800106085F31188EFF3118384F311880420B0FA80F0091AC87F421E0128CA77B9
:201AAC0040F0CA80C3E057F8316CB6F5C06F00F08B804FF00309C4F8049005F05EFBB3465A
:201ACC00002600B90126554633462D1F2E68002EFCD0AC4A0126D2F82CA02E600BB105F012
:201AEC0052FBCAF30720E06005F047FB002300B933461A462B68002BFCD0A248D0F800A0A1
:201B0C002E600AB105F03FFBCAF38441ABF5C0602161BBF5C06FA060B4BF6FF001030223A3
:201B2C00E26803EB400393FBF9F00918104602290FDB1E290BDB3F28B9BF521C401C3F22E4
:201B4C00101C62613029B4BF10391F210DE060610BE010F13F0FACBF401E6FF03F00606125
:201B6C0011F1100FACBF10310021A16180B2009082484FF47F420823302103F0BFF97F48EB
:201B8C00009604214FF40032112303F0B7F9208B00907A4804214FF4F802122303F0AEF904
:201BAC00002547F8399C4446256020688008FCD27248294660220523009103F09FF926607E
:201BCC0020688008FCD367E0002161602846016002689208FCD201605546012741600E205D
:201BEC002F6001F027FF66480468EFF3118584F3118859460820B0FA80F00A1AD07F431EDC
:201C0C000128D37704D14A46106820F00800106085F31188EFF3118384F311880420B0FA7B
:201C2C0080F0091AC87F421E0128CA7704D14A46106820F00400106083F31188BDE8F88F58
:201C4C0057F8312C02214BF2F52061605043000A36B94D49096821F07F410918480801E0E0
:201C6C00002161800835010C2860012669600323AE60444647F8393C002525602068800868
:201C8C00FCD23E48294660220523009103F036F9266020688008FCD347F8216C47F8395C13
:201CAC000820C7F8FF0FC7F8F30F47F8396CBDE8F88FC04634600C4038600C400C400C40F0
:201CCC0020180020314800680068014620208847B24641F61D564FF002090F2000214FF482
:201CEC00C072CAF800000723CAF804602348CDF8009003F003F9464628460125056056F812
:201D0C00040C8008FBD32088CAF8105001280BD00020294603F078F94D462BE004800C4022
:201D2C00501900201C15002040464FF000080C30C0F80080032347F8393CC6F800803068CC
:201D4C008008FCD20D48CDF8009041466022052303F0D4F8356030688008FCD3202047F884
:201D6C00210C47F8398C0826C7F8FF6FC7F8F36F47F8395C6560BDE8F88FC04600A00C40F3
:201D8C001078000004A00C4010200940A00100102DE9F04F4FF0080A0125ADF1540DADF825
:201DAC0018A006A8ADF81A5004F002FCAF4CBDF81C0020810898206104F1340005F08EF97D
:201DCC0043F698220223BD49606104F1400003F0ADFC4FF0000840F20D40294613AA8DF8D0
:201DEC004C8004F083F9032004F084FA042004F081FAB348B34A132103F0A8FE0427B24E83
:201E0C00ADF824A03078ADF8267080000A9009A804F0CEFB00280CBF0B984046BF49486115
:201E2C0038B104F061FEBD48BD4A0621183003F08DFE3046ADF830A00078ADF83270800037
:201E4C000D900CA804F0B4FB00280CBF0E984046C4498B46886038B104F046FEC24A0BF174
:201E6C000C00062103F072FEC14FC048AB49CBF80070464688600A20ADF80200ADF800A0F7
:201E8C004FF0FF370197684604F092FB002840F0078130461290ADF83CA00927ADF83E70FE
:201EAC000FA804F085FB119F0028129740F0F280BDF8400010280DD12089BDF84210884243
:201ECC0008D139460878B02804D101F10800097904F0C6FE1298002800F0DC80ADF808A0D2
:201EEC000320ADF80A00039702A804F061FBD1E0606904F049FE5FEA000800F0CB800746E2
:201F0C00E3693888401E69D00F3857D0103842D0203840F0BC80D8F81000BB780078002BD0
:201F2C002AD0012B23D0022B27D130BBA089DBF808106570814605F05FF840081DD34846AA
:201F4C002946324604F07EFE0590B0B18B49ADF812500988ADF81010067004A9484604F052
:201F6C00F9FE50B104A81B2104F07AFE05E0A670E07000B9657000E0A570E079A1798842FE
:201F8C0018D063786089ABB140F008006081206905F06AFA0EE03869C18843B1D3F808C0D3
:201FAC00BCF1000F03D0027A437AE04702E0084604F09EFA386904F009FF68E0B9782078BC
:201FCC00012905D0022962D16B4805F063F95EE006285CD1684805F05BF958E03A48BF7811
:201FEC00C08A062F44D0207806284FD1236A23B11B6813B1624805F04DF95E4805706670DE
:20200C006048A67031460B2202F0C6FB02F0A4FF20B3206A0079800820D306204FF4C86127
:20202C0004F07EF807204FF4C86104F079F82846314604F075F8304629460DF14E028DF834
:20204C004E0040F20D3000F013FA8DF84E5040F2053029460DF14E0200F00AFAE078657151
:20206C00042813D103F034FDE6700FE07C090020A08131468DF84D1066700DF14D0240F267
:20208C000530294600F0F4F904F07CFE2770404604F09CFE606905F0EBF900283FF428AFC6
:2020AC0060892178C20815D320F004000629608110D1A07850B903F0A9FA09E0796D000055
:2020CC00DC1200208C7700001006002004F05AFE60892178820812D320F00200062960814E
:2020EC000DD103F00DFF0D494978814203DD0B49487002F039FC204805F0CAF860890109F8
:20210C00FFF4B9AE20F0080067786081002F3FF4B2AEE179A079814219D003E0A4140020E5
:20212C00807700000B21401C0A46174690FBF1F15143154A401AA071784383181746597818
:20214C009A78385CDB1C02F047FCE179A07981423FF491AE608940F008006081206905F079
:20216C0083F988E68C150020A4770000E971000001050000FD0F0020BC090020F2150020F5
:20218C00E0090020A4090020540A00202DE9F04F8146B9F1010FADF1140D40F04981A64862
:2021AC000068EFF3118280F31188AE4D2879012818BF012002D102210020297182F31188AF
:2021CC00012800F0338105F04BF90290A6480668A81905F04DF900242746009406EB0508E0
:2021EC000197A8B9404605F037F90646B068400808D3F0683169024601209047C0B20128DB
:20220C0000F00D81304605F023F90646B045EDD1002F40F0088105F017F9039004978748C4
:20222C000760012004F0AAFB012804D1384603F0EFFB01200090824F386880680146204661
:20224C00884780480068B9F1010F40F08A80874E0A36F37903B10124B3790BB144F0020403
:20226C0073790BB144F00404DFF8DCB173782BB1B86A006B59460246C88D904733782BB11C
:20228C00B86A006B59460246488D90476F4901200860B86A8069014644F0200088476C4AA6
:2022AC002968DFF8B4A1106840F001001060480812D2684804F00BFF8146B9F1040FF8D00E
:2022CC005146086820F003000860B86C4068024660480321904701E001200190049800F09A
:2022EC00E3FAB86A5749806B09688047019850B9B86C40680246574849469047514608684E
:20230C0040F00300086038688068014601208847524908688009FCD30098012802D101203F
:20232C0003F076FBB86A4069014620468847B86A406B0146204688470128F8D174782CB1E2
:20234C00B86AC06A59460246C88D9047307828B1B86AC06A59460246488D90473B4901200D
:20236C0008603B49032208682A7120F001000860404605F07DF8049900B101214FF0010913
:20238C00081C19D1404605F067F844460646B068C00807D3F0683169024604209047C0B212
:2023AC00012806D0304605F053F80646B442EED102E02B48006880472048224FC0F80090B6
:2023CC00386804F0E0FE404605F052F8049FD0B9404605F041F846460446A068000907D319
:2023EC00E0682169024608209047C0B2012806D0204605F02DF80446A642EED103E0184893
:20240C0000688047022748462871039805F018F802F056FC029805F00FF8384609E01048F8
:20242C0000688047022701202871F3E7062000E0022005B0BDE8F08F107800000C40094086
:20244C00900100102C20094040750000282008600C200840004003402422084014100940E3
:20246C00047800001C1500200078000088180020F8B5A0F2013517460E46022D40F214812F
:20248C008B4A8A492D1F0F2D04D9143D4BD0AD1E1CD011E0DFE815F0C300BD00F500E500E9
:2024AC00B500AD000801A4009C0010001000940089007A006F006100272880F2F580022E78
:2024CC0040F0F280398803F02BFEF8BD012E40F0EB800D46E878012800F0E6800A463878C0
:2024EC001179107181B9002800F0DE805078012800F0A980042800F0A680062800F0A38088
:20250C00052800F0A080F8BD3878002840F0CC805078032800F0A280072800F09F800528F9
:20252C0000F09C80F8BD012E40F0BE803878012840F0BA800D4605F1F00004F085FD002817
:20254C0040F0B280002002F0D5F9002840F0AC802846CC3004F09EFEF8BD022E40F0A48076
:20256C0038880A28C0F2A080B0F5486F00F39C8015461E3517E0022E40F096803888B0F5A0
:20258C00FA7F80F2918015461C350CE0022E40F08B8038880628C0F28780B0F5486F00F33A
:2025AC00838015461A352880F8BD022E7CD13888062879DBB0F5486F76DC0D461835F2E71F
:2025CC00012E71D1387802286EDA0D460B350EE0012E69D13878042866DA0D460A3506E0DE
:2025EC00012E61D1387808285EDA0D4609352870F8BD012E58D13878042855DA0D46083585
:20260C00F5E7012E50D1387804284DDC0D46ED1DEDE7022E48D138880D461435C3E7012ECE
:20262C0042D10D46287901283ED00A463878D178D07061B9002837D05078012803D004288E
:20264C0018BF052830D1012004F008FCF8BD387850BB5078022818BF052825D104F0C4FC40
:20266C00F8BD0D4605F189041F220021204602F093F839463246204601F0C0FD0020AE7134
:20268C000EE00D4605F16A041F220021204602F083F839463246204601F0B0FD01206E7159
:2026AC003146224602F02CFEF8BDC04610060020100600202DE9F0411C4615468C4208BF53
:2026CC00854282BF00230022E5E0002C08BF002D0AD100290EBF00286FF000006FF0000104
:2026EC0000F0E1F8BDE8F0815FF000085FF0000E002C08BF8D429CBF2C1C0025070C47EA6D
:20270C0001470E0CB44208BFBD429EBF5FEA044444EA15445FEA0545070A47EA01670E0AC5
:20272C00B44208BFBD429EBF5FEA042444EA15645FEA0525470847EAC1774E08B44208BF1E
:20274C00BD4200F29380870847EA81778E08B44208BFBD427CD8C70847EA4177CE08B44287
:20276C0008BFBD4266D8070947EA01770E09B44208BFBD4250D8470947EAC1674E09B4429F
:20278C0008BFBD423AD8870947EA81678E09B44208BFBD4224D8C70947EA4167CE09B442E7
:2027AC0008BFBD420DD8E60146EA5566EF01B14208BFB84201D3C01BB14158EB08085EEBAF
:2027CC000E0EA60146EA95664FEA8517B14208BFB84201D3C01BB14158EB08084EEB0E0E2D
:2027EC00660146EAD5666F01B14208BFB84201D3C01BB14158EB08084EEB0E0E260146EA37
:20280C0015762F01B14208BFB84201D3C01BB14158EB08085EEB0E0EE60046EA5576EF0014
:20282C00B14208BFB84201D3C01BB14158EB08084EEB0E0EA60046EA9576AF00B14208BF45
:20284C00B84201D3C01BB14158EB08084EEB0E0E660046EAD5766F00B14208BFB84201D351
:20286C00C01BB14158EB08085EEB0E0EA14208BFA84201D3401BA14158EB08085EEB0E0E6A
:20288C00A34208BFAA423EBF2D0A45EA0465240A89D3734642461E4617460B46024631462C
:2028AC003846BDE8F0817047F8B507460020C4F209000068800880F0CE8003F0D8FE42F23D
:2028CC002421C4F208010A68002112F0030F18BF0121D20828BF41F00201002F18BF41F01C
:2028EC00040142F6F866C2F2000696F90720821A052A04DAB2798A4208BFB28875D041F2A8
:20290C009C340F28A0F10F02C5F2000429DB02EB0012F03A1712072F88BF0727BC46BCF197
:20292C00060F88BF4FF0060C54F82CE00423254603EB8C03EB585FEAD10CA3EB0E0303F07C
:20294C00FF0524BFC3F3072C65445FEA910C24BFC3F3074C65445FEA510C04D305EB136592
:20296C0001E000252F4654F827405FEAD10C04F0FF0324BFC4F3072C63445FEA910C24BFC4
:20298C00C4F3074C63445FEA510C28BF03EB1463A2EB0722ACB2002554438034082C88BF89
:2029AC00012543F6B472C5F200021468126834274FF4D07C24175B1902F0FF0207FB14C471
:2029CC0054434FF6FF72B4FBF3F39A4238BF131C80289AB2B28005DA10F1800F03DA6FF036
:2029EC007F0000E07F20F071B17142F20800C4F2090001681F2A4FF00000316015D340F2B3
:202A0C00FF13934213D219465208401C93420ED25208401C93420AD25208401C914206D24C
:202A2C005208401C9142EFD301E01F22B2800F3A4FF600714FF0350E1209C8F2A401C4F23A
:202A4C00090E40EAC2000143CEF8FB1F4FF0000CCEF8FFCFF8BD42F6FE624FF6FD5008215C
:202A6C0041F2300EC2F20002C0F2A4001170C4F2090ECEF80000F8BD2DE9F04FADF15C0DA8
:202A8C0003F01AFB0027012808D156480068C0F30240022802DC022808BF012752490868D2
:202AAC00C0F38150012806D151F80C0C0126010E06FA01F007434D484D4E00783068C0F3C1
:202ACC00460603F0F9FA012808BF761C494C26603EB1FF2204F140013046401E01F8012BDC
:202AEC00FBD1DFF81491D9F800004FF0000800F0FF01FF2918D04D4600F0FF03414601223B
:202B0C009E426CD902FA03F31F4268D100F0FF00201880F8401055F8040F43EA0808491C07
:202B2C0000F0FF03FF2BEBD1092000F0AFFEC4F804900DA800212422082304F079FC4FF0AC
:202B4C00010A04F124000DAA8DF84CA0514604F06BFC236833B300262546B34660350AFA97
:202B6C0006F0074218D118EA000F04BF06F0FF0141F4C04104D0301990F8400059F82010BB
:202B8C001E4801F09BF9F0B24FF0FF3104F084F82368C5F800B001E004202860761C2D1D5C
:202BAC009E42DCD301A800213022082304F038FC0020102101AB124A009004F1080004F031
:202BCC002BFC104951F80D0C20F4F85040F4005041F80D0C5746C1F8FF7F0B4E376017B04A
:202BEC00BDE8F08F94120050B43F0050092F002080120840602C002058180020007FC76751
:202C0C00F15600000D300940080009402DE9F04304466568A6680F46ADF15C0D04F0F8FBD9
:202C2C002978012903D104F0EFFB002098E04FF0010985F8009004F0E7FB1FB90DA804F0C6
:202C4C0001F90DAF387868707878A87078686860B868A860F868E86038692861387D28752E
:202C6C00787D6875B87DA875B869A861387F2877787F6877B87FA8774FF00008C5F82080D4
:202C8C00C5F8308047466F626F63AF62AF6385F82C70102385F83C3085F82D7085F83D70EF
:202CAC00307A00F0F3FD2046FDF7C2F9204601F057FA70B92C480068C16830688847307A82
:202CCC0000F0B8FE04F0A4FB2F7004F09DFB3C4645E001A839463022082304F0A1FB06940E
:202CEC00CDF80080214A716805F1580001AB04F093FB01A839462422082304F099FB8DF81D
:202D0C001C90A87838B905F17400394601AA04F08BFB17482861687838B905F1900039461E
:202D2C0001AA04F081FB1348E86001A839462422082304F065FB0697ADF814700E49079424
:202D4C0005F1AC000A2201AB04F056FB0B4ACDF8008005F144000421234603F0E5FA20460E
:202D6C0017B0BDE8F083C046D001001021350000237200001B7200005D4400006570000093
:202D8C0041F21C302DE99041C5F200000268B2F1FF3F08BF002203F08FF9002840F08B80F8
:202DAC0041F2183041F2A001C5F20000C5F200010068D1F80080070F08F0FF08B8F1800F4B
:202DCC0028BF4FF0000803F077F94FF0FF3190B1401E07D0401E1DD1E7B908F10A084FFA31
:202DEC0088F117E0381C66D0801E13D108F114084FFA88F10EE03846401E0AD0801E5AD008
:202E0C00001F58D0401E05D108F116084FFA88F100E00A2116294EDB40F2844446F25C0150
:202E2C00002342F2082E012040F2801CC4F26024C4F20C012360C4F2043E0860C4F2283C10
:202E4C00CEF80000DCF8000038B140F20010C4F2203000681046FDF7C3FB44F20402C4F239
:202E6C0003021068052142F24803C2F20001C4F2030320F003000143116019684FF0000E1D
:202E8C00C0F2391E6FF35B414EEA01000421C4F2090118600868C0F3013001280CD10A68BD
:202EAC004FF6FF70CFF6FC40104040F400320A600860BDE89081FEE7BDE890812DE9FE4321
:202ECC000AAFADF808303B8815460E46002B18BF0B2040F08680726851781778DFF80891D9
:202EEC00002407EB012742F64D21B94264D01B39B94261D01A31B9424AD042F60218B84584
:202F0C0016D0891CB94268D1BDF80800012851D1297831F001004BD1F0680170287800286E
:202F2C000CBF02200320494609684968884754E00093BDF8083031462A4601F0F2FE041C59
:202F4C004ED16978287800EB012C71894F46A7F11C0006798769002E3FD07B6813B15A8934
:202F6C00914204D0761E07F10C07F6D135E0002F33D0BCF1010F0CBF02230323C06902AA49
:202F8C00066800920195797A387A4246B04724E0BDF8080001280DD1287830F0010107D109
:202FAC00494609684968224600B101221046BDE7802415E00D2413E0708903F0B1FA60B1B9
:202FCC004946096802AB0E6800930195027A417A234610463A46B04704460CB903F0D2FE5A
:202FEC002046BDE8FE83C046980900202DE9FE43002A894607464CBF47F6FF74141C002FBB
:20300C0008BF00205FD03B88002B30D03D4800882146984229DA3C4A1088984215DA3B4AE3
:20302C00168826B929A2484602F0A4FA1BE03848019100260268CDF80090364902961546BA
:20304C0018466A46A847029D12E03348026800E012681AB110898342FAD100E000225268E7
:20306C00484602F087FA054602E01DA2DBE70025601B002826DD388828B1611B48461BA26A
:20308C0002F078FA2D18B868E0B1D7F80480661BB8F1000F0DD0404603F07EFF401DB0421C
:2030AC0007DC611B484612A2434602F063FA2D18661B122E06DBBB68611B48460EA202F0D5
:2030CC0059FA2D182846BDE8FE83C0467B6D6F64756C652D726F70653A25787D00C046C0B4
:2030EC007B6D6F64756C652325647D003A2000C0222573222C2000C06C696E652025643A0D
:20310C002000C04658780000567800008A050000247800009D630000481900202DE9F043EA
:20312C000646ADF11C0D04F063F903F025FB4FF000090546CDF80C9004F038F830F00100D4
:20314C0002D00398A84202D16FF0040066E070684C4658B1B0F1FF3F05D004A903F040FA8F
:20316C0030B1804659E04FF0FF3000E02046049004F03AF904994FF00108471802E00A467E
:20318C003BE004936868049904F02AF900282DD0684601F091FFD8B9BDF8040005A902F0AF
:2031AC00F3FF88B9B368BDF81400BDF80610029A984748B1BDF81400BDF80670B081029BEB
:2031CC00F781C846336111E0029903A803F0A8FA0498641CB0F1FF3FD4D00028D2D004F0A0
:2031EC0003F93B1A02D004989842CAD2039F03F07DFD05F1080647B13A4652F80C1C002968
:20320C00BDD1316842F80C1C376003F07BFE24B1686804F029F9641EFAD1404607B0BDE82C
:20322C00F08370472DE9F04707467E68D7F8089090460C4604F0ECF88246B06A002865D131
:20324C0006F1AC0004F0C8F80025F57734625046756204F0D9F804F0DBF8314C824620780E
:20326C00012804D0042002F067FE01202070504604F0CAF82949086840F4807008603846E1
:20328C00414602F091FEB062C0B93846414602F0D7F8B078D0B9B16806F1740004F0A0F808
:2032AC00E8B9B5621020F0774946304600F05EFE04F0AEF88246207840B323E0D9F8001091
:2032CC00886B40F020008863B07810B12846BDE8F087B16806F1740004F082F810B1706AB4
:2032EC00BDE8F0873846414602F0AAF81020B5624946F077304600F039FE04F089F88246F6
:20330C00207818B1042002F04DFD2570504604F07BF84FF0FF30BDE8F087C046301000403E
:20332C00082F00202DE9F04390460A68D8F800401678814600271D463846ADF1140D531CFE
:20334C00242E0B6053D112F8016F5B1C4C2E0B600ED1AA68E41C24F00304241D54F8040C01
:20336C00494600F05BF82968EF600127091A2960462E1AD1E41C24F00304241D54F8040CA4
:20338C00E41C029024F00304241D54F8040C002749460390AA68ADF8047001A8FFF726FEA0
:2033AC002968EF600127091A2960532E1FD1E41C24F00304241D54F8040CE861C8F80040DB
:2033CC00288B0090A968EA69D9F800004346FEF7B5F8D9F80040002714B12418C9F8004004
:2033EC002968D8F80040091AEF6001272960662E0AD12B8B23B9E41D24F00704083403E0BD
:20340C00E41C24F00304241D1FB9E9690E700127EF60C8F8004005B0BDE8F083FEB5374B23
:20342C0005461888AB8814460F4698422ADA34480088984216DA3348008888B10097002C08
:20344C0054BF111C47F6FF712F4800680191002102912E496A4606461846B047029E17E0EF
:20346C001BA210E02A48006800E0006818B101898B42FAD100E0002042682146384602F005
:20348C0079F804E017A22146384602F073F80646002C02D4A01B0A2806DB2B68A11B3846E7
:2034AC0013A202F067F83618A88978B1002C06D4A86803F071FDA11B401D884206DCAB6803
:2034CC00A11B38460BA202F055F836183046FEBD7B6D6F64756C652D726F70653A25787D03
:2034EC0000C046C07B6D6F64756C652325647D00257000C028272573272900C058780000B4
:20350C00567800008A050000247800009D630000481900202DE9F8430746D7F80880D8F860
:20352C0000007D68066C16F4F06F466424D1F00911D270094FD395F83C00AC6B401E8442A5
:20354C0088BF041C3846214602F0D2FBA86B001BA8630DD03FE0A96B384602F0C9FB95F84A
:20356C002D10A86311B9002835D101E00020A863384602F023F92EE0F00A0ED3D8F80000AE
:20358C00002144684160A96B04F00F04202988BF2021384602F0ACFB19E04FF0000902E08B
:2035AC00A86B401EA863A86B88B13846012102F09FFBD8F80000446814F00F04C0F804902C
:2035CC00EED0286B401E2863686B401E6863EC77384601F0D9FAB0090BD3A96A49B10E460C
:2035EC00384602F0E1FCA86218B93846311D01F027FFBDE8F8837047FEB54D681E461446B7
:20360C0008AF68783B88BA882D78002705EB002513BB42F64D20A84208D02B38A84205D0CA
:20362C001030A84202D0401CA8421BD1488902F077FF2849D1F800C0002808BF378042D065
:20364C0000960194027A417ADCF80040012310462A46A047074636E042F64B20A84218BF50
:20366C000B2036D142F64B20A8421FD0401EA84216D042F60812AA420CD0001DA84203D06E
:20368C00521EAA4206D01EE001203080C8680078207018E002203080C8680088208012E0D1
:2036AC0004203080C868006820600CE0402B0EDAC3F13F009042D8BF82B23280C9682046FA
:2036CC00C91800F09BFD1FB903F05CFB00E007273846FEBD9809002070B5ADF1280DFFF75D
:2036EC00CBF9334C0025042004F1100141F80C5F401E8D60FAD1241F062004F150010A4673
:20370C00401E22F80C5BFBD108200880214E8E60214EE823A6F86C5A2846338006F1E80205
:20372C00626140F68411118000F0F0FFA061666101F0BEF902F00CF902F026FA02F042FAD8
:20374C00684603F07FFB4FF4E130069013480168CA6869469047124908601249012608A0EF
:20376C000E7002F05BFB11480F490068B1FBF0F003F02EFE03F028FE28460AB070BDC0463F
:20378C0048656C6C6F2C20756E697665727365210D0A00C0756B0000701900201C77000058
:2037AC000C02002006200240A0860100147800001014002038B5DFF8CCE0059C049D8C46EC
:2037CC00002B01462DD142F64D23934207D1BCF1020F04D12878012802D00D2038BD287828
:2037EC001B3B0021D21A12D01B3A18D1BCF1020F09D0BCF1030F04D101280AD17046801CB9
:20380C000BE00A210BE0012803D1704605E0012801D00D2103E07046401C2278027008468C
:20382C0038BD012B15D0022B4FF0000008D0032B26D1012924D1BCF1010F21D1014605E013
:20384C0001291DD1BCF1010F1AD101210E4A117038BD7146891EC87842F63223D21A0BD0BA
:20386C001B3A07D18878BCF1020F05D00879BCF1030F01D0002001E02070012028800020F1
:20388C0038BDC046FE0F0020E00C00202DE9F04105462E480068EFF3118880F311882C4A7B
:2038AC00505D411C0028515549D12A49AC000F5D07F03F003F280C4401D0FFF7E7FF60780D
:2038CC0000F03F003F2801D0FFF7E0FF668837F07F0019D1F80911D24FF08054D4F8B801A6
:2038EC00406901463046884704F5DC742068406B0146304688470128F8D120E0164850F8E7
:20390C002610012088471AE04FF08054D4F8B801C069014630468847D4F8B801406A0146B8
:20392C0030468847D4F8B801C06A01463046884701210A4A0A48116001688908FCD388F37E
:20394C001188284603F006F8BDE8F081107800008818002040750000C018002028200860A8
:20396C0028200840F8B5324C0D460646217860781746062925D0022928D001F0EDFA10B92B
:20398C0002F0A6F822E00620202102F0C9FB0720302102F0C5FB0120052102F0C1FB00202D
:2039AC0001216A468DF8000040F20D30FEF760FD012140F205306A468DF80010FEF758FDCB
:2039CC0004E018B1E079A17988422AD001F0C4FA68B3E2790B20521C92FBF0F14143521ADB
:2039EC00E271A179914205D1491C91FBF0F34343C91AA171504304F1D80101230E542A46FF
:203A0C000818437039468570C01C00F0F7FB6078618960B141F008006081206903F024FD0B
:203A2C00F8BD30462A4601213B4600F0D5FFF8BD7C0900202D492DE9F0410968EFF3118875
:203A4C0081F311882A4B195C4A1E01291A5449D1284980000D180E5C6F8836F07F0019D143
:203A6C00F00911D24FF08054D4F8B801806901463846884704F5DC742068406B0146384608
:203A8C0088470228F8D120E01D4850F82710002088471AE04FF08054D4F8B801006A014642
:203AAC0038468847D4F8B801806A014638468847D4F8B801006B01463846884701210E4AAC
:203ACC000E48116001688908FCD306F03F003F2801D0FFF7AFFF687800F03F003F2801D0F2
:203AEC00FFF7A8FF88F31188BDE8F0811078000088180020407500002820086028200840B6
:203B0C00C01800202C482DE9FC47006800680146202088472D4DDFF8A4A04FF002080F20A1
:203B2C0000214FF4C07207232D3D286041F61D5068605046CDF8008001F0E0F921482449E0
:203B4C000124A0F10C06091F0C6056F8041C8908FBD3DFF86C90B9F800102C61012905D010
:203B6C000020214601F050FA444621E00027164D0760032345F8393C376030688008FCD29E
:203B8C00CDF80080504639466022052301F0B6F9346030688008FCD3202045F8210C45F80B
:203BAC00397C0826C5F8FF6FC5F8F36F45F8394CC9F80440BDE8FC87A001001000A00C4040
:203BCC002018002044600C4039400C4039400C4038600C4038B503F0D0FA2A4C256805F081
:203BEC000C000C2846D0E8081ED202F0B7FB014625480068884217D22448254A254D036858
:203C0C0012682868B3FBF2F20019891A03F0D8FB2868001903F0D0FB0120FEF7B7FA2868BC
:203C2C00001903F0D9FB27E0280923D21A4A680904D21168104621F0010103E0104601683C
:203C4C0041F001010160983210684FF0805440F003001060D4F8B801806901462020884708
:203C6C00D4F8B8010D4C806B2168804701202060206801E0FCF7FEFB03F085FA00F04EFF7A
:203C8C0038BDC0461C150020087800000C78000014780000F87700008C2108402C20094043
:203CAC002DE9F0414568876814460E4603F0B0FBA96B29B103F0A8FB4FF0FF30BDE8F081C1
:203CCC00AC632E630024EC776C6303F09DFB03F09FFB1E4E80463078012804D0042002F0DD
:203CEC002BF901203070404603F08EFB1849086840F4007008603968886B40F4FA608863E7
:203D0C006878002818BF201C1ED1696805F1900003F066FBB8B9AC633968886B20F4FA6060
:203D2C00886303F075FB0746307818B1042002F039F83470384603F067FB1027696B286B0F
:203D4C00EF77401A2863686BBDE8F081082F0020301000402DE9F0410E462A4990461C4606
:203D6C0006AF8C4672680878BB8851783F881278002502EB012242F62321521A2AD0521E72
:203D8C00052A19D9921F0DD0263A35D1072F31D8C7F10700984298BF83B20CEB070000F1AF
:203DAC00080121E0B84225DBC01B9842D8BF83B22380DCF804100BE0F06803F0EDF880B29A
:203DCC00B84217DBC01B9842D8BF83B22380F168C9190AE0082F0DD8C7F10800984298BF95
:203DEC0083B20CEB07010F31238040461A4600F005FA03E0072501E025800A252846BDE8F4
:203E0C00F081C046381200202A482DE9F84FD0F80090EFF3118489F31188274EB068012153
:203E2C0003F0C6FA4FF0010A4FF000080546326871697769A6F81CA03068A6F81E80891AC2
:203E4C002A1A8A42A5EB07052DD384F3118844463F195046394603F0A7FA2D1B0446AC428F
:203E6C00F6D9EFF3118B89F31188F08B012804D14046394603F098FA0446B4F1FF3F06D0CE
:203E8C00B169641BA14238BF0C1C391901E0B469E119204603F084FAA6F820A0A6F81C80C2
:203EAC005C46376001E0A6F81C8084F31188BDE8F88FC0461078000078010020F8B50D463F
:203ECC00EEB2290824BF25494D40254AB300D15885EA01040440C4F3006C224C00EA05079D
:203EEC0081433C4000F4E0272143B7F5E02F01D14C0E15D300F4E0245CEA040710D001F42A
:203F0C00E027B7F5A02707D0B7F5803704BF21F4003141F4A02103E021F4803141F4C02123
:203F2C00114CD150C10D04D3A4F18001C5F380528A55000E11D303F06BFA290E03D201215B
:203F4C000022B14002E00121B1400A46503423688B431A43226003F057FAF8BD006000A048
:203F6C0000100840FF7F077F80200240F8B50E4607463168264D886B20F020008863254822
:203F8C002C680268317B8A4213D900EB8100006E84420ED10C4603F03BFA1F4BD0331A68CB
:203FAC000121A1408A431143196003F02DFA2C68317B2046012202F037FC317B204600221C
:203FCC0002F014FDB17B2046002202F00FFDB878012807D007F174004FF0FF3103F000FA28
:203FEC002C6803E0316888690009FCD2317B2046102202F0FBFCB17B0020FF2902D0F27BFD
:20400C00FF2A00D118B12046112202F0EFFCF8BDE82E0020602C002000200240F8B5264C43
:20402C002068EFF3118680F3118824491D4D0B680420B0FA80F043F00403281A1F3002789A
:20404C000B60521C027086F311882068EFF3118380F311880A680820B0FA80F042F00802FD
:20406C002D1AE87F0A60401CE87783F311880E20FFF70CFC0C480068C0F38150032814BFE8
:20408C000020012009490A4A088017683FB9094C402020600123D36100204860F8BD012003
:2040AC00F8BDC04650190020B43F00502018002004800C402C500C40107800001C150020A4
:2040CC00F0B520480127F84201D001F02DFA204D204F214EBD4206D203CD0478A4003459DD
:2040EC00401CA047F6E71D48002800D08047164D164FBD4202D210CDA047FAE7F0BD03255B
:20410C001BE0416808300A1C2A400BD11A1C2A40AB4305D0046804300C600431043BF9D19E
:20412C00131C05D0047801300C700131013BF9D1021C2A4001D0A84304300368002BE0D14F
:20414C007047C046FFFFFFFF0000000000000000607D0000C87D0000187D000059C50110B4
:20416C00F0B584682349607BA27BADF1140D40F000400090207B0027FF2A41EA00000190D8
:20418C004FF0020002D0E27BFF2A00D13FB1E67BA07B3143039140F0004002900420FF21EF
:2041AC00154D4DF820106946281D00F009F90646002E2E6008BF381C1AD0617B0F2202F02A
:2041CC0015FC217B3046102202F010FCA17B3846FF2902D0E27BFF2A00D140B130461122FB
:2041EC0002F004FCE17B3046122202F0FFFB012005B0F0BD0000C0A0E82E0020002A4AD072
:20420C005FEA000C8B071CD1830722D1102A08D370B4103A78C978C0103AFBD270BC1032C0
:20422C0038D0042A2CD3082A05D30C2A24BF08C908C008C908C008C908C092072AD0920F1B
:20424C0022E00B780370491C401C521E22D08B07F7D1C30714D18307D8D0121F12D308C915
:20426C0003801B0C4380001D121FF8D20AE008C903701B0A43701B0A83701B0AC370001D1A
:20428C00121FF4D2121D05D00B780370491C401C521EF9D160467047B0B50446A768ADF16D
:2042AC00280D5FBB0C2000F031FA071C1DD0684600212422082303F0A3F8002306976A460E
:2042CC006168ADF810301848059303F065F8386070B90820ADF824000C25ADF8265009A82D
:2042EC0002F066F9384602F0EFF96FF0030018E0E06878602069B860A7600AE002F0F6FC19
:20430C000546386803F068F82069B860284602F0F9FD3868616803F053F8386803F04CF8DE
:20432C0000200AB0B0BDC0464B71000070B5044602F04EFA42F6D465C2F200056E68034676
:20434C0002F095F92A699B1B4FF47A715943090C801A48BF4042641840F6B831A14216D31F
:20436C00062814DAAA68E868824210D8296871B1801A44F24022C0F20F024243900C00EB53
:20438C001240814212D90846C82811D312E043F6AC71C5F200014868400828BF4FF4FA6073
:2043AC000DD209687D2001F0FF014843C82801D2C82070BDB0F57A6F88BF4FF47A6070BD91
:2043CC002DE9F843204D884606464FF0FF3105F12400814603F004F8002000E0401CB8F1B5
:2043EC00000F0DD018F82010FF2909D02A688A4204D905EB8101096E0029EFD000261CE056
:20440C000024346074600127B4600EE005EB80000B787268066607FA03F0104370600A6818
:20442C000A49304602F0EAF9641CB8F1000F04D008EB84010878FF28E8D1484603F014F861
:20444C003046BDE8F883C046602C0020007FC7672DE9F04107467868BE680446AC3002F0A9
:20446C00BBFF30681B4980690968C0F3C00008BB02F0CEFF184D8046287820B1042001F07A
:20448C0091FC00202870404602F0BEFF3168134D886B20F020008863286820F48070286073
:2044AC00606A216A091A21622369626A38469847BDE8F0814FF4FA70B0FBF1F1012998BF6F
:2044CC000121AC34204602F07BFF204602F074FFBDE8F08114780000082F002030100040B8
:2044EC002DE9F04106467568B46802F091FFA96A39B921688969090903D202F085FFBDE820
:20450C00F0810027AF6202F07FFFA17B3846FF2902D0E17BFF2900D118B128462146FFF7F9
:20452C0025FD2168886B20F0200088630D49086820F48070086002F06BFF0B4C8046207873
:20454C0018B1042001F02EFC2770404602F05CFF686A296A091A29622B696A6A304698470D
:20456C00BDE8F08130100040082F002038B5042002F004FA1A4C022818BF03281FD103209C
:20458C000090164800214FF040521C2300F0B6FC17480068EFF3118380F311881548042183
:2045AC00B1FA81F1401AC17F4A1E0129C27703D1206820F00400206083F3118838BD094D23
:2045CC000A49094A286809680019B2FBF1F102F0F7FE2868001902F0EFFE38BD00A00C4030
:2045EC001C150020FC770000A086010014780000107800005019002010B51A481A49007825
:20460C00086820F0030040F00100086001F0C0F901F0D8FE0021154C154821600068C06811
:20462C000146022088471349134A086820F0010008601068D4F8EC1FEFF3118480F31188C2
:20464C000E4B0F481A680421B1FA81F1401A42F00402C17F1A60491CC17784F311884FF0A2
:20466C00FF3010BD092F00200440034040100940A00100108C210840107800001C1500203B
:20468C0050190020F8B505461E480068EFF3118780F311881C4C20684FF0805640F0800084
:2046AC002060D6F88C014068014601208847D6F8B001006A014614208847286906F5C6753A
:2046CC00810C14BF010C04212868406A024601209047D6F884010068232102460020904784
:2046EC002868C069014601208847206820F4C02040F480302060206840F00100206087F32B
:20470C001188F8BD1078000000200940F8B5001D84B214F0030002D0241A241DA4B202F0AE
:20472C00E5FA1A49102C02464F690A61C8BF8F69388800231E46C10BCD0319D126B9844293
:20474C000ADD3B46012617E01988091889B28C42198011DC1F4608469FB1001B80B20428FA
:20476C00B4BF3C88385344F400443C803F1D08E080F40040002680B23F1838880028DAD1F9
:20478C000027104602F0BEFB3846F8BD0C140020002213460A46194671B510F0030F0BD035
:2047AC00002A82BF00F8011BB2F1010210F0030FF6D1002A08BF71BD11F0FF0141EA012182
:2047CC00042A18D341EA0141082A0FD30E46102A08D30C460D46B2F10F0312F00F0272C02B
:2047EC00103BFCD812F0080F18BF42C012F0040F18BF40F8041B12F0020F18BF20F8021B3A
:20480C0012F0010F18BF017071BD704770B50646F088F4680628A4F10C042CDAB0880628C9
:20482C0029DA02F063FA154DF28891000C3501EBC20149194968E1B102F064FB307920718D
:20484C00B0796071307AA071F188880000EBC1004019F1684068083001F062FFF188880005
:20486C0000EBC10040194068406802F0FDFD002070BD02F047FB6FF0020070BD5014002058
:20488C0038B5446885681848006802F0CCF9296816488A6B1040886315480068C16828686A
:2048AC008847287AFFF7C6F804F1580002F070FDA07818B904F1740002F066FD607818B9CB
:2048CC0004F1900002F060FD04F1AC0002F058FD02F09EFD0021217002F096FD04F1440013
:2048EC0002F0F6F938BDC046E82E00200DF8FFFFD0010010FEB51A4C0546208C218B814237
:20490C000CDC618B814209DBA08B618C884205D1E08BA18C884208BF18271FD0052001F0EB
:20492C00F7F8278B0646A18B638BADF80270E08AADF806100B4AADF80000E78BADF80430E3
:20494C0011216846ADF8087001F06EFD071C05D1A57304F1F000314601F0B6FA3846FEBDAB
:20496C0010060020877200002DE9FE43194D184E287800244FF6FF78012724E0716931F82A
:20498C00240080451CD0814602F036FB400817D348463946002202F055F9019080B1B6F83B
:2049AC004210ADF802707378ADF8001069460370484602F0CFF918B168461B2102F050F98A
:2049CC002878641CE4B2A042D8DCBDE8FE83C046A4140020100600202DE9F84399461546BA
:2049EC00804601F039FA0E46071C27D07968144CC968A089096802F0FFFAC0B240081DD3B2
:204A0C00607938B1621D40F219300121FDF730FD00206071388829464A4600F01BFE58B9C1
:204A2C0084F8288084F8296004F12B0049462A4684F82A50FFF7E2FB02F0A4F9BDE8F883AA
:204A4C007C09002038B50079184CA0B902F04EF92178002904BF6FF00704051C13D0491EEF
:204A6C00C9B2217029B902F04DFA606801F0B8FA18E0054613E002F039F905462078FF2834
:204A8C0005D16FF00604284602F03CFA0BE0401CC0B20128207002D1606801F0BCFA284613
:204AAC0002F030FA0024204638BDC046D8180020B0B5ADF1400D02F0D3FC044600213C225F
:204ACC000823684602F058FC1148416806918168006804900F480068002205900E480891C8
:204AEC00694602F045FC071C0DD002F0FFF80546384600F0CDFC30B1284602F003FA2046B9
:204B0C0002F09AFC01E000F02DFB10B0B0BDC04684740000101400203570000045F2280095
:204B2C0080B5C4F2090007686FB343F6AC70C5F20000826802EA5201C90E24D241688908A8
:204B4C0021D20021C4F20901D1F800C000681CF0050F4FEA104000F0F00000F5E0700CD1D9
:204B6C00B84210D2100F38BF4CF0010CD00E38BF4CF0040CC1F800C080BDB84284BF2CF0BE
:204B8C00050CC1F800C080BD2DE9F04106467568B46802F03DFCA96B21B30027AF6302F078
:204BAC0033FC2168886B20F4FA6088630F49086820F40070086002F02BFC0D4C8046207861
:204BCC0018B1042001F0EEF82770404602F01CFC686B296BEB68091A29636A6B304698474B
:204BEC00BDE8F08102F010FCBDE8F08130100040082F0020F8B5844640F6FF741CF8013B38
:204C0C00002210E0481B401E10F8015B7F1E01F8015BF9D103E01CF8010B01F8010B521C1F
:204C2C005B08082AEADA5808F5D21CF8010B1CF8015B05F00F07FF1CC5F30315122F45EAF2
:204C4C00001508D11CF8016B300A24BF1CF8010B60F3DF16BF19AC42D4D1F8BD10B501204F
:204C6C0001F08CFE012829D04AF20000342101220023C4F20C0000F011FD002808BF0020E5
:204C8C001DD08020C1F200000068804701F0A0FD42F6D46344F24022C2F20003C0F20F028A
:204CAC009C681968D860041BA1EB91016243120C8A4224BF1A60012001D21960012010BDA7
:204CCC0098B541F23403C4F2090318680004070C26D001F0CCFC42F6F862C2F2000292F936
:204CEC000710814205DD10F1800FB8BF6FF07F00D0719188B94212D81468D3F8D40F001B83
:204D0C00801C1F2888BF1F207F1A4008C7404FF6FF70C919884238BF011C918098BD978045
:204D2C0098BDF8B506AF3F880E4605463FBB022B23D15078147804EB002434F001001AD1B8
:204D4C00F1680968284602F057F9844211D0F06806683146284601F027FF48B94FF6FF70AF
:204D6C00314601F021FF002808BF112008D0058084700020F8BD8020F8BD0D20F8BD0B20F7
:204D8C00F8BD704738B502F043FB154C0546A01D008840B9FFF742F90446102000F060F9A0
:204DAC00012C0DD017E0FFF759FF60B10020E080FFF734F90446102000F052F9012C0AD127
:204DCC00FEF7A0FE07E030340521204602F0F8FA204602F0F1FA284602F016FB38BDC046CA
:204DEC001C150020F8B5054605F128020CCA0846002102F04BF805F1300292E8C000361814
:204E0C004FEA164447EB01073804044301F0E0FC211AB1F1004F08D8011B091DC90F05D16D
:204E2C00001DA04288BF041C00E0041D04480068426A214601209047383585E8C000F8BDF1
:204E4C008C010010F8B506AF3F881D461446002F18BF0B2021D148684278007842F6192746
:204E6C00002600EB022087420BD042F60812824218BF0A2610D102202880C868008820802F
:204E8C000AE001F03DF805494A788242C4BF021C4A700120288022703046F8BDA414002069
:204EAC001549096821280ADC212819D00C380FD00D380FD0001F0FD0C01E0FD01AE025385D
:204ECC0010D0401F10D0401E10D0401E10D011E0086870474868704788687047C86870471E
:204EEC000869704748697047C8697047086A7047486A704700207047F00100202DE9F0416D
:204F0C00984600EB41001646B8F1100F06AF00F5007404D3A8F1100800F50174360C3D8840
:204F2C0002F02BF905FA08F545EA06450021002808BF012148F20002C4F20C02106810B966
:204F4C0010680028FAD025600120106009B102F01AF9BDE8F081FEE73EB500250A208DF844
:204F6C00045001F0D1FD041C1DD00421372202F01DF840F20E40208101F0D6FD214601F043
:204F8C0011FC80B909480095694601F07AF850B9009A507820B99168D27901A8FFF72EF979
:204FAC00009801F037FF9DF804003EBD45720000B0B5044602F01CFA00F06AFA054601F094
:204FCC0095FE0146A2880F480023303030F80C7F5FB902804560A381A26882606868206194
:204FEC000024084601F08EFF09E0974208BF6FF00204F6D05B1C062BE8D300F0B3F820469D
:20500C00B0BDC04620140020F8B5124D124C0322002645F8392C0F46266021688908FCD2A3
:20502C0080B200900D48314660220523FFF766FF0121216020688008FCD345F8217C45F838
:20504C00396C0820C5F8FF0FC5F8F30F45F8391CF8BDC04639400C4038600C4000A00C400B
:20506C00F8B507461248134D0468281902F000FA00266419C0B9204602F0EEF90546A86821
:20508C00074206D0EA68296938469047C0B2012806D0284602F0DCF90546AC42EFD103E02A
:2050AC0002480068804702263046F8BD04780000007800001C150020D0B5044602F098F981
:2050CC0001F05AFB061C08BF6FF004001DD001F00DFEB168002908BF002709D051F80C2CBF
:2050EC000023B2600F4641F80C3CFF2601F8026C01F008FFA7603FB117F8080CA08017F8CC
:20510C00070CE0800020D0BD0220D0BDB0B5044602F04CF830F0010008BF6FF004041BD095
:20512C0002F066F9054601F0E1FD0C4A062132F80C7F6FB1A388BB4208D152681268002150
:20514C00954208BF0121A160002403E0491EEED14FF0FF3401F0D6FE2046B0BD50140020C7
:20516C0000BF704708B5FFF7FBFFFEE738B50D4C0546A06820B10C48B0F1FF3F00D08047E7
:20518C000A4800688047606810B1014628468847206800B18047064800688047FFF7E2FF21
:2051AC0038BDC0469C180020FFFFFFFFE0180020E4180020BCB506AF3F88002F18BF0B20C6
:2051CC001ED14C686578247804EB052442F64F25A54209D042F60215A54218BF0A200FD10C
:2051EC000097FFF79EFDBCBD042B18BF0D2007D10448CF68036811680120396098470020D7
:20520C00BCBDC0468C150020B0B5134C6068628808B325880021AA42C8BF01210B46AA4271
:20522C00C6BFA91A01F58061A91A8FB297B1012B04D0121902F108013A4609E01119C2F586
:20524C008062083101F0DEFF606804F108012A4601F0D8FF6580B0BD08020020DCB5044604
:20526C0002F0C6F801F088FA064601F09FFF30F0010014BF002E6FF0040017D0606858B1E7
:20528C00B0F1FF3F05D0694601F0AAF930B107460BE04FF0FF3000E0002000907068009983
:2052AC0002F09EF8002700B901273846DCBD70B505464AF200060C466808ADF1080DC4F25E
:2052CC000C0607D3A0B20021009001220B463046FFF714FEA80807D3A0B200900021022230
:2052EC0001233046FFF70AFEE80807D3A0B2009000210C2202233046FFF700FE02B070BDA1
:20530C002DE9F04106461148103090F8008014460D46102001F0F8FB071C12D00421072239
:20532C0001F044FE404601F04EFB38727E72BD72FC6001F0F9FB044A394600F0F7FCBDE80F
:20534C00F0810420BDE8F0818172000010060020B0B5054602F04CF8044601F027FF30F006
:20536C00010008BF6FF0040416D001F0BFFC01460A48002230F80C7F4FB143681B689C42E6
:20538C0004BFAA80002404D0521C062AF2D36FF00404084601F0B6FD2046B0BD5014002009
:2053AC00F8B5044602F024F800F072F8071C19D001F09CFC84460D480021303030F80C6FAA
:2053CC006EB94FF6F87202804760A180002585607868A060604601F095FD2846F8BD491C06
:2053EC000629EBD3FFF7BEFEF8BDC0462014002010B50C46F0B141680122A240114219D051
:20540C00914341600C480022031900EB84010A6603F140010978FF291ABF406850F82110C1
:20542C0044F020410548FEF749FD20464FF0FF3101F032FC10BDC046602C0020007FC76723
:20544C0070B540680C460546AC3001F0C5FF0E49687F51F82010287F4018C01D4443A96919
:20546C0008486043B0FBF1F00849096805F1AC066430B0FBF1F1304601F0A2FF304601F0A7
:20548C009BFF70BD40420F00D4750000147800002DE9F843804601F029FC0F4C04250026FC
:2054AC00814654F80C7F5FB93046C4F800800146A6600A4601F058FF606018B9FFF752FEBC
:2054CC00474501D1264601E06D1EEAD1484601F019FD3046BDE8F88320140020BCB5144685
:2054EC004A685578127806AF02EB052242F60215954213D13A8800922246FFF712FC0746B7
:20550C0008480830016857B949B16278207810EB02200CBF02200120884700E00A27384689
:20552C00BCBDC046A4140020F8B506460F4D104F7388002417E0A20002EBC4029219516885
:20554C009068D26852B9AF420BD00A7855F822200346491C08461946904701E0FEF74EFED1
:20556C007388641CA4B2A342E5DCF8BD187D0000247D00000CB4F0B5061C05AF0C46ADF192
:20558C000C0D04D03068002818BF051C00D100253A6827F003000021001D019001AB00919C
:2055AC0028462146FBF7CAFF844238BF601E15B131680918316003B0BDE8F04002B0704712
:2055CC00BFB50546082014460F46ADF800000420ADF802000C200190684600F0E9FF00284E
:2055EC000CBF02980020014620B9204601F006FC002008E08C60284601F0B2FE17B1384658
:20560C0001F032FF01200090BFBDFEE70F48B0B54178062918BF072917D1057CC48A0E20BA
:20562C0001F072FA071C10D004210A2201F0BEFC284601F0C8F938727C811320387301F06C
:20564C0073FA034A394600F071FBB0BD100600207B720000FEB5104C0646A08917460D46E5
:20566C00002201F0EFFA019090B1ADF80060ADF8025039462A46FEF7C1FDA089694601F0E9
:20568C0069FB041C05D068461B2101F0E9FA00E013242046FEBDC0467C09002070B5401887
:2056AC001E461546102E044602D3103EA41C2D0C01F063FD0021002808BF012148F20002BC
:2056CC00C4F20C02106810B910680028FAD024880120106009B101F056FD05EA04003041B0
:2056EC0080B270BD08B50D480D4B006890FAA0F0B0FA80F1012000FA01F21A60094A1060ED
:20570C00094802688A4207D900EB8100006E18B102680AB1C9B2904708BDC046E0200240EF
:20572C00E020026080E200E0602C0020F0B50D4614461F460646002124220823ADF1240DA9
:20574C00684601F05DFE00200590ADF8100008484FF47A716B4600680697B1FBF0F080B2E7
:20576C00294604FB00F2304601F046FE09B0F0BD147800002DE9F04105461E4690460C4602
:20578C00142001F0C1F9071C13D03246032101F00DFC3D81002038744046FC6001F013F919
:2057AC00787401F0C1F9044A394600F0BFFABDE8F0810420BDE8F081476D00002DE9F04185
:2057CC0006467568B76801F023FE0D4C8046207820B1042000F0E6FA00202070404601F0C0
:2057EC0013FE3968886B20F4FA608863686B296BEB68091A29636A6B30469847BDE8F081F6
:20580C00082F00200C4885460C4885446F4607208743BD460A486F4607600A48002803D085
:20582C007946491D8E460047FEF74AFC01F022FB01F092FDFEE7C046E83F0020000400001D
:20584C0058190020DD7100002DE9F04104460E48057890460E46102001F056F9071C10D05C
:20586C003246042101F0A2FB284601F0ACF83872FC6001F059F93946424600F057FABDE8B8
:20588C00F0810420BDE8F0812006002098B504462420FEF73BFF071C14D000212422082368
:2058AC0001F0C6FD2079012804BF01203876A0683946002201F058FDE060384600F004FF34
:2058CC00E06810B96FF0030098BD002098BDD0B504463C20FEF71AFF071C14D000213C22C0
:2058EC00082301F049FD207AB86160893862E068386160683946002201F03AFD06463846C8
:20590C0000F0E2FE16B96FF00300D0BD0020D0BD0E4A10B553781478A8B1401E12D0401ED5
:20592C000ED0401E10D1107902F14804087250794C6001234872B2F842008B72088010BD6B
:20594C00508CFBE723460B7010BDC046A414002000B500213C220823ADF13C0D684601F009
:20596C000BFD094800F5B27107914FF40271089103210691054900236A4600F58A7001F007
:20598C00E7FC0FB000BDC04610060020AD0B000010B54FF08054D4F890018168012088479A
:2059AC0041F21401C4F209010868800902D208688009FCD3D4F8A00101684020884704F540
:2059CC00D07420688168402088471128F9D110BD1CB50A1C17D000230124E407A04238BF1D
:2059EC00041C944201D95200FBE790425B41904228BF801A914201D25208F6E7191C021CA6
:205A0C00081C111C1CBD00B1C843FDF7F4FD1CBD012810B515D1012000F0B0FF012812D037
:205A2C0001F07EF9094C0120E0803034204601F0D3FC0521204601F0C3FC204601F0BCFC47
:205A4C0001E000F0BFFC002010BDC0461C1500200C4810B50068EFF3118480F311880B4813
:205A6C00C088012809D10848342101220023FFF715FE002808BF002000D0012084F31188CB
:205A8C0010BDC0461078000000A00C401C150020B0B504460D48026840680F4600211200C4
:205AAC00401841EB020104F128020CCAFCF702FE05460B4647B104F1280003C82A4601F08E
:205ACC00E5F9303484E803002846B0BD0820094008B50620302100F023FB0720502100F0F3
:205AEC001FFB01203C2100F01BFB002001216A468DF8000040F20D30FCF7BAFC012140F219
:205B0C0005306A468DF80010FCF7B2FC08BDFEE73EB505460020ADF804000A2000F0F4FFA0
:205B2C00041C0DD00421312201F040FA258100F0FBFF01A90223044A0091214600F014F917
:205B4C00BDF804003EBDC04663720000F8B5064614460D46142000F0D7FF071C0FD00421E3
:205B6C00022201F0E5FABE60BD811020B8733C6100F0DAFF034A394600F0D8F8F8BD0420A3
:205B8C00F8BDC0460571000000B500213C220823ADF13C0D684601F0EFFB084800F2511155
:205BAC00079140F21221089102210691044900236A46883001F0CCFB0FB000BD7C090020D8
:205BCC009D1D000000B500213C220823ADF13C0D684601F0D1FB084800F1980107914FF499
:205BEC002171089101210691044900236A46483001F0AEFB0FB000BDE00C0020BD1000002E
:205C0C001FB504460820ADF800000420ADF8020010200190684600F0CBFC00280CBF029A0D
:205C2C000022054841682AB10123138094708068FFF7C6FC00901FBDE00C002070B5044623
:205C4C00606810F07F4F18BF6FF0020011D101F04DF8084D0646287828B1686800F0C0F9BF
:205C6C00606800F0D8F960686860304601F04AF9002070BDD81800203EB50546FFF71CFAAE
:205C8C00041C15D1A88802A900F07EFA68B10821ADF80010A86801900321ADF8021068468E
:205CAC0000F086FC6FF005003EBDBDF80800A88020463EBDB0B504460D46102000F024FF7C
:205CCC00071C10D02146062201F032FA0020388115247C81054AFA6000F026FF39462A464D
:205CEC0000F024F8B0BD0420B0BDC04634770000F8B50D4E446885680F4608E0216B0870FB
:205D0C00206B636B7F1E401C2063581C606347B106F10C000068016928688847B0F1FF3F60
:205D2C00ECD13846F8BDC046C40100101CB51446CA78012A02D18A880A4B1A8000F032FD01
:205D4C0030B9002000906946204600F09AF918B100F0B0FF044603E00098447801F05AF8DA
:205D6C0020461CBDA818002038B51C46154600F019FDB0B9002000906946284600F081F9A8
:205D8C0078B90099487848B90846C1798C4205D10146049889682246FEF730FA009801F05C
:205DAC0039F838BD0C4910B50968EFF3118481F311880A49B0FA80F2891ACA7F531E012AAB
:205DCC00CB7703D1034A11688143116084F3118810BDC0461C150020107800005019002061
:205DEC0038B50D4C206820F00100206021684FF0805541F0800121600120E062D5F88C119B
:205E0C00E26A49688847D5F8B001006A014614208847E06A38BDC046002009400FB490B5C2
:205E2C0003AF27F00300ADF10C0D001D3C68019001F022F9002808BF4FF0FF3007D0002021
:205E4C004FF0FF31224601AB0090FBF777FB03B0BDE8904004B070470B4BB0B502461F7991
:205E6C00986977B1094D037A9A4206D1437A994203D12B78847AA34204D07F1E00F10C0007
:205E8C00F1D10020B0BDC0467C090020FD0F002010B504460B4802680023D9075008014365
:205EAC00D007801A99414FF47A720023FCF702FC002908BFB0F1004F28BF6FF00040606022
:205ECC00002010BD1478000038B50D46044601F0E7F910B1204601F07FFA084800684FF456
:205EEC007A71B1FBF0F080B205FB00F1204601F067FA204601F060FA38BDC046147800000C
:205F0C0038B50C4C04F10C00006800B180470848026861887D25642305FB02F0420903FB48
:205F2C0002F0B0FBF1F5206900B18047E8B238BD28500940A41400200C4938B50968EFF314
:205F4C00118581F31188074B07491A68B0FA80F4091B1043CA7F1860521CCA7785F3118858
:205F6C0038BDC0461C150020501900201078000010B50C4600F02CFC211AB1F1004F08D87D
:205F8C00011B091DC90F05D1001DA04288BF041C00E0041D03480068406A21460246012071
:205FAC00904710BD8C010010F8B5446885680F1C11D00A4E3068216A8269097828689047F4
:205FCC0048B1206A636A7F1E00F10100206203F101006062EED13846F8BDC046D0010010C4
:205FEC0038B50546012411E0C0F11F0004FA00F1052881EA050504DB401FC0B2FDF71AFD2B
:20600C0004E004FA00F0C0B2FFF7CCFEB5FA85F02028E9D138BD38B50546012411E0C0F156
:20602C001F0004FA00F1052881EA050504DB401FC0B2FDF72BFC04E004FA00F0C0B2FFF79F
:20604C007BFFB5FA85F02028E9D138BD98B50446A06858B1B0F1FF3F05D0694600F0C0FAEA
:20606C0030B107460BE04FF0FF3000E0002000906068009901F0B4F9002700B90127384678
:20608C0098BD3EB5054608200C46ADF800002020ADF802001020ADF80400684600F088FA62
:2060AC0028B90298002818BF6FF0040003D12846214600F011FC3EBD41F21830C5F2000024
:2060CC0001684BF69A10C1F30F31884208BF00200BD02430884208BF012006D04BF6203073
:2060EC0088420CBF02204FF0FF307047F8B5064614460D46102000F007FD071C0CD00421CA
:20610C00362200F053FF3E817D81FC6000F00CFD024A3946FFF70AFEF8BDC0464B72000086
:20612C0070B506460D460C2000F0EEFC041C0CD00421302200F03AFF2681658100F0F4FC80
:20614C00034A2146FFF7F2FD70BD042070BDC0466F72000038B50446A16860680860142091
:20616C00FEF7D4FA48B1002505490095054AA368097800F0D9F8284638BD6FF0030038BDF9
:20618C00537600008D650000062880B50CDA0A4F820002EBC00207F13C00875A13181FB155
:2061AC004FF6F870B84202D14FF0FF3080BD18880880002080BDC0462014002010B50446C0
:2061CC0000212C220823ADF1300D684600F0FAFFE0200890A168606800236A4601F0B4F8CE
:2061EC00002818BF002001D1FEF7BCFF0CB010BD10B5044600212C220823ADF1300D684637
:20620C0000F0E0FFE068A1680890606800236A4601F09AF8002818BF002001D1FEF7A2FF15
:20622C000CB010BD10B5044600F060FD094B0022014633F80C0F30B1A04208BF94B203D0C7
:20624C00521C062AF5D3FF24084600F05BFE204610BDC04650140020010446F244020B0CBB
:20626C00C4F20C02C0F3074142F8083C012042F8041C40F68401C4F28C311060086810B983
:20628C0008680028FAD0002010607047F8B5064614460D46102000F037FC071C0CD005212B
:2062AC00012200F083FE3E727D72FC6000F03CFC024A3946FFF73AFDF8BDC0468D72000069
:2062CC00F8B5064614460D46102000F01DFC071C0CD00521022200F069FE3E727D72FC6038
:2062EC0000F022FC024A3946FFF720FDF8BDC0469372000038B505460C2000F005FC041C71
:20630C000DD02946002200F013FF4FF0FF30A06000F00AFC034A2146FFF708FD38BD0420D5
:20632C0038BDC046616800008C4698B5014617460029604614BF002F032009D0054C8860C4
:20634C00054ACF6020680B61801800F0F9FF002098BDC046007800001C1500200A4838B5BC
:20636C000068EFF3118580F31188084CA068002101F01EF86169A269081A824238BF0020CF
:20638C0085F3118838BDC046107800007801002098B504466268002A08BF01200FD02068EA
:2063AC0017460B4606A23946FFF7E4F86168A26800290244A260C4BF091A6160002098BD0A
:2063CC002573000008B503200021FEF770FF012000F0D4FA20B18020C1F200000068804782
:2063EC0000F0F6F942F6D463C2F20003586000F03EF9186108BDF8B5044616460D460C209D
:20640C0000F082FB071C0DD02A46042100F0CEFD3C810520B87200F087FB39463246FFF748
:20642C0085FCF8BD0420F8BDF8B5044616460D46102000F069FB071C0DD02A46042100F092
:20644C00B5FDBC600020F86000F06EFB39463246FFF76CFCF8BD0420F8BD1078802811D19C
:20646C00508840F27F6181420CD190883F21B1EBA02F07D1C0F3C211042903D100F07F00D5
:20648C00834201D000207047012070471078802811D1508840F27F6181420CD190883F2197
:2064AC00B1EBA02F07D1C0F3C211032903D100F07F00834201D000207047012070471078CB
:2064CC00802811D1508840F27F6181420CD190883F21B1EBA02F07D1C0F3C211052903D159
:2064EC0000F07F00834201D0002070470120704738B50546102000F007FB041C0DD0012163
:20650C00132200F015FE25810020A072E06000F00BFB024A2146FFF709FC38BD21710000F4
:20652C00094A80B50146177990695FB1074A12780C3830F80C3F994202D1837A9A4202D0FC
:20654C007F1EF6D1002080BD7C090020FD0F00200EB501468DF8021000208DF800008DF8D2
:20656C0001008DF803008DF804008DF805008DF806006A468DF807000821FDF7F3F90EBDD8
:20658C0010B5401E0C460DD0401E09D0801E05D0001F01D0FEF7E6FD052004E0002002E020
:2065AC00042000E00220226821469047002010BD10B504462088FFF735FEFF2808BF4FF0E7
:2065CC00FF300AD0054B810001EBC000195811B12046884710BD6FF0010010BD641400202F
:2065EC000A4A10B512680C464FF47A710023A1FB0001FCF75FF8002908BFB0F1004F2EBFA5
:20660C006FF002002060002010BDC0461478000010B500F019FF00F023FF032000F08CFE92
:20662C0006481030006830B1034C204600F0AEFC204600F0A8FC10BD916F0000A40100209C
:20664C00F8B507461C4615460E460A2000F07CFA021C0BD038460168116080889080D680D4
:20666C00002115722020547200F060F9F8BD45F2280041F20C31C4F20900C5F20001826832
:20668C0091F900100068A0F540704143091142F31000401A803000127047704710B5FF2056
:2066AC0000F066FC00280CBF08240024FF2000F05FFC08B944F0010402480470243000F0D3
:2066CC00E7FD10BD9816002010B5044600F00EFB074934F8042C6FF3DF3224F8042C4A6909
:2066EC000861241F944238BF4C6100F00BFC10BD0C1400200EB50820ADF800000420ADF80B
:20670C00020006480078800001906846FFF750FF002814BF002002980EBDC04610060020E5
:20672C0038B50C46054600F0E1FA002144F80C1C296811B92C6006E0114651F80C2C002AA4
:20674C00FAD141F80C4C00F0DDFB38BD10B5044660680C3080B2FDF7D9FF50B1A1880023B6
