:20000000D43F0020F93D000001CA011001CA011001CA011001CA011001CA011001CA01104F
:1C00200001CA011001CA011001CA011001CA011001CA011001CA01103FCA011082
:20003C0010B504F0ADFE05F071FB04F059FE04F05FFC05F073FC00F053F8284C083C608A04
:20005C0000EA5001C9080FD2010906D2C00838BF12A103D315A1112201E019A10E2204F1C4
:20007C00140002F09BFB08E019A10A6804F1140002604B6843600A89028104F11403184673
:20009C0005F008FBC1B21A46002005F0B3FAA21C0120022105F0AEFA10BDC0465449204246
:2000BC004C4520556E6B6E6F776E00C0544920424C45205065726970686572616C00C04601
:2000DC00544920424C452043656E7472616C00C0544920424C4520416C6C00C0381D0020CD
:0400FC0005F02BBC24
:200100003C000000000000000000000034010000000000000000000001000000000000006D
:1C01200000000000000000000000000001000000000000000800000000000000BA
:20013C00340000000000000000000000680100000000000000000000010000000000000005
:14015C00010000000000000000000000080000000000000086
:2001700030000000000000000000000098010000040000000000000001000000FFFFFFFFA5
:10019000FF00000001000000080000000000000057
:2001A0002C0000000000000000000000C4010000040000000000000001000000FFFFFFFF4D
:0C01C000FFFFFFFF08000000000000002F
:2001CC0034050000E401000099A1011095A70110A5C2011009B2011045B80110000000000B
:0801EC00000000002E000000DD
:2001F400280000000000000000000000140200000000000000000000FFFFFFFF00000000B1
:080214000800000000000000DA
:20021C00300500003002000069C201106DC101101FC2011095BA011000000000000000008E
:04023C00300000008E
:20024000300500005402000075C20110A9B601109DBF011049B601100000000000000000DE
:040260003100000069
:200264002400000000000000000000008002000000000000000000000000000008000000CC
:040284000000000076
:20028800240000000000000000000000A40200000000000000000000000000000800000084
:0402A8000000000052
:2002AC00240000000000000000000000C8020000000000000100000000000000080000003B
:0402CC00000000002E
:2002D00000000000F42900200400000000000000000000002000000070010000300000000C
:2002F0001C020000FC2900200400000000000000000000000C00000030040000180000002F
:2003100040020000042A0020040000000000000000000000240000004804000018000000B1
:20033000000000000C2A002004000000000000000000000010000000A00100002C00000076
:20035000CC010000142A0020040000000000000000000000200000006402000024000000B4
:20037000FFFFFFFF1C2A002004000000000000000000000028000000880200002400000031
:20039000FFFFFFFF242A0020040000000000000000000000580000003C0100003400000016
:2003B000FFFFFFFF2C2A00200400000000000000000000001000000060040000180000002B
:2003D000FFFFFFFF342A00200400000000000000000000001C000000AC02000024000000A1
:2003F000FFFFFFFF3C2A002004000000000000000000000038000000F40100002800000012
:20041000FFFFFFFF442A002004000000000000000000000054000000000100003C000000AD
:1804300018000000000000000000000040040000080000000000000050
:1804480018000000000000000000000058040000080000000000000020
:18046000180000000000000000000000700400000800000000000000F0
:0804780001000000E45C00003B
:0404800003F0AAB922
:040484000100000073
:0404880000000C0064
:04048C0000000D005F
:040490003200000036
:040494000200000062
:040498008028002098
:04049C00000200005A
:0404A0000000000058
:0404A40001CA011078
:0404A8000000000050
:0404AC00000000004C
:0404B0000800000040
:0404B4000000200024
:0404B80014280020E4
:0404BC00010000003B
:0404C000942900205B
:0404C400080000002C
:0404C8000000000030
:0404CC00000000002C
:0404D0000000000028
:0404D4000000000024
:0404D8000000000020
:0404DC00010000001B
:0404E000E0280020F0
:0404E400060000000E
:0404E800010000000F
:0404EC004027002085
:0404F0000000000008
:0404F4000000000004
:0404F80000020000FE
:0404FC0000000000FC
:02050000704742
:020502002A00CD
:020504000100F4
:020506002500CE
:020508003000C1
:02050A003100BE
:02050C002E00BF
:02050E000100EA
:0105100001E9
:0805140003000000B05C0000D0
:08051C000000000000000000D7
:0405240000000100D2
:0405280000000300CC
:04052C0087C401106F
:04053000380500008A
:040534003805000086
:0405380000000000BF
:04053C00800000003B
:040540008000000037
:0405440000000000B3
:0405480094290020D2
:04054C000F57000045
:040550002000000087
:040554008C5C0000BB
:04055800005C000043
:04055C000DC30110BA
:0405600073260000FE
:04056400532F000011
:0405680099C801101D
:04056C009BC8011017
:040570000000000087
:04057400C25C000065
:04057800685B0000BC
:04057C00805B0000A0
:04058000505B0000CC
:0205840008006D
:0205860009006A
:02058800010070
:02058A0000006F
:01058C00016D
:040590000000000067
:040594000000000063
:04059800000000005F
:04059C00000000005B
:0405A0007155000091
:0405A40055400000BE
:0405A800154E0000EC
:0405AC00453E0000C8
:0405B00059350000B9
:0405B4008D43000073
:0405B800CD2C000046
:0405BC00FD510000ED
:0405C000B935000049
:0405C40011C8011049
:0405C80021C8011035
:0405CC000800000023
:0405D0002400000003
:0405D400180000000B
:0405D80028000000F7
:0405DC0020000000FB
:0405E0003C000000DB
:0405E4000C00000007
:0405E80034000000DB
:2005EC002DE9F84F054640F29421012441F22D00C4F22231C4F2090040F81D4C086810B939
:20060C0008680028FAD046F2000043F6B477C021C4F20C00C5F2000701603E6857F8040C09
:20062C0046F25622C4F20802800806D257F8080C000C40F0F000107001E07220107041F2A9
:20064C00B820C5F200000068C0F3046005F0D8F839680B171B185B1C13F10A0FB8BF6FF05B
:20066C0009034FF0000CF10EB00E03F01F0381F00101C4F2203C80F0010043F4F85301F0DC
:20068C000101138300F00100CCF800103146CCF80800284601F022FB814605F0FBF8002162
:2006AC00002808BF211C48F20008C4F20C08D8F8000018B9D8F800000028F8D04AF2080A47
:2006CC00C4F20C0ACAF81090C8F8004009B105F0E7F8284604F098FC40F2FF32002380B2A4
:2006EC002C2100904AF20000C4F20C0002F08CFF284604F05AFE814605F0CCF80021002813
:20070C0008BF211CD8F8000018B9D8F800000028F8D0CAF81490C8F8004009B105F0C0F89B
:20072C00284604F0F9FA814605F0B4F80021002808BF211CD8F8000018B9D8F8000000280A
:20074C00F8D0CAF80C90C8F8004009B105F0A8F8284604F037FC814605F09CF800210028EA
:20076C0008BF211CD8F8000018B9D8F800000028F8D0CAF80890C8F8004009B105F090F877
:20078C00284602F0F5F8814605F084F80021002808BF211CD8F8000018B9D8F800000028E2
:2007AC00F8D0CAF80490C8F8004009B105F078F8284604F0CAFD4AF24009C4F20C09400037
:2007CC0040F0200089F80901284604F0CAFD40F0100089F80901284604F026FC834605F0FC
:2007EC0059F80021002808BF211CD8F8000018B9D8F800000028F8D0CAF820B0C8F800405C
:20080C0009B105F04DF8284604F0B7FD400040F0600089F80C01284604F0BBFDC00040F05A
:20082C00800089F80101284604F0CBFD800040F47C40A9F89C01284604F0CAF8834605F0EF
:20084C0029F80021002808BF211CD8F8000018B9D8F800000028F8D0CAF800B0C8F800404B
:20086C0009B105F01DF8442089F8C5004FF0880E89F8C7E0284604F08DFE40F03001C6F3FA
:20088C00815089F8C81078B3401E06D0401E26D00420022102F0EBFF30E0204604F0C8FA20
:2008AC0005460420294602F0E2FF042004F0C0FA8542FAD157F80C5C25F07F4003F03EFF5C
:2008CC0040F2B410C1F200000068036807214FF06022280E98474FF48060C9F8000004208A
:2008EC00032102F0C4FF09E00420214602F0BFFF43F2BD70C0F2860003F020FF41F2B82038
:20090C00C5F20000D0F8B4004BF2700242F22C0E46F2000B47F618014FF0000C41F22D0A2D
:20092C00C4F20C02C4F2090E40F2944800F03F0089F8CB0FC4F20C0B1180DEF80000CBF88B
:20094C0000C0C4F2090A4AF81DCCC4F26028C8F80040BDE8F88F70472DE9F84FC64DC74E31
:20096C00D5F8EF1FCC4C7368D5F8F30F8843C5F8F30F002BC5F8FF1F00F011817788012B91
:20098C0000F0D680DFF8FCB2BF4FDFF800A3DFF80093DFF80083022B72D0032B40F06A817C
:2009AC000024B06855F8312C74600028A2F5C062B8BF404211460029B8BF494288422EDA43
:2009CC00111C54BF02206FF00100B26900EB4100032190FBF1F18918B161F36870699842B0
:2009EC000BD0B1F11002B8BF524230691038B8BF40428242B8BF88B209DB98B20090A0485C
:200A0C0030214FF47F42082302F0FEFD308A00909B4804214FF4F802122302F0F5FD584617
:200A2C00046001688908FCD20460012644600E203E6001F099FB50460468EFF3118584F30D
:200A4C00118849460820B0FA80F00A1AD07F431E0128D37704D14246106820F0080010607C
:200A6C0085F31188EFF3118384F311880420B0FA80F0091AC87F421E0128CA7754D14EE00E
:200A8C0055F8310CB0F5C06F17D00327776000F02BFF45F8397C0027276020688008FCD26C
:200AAC007748394660220523009102F0ADFD0126266020688008FCD364E0002171605846B5
:200ACC00016002689208FCD20160012641600E203E6001F049FB50460468EFF3118584F3BC
:200AEC00118849460820B0FA80F00A1AD07F431E0128D37704D14246106820F008001060DC
:200B0C0085F31188EFF3118384F311880420B0FA80F0091AC87F421E0128CA7704D1424663
:200B2C00106820F00400106083F31188BDE8F88F55F8312C02214BF2F52071605043000AE5
:200B4C0037B95649096821F07F414018400801E0002171806060000CA0600126E6600327C2
:200B6C0045F8397C0027276020688008FCD24448394660220523009102F046FD2660206862
:200B8C008008FCD345F8216C45F8397C0820C5F8FF0FC5F8F30F45F8396CBDE8F88F4048EE
:200BAC000068006801462020884741F61D574FF002080F2045F82D0C00214FF4C0720723AA
:200BCC0045F8297C2E48CDF8008002F01DFD012744F8047C54F8040C8008FBD3308845F8D5
:200BEC001D7C012821D0032045F8390C4FF00009C4F8009020688008FCD2214849466022A5
:200C0C000523009102F000FD276020688008FCD345F8217C45F8399C0820C5F8FF0FC5F81E
:200C2C00F30F45F8397C474623E04FF00009C4F80C90032045F8390CC4F800902068800883
:200C4C00FCD20F48CDF8008049466022052302F0DBFC276020688008FCD3202045F8210C0C
:200C6C0045F8399C0824C5F8FF4FC5F8F34F45F8397C7760BDE8F88F39400C4040290020DD
:200C8C0000A00C4034600C4004800C40DC5C00004C2A00207C26002038600C4010200940BF
:200CAC00A00100102DE9F04F8146B9F1010FADF11C0D40F05781AD480068EFF3118280F38D
:200CCC001188DFF8CCB29BF80400012818BF012003D1022100208BF8041082F3118801287D
:200CEC0000F03E8104F0A6FE0390AA48046804EB0B0004F09BFE4FF00008464637460BEBE3
:200D0C000401CDF810800191B0B90C46084604F089FE0546A868400808D3E86829690246AF
:200D2C0001209047C0B2012800F01281284604F075FE0546AC42EDD1002F40F00D8104F0E4
:200D4C0069FE029005978A480760012004F070F8012804D1404603F037F94FF00108854F79
:200D6C0038688068014630468847874819300090D0F8FF0FB9F1010F40F08C80864C0A34CF
:200D8C00E57905B10126A5790DB146F0020665790DB146F00406DFF8E09165782DB1B86AF1
:200DAC00006B49460246C88D904725782DB1B86A006B49460246488D9047704901200860EC
:200DCC00B86A8069014646F0200088476C4DDBF80010286840F001002860480813D26948C5
:200DEC0004F000FD8246BAF1040FF8D0D5F8180220F00300C5F81802B86C4068024661481A
:200E0C000321904701E001200490059800F00AFBB86A0099806BD1F8FF1F8047049858B9A2
:200E2C00B86C40680246574851469047D5F8180240F00300C5F818023868806801460120A4
:200E4C008847514801688909FCD3B8F1010F02D1012003F0B9F8B86A4069014630468847AC
:200E6C00B86A406B0146304688470128F8D166782EB1B86AC06A49460246C88D9047267871
:200E8C002EB1B86AC06A49460246488D90473B49012008603A480168032221F00101016007
:200EAC0001988BF8042004F0C1FD0028059818BF01200125C8B9019C204604F0B3FD0646DD
:200ECC00B068C00807D3F0683169024604209047C0B2012806D0304604F0A0FD0646B4425D
:200EEC00EED102E02948006880472148009F0560D7F8FF0F04F0D4FC019804F097FD059FD2
:200F0C00D0B9019C204604F08DFD0646B068000907D3F0683169024608209047C0B20128A0
:200F2C0006D0304604F07AFD0646B442EED103E0164800688047022702988BF8045004F0EF
:200F4C0065FD02F071FA039804F05CFD38460AE00E4800688047022701208BF80400F2E747
:200F6C00062000E0022007B0BDE8F08FDC5C00000C40094090010010045B000028200860E5
:200F8C000C2008400040034014100940D05C00007C260020CC5C0000AC2900202DE9F84F79
:200FAC00A14CA24E4FF0000A4FF0030BD1462546FDE030810A2033E030692978071D40685F
:200FCC0040189DF8001001712878401CC3B22B7004F0BAF871888046C91A414509DA386839
:200FEC001B1889B21B1D184603F05AF97088C1B20AE038681B1841461B1D184603F050F91A
:20100C0028784044C1B270888842297040F0CF80F36823B131690C305246C0B298475046CF
:20102C003070C4E09DF800002F4670809DF8003087F8009003F10C0004F026F8306120B31C
:20104C0000F1080141607778077242683179517071794268917077884168CF70FF2343701B
:20106C00B1883F23B3EBA12F0AD1C1F3C2133BB1932101704168887800F00300887001E071
:20108C00022101700420307000E07788002F40F08E80F368002B4ED031690C2049E09DF878
:2010AC0000009DF8007070707F1E04D07F1E012FB5D80520B4E70120B2E79DF80000082736
:2010CC0070800AE09DF80010F088072740EA012002E09DF800000627F080377067E09DF8FD
:2010EC000010B08840EA0120B08086F800B05EE09DF800000227B080EFE780F800B0FF21A9
:20110C00417071788170F1886FF31F318180F188C1F301318171718801810927377071698F
:20112C00778801F11002002FC26040D1F36813B110205246984786F8009038E03089401E3B
:20114C0080B2002830813FF46AAF30E07169207801F10C07CA689DF800108154421CD3B216
:20116C00237003F0F1FF71888046C91A414508DA386889B21B18184603F092F87088C1B28F
:20118C0009E0386841461B18184603F089F820784044C1B270888842217008D1F36823B144
:2011AC00716910305246C0B2984786F800A003F0CBFFB8B36846012103F072F830780A28D3
:2011CC00F5D8800001A109588F46C046AB100000FD100000EB10000031100000C50F000000
:2011EC00DF100000D1100000C71000000512000059110000491100002F469DF8001070884F
:20120C0087F8009040EA0120B0F5877F70803FF7D0AE103003F038FF002870617FF46DAF27
:20122C0086F80090BDE8F88FC80000205C2900202DE9F0411C4615468C4208BF854282BF3A
:20124C0000230022E5E0002C08BF002D0AD100290EBF00286FF000006FF0000100F0E1F8D7
:20126C00BDE8F0815FF000085FF0000E002C08BF8D429CBF2C1C0025070C47EA01470E0C68
:20128C00B44208BFBD429EBF5FEA044444EA15445FEA0545070A47EA01670E0AB44208BFFF
:2012AC00BD429EBF5FEA042444EA15645FEA0525470847EAC1774E08B44208BFBD4200F27F
:2012CC009380870847EA81778E08B44208BFBD427CD8C70847EA4177CE08B44208BFBD4247
:2012EC0066D8070947EA01770E09B44208BFBD4250D8470947EAC1674E09B44208BFBD4234
:20130C003AD8870947EA81678E09B44208BFBD4224D8C70947EA4167CE09B44208BFBD427B
:20132C000DD8E60146EA5566EF01B14208BFB84201D3C01BB14158EB08085EEB0E0EA60146
:20134C0046EA95664FEA8517B14208BFB84201D3C01BB14158EB08084EEB0E0E660146EAED
:20136C00D5666F01B14208BFB84201D3C01BB14158EB08084EEB0E0E260146EA15762F01A7
:20138C00B14208BFB84201D3C01BB14158EB08085EEB0E0EE60046EA5576EF00B14208BFAA
:2013AC00B84201D3C01BB14158EB08084EEB0E0EA60046EA9576AF00B14208BFB84201D3C6
:2013CC00C01BB14158EB08084EEB0E0E660046EAD5766F00B14208BFB84201D3C01BB141E7
:2013EC0058EB08085EEB0E0EA14208BFA84201D3401BA14158EB08085EEB0E0EA34208BF20
:20140C00AA423EBF2D0A45EA0465240A89D3734642461E4617460B46024631463846BDE849
:20142C00F0817047F8B507460020C4F209000068800880F0CA8003F03EFB42F22421C4F29A
:20144C0008010A68002112F0030F18BF0121D20828BF41F00201002F18BF41F0040141F66F
:20146C002056C2F2000696F90720821A052A04DAB2798A4208BFB28871D041F29C340F285E
:20148C00A0F10F02C5F2000426DB02EB0012F03A1712072F88BF0727BC46BCF1060F88BFDA
:2014AC004FF0060C54F82CE00423254603EB8C03EB58CD08A3EB0E0303F0FF0C24BFC3F31A
:2014CC000725AC448D0824BFC3F30745AC444D0805D30CEB136C02E04FF0000C674654F8B1
:2014EC002730CC0803F0FF0524BFC3F3072425448C0824BFC3F3074425444C0828BF05EB85
:20150C001365A2EB07221FFA8CF3534380330022082B88BF012243F6B473C5F200031C6853
:20152C001B684FF4D07C34275219241703F0FF0307FB14C45C434FF6FF73B4FBF2F29342FF
:20154C0038BF1A1C802892B2B28005DA10F1800F03DA6FF07F0000E07F20F071B17142F2D4
:20156C000800C4F2090001681F2A4FF00000316015D340F2FF13934213D219465208401C1B
:20158C0093420ED25208401C93420AD25208401C914206D25208401C9142EFD301E01F2255
:2015AC00B2800F3A4FF600714FF0350E1209C8F2A401C4F2090E40EAC2000143CEF8FB1F15
:2015CC004FF0000CCEF8FFCFF8BD41F626524FF6FD50082141F2300EC2F20002C0F2A40084
:2015EC001170C4F2090ECEF80000F8BD2DE9F04FADF15C0D02F04CFF0027012804D103F065
:20160C0098FE022808BF012751490868C0F38150012806D151F80C0C0126010E06FA01F0F9
:20162C0007434C484C4E00783068C0F3460602F02FFF012808BF761C484C26603EB1FF224B
:20164C0004F140013046401E01F8012BFBD1DFF81091D9F800004FF0000800F0FF01FF29DB
:20166C0018D04D4600F0FF03414601229E426CD902FA03F31F4268D100F0FF00201880F8F7
:20168C00401055F8040F43EA0808491C00F0FF03FF2BEBD1092000F0FBFCC4F8049001A80B
:2016AC0000212422082304F0A9F94FF0010A04F1240001AA8DF81CA0514604F09BF92368FD
:2016CC0033B300262546B34660350AFA06F0074218D118EA000F04BF06F0FF0141F4C041CD
:2016EC0004D0A01990F8400059F820101D4800F001FEF0B24FF0FF3103F0C6FD2368C5F8A5
:20170C0000B001E004202860761C2D1D9E42DCD30AA800213022082304F068F9002010211F
:20172C000AAB114A009004F1080004F05BF90F4951F80D0C20F4F85040F4005041F80D0CCC
:20174C005746C1F8FF7F0A4E376017B0BDE8F08FB43F0050291D002080120840881A00208A
:20176C00D8270020007FC767993C00000D300940080009402DE9F04304466568A6680F4622
:20178C00ADF15C0D04F02AF92978012903D104F021F9002098E04FF0010985F8009004F090
:2017AC0019F91FB90DA803F09DFE0DAF387868707878A87078686860B868A860F868E8602C
:2017CC0038692861387D2875787D6875B87DA875B869A861387F2877787F6877B87FA877B1
:2017EC004FF00008C5F82080C5F8308047466F626F63AF62AF6385F82C70102385F83C3044
:20180C0085F82D7085F83D70307A00F041FC204600F012FD204601F061F870B92C48006887
:20182C00C16830688847307A00F09EFC04F0D6F82F7004F0CFF83C4645E001A8394630229B
:20184C00082304F0D3F80694CDF80080214A716805F1580001AB04F0C5F801A83946242256
:20186C00082304F0CBF88DF81C90A87838B905F17400394601AA04F0BDF817482861687833
:20188C0038B905F19000394601AA04F0B3F81348E86001A839462422082304F097F80697A0
:2018AC00ADF814700E49079405F1AC000A2201AB04F088F80B4ACDF8008005F1440004211A
:2018CC00234603F051F8204617B0BDE8F083C046D0010010B91F0000315900002959000047
:2018EC009D2A0000895700002DE9F843804603F0D1FF002100B901213A4D2D1F28680028D4
:20190C00FCD0DFF8DC90012609F10407FC6A2E6009B103F0C5FF3448C4F3072100F10804C3
:20192C00616003F0B7FF0146002001B93046014628680028FCD03F682E6009B103F0B0FF3E
:20194C00C7F38441A8F5C060A160B8F5C06F2060B4BF6FF001030223626803EB40030320C9
:20196C0093FBF0F00918104602290FDB1E290BDB3F28B9BF521C401C3F22101CE260302963
:20198C00B4BF10391F210DE0E0600BE010F13F0FACBF401E6FF03F00E06011F1100FACBFA5
:2019AC0010310021216180B24FF47F42082330210090484601F028FE0096484604214FF4C4
:2019CC000032112301F020FE208A04214FF4F80212230090484601F017FEBDE8F883C046FB
:2019EC0000A00C4004800C40402900202DE9F04707467E68D7F8089090460C4603F0EEFFA7
:201A0C008246B06A002865D106F1AC0003F0D6FF0025F57734625046756203F0DBFF03F0BB
:201A2C00DDFF314C82462078012804D0042002F08BFC01202070504603F0CCFF2949086860
:201A4C0040F4807008603846414602F0D1FBB062C0B93846414602F07BF8B078D0B9B1686C
:201A6C0006F1740003F0A6FFE8B9B5621020F0774946304601F0ECF903F0B0FF824620782B
:201A8C0040B323E0D9F80010886B40F020008863B07810B12846BDE8F087B16806F174003E
:201AAC0003F088FF10B1706ABDE8F0873846414602F04EF81020B5624946F077304601F008
:201ACC00C7F903F08BFF8246207818B1042002F071FB2570504603F07DFF4FF0FF30BDE865
:201AEC00F087C04630100040281D00203EB53C4C0025241DA0694FF0FF3103F05BFF03F0DF
:201B0C00F1FBA1882288E388A5801143E58043EA01026388658043EA0201218003F050FDA0
:201B2C002088010A24BF20F0800020800DF1020101AA684602F07AFF20B9BDF802200198C5
:201B4C0003F074FD2388580915D3E06803F06EFF20B903F0ABFE08B902F0D6FDE06803F043
:201B6C0065FF20B9A06903F021FF238803E0238823F01003238098080ED3FFF70FFA2388D3
:201B8C0003F0E2FA002804BF23F00203238003D0A06903F00BFF238818090ED302F0F0F963
:201BAC00206903F043FF20B9A06903F0FFFE238803E0238823F008032380D8089AD323F02F
:201BCC000403E068238003F031FF002892D1208840F010002080A06903F0E8FE8AE7C04678
:201BEC003020002038482DE9FC4700680068014620208847354DDFF8D8A04FF002080F2021
:201C0C0000214FF4C072072345F82D0C41F61D5045F8290C5046CDF8008001F0F5FC2D4C36
:201C2C00012644F8046C54F8040C8008FBD3DFF8A890B9F8000045F81D6C01281FD0032052
:201C4C0045F8390C0027276020688008FCD23946504660220523009101F0D6FC2660206849
:201C6C008008FCD345F8216C45F8397C0820C5F8FF0FC5F8F30F45F8396C464620E00027FE
:201C8C00E760032045F8390C276020688008FCD2CDF80080504639466022052301F0B4FC42
:201CAC00266020688008FCD3202045F8210C45F8397C0824C5F8FF4FC5F8F34F45F8396CFF
:201CCC00C9F80460BDE8FC87A001001039400C4000A00C4038600C404029002010B50B46C6
:201CEC00002804BF40F6FF70C0F20F006ED041F25030C5F2000000689A0CC0F38361C0F387
:201D0C008F2061D243F30722002A26D55442B2F1FF3F4FEA640415DA400805D1490806BF16
:201D2C000121081C4FF6FF70400802F1010205D1490806BF0121081C4FF6FF70641E02F104
:201D4C000102E9D15B0A08D3400805D1490806BF0121081C4FF6FF70521C002A34DD022A77
:201D6C004FEA620302F001041DDB4FF6FF7C400040F00100844507D2480040F001010F2945
:201D8C0092BF01200F216046400040F00100844507D2480040F001010F2992BF01200F2188
:201DAC0060465B1EE3D1002C0EDD40004FF6FF7240F00100824207D2480040F001010F29B7
:201DCC0092BF01200F21101C40EA014010BDFEE7F8B503F05FFD314C256805F00C000C28D1
:201DEC0055D0E8082ED22E480068EFF3118780F311882C4EB068002103F0D4FD7169B269F2
:201E0C00091A8A4238BF002187F3118826480068884217D22548264A264D0368126828684E
:201E2C00B3FBF2F22018891A03F0B8FD2868201803F0B0FD0120FEF735FF2868201803F014
:201E4C00BDFD25E0280922D21B48690939BF016821F00101016841F0010102460160D2F83A
:201E6C0098004FF0805440F00300C2F89800D4F8B8018069014620208847D4F8B8010F4C82
:201E8C00806B2168804701202060206800E030BF03F006FD01F0F8F9F8BDC0467C260020AE
:201EAC00DC5C000078010020D45C0000D85C0000E05C0000C45C00008C2108402C200940FB
:201ECC002DE9F0430646ADF11C0D03F05FFD02F061FE4FF000090546CDF8009003F0F8FC2B
:201EEC0030F0010002D00098A84202D16FF0040059E070684C4658B1B0F1FF3F05D001A921
:201F0C0002F0B2FC30B107464CE04FF0FF3000E02046019003F036FD0199012701EB00089A
:201F2C0000E001936868019903F044FD00282ED003A802F015FBD8B9BDF8100002A902F0BD
:201F4C00F5FA88B9B368BDF80800BDF81210059A984748B1BDF81270F781BDF80800B08182
:201F6C00059B33614F4612E00599684602F0D0FD0198641CB0F1FF3FD4D00028D2D003F036
:201F8C0001FDB8EB000302D001989842C9D2009905F1080002F0E8FE24B1686803F006FDA7
:201FAC00641EFAD1384607B0BDE8F0832DE9F8430746D7F80880D8F800007D68066C16F455
:201FCC00F06F466424D1F00911D270094FD395F83C00AC6B401E844288BF041C3846214630
:201FEC0002F0ACF8A86B001BA8630DD03FE0A96B384602F0A3F895F82D10A86311B9002824
:20200C0035D101E00020A863384601F0F3FD2EE0F00A0ED3D8F80000002144684160A96B08
:20202C0004F00F04202988BF2021384602F086F819E04FF0000902E0A86B401EA863A86B1C
:20204C0088B13846012102F079F8D8F80000446814F00F04C0F80490EED0286B401E28631F
:20206C00686B401E6863EC77384601F061F8B0090BD3A96A49B10E46384602F0B9F8A8620A
:20208C0018B93846311D01F063FDBDE8F883FEE72DE9F04105462E480068EFF3118880F3E3
:2020AC0011882C4A505D411C0028515549D12A4CA900675C07F03F003F280C4401D0FFF77D
:2020CC00E7FF607800F03F003F2801D0FFF7E0FF668837F07F0019D1F80911D24FF0805485
:2020EC00D4F8B801406901463046884704F5DC742068406B0146304688470128F8D120E020
:20210C00164850F82610012088471AE04FF08054D4F8B801C069014630468847D4F8B8011B
:20212C00406A014630468847D4F8B801C06A01463046884701210A4A0A48116001688908EF
:20214C00FCD388F31188284602F04AFEBDE8F081DC5C0000AC290020045B0000D829002025
:20216C0028200860282008402D492DE9F0410968EFF3118881F311882A4B195C4A1E0129E1
:20218C001A5449D12849800045180E5C6F8836F07F0019D1F00911D24FF08054D4F8B801F9
:2021AC00806901463846884704F5DC742068406B0146384688470228F8D120E01D4850F8E6
:2021CC002710002088471AE04FF08054D4F8B801006A014638468847D4F8B801806A014687
:2021EC0038468847D4F8B801006B01463846884701210E4A0E48116001688908FCD306F002
:20220C003F003F2801D0FFF7AFFF687800F03F003F2801D0FFF7A8FF88F31188BDE8F08189
:20222C00DC5C0000AC290020045B00002820086028200840D8290020F0B52B4E06F12C0163
:20224C0038C9ADF11C0D02AA38C20AC94FF0805782E80A0044688568D7F8D001C1682868B5
:20226C008847296821488A6B10408863286840F2F2711834416494F8240094F82510C01002
:20228C000DEB80008068084329684863684603F075FB2179D7F8D00106EB81014768226854
:2022AC008B686179286856F821101943A37906EB8306B3690B430199B8470D490A1F10684A
:2022CC0040F010001060086840F001000860A87BFF2806D0E87BFF2803D0086840F4404098
:2022EC00086007B0F0BDC046985B00000DF8FFFF30100040F8B50D46EEB2290824BF264967
:20230C004D40264BB400195985EA01020240C2F3006C234A00EA05078143FF323A4000F4F2
:20232C00E0270A43B7F5E02F01D1510E15D300F4E0215CEA010710D002F4E027B7F5A027D6
:20234C0007D0B7F5803704BF22F4003242F4A02203E022F4803242F4C0221A51114CC10DDB
:20236C0004D3A4F18001C5F380528A55000E11D303F034FB290E03D201210022B14002E0C4
:20238C000121B1400A46503423688B431A43226003F020FBF8BDC046006000A000100840F1
:2023AC00007F077F802002402DE9F0414568876814460E4603F012FBA96B29B103F00AFBB3
:2023CC004FF0FF30BDE8F081AC632E630024EC776C6303F0FFFA03F001FB1E4E80463078C2
:2023EC00012804D0042001F0AFFF01203070404603F0F0FA1849086840F40070086039686F
:20240C00886B40F4FA6088636878002818BF201C1ED1696805F1900003F0CCFAB8B9AC63AA
:20242C003968886B20F4FA60886303F0D7FA0746307818B1042001F0BDFE3470384603F03C
:20244C00C9FA1027696B286BEF77401A2863686BBDE8F081281D00203010004041F21C3077
:20246C0010B5C5F200000468B4F1FF3F08BF002403F0E6F840F2844346F25C01002242F2E5
:20248C00082E012040F2801CC4F26023C4F20C011A60C4F2043E0860C4F2283CCEF8000055
:2024AC00DCF8000038B140F20010C4F2203000682046FEF795F844F20402C4F2030210684C
:2024CC00052142F24803C2F20001C4F2030320F003000143116019684FF0000EC0F2391E3B
:2024EC006FF35B414EEA01000421C4F2090118600868C0F30130012809D10A684FF6FF70BF
:20250C00CFF6FC40104040F400320A60086010BD29482DE9F84FD0F80090EFF3118589F33F
:20252C001188264CA068012103F03CFA4FF0010A4FF00008064621686769A4F81CA020681B
:20254C00A4F81E80791A321A8A42A6EB07062DD385F311884546EF195046394603F00AFA3C
:20256C00761B0546B542F6D9EFF3118B89F31188E08B012804D14046394603F0FBF905467A
:20258C00B5F1FF3F06D0A169AD1BA94238BF0D1CE91901E0A5697919284603F0E7F9A4F838
:2025AC0020A0A4F81C805D46276001E0A4F81C8085F31188BDE8F88FDC5C000078010020C6
:2025CC002DE9F041164680460D461C4606F10B00B8F1FF0FC1B214BF032002204018C0B2C3
:2025EC0002F032FD071C3CD004213970FF20787007F108037B6039727868B8F1FF0F80F812
:20260C00018017D17968B01C887020787968C870607879680871A078796848717868857135
:20262C0079682B12CB717868F21EE41C751D164608300DE07968F01C887078680123C37015
:20264C007868057179682A124A717868B51D801D2146324600F0AAF8E8B27880384601F07F
:20266C003BFEBDE8F081FEE7F8B5264C2068EFF3118680F3118824491D4D0B680420B0FAD6
:20268C0080F043F00403281A1F3002780B60521C027086F311882068EFF3118380F3118812
:2026AC000A680820B0FA80F042F008022D1AE87F0A60401CE87783F311880E20FFF7E8FC34
:2026CC000C480068C0F38150032814BF0020012009490A4A088017683FB9094C4020206095
:2026EC000123D36100204860F8BD0120F8BDC0464C2A0020B43F00504029002004800C40EB
:20270C002C500C40DC5C00007C260020F0B520480127F84201D001F093FA204D204F214EE2
:20272C00BD4206D203CD0478A4003459401CA047F6E71D48002800D08047164D164FBD422E
:20274C0002D210CDA047FAE7F0BD03251BE0416808300A1C2A400BD11A1C2A40AB4305D074
:20276C00046804300C600431043BF9D1131C05D0047801300C700131013BF9D1021C2A4016
:20278C0001D0A84304300368002BE0D17047C046FFFFFFFF0000000000000000E4600000F9
:2027AC004C610000DC60000059C50110002A4AD05FEA000C8B071CD1830722D1102A08D34B
:2027CC0070B4103A78C978C0103AFBD270BC103238D0042A2CD3082A05D30C2A24BF08C958
:2027EC0008C008C908C008C908C092072AD0920F22E00B780370491C401C521E22D08B07F2
:20280C00F7D1C30714D18307D8D0121F12D308C903801B0C4380001D121FF8D20AE008C9DC
:20282C0003701B0A43701B0A83701B0AC370001D121FF4D2121D05D00B780370491C401C02
:20284C00521EF9D16046704770B5054602F0CEF941F6FC44C2F200046668034602F02BF950
:20286C0022699B1B4FF47A715943090C801A48BF404240F6B83249198A4216D3062814DAB6
:20288C00A268E068824210D8216871B1801A44F24022C0F20F024243900C00EB124081426D
:2028AC0012D90846C82811D312E043F6AC71C5F200014868400828BF4FF4FA600DD2096833
:2028CC007D2001F0FF014843C82801D2C82070BDB0F57A6F88BF4FF47A6070BDB0B582688D
:2028EC002149507BADF1180D40F000400090107B08430190937B02F10C040220FF2B0AD036
:20290C00D27BFF2A07D0E778A0783943039140F0004002900420FF21144D4DF8201069460C
:20292C00281D00F06DF80746002F2F6008BF002018D061780F2202F0C5FA21783846102213
:20294C0002F0C0FAA178FF290BD0E078FF2808D03846112202F0B6FAE1783846122202F0FC
:20296C00B1FA012006B0B0BD0000C0A0101D00202DE98841071C3CD041F2783043F6AC726F
:20298C00C5F20000C5F2000200685168C0F3035CC0F3034E49081BD2D2F800804FEA08516A
:2029AC001CEB217C05D4BCF1100F04DB4FF00F0C01E04FF0000C4FEA08411EEB217E05D45A
:2029CC00BEF1100F04DB4FF00F0E01E04FF0000E4EEA0C1E00F47F4100F0FF02222F41EA31
:2029EC000E4142EA010208D300F080401043BDE8888143F62772C0F271021046BDE88881C6
:202A0C002DE9F843204D884606464FF0FF3105F12400814602F0CEFF002000E0401CB8F1BE
:202A2C00000F0DD018F82010FF2909D02A688A4204D905EB8101096E0029EFD000261CE02F
:202A4C000024346074600127B4600EE005EB80000B787268066607FA03F010430A680B496E
:202A6C007060304602F0EEF8641CB8F1000F04D008EB84010878FF28E8D1484602F096FF33
:202A8C003046BDE8F883C046881A0020007FC7672DE9F04107467868BE680446AC3002F06D
:202AAC008DFF1C48016830688069000921D202F095FF194D8046287820B1042001F07AFB87
:202ACC0000202870404602F085FF3168134D886B20F020008863286820F480702860606A49
:202AEC00216A091A21622369626A38469847BDE8F0814FF4FA70B0FBF1F1012998BF0121F1
:202B0C00AC34204602F04AFF204602F043FFBDE8F081C046E05C0000281D00203010004051
:202B2C0038B5042002F084F91A4C022818BF03281FD103200090164800214FF040521C2345
:202B4C0000F062FD17480068EFF3118380F3118815480421B1FA81F1401AC17F4A1E012906
:202B6C00C27703D1206820F00400206083F3118838BD094D0A48094A296803686018B2FB00
:202B8C00F3F102F00BFF2868201802F003FF38BD00A00C407C260020C85C0000A08601009F
:202BAC00E05C0000DC5C00004C2A002010B51A481A490078086820F0030040F001000860E1
:202BCC0001F09EF901F0EEFD0021154C154821600068C0680146022088471349134A086834
:202BEC0020F0010008601068D4F8EC1FEFF3118480F311880E4B0F481A680421B1FA81F10A
:202C0C00401A42F00402C17F1A60491CC17784F311884FF0FF3010BD291D00200440034087
:202C2C0040100940A00100108C210840DC5C00007C2600204C2A00202DE9F04107467E683F
:202C4C00BD6802F0CBFEB16A39B929688969090903D202F0BFFEBDE8F0810024B46202F020
:202C6C00B9FEA87BFF2806D0E87BFF2803D03046294600F0EDF82968886B20F020008863BB
:202C8C000D49086820F48070086002F0A7FE0B4D8046287818B1042001F08CFA2C7040461B
:202CAC0002F098FE706A316A091A31623369726A38469847BDE8F08130100040281D002085
:202CCC00F8B505461E480068EFF3118780F311881C4C20684FF0805640F080002060D6F899
:202CEC008C014068014601208847D6F8B001006A014614208847286906F5C675810C14BF02
:202D0C00010C04212868406A024601209047D6F88401006823210246002090472868C06904
:202D2C00014601208847206820F4C02040F480302060206840F00100206087F31188F8BD6F
:202D4C00DC5C000000200940F8B5001D84B214F0030002D0241A241DA4B202F0C3FA014622
:202D6C001948102C47680160C8BF8768388800221646C30BDD0319D126B984420ADD3A4642
:202D8C00012617E01388C3189BB29C42138011DC174618469FB1001B80B20428B4BF3C882D
:202DAC00385344F400443C803F1D08E080F40040002680B2C71938880028DAD1002708460C
:202DCC0002F0FEFB3846F8BD00260020B0B50446A768ADF1280D27BB0C20FFF7B5FF071C17
:202DEC0016D0684600212422082302F0EFFD002306976A466168ADF810301448059302F0BF
:202E0C00B1FD386038B902F0D0FB384601F06AFE6FF0030018E0E06878602069B860A760B9
:202E2C000AE002F05FFA0546386802F0C7FD2069B860284602F0C4FB3868616802F0AEFDEA
:202E4C00386802F0A7FD00200AB0B0BD53580000F8B50D46064629681B4C886B20F02000D7
:202E6C0088632068297B01F053FA2068297B0122074601F02DFD297B0022384602F022F8EA
:202E8C00A97B0022384602F01DF8B078012807D006F174004FF0FF3102F08CFD276803E06C
:202EAC00296888690009FCD2297B3846102202F009F8A97BFF2906D0E87BFF2803D0384669
:202ECC00112201F0FFFFF8BD101D0020002213460A46194671B510F0030F0BD0002A82BF1A
:202EEC0000F8011BB2F1010210F0030FF6D1002A08BF71BD11F0FF0141EA0121042A18D3AD
:202F0C0041EA0141082A0FD30E46102A08D30C460D46B2F10F0312F00F0272C0103BFCD8FD
:202F2C0012F0080F18BF42C012F0040F18BF40F8041B12F0020F18BF20F8021B12F0010F1F
:202F4C0018BF017071BD704770B50646F088F5680628A5F108052CDAB088062829DA02F0C0
:202F6C00C1F9154CF28891000C3401EBC20161184968E1B102F024FB30792870B079687021
:202F8C00307AA870F188880000EBC1002018F1684068083001F0BCFDF188880000EBC100EE
:202FAC0024186068406802F001FD002070BD02F007FB6FF0020070BD2826002010B5174808
:202FCC001A4CE06000F5877020611548ADF1280DA060684602F086FA4FF4E1300690032174
:202FEC008DF81C1000208DF815008DF816008DF81D008DF8170001218DF800108DF8011034
:20300C000848039008480490684602F023FB606002F0FDFB02F0A8F80AB010BDC02200205A
:20302C000D410000B53D0000955100004C28002038B5446885681848006802F0F8F8296809
:20304C0016488A6B1040886315480068C16828688847287AFFF788F804F1580000F022F81A
:20306C00A07818B904F1740000F020F8607818B904F1900000F01AF804F1AC0000F01AF817
:20308C0002F0ACFC0021217002F0A4FC04F1440002F016F938BDC046101D00200DF8FFFFC1
:2030AC00D0010010DFF800F061C20110DFF800F0E1C20110DFF800F0B9C2011041F2A00186
:2030CC0008B5C5F20001D1F878020B68020F03F0FF03802B28BF002301F0DAF94FF0FF31CB
:2030EC0088B1401E05D0401E1FD1F2B90A3358B208BD101C02D0801E02D016E00A2008BD00
:20310C00143358B208BD1046401E0DD0801E04D0001F04D0401E04D007E0142008BD152050
:20312C0008BD163358B208BD0A21084608BD00002DE9F04106467468B56802F04FFC0C345F
:20314C00E16A21B30027E76202F044FC2968886B20F4FA6088631049086820F40070086010
:20316C0002F03CFC0D4D8046287818B1042001F021F82F70404602F02DFCA06A616A2368C2
:20318C00091A6162A26A30469847BDE8F08102F021FCBDE8F081C04630100040281D0020B6
:2031AC0038B50079184CA0B902F09CF82178002904BF6FF00704051C13D0491EC9B22170F4
:2031CC0029B902F0FDF9606801F011F918E0054613E002F087F805462078FF2805D16FF070
:2031EC000604284602F0ECF90BE0401CC0B20128207002D1606801F015F9284602F0E0F92F
:20320C000024204638BDC046E4290020B0B5ADF1400D02F00FFC044600213C220823684601
:20322C0000F02AF81148416806918168006804901048001D0068002205900D4808916946C1
:20324C0000F01EF8071C0DD002F04CF80546384600F0A6FC30B1284602F0B2F9204602F087
:20326C00D1FB01E000F0B2FA10B0B0BD485A000059570000F0250020DFF800F0D9C10110D3
:20328C00DFF800F019AE011045F2280080B5C4F2090007686FB343F6AC70C5F200008268A9
:2032AC0002EA5201C90E24D24168890821D20021C4F20901D1F800C000681CF0050F4FEA9E
:2032CC00104000F0F00000F5E0700CD1B84210D2100F38BF4CF0010CD00E38BF4CF0040C34
:2032EC00C1F800C080BDB84284BF2CF0050CC1F800C080BD2DE9F041054615F8017B9046FB
:20330C000E461CE0B8F1000F05F101050BD0FF2C09D8022015F8011B401E41EA0424F9D1F0
:20332C0001E0042C02D315F8011B00E0394630462246FFF7CFFDA61901E006F8010B15F8BC
:20334C00010B8742F9D115F8014B002CE9D115F8010B2C7800022418D4D1BDE8F0810000CD
:20336C0003461748597802880E3915D0491E09D02F3920D0C13921D19988914217D09A78A1
:20338C00FF2011E09988914211D042F23200884214D1987800F0E5BC9988914207D033F890
:2033AC00040C0C38C2B20E209B68FFF709B94FF6FF7101807047184600F0FEBF7047C0469B
:2033CC00CC29002010B5012001F032FD012829D04AF20000342101220023C4F20C0000F01B
:2033EC009DFC002808BF00201DD08020C1F200000068804701F0FAFB41F6FC4344F24022B6
:20340C00C2F20003C0F20F029C681968D860041BA1EB91016243120C8A4224BF1A6001201F
:20342C0001D21960012010BD98B541F23403C4F2090318680004070C26D001F03CFB41F6E1
:20344C002052C2F2000292F90710814205DD10F1800FB8BF6FF07F00D0719188B94212D8CD
:20346C001468D3F8D40F001B801C1F2888BF1F207F1A4008C7404FF6FF70C919884238BF53
:20348C00011C918098BD978098BD0000F8B50D46074601F027FF064602F008FAE8B9B5F542
:2034AC00877FDCBF0021081C05DDA5F5877007F587714FF487750B4C61612A463946E0800C
:2034CC0004F59370FFF772F901200749A580A7680870781CA06001F0E3F8304602F070F836
:2034EC00F8BDC046A8220020BF29002038B502F075FA154C0546A01D008840B9FFF7B4F839
:20350C000446102000F00AF9012C0DD017E0FFF759FF60B10020E080FFF7A6F80446102044
:20352C0000F0FCF8012C0AD1FEF75CFB07E030340521204602F032FA204602F02BFA284667
:20354C0002F048FA38BDC0467C260020F8B5054605F128020CCA0846002101F0DBFF05F150
:20356C00300292E8C00036184FEA164447EB01073804044301F03AFB211AB1F1004F08D803
:20358C00011B091DC90F05D1001DA04288BF041C00E0041D04480068426A21460120904709
:2035AC00383585E8C000F8BD8C0100101549096821280ADC212819D00C380FD00D380FD09C
:2035CC00001F0FD0C01E0FD01AE0253810D0401F10D0401E10D0401E10D011E0086870471A
:2035EC004868704788687047C86870470869704748697047C8697047086A7047486A7047C0
:20360C0000207047F00100202DE9F041984600EB41001646B8F1100F06AF00F5007404D34C
:20362C00A8F1100800F50174360C3D8802F032F905FA08F545EA06450021002808BF012197
:20364C0048F20002C4F20C02106810B910680028FAD025600120106009B102F021F9BDE832
:20366C00F0810000B0B5044602F090F900F098FA054601F037FE0146A2880F480023243071
:20368C0030F80C7F5FB902804560A381A2688260686820610024084601F092FF09E0974215
:2036AC0008BF6FF00204F6D05B1C062BE8D300F08DF82046B0BDC04604260020F8B5054619
:2036CC0016460C460C2001F00FFD0746082001F00BFDDFB1D0B144604580B86076B90021B7
:2036EC000B4C01706069394600F014F8A08840F00800A080E06902F059F9F8BD01F085FE7C
:20370C00384601F082FE204601F0BBFEF8BDC04630200020DFF800F0B5C10110F8B507462B
:20372C001248134C0668301902F080F90025A419C0B9204602F076F90646B068074206D0FD
:20374C00F268316938469047C0B2012806D0304602F064F90646B442EFD103E00248006847
:20376C00804702252846F8BDD05C0000CC5C00007C260020B0B5044602F0AAF830F00100B2
:20378C0008BF6FF004041BD002F000F9054601F0A9FD0C4A062132F80C7F6FB1A388BB42BD
:2037AC0008D1526812680021954208BF0121A160002403E0491EEED14FF0FF3401F000FF7F
:2037CC002046B0BD2826002000BF704708B5FFF7FBFFFEE738B50D4C0546A06820B10C48D6
:2037EC00B0F1FF3F00D080470A4800688047606810B1014628468847206800B1804706486B
:20380C0000688047FFF7E2FF38BDC046C0290020FFFFFFFFEC290020F0290020DCB504464D
:20382C0002F0B4F801F0B6F9064602F051F830F0010014BF002E6FF0040017D0606858B17A
:20384C00B0F1FF3F05D0694601F00EF830B107460BE04FF0FF3000E000200090706800997A
:20386C0002F0A8F8002700B901273846DCBD70B504464AF200060D466008ADF1080DC4F2B6
:20388C000C0607D3A8B20021009001220B463046FFF7BAFEA00807D3A8B2009000210222DC
:2038AC0001233046FFF7B0FEE00807D3A8B2009000210C2202233046FFF7A6FE02B070BDAF
:2038CC003EB5FCF7B5FB114C002501F0CEFC0028FBD101950DF10200694601AA01F08FF8AD
:2038EC000028F2D1BDF8020010280AD12088BDF80010884205D101980178912901D1FFF766
:20390C002FFD019801F08DFDDFE7C046301D0020B0B5054602F03AF8044601F0D9FF30F01B
:20392C00010008BF6FF0040416D001F0DBFC01460A48002230F80C7F4FB143681B689C4224
:20394C0004BFAA80002404D0521C062AF2D36FF00404084601F034FE2046B0BD28260020FA
:20396C00F8B5044602F012F800F01AF9071C19D001F0B8FC84460D480021243030F80C6F5D
:20398C006EB94FF6F87202804760A180002585607868A060604601F013FE2846F8BD491CE1
:2039AC000629EBD3FFF712FFF8BDC0460426002070B5124D698804466018B0F5877F0DDD36
:2039CC00C1F587706B18C1F5877286B291B2181D00F080FEA41BA4B20021698068182146D8
:2039EC00001D00F077FE68884FF487722418A0B290FBF2F15143401A688070BDDC240020EE
:203A0C0030B5114C1020DD214FF4007204F17805ADF13C0DE0602846FFF75CFA00213C22A3
:203A2C0008236846FFF728FC4FF400700023074908906A4607950220069004F1280000F0B8
:203A4C0007F80FB030BDC0463020002069590000DFF800F025B10110B0B5124C616A0546F0
:203A6C0049B16078401E04D0401E04D128468847B0BD28468847284600F062FA07460C20E9
:203A8C0001F032FB01465FB151B120698F60FFF741FEA08840F01000A080E06901F086FFAF
:203AAC00B0BDC0463020002010B50C46F0B142680121A1400A4219D08A4342600C48002397
:203ACC0000EB840122180B6602F140010978FF291ABF406850F8211044F020410548FEF711
:203AEC0009FC20464FF0FF3101F0CEFB10BDC046881A0020007FC76738B5FDF777FD4FF050
:203B0C008055D5F8D8010F4C036801210A4620469847D5F8D80142680121204690470420CE
:203B2C0000F012FC082000F00FFC01F009F9FFF76DFB00F0A9FAFFF763FF00F005F800200F
:203B4C0038BDC04600400340DFF800F055C0011070B540680C460546AC3001F02FFF0E4932
:203B6C00687F51F82000297F4018C01D4443A96908486043B0FBF1F00849096805F1AC068A
:203B8C006430B0FBF1F1304601F008FF304601F001FF70BD40420F00985B0000E05C000036
:203BAC002DE9F843804601F09DFB0F4C03250026814654F80C7F5FB93046C4F80080014601
:203BCC00A6600A4600F012F8606018B9FFF7FEFD474501D1264601E06D1EEAD1484601F097
:203BEC00EFFC3046BDE8F88304260020DFF800F0ADB501102DE9F04106467468B76801F035
:203C0C00EDFE0E4D804628780C3420B1042000F0D1FA00202870404601F0DCFE3968886B5F
:203C2C0020F4FA608863A06A616A2368091A6162A26A30469847BDE8F081C046281D0020F7
:203C4C00F8B506460F4D104F7388002417E0A00000EBC400321851689068D26852B9AF420E
:203C6C000BD00A7855F822200346491C08461946904701E0FEF79AFD7388641CA4B2A342F7
:203C8C00E5DCF8BDDC600000E460000008B50D480D4B006890FAA0F0B0FA80F1012000FA00
:203CAC0001F21A60094A1060094802688A4207D900EB8100006E18B102680AB1C9B2904747
:203CCC0008BDC046E0200240E020026080E200E0881A0020D0B506460C4606F10B00C0B2CE
:203CEC0001F0B2F9071C18D004213970FF207870F31C7B8007F108027A60397278683E236A
:203D0C004370786886702EB1786821463246C01CFEF74CFD384600F0DFFAD0BD70B51E46F9
:203D2C000C181546102E02D3103EA41C2D0C01F0B1FD0021002808BF012148F20002C4F2DB
:203D4C000C02106810B910680028FAD024880120106009B101F0A4FD05EA0400304180B27F
:203D6C0070BD38B505460C460F2001F06DF9D0B104210170FF2242700723438000F1080327
:203D8C004360017242680F235370426891704168CD70416801230B7141684C714268211245
:203DAC00917100F099FA38BDB0B5174601F09AFA0D4C054657B1384600F058FCB84205D0F9
:203DCC00A26842B161884FF487709047A26812B1B8B20021904700202080606801F044FCF8
:203DEC00284601F0EDFBB0BD4C2800200C4885460C4885446F4607208743BD460A486F4683
:203E0C0007600A48002803D07946491D8E460047FEF77CFC01F072FB00F00AF8FEE7C046FA
:203E2C00D43F0020000400008C27002009590000DFF800F0D1C7011038B50F4C2C34A4F15D
:203E4C002C01086820F00100086054F82C1C4FF0805541F0800144F82C1C01202060D5F8F4
:203E6C008C11226849688847D5F8B001006A014614208847206838BD0020094098B50446E0
:203E8C002420FEF761FF071C14D000212422082301F0B4FD2079012804BF01203876A068E6
:203EAC0039460022FFF7A2FEE060384600F01AFEE06810B96FF0030098BD002098BDD0B537
:203ECC0004463C20FEF740FF071C14D000213C220823FFF7D1F9207AB86160893862E0680D
:203EEC003861606839460022FFF7CAF90646384600F0F8FD16B96FF00300D0BD0020D0BDE1
:203F0C0010B54FF08054D4F8900181680120884741F21401C4F209010868800902D2086842
:203F2C008009FCD3D4F8A00101684020884704F5D07420688168402088471128F9D110BD6B
:203F4C00B0B50E4C0546256001F0BEF8071C0FD0002038702068408801F096F87860226824
:203F6C0050887880786818B151685288FEF71EFC284601F07AFA3846B0BDC0467429002099
:203F8C0098B50E4C606900F01BF8071C15D0216A69B1207858B1401E02D0401E0AD103E008
:203FAC00B86801F0A5FB216AB868884702E0B86801F09EFB384601F028FA98BD30200020E8
:203FCC00DFF800F0A9C10110012810B515D1012000F02EFF012812D001F09EF9094C012078
:203FEC00E0803034204601F0E9FC0521204601F0D5FC204601F0CEFC01E000F0D3FB002087
:20400C0010BDC0467C2600200C4810B50068EFF3118480F311880B48C088012809D108480D
:20402C00342101220023FFF779FE002808BF002000D0012084F3118810BDC046DC5C000051
:20404C0000A00C407C260020B0B504460D48026840680F4600211200401841EB020104F18C
:20406C0028020CCAFDF7E4F805460B4647B104F1280003C82A4601F04DFA303484E803006D
:20408C002846B0BD0820094000B500213C220823ADF13C0D6846FFF7EFF8084800F17C0139
:2040AC0007914FF42171089101210691044900236A462C30FFF7CCFC0FB000BD301D002012
:2040CC00CD38000070B50446606810F07F4F18BF6FF0020011D101F005F9084D0646287880
:2040EC0028B1686800F083F9606800F09BF960686860304601F064FA002070BDE429002084
:20410C00B0B50C4C002520800F46658010B1216901B1884747B1E2680748E188057022B1C9
:20412C0021B9114638468847E18811B16069FFF7ADF9B0BDA8220020BF290020F8B54468AD
:20414C000C4E85680F46303408E021680870206863687F1E401C2060581C606047B106F17B
:20416C000C000068016928688847B0F1FF3FECD13846F8BDC40100101CB51446CA78012ABA
:20418C0002D18A880A4B1A8000F01AFD30B9002000906946204601F059F818B101F082F814
:2041AC00044603E00098447801F053F920461CBDCC2900200C4910B50968EFF3118481F36B
:2041CC0011880A49B0FA80F2891ACA7F531E012ACB7703D1034A11688143116084F3118822
:2041EC0010BDC0467C260020DC5C00004C2A0020F8B5446885680F1C04F1200411D00A4E8D
:20420C0030682168826909782868904748B1206863687F1E00F10100206003F1010060608E
:20422C00EED13846F8BDC046D00100102DE9F0410446984616460D46102000F015FF071C24
:20424C000ED04146062201F0F7FA3C817D81FE6000F02AFF069A3946FFF78EFFBDE8F081F9
:20426C000420BDE8F081000010B504460B4802680023D90750080143D007801A4FF47A72ED
:20428C009941FCF7D5FF002908BFB0F1004F28BF6FF000406060002010BDC046E05C00001C
:2042AC0084460C4898B50F4601888FB1041D4FF48773625C491C0CF8012B7F1E89B291FB54
:2042CC00F3F202FB03F2A1EB02018AB2F1D1028098BDC046DC24002010B5FFF731FE04463D
:2042EC000C2000F001FF014674B169B18C60207850B9064C2069FFF70DFAA08840F0100043
:20430C00A080E06901F052FB10BDC0463020002010B50C460A490A68A2420FD901EB84018E
:20432C00096E88420AD101F059FB064B1A680121A1408A431143196001F04CFB10BDC04695
:20434C00881A0020D02002400C4938B50968EFF3118581F31188074B07491A68B0FA80F4E3
:20436C00091B1043CA7F1860521CCA7785F3118838BDC0467C2600204C2A0020DC5C0000AE
:20438C0010B50C4600F032FC211AB1F1004F08D8011B091DC90F05D1001DA04288BF041C7A
:2043AC0000E0041D03480068406A214602460120904710BD8C0100100EB581780C2915D1AB
:2043CC000C218DF80010C3788DF8013082888DF80220111283798DF80310C2798DF80430C2
:2043EC0069468DF805200620FFF774FC0EBD38B50546012411E0C0F11F0004FA00F10528C7
:20440C0081EA050504DB401FC0B2FDF7ADFE04E004FA00F0C0B2FFF7CDFEB5FA85F020285B
:20442C00E9D138BD38B50546012411E0C0F11F0004FA00F1052881EA050504DB401FC0B262
:20444C00FDF726FE04E004FA00F0C0B2FFF77CFFB5FA85F02028E9D138BD98B50446A068C9
:20446C0058B1B0F1FF3F05D0694600F0FDF930B107460BE04FF0FF3000E0002000906068FF
:20448C00009901F097FA002700B90127384698BD41F21830C5F2000001684BF69A10C1F3E0
:2044AC000F31884208BF00200BD02430884208BF012006D04BF6203088420CBF02204FF0C1
:2044CC00FF30704738B50446A1686068086001F030FA48B1002506490095064AA368097881
:2044EC0000F042FA284638BD6FF0030038BDC0464F5C00001548000000B50820ADF1140D20
:20450C00ADF800003821ADF804100020ADF802000290684600F067FD0348BDF80C104180A0
:20452C000499C16105B000BD30200020024680B5062A0CDA094F900000EBC20007F130027C
:20454C00175A13181FB14FF6F870B84202D14FF0FF3080BD18880880002080BD04260020EF
:20456C0010B5044601F012FA00F014FB002808BF6FF004000DD0083000F06FFAA06038B17B
:20458C0010F8081CA18010F8070CE080002010BD022010BD10B5044600212C220823ADF124
:2045AC00300D684601F0A0F9E0200890A168606800236A4600F008F8002818BF002001D15D
:2045CC00FFF704F90CB010BDDFF800F079AB011010B5044600212C220823ADF1300D684625
:2045EC0001F082F9E068A1680890606800236A46FFF7EAFF002818BF002001D1FFF7E6F81B
:20460C000CB010BD10B5044600F06CFE094B0022014633F80C0F30B1A04208BF94B203D0F6
:20462C00521C062AF5D3FF24084600F0C9FF204610BDC0462826002000B50823ADF1140D99
:20464C0003900949ADF800304A88ADF802308989ADF804206846ADF8061000218DF80810E9
:20466C0000F0C1FC05B000BD302000200B4AF8B511880746002087B1D46802F114030546CE
:20468C00B1F5877F09DA1E5C66541D544E1C401CB1B2C0B287421180F2D8F8BD4C280020D2
:2046AC000A4870B5058800F01DFE094C064621696068658000F0E2FFB0F1FF3F04BF002074
:2046CC006080304600F07CFF608870BDAC2200204C28002070B503460C4600F065FDA04282
:2046EC0002DA00F061FD0446064D6988184622460E4649191831FEF759F8A419A0B26880F4
:20470C0070BDC046A822002098B50B4C10342068FFF756FC071C0DD0B8684068A060B968CF
:20472C0048684988FEF7B2FEB86800F06EFE384600F06BFE98BDC04630200020010446F2EC
:20474C0044020B0CC4F20C02C0F3074142F8083C012042F8041C40F68401C4F28C3110609A
:20476C00086810B908680028FAD000201060704738B505460C2000F077FC041C0DD0294618
:20478C00002201F059F84FF0FF30A06000F08CFC034A2146FFF7F0FC38BD042038BDC04619
:2047AC00954A000008B503200021FFF760F8012000F03EFB20B18020C1F200000068804722
:2047CC0000F014FA41F6FC43C2F20003586000F072F9186108BD1078802811D1508840F235
:2047EC007F6181420CD190883F21B1EBA02F07D1C0F3C211052903D100F07F00834201D0E5
:20480C00002070470120704710B5401E0C460DD0401E09D0801E05D0001F01D0FEF7D6FF27
:20482C00052004E0002002E0042000E00220226821469047002010BD38B5094CE82100201B
:20484C00218040F61472A4F8FC0F04F1E8010A80044D6961FEF778FAA8616C6138BDC0468D
:20486C0008020020F02500200A4A10B512680C464FF47A710023A1FB0001FCF7D9FC002909
:20488C0008BFB0F1004F2EBF6FF002002060002010BDC046E05C000038B50A4D002420468A
:2048AC00AC800146AC6100F00FF828612046014600F00AF86861FFF71FFE00F007FE00F08C
:2048CC00ABF938BD30200020DFF800F021B9011080B517460246084803688B420AD900EBE1
:2048EC008100006E824205D1002207B101220348D038425480BDC046881A0020D020024006
:20490C0010B50C2000F0B0FB041C0BD00521042200F0D2FE0448A06000F0C6FB034A214647
:20492C00FFF72AFC10BDC046381D00206359000010B501F06FF801F07DF8032000F010F8AD
:20494C0006481030006830B1034C204600F0A4FE204600F09EFE10BD9D560000A4010020B6
:20496C00DFF800F045C0011098B517460A46011C14BF002F032009D0064C8A600448CF6082
:20498C0022680B61801800F007F8002098BDC0467C260020CC5C0000DFF800F02DBF011065
:2049AC00094838B50068EFF3118580F31188074CA41D2088012803D1FEF704FD0020208052
:2049CC0085F3118838BDC046DC5C00007C26002020280FD341F29830C5F200000168080375
:2049EC00820D920500F47C1001F00F01104340EA0130704748F20000C4F23F0070477FB585
:204A0C000646082014460D46ADF800000920ADF80200684600F0E7FABDF804103180BDF846
:204A2C00061029800299216000907FBD7FB50646082014460D46ADF800000920ADF80200F9
:204A4C00684600F0D0FABDF804103180BDF8061029800299216000907FBD98B5044600F085
:204A6C0041FC2168002908BF002709D00F4657F80C2C2260002347F80C3CFF2401F8024C02
:204A8C0000F09EFD384698BD1078911D802810D1508840F27F6383420BD19088032818BF46
:204AAC00042806D1097831F0100014BF1129012000D00020704745F2280041F20C31C4F2DB
:204ACC000900C5F20001826891F900100068A0F540704143091142F31000401A80300012D9
:204AEC007047000010B5044600F0FCFB074934F8042C6FF3DF3224F8042C4A680860241F35
:204B0C00944238BF4C6000F05BFD10BD0026002038B50C46054600F0E5FB002144F80C1CD6
:204B2C00296811B92C6006E0114651F80C2C002AFAD141F80C4C00F043FD38BD10B504460A
:204B4C0060680C3080B2FEF7FFF850B1A18800230181FF22036000F10C0182721846A16083
:204B6C0010BD6FF0030010BD38B50546FFF7F8FC041C0DD1A8886946FFF7D8FC28B1A8687B
:204B8C0000F05BFC6FF0050038BDBDF80000A880204638BD38B5054600F0A4FB074C0322F2
:204BAC00014654F80C0F18B1A84202D0521EF8D10024084600F004FD204638BD0426002075
:204BCC0000B5ADF1140DADF8040003910822ADF80020ADF802201020ADF8060002208DF8E0
:204BEC000800684600F0FFF905B000BD38B500F051FE0021002808BF012142F20800C4F249
:204C0C000900046845685FEA010E01D000F048FE200440EA154038BD10B500F063FB044612
:204C2C00054907481838C16004490161FEF7C6F9204600F0C5FC10BDAD4E0000C54D000006
:204C4C00C022002038B5094B1C6802F0FF05AC420AD902F0FF0403EB84031B6E984203D119
:204C6C0008461146FDF746FB38BDC046881A002070B506460D460A2000F0F6F9041C0CD0C8
:204C8C002946102200F0D8FD304600F0E4F8207200F00AFA2146FFF793FF70BD10B50C46A7
:204CAC00ADF1180D02900821ADF8001019216846ADF802104FF0FF31019100F094F90499FB
:204CCC00216006B010BD80B5107802AF80280DD1508840F27F61814208D19088834205D197
:204CEC0038789179884208BF012000D0002080BD10B5082000F0B8F9041C09D00221112232
:204D0C0000F09AFD00F0D0F9024A2146FFF734FA10BDC0463758000070B141F27430C5F25F
:204D2C00000001684FF6FC4CC0F2FC0C01F07C420CEA0100104370470020C6F688007047EC
:204D4C00084A0021032002F1140343F80C1F401E9960FAD144320620401E22F80C1BFBD118
:204D6C0000F09CBBF025002098B50F46044600F0B9FA57B13A4600E00A4652F80C1C0029C9
:204D8C00FAD1216842F80C1C276000F019FC98BD0EB50820ADF800000120ADF8020068466A
:204DAC0000F021F90349BDF804000880029848600EBDC046301D002010B5044600F019FDBB
:204DCC00A04209DDA0B2FEF7F3FD044802214181C06900F0EBFD10BDFEE7C046302000206E
:204DEC0010B50E284FF0010403D00649085C28B105E0204600F01CF8012800D00024204637
:204E0C0010BDC046AC29002008B5283090E80C0005A003C8FCF70CFA002908BFB0F1FF3FED
:204E2C0088BF4FF0FF3008BD00000000907E000001464AF200000429C4F20C0005D1342141
:204E4C004FF0C0421D23FEF769BF34214FF080521C23FEF763BF0EB5ADF806005021ADF868
:204E6C00001068460021ADF8021000F0BCF8002814BFFF209DF808000EBD0EB50820ADF8DA
:204E8C0000002020ADF802001020ADF80400684600F0A9F8002814BF002002980EBD000087
:204EAC0010B5074CA06920B1A06900F0EAFA0020A0610420E080E06900F078FD10BDC046F1
:204ECC0030200020074B10B51C688C4208D903EB81031B6E984203D10846114600F0D4F901
:204EEC0010BDC046881A00204268B1F1200002F12D0307D0401E12BF6FF00100002082F882
:204F0C002D0070470120187000207047074808B51030006828B1034800F0BEFB024800F066
:204F2C00B8FB08BDD551000039550000A4010020074810B51030006830B1044C204600F031
:204F4C00ABFB204600F0A5FB10BDC04601050000A4010020074808B500F00EF8FFF7D6FF3E
:204F6C0000F00EF800F010F800F012F800F014F808BDC0463D490000DFF800F081C60110D1
:204F8C00DFF800F095B70110DFF800F08DC20110DFF800F03DC20110DFF800F009C301103F
:204FAC0010B50648064900684C684068014601208847A06901466069884710BD8C01001036
:204FCC00E401002050B141F27030C5F200000068020400F47C01100C0843704747F28A6015
:204FEC00C0F26800704710B50446208800F09CF838B1816811B12046884710BD6FF00100A3
:20500C0010BD4FF0FF3010BD60B141F25031C5F2000108680968C0F3870001F0030140EAC5
:20502C0001207047D820704720280BD341F29830C5F200000068C10C01F44071C0F38450A3
:20504C0008437047002070470EB501900821ADF8001068460221ADF80210FFF7C4FF0028D0
:20506C0014BF002002980EBD0EB501900821ADF8001068460221ADF80210FFF7B4FF002841
:20508C0014BF002002980EBD0EB501900821ADF8001068460221ADF80210FFF7A4FF002831
:2050AC0014BF002002980EBD0EB50820ADF800001A20ADF802006846FFF795FF002814BFE8
:2050CC00FF20BDF804000EBD0EB50820ADF8000001900421ADF802106846FFF784FF0028D5
:2050EC0014BF002002980EBD0EB501900821ADF8001068460421ADF80210FFF774FF0028FF
:20510C0014BF002002980EBD08B54288292A28BF6FF0010004D203490C3151F82210884761
:20512C0008BDC046545A000008B5FFF76BFAFF2808BF002004D0034B810001EBC001581804
:20514C0008BDC046342600200648018840884FF48772401A00F5877090FBF2F15143401A81
:20516C0080B27047DC24002010B500F0BBF80446044800210180406800F076FA204600F01C
:20518C001FFA10BD4C28002010B500F0ABF804460448826812B1418800209047204600F0D8
:2051AC000FFA10BD4C2800200648418800884FF48772401A00F5877090FBF2F15143401AFC
:2051CC0080B27047A822002010B5064C206900F00BF80146A06800B9E160A068401CA060B0
:2051EC0010BDC046A4010020DFF800F049C201100648026840680021120040184FEA1040B4
:20520C0041EB0201090408437047C0460820094010B50446E088FFF7F5F9FF2808BF4FF045
:20522C00FF3003D0E0802046FDF78EFE10BD10B5044607E090FAA0F0B0FA80F0C1B220464A
:20524C00FEF732FC60680028F4D110BD38B50D460446FFF712FE002818BF6FF0040003D1D7
:20526C0020462946FFF71AFD38BD0EB50820ADF800000A20ADF802004FF0FF30019068463D
:20528C00FFF7B1FE0EBD0000002948BF0021044A02EB8000026861F3050202607047C046A2
:2052AC000010084050B110F1040F08BF042006D010F1030F0CBF0220012070470020704705
:2052CC00054910B50968EFF3118481F3118800F005F884F3118810BDDC5C0000DFF800F0F1
:2052EC0021C1011010B500F0A5FB80B260F30F0400F074FB80B260F31F44204610BD1CB577
:20530C00044660686946FFF7AFFA20B9009860602046FDF75BFD1CBD08B503200121FEF76E
:20532C00A6FAFFF763FC41F60451C2F20001086008BD41F29420C5F200000068C0F3024003
:20534C000228C8BF4FF0FF307047222807D341F28C30C5F200000068C0F30070704701203E
:20536C007047222807D341F28C30C5F200000068C0F34070704701207047202807D341F2F1
:20538C009830C5F200000068C0F30150704700207047222807D341F28C30C5F20000006856
:2053AC00C0F3C06070470020704738B141F27C30C5F200000068C0F30D00704740F2FF30C1
:2053CC007047222807D341F28C30C5F200000068C0F3455070470020704708B5406810F09D
:2053EC007F4F18BF6FF0020002D1FFF700F8002008BD08B5406810F07F4F18BF6FF002008A
:20540C0002D1FFF70FF8002008BD0EB501900821ADF8001068460521ADF80210FFF7E3FD38
:20542C000EBD0EB501900821ADF8001068460321ADF80210FFF7D7FD0EBD0EB501900821C8
:20544C00ADF8001068460321ADF80210FFF7CBFD0EBD0EB501900821ADF800106846032175
:20546C00ADF80210FFF7BFFD0EBD0EB501900821ADF8001068460321ADF80210FFF7B3FD8B
:20548C000EBD0EB501900821ADF8001068460321ADF80210FFF7A7FD0EBD000004480821A0
:2054AC00A0F844100149C164FFF7C6B915510000F025002010B50446A088FDF745FC0028E1
:2054CC00A06014BF00206FF0030010BD08B500F045F903480149086008BDC046682900203A
:2054EC00C9360000044910B51CC91CC01CC91CC00EC980E80E0010BD505C00000449B1F158
:20550C00FF3F07BF0020011C0868091DFEF7F4BAFFFFFFFF30B502FB01F403FB00444FF0B1
:20552C000005E2FB00542146284630BD04498868401E886003D10869C96800F003B870470C
:20554C00A4010020DFF800F04DC20110012814BF002040F2FF700249086000207047C04646
:20556C000000046004480268406800211200401841EB02017047C0460820094003480449DD
:20558C000068814201D0FCF782BD704798CA01107047282038B141F28C30C5F200000068B1
:2055AC00C0F3C14070470020704708B50820ADF800000C20ADF802006846FFF714FD08BDC6
:2055CC0008B50090BDF8020000F004FABDF8000000F018FA08BD08B5406820B1006800F0C3
:2055EC00EDF9002008BD6FF0020008BD10B50446FFF79EFC0320FFF7B3F92046FEF718FCDB
:20560C0010BD000008B5034B00930323FEF70EFE08BDC0465D59000038B50546FEF7F4FC4E
:20562C00002400B1012400202C7138BD0349891C0988914201D1FEF70FBA704730200020A6
:20564C0008B5FEF725FF18B9FDF738FD162800DAFEE708BD0146034808B50268D2689047E2
:20566C0008BDC046745C000008B501680B6902492022984708BDC0466028002008B50268E3
:20568C00D369024A921C1288984708BD4C28002070470349086070470149091F0860704743
:2056AC00F02900204FF0FF31421E12F8010F491C0028FAD108467047812342EAC112037049
:2056CC0042F47C4282800023C370704708B500F007F80248006800F007F808BD8401002004
:2056EC00DFF800F067BE0110DFF800F021B3011010B504466068FEF79FFF2046FFF785FEAC
:20570C0010BD00B50A21ADF12C0D684600F002F80BB000BDDFF800F00DC30110024800787F
:20572C000121FFF7A5BAC046301D002010B504466068FDF789F8A060002010BD024909687E
:20574C00416000207047C046E05C00000246024808B5904708BDC046545A00000248801CFE
:20576C0000780021FFF784BA30200020406800210170014801707047281D0020042808B5E7
:20578C0002D10846FCF758FD002008BD10B5044600F0A4F86060002010BD08B500F04AF977
:2057AC0000F01CF9002008BD08B500F005F800F007F8002008BD0000DFF800F055C1011087
:2057CC00DFF800F043C2011008B540680C38FFF789F9002008BD10B5044600F0D3F8606050
:2057EC00002010BD006801092CBF042000F00300704708B5FFF7A8FCC0F5877080B208BD8B
:20580C0001461628A8BFA0F120010846704708B501684B6800222021984708BDD0F803200E
:20582C00C31D08461946FCF7C1BF08B5112002230090FFF748FA08BD8223037081808271B0
:20584C000023C370704708B5014688684968884708BD08B5406800F003F8002008BD0000C1
:20586C00DFF800F081C2011008B5406800F002F8002008BDDFF800F085C2011008B5406849
:20588C00FFF730F9002008BD08B5406800F08EF8002008BDEFF3108072B670470020704710
:2058AC00EFF3108062B6704700207047014800787047C046BF29002008B5FEF7EDFFFCF7AD
:2058CC0015F908BD08B506200090FFF7FCF908BD0148007D7047C046A401002001480079BC
:2058EC007047C0467C26002001B9014900F002B8A0010000DFF800F0F1C5011008B5FCF790
:20590C00ADFDFFF73BFE08BD08B5FFF749F8002008BD01468888891DFEF708BE40689030E4
:20592C0000F044B84068743000F040B80320FEF71FBF1420FDF708BA4FF0FF3070474FF0F7
:20594C00FF3070470122FDF7D5BC0420FEF710BF0323FFF7B7BF0423FEF73DBFFFF7ACBFBA
:20596C0000207047DFF800F0EDB30110DFF800F0BDBE0110DFF800F00DA80110DFF800F025
:20598C00F9BF0110DFF800F0D9B60110DFF800F0E5C10110DFF800F0E3BF0110DFF800F00C
:2059AC00C1C20110DFF800F095C00110DFF800F041AC0110DFF800F0CDA00110DFF800F049
:2059CC0025C20110DFF800F079B50110DFF800F085C10110DFF800F019C20110DFF800F025
:2059EC0049C10110DFF800F029AF0110DFF800F03DC10110DFF800F009B70110DFF800F09B
:205A0C00C1C10110DFF800F049BA0110DFF800F0E1B50110DFF800F0D5C00110DFF800F06A
:1C5A2C00D9C20110DFF800F0D5C20110DFF800F013C10110DFF800F0F5C001100A
:205A4800017000000500000020030000F34F0000F1520000CD550000713600006D390000B1
:205A6800494B0000D5570000C154000089580000552F00006D4500001D520000754B000003
:205A8800293800009558000081040000755800005F580000B5570000A7570000A1450000B7
:205AA800E35700000B53000049570000754200001F590000AD310000D1440000CD1E000099
:205AC8001D390000D92D0000E3550000D1400000FF530000E753000081370000255600005A
:205AE80099570000CB3E0000893E0000674400001559000039570000DD4500008F3F000045
:205B08008F3F01008F3F02008F3F0300903F00018F3F0101903F0002903F00038F3F0104F7
:205B28008F3F00058F1208048F3F00048F3F0006513F00007F3F01003F3F04003F3F0200E6
:205B48003F3F01007F3F02007B756E6B6E6F776E2D696E7374616E63652D6E616D657D00A6
:205B68007B656D7074792D696E7374616E63652D6E616D657D00C0467B7374617469632D70
:205B8800696E7374616E63652D6E616D657D00C00000000008000000000000002000000075
:205BA80040000000600000000000000006000000020000008600000082000000000000002D
:205BC800080000001000000018000000200000003D300000F54E0000795700008117000055
:205BE800B5230000455900003D310000F91900004B590000452C00007FC80110C9BC0110A4
:205C080051B2011037C20110BDAD0110C1B10110B92B000071BA011069BB011021C0011019
:205C2800EBC70CEEC90CF1CB0CF44B14F74E19FA521DFD582500613101144202184E031C0F
:205C48005A0424930530930F00000000FFFFFFFFFFFFFFFF00000000000000000101010154
:205C680000C201000300000000000000D85B0000641B0020A05C0000000000000000000088
:205C8800000000000100000000000000000000000000000001000000001000401500000095
:205CA800060000000302FFFF45B5011099A6011019B80110285C00000D07000010000000EE
:205CC8005000000008000000DB1D00006400000082000000200000000A000000DD1D000062
:205CE8000015000011150008BD00F34F000078290020F1520000CD55150E000802002015D2
:205D08007000010000008426002084260020AC2600209C0100201510006309150600CC2629
:205D280000208C260020151000F9341506009C010020AC26002010270000102715060001C3
:205D48000000002D2B15060007100000384035002D400140028460005D40014000F8011881
:205D6800A384070083057EA40306E0EA2306010088604500C300380103040102638400002C
:205D8800738438003540014008047F17AC526003A302AD01630268011504FF402700204013
:205DA8002700201504000115070004150800020000881800201504000BC20110151000015E
:205DC80015170001150B00C5A7150600D956150800010098280020C5A7150E00C5A71506A4
:205DE80000C5A7150600190880801B08808007088080060880800B2000C0132000C00C20A9
:205E080000C00F2000C0122000C00D0080800400C0800500C0800E00C0800300C080FF00B3
:205E280000004002150A0001150500010028280020282800204002150A0001150500010080
:205E48004428002044280020153C006509000003000000FF002C150D00AD4F000003000014
:205E680000FF0014150500B0280020B0280020B8280020B8280020C0280020C0280020C825
:205E8800280020C8280020D0280020D0280020D8280020D8280020E0280020E02800201DC5
:205EA80025150A000500000020150F00D828002015040010290020102900201829002018E9
:205EC800290020202900202029002028290020282900203029002030290020382900203812
:205EE800290020000001153500010A1B00EC260020BC5C000003030000D0290020D429007A
:205F0800202C010000CC01000008000000081200201504008006000008151F000100000041
:205F2800FFFF150A0059550000D53F00006D59150600060000009D5600009D560000F42990
:205F48000020F4290020FC290020FC290020042A0020042A00200C2A00200C2A0020142ACC
:205F68000020142A00201C2A00201C2A0020242A0020242A00202C2A00202C2A0020342AA9
:205F88000020342A00203C2A00203C2A0020442A0020442A00201510004027002015000072
:205FA80000000000000000000002020400522A0020542A0020582A0020020400D43F0020BC
:205FC80000040205002001010000341C0020020C0002000000000000000201020B000102F9
:205FE8000B00102900200210005C2A002002040034010020340100203C0100203C01002013
:206008000200000000000000000202080090270020E02800200100000001020F008C2600A6
:2060280020CC260020020000000000000000000000010105006CDC0201080030280020034F
:20604800010700614F0000F95500000100000000000201021300B028002002040002000019
:20606800000000000000000000010104009027002001000000000000000101001B220001FA
:206088000000000000000000000108000000010000000000000000000001010400010000E7
:2060A8000000000000000000000101080001000000000000000000000001010800010000C2
:2060C8000000000000000000000101C800010000000000005159000029580000E85C00007E
:2060E800301D0020B05F000044010020E05F000000010020106000007801002038600000B6
:20610800A401002058600000C801002070600000E401002080600000080200209060000042
:2061280000020020A0600000EC010020B0600000F0010020C0600000F8010020D06000009E
:046148000000002033
:020000040001F9
:20FFA80000008001100082FFFDFF58003AFFBFF3FFFFFFFFFFFFFFFFFFFFFFFFFFFFFFFFF8
:20FFC800FFFFFFFFFFFFFFFFFFFFFFFFFFFFFFFFFFFFFFC5FFFFFFFFC5FFFFFFC5C5C5FF5B
:18FFE800C5C5C5FF00000000FFFFFFFFFFFFFFFFFFFFFFFFFFFFFFFFC3
:00000001FF
