:20E000002DE9F04F0F460546ADF1240D0DF010FA974C2868206068686060A868A0609548C5
:20E02000804795492068086060684860A06888609248C86018300861914880479149206836
:20E04000086060684860A06888608F48C8609C30086107B3387B8DF81E007E7B8DF81F60B7
:20E060000DF11E000CF0D8FC386908B187490160786908B18649016086483978017079787E
:20E080004170B9788170F978C1707E684660BD688560BB69C360804F80495020BA1C07F158
:20E0A00010030DF0CDFAA14648B108200C26ADF81800D9F80010ADF81A6006A88847D9F844
:20E0C0000400804700264FF0080AB0468346754C73482671000BE670C5B2A670401CC1B26F
:20E0E00025703046617028E02846314604AA04230DF047FA049BA078B3F5801F0ED043B96C
:20E10000B8F1000F03D0404609F059FCA078A84610E0284609F053FCA0780BE0002804BF06
:20E12000281CA57006D009F04AFC284609F047FCA670304661786D1CEDB2A942D4DA80B968
:20E14000B8F1000F05D1207809F029FC0420E0800FE084F8028009F063FD404609F04EFCE8
:20E1600007E0B8F1000F02D0404609F028FC09F057FD3446BC604C4804604C4B5E80012515
:20E180001D7014200DF03CFAFF211422B86206F017FB381DFF21032206F012FB14200DF045
:20E1A0002FFA4349086008681422314606F008FB304601F063F828460DF04AF83D480188AF
:20E1C000FF2906D1022101807822001D314606F0F7FA03200BF062FE04200BF020FD0520A8
:20E1E0000CF0EAFD06200BF0FAF8072000F06CF8314880F800A003F094FC3048092621468C
:20E2000007AA05AB067010200DF01AFAB86A9DF81C1041729DF81C10C1740A309DF81C105F
:20E22000761E00F8011BF9D106F08CFC7861D9F80010ADF800A01420ADF802006846884797
:20E240001526ADF808A00198ADF80A60D9F80010B86102A888470398D9F80810801EF861A0
:20E260005846884706F0B0FC09B0BDE8F08FC0464C480020014C01102C4F002000C101003D
:20E2800001500010E84800209CBA01001F0B01004B0B0100F446002030460020214B010097
:20E2A00000D001006C4800206848002038470020B0480020B8440020EC4300204C47002014
:20E2C000DFF85C1C0870704738B5DFF8584CDFF8585C20762878C0000DF092F9E061C8B195
:20E2E000002108E04FF6FF7220F8312000EBC10300225A60491C2A789142F3DB052000F0AE
:20E30000AEF8207E02F0CDFCBDE83240DFF81C0C0BF05EBB31BD38B50C46200418D5DFF8BF
:20E32000040C007E06F077FA05000ED02878B02808D1284600F004F920B1297905F10800E8
:20E340000BF09EF9284606F020FA84F4004032BD002032BD7CB504001D460CD0ADF80010CE
:20E360008DF80220019400A802F02FFC060019D1C5B164890CB9022614E00C200DF040F906
:20E3800008B913260EE00021016084808560DFF8A01B0A6812B9086004E00A46116800291D
:20E3A000FBD11060304676BD30B50D46DFF8801B0446086883B0002201E00246006890B1ED
:20E3C0008388A342F9D10368002A0CBF0B6013600DF027F900A9204602F043FC10B90DB161
:20E3E000019929603EBD01203EBD70B558BB012927D1DFF8300BC16900230C2601E05B1CA0
:20E40000DBB2DFF8244B2478A34216DA31F833404FF6FF75AC42F2D0002400E0641C457E6C
:20E42000E4B2AC42EBD201EBC3056D6806FB04552D88002DF2D0012070BDBDE870401078E9
:20E440000DE0182070BD022070BD0022002803BFDFF8D00A407E08700222104670472DE9E1
:20E46000F843DFF8C07A0446002078760C25F869DFF8B46A406805FB04F868B10DF0D1F8EE
:20E480000020002204E0F96901EBC001401C4A60C0B231788842F6D3307808FB00F080B2C6
:20E4A0000DF0AEF85FEA000927D0307808FB00F20021484606F084F900200FE0516805FBE9
:20E4C0000CF34FF0000E23F801E059180CF1010CC1F808E0A445F1DBC144401C3178C0B2A7
:20E4E000884207D2F96901EBC0024FF0000CC2F80490EFE77C76002000E01320BDE8F283BB
:20E5000001460020C90705D5002310220121DFF8240D1FE7704701460020C90704D5DFF8C7
:20E52000140D408900213FE77047DFF8041A096821B18A888242FAD188687047002070479C
:20E540002DE9F04387B004460020ADF8100001208DF81200DFF8CC59286A38B90CF048FAA7
:20E560000DF04EF80028286200F0E48018220021284606F025F92079022800F1010804F1C3
:20E5800008074FF6FF7917D006282CD008282FD00A2832D00C2855D00E2800F0888010287C
:20E5A00000F08A80122800F08C80162800F09080182800F09480BAE00CF01AFA28802946E8
:20E5C00060880BF0CDFF00283988288804D0814228BF014629809DE0814228BF014660882F
:20E5E0000AF0BCFFA3E004A9204600F0ADF87AE004A9204600F02FF975E000F0A0F80600D3
:20E6000050D0608805AB4A460B210AF0FDFF03006B6023D02079BDF81620039000953146AC
:20E62000BDF8140000F0A1F900F026FA060004D1608829460BF0DEFF29E0162E686808BF89
:20E6400000262BE000F07BF806002BD0608805AB4A460D210AF0D8FF686020B93888ADF8F8
:20E660001000112643E02179BDF8162003910346BDF814100291798801910095314600F0D3
:20E68000FBF9060006D1608829460BF0C1FF002840D129E0162E686808BF00260CF04BFC11
:20E6A0000EB921E001263888ADF810001CE004A9204600F05EF916E004A9204600F0E3F9CB
:20E6C00011E00DF1120204A9204600F07EFA0AE00DF1120204A9204600F0BFFA03E004A974
:20E6E000204600F028FB064696B1162E12D0607814280DD0207928702946BDF810006880AA
:20E700002E7160880BF023FF10B14FF0010801E0162E0CD160882B465FFA88F216210AF0ED
:20E7200013FF20B15FFA88F128460AF0A9FF20460AF041FE9DF8120007B0BDE8F08338883F
:20E740000DF1160102F05CBB2DE9FA4786B0044604F1080500F034FA05906A1D0DF1120078
:20E7600000902B796988288802F01CFB002780464FF0FF0AB8F1000F5BD009E0BDF81030C5
:20E780000B54BDF81000716892B2000A5054571C0598BFB2401F87424BDA2079BDF812203C
:20E7A00003904FF000090598CDF80490C01F80B20290414600F05CF9002802BF728B288982
:20E7C000904214D1316AE86806F015F878B1706858B900F048F907210AF016FF706020B971
:20E7E000069928880880112032E0B8F80A90BDF81220698804AB404602F026FBB9F1000FDC
:20E800008046B7D0706807F80090781C726880B24FEA29218154411C4A1C7068B8F1000FF9
:20E8200089B2ABD101F800A092B2706802F800A0571CBFB247B1B8083080314660880BF02C
:20E84000B3FE28B1162003E00699288808800A2008B0BDE8F0872DE9F04F89B0044604F173
:20E86000080005908A4606886088DFF8B85608F0FDFA07900027001FB84606904FF6FF79B3
:20E8800000E0761C0698B84257DB04A80090059803794188421DB0B202F084FA5FEA000B99
:20E8A0004BD0BBF80A60BDF810209BF80810608802F0FBF95FEA00083FD100F0DFF85946FB
:20E8C0000798001F00F050F805F11A0000902B6A00F0D2F85FEA00082FD17FB960880023BF
:20E8E0004A4609210AF090FE686018B9AAF80060112036E0688B801C688004E0698B6888B5
:20E90000891C88421AD1698B0698C919884214DB6968BBF80A007854BBF80A106A6800F087
:20E9200049F968686A8B296ABFB2381805F04AFF688BC7194E45BFB2A3D157B1688897FB69
:20E94000F0F02880294660880BF03EFE48B1162007E0B8F1000F08BF4FF00A08AAF80060B9
:20E96000404609B0BDE8F08F80B202900020019070472DE9F04F85B00D46044604F10806DE
:20E980006088DFF8A07508F071FA4FF0000BA0F10108A0F1010A16E039887A8B084612188C
:20E9A0009245BCBFA8EB010179837B687A8B396AC01805F007FF3888798B081838800BF17E
:20E9C00001001FFA80FBB0888345BCBF3888504537DA306810F81B2000EB4B0004A940784B
:20E9E00002EB002080B202F00BFA01000BD14FF0010900F02EF8786808B10CF09CFA4846EC
:20EA000005B0BDE8F08F00F039F81FFA88F0FFF7ACFF07F11A0000903B6A00F02DF85FEA25
:20EA20000009E6D178680028B6D100F01CF80F210AF0EAFD00287860AED100F00AF81120D0
:20EA4000DEE7608839460BF0F1FD0028D8D01620D6E7306810F81B1000EB4B00407801EB39
:20EA6000002028807047608800234FF6FF72704706F11A000090336A608861E22079BDF8E8
:20EA80001020039070472DE9F04786B08846044604F1080900F094F8059009F1050204A89D
:20EAA000009099F80430B9F80210B9F8000002F079F90027BA4605460FE07268FF21B954C1
:20EAC00080B272688154471C7068728B316ABFB2381805F077FE708BC719BFB2BDB1BDF8E8
:20EAE0001020297A608802F0E0F85FEA000A0BD1FFF7C4FF29460598801FFFF735FFFFF7DE
:20EB0000B7FF5FEA000A10D06889A8F80000002F43D0708897FBF0F03080314660880BF0C5
:20EB200094FD002843D0162041E07FB9FFF79BFF11210AF069FD706020B96889A8F800001E
:20EB4000112034E0708B001D708009E0708B7188021D9142DDD10599891FC0198142D8DB56
:20EB60007168688978546989726800F023F8BDF81020B9F802100DF11203284602F064F9B0
:20EB80000546781C002DBFB297D07268BDF81210B954BDF81210090A92E7B9F80000A8F81F
:20EBA0000000BAF1000F08BF4FF00A0A504606B0BDE8F087781C80B2090A8154471C704751
:20EBC0006088DFF8606308F051B92DE9F041044604F1080784B00D463888904602A902F062
:20EBE0000FF906002FD0307A80060BD5BDF8080000F0A0F903000BD0608812223146984762
:20EC0000060021D1787A002814BF5220207901E00E2619E00190002000907B887A6839880F
:20EC2000608800F087FA060007D1787A70B960880BF01CFD50B116200CE0162E04D1002624
:20EC400088F8006002E0012638882880787A00B10026304604B0BDE8F0812DE9F84389463A
:20EC600090460121044604F1080660880AF044FF002718B9142060700E205AE0308800A965
:20EC800002F0BEF805004FD0287A80060BD5BDF8000000F04FF9030015D060881222294640
:20ECA0009847070041D16588284600F006F9010006D14FF6FF7000F000F9010030D00D800F
:20ECC0000022984D02E00E272FE0521C687ED2B2824225D248680C2303FB02000388002BDF
:20ECE000F3D10C22314605F06DFD002088F800000C223146284605F065FDB28860880023FD
:20ED000017210AF081FCA86060B1B288B16805F059FD608829460BF0AFFC48B1162008E079
:20ED2000092702E0112700E001273088A9F800003846BDE8F2832DE9F04383B0894600271E
:20ED4000044604F10805608800F0B7F85FEA00084AD02878012843D14146284600F050F86B
:20ED6000A0B1D8F804501820019068880090AB88AA682988608800F0DDF90746162F02D1CC
:20ED80000020A8602CE05FB3288827E000250EE0019070880090B388B268608800F0CAF95A
:20EDA0000746162F17D10020B0606D1CEDB25D48407E854214DAD8F804100C2202FB051243
:20EDC0001646318861B16B1C83421DBF9089002816201820DCE7002FE7D03088A9F8000033
:20EDE000404600F07DF82FB960880BF052FC20B1162003E0162F08BF00273846BDE8FE834E
:20EE00002DE9F84F0C46002100250E464FF00C0B44480EE0994202BFBCF8027093B2BB42D5
:20EE200024D1BCF804305D19ADB29A18761C92B2F6B2437E9E420EDA63680BFB063CBCF8A0
:20EE4000003043B10029E5D1BCF80450BCF802201946AA18EAE7022E2CDB28004FF0000938
:20EE600004D00CF04FF85FEA000801D1002022E0CA4619E00BFB0A07B96859B1BA8809EBB5
:20EE8000080005F09FFCB88848441FFA80F9B8680CF051F8BAF1000F04D00C2200213846BC
:20EEA00005F08EFC0AF1010AB2456068E2DBC0F8088085800120BDE8F28F1A4AD269002105
:20EEC00000E0491C184B1B78C9B2994206D232F831308342F5D102EBC10070470020704777
:20EEE00070B5044600250BE0B06808B10CF023F80C220021304605F063FC002030806D1C39
:20EF00000848407EEDB2854206D260680C2101FB050630880028E7D14FF6FF70208070BD90
:20EF20004B470020F047002088470020E1F10000A448002080B5FFF7F8FA00B1806802BD86
:20EF40002DE9FE4F0D468046287AC00693461E464FF0000A0CD55846FFF7ECFF030000F0F4
:20EF6000E4800A222946404698475FEA000A49D128780C9F0D9CDDF83890022816D100F02E
:20EF800016F94FF42051401A012810D9801E3AD0401E14D0FD3876D0401E00F07D80401E34
:20EFA0006AD0401E6FD0401E00F09180A7E0002C2AD1E868017839800278416883E0002C39
:20EFC00022D1012038800021E868007830706889401C80B201F014FF398860B10278921C5F
:20EFE00051183980418971704189090AB17002784168F01C68E0081D388004220021701C1F
:20F0000005F0DEFB93E0002C62D1E8680488042038803470200A70700DF10201204601F092
:20F02000EFFE05001ED0EC68BDF802204FF6FF7800AB414601F008FF40B92B786A688C489D
:20F04000022107F0A3FE08B9ADF80080207802280AD161680222301D05F0B4FB3888801C38
:20F06000388001E0ADF80040BDF80000B070BDF80000000AF0705AE054BBE8680168404696
:20F080000CF050FA02E01CBBE8680088022139803070000A70704AE0E86805F086FE82B20C
:20F0A000A242B8BF4FF0070A41DB944208BF002206D009EB04019142B2BF4A46121B92B2B6
:20F0C0003A80E9686118304605F07CFB2FE014B14FF00B0A2BE0E86807213980017831704C
:20F0E000417871704188B1704188090AF17001793171C1887171C088000AB07117E0584600
:20F10000FFF713FA00281CBFD0F800C0BCF1000F0BD00F980290CDF8049000943B463246AB
:20F1200029464046E047824601E04FF00E0A5046BDE8FE8F2DE9FE438046894617461E463E
:20F1400002A9484601F05CFE05002CD0BDF80800FFF7EBF900281CBFD0F804C0BCF1000F48
:20F160001FD00A980B9C0090019433463A4629464046E047060017D1FE2C15D02878022856
:20F1800012D100F014F842F6021188420CD13878797800EB012292B24946404600F04CF862
:20F1A00002E00E2600E001263046BDE8FE8368680178407801EB002080B2704770470020C9
:20F1C0007047E0B58DF808200223120A8DF80920FE2201920022009202AAFFF7ABFF0EBDC9
:20F1E0007CB50129044605D0022922D101210AF083FCF0B92046FFF760FE08B1FFF770FE5C
:20F2000001A800904FF6FF7502231A4A2946012001F0C8FD0BE0F068016820460CF08AF99C
:20F22000BDF8042000232946304601F00DFE0600F1D173BDE4460020F8B50F4F04463878AA
:20F24000FF280D46164611D00A2005F089FA68B1B12101704480002141700171C580068125
:20F2600001463878BDE8F44005F071BBF1BD00002CAB010040AB01004B4700202DE9F84F1C
:20F28000DFF8104BDFF8105B207007210020A860DFF8080B01700D2141804FF40471818017
:20F2A000DFF8FC0ADFF8FC1AE9608A7E0270FF2ACB7E437008BFFF2B0E7F86704F7FC77023
:20F2C00091F81EC080F804C0C97F417116D1FF2E08BFFF2F12D1BCF1FF0F08BFFF290DD11D
:20F2E000DFF8C41A0A7802704A7842708A788270CA78C2700A79027149794171DFF8AC1A82
:20F300000278DFF8AC8ADFF8AC7ADFF8ACEA0A7042784A7082788A70C278CA7002790A71B0
:20F320004079DFF8D82B4871FF21DFF8900A017041708170C17001714171101D0171417137
:20F340008171C17101724172002101708172A0218181032181730721C173002101742821C8
:20F360004182012101750021817502F15A0100224A7001220A7042750020DFF8441A0880C0
:20F38000D8F82C30DFF83C1A58780870197839709A782A709E683679761E8EF80060DB7864
:20F3A000DFF85C6B6B704FF4967333801B261B2392FBF3F306FB132202B10122D21850435A
:20F3C0006880881C1821484380B20CF019F9DFF85C6BB060002855D03878002855D04FF462
:20F3E0009071484380B20CF00BF9DFF8449BC9F8040008B9B06843E03878382148430CF048
:20F40000FFF8686020B900F08AF8D9F8040037E03878DFF864AB00010CF0F2F8CAF80000B7
:20F4200028B900F07CF800F07DF8686828E03878DFF848BB00010CF0E3F8CBF8000048B924
:20F4400000F06DF800F06EF868680CF0EAF8DAF8000015E03878302148430CF0D1F8DFF864
:20F46000201B086088B900F05AF800F05BF868680CF0D7F8DAF800000CF0D3F8DBF800001C
:20F480000CF0CFF84FF4804144E0DFF8F80A00688047074605F0E9FE0CF0FCFADFF8E80A95
:20F4A0000069006880470CF0F1FA0CF0EBFADFF8DC0A002101600160C160C16005F022FDF6
:20F4C0000BF07AFFDFF8C81A40F2FF7008600CF0D5FA06460CF0D2FA864208BF0CF0CAFAC8
:20F4E000D8F80C00697800880843DFF8A81A08803846DFF8A41A096888470C21DFF89C0A5E
:20F500000CF0B4FA207800210BF0F0FD00F092F84FF400512078BDE8F44F05F05CBAB068EF
:20F520000CF07FB8D9F804000CF07BB830B50C46E00785B013D50CF095FA38B100218160E3
:20F54000DFF85C0A0068010018BF8047DFF84408007800210BF0CAFD84F001005EE0A0078F
:20F5600007D500F05DF83C200CF078FA84F0020054E06107DFF8200824D5DFF8B41940684A
:20F580008A7849684FF4907303FB0211382303FB02008D1D11F82C2F04924A8912090392DF
:20F5A000AA8B02920122C9884908019100F12C01009190F82830297800200CF04FFA84F022
:20F5C00004002BE0210607D500F02AF83B200CF045FA84F0800021E0A10508D5DFF8C40955
:20F5E000016841F00041016084F4007016E0610504D501F0B6FA84F480600FE0610405D58B
:20F6000081200CF027FA84F4804007E0A10443BF4FF0FF31816084F40050002005B030BD8C
:20F620000020049003900290019000900146002301227047F8B505F03FFDDFF84809DFF8AF
:20F64000F0680068DFF86C7780470446002005F0B5FE40F201400CF0F9F9DFF82C09006981
:20F66000C06880470CF012FADFF84407DFF83819C06A806840790870002503F000F8DFF81F
:20F680002C090CF0DFF90CF0D9F90CF0D3F9DFF8200900210170017141718171C17101727E
:20F6A00041720022DFF8540800F10E010A70A0224A8007224A7103220A7100220A738A721D
:20F6C00000F8592F0122CA720021427081700BE070684FF4907101FB05004179012908BFD4
:20F6E00002F0BCFD6D1CEDB238788542F0DB0CF09DF90BF03FFA02F03DFDDFF8B81800203C
:20F700000870DFF8B41808700120DFF8B01808700020DFF8AC1808700120DFF8A8180870BB
:20F720000020DFF8A4180870DFF8A0180870DFF8A0180880DFF89C18087005F0F8FCDFF8BD
:20F7400058180968204688470020F2BD2DE9F0411446DFF8605608B12A780270DFF8D0879B
:20F7600011B198F801000870002C3ED0002600271CE0C9B2DBB2085502F1280001791955D3
:20F78000591C427900F034F8827900F031F8C27900F02EF8027A00F02BF8427A00F028F85D
:20F7A0000078C9B24E1C08557F1CFFB2287887421BDA38460CF036F90028F5D1D8F804007A
:20F7C0004FF49071F6B201FB0700DFF8CC154968375538220068007802FB0712711C4B1C01
:20F7E00080280CBF00200120C3E70020BDE8F081C9B20A55491C704738B50C00054601D169
:20F80000122032BD0CF00EF9C0B900F019F901FB050001680978402901D00C2032BD0021E8
:20F820000A5D431A491C102983F8E220F8DB012180F8E410052102F0A1FD002032BD10B5FE
:20F8400004460CF0EFF8B0B900F035F801680978402901D00C2010BD00F1F0010A78012A49
:20F8600003D106220A77022102E006224A700D2102F084FD002010BD10B504460CF0D2F8C1
:20F8800060B900F018F890F8F810022907D1817900F1F902002009F0D3FA002010BD01689A
:20F8A0000978802903D108210CF0B8F8F5E74029F3D1112010BDDFF8780640684FF490712D
:20F8C00001FB0400704710B5040001D1122010BDDFF85C06407808B10C2010BD02F04AFCFC
:20F8E0002078DFF8F41600F01F0020704A7810404870002010BD38B50D00044606D0DFF848
:20F90000B004C06A80680079844201D3122032BD05F0E2FC032803D0204602F0F5FE02E0EF
:20F92000DFF88406047001202870002032BDDFF88014C96A89680979884201D31220704792
:20F94000DFF8741408700020704710B5140019D011B1012908D015E002F0EFFE10F1800F0F
:20F9600020700DD1302010BDDFF84404C06A80680168007900EB4000401810F8030C2070BF
:20F98000002010BD122010BD2DE9F0410C0082B0074690461D4628D0DFF8FC633078404515
:20F9A00028D338460CF03EF8002847D100F048F801FB070708F062FC1B2298FBF2F21B23DA
:20F9C00003FB128303B10123718810181818814204DA01200CF01EF807202FE030781C2875
:20F9E00014DA002D18BF012D01D0122026E0B8F11C0F04DB8A200CF02DF830201EE02B46A1
:20FA00004246214638460CF001F813E042462146384602F01DFD88B920460BF08CFAB879BF
:20FA2000ADF800000DF102020120ADF8020000A909F042FA384602F0CAFD0020BDE8F68106
:20FA4000DFF8EC0440684FF49071704770B50646282E01DB122070BDDFF87845207808B155
:20FA6000212070BD05F028FBDFF81C55286980688047700000F6621189B200200BF0C2FF88
:20FA8000DFF8580540F6070101804060002141808160017B01F060010173417B01F0F00130
:20FAA00041F00201417302218173DFF83415016100214161C17B01F0F00141F00101C1737D
:20FAC0000C212170296989698847002070BD2DE9F04104460D46282CB8BF262D16460FDA81
:20FAE000002E18BF012E0DD0022E18BF032E09D0042E18BF052E05D0062E18BF072E01D0C2
:20FB000012205BE0DFF8CC8498F8000008B1212054E005F0D1FADFF8CC74DFF8CC1441F6CE
:20FB20000A0038800022002078807F60B860387B00F060003873787B00F0F00040F002001F
:20FB4000787360006630B8738020F873DFF89C04386179610280857040F6C4124260C67049
:20FB6000027A02F0FE02027200224272C260C27A02F0F00242F00102C27200200880002159
:20FB8000DFF86C048180C180047080214570867001728948DFF8F043007802F0B5FD092089
:20FBA00088F8000000222369DFF848045B680021984721698969384688470020BDE8F08132
:20FBC00070B50446282C01DB122070BDDFF80454287808B1212070BD05F06EFADFF8046495
:20FBE000DFF81414766041F609003080716100207080B0600022307B00F060003073707BA3
:20FC000000F0F00040F00200707360006630B0738020F073DFF8E403306102600F2202717E
:20FC200001224271DFF8B8238260552202734273827300220261C27B02F0F00242F00102E9
:20FC4000C2730020088048808880002280208871002088600021DFF898034170FF218170DF
:20FC6000047000218180C1808021C74C01720A20287000212369DFF87C035B689847216995
:20FC8000896930468847002070BD70B5D14C2078092818BF0A2801D0212070BD40F2024019
:20FCA0000BF0D4FE2078D249092809D1CE4800888880BD48007802F027FD0021002015E04A
:20FCC0000A2815D1CC4A538810889688CB801D1875198D809279802A18BF812A0FBF7F22A4
:20FCE000C74B93F90030D21A0A7201210BF086FE0BF0CCFE0020207005F019FA002070BD63
:20FD000038B5B44C207808B1212032BD05F0D4F9B44DB54A297B6D6001F0E00141F08501B9
:20FD2000297341F60A00697B288001F0F00141F00201697300206621A97368808021E973C0
:20FD400040F6C410A949A86029616A6148600123087A0B8000F0FE0008722523C87A8B7084
:20FD600000F0F000002340F00100CB704B72CB60C87213800D2020700022834CA14823693C
:20FD80005B68114698472169896928468847002032BD0000844C00203C4800208C4C002016
:20FDA0006C4C0020B63F0050E81200507C4C002060C20100BC4C0020854C0020744C0020D8
:20FDC000984C00208B4C0020F8B5824C2178092918BF0A2963D00B291CBF0C290D295ED0FD
:20FDE000464DA97C002918BF012904D003291CBF0229042903D12A79002A18BF012A7BD1FF
:20FE0000032918BF022902D12B8AA02B74DB002843D0012870D1A87B012840D000291CBF0D
:20FE2000012904290ED10BF0E5FDFD21084236D17548007800285FD03D494978814201D1D8
:20FE40000920F2BD01200AF0AEFE286000260120A87305F031F90BF0C9FD6C48182101FB50
:20FE60000607387B40F080003873A87C012807D026B90BF003FE00F5C87000E00020B86023
:20FE8000761C032EE9DB207828B9A97C6048085C20700BF0A7FD0020F2BDA87B08B921200E
:20FEA000F2BD38480068804706460BF097FD012804D00BF0D7FD2968884207D105F0FCF821
:20FEC00040F202400BF0C2FD012700E000270020A873286805F072FA28460BF07BFD207820
:20FEE00010B905F024F902E00FB10BF07BFD2A49096830468847CEE71220F2BDEC490020FE
:20FF0000964C0020017841F08F010170C17841F02001C170817841F0300181700020704755
:20FF200010B103494978017000207047F44E0020B04C002070B504460D4616460BF072FDA5
:20FF400030B9FFF7B8FC00F58E7005704680002070BD304B10B1012802D00AE01980704722
:20FF6000188810701888000A507000209070D07070471220704700000C4F00201C4F0020F1
:20FF8000104F0020504800202C4F00201010044000000460944C002054480020E84E0020B5
:20FFA000C44C002004000940B94C00208C4A00209C4C0020864C0020BA4C0020874C002096
:20FFC000884C0020BB4C0020894C00208A4C0020BE4C0020B84C0020D04E0020404E0020E1
:20FFE00029417671284E0020204F0020A84E0020DC4E002002000080C44E0020844E002085
:020000040001F9
:20000000C04C002001000080BC4C0020244C0020C0D90010984C00202DE9F84308AF3E7810
:2000200081461C461546884606F10C0080B204F097FB071C16D0802038707C7040F27F6362
:200040007B802849A7F804803246BD7107F10C04FE7107F10C00BC6004F0B4FB4846394624
:2000600004F075FCBDE8F8838C4698B501460F460020BF1E012F30D9BF1E2AD020292FDBE0
:20008000602904DB80292BDB902929DA98BD06242039012391FBF4F26243891A13D0491E8D
:2000A00001290CD9891E012905D9891E0FD1BCF1040F0BD00BE0BCF1100F07D007E0BCF13E
:2000C0001C0F03D003E0BCF10E0F00D10346184698BDBCF1040F03D198BDBCF1100F00D023
:2000E000022098BD534700202DE9F04FC80BADF13C0DC0030B9108BF002000F00D85BE4CEE
:20010000207804F088FB061C00F00285BB4D296849B1B1F1FF3F06D0C348007804F017FC64
:200120004FF0FF3028603078C049813800F0D980401E40F0EA84B079B78896F802B000254D
:200140004FF0010A0590781E63D0401E3FD0401E27D0401E40F0B6800598F0B1801E15D0B0
:20016000401E0ED0801E07D0401E7DD1307AB17AF268FEF73AF928E0307AF168FEF765F96D
:2001800023E03089F168FEF70FF91EE0B068B189B27B3369FEF7DEF817E0B068FEF7B0F9BC
:2001A00013E0B07970B1401F07D0401E5CD1307AB17AF26808F06CFF07E0307AF16808F0CD
:2001C000A7FF02E0B06808F0C1FF04464AE0B079A846103817D0C01E10D0401E0AD0401EB9
:2001E00018BF504604D13089B17AF26800F07CFE80460CE0B06809F0DEF807E03089B17AB1
:2002000009F0D3F802E0307A09F0CCF8AA464046DBE7B0790A78A846001F46D00C3840D077
:20022000401E39D0401E32D0401E06D0401E26D0401E21D0801E19D016E0B17A3289F06865
:20024000914659B9B04BB0FBF3F15943401A494602F076FC041C05D0514600E02C464846D6
:2002600002F046FC204610E05046AEE7307AF168326901F0C6F90CE001F07CFC1FE0307A7D
:20028000F168328AB37C01F027FE804618E009F05DFCE071554613E03089B17A09F02CFC10
:2002A000F7E7307A09F0B8FC09E0B0680C461146A061262008F012FA2078FEF701F8AA469E
:2002C000444600E05446304604F05FFABAF1000F00F01E840598CDF834B0B8460C9000F03B
:2002E0000CBCB3469BF806009BF802703F26BBF804800C9000250D97B6EBA82F40F0B582BF
:20030000C8F3C217002F00F0B08247465B46C7F3C210002800F0A782401E00F09A82401E35
:2003200000F07A82401E00F06582401E5BD0401E40F0998207F07F075E46781E27D0401E5E
:2003400018D0401E4DD0401E04D0401E3ED0401E2CD029E0A348B7680088002F41D0A2497C
:2003600039609226B8800324BE7114233C8128467B81EFE0717A377A0C463846FFF774FE9D
:2003800078BBF2683846214607F0A9FBE2E0717A377A0C463846FFF767FE10BBF268384624
:2003A000214607F086FAD5E00120D3E04FF6FF70ADF8080001F0B8F8ADF8080002A9022258
:2003C000E01D04F0FFF902250020C3E00BF00CF80425E071010A2172070C6772060EA6721B
:2003E000F2E70220B6E007F07F025846112A07D9303A072A1CD936E24C4700204448002034
:20040000DFE812F0790131023102F20131023102E401DC01D8013102D101CB01C501BF01E8
:20042000B801B001AA01A60184480020EC430020DFE812F054013701880184012F018101AF
:200440006C00080006898B79887A0893CA780A90CF7905920B7A0997487991F809C007936B
:20046000B1F80EE006908A784F694B780879B146A9F58069B9F10E0F09D8DFE809F0343205
:20048000302E2D2623211E081B19171512C0272EA8BF022528DA304608F02EF9A4F80700F2
:2004A00022E001F0AAF917E0DDF828C0CDF824C0099808900898079002E0C4F8077013E0D1
:2004C000079806900698024609E0E41D2E311022204604F077F907E00590059B03E0104667
:2004E000FAE77046DAE7E371A6F20141284641B1091F04D0C91E14BF01250425F9E2102501
:20050000F7E20225F5E2C04640420F00867AC4680089DFF8C492B14BDFF8C4E2DFF8C4C2B5
:200520002F460246A2F58062102A0AD8DFE802F0A7A0989089807973695E524B423509095F
:2005400014C0272880F2F480022E40F0F180218808F0C4F80746ECE0072E40F09880611C51
:2005600003A8062204F09CF9207803A92A4601F048F804460A2C80F2DB8009F0BEFB38B94A
:20058000204601F04FFA07F035FB01F0CAFAD0E0484601211B300155CBE0012E77D18E7AB4
:2005A0002078002E887240F0C4802078012840F0C080EAE7012E6AD12078072867DB10285A
:2005C00065DC494652E0012E61D120780A285EDA5B1C04E0012E5AD12078022857DA1946AF
:2005E00044E0C046A0C2010000010200002E4ED109F083FB10B901F089FAC4E7012049460F
:200600000DE0042E43D12268C34890423FD348460B3002608DE0012E39D120781946891CC1
:2006200024E0012E33D12078022830DA714615E0102E2CD1484621461022253004F0C2F8A6
:2006400077E0012E23D12078022820DA71460DE0012E1CD12078042819DC6146491C05E0FA
:20066000012E14D12078022811DA6146087060E0022E0CD122884846401D028059E0012ECE
:2006800005D120780228DCBFBD490B1CA7DD18274FE0007A05F08EFB019050B301A90422AC
:2006A00015E04FF6FF760089ADF80A60FF2807DA262805D0272803DA08F01EF8ADF80A00DF
:2006C000BDF80A00864214D00DF10A010222E41D1546204604F076F800200AE20189262979
:2006E00007D0272905DA0A464189104607F0F6FFFFE10220FDE1427AD0F80C90066944697C
:2007000017467F1E18BFB7F1030711D1007A114607F0FBFF071C0CD148463146224608F04D
:2007200008F805F05BFB0AF0DDFA06F0B9FB00E002273846DDE105F047FBDAE1806805F0DF
:20074000F9FAD6E18268C16810460AF003FDD0E1806802F024F9CCE10289817A104602F069
:20076000C7F9C6E10489817AC268037C204602F00DFABEE10389817AC268184602F047F9A2
:20078000B7E10289817A10460AF090FAB1E1C2680189104602F0BBF9ABE18268C16810462A
:2007A00002F059F9A5E1037A4189027B184602F0B9F89EE1007A05F097FA9AE1047A417A77
:2007C000827AC368204605F058FA92E1027AC168104605F003FA8CE1F5430020F2430020CB
:2007E000F0430020EE430020027AC168104607F0BFFF7EE1188907F07F071B3F07D0BF1E1A
:2008000031D1D9681A7C5B7C00F0C8FB71E1D9681A7C00F0F0FB6CE11889D96807F07F07C5
:200820007F1E13D00A3F0ED0BF1E09D0BF1F04D0BF1F18D109F02DFF5BE109F017FF58E139
:2008400009F0E6FE55E109F0D5FE52E109F07FFE4FE107F07F07122F05D11889D9681A7CD4
:200860000AF083F845E1012043E1474642F207005A46B84236DBB84200F00E8141F2020077
:20088000B8421BDBB84200F01B81A7F21D40002800F02C81A0F2E470002800F02381801EE7
:2008A00000F01D812A3800F01581363800F00E81A0F29E30002800F0068153E0401C381AF5
:2008C00000F0FB80801F00F0F580B0F57F7000F0ED80A0F6FC30002800F0E480801E00F0EC
:2008E000DE803FE01030B84218DBB84200F0B78008383F1A00F0CD807F1E00F0C7807F1EE6
:2009000000F0BF807F1E00F0B780FF1E00F0B0807F1E00F0A98025E03F420F00401D3F1AA6
:2009200000F09A807F1E00F093807F1E00F08A807F1E00F084804DF6E2303F1A1F2F11D800
:20094000DFE807F079751010706C6863605C5955514E10104A1046413C103731102D2824DD
:20096000201018120124C5E09068D168126908F0CAFEBEE0107A917A0BF028F8B9E0C046FA
:20098000ED430020107A08F059FFB2E0108908F06CFFAEE0107A51890BF014F8A9E0107A93
:2009A0000BF00CF8A5E01089917A928908F06FFF9FE0107A51890AF0FDFF9AE01089D16869
:2009C0000AF0F4FF95E01089917A0AF0EBFF90E010890AF0E3FF8CE0107A0AF0DBFF88E016
:2009E0000AF0D4FF85E010890AF0CCFF81E090680AF0C4FF7DE00AF0BDFF7AE0107A0AF060
:200A0000B5FF76E00AF0AEFF73E0107A917A0AF0A5FF6EE0107A0AF09DFF6AE090680AF0F5
:200A200095FF66E09068D1680AF08CFF61E0107A0AF084FF5DE0107A0AF07CFF59E00AF06F
:200A400075FF56E0107A517A927A08F0C9FE50E0107A08F0CEFE4CE00AF064FF49E09068A4
:200A6000D1680AF05BFF44E0108908F0A4FE40E010890AF04FFF3CE0107AD1680AF046FF73
:200A800037E0107AD1680AF03DFF32E00AF036FF2FE00AF02FFF2CE00AF028FF29E00AF09E
:200AA00021FF26E0906808F0F4FE22E010890AF015FF1EE00AF00EFF1BE00AF007FF18E08D
:200AC00008F017FE15E008F0FFFE12E0906808F099FE0EE01089917A0AF0F4FE09E008F047
:200AE000F7FD06E090680AF0E9FE02E010890AF0E1FE0446584603F048FE23460D980C9A1A
:200B000000954146FFF788FA02E0304603F03DFE0B9880F4004080B20FB0BDE8F08F10B58A
:200B20000C4601462046491E07D0491E02D00AF0E9F910BD05F0CCFE10BD1946029B1446B4
:200B40000246204608F060FD10BD10B504460846012C114602D108F093FD10BD0AF0EBF9DE
:200B600010BD704770B5DFF8C8592878062460430AF046FDDFF8BC19086008B9132070BDF5
:200B80000020FF2206E03380401C0023F270B2703371C0B22B78984209DA0B6804FB00365A
:200BA00000280CBF4FF6FE734FF6FF73EBE70FF2A14008F0F1FB0FF6A90009F0C5FC0FF6D0
:200BC000E90008F005FF002070BD70B50446208868B160680378426800F073F948B96068A1
:200BE00003784268DFF8500900F06DF908B9022070BDA078C01F0A2801D3182070BDDFF801
:200C00003C59288820B12188C0F58030884201DA012070BD0C200AF0F3FC060001D113209D
:200C200070BD002007E06268298802EB0012401C5181491C298080B221888842F3D300203F
:200C4000306008222146301D03F0BCFD686810B96E6004E0084601680029FBD106600020FD
:200C600070BD38B502460846DFF8D0184C68002301E02346246894B1A5686D899542F8D170
:200C80002268002B0CBF4A601A6018B10822211D03F098FD20460AF0C4FC002032BD0120A7
:200CA00032BDDFF89C180870704710B5044610461422114203D000F00FF9012204E04A067B
:200CC00008D500F009F9002201462046BDE8104008F053BFC80701D4022010BD002010BDF7
:200CE00070B504460D46A8061E4609D5104600F0F3F801462046BDE87040012208F03DBFF8
:200D0000882005420FD0104600F0E6F8014605F00802204608F031FF48B1717A41B1317A8C
:200D2000012904D070BDA80701D4032070BD002070BD7CB50446002000900D460223DFF8ED
:200D400004284FF6FF71012000F02CF8060026D0002304221D21204608F056FC0190E0B128
:200D600070890199ADF800002B460420ADF80200002201200870002001994870FF20019919
:200D800088700199C87000A9204600F007F9040006D001980AF0CFF802E0152400E0012436
:200DA000204676BD2DE9F0478146DFF8900744688A4690461E4600E02468F4B1002700E04A
:200DC0007F1CA088BFB28742F6D2A06800EB07156889484528BF8245F2D33EB129786868EE
:200DE0003346424605F0D2FF0028E9D0089810B1A16849890180284600E00020BDE8F08704
:200E0000F0B5DFF83827536800E01B68D3B19D686E89B042F9DB9F88BA199042F5DA4FF0B9
:200E2000000C01E004F1010C1FFA8CF4BC42ECD205EB0412B2F80AE08645F3D101B10E8005
:200E40001046F0BD0020F0BD2DE9FC4104460027ADF804704FF6FF786089404515461E46FC
:200E600008D001AA0092401C2378626880B2FFF799FF07462378626800F023F830B923789B
:200E80006268DFF8B40600F01EF808B160890CE023786268DFF8B00600F015F858B11FB19B
:200EA000BDF80400A84203D0284600F0C7F803E07889404400E0608906B130803846BDE8E4
:200EC000F681DFF88806022105F060BF80B500F08AFA00B1008802BD80B500F084FA08B102
:200EE000807802BD102002BD70B5012982B00446154616D0032918D0052925D0072927D0E2
:200F0000092929D00B292BD00D292DD00F292FD0112931D0132933D0172934D0192936D007
:200F200039E0294609F013FB33E009F061FDADF8000000A9204609F013FB06002CD1298849
:200F4000204608F00BFB27E0294609F015FB20E0294609F029FB1CE0294609F035FB18E096
:200F6000294609F047FB14E0294609F051FB10E0294609F05BFB0CE0294609F066FB08E0D4
:200F800009F074FB05E0294609F076FB01E009F080FB064600E00226304676BD2DE9FC4186
:200FA0000D46044616461F4601A900F029FA5FEA00081DD156B100F037F8BDF80000FFF706
:200FC0008BFF00F036F85FEA000811D12946204609F070FB5FEA00080AD1019CFF2F07D02F
:200FE000A31C1E2221460FF2954008F099FAE7704046BDE8F6817CB50D460446164601A95D
:2010000000F0FEF917280ED04EB1002000F00CF8BDF80000FFF760FF00F00BF818B929467C
:20102000204609F03CFB76BDADF8000000A92888E6E601460122204608F09FBD10B50446EA
:20104000FFF744FF08B1611E0C18A0B210BD00002DE9F0470D468046A87800241E2888B0B4
:20106000914614D1404600F0DFF904001EBFA078FE28FF2822D0002000900022AB78E078E1
:20108000414608F022FA204600F0E2F916E0122804BF6878012813D0404600F0C5F904006D
:2010A0001CBF2279002A0BD0100607D4A978404608F067FA207940F08000207100206BE07F
:2010C000DFF87C743878FF2817D0A978881E172813D20FF27C4A48080AEBC000A0F1080635
:2010E000306800281CBF7068002806D0287810B96A78012A03D1122901D006204CE002A92C
:201100000091AB88AA6869783668B047060042D1AA7852080AEBC20202A952F8042C40468A
:20112000904706001CD1AB78042B34D002A8009000223878414608F0C8F906002BD1A97820
:2011400002A808F037FA10B1002089F80000A878122804BF697801291DD0E4B120711AE025
:201160006878C0B9A8788DF800008DF8046000A9A878042818BF0628BDF80800ADF802002A
:20118000404609F0E4F928B100AB01221621404608F0DAF90026304608B0BDE8F087002034
:2011A00070472DE9FE430D46804628886988814200D308B901206AE00021ADF80410029138
:2011C0004FF6FF7900E0401C002100910A466988002380B2FFF7E6FD070034D0BDF8040031
:2011E000002835D100AB4A460521404608F00CFA040001D111204AE002943878022806D164
:2012000001208DF80600BDF80000860824E002208DF806001221BDF8000090FBF1F67889D3
:2012200004F8010B102200F034F81034BDF80400401CADF80400B6B2BDF80400B04202D26F
:2012400078894845BFD1BDF8040080B90A201EE09DF806000128E2D138780228F3D1788940
:2012600004F8010B022200F014F8A41CDEE701A9404609F081F948B101AB05221621404695
:2012800008F062F910B1029809F055FE0020BDE8FE837889000A04F8010B2046796803F0C1
:2012A00091BA10B582B04C880888844200D308B9012016BD00F015F808B90A2016BD00205F
:2012C00016BD10B582B04C880888844200D308B9012016BD00F005F808B90A2016BD0020C7
:2012E00016BD002200924A1D0B7921465AE510B5044682B0084600A90088FFF781FD08B9E1
:20130000012016BD017ABDF800202046FFF7CDFC16BD70B582B006460D46002401E0641C16
:20132000A4B2A888844229DA286810F8142000EB440000A9407802EB002080B2FFF760FD70
:2013400050B9286810F814100170286800EB440149784170012076BD017ABDF8002030460B
:20136000FFF7A3FC0028DAD0296811F814200A70296801EB440252784A7076BD002076BDF1
:2013800010B50C4682B020886188814200D308B9012016BD23796D48621DFFF794FD08B910
:2013A000102016BD00200090237961882088621DFFF7F8FC08B90A2016BD002016BD38B546
:2013C00004460D4600A92888FFF71AFD08B9012032BD017ABDF800202B462046FFF780FCA0
:2013E00032BD002070475549496800E0096829B18A6852898242F9D1081D7047002070479F
:2014000010B50C4600F010F860B104B120608078FE2801D1172010BDFF2801D1002010BD9D
:20142000162010BD022010BD10B5424A1268002100E0491C3E4B1B78C9B2994206D2062316
:201440004B439C5A8442F4D1981810BD002010BD10B50446A01C08F06BF8FF20E07010BDB1
:2014600010B50C46FFF7E0FF30B101794A1C944204BF01F08001017110BD000010B582B07E
:2014800004001EBFA078FF28FE280BD0002000901E232188E078172208F017F8FE20A070CB
:2014A000FF20E07013BD000070B504464FF6FE70844282B036D04FF6FF7651B92046FFF7AD
:2014C000B3FF78BB3046FFF7AFFF05002AD0048073BD012906D12046FFF7A6FF050021D062
:2014E0002E800BE002291DD10121204608F004FBC0B92046FFF798FF050013D0A878FF2820
:201500000ED0FE2807D0002000901E23E8781422214607F0DAFF2846FFF79AFFFF20A870FE
:201520000020287173BD70470448008870470000B4480020A04800202CAB010030470020ED
:201540004947002064AB010034AB010028AB01007D6901009F110100AF690100A3110100B1
:201560002D6A0100A3120100B96A0100C3120100196B0100EF120100896B0100EF120100A5
:20158000C76B010013130100B96A010081130100396B0100BF1301000000000000000000C0
:2015A000236C0100BF130100A36C0100E31301001FB50A280C460FDA74B1410001EB8001AD
:2015C0006A462031C8B20E2106F073F920B920466946062203F0F6F800901FBD70B5974D93
:2015E0000646002428463146062203F004F9002818BF201C04D1641C0E350A2CF2DB0A207E
:2016000070BD2DE9FF4101281646884604D9801E2BD0401E0ED038E00846FFF7DFFF0446BE
:201620000A2C3BDA002E39D030464146062203F0C9F833E023250024E8B210216A4606F05F
:2016400038F968B96846FF21102203F0C7F838B96846414609F07EFD10B90A2C19DB1DE0FC
:20166000641CAD1D0A2CE7DB0FE0744D0A270024AD1D28464146062203F0BDF838B97F1E06
:2016800005F10E0504F10104F3D10A2406E00A2C04DA1EB120463146FFF78AFF204600903A
:2016A000BDE8FF81011F4FF6FF73042031F8042F5A400A808A78401E82F0FF028A70F5D1F7
:2016C0007047091F042231F8043F984208BF081C02D0521EF7D100207047B0B505460F46EE
:2016E00014466800ADF1200D0E2100EB850004AA2030C0B206F0DDF8002828D104A8FF2196
:20170000062203F06BF810BB7035E8B210216A46054606F0CEF800282BD16846FFF7C2FFD0
:2017200057B968460021102203F058F808BB6846102203F045F814E038466946FFF7C1FFAB
:2017400040B924B100206946FFF7BBFF08B9002010E0078081788C420BD084700CB9002168
:2017600001806846FFF79EFF284610216A4606F0B6F9012008B0B0BD70B50E464FF6FF713F
:20178000154681420FD008F089F9A8B14279811D10460022FFF735FF0A280DDA31462A467E
:2017A000FFF79BFF70BD002431462A462046FFF794FF641C0A2CF7DB70BD10B5AE4CE069B5
:2017C00020B1E06902F0E1FF0020E0610A20207310BD38B50AF092F8184D0A242846FF21A0
:2017E000062202F0FBFF18B9002029460AF08AF8641E05F10E05F1D138BD70B50F4E0A2506
:2018000000243046FF21062202F0E8FF08B9641CE4B20E366D1EF4D1204670BD08B5FFF75C
:20182000ECFF0228B4BF0A20022001216A468DF80000052007F02CFC08BDC0462A440020E0
:201840002DE9FF478C4CE56988468146FDB9B9F1000F31D0B8F1000F2ED0FFF7BFFE06464C
:201860000A2E12DB04F13E0A0A2700265046FF21062202F0B3FF40B97F1E0AF10E0A06F18D
:201880000106F3D10A20207316E0267300E0267B0A2E11DA002D4DD0AA68002A3ED12A6965
:2018A000002A2FD16A690ABBEA683AB9A07A08B1FFF78FFFFFF7B2FF01205DE07000102124
:2018C00000EB86002430C0B206F009F9E769217BFA68480000EB8100103225300421C0B2A9
:2018E00006F0FDF8E1690020C86044E07000102100EB86002330C0B206F0F1F8E169002027
:20190000486138E070001C2100EB86002230C0B206F0E5F8E169002008612CE070001C21C5
:2019200000EB86002130C0B206F0D9F8E1690020886020E070000E214A4600EB860020306A
:20194000C0B206F0CCF86846FF21102202F038FF207B10216A467030C0B206F0C0F8217B5A
:201960000E220801A0EB4100001949463E3002F029FFC4F81C8000200090BDE8FF87F0B55A
:201980000E461546044600212022ADF1240D684602F016FFADF80040374C8A4AE078069B32
:2019A0008DF80400607A27798DF81C00207A1A40010100F00303134301F480721A43804B32
:2019C0008DF8057000F0040001F4C061134019430843069037B10DF1060004F12E01102231
:2019E00002F0F0FE607920B11EB1069941F002010691002100B10121A7789DF81600002F37
:201A000041EA00018DF816100CBF002004209DF8161008438DF816002946684601F01BF81E
:201A200009B0F0BDF0B5144C0546207BADF13C0DA84209D12078012103F01AF82078022130
:201A400003F016F8FFF7B9FE6C0004EB85040E210BAA04F1200004F12007C6B2F8B205F0C8
:201A600028FF00284FD10BA8FF21062202F0B6FE002848D102E0C046EC4300200BA80E22FB
:201A800002F09EFE04AFFF211C22384602F098FE6846FF21102202F093FE30460E210BAAC4
:201AA00006F01DF806461C2104F121003A46C0B206F015F81C2106433A4604F12200C0B2F8
:201AC00006F00DF8102106433A4604F12300C0B206F005F8102106433A4604F12400C0B20F
:201AE00005F0FDFF2534042106433A46E0B205F0F6FF703510216A4640EA0604E8B205F0E9
:201B0000EEFF204300E000200FB0F0BD10B50024204628B92046FFF785FF641C0A2CF8DB70
:201B200010BD2DE9F041BB4F4FF000080A25202607F13E0430460E21224605F0BAFE58B1CE
:201B40002046FF21062202F03BFEA01DFF21062202F036FEA4F80C806D1E04F10E0406F1D0
:201B60000606E7D1B87A08B1FFF733FEFFF756FEBDE8F08170B508F0C0F8F8B9A54CE07A5E
:201B800001280ED0002523342E4614F8010F012803D13046FFF746FF2570761C0A2EF4DB56
:201BA00008E0FFF7B3FF002104F124000A22E17202F006FE06F01EF8FFF7B3FF70BDC046FF
:201BC000FBF9FFFFFCFEFFFFF0B50446914DA178A869ADF1140D891F00F0A980C91E00F0CD
:201BE0009480491E52D0491E3DD0C91E33D0481E40F09F80A879E97948BB687830B3A088C4
:201C000007F04CFF071C00F09480A07A40080CD3787950B1E168890A07D2B91D6A46FFF7F7
:201C2000F0FC002808BF032111D0A088797904F10802FFF7A4FEA86900287AD04368002BBA
:201C400077D000210A46A088984772E00521A08800F04EFF6DE000286BD04368002B68D02A
:201C600062780221EFE708B1076847B96869618900F066FF00285CD060890121E8E7618941
:201C8000227B637BE01C3C46A04752E06678002776BBA17949082BD3EE694EBB6846394606
:201CA0000E2202F08DFD606938B9A08807F0F6FE00283ED0801D014601E0616910316846F7
:201CC000062202F07FFDA079BDF80C10C0F380000843ADF80C0021466846FFF7B1FD28B9BB
:201CE0002878022102F077FE384623E0A8691527F8B14368EBB1A088627801219847C7B181
:201D0000A869436803213A469DE7E078211D0022FFF777FC0A280CDA410001EB800004F104
:201D20000C0225300421C0B205F0D9FE01E0FFF721FF012005B0F0BDF0B5364C20780D4651
:201D4000E90BADF11C0DC9036DD1A80859D2E069216A6A0807D2E80828BF85F0040580F0FF
:201D60008780002085E0868861B904F11000974A00904FF6FF7102230120FFF713F80146F6
:201D8000216221B304A800900027019702230293FF220392228A30460DF11203FDF7D0F890
:201DA00058B99DF813009DF81220216A12EB002204D049893046FFF7DFFC216A228A084687
:201DC0003B464FF6FF71FFF73FF801462162A069002918BF85F001051AD168B143685BB197
:201DE000E0698088012100229847A069E7694368B888032100229847FFF7DFFC85F00105BA
:201E000036E000200146FFF71BFD28B185F00205012104E0EC430020022185F00205207856
:201E200002F0D9FD24E002F0F6FC071C1ED038780126B03811D0401E02D01F3808D011E0F1
:201E4000387978B97888F9883A89FFF795FC0AE03846FFF7B9FE064604E0397907F10800DE
:201E600007F00EFC16B1384602F08FFC85F40045A8B207B0F0BDF0B50646554800781546C2
:201E80000024ADF11C0D022808BF0124082B04D1480000EB8100223003E0480000EB81009C
:201EA0002130C7B200211C22684602F089FC1C216A46384605F0FDFC60B99DF81A00072884
:201EC00008DB102806DC304605F0010123466A4600F05CFE07B0F0BD2DE9F0430C461746D9
:201EE0000546984600210622ADF13C0D0DF1320009F075F9284621460DF13202FFF781FB79
:201F000004460A2C4BDA600000EB84000E2109AA05462030C0B205F0CCFC00280CBF9DF819
:201F2000306000264346214638463246FFF7A3FF0DF1100900211422484602F041FC05F14C
:201F4000240010214A46C0B205F0B3FC88B94846FF21102202F042FC58B9253508AA0421F3
:201F6000E8B205F0A6FC384606F001014A4600F04EFD703410216A46E0B205F09AFC70B924
:201F80006846FFF78FFB0424ADF1040535F8041F19B1AA783846FDF714F9641EF6D1B8F197
:201FA000040F0ED10B4A507802280AD15079002100B10121907808B141F00401384608F0E3
:201FC00075FE0FB00020BDE8F083C04640AB0100ED430020EC4300202DE9F843099D0026E9
:201FE00000274FF6FF7835F8174044451CBF761CF6B27F1C062FF6DB00270DE00CF1010C1D
:202000005FFA8CFCE646B64505DA35F8179035F81EE0F145F2D1E7B2B74208DA35F81740E9
:20202000444504D0A14202D37C1CA446E8E7B7420DD176B1884202D04BB1994207D308984F
:20204000114609F033FC47F6FF71884201DB012000E00020BDE8F2832DE9F843DFF86C08D7
:20206000DFF86C98017899F80000884200F07F8000204FF4907301E0401CC0B2884276DA93
:20208000D9F8042003FB002808F104063278002AF2D1DFF840180968B070382202FB001163
:2020A0000122327008F161070022727001207871F872B280F280307388F8392008F18E00DB
:2020C00072613276728302702031FA770A75FF258022FA7408F1E80400227A75BA760D7006
:2020E0006276A276E2762277E283228488F80B21027108F1E3000270427022606260A2727D
:202100002273227208F587706273028042808280C2800A720A734A738A73CA730A744A7419
:202120000421FF2208F1770009F056F83D707D70BD70FD701F2038710020DFF89C17421882
:2021400000EB0803527883F8F920401C0828F6DB0020207499F80000401C89F80000C0B23A
:20216000012804BFB07889F80200404600E00020BDE8F28310B5DFF860470821601C09F047
:202180002AF8607840F00100607010BD70B50446092009F087FB58B300F089FB0A30C0B239
:2021A000E880002105F10806296029716971032030700822092006F8010F04F1F901701CF6
:2021C00002F000FB94F8920028B1334609220321204609F063FB03F07FF8DFF800371B699A
:2021E000DB6C0246A06E294698470020E083012070BDF8B505460E46DFF8E446DFF8DC76AD
:2022000008E0007A03281CBF481C20703969A86E496D88473969A86E096E8847217810B1CD
:202220000279032AEDD0DFF8BC0600781C2814DA99B1DFF8B4060078814205D2012E0CD1FD
:20224000DFF8A806007840B1A879ADF80000ADF8021000F069F800202070F1BD2DE9F84313
:202260000446DFF88C06DFF878660068DFF86C7680478046002003F0A1F8A06E00B306E0F5
:20228000007A00F057F83969A06E496D88473969A06E096E88470028F2D13969A06E496E08
:2022A0008847054606E0287A00F044F8284608F042FE2D68002DF6D13969A06E096D88472C
:2022C000206FA0B13969096E88470546A946D9F8080020B108F02FFE0020C9F80800D9F873
:2022E0000090A945F3D13969206F096D8847DFF8F40500781C2808DA307840B1A179ADF860
:202300000010ADF8020000F00FF800203070204609F0C0FA204609F05DFBDFF8D81509684A
:2023200040468847BDE8F1830DF1020200A9012006F0C2BD032802D03078401C3070704796
:2023400070B50446DFF8A8050068804704F17601FF234A79521E4A71D2B20AB94B7008E0F5
:20236000002215197735521C6E782E70032AF8DB0B7100220A70BDE8704011E038B50446DA
:20238000DFF86C0500680D468047002204F176010A704D704A790AB901224A71BDE8344031
:2023A000DFF85015096808472DE9F04100260027DFF81C45DFF8148508E0316849688068CB
:2023C000896809F063FA00B92E467F1C98F80000FFB287420CD260684FF4907101FB0705F2
:2023E0002868697940680029EFD0002EE5D1EBE7B079BDE8F081F0B54FF6FF710C46002317
:20240000DFF8CC2403E0A64298BF34465B1CDFF8BC542D78DBB2AB4216D255684FF49076EE
:2024200006FB03556E79002EF0D005F180068C42377804D1002F0CBF6C8E3489E6E7002FF3
:2024400014BF36896E8EDEE7A04288BF2046F0BD2DE9F84304468846164600270FE02A46A2
:20246000414602F0AFF93846471CC3B203B101232A464946204609F0C9FAA844761BB6B207
:2024800076B11C2EACBF1B25F5B2284609F0FAF95FEA0009E3D1812009F0DCFA072000E0A2
:2024A0000020BDE8F2832DE9F04DDFF82474DFF84864DFF848A40C46154679684FF4907207
:2024C00082B002FB0018307801289B4602D0022830D068E0B068BBF1020F04D100F070F8BD
:2024E0000020B06029E07388B188EA18914205DA00F066F80020B0608B2052E02A46214689
:20250000181802F05FF970882818708080B2B288904248D198F87400802817BF81287F20F8
:202520009AF80010401A00F043F80020B0807080022033E0BBF1020F35D1042DB8BF8C20E8
:202540002FDB21786078091D41EA0020DFF89413B08080B20978814238BF8A2021D3A842EC
:2025600038BF8B201DD309F089F9B060C0B12A46214602F027F9B28895420BD198F87400F3
:20258000802817BF81287F209AF80010401A00F00FF808E07088281870800120307002E0CF
:2025A000812009F057FA2046BDE8F64D08F0C3BC40B200905B46B168B878D2B208F0E2BCE5
:2025C0000021B18071800221317008F0B4BC2DE9F84304462068007840284ED1E08B0028D7
:2025E0004BD0C7480078012847D102F065FDC04800688047054609F041FA618E40F6C418ED
:20260000891C08FB0109B24A2068A1799278476891422CD1B868494609F038F948B309F014
:2026200021FA064640F2024009F010FA304602F0C5FE3169484609F01DF9618E08FB01F275
:20264000B0FBF2F0228980B28218628148432268126908FB0020B86004F138004178017071
:20266000204600F0BAF8304608F00EFB01E00069B8602846BDE8F44392E6BDE8F18330B5B9
:2026800087B040F60200ADF800000020ADF8020001900290ADF80C0001208DF80D000020B8
:2026A000ADF80E00974C984D2088984A1278ADF8100002EB4202E86A816809685118B1F8E7
:2026C0000110ADF81210854940680969059000A8C9698847012807BFBDF80200B0F5806FC2
:2026E000892000F0EBF8E868894A418812781143218000788149800643BF86480068400AA9
:202700000020087007B030BD10B582B004461020ADF8000004EB44017B48C06A80680068F6
:2027200008186E49B0F801000969ADF8020000A8896988477548047013BD73487349C06AF5
:2027400080680978006801EB41010856704730B50A7902F01F020A71002280F83A20002358
:20276000545C24FA03F5EC070BD590F83A502D1803EBC20485F83C4090F83A40641C80F8C2
:202780003A405B1C082BEBDB521C052AE7DB30BD10B500F138025378D47801FB0431252383
:2027A00091FBF3F3252404FB131111700023117800E05B1C9478DBB2A34206D21C1894F8A1
:2027C0003C40A142F5D1084610BD91FBF4F204FB1211081890F83C0010BD70B5044604F110
:2027E000380004F18E06017841706089218909F05DF805463078012801BF70882189491C2A
:20280000884206D104F161012046FFF7A0FF0020307029462046FFF7BBFF2168097840290D
:2028200004BF3D49887370BD80B580F8F12009F01DF838B939480078BDE804404FF4804184
:2028400002F0C9B801BD70B50446022009F02AF860B300F02CF8C01CC0B2E880002105F1A7
:20286000080329602971697103201870022003F8010F94F80C01587094F8920020B1022204
:202880000321204609F00AF802F026FD134B1B69DB6C04F16806024630682946984704F1EF
:2028A0000E00002101820088F082012070BDA0F1090594F8920000B10420704780B509F0A7
:2028C000C9F817490020087001BD0000BC4C0020B04C002040480020D04E00202C4F0020BC
:2028E000BA4C00203C480020874C0020884C0020504800205448002010470020C04C002010
:20290000BB4C0020944C002060C20100B94C00203D48002080130050E04D0020844C002083
:20292000B84C00202DE9F04104468846122740464FF6FE7188421646DFF88C5808D1A869D6
:2029400050B30268100027D041462046904720E04FF6FF71884212D1A86938B10268100069
:2029600004D0414620469047070005D03146204600F07CFA07000FD12C706E700CE007F05C
:202980008DF848B10078A04205D13146404608F069FF074600E003273846BDE8F08110B57C
:2029A00004462389E288A188608884B006F072FE08B9022029E02088012107F09DF808B909
:2029C000142022E0208807F0A8F8042812D1DFF8F80781894FF6FF72914218BF112014D11D
:2029E0002188818161888180A188C180E18801812189418100200290019020890090E3889A
:202A0000A2886188208806F011FF04B010BD70B50C46DFF8B8170978022918BF012915464F
:202A200001D1122070BD0DB9022070BD07F036F8060001D1142070BD1CB1307940F002004A
:202A400030711022294606F1140001F0BBFE28697062002070BDF8B506000C4601D10220D6
:202A6000F2BD308807F01AF8050001D11420F2BDDFF858070078022818BF012803D0287BDE
:202A8000082802D10CB11220F2BDDFF83C77786908B11120F2BD2C2008F0B2FD786108B904
:202AA0001320F2BD2C2200F096FA7869318841801C22311D001D01F085FE79690220087072
:202AC000287B7969328808280CBF012000200B1DDFF8FC16097800F085FB06461CB12146F9
:202AE000284600F041FD0EB100F035FA3046F2BD38B504460D4606F0D1FF08B9142032BD03
:202B00008DF8005000A9204600F068FC32BD38B5002298B101230624251815F8015C303DD4
:202B20000A2D0BD203FB05220A25641E6B43E4B2002CF1D11046BDE8344001E0022032BD18
:202B400030B505460C4685B0204606F0A7FF08B9122019E0DFF87C06854228BF022013D2C2
:202B60001022002100A801F02BFE280A8DF801008DF80050280C8DF802002146280E8DF8D6
:202B8000030000A800F071FB05B030BD2DE9F0418046DFF838060078022814BF012812209A
:202BA00082B00C4615461E462BD00DB9022028E0404606F073FF070008BF142021D0B86AE4
:202BC00008B108F02EFD1C21284602F003F90100B96208BF132014D0387B082809D146B1D2
:202BE000887E009001F112030A8A404600F0E6FC00E00020397941F004010CB141F0020173
:202C00003971BDE8F6812DE9F0410D4606F046FF04001ED0656200F0E1F9C5B205B92578C4
:202C2000666A94F80580102001F09AFD070010D0D0203870062200207870A11D0920B8703D
:202C400087F80380381D01F0BDFDFE60394628461EE0BDE8F0812DE9F04104460D46904659
:202C60001F460E2001F07CFD06000FD0D020307006220020707041460C20B070B580B01DE5
:202C800001F0A0FD37733146204601E0BDE8F081BDE8F04101F05BBEF0B5040087B051D047
:202CA000A079DFF82455002828690CBF0826042608B9DFF824050778DFF82005006820B15A
:202CC000416808001CBF00208847E07904F1080105F022FE217DE07105910246618A0491C0
:202CE00004F10803218A0391E18902910196A18800913946E07800F056F8E07870B917207A
:202D000003900122E0890290019604F108000090E379A188384606F06AFEE070286908B1E3
:202D200000F031F9287868B1697800F09FF848B1E378312B04D0A2882978184600F061F862
:202D40000020287007B0F0BD70B505460026A88806F0A4FE18B10678A88806F075FEDFF842
:202D60006844207838B1864205D1617800F07EF840B1002020702EB1AB79AA88A8783146DC
:202D800000F03FF8606908B100F0E5F8A88806F0C4FE042802BFA888A189884204BF4FF6BC
:202DA000FF70A08170BD2DE9F0410646884617461C46162001F0D4FC050020D0D0202870C2
:202DC0006E700520A870EF702CB106222146281D01F0F8FC04E006220021281D01F0F0FC94
:202DE000069868812946079828730898E881099828820A9868820B982875404648E7BDE829
:202E0000F081F8B504460D4616461F46082001F0A7FC48B1D021017044700621817086804D
:202E2000877101462846DCE0F1BD2DE9F04180460D4616461F460C2001F092FC040013D0C8
:202E4000284606F02BFE08B9DFF88C030078D021217084F801800721A170A580E68027815B
:202E600006996181214613E7BDE8F08110B50C4606F028FE28B12146BDE81040408808F032
:202E8000F1BC122010BD2DE9F84F0746894692461C46484606F002FE5FEA000B1EBFCA4D07
:202EA0006969002955D00A6A182002B134208A6A02B1143004B11C30496A01B1163080B276
:202EC00001F04EFC060044D0182200F084F800F085F85FEA000808BF9BF80080D0203070CF
:202EE00077700A20B070A6F8049086F806A006F118076969086A38B1B7603846096A00F10F
:202F00001C071C2201F05EFC6969886A38B1F7603846896A00F11407142201F053FC3CB121
:202F20003761384600F11C071C22214601F04AFC6869416A29B177611622416A384601F00B
:202F400041FC31465FFA88F001F001FDBDE8F14F01E0BDE8F18F10B59B4C606990B1006AF2
:202F600008B108F05EFB6069406A08B108F059FB6069806A08B108F054FB606908F051FB0F
:202F80000020606110BD10B58F4C206918B108F048FB0020206110BDF8B504460D46284630
:202FA00006F07CFD060015D000F018F8070008BF3778062001F0D4FB06000BD0062200F05B
:202FC0000AF8D020307074700E20B070B5803146F8B206E0F1BD002101F0F2BB262005F049
:202FE0008BBBBDE8F44001F0B2BC2DE9F84305460E4617469846304606F050FD5FEA00091D
:2030000021D0102001F0ACFB04001CD01022FFF7E2FFFFF7E3FF08B999F80000D021217052
:2030200065700F21A170A680277284F80980C0B20899A1720999E1720A99E1602146BDE8AB
:20304000F44301F084BCBDE8F1832DE9F0410746884606F023FD040022D00E2001F080FBE7
:2030600005001DD0FFF7BAFF060008BF2678D0202870062200206870A11D0B20A870E81C97
:2030800001F0A0FB18F0010118BF012129736F8118F0020118BF01216973F0B22946F7E548
:2030A000BDE8F0812DE9F14F90460D469946404606F0F4FC07000A9EDDF82CA0DDF830B02B
:2030C0000D9C3ED09DF8000000283AD1387940F010005FEA49714CBF40F0020000F0FD0053
:2030E000002E08BFBAF1000F08D1BBF1000F08BF002C03D100F0FB00387122E040F00400FC
:2031000038713CB1206978621022214607F1140001F058FB3EB135B9B86A08B108F081FAA2
:203120001C2130460AE0BAF1000F0AD0012D08D1B86A08B108F075FA1C21504601F04AFE09
:20314000B862214D6869002839D06EB1006A20B91C2008F055FA696908626869006A18B1C0
:203160001C22314601F02EFBBBF1000F0ED06869406A20B9162008F043FA696948626869DB
:20318000406A18B11622594601F01CFB74B16869806A20B9142008F033FA6969886268693E
:2031A000806A18B11422214601F00CFB9DF8000053464A46414601B0BDE8F04F63E6BDE8FF
:2031C000F18F074908607047AC460020794600200447002040420F007846002008470020C6
:2031E000984800202DE9F843DFF80C5704462868894690461E46002708B1112033E05EB12E
:20320000212005F079FA317E814205D3222005F073FA317E884201D2022024E0782008F015
:20322000EFF9286008B913201DE07822002101F0C7FA29684F7028680470286880F80290D2
:203240002868011DA1F800804E60CF6180F8247014B100F0C0F907462968012048700FB1D8
:2032600000F0E0FA3846BDE8F28338B5DFF888562B68002433B193F82420022A1CBF032AAC
:20328000042A01D0122032BD9A888A4201D0022032BD0146102203F10C0001F093FA2868B7
:2032A0001021353001F068F8286800F1250200F135010C3000F00DF92868417802781AB198
:2032C00003290DD1022107E0042902D10221417006E0032904D10521417000F092F9044683
:2032E000204632BDDFF8101688607047DFF8081648607047DFF80026126832B19288824251
:2033000003D1012908BF00F08DBA70471720AEE270B586B0044600208DF80000A068057864
:20332000691E0A2939D8DFE801F006060D1115191D2125292D0001A904F0E9FC122824D147
:2033400006202BE001A904F055FD1EE001A904F06DFD1AE001A904F080FD16E001A904F09D
:2033600094FD12E001A904F0ADFD0EE001A904F0D3FD0AE001A904F0DAFD06E001A904F043
:20338000EDFD02E001A904F002FED8B9608806F085FB072628B9082612E007208DF80000FA
:2033A00013E0027BDFF85015082A0CBF8968496831B10B68190003D001AA2946984706463C
:2033C0008DF800609DF8000020B1608800A900F005F801E000F0ECFE06B070BD38B50C4647
:2033E000DFF818352246022104F0DFFD0546207800F03DFA284632BD70B5DFF8FC44054660
:20340000206800280E463DD08188A9423AD1417806292FD1017809B381684969026ACB07A6
:2034200004D5137BDB0748BF072113D4C1F34003002B1FBFD368C3F34003002B092109D1CA
:20344000C1F3800100291EBFD168C1F38001002902D00B21417007E0A06800E0606818B18B
:203460004068010018BF804720684078122816D1002004E0112905D106B13226304600F01B
:20348000F6F90CE03EB9284606F008FB18B1017941F01001017129463046FFF77DFD012086
:2034A00070BD10B5DFF85044206888B1007800280CBF6068A06818B14068010018BF8047A3
:2034C00020684078122803D1BDE810400020CEE110BD2DE9F34FDFF8206430688DB09046AF
:2034E00008B912203DE0808806F0D8FA050008BF142036D009A800F0E2F93068017871B137
:20350000D0F8209005F05DFA0446002005F05CFA95F805A009AE074605F1060B0BE0066A9A
:2035200005F04FFA8246002005F04EFA6C790DF124098346AF1D07A9484604F091FB05A917
:20354000304604F089FBCDF81080CDF80CB0CDF808A0019700940E990D9805AB07AA00F071
:2035600084FE0FB0BDE8F08F70B5DFF88C530446686886B000281CBF006800280E461BD0E9
:2035800030788DF8040070788DF8050002A8B17800F015FFF0786B688DF80C0001AA706862
:2035A000049001211B682046984728B18DF8000000A96088FFF712FF06B070BD38B5CE4CAD
:2035C000A46834B1A5682C0003D0049C0094A84732BD022032BD1FB500F031F870B100A815
:2035E00000F06DF9216888880978002914BFC44BC44B00AA072104F0D8FC00E0012004B0F2
:2036000010BD1FB500F01BF800F12501102200A801F0D8F82068BC4B0AE01FB500F00FF810
:2036200000F13501102200A801F0CCF82068B74B808800AA112104F0B8FC04B010BDAE4C43
:2036400020687047F8B5AC4F04463868006A0025002840F0AD80102007F0D2FF39680028C4
:20366000086200F0A3808E681022214601F0AAF838680178002973D1026A12F80CCF06F1DD
:2036800014010CF0010C0B6803F00107674518BF00275B0847EA43030B605F08D2F800C0BE
:2036A0004FEA5C0C00F087F818BF002723F0020343EA47030B609F08D2F800C04FEA9C0CF0
:2036C00000F079F818BF002723F0040343EA87030B60DF08D2F800C04FEADC0C00F06BF86A
:2036E00018BF002723F0080343EAC7030B601F0AD2F800C04FEA1C2C00F05DF818BF0027D5
:2037000023F4807343EA07230B605F0AD2F800C04FEA5C2C00F04FF818BF002723F400736A
:2037200043EA47230B609F0AD2F800C04FEA9C2C00F041F818BF002723F4806343EA87235B
:203740000B60DF0A1268D20A07F0010702F00102974218BF002723F4006242EAC7220A60FC
:20376000617800291EBF71780029052119D16168C1F3800121B9B17C490758BF012110D5D5
:203780000178002919BF31782278327821780529B8BF052A08DA0FF28C1302EB8202D21878
:2037A000895C2030017104E0182502E0132500E011252846F2BD07F001070CF0010C674540
:2037C00070470A46524B15E010B586B00446ADF800101046014608220DF1020000F0F2FFAE
:2037E0004C4B00AA0B21204604F0DFFB06B010BD0A46494B112104F0D8BB1CB58DF80010A2
:2038000004461046014606220DF1010000F0DAFF424B00AA0821204604F0C7FB13BD0A4635
:203820003F4BE7E710B5FFF70AFFE0B1006A08B107F0F7FE2068806E08B107F0F2FE20682E
:20384000C06E08B107F0EDFE2068006F08B107F0E8FE2068406F08B107F0E3FE206807F0CB
:20386000E0FE00202060BDE8104000F0AFBC224900B5096885B081B14A6F03920A6F029227
:20388000CA6E01928A6E00920B7F8A880978FFF709FC05B05DF804EBC4E705B000BD164946
:2038A0000968102000291CBF0A6A002A06D0896821B1087E117A814238BF0846704738B56F
:2038C00004460D48006800281CBF8568002D0CD02878207068786070201DA97C00F06FFD4A
:2038E000287E20726869E06031BD2046BDE838401022002100F064BF58480020437E010026
:20390000597C0100617C0100E37D01000B7E0100797E0100A17E0100E97E0100FB7E01000E
:203920004B7F0100010102010201010201020303040103010101010103030201030000008F
:20394000DFF8C0068178FF2900D170472DE9F84F40684FF4907202FB010400F030FA02FBBE
:203960000100009004F20B100178012908BF417800F08B8004F1740504F58C76287B022851
:2039800004BF00202873F18811B1307901F023F860892081DFF87006817A90F807C090F810
:2039A0000C90C37A427B01EB0C0ECE449E4402EB0E0704F5877E1FFA87F8BEF804707F1C1A
:2039C000AEF80470BEF800704744AEF80070BEF80270CF19AEF802703768DFF830666FB1B2
:2039E00096F80EA037F81AB0D84427F81A8007EB4A08B8F84A70CF19A8F84A70BCF1000F11
:203A000008BF002B04D1B9F1000F08BF002A22D02189E2895118A18100212174217F012923
:203A200004BF618CE183417859B101212177A978002904BF297B002903D1A97E09B9618C71
:203A4000E183009924310A7C42B3022A04BFC27A002A1FD121E0E28339B100212174217FAE
:203A6000012907D1618CE18304E0BEF80610491CAEF806102189A2898A42D4D1207C08B187
:203A8000052901D0082100E03E212046BDE8F44F07F0E4BE427A0AB102220A74C37BDFF8AA
:203AA0007025DB0707D50169183101612368D9600021516106E052690A602268B168D16028
:203AC0000021E183DFF84C154969097889074CBF807B81202870204600F076F901280BD05E
:203AE00001212046FEF785FB00F008F801281CBFBDE8F14F07F076BFBDE8F18F2DE9F8434E
:203B0000DFF80005416880784FF4907202FB001400F055F904F1680502FB01082868006834
:203B200004F18E0708B100200CE0A87B002804BF287E002807D13878002804BF207F01281F
:203B400001D1608CE0832089E18B0818401C6081204607F07FFE01281EBFDFF8BC040078E3
:203B6000012801D100F025F9287E01280CD16A8B6189208907F06AFE30B121896289481CCF
:203B800082421AD06A8B0FE03878012815D17A886189208907F05AFE00281FBF2189481CDC
:203BA0006289824209D07A88824206D0501E608180B207F07BFE401EE08308F1240898F87A
:203BC000100008B100F0F5F804F12E07287E012801BF688B2189491C884237D1608104F1DC
:203BE0008401204607F02EFE688CE189608400202077E08360890818A0812189688B07F09D
:203C000055FEB988EA8BB5F820C001FB0026A88C8C4504BF3989884202BF698CFA8891428D
:203C200006D003096A8CA0794FEA5C0105F0C1F8287F3870288CB880688CF880A88C3881BB
:203C4000204607F0FBFD0220287600E0BE88E08B2268D2F80CC0401C00FB06F3DFF8BC6358
:203C600040F6C41000FB03F18C44C2F80CC03668DFF8ACC33678BCF800E0DFF88C23B6098A
:203C8000032E12D1D67BF60748BF4FF0000E0CD40EF101061FFA86FEBEF1010F12BF668A6B
:203CA000B8F80E6006F2DC5600E0668A5E434FF4C879B6FBF9F6761C6661ACF800E0A36146
:203CC000E38BD4F800C084F82030D04B9E68DCF80CE0CCF810606669AEEB06069E60CCF8D3
:203CE0000860DFF82CC31E7B06F0F00646F002061E7300265E80DCF814E066690EEB460662
:203D0000CCF814602D7E022D04D13D7800FB0565CCF81450D57BED071DD59D68A5F5A86598
:203D20009D60691A2668B5603161DCF8141001F5F661CCF81410C8F80010B988B94D00FB8F
:203D40000150CCF81C00B848007801281EBFB148806A40780FE0BD88DCF814104543A1F5CF
:203D6000E661A5F51675A942E7D30821204607F075FD01201BE08CF80B00AC49206843606F
:203D80000020107050709070D070107150719071D071107250729072D07210735073D073EE
:203DA0001061072008702046FEF717FD0020BDE8F2830020E0832089401C608170479C4846
:203DC000A1790068382270472DE9F04782460AF106069748317800688B4C382282B002FBE4
:203DE00001080AF1E3090AF1E8070AF1660507E0504607F01FFD012835D15046FEF7A0FA9F
:203E0000687D80B3687C02281BD004282ED0052842D0062871D00728EAD0092800F0BF8070
:203E20000B2800F08F800C2800F0C6800D2800F09E80FC2817D0FD2800F0DD80FE28DFD150
:203E400011E0287C012808D1E07800285AD01621504607F003FD012006E05046FEF7F3FCDC
:203E60002874E88A28830020BDE8F687287C01280ED1A078002845D0FC215046FEF77EFA26
:203E800030780AF1B4020AF1AC0107F0CFFCB7E7504607F0C7FCE3E7287C01280FD1A078E2
:203EA00028B101208AF89200002038607860B87A01286BD106215046FEF760FAA0E799F8A9
:203EC0000000012809D1504607F0A8FC0128CAD10020B87201202874C5E799F8010000287D
:203EE000C1D00AF1C3020AF19C010AF1D30007F091FC012089F8000082E7287C01281DD1C1
:203F0000A078002842D0B08B30835046FEF718FA00F09CF80120A871397A3078012903D1AD
:203F2000002107F073FC03E00122002107F06AFC002038723873F872B87261E7504607F098
:203F40005DFC8DE7287C012805D1F87A012808BFFC21B0D01AE0504607F04CFC0128BBD16E
:203F60000020F8728AF892000120287448E7287C012810D1A07830B100208AF8920000F0EC
:203F800065F80120A871E078002810D100F058F8A2D122215CE7504607F068FC60E7287C14
:203FA000012805D1A0780028F0D0B08B308324E75046FEF7EBF853E7287C012815D1787EB8
:203FC000012808D1B87E012804D100F033F8002007F00CFC11E700F033F87FF444AF00F008
:203FE00029F8222007F002FCD3E70120F876504607F0F8FB34E798F820105046FEF7BEF983
:20400000B2E70000B04C0020704E0020E04D0020384D002060C20100894C00204848002053
:20402000B6480020F0DDFFFF864C0020B84C002040480020388C0090FB8B3A7F31787047E6
:20404000288B401E288380B20028704701202870504607F0C3BB704738B5614D04462868A3
:2040600008B1102032BD07F0B5FB58B9122007F0C7FA286020B1002101704470002032BD18
:20408000132032BD012032BD38B504000D4618BF002D01D1022032BD032100A800F06CF9A2
:2040A00000A82A4600F027F8040004D1032200A9E81C00F087FB204632BD30B504000D462B
:2040C00018BF002D83B001D102203EBD0322E91C00A800F077FB00A801AA00F00CF848B93E
:2040E0000322294601A800F086FB012801D100203EBD01203EBD817801F03F0141F0400144
:204100008170204600A980E030B50C46002818BF002C8DB0154600D00DB9022011E0014655
:20412000102200F06FF81022214604A800F0B8FB00F099F80446102208A9284600F0B0FB57
:2041400020460DB030BD70B5254C0546206870B3A5B9027862B90822801C00F033FB07F0F5
:2041600039FB18B92168012008701FE0012503E008220A3000F026FB2068B8B1122000F088
:20418000EFFA06000DD0C1203070757010222068811CB01C00F016FB20684078314600F022
:2041A000D6FB206807F03DFA00202060012070BD80B5202004F0A0FA38B10246094800788D
:2041C000BDE80840012105F0EFBF01BD05480078012106F001B80248006800B1012070479E
:2041E000A8480020BB48002070B58CB000F020F800F006F8280A8DF81E008DF81F50ABE0E1
:204200001022214600A800F04BBB70B58CB000F00FF8FFF7F5FF032229460DF11D0000F086
:204220003FFB00F020F8044603220DF12D0198E004460D4616463022002100A800F0C0BAAB
:2042400070B58CB0FFF7F4FFFFF7DAFF00F08FF800F009F89DF82F109DF82E2001EB022117
:2042600031800CB070BD00A8C2E0F0B595B005460C4616461F463022002108A800F0A0FA65
:204280001022294608A800F00BFB1022002100A800F096FA07223146FFF7B4FF072239466B
:2042A0000DF1070000F0FCFA1C9901B101218DF80E101A9901B101218DF80F101022002169
:2042C00004A800F07DFA1B99062205A800F0E8FA1D9906220DF11A0000F0E2FA1022214615
:2042E0000CA800F0DDFA00A90CA800F01AF808A800F07EF80446102210A90CA800F062FA99
:2043000004A90CA800F00DF808A800F071F805461E98102210A900F0C3FA45EA040015B0AD
:20432000F0BD10B51022037811F8014B6340521E00F8013BF7D110BD70B50C468CB015461F
:2043400001461E461022FFF75DFF0822214604A800F0A6FA00F00BF8FFF785FF0446102278
:2043600008A9304600F09CFA20460CB070BD0822294606A800F094BA70B504460D460026D4
:2043800009E000F01CFD010A3155761CF6B2AE423CBF3055761CF6B2AE42F2D370BD00686C
:2043A00000F00301C0F3800241EA8201C0F3C00241EAC201000941EA0010C0B270470268EC
:2043C00061F3010202604A0703684CBF0422002223F004031A4302600B074CBF08230023D1
:2043E00022F0F8021A43090942EA01110160704700F1200200F1100107F0E8B92DE9F047F2
:204400000700144614BF002C022088B089463FD009F10405A8B207F0F3F8060036D004F0C5
:20442000BFFA80464A463946301D00F039FA86F803804FEA1827B7704FEA184986F8019035
:204440004FEA186A86F800A004F0A7FA0146102203A800F025FA0820009001ABAAB2314684
:2044600003A800F085F805000DD184F80080677084F8029084F803A0082201A9201D00F040
:204480000FFA04F091FA00F070F800E01325284608B0BDE8F0872DE9F04F89B015001CBF64
:2044A000129F002F80460E469A4615D005F0F6FA040008BF142055D03878797800EB012087
:2044C000B97800EB0140F97800EB0169606A484504D310F1010F01D0022043E026B12079F4
:2044E000800758BF01203DD50822002101A800F067F90AF1040B1FFA8BF007F081F8060093
:2045000008BF13202ED052462946301D00F0C8F904223946304600F0C3F9102204F114019B
:2045200005A800F0BDF90820009001AB1FFA8BF2314605A800F01CF8050010D1082201A94C
:2045400003A800F0ADF90822391D03A800F053F9012811BF012549464046FEF754FB00F04B
:2045600004F8284609B0BDE8F08F304607F059B82DE9FA4F834685B0154600F0CFF8814640
:2045800000F0CCF8B9F1000F804608BF132400F0B680B8F1000F08BF132400F0AD8000F001
:2045A000BDF800F0BAF8BAF1000F064608BF132436D00EB9132430E01022002100F000F950
:2045C000524631465846FFF717FF040025D19AF800000FF27C17000604D44946504600F00F
:2045E000AAF808E03146504600F0A5F84A463946304600F096F899F80000000604D441469E
:20460000484600F098F808E03146484600F093F842463946304600F084F8504607F001F8B5
:204620000EB1FFF7A2FF002C66D100F077F800F074F8BAF1000F064608BF132459D00EB912
:20464000132453E005F10F00C11000EB117007033F1405F00F0102D10127002202E04A1EE5
:204660009241D20F781E059B000503EB104012B222B13246494600F054F810E000AB8A42CC
:20468000B8BF155C02DB0CBF80250025D554521C102AF4DB3246414600A800F042F810221D
:2046A0000021504600F08CF800250BE00598290189B2091800AA504600F033F800F029F830
:2046C00004466D1C2DB2781E854201DA002CEDD064B900AA3146504600F023F800F019F827
:2046E0000446109A0698514600F06CF8504606F098FF0EB1FFF739FF484606F092FFB8F16F
:20470000000F1CBF404606F08CFF204607B0BDE8F08F524600A958466EE68246102006F046
:204720006FBF30B500231C5C5D5C6C409C545B1C102BF8DB30BD10B500220F231C5C42EA47
:2047400044025A541A5CD2095B1EF7D510BD0000000000000000000000000000000000877B
:2047600010B5041C05D004F10C0080B206F048FF08B9002010BD002101600481FF23837243
:204780000C3010BDB9480078704708B5002808BF052009D010F8021CFF2918BF042003D119
:2047A0000C3806F03EFF002008BD10B580F08004032C01DB00F090F9AC48001D005D10BD25
:2047C00006F00DBD034610461A4628B111F8013B401E02F8013BF9D11046704728B142B1C5
:2047E000401E10F8013F994201D000207047521EF7D10120704710B5401E491E4AB111F8F2
:20480000013F10F8014FA34218BF002002D1521EF5D1012010BD2DE9F843C04D07466868B2
:20482000804781469148836800246FF00B0680469C4213D013F8020C874208D134B16BB14F
:2048400038464FF4004100F0C6F80CE01C460CB9A3F10C0653F80C3C002BEBD138464FF4B4
:20486000004100F005F9ACB168688047D8F80810A4F10807A14219BF54F80C1C316057F87A
:20488000041CC8F80810002147F8041CFF26BE71A9688847A968484688472046BDE8F88378
:2048A0000346104609181A46491E28B111F80139401E02F8013BF9D1104670472DE9F041A3
:2048C000904606460F1C08BF05243DD036F07F0001D000F001F90A2EA8BF032407DA57F838
:2048E0000C0C18B917F8020CFF2804D005243846FFF74BFF28E007F8026CB14C5B4D6068EE
:20490000B8F1010F13D080470246002047F80C0CA868002808BFAF6005D0014651F80C0CEA
