:20000000E83F0020F14F000001CA011001CA011001CA011001CA011001CA011001CA011031
:1C00200001CA011001CA011001CA011001CA011001CA011001CA01103FCA011082
:20003C002DE9F0472C4D002850D0401E4AD0401E44D0401E0AD0401E4CD105294AD1106838
:20005C000C35286017792F71BDE8F087012941D1AF681078002FE8703CD0204801780024FC
:20007C004FF6FF7A8046A14234DDA000C619385A82451ED0B078E0B105F11400EB1C11212A
:20009C00C268934204D0491E00F11000F8D110E08146B078410805D3308801214A4603F0E3
:2000BC0071FEB078800804D3308802214A4603F069FE98F80010641CE4B2D4E7012909D1F4
:2000DC00AD1C05E0012905D16D1C01E0012901D110782870BDE8F0876428002024230020A1
:0400FC0030BF70475A
:200100003C000000000000000000000034010000000000000000000001000000000000006D
:1C01200000000000000000000000000001000000000000000800000000000000BA
:20013C00340000000000000000000000680100000000000000000000010000000000000005
:14015C00010000000000000000000000080000000000000086
:2001700030000000000000000000000098010000040000000000000001000000FFFFFFFFA5
:10019000FF00000001000000080000000000000057
:2001A0002C0000000000000000000000C4010000040000000000000001000000FFFFFFFF4D
:0C01C000FFFFFFFF08000000000000002F
:2001CC0034050000E401000099A1011095A70110A5C2011009B2011045B80110000000000B
:0801EC00000000002E000000DD
:2001F400280000000000000000000000140200000000000000000000FFFFFFFF00000000B1
:080214000800000000000000DA
:20021C00300500003002000069C201106DC101101FC2011095BA011000000000000000008E
:04023C00300000008E
:20024000300500005402000075C20110A9B601109DBF011049B601100000000000000000DE
:040260003100000069
:200264002400000000000000000000008002000000000000000000000000000008000000CC
:040284000000000076
:20028800240000000000000000000000A40200000000000000000000000000000800000084
:0402A8000000000052
:2002AC00240000000000000000000000C8020000000000000100000000000000080000003B
:0402CC00000000002E
:2002D00000000000F02D00200400000000000000000000002000000070010000300000000C
:2002F0001C020000F82D00200400000000000000000000000C00000030040000180000002F
:2003100040020000002E0020040000000000000000000000240000004804000018000000B1
:2003300000000000082E002004000000000000000000000010000000A00100002C00000076
:20035000CC010000102E0020040000000000000000000000200000006402000024000000B4
:20037000FFFFFFFF182E002004000000000000000000000028000000880200002400000031
:20039000FFFFFFFF202E0020040000000000000000000000580000003C0100003400000016
:2003B000FFFFFFFF282E00200400000000000000000000001000000060040000180000002B
:2003D000FFFFFFFF302E00200400000000000000000000001C000000AC02000024000000A1
:2003F000FFFFFFFF382E002004000000000000000000000038000000F40100002800000012
:20041000FFFFFFFF402E002004000000000000000000000054000000000100003C000000AD
:1804300018000000000000000000000040040000080000000000000050
:1804480018000000000000000000000058040000080000000000000020
:18046000180000000000000000000000700400000800000000000000F0
:0804780001000000C46D00004A
:0404800004F0BCBA0E
:040484000100000073
:0404880000000C0064
:04048C0000000D005F
:040490003200000036
:040494000200000062
:04049800242C0020F0
:04049C00000200005A
:0404A0000000000058
:0404A40001CA011078
:0404A8000000000050
:0404AC00000000004C
:0404B0000800000040
:0404B4000000200024
:0404B800EC2B002009
:0404BC00010000003B
:0404C0001C2D0020CF
:0404C400080000002C
:0404C8000000000030
:0404CC00000000002C
:0404D0000000000028
:0404D4000000000024
:0404D8000000000020
:0404DC00010000001B
:0404E000842C002048
:0404E400060000000E
:0404E800010000000F
:0404EC00D82A0020EA
:0404F0000000000008
:0404F4000000000004
:0404F80000020000FE
:0404FC0000000000FC
:02050000704742
:020502002A00CD
:020504000100F4
:020506002500CE
:020508003000C1
:02050A003100BE
:02050C002E00BF
:02050E000100EA
:0105100001E9
:0805140003000000646D00000B
:08051C000000000000000000D7
:0405240000000100D2
:0405280000000300CC
:04052C0087C401106F
:04053000380500008A
:040534003805000086
:0405380000000000BF
:04053C00800000003B
:040540008000000037
:0405440000000000B3
:040548001C2D002046
:04054C005B640000EC
:040550002000000087
:04055400046D000032
:04055800546C0000DF
:04055C000DC30110BA
:040560007B520000CA
:04056400F756000046
:0405680099C801101D
:04056C009BC8011017
:040570000000000087
:04057400A36D000073
:04057800986B00007C
:04057C00B06B000060
:04058000806B00008C
:0205840008006D
:0205860009006A
:02058800010070
:02058A0000006F
:01058C00016D
:040590000000000067
:040594000000000063
:04059800000000005F
:04059C00000000005B
:0405A00021630000D3
:0405A400FD51000005
:0405A800E95F000007
:0405AC00995400005E
:0405B000D946000028
:0405B4007D55000071
:0405B800293E0000D8
:0405BC00AD6000002E
:0405C00039470000B7
:0405C40011C8011049
:0405C80021C8011035
:0405CC000800000023
:0405D0002400000003
:0405D400180000000B
:0405D80028000000F7
:0405DC0020000000FB
:0405E0003C000000DB
:0405E4000C00000007
:0405E80034000000DB
:2005EC002DE9F84F044640F294214FF0010A41F21000C4F22231C4F20900C0F800A0086844
:20060C0010B908680028FAD046F2000043F6B477C021C4F20C00C5F200070160D7F80080F6
:20062C0057F8041C46F25620C4F20800890806D257F8081C090C41F0F001017001E07221DB
:20064C00017041F2B821C5F200010968C1F304611629A8BF20393A68121789184B1C13F1F9
:20066C000A0FB8BF6FF0090300254FEAD8624FEA986103F01F03C4F2203582F00102002CE8
:20068C0081F0010143F4F853038302F001022A6001F00101A96041F25035C5F200056FD0A5
:2006AC002968C1F38360C1F38F265FEA984164D248F30721002927D54A42B1F1FF3F4FEA18
:2006CC00620215DA760805D1400806BF504656464FF6FF76760801F1010105D1400806BF19
:2006EC00504656464FF6FF76521E01F10101E9D15FEA582208D3760805D1400806BF50464F
:20070C0056464FF6FF76491C002936DD02294FEA610E01F001091EDB4FF6FF7C760046F0A3
:20072C000106B44507D2400040F001000F2892BF56460F206646760046F00106B44507D2DF
:20074C00400040F001000F2892BF56460F206646BEF1010EE2D1B9F1000F0EDD76004FF64D
:20076C00FF7146F00106B14207D2400040F001000F2892BF56460F200E1C46EA004603E0AD
:20078C0040F6FF76C0F20F0605F00CFF0021002808BF514648F20009C4F20C09D9F8000055
:2007AC0018B9D9F800000028F8D04AF2080BC4F20C0BCBF81060C9F800A009B105F0F8FE46
:2007CC00002C08BFD82107D029682868C1F3870100F0030041EA002188B2009040F2FF3281
:2007EC0000232C214AF20000C4F20C0003F0CCFF3CB141F27C30C5F200000068C0F30D0511
:20080C0001E040F2FF3505F0CDFE0021002808BF5146D9F8000018B9D9F800000028F8D0BB
:20082C00CBF81450C9F800A009B105F0C1FE002C04BF0025C6F688050CD041F27430C5F2EF
:20084C00000001684FF6FC45C0F2FC0501F07C400D40054305F0A6FE0021002808BF514668
:20086C00D9F8000018B9D9F800000028F8D0CBF80C50C9F800A009B105F09AFE002C04BF53
:20088C0047F28A65C0F2680509D041F27030C5F20000006801040D0C00F47C00054305F06F
:2008AC0081FE0021002808BF5146D9F8000018B9D9F800000028F8D0CBF80850C9F800A027
:2008CC0009B105F075FE002C33D041F27830C5F20000056857F8042CC5F30341C5F3035036
:2008EC00520816D243F6AC72C5F200021268130510EB237003D4102802DB0F2000E000205F
:20090C00120411EB227103D4102902DB0F2100E0002141EA001105F47F4005F0FF02222CD0
:20092C0040EA014042EA000207D305F08045154304E043F62772C0F27102154605F032FECB
:20094C000021002808BF5146D9F8000018B9D9F800000028F8D0CBF80450C9F800A009B14F
:20096C0005F026FE222C07D341F28C30C5F200000068C0F3007000E050464AF240064000C1
:20098C00222CC4F20C0640F0200086F8090107D341F28C30C5F200000068C0F3407000E032
:2009AC00504640F01000202C86F8090138BF00250AD341F29830C5F200000168C1F38455E0
:2009CC00C80C00F44070054305F0ECFD0021002808BF5146D9F8000018B9D9F8000000282B
:2009EC00F8D0CBF82050C9F800A009B105F0E0FD202C07D341F29830C5F200000068C0F310
:200A0C00015000E000204000222C40F0600086F80C0107D341F28C30C5F200000068C0F335
:200A2C00C06000E00020C000222C40F0800086F8010107D341F28C30C5F200000068C0F3B1
:200A4C00455000E000208000202C40F47C40A6F89C013CBF48F20005C4F23F050ED341F2B6
:200A6C009830C5F2000000680503A90D890505F47C1500F00F000D4345EA003505F092FD76
:200A8C000021002808BF5146D9F8000018B9D9F800000028F8D0CBF80050C9F800A009B112
:200AAC0005F086FD44204FF0880E86F8C50086F8C7E03CB141F28C30C5F200000068C0F363
:200ACC00C14000E0002040F03001C8F3815086F8C81070B3401E06D0401E25D004200221D5
:200AEC0003F0D7FF2FE0504605F0E6F904460420214603F0CEFF042005F0DEF98442FAD192
:200B0C0057F80C4C24F07F4004F0A6FE40F2B410C1F200000068036807214FF06022200E24
:200B2C0098474FF4806030600420032103F0B1FF09E00420514603F0ACFF43F2BD70C0F2D6
:200B4C00860004F089FE41F2B820C5F20000D0F8B4004BF2700242F22C0E46F2000B47F6AD
:200B6C0018014FF0000C41F21009C4F20C02C4F2090E40F2944800F03F0086F8CB0FC4F2DD
:200B8C000C0B1180DEF80000CBF800C0C4F20909C9F800C0C4F26028C8F800A0BDE8F88F35
:200BAC002DE9F04F08264FF00108ADF16C0DADF8106004A8ADF8128004F0B2FFB34CBDF8F6
:200BCC0014006080069804F12C050021A060284605F05AFEDA4941F28832042304F16C00DD
:200BEC00E56004F04FF9D94D05F1100005F1080102F0FCFF686007A805F0D0FB07A801F079
:200C0C000DFF2860D0B1016891F82C70A7B1886A4768D0F80090896800F1080A083005F0B3
:200C2C002FFE40B127B100207F1E09F8010BFBD1504605F021FE286805F032FC1F20062159
:200C4C0004F06EFD8DF85A8000258DF85B805020ADF84A004FF44877ADF848504FF47A7377
:200C6C00ADF84E504146ADF84C700DF15A02ADF8503040F2053001F04DF840F20630022196
:200C8C0012AA01F047F804F14D024FF442701E2101F040F804F11C0240F20730072101F026
:200CAC0039F84FF4447041460DF15B0201F032F840F2113002210DF14A0201F02BF840F2DD
:200CCC001230022113AA01F025F840F2133002210DF14E0201F01EF84FF44570022114AA12
:200CEC0001F018F8C949032004F058FB0620A02104F016FD0720A02104F012FD3046A0215B
:200D0C0004F00EFD0920A02104F00AFDC1461195A8468DF85C904FF481608DF85D9004211C
:200D2C008DF85E8011AA8DF85F9004F0DFFC4FF48060494617AA04F0D9FC40F20240494607
:200D4C000DF15D0204F0D2FC40F2034049460DF15E0204F0CBFC40F2064049460DF15F02E5
:200D6C0004F0C4FC032004F0C5FD042004F0C2FDCA48CB4A132104F099FA4FF0040AC94DBE
:200D8C00ADF828602878ADF82AA080000B900AA804F0C6FE002814BF47460C9FC248834680
:200DAC00876087B12B7843B14FF6FF703F1F27F8040F5B1E87F80280F9D1CF4A0BF11400C0
:200DCC00112104F073FA022748468DF8617003238DF8600052468DF86230C8498DF8632094
:200DEC000DF1520740460A6809793A6018AA39714946FFF71DF9484649460DF16102FFF701
:200E0C0017F9022049460DF16202FFF711F9032049460DF16302FFF70BF9504605210DF1DA
:200E2C005202FFF705F904F118006F78CBF8040037BB04F1140095F810A095F802902863C1
:200E4C00182005F0DDF8071C1AD00421424605F0E1FA504605F043F8387287F8099087F8F3
:200E6C000A8005F14A00F86005F15A033B6105F12C027A6105F0D4F8A14A394604F0ACFA91
:200E8C000C2005F0BDF8071C0ED001E0881F00200121042205F061FB04F12400B86005F008
:200EAC00BFF8394604F008FF012004F03DFD022004F03AFD7DA0414604F050F80A20ADF8AA
:200ECC000200ADF800604FF0FF370197684604F027FE002840F0CA8000201090ADF8346090
:200EEC000927ADF836700DA804F01AFEDDF83C800028CDF8408040F0B480BDF838004FF0DC
:200F0C00010910286AD16088BDF83A10884265D1454628884FF6FF7181422BD02878B0283B
:200F2C005CD16878162813D028797E280AD07F281AD1298961A0052205F0F0F814E0C04613
:200F4C00E5630000297A60A0F5E7C046702B00206888314604F042FE30B9484603F056FBA7
:200F6C004FF00009256139E0297905F1080005F041F933E06888000930D3256975B3207852
:200F8C00B5F802B0401C207095F804A0102005F037F80835071C1CD00221152205F0DDFA03
:200FAC00A7F808B087F80AA0FD6005F039F8554A394604F011FA0546162D0AD0042D08D094
:200FCC0020694088002104F009FE284603F01EFB04E0217840A0052205F0A0F8109800283D
:200FEC003FD0B9F1000F3CD0404605F03FF938E0E068054605F03CFC50B9284605F034FCEA
:20100C00876805F01BF9384603E0C046796600000020074628B33888401E16D0401E17D1F4
:20102C00B87838B1801E13D1022019A903F0B8FF2DA004E0002019A903F0B2FF2CA09DF8E3
:20104C006410042205F06AF802E0B87801F0F8FAADF808600520ADF80A00039702A804F085
:20106C005FFDE06805F004FC0028C1D0A088C108FFF424AF20F00400A08005F09FFA022077
:20108C000DF1650103F08CFF00287FF417AF032001210DF16502FEF7CBFF0FE73427002027
:2010AC004C6D00002423002064280020424C45205065726970686572616C00C04D54552083
:2010CC0053697A653A00C04646432056696F6C617465643A00C046C05273702073656E6449
:2010EC002072657472793A004368617220333A004368617220313A00586D00009E6D000070
:20110C007F6600004B6500002DE9F04F0120ADF1440DADF81A000827ADF8187006A804F00C
:20112C00FFFC00263546CA4C8DF83E50BDF81C00208266700898A0624FF6FF70E08238465F
:20114C0004F05EFF5FEA00080DD00121122205F004FA04F065FF0DF13E010123CD4A00915A
:20116C00414604F057F99DF83E00DFF82C83324601232070414604F1A80003F083FE04F186
:20118C00CC0032460223414603F07CFE04F1F00032460423414603F075FE042031461022A8
:2011AC00A07004F14A0002F000FF04F15A003146102202F0FAFEE562E67126720720A6728C
:2011CC0004F14A0210216072022004F05FFB04F15A020320102104F059FB042004F12C021B
:2011EC00014604F053FB22E06578228B618BA38BE08B062D1BD1062A19DBB2F5486F16DAB8
:20120C00062914DBB1F5486F11DAB3F5FA7F0EDA0A280CDBB0F5486F09DAE083228361830F
:20122C00A383012002F0AAFFBD4805F043FA0A20ADF80A00ADF808704FF0FF35039502A8DE
:20124C0004F06EFC002840F0818130460C90ADF824700925ADF8265009A804F061FCDDF85F
:20126C002C900028CDF8309040F07081BDF82800102840F05F81208ABDF82A10884240F020
:20128C0059814D4628884FF6FF71814200F04A812B78A23B00F02D812E3B40F04B81A8784F
:2012AC00B046002800F0FA80801E00F0D380401E012840F2A780801E5DD0401E24D0401E5E
:2012CC0003D0083800F0068109E1AD4805F0F2F90C994878002840F002810846C18821843D
:2012EC00018961844089A0848D4805F0E1F8002840F0F580656B002D00F0F1802B68208C79
:20130C00618CA28C984715E1B5F804A00A2004F077FE5FEA00080AD00121152205F01DF95E
:20132C00A8F808A004F07CFE414604F0C5FCB5483146062202F039FE26846684A684A8790B
:20134C006073774805F0B6F98D4805F0B3F94FF001084FF6FF702379E0824BB9A879082886
:20136C0014BF042005206070404604F097FFB6E003206070B3E06B78E27A002B3CD1A149E8
:20138C00281D03680B6080888880062363706889E082E8892084288A6084688AA084E878A6
:2013AC00012A207308D11F2003F062FF4FF47A7141435B4804F0A4F895F803B0B5F80AA07B
:2013CC00142004F01DFE5FEA000800F08B800121142205F0C2F888F808B02D1DC8F80C50CD
:2013EC00A8F810A0042088F8120004F019FE7E4A414603F0F1FF75E06878312868D1E67081
:20140C0004201EE06878002862D1A878A18A6278032811D0E078257921B9012814BF2671CF
:20142C00E67005E0054303D0724804F069F86278072AE5D1062004E0062A06D0E07810B949
:20144C00032060704EE00220FBE70720F9E7C04624230020687800283AD1E878A17988B919
:20146C006078022813D0072811D0062802D1207901280CD15F4805F01BF840B9012004F00E
:20148C000DFF04E0604A404603F02CFB68706878F0B924E059650000A96200006878B8B987
:2014AC00554A0220102104F00BFA544A0320102104F006FA5548ED1C29680160AB88838081
:2014CC00534A012528466179657003F00BFB48B1677007E0A888454A102104F08CFAB8F15D
:2014EC00010F27D1206B28B3016819B36078884720E0687913281DD12889012808D1A07BBE
:20150C00022805D11E4805F0D5F803F04FFC11E0052003F0ADFE0146194803F0F1FF09E031
:20152C00F02300206888C00B04D3354A0420014604F0C6F90C9848B1ADF810700320ADF8B3
:20154C001200CDF8149004A804F0EAFA608A2579E17842082ED320F0010055EA010360821E
:20156C0028D07DB92B49E0798DF83400257A8DF835500A680DF136031A608988998004E0D1
:20158C001424002003208DF83400607AA57A184A8DF83C0006218DF83D500DA803F044FDCD
:2015AC00216B30B1677021B1086810B1096838468847608A810806D320F002006082304664
:2015CC0002F0DCFD608AC108FFF431AE20F00400A57B6082681E3FF407AE401E7FF427AE85
:2015EC0003F0E4FB23E6C0463D6500009D66000091660000CC2300206E2300207E230020E1
:20160C005023002068230020AD2300205C2300208E230020622300202DE9F84FCF4ED04CE5
:20162C0006F12D07CB4DDFF83083D7F8EF1F6368D7F8F30F8843C7F8F30F002BC7F8FF1FC4
:20164C0000F090816688012B00F04A81DFF86CA3DFF86CB3DFF86C93022B74D0032B40F027
:20166C00DA810026A06857F8312C66600028A2F5C062B8BF404211460029B8BF494288423D
:20168C002EDA002A54BF02206FF00100A16900EB4200032290FBF2F00918A161E368606977
:2016AC0098420BD0B1F1100248BF52422069103848BF40428242B8BF88B209DB98B200908D
:2016CC00D64830214FF47F42082303F05DF8208A0090D24804214FF4F802122303F054F8EE
:2016EC002846066001688908FCD206605546012746600E202F6001F0A7FDC9480468EFF3C2
:20170C00118584F3118859460820B0FA80F00A1AD07F431E0128D37704D14A46106820F002
:20172C000800106085F31188EFF3118384F311880420B0FA80F0091AC87F421E0128CA771C
:20174C0040F0CA80C3E057F8316CB6F5C06F00F08B804FF00309C4F8049004F023FFB346F5
:20176C00002600B90126554633462D1F2E68002EFCD0AC4A0126D2F82CA02E600BB104F076
:20178C0017FFCAF30720E06004F00CFF002300B933461A462B68002BFCD0A248D0F800A073
:2017AC002E600AB104F004FFCAF38441ABF5C0602161BBF5C06FA060B4BF6FF0010302233F
:2017CC00E26803EB400393FBF9F00918104602290FDB1E290BDB3F28B9BF521C401C3F2248
:2017EC00101C62613029B4BF10391F210DE060610BE010F13F0FACBF401E6FF03F00606189
:20180C0011F1100FACBF10310021A16180B2009082484FF47F420823302102F0B5FF7F4853
:20182C00009604214FF40032112302F0ADFF208B00907A4804214FF4F802122302F0A4FF71
:20184C00002547F8399C4446256020688008FCD27248294660220523009102F095FF2660E6
:20186C0020688008FCD367E0002161602846016002689208FCD201605546012741600E20C0
:20188C002F6001F0E1FC66480468EFF3118584F3118859460820B0FA80F00A1AD07F431E88
:2018AC000128D37704D14A46106820F00800106085F31188EFF3118384F311880420B0FADF
:2018CC0080F0091AC87F421E0128CA7704D14A46106820F00400106083F31188BDE8F88FBC
:2018EC0057F8312C02214BF2F52061605043000A36B94D49096821F07F410918480801E044
:20190C00002161800835010C2860012669600323AE60444647F8393C0025256020688008CB
:20192C00FCD23E48294660220523009102F02CFF266020688008FCD347F8216C47F8395C7B
:20194C000820C7F8FF0FC7F8F30F47F8396CBDE8F88FC04634600C4038600C400C400C4053
:20196C00E42C0020314800680068014620208847B24641F61D564FF002090F2000214FF40D
:20198C00C072CAF800000723CAF804602348CDF8009002F0F9FE464628460125056056F87B
:2019AC00040C8008FBD32088CAF8105001280BD00020294602F06EFF4D462BE004800C408B
:2019CC004D2E0020142A002040464FF000080C30C0F80080032347F8393CC6F80080306811
:2019EC008008FCD20D48CDF8009041466022052302F0CAFE356030688008FCD3202047F8ED
:201A0C00210C47F8398C0826C7F8FF6FC7F8F36F47F8395C6560BDE8F88FC04600A00C4056
:201A2C00BC6D000004A00C4010200940A00100102DE9F04F8146B9F1010FADF1140D40F092
:201A4C004981A6480068EFF3118280F31188AE4D2879012818BF012002D10221002029716C
:201A6C0082F31188012800F0338104F0F9FE0290A6480668A81904F0FBFE002427460094D3
:201A8C0006EB05080197A8B9404604F0E5FE0646B068400808D3F06831690246012090472D
:201AAC00C0B2012800F00D81304604F0D1FE0646B045EDD1002F40F0088104F0C5FE039097
:201ACC00049787480760012004F0F6F9012804D1384603F04DFB01200090824F3868806864
:201AEC0001462046884780480068B9F1010F40F08A80874E0A36F37903B10124B3790BB1F8
:201B0C0044F0020473790BB144F00404DFF8DCB173782BB1B86A006B59460246C88D9047D0
:201B2C0033782BB1B86A006B59460246488D90476F4901200860B86A8069014644F020000B
:201B4C0088476C4A2968DFF8B4A1106840F001001060480812D2684804F0D5FC8146B9F104
:201B6C00040FF8D05146086820F003000860B86C4068024660480321904701E001200190B2
:201B8C00049800F0E3FAB86A5749806B09688047019850B9B86C4068024657484946904730
:201BAC005146086840F00300086038688068014601208847524908688009FCD30098012894
:201BCC0002D1012003F0D4FAB86A4069014620468847B86A406B0146204688470128F8D1C2
:201BEC0074782CB1B86AC06A59460246C88D9047307828B1B86AC06A59460246488D904751
:201C0C003B49012008603B49032208682A7120F001000860404604F02BFE049900B101216B
:201C2C004FF00109081C19D1404604F015FE44460646B068C00807D3F068316902460420C6
:201C4C009047C0B2012806D0304604F001FE0646B442EED102E02B48006880472048224F69
:201C6C00C0F80090386804F0A3FC404604F000FE049FD0B9404604F0EFFD46460446A068F5
:201C8C00000907D3E0682169024608209047C0B2012806D0204604F0DBFD0446A642EED1A8
:201CAC0003E0184800688047022748462871039804F0C6FD02F078FC029804F0BDFD3846D8
:201CCC0009E0104800688047022701202871F3E7062000E0022005B0BDE8F08FBC6D0000A1
:201CEC000C400940900100102C200940346B0000282008600C200840004003402422084039
:201D0C0014100940B06D0000142A0020AC6D0000482D0020F8B5A0F2013517460E46022DCC
:201D2C0040F214818B4A8A492D1F0F2D04D9143D4BD0AD1E1CD011E0DFE815F0C300BD0063
:201D4C00F500E500B500AD000801A4009C0010001000940089007A006F006100272880F2AA
:201D6C00F580022E40F0F280398803F0D9FCF8BD012E40F0EB800D46E878012800F0E680D6
:201D8C000A4638781179107181B9002800F0DE805078012800F0A980042800F0A680062802
:201DAC0000F0A380052800F0A080F8BD3878002840F0CC805078032800F0A280072800F09A
:201DCC009F80052800F09C80F8BD012E40F0BE803878012840F0BA800D4605F1F00004F0DD
:201DEC0067FB002840F0B280002002F0C7F9002840F0AC802846CC3004F05CFCF8BD022EFA
:201E0C0040F0A48038880A28C0F2A080B0F5486F00F39C8015461E3517E0022E40F0968018
:201E2C003888B0F5FA7F80F2918015461C350CE0022E40F08B8038880628C0F28780B0F5E6
:201E4C00486F00F3838015461A352880F8BD022E7CD13888062879DBB0F5486F76DC0D4602
:201E6C001835F2E7012E71D1387802286EDA0D460B350EE0012E69D13878042866DA0D4644
:201E8C000A3506E0012E61D1387808285EDA0D4609352870F8BD012E58D13878042855DA57
:201EAC000D460835F5E7012E50D1387804284DDC0D46ED1DEDE7022E48D138880D4614357F
:201ECC00C3E7012E42D10D46287901283ED00A463878D178D07061B9002837D0507801281C
:201EEC0003D0042818BF052830D1012004F0D6F9F8BD387850BB5078022818BF052825D192
:201F0C0004F0AEFAF8BD0D4605F189041F220021204602F04AF839463246204601F038FD0F
:201F2C000020AE710EE00D4605F16A041F220021204602F03AF839463246204601F028FD52
:201F4C0001206E713146224602F0CCFDF8BDC04624230020242300202DE9F0411C4615464E
:201F6C008C4208BF854282BF00230022E5E0002C08BF002D0AD100290EBF00286FF0000036
:201F8C006FF0000100F0E1F8BDE8F0815FF000085FF0000E002C08BF8D429CBF2C1C0025B8
:201FAC00070C47EA01470E0CB44208BFBD429EBF5FEA044444EA15445FEA0545070A47EA69
:201FCC0001670E0AB44208BFBD429EBF5FEA042444EA15645FEA0525470847EAC1774E08C3
:201FEC00B44208BFBD4200F29380870847EA81778E08B44208BFBD427CD8C70847EA4177FE
:20200C00CE08B44208BFBD4266D8070947EA01770E09B44208BFBD4250D8470947EAC16787
:20202C004E09B44208BFBD423AD8870947EA81678E09B44208BFBD4224D8C70947EA4167CE
:20204C00CE09B44208BFBD420DD8E60146EA5566EF01B14208BFB84201D3C01BB14158EBA2
:20206C0008085EEB0E0EA60146EA95664FEA8517B14208BFB84201D3C01BB14158EB080890
:20208C004EEB0E0E660146EAD5666F01B14208BFB84201D3C01BB14158EB08084EEB0E0EA0
:2020AC00260146EA15762F01B14208BFB84201D3C01BB14158EB08085EEB0E0EE60046EADF
:2020CC005576EF00B14208BFB84201D3C01BB14158EB08084EEB0E0EA60046EA9576AF00AD
:2020EC00B14208BFB84201D3C01BB14158EB08084EEB0E0E660046EAD5766F00B14208BFCD
:20210C00B84201D3C01BB14158EB08085EEB0E0EA14208BFA84201D3401BA14158EB080868
:20212C005EEB0E0EA34208BFAA423EBF2D0A45EA0465240A89D3734642461E4617460B46ED
:20214C00024631463846BDE8F0817047F8B507460020C4F209000068800880F0CE8003F0EF
:20216C0027FD42F22421C4F208010A68002112F0030F18BF0121D20828BF41F00201002F33
:20218C0018BF41F0040141F67836C2F2000696F90720821A052A04DAB2798A4208BFB28830
:2021AC0075D041F29C340F28A0F10F02C5F2000429DB02EB0012F03A1712072F88BF072736
:2021CC00BC46BCF1060F88BF4FF0060C54F82CE00423254603EB8C03EB585FEAD10CA3EB39
:2021EC000E0303F0FF0524BFC3F3072C65445FEA910C24BFC3F3074C65445FEA510C04D35E
:20220C0005EB136501E000252F4654F827405FEAD10C04F0FF0324BFC4F3072C63445FEA43
:20222C00910C24BFC4F3074C63445FEA510C28BF03EB1463A2EB0722ACB2002554438034EB
:20224C00082C88BF012543F6B472C5F200021468126834274FF4D07C24175B1902F0FF0237
:20226C0007FB14C454434FF6FF72B4FBF3F39A4238BF131C80289AB2B28005DA10F1800FFF
:20228C0003DA6FF07F0000E07F20F071B17142F20800C4F2090001681F2A4FF000003160F8
:2022AC0015D340F2FF13934213D219465208401C93420ED25208401C93420AD25208401C45
:2022CC00914206D25208401C9142EFD301E01F22B2800F3A4FF600714FF0350E1209C8F252
:2022EC00A401C4F2090E40EAC2000143CEF8FB1F4FF0000CCEF8FFCFF8BD41F67E324FF690
:20230C00FD50082141F2300EC2F20002C0F2A4001170C4F2090ECEF80000F8BD2DE9F04FA0
:20232C00ADF15C0D03F0C7F90027012808D156480068C0F30240022802DC022808BF012792
:20234C0052490868C0F38150012806D151F80C0C0126010E06FA01F007434D484D4E007868
:20236C003068C0F3460603F0A6F9012808BF761C494C26603EB1FF2204F140013046401E71
:20238C0001F8012BFBD1DFF81491D9F800004FF0000800F0FF01FF2918D04D4600F0FF0327
:2023AC00414601229E426CD902FA03F31F4268D100F0FF00201880F8401055F8040F43EA3A
:2023CC000808491C00F0FF03FF2BEBD1092000F0CFFEC4F804900DA800212422082304F033
:2023EC0027FA4FF0010A04F124000DAA8DF84CA0514604F019FA236833B300262546B3468C
:20240C0060350AFA06F0074218D118EA000F04BF06F0FF0141F4C04104D0301990F840000A
:20242C0059F820101E4801F0B9F9F0B24FF0FF3103F082FE2368C5F800B001E004202860FD
:20244C00761C2D1D9E42DCD301A800213022082304F0E6F90020102101AB124A009004F10D
:20246C00080004F0D9F9104951F80D0C20F4F85040F4005041F80D0C5746C1F8FF7F0B4E68
:20248C00376017B0BDE8F08F94120050B43F0050811B00208012084060190020B02B00204B
:2024AC00007FC767494E00000D300940080009402DE9F84F0D4680462868D8F80440D8F80B
:2024CC0008A0002800F0AB8004F0A2F9616D21B104F09AF903202874A1E04FF0010B85F847
:2024EC0010B0656504F090F994F8700030B194F859204C49A06E114303F020FCDAF80010FF
:20250C00486840F002004860D8F80830D8F804E02F681E689EF85810B8B2B6F1804F00FA74
:20252C0001F01FFA80F914BF3F4E404E4048A96849B99EF858104FEA810C0CEB00018A69D4
:20254C000EF1720108E09EF858204FEA820C0CEB000212694944491EB2607160196808313B
:20256C00009131603901B768024643F6F0701039084040EA0701B1601968B1F1804F14BF5A
:20258C002C492D496F681FB9624492699F1D03E0624492684F447F1E8A600F60009A4A60E8
:2025AC008A6810438860DEF86C60D868996808437168096888621968486A40F00300486270
:2025CC00DAF80010486940F0010048616E6804F01FF91A4D0746287801280AD016F0704F84
:2025EC0002D1102002F0A8FF042002F0A5FF85F800B0384604F008F9207830B9616804F19A
:20260C003805284604F03CF910B15846BDE8F88F404600F041FC2846002104F031F90020CF
:20262C00BDE8F88F000006800005002030040020C86B00001005002040040020801B0020DC
:20264C001FB5401E3DD0401E39D0801E37A421D0401E1AD0401E08D0401E04D0401E14BF7D
:20266C00201C33A05CE034A05AE040F21530694600F0FCFA03F0A2FF35A0022102F06EFC01
:20268C00684602F01FFB03214BE0142001F0BEFF32A006E03F4804F00DF8142001F0B6FF31
:2026AC0031A0022102F05AFC2046032102F056FC2046042102F052FC2046052131E02EA0CE
:2026CC002EE04FF4417002A900F0D0FA9DF809408DF801409DF80A308DF8023000228DF8B6
:2026EC0004209DF80D108DF803209DF808008DF807109DF80C408DF800009DF80B308DF85C
:20270C00064069468DF80530214C0A684968226002A8616002F0D6FA012102F01FFC19A0D7
:20272C00022102F01BFC00901FBDC04600C046C04572726F7200C046436F6E6E65637465EA
:20274C0064204164766572746973696E6700C046436F6E6E656374656400C04654696D653B
:20276C0064204F757400C046446973636F6E6E656374656400C046C04164766572746973B0
:20278C00696E6700496E697469616C697A6564009F260020F41F0020B0B5456884684B48D0
:2027AC00297BADF1180D012916D0217C627C484B2F7E0143009143EA02010191454937F08F
:2027CC00010718BF081CA27C1043029095F859000322FF2811D00DE0677C217C3843A37CCD
:2027EC00019041F00041009143F000403A49029095F85900014304220391FF204DF8220047
:20280C00694605F15C0001F0F1F9A866002808BF002058D0287B314951F82000012828D0E4
:20282C002068B0F1804F14BF22220A22217CA86E03F07AFB2068B0F1804F14BF21220922FD
:20284C00617CA86E03F070FB2068B0F1804F14BF24220C22A17CA86E03F066FB95F859105F
:20286C00FF292FD02068B0F1804F14BF23220B2225E02068B0F1804F14BF21220922217C0D
:20288C00A86E03F051FB2068B0F1804F14BF22220A22617CA86E03F047FB2068B0F1804F7C
:2028AC0014BF24220C22A17CA86E03F03DFB2068B0F1804F14BF23220B2295F85910A86E1E
:2028CC0003F032FB012006B0B0BDC046000480A0004000800004C0A000200080C86B000067
:2028EC0041F21C302DE99041C5F200000268B2F1FF3F08BF002202F0DEFE002840F08B804A
:20290C0041F2183041F2A001C5F20000C5F200010068D1F80080070F08F0FF08B8F1800FEF
:20292C0028BF4FF0000802F0C6FE4FF0FF3190B1401E07D0401E1DD1E7B908F10A084FFA82
:20294C0088F117E0381C66D0801E13D108F114084FFA88F10EE03846401E0AD0801E5AD0AC
:20296C00001F58D0401E05D108F116084FFA88F100E00A2116294EDB40F2844446F25C01F5
:20298C00002342F2082E012040F2801CC4F26024C4F20C012360C4F2043E0860C4F2283CB5
:2029AC00CEF80000DCF8000038B140F20010C4F2203000681046FDF713FE44F20402C4F28B
:2029CC0003021068052142F24803C2F20001C4F2030320F003000143116019684FF0000EC2
:2029EC00C0F2391E6FF35B414EEA01000421C4F2090118600868C0F3013001280CD10A6862
:202A0C004FF6FF70CFF6FC40104040F400320A600860BDE89081FEE7BDE890812DE9F043D3
:202A2C00404D2E68D5F804800446ADF1640D03F0EFFE3188012903D103F0E6FE00206EE0E1
:202A4C000127378003F0E0FE1CB915A803F0A6FC15AC09A803F0B6FC6068237A0D903249FF
:202A6C008DF83C3098F80720900000EBC2000A58D268401809A990470028DFD07060DFF86A
:202A8C00AC9020680021C6F828902422B060082386F82C70684603F0CBFE00240AE0A0001C
:202AAC0039466A4600EB44104844083003F0BCFE641CE4B2002CF2D08DF8187006F10C0017
:202ACC0039466A4603F0B0FE6E68194831791B4CB379727901431191184316491290FF2357
:202AEC00149341EA0200139011A904F1080001F07DF800282060A1D011480F490068B1FB58
:202B0C00F0F003F07DFE206871793A4603F02CF9D8F800102846112202F05CF8284619B053
:202B2C00BDE8F083706D0000A46C00008C2B00200000C08000008080A0860100342D0020C5
:202B4C00C06D00002DE9F04304466568A6680F46ADF1540D03F05CFE95F8A410012903D1EE
:202B6C0003F052FE002076E04FF0010985F8A49003F04AFE1FB90DA803F024FC0DAF4FF0C0
:202B8C000008C5F854803869286178696861387E2876387B287338782870786885F8708085
:202BAC00686078694146092828BF494685F85810707900F0DDFA204601F040FEF07C85F81F
:202BCC0059002046FFF7E8FD50B9707900F03CFB03F01EFE85F8A48003F016FE444639E0DC
:202BEC0001A841463022082303F01AFE0694CDF800801A4A317905F11C0001AB03F00CFE69
:202C0C00287878B901A841462422082303F010FE8DF81C9005F13800414601AA03F004FEAF
:202C2C000F4800E0B868A86001F0BEFBE866287B012806D1A86E20B10A490160A86E00B12C
:202C4C008460094ACDF8008005F190000421234602F084FE204615B0BDE8F083A12F000051
:202C6C005366000015410000ED6500002DE9F04F0C4646498A8BADF13C0D84460992487B8D
:202C8C000D90CE7800964A8B0892888C0C900A8B488C079291F80CE00B908E78CA7A088CA0
:202CAC000692CB8A0A908A7A91F804A005924A7AC88B04920A7A91F801800392CA798D8A8F
:202CCC0002928A79CF6A01924A79E146A9F54079B9F11D0F10D8DFE809F0554F4D4B4947FA
:202CEC004543403D3B393634320F312F2D2B2A24211F1D0F1A191816BCF1270F43DA60462B
:202D0C0002F0B6FA13E0DDF834E0F246D046CDF8148016E00C980B900B980A900A98054623
:202D2C0020E04431086820608888A0802BE00990099808900898079007980690069B238065
:202D4C0021E0059804900498039001E03E31E9E7039802900298009006E0019A89310DE067
:202D6C006A310BE02846E2E7009E0BE03831D9E7276008E05A3100E04A311022204600F0FB
:202D8C0007FE00E026700FB0BDE8F08F242300202DE9F0430646ADF11C0D03F02DFD02F0F7
:202DAC0075FF4FF000090546CDF80C9003F01EFC30F0010002D00398A84202D16FF00400E4
:202DCC0066E070684C4658B1B0F1FF3F05D004A902F0BEFE30B1804659E04FF0FF3000E0F1
:202DEC002046049003F004FD04994FF00108471802E00A463BE004936868049903F040FD14
:202E0C0000282DD0684601F09DFDD8B9BDF8040005A902F0B9FC88B9B368BDF81400BDF8CF
:202E2C000610029A984748B1BDF81400BDF80670B081029BF781C846336111E0029903A8E9
:202E4C0002F0F8FE0498641CB0F1FF3FD4D00028D2D003F0CDFC3B1A02D004989842CAD220
:202E6C00039F03F093F905F1080647B13A4652F80C1C0029BDD1316842F80C1C376003F0FB
:202E8C0061FA24B1686803F0F7FC641EFAD1404607B0BDE8F08370472DE9F04707467E6867
:202EAC00BD6803F0B5FC716D002967D003F0ACFC2968486820F0020048602968486A20F016
:202ECC0003004862F46EE868A968084361680968C1F804052968486920F0010048612868A3
:202EEC004FF00108C0F820802868B0F1804F14BF40F201104FF480702249096888473846B4
:202F0C0001F09CFC706DD0F804A003F081FC1E4C8146207850B11AF0704F02D1102002F0DB
:202F2C0097FA042002F094FA00202070484603F06BFC716D087C042802D003200874716DDB
:202F4C00AA68E868F36E4446104304FA00F258680068C2622868B0F1804F14BF0B480C480F
:202F6C000D68806800248204A5EB9250401E08603846B26874659047BDE8F08703F044FC6F
:202F8C00BDE8F08778000010801B002000050020300400202DE9F0470646B1680A68D069F0
:202FAC0075681062400841D2E86E40680268CC68D2F80405204206D00B68586A20F002006D
:202FCC005862C2F80445D2F804258868024256D00A68506A20F0010050628868E96E4968F4
:202FEC000968C1F80405686D002404746F6DD7F804A003F00DFCDFF88C80814698F800009C
:20300C0050B11AF0704F02D1102002F021FA042002F01EFA40460470484603F0F5FBAA681F
:20302C006C65304639469047BDE8F0870A68506920F0010050616F6DF7B9506820F0020088
:20304C005060506A20F0030050628B68C868E96E496809681843B2F1804FC1F804050CBF3F
:20306C004FF4807040F20110074909688847304601F0E4FBBDE8F0873046FFF70DFFBDE8BF
:20308C00F087C046801B0020780000102DE9F04104469C4606AF087A3B88800928BF08205F
:2030AC0062D20878DFF8C480FF27022850D148684578007842F6021600EB0520801B16D0FE
:2030CC004DF2EF64001B18BFB0F102003ED1002B3AD1BCF1010F35D11078CA681070C9684A
:2030EC00474600248F4214BF0227271C33E05BBBBCF1020F26D15078157805EB002535F096
:20310C0001061DD1C86806682046314602F0A8FF00280CBF0020807885420FD0204631460C
:20312C0002F09EFF48B931464FF6FF7002F098FF002808BF11240CD004808570002408E0BA
:20314C00802406E00D2404E00B2402E00A2400E00124FF2F07D04046001D006818B101683E
:20316C0009B1384688472046BDE8F081642800202DE9F04105462E480068EFF3118880F3B6
:20318C0011882C4A505D411C0028515549D12A49AC000F5D07F03F003F280C4401D0FFF7E3
:2031AC00E7FF607800F03F003F2801D0FFF7E0FF668837F07F0019D1F80911D24FF0805494
:2031CC00D4F8B801406901463046884704F5DC742068406B0146304688470128F8D120E02F
:2031EC00164850F82610012088471AE04FF08054D4F8B801C069014630468847D4F8B8012B
:20320C00406A014630468847D4F8B801C06A01463046884701210A4A0A48116001688908FE
:20322C00FCD388F31188284602F032FEBDE8F081BC6D0000482D0020346B0000C82D002087
:20324C0028200860282008402D492DE9F0410968EFF3118881F311882A4B195C4A1E0129F0
:20326C001A5449D1284980000D180E5C6F8836F07F0019D1F00911D24FF08054D4F8B80140
:20328C00806901463846884704F5DC742068406B0146384688470228F8D120E01D4850F8F5
:2032AC002710002088471AE04FF08054D4F8B801006A014638468847D4F8B801806A014696
:2032CC0038468847D4F8B801006B01463846884701210E4A0E48116001688908FCD306F011
:2032EC003F003F2801D0FFF7AFFF687800F03F003F2801D0FFF7A8FF88F31188BDE8F08199
:20330C00BC6D0000482D0020346B00002820086028200840C82D00202C482DE9FC470068BA
:20332C0000680146202088472D4DDFF8A4A04FF002080F2000214FF4C07207232D3D286004
:20334C0041F61D5068605046CDF8008001F01CFA214824490124A0F10C06091F0C6056F893
:20336C00041C8908FBD3DFF86C90B9F800102C61012905D00020214601F08CFA444621E019
:20338C000027164D0760032345F8393C376030688008FCD2CDF800805046394660220523CF
:2033AC0001F0F2F9346030688008FCD3202045F8210C45F8397C0826C5F8FF6FC5F8F36F8E
:2033CC0045F8394CC9F80440BDE8FC87A001001000A00C40E42C002044600C4039400C4070
:2033EC0039400C4038600C402DE9F84FD0F8089045681646B1F120004AD0401E44D0401EA6
:20340C003FD1AF6E317828484FF0FF34002F40EA010845D0254802688A4241D98246214685
:20342C000AF12400834603F02BFA5FFA88F10AEB8100036E63B97B680766012088401C490D
:20344C00424618437860384602F062FC002700E00127584603F010FA17BBD9F80000B0F1C9
:20346C00804F14BF23220B223178A86E02F05CFDA86E95F8591001F0FDFB307885F85900AF
:20348C000DE06FF001040BE0002485F8704007E0297B0020012908BF012085F870000024C5
:2034AC002046BDE8F88FC0460020008060190020007FC76738B503F075F82A4C256805F03D
:2034CC000C000C2846D0E8081ED202F061FA014625480068884217D22448254A254D0368D6
:2034EC0012682868B3FBF2F20019891A03F07CF92868001903F074F90120FEF799FA2868BE
:20350C00001903F069F927E0280923D21A4A680904D21168104621F0010103E010460168D5
:20352C0041F001010160983210684FF0805440F003001060D4F8B80180690146202088472F
:20354C00D4F8B8010D4C806B2168804701202060206801E0FCF7CCFD03F02AF800F0EEFE8F
:20356C0038BDC046142A0020B46D0000B86D0000C06D0000A46D00008C2108402C200940D8
:20358C002DE9F04707463C6894F82C0092460E4603F00709ADF1380D002848D0A16804F1D9
:2035AC000C0003F06DF9002841D0A06A322100F10808701E10F8015F1DB920B1801BC5B254
:2035CC0002E0491EF6D1322501A82021322200F0ECFC01A831462A4600F0DAF9504602F087
:2035EC002FFC281814281EDA0DEB05015046891D01F090FCA168404603F042F998B13846E5
:20360C004946002202F021F80025384601A94B4600952A4600F00AFA3846294600F02CFF03
:20362C00404603F029F904F10C0003F025F90EB0BDE8F0872DE9F0410E462A4990461C46B1
:20364C0006AF8C4672680878BB8851783F881278002502EB012242F62321521A2AD0521E99
:20366C00052A19D9921F0DD0263A35D1072F31D8C7F10700984298BF83B20CEB070000F1D6
:20368C00080121E0B84225DBC01B9842D8BF83B22380DCF804100BE0F06802F0B1FE80B2F8
:2036AC00B84217DBC01B9842D8BF83B22380F168C9190AE0082F0DD8C7F10800984298BFBC
:2036CC0083B20CEB07010F31238040461A4600F05FF903E0072501E025800A252846BDE8C2
:2036EC00F081C046902600202A482DE9F84FD0F80090EFF3118489F31188274EB06801210F
:20370C0003F066F84FF0010A4FF000080546326871697769A6F81CA03068A6F81E80891A4B
:20372C002A1A8A42A5EB07052DD384F3118844463F195046394603F047F82D1B0446AC4218
:20374C00F6D9EFF3118B89F31188F08B012804D14046394603F038F80446B4F1FF3F06D057
:20376C00B169641BA14238BF0C1C391901E0B469E119204603F024F8A6F820A0A6F81C804B
:20378C005C46376001E0A6F81C8084F31188BDE8F88FC046BC6D000078010020F8B50D46C5
:2037AC00EEB2290824BF25494D40254AB300D15885EA01040440C4F3006C224C00EA0507C4
:2037CC0081433C4000F4E0272143B7F5E02F01D14C0E15D300F4E0245CEA040710D001F451
:2037EC00E027B7F5A02707D0B7F5803704BF21F4003141F4A02103E021F4803141F4C0214B
:20380C00114CD150C10D04D3A4F18001C5F380528A55000E11D302F0FBFF290E03D20121EE
:20382C000022B14002E00121B1400A46503423688B431A43226002F0E7FFF8BD006000A0DB
:20384C0000100840FF7F077F80200240F8B5264C2068EFF3118680F3118824491D4D0B68A8
:20386C000420B0FA80F043F00403281A1F3002780B60521C027086F311882068EFF311835E
:20388C0080F311880A680820B0FA80F042F008022D1AE87F0A60401CE87783F311880E2010
:2038AC00FFF766FC0C480068C0F38150032814BF0020012009490A4A088017683FB9094C2B
:2038CC00402020600123D36100204860F8BD0120F8BDC0464D2E0020B43F0050E42C00203D
:2038EC0004800C402C500C40BC6D0000142A0020F0B520480127F84201D001F031FA204DD4
:20390C00204F214EBD4206D203CD0478A4003459401CA047F6E71D48002800D08047164DC2
:20392C00164FBD4202D210CDA047FAE7F0BD03251BE0416808300A1C2A400BD11A1C2A40E1
:20394C00AB4305D0046804300C600431043BF9D1131C05D0047801300C700131013BF9D1E9
:20396C00021C2A4001D0A84304300368002BE0D17047C046FFFFFFFF0000000000000000C3
:20398C00A8720000307300004072000059C50110002A4AD05FEA000C8B071CD1830722D1E8
:2039AC00102A08D370B4103A78C978C0103AFBD270BC103238D0042A2CD3082A05D30C2A05
:2039CC0024BF08C908C008C908C008C908C092072AD0920F22E00B780370491C401C521ED0
:2039EC0022D08B07F7D1C30714D18307D8D0121F12D308C903801B0C4380001D121FF8D222
:203A0C000AE008C903701B0A43701B0A83701B0AC370001D121FF4D2121D05D00B78037016
:203A2C00491C401C521EF9D1604670472DE9F04708AF97F80080044691460D46084602F05B
:203A4C00FDFC21680646886A046809EBC317B8F1000F00F10800814603D0896802F010FF23
:203A6C0060B32EB3DFF858C0691E3846002511F8012F202A12D0271802EB820207F1050E0D
:203A8C002318A53A052792B2624412F801AB7F1E03F801ABF9D18EF8005005E02218062704
:203AAC007F1E02F8015BFBD1761E00F10600DED1B8F1000F02D0484602F0DEFEBDE8F087FF
:203ACC009F680000B0B50446A768ADF1280D5FBB0C2000F0E7F9071C1DD068460021242207
:203AEC00082302F069FE002306976A466168ADF810301848059302F05BFE386070B90820EC
:203B0C00ADF824000C25ADF8265009A802F008F8384602F079F86FF0030018E0E068786086
:203B2C002069B860A7600AE002F030FB0546386802F052FE2069B860284602F003FC3868FD
:203B4C00616802F051FE386802F04AFE00200AB0B0BDC0467565000070B5044602F0C2F833
:203B6C0041F65435C2F200056E68034602F020F82A699B1B4FF47A715943090C801A48BFCE
:203B8C004042641840F6B831A14216D3062814DAAA68E868824210D8296871B1801A44F283
:203BAC004022C0F20F024243900C00EB1240814212D90846C82811D312E043F6AC71C5F2A7
:203BCC0000014868400828BF4FF4FA600DD209687D2001F0FF014843C82801D2C82070BD1B
:203BEC00B0F57A6F88BF4FF47A6070BD2DE9F843204D884606464FF0FF3105F12400814672
:203C0C0002F03EFE002000E0401CB8F1000F0DD018F82010FF2909D02A688A4204D905EB0D
:203C2C008101096E0029EFD000261CE00024346074600127B4600EE005EB80000B787268F2
:203C4C00066607FA03F0104370600A680A49304602F05EF8641CB8F1000F04D008EB8401CE
:203C6C000878FF28E8D1484602F006FE3046BDE8F883C04660190020007FC76738B5042061
:203C8C0002F01AF91A4C022818BF03281FD103200090164800214FF040521C2300F074FDEE
:203CAC0017480068EFF3118380F3118815480421B1FA81F1401AC17F4A1E0129C27703D1D7
:203CCC00206820F00400206083F3118838BD094D0A49094A286809680019B2FBF1F102F021
:203CEC0083FD2868001902F07BFD38BD00A00C40142A0020A86D0000A0860100C06D00007D
:203D0C00BC6D00004D2E002010B51A481A490078086820F0030040F00100086001F008FAC2
:203D2C0001F050FE0021154C154821600068C0680146022088471349134A086820F00100D6
:203D4C0008601068D4F8EC1FEFF3118480F311880E4B0F481A680421B1FA81F1401A42F01D
:203D6C000402C17F1A60491CC17784F311884FF0FF3010BD811B00200440034040100940B3
:203D8C00A00100108C210840BC6D0000142A00204D2E00202DE9F04180461F48001F05684F
:203DAC0016460F46ADF1200D45B106A8009042464FF6FF711B230120A84700E00020059027
:203DCC0028B300210091BDF81810FF250DF11203024601913146029500F081FB041C11D1E0
:203DEC007089ADF81000780804D302F019F9C5B21B2300E01D23404604A92A4601F066F8E7
:203E0C00041C05D004A81B2102F0F4F900E01524204608B0BDE8F081C42D0020F8B5054684
:203E2C001E480068EFF3118780F311881C4C20684FF0805640F080002060D6F88C014068EA
:203E4C00014601208847D6F8B001006A014614208847286906F5C675810C14BF010C042193
:203E6C002868406A024601209047D6F88401006823210246002090472868C069014601205D
:203E8C008847206820F4C02040F480302060206840F00100206087F31188F8BDBC6D00003D
:203EAC0000200940F8B5001D84B214F0030002D0241A241DA4B202F069F91A49102C0246A4
:203ECC004F690A61C8BF8F69388800231E46C10BCD0319D126B984420ADD3B46012617E03C
:203EEC001988091889B28C42198011DC1F4608469FB1001B80B20428B4BF3C88385344F4EF
:203F0C0000443C803F1D08E080F40040002680B23F1838880028DAD10027104602F012FAE0
:203F2C003846F8BD882900202DE9F04145688768E86E06684468307888B1607902F05CFB1B
:203F4C00012809D120684FF00008C0F80480301D02F02AFC404630706079FFF775F9A86E69
:203F6C0002F0BDF83968486820F00200486005F11C0002F019FC7879FFF766F92878002460
:203F8C0018B905F1380002F00BFC05F1900002F0EFF802F03DFC85F8A44002F035FCBDE86A
:203FAC00F081002213460A46194671B510F0030F0BD0002A82BF00F8011BB2F1010210F022
:203FCC00030FF6D1002A08BF71BD11F0FF0141EA0121042A18D341EA0141082A0FD30E46A1
:203FEC00102A08D30C460D46B2F10F0312F00F0272C0103BFCD812F0080F18BF42C012F0EE
:20400C00040F18BF40F8041B12F0020F18BF20F8021B12F0010F18BF017071BD2DE9F04165
:20402C00082504240746ADF1180DADF800500E46ADF802406846019401F072FD00280CBF49
:20404C00029B002312498868F3B11F809E708046ADF80C500C20ADF80E401F46CE680490E3
:20406C0003A801F05DFD60B9059951B18F60304602F092FBB8F1000F06D0404602F0FCFBA4
:20408C0002E0384602F0DAF806B0BDE8F081C046881F002070B50646F088F4680628A4F14F
:2040AC000C042CDAB088062829DA02F06FF8154DF28891000C3501EBC20149194968E1B11A
:2040CC0002F040F930792071B0796071307AA071F188880000EBC1004019F168406808307B
:2040EC0001F0A8FDF188880000EBC10040194068406802F0C1FB002070BD02F023F96FF060
:20410C00020070BDC0290020F8B586687568164995F8593051F8232014491140144AA2F143
:20412C0050073F684FF0010C43EA01040CFA03F1394218BF44F480041268614699401142A2
:20414C0018BF44F4000495F8591001F0F7FD0A48084920430840814205D1696D0420087408
:20416C003046FEF799FEF8BD00100840007F077FD0200240000006800000F8FFFEB51A4C57
:20418C000546208C218B81420CDC618B814209DBA08B618C884205D1E08BA18C884208BF51
:2041AC0018271FD0052001F063F8278B0646A18B638BADF80270E08AADF806100B4AADF806
:2041CC000000E78BADF8043011216846ADF8087001F02AFC071C05D1A57304F1F000314607
:2041EC0001F08EF93846FEBD24230020AF66000070B5FEF793F81A4C0025032004F110012D
:20420C0041F80C5F401E8D60FAD1241F062004F144010A46401E22F80C5BFBD1082008808A
:20422C000D4E8E600D4EE823A6F86C5A2846338006F1E802626140F684111180FFF732FE18
:20424C00A061666100F044F800F052FF01F088F802F09EFA284670BD4D6000002005002095
:20426C008C29002038B50079184CA0B901F08EFF2178002904BF6FF00704051C13D0491E62
:20428C00C9B2217029B902F05DF8606801F08CF918E0054613E001F079FF05462078FF28F6
:2042AC0005D16FF00604284602F04CF80BE0401CC0B20128207002D1606801F090F928461A
:2042CC0002F040F80024204638BDC046E02D0020B0B5ADF1400D02F0C3FA044600213C222E
:2042EC000823684602F050FA1148416806918168006804900F480068002205900E480891BA
:20430C00694602F03DFA071C0DD001F03FFF0546384600F0FFFC30B1284602F013F8204624
:20432C0002F08AFA01E000F063FB10B0B0BDC046786A00008C2900209D64000045F2280082
:20434C0080B5C4F2090007686FB343F6AC70C5F20000826802EA5201C90E24D24168890890
:20436C0021D20021C4F20901D1F800C000681CF0050F4FEA104000F0F00000F5E0700CD1C1
:20438C00B84210D2100F38BF4CF0010CD00E38BF4CF0040CC1F800C080BDB84284BF2CF0A6
:2043AC00050CC1F800C080BD2DE9F041154D6C686079ADF1380DFEF7DBFE02F029FA2F6877
:2043CC0080463878B8B901A800213022082302F027FA0695002600960B4A2179381D01AB49
:2043EC0002F01AFA012038702168084ACE6221688A6021684860404602F006FA28460EB08F
:20440C00BDE8F0813C6D00004966000000040020F8B5844640F6FF741CF8013B002210E07C
:20442C00481B401E10F8015B7F1E01F8015BF9D103E01CF8010B01F8010B521C5B08082A84
:20444C00EADA5808F5D21CF8010B1CF8015B05F00F07FF1CC5F30315122F45EA001508D181
:20446C001CF8016B300A24BF1CF8010B60F3DF16BF19AC42D4D1F8BD2DE9F84306463568D1
:20448C005FEA010805D0A96805F10C0002F0F8F918B3A86A0468B8F1000F00F10800814632
:2044AC0003D0A96802F0ECF998B100273046394601F028FD30462146802200F0B3FB7F1C02
:2044CC008034082FF2DBB8F1000F06D0484602F0D3F905F10C0002F0CFF9BDE8F883B0B5FD
:2044EC00087A04AF400928BF08202AD23F88002F18BF0B2025D1087802281FD14D686C7806
:20450C002F7800204FF6F17507EB04277F1B012F0ED9FF1E0CD07F1E1CBF011C0A200FD1B7
:20452C0005241C80C9680B68136009791171B0BD01241C80C96809781170B0BD002101207F
:20454C001980B0BD10B5012001F0B6FC012829D04AF20000342101220023C4F20C0000F015
:20456C0049FC002808BF00201DD08020C1F200000068804701F0B6FB41F6543344F2402274
:20458C00C2F20003C0F20F029C681968D860041BA1EB91016243120C8A4224BF1A6001208E
:2045AC0001D21960012010BD98B541F23403C4F2090318680004070C26D001F0F9FA41F694
:2045CC007832C2F2000292F90710814205DD10F1800FB8BF6FF07F00D0719188B94212D804
:2045EC001468D3F8D40F001B801C1F2888BF1F207F1A4008C7404FF6FF70C919884238BFC2
:20460C00011C918098BD978098BD704710B5164C216999B1002808BF09A005D001F1080086
:20462C00097901F0E7FD0BA02178052201F076FD206901F01BFE00202061207010BDC046B1
:20464C005273702073656E742C2072657472793A00C046C05273702072657472792066614B
:20466C00696C65643A00C046881F002038B502F0CFF8154C0546A01D008840B9FFF7E6F825
:20468C000446102000F032F9012C0DD017E0FFF759FF60B10020E080FFF7D8F80446102059
:2046AC0000F024F9012C0AD1FEF736FE07E030340521204602F098F8204602F091F8284608
:2046CC0002F0A2F838BDC046142A0020F8B5054605F128020CCA0846002101F0F7FD05F1B1
:2046EC00300292E8C00036184FEA164447EB01073804044301F0F6FA211AB1F1004F08D8B7
:20470C00011B091DC90F05D1001DA04288BF041C00E0041D04480068426A21460120904777
:20472C00383585E8C000F8BD8C0100101549096821280ADC212819D00C380FD00D380FD00A
:20474C00001F0FD0C01E0FD01AE0253810D0401F10D0401E10D0401E10D011E00868704788
:20476C004868704788687047C86870470869704748697047C8697047086A7047486A70472E
:20478C0000207047F00100202DE9F041984600EB41001646B8F1100F06AF00F5007404D3BB
:2047AC00A8F1100800F50174360C3D8801F0FAFE05FA08F545EA06450021002808BF01213A
:2047CC0048F20002C4F20C02106810B910680028FAD025600120106009B101F0E9FEBDE8D5
:2047EC00F081FEE7B0B5044602F006F800F092FA054601F0CBFC0146A2880F4800232430FA
:20480C0030F80C7F5FB902804560A381A2688260686820610024084601F094FD09E0974283
:20482C0008BF6FF00204F6D05B1C062BE8D300F0DFF82046B0BDC0469C2900207FB5866870
:20484C0031684568486820F0020048603168486920F00F00486130680321016202A801F0D0
:20486C008BFF0B4800680468286900906869074B0190297E03EB81010A6A297B306853F894
:20488C0021300399A04700907FBDC046C86B0000C4010010F8B5124D124C0322002645F86C
:2048AC00392C0F46266021688908FCD280B200900D48314660220523FFF766FF012121608E
:2048CC0020688008FCD345F8217C45F8396C0820C5F8FF0FC5F8F30F45F8391CF8BDC04632
:2048EC0039400C4038600C4000A00C40F8B507461248134D0468281901F0BAFF0026641969
:20490C00C0B9204601F0A8FF0546A868074206D0EA68296938469047C0B2012806D0284682
:20492C0001F096FF0546AC42EFD103E002480068804702263046F8BDB06D0000AC6D000007
:20494C00142A0020D0B5044601F056FF01F09EF9061C08BF6FF004001DD001F017FCB168FA
:20496C00002908BF002709D051F80C2C0023B2600F4641F80C3CFF2601F8026C01F0E2FC54
:20498C00A7603FB117F8080CA08017F8070CE0800020D0BD0220D0BDB0B5044601F026FE2F
:2049AC0030F0010008BF6FF004041BD001F024FF054601F0EBFB0C4A062132F80C7F6FB129
:2049CC00A388BB4208D1526812680021954208BF0121A160002403E0491EEED14FF0FF3415
:2049EC0001F0B0FC2046B0BDC029002000BF704708B5FFF7FBFFFEE738B50D4C0546A06891
:204A0C0020B10C48B0F1FF3F00D080470A4800688047606810B1014628468847206800B128
:204A2C008047064800688047FFF7E2FF38BDC046B02D0020FFFFFFFFE82D0020EC2D0020ED
:204A4C00DCB5044601F0D8FE01F020F9064601F0CDFD30F0010014BF002E6FF0040017D02B
:204A6C00606858B1B0F1FF3F05D0694601F070F830B107460BE04FF0FF3000E00020009086
:204A8C007068009901F0FCFE002700B901273846DCBD70B505464AF200060C466808ADF17D
:204AAC00080DC4F20C0607D3A0B20021009001220B463046FFF768FEA80807D3A0B200907E
:204ACC000021022201233046FFF75EFEE80807D3A0B2009000210C2202233046FFF754FEBB
:204AEC0002B070BD2DE9F04106461148103090F8008014460D46102001F082FA071C12D048
:204B0C000421072201F086FC404601F0E8F938727E72BD72FC6001F083FA044A394600F020
:204B2C005BFCBDE8F0810420BDE8F081A966000024230020B0B5054601F05EFE044601F014
:204B4C0055FD30F0010008BF6FF0040416D001F01DFB01460A48002230F80C7F4FB14368A0
:204B6C001B689C4204BFAA80002404D0521C062AF2D36FF00404084601F0E4FB2046B0BD28
:204B8C00C0290020F8B5044601F036FE00F0C2F8071C19D001F0FAFA84460D4800212430B5
:204BAC0030F80C6F6EB94FF6F87202804760A180002585607868A060604601F0C3FB284679
:204BCC00F8BD491C0629EBD3FFF712FFF8BDC0469C2900202DE9F047114D06468946746879
:204BEC0028683768217990460022824601F0BCF8A1790022504601F0B7F83046424649467C
:204C0C0001F032F9796889680A68D1684909FCD220B12868A179012201F0A6F8BDE8F08786
:204C2C00342D00202DE9F047114D06468946746828683768217990460122824601F094F83E
:204C4C00A1790022504601F08FF830464246494601F00AF9796889680A68D1684909FCD2E0
:204C6C0020B12868A179012201F07EF8BDE8F087342D002010B50C46F0B141680122A24020
:204C8C00114219D0914341600C480022031900EB84010A6603F140010978FF291ABF406886
:204CAC0050F8211044F020410548FEF777FD20464FF0FF3101F040FA10BDC04660190020B8
:204CCC00007FC767114990B504461122ADF1140D6846FEF75DFE0E48A41D3021062701703C
:204CEC00821C7821417014F8011D09111DF80110237802F8011B03F00F011DF801107F1EDF
:204D0C0002F8011BEFD105B090BDC046186D0000681B00202DE9F843804601F037FA0F4CED
:204D2C0003250026814654F80C7F5FB93046C4F800800146A6600A4601F01AFD606018B97B
:204D4C00FFF756FE474501D1264601E06D1EEAD1484601F0F7FA3046BDE8F8839C29002021
:204D6C00F8B506460F4D104F7388002417E0A20002EBC402921951689068D26852B9AF4276
:204D8C000BD00A7855F822200346491C08461946904701E0FEF7FCFD7388641CA4B2A34264
:204DAC00E5DCF8BD407200004C7200000F48B0B54178062918BF072917D1057CC48A0E2071
:204DCC0001F01EF9071C10D004210A2201F022FB284601F084F838727C811320387301F00C
:204DEC001FF9034A394600F0F7FAB0BD24230020A366000070B540181E461546102E044641
:204E0C0002D3103EA41C2D0C01F0CCFB0021002808BF012148F20002C4F20C02106810B93F
:204E2C0010680028FAD024880120106009B101F0BFFB05EA0400304180B270BD08B50D4885
:204E4C000D4B006890FAA0F0B0FA80F1012000FA01F21A60094A1060094802688A4207D99F
:204E6C0000EB8100006E18B102680AB1C9B2904708BDC046E0200240E020026080E200E05B
:204E8C0060190020F0B50D4614461F460646002124220823ADF1240D684601F08DFC0020C1
:204EAC000590ADF8100008484FF47A71A2B26B4600680697B1FBF0F080B2294642433046EC
:204ECC0001F052FC09B0F0BDC06D00002DE9F04105461E4690460C46142001F091F8071C05
:204EEC0013D03246032101F095FA3D81002038744046FC6000F0F3FF787401F091F8044AA5
:204F0C00394600F069FABDE8F0810420BDE8F081E7610000D0B50746202400260A20ADF117
:204F2C00200DADF10103B7FBF0F24243BA1AB7FBF0F7303203F8012F27B1641E06F101062B
:204F4C00F1D15B1C761C13F80109761E01F8010BF9D1002008B00870D0BDFEE72DE9B84131
:204F6C000E4C054620688846B0B1016891F82C7087B14146012200F068FB2068016891F88C
:204F8C002C703FB101210091002243462946FEF74DFD206801F084FABDE8B881702B0020DD
:204FAC00F8B50B460E49CF788D784E780C78002298B1401E10D0401E0DD0401E0AD0401E80
:204FCC0018BF02220AD108460C30016819600079187103E03D462E4634461C701046F8BD96
:204FEC00642800200C4885460C4885446F4607208743BD460A486F4607600A48002803D059
:20500C007946491D8E460047FEF772FC01F052F901F0A6FBFEE7C046E83F002000040000DD
:20502C00242B0020296600002DE9F04104460E48057890460E46102000F0E2FF071C10D0D4
:20504C003246042101F0E6F9284600F048FF3872FC6000F0E5FF3946424600F0BDF9BDE806
:20506C00F0810420BDE8F0813423002098B504462420FEF717FF071C14D000212422082383
:20508C0001F0D6FB2079012804BF01203876A0683946002201F06CFBE060384600F0B4FD8E
:2050AC00E06810B96FF0030098BD002098BDD0B504463C20FEF7F6FE071C14D000213C220D
:2050CC00082301F061FB207AB86160893862E068386160683946002201F052FB06463846C4
:2050EC0000F092FD16B96FF00300D0BD0020D0BD00B500213C220823ADF13C0D684601F0D5
:20510C0043FB094800F5B27107914FF40271089103210691054900236A4600F58A7001F039
:20512C001BFB0FB000BDC046242300201511000010B54FF08054D4F8900181680120884730
:20514C0041F21401C4F209010868800902D208688009FCD3D4F8A00101684020884704F5A8
:20516C00D07420688168402088471128F9D110BD012810B515D1012000F09EFE012812D0E3
:20518C0001F01EF8094C0120E0803034204601F023FB0521204601F027FB204601F020FB3C
:2051AC0001E000F00FFC002010BDC046142A00200C4810B50068EFF3118480F311880B485F
:2051CC00C088012809D10848342101220023FFF711FE002808BF002000D0012084F3118878
:2051EC0010BDC046BC6D000000A00C40142A0020B0B504460D48026840680F4600211200BF
:20520C00401841EB020104F128020CCAFCF7A4FE05460B4647B104F1280003C82A4601F094
:20522C0055F8303484E803002846B0BD082009402DE9F04180461C4615460E460E2000F0BA
:20524C00DFFE071C10D0812038700123FB70A7F804803E817D81BC8100F0E2FE069A39467E
:20526C0000F0BAF8BDE8F0810420BDE8F081FEE73EB505460020ADF804000A2000F0C0FE6C
:20528C00041C0DD00421312201F0C4F8258100F0C7FE01A90223044A0091214600F0BAF8CE
:2052AC00BDF804003EBDC0468B660000F8B5064614460D46142000F0A3FE071C0FD00421A5
:2052CC00022201F04AF9BE60BD811020B8733C6100F0A6FE034A394600F07EF8F8BD042077
:2052EC00F8BDC0462F65000070B50446606810F07F4F18BF6FF0020011D100F047FF084DA9
:20530C000646287828B1686800F04EF9606800F066F960686860304601F014F8002070BD4E
:20532C00E02D00203EB50546FFF70CFB041C15D1A88802A900F028FA68B10821ADF800100F
:20534C00A86801900321ADF80210684600F0E8FB6FF005003EBDBDF80800A88020463EBD9F
:20536C0000B500213C220823ADF13C0D684601F00BFA084800F1E00107914FF42F71089101
:20538C0001210691044900236A46903001F0E4F90FB000BD881F0020AD0B0000B0B50446F0
:2053AC000D46102000F02CFE071C10D02146062201F0D3F80020388115247C81054AFA603E
:2053CC0000F02EFE39462A4600F006F8B0BD0420B0BDC046C01F00201CB51446CA78012A2D
:2053EC0002D18A880A4B1A8000F066FC30B9002000906946204600F043F918B100F0AAFE40
:20540C00044603E00098447800F024FF20461CBDBC2D002038B51C46154600F04DFCB0B958
:20542C00002000906946284600F02AF978B90099487848B90846C1798C4205D101460498E6
:20544C0089682246FEF7A4FA009800F003FF38BD0C4910B50968EFF3118481F311880A4973
:20546C00B0FA80F2891ACA7F531E012ACB7703D1034A11688143116084F3118810BDC04688
:20548C00142A0020BC6D00004D2E002038B50D4C206820F00100206021684FF0805541F0B1
:2054AC00800121600120E062D5F88C11E26A49688847D5F8B001006A014614208847E06AC9
:2054CC0038BDC0460020094010B504460B4802680023D90750080143D007801A99414FF463
:2054EC007A720023FCF738FD002908BFB0F1004F28BF6FF000406060002010BDC06D000029
:20550C0038B50D46044601F0D9F810B1204601F063F9084800684FF47A71B1FBF0F080B21B
:20552C0005FB00F1204601F05FF9204601F058F938BDC046C06D00000C4938B50968EFF35A
:20554C00118581F31188074B07491A68B0FA80F4091B1043CA7F1860521CCA7785F3118862
:20556C0038BDC046142A00204D2E0020BC6D000010B50C4600F0B6FB211AB1F1004F08D83E
:20558C00011B091DC90F05D1001DA04288BF041C00E0041D03480068406A2146024601207B
:2055AC00904710BD8C01001038B50546012411E0C0F11F0004FA00F1052881EA050504DB10
:2055CC00401FC0B2FDF740FE04E004FA00F0C0B2FFF73EFFB5FA85F02028E9D138BD38B53D
:2055EC000546012411E0C0F11F0004FA00F1052881EA050504DB401FC0B2FDF7B9FD04E09F
:20560C0004FA00F0C0B2FFF797FFB5FA85F02028E9D138BD98B50446A06858B1B0F1FF3FF0
:20562C0005D0694600F094FA30B107460BE04FF0FF3000E0002000906068009901F020F9DA
:20564C00002700B90127384698BDF8B50F460168886A0468151C00F10800064603D0896860
:20566C0001F00EF958B1002104EBC7148020401E04F8011BFBD115B1304601F0FDF8F8BD79
:20568C003EB5054608200C46ADF800002020ADF802001020ADF80400684600F041FA28B927
:2056AC000298002818BF6FF0040003D12846214600F09CFB3EBD41F21830C5F2000001681C
:2056CC004BF69A10C1F30F31884208BF00200BD02430884208BF012006D04BF6203088421C
:2056EC000CBF02204FF0FF3070477047F8B5064614460D46102000F083FC071C0CD004216C
:20570C00362200F087FE3E817D81FC6000F088FC024A3946FFF760FEF8BDC0467366000070
:20572C0070B506460D460C2000F06AFC041C0CD00421302200F06EFE2681658100F070FC5F
:20574C00034A2146FFF748FE70BD042070BDC0469766000038B50446A16860680860142028
:20576C00FEF7A0FB48B1002505490095054AA368097800F0F3F8284638BD6FF0030038BD1C
:20578C00A36C0000FD5A0000062880B50CDA0A4F820002EBC00207F13000875A13181FB1C0
:2057AC004FF6F870B84202D14FF0FF3080BD18880880002080BDC0469C29002010B5044639
:2057CC0000212C220823ADF1300D684600F020FFE0200890A168606800236A4600F0B8FFA8
:2057EC00002818BF002001D1FFF702F90CB010BD10B5044600212C220823ADF1300D684600
:20580C0000F006FFE068A1680890606800236A4600F09EFF002818BF002001D1FFF7E8F8AF
:20582C000CB010BD10B5044600F0B0FC094B0022014633F80C0F30B1A04208BF94B203D082
:20584C00521C062AF5D3FF24084600F07BFD204610BDC046C0290020010446F244020B0C21
:20586C00C4F20C02C0F3074142F8083C012042F8041C40F68401C4F28C311060086810B98D
:20588C0008680028FAD0002010607047F8B5064614460D46102000F0B3FB071C0CD00521BA
:2058AC00012200F0B7FD3E727D72FC6000F0B8FB024A3946FFF790FDF8BDC046B566000053
:2058CC00F8B5064614460D46102000F099FB071C0CD00521022200F09DFD3E727D72FC6094
:2058EC0000F09EFB024A3946FFF776FDF8BDC046BB66000038B505460C2000F081FB041C13
:20590C000DD02946002200F028FE4FF0FF30A06000F086FB034A2146FFF75EFD38BD0420FA
:20592C0038BDC046A15D000070B506460A4805780A2000F065FB041C0CD03146102200F013
:20594C000CFE284600F0CBFA207200F069FB214600F0B2F970BDC0468A1F00208C4698B50B
:20596C00014617460029604614BF002F032009D0054C8860054ACF6020680B61801800F077
:20598C00E3FE002098BDC046AC6D0000142A00200A4838B50068EFF3118580F31188084CA9
:2059AC00A068002100F014FF6169A269081A824238BF002085F3118838BDC046BC6D0000A8
:2059CC007801002008B503200021FFF762F8012000F072FA20B18020C1F200000068804701
:2059EC0000F080F941F65433C2F20003586000F0DFF8186108BDF8B5044616460D460C202E
:205A0C0000F0FEFA071C0DD02A46042100F002FD3C810520B87200F003FB39463246FFF727
:205A2C00DBFCF8BD0420F8BDF8B5044616460D46102000F0E5FA071C0DD02A46042100F0CB
:205A4C00E9FCBC600020F86000F0EAFA39463246FFF7C2FCF8BD0420F8BD1078802811D1A2
:205A6C00508840F27F6181420CD190883F21B1EBA02F07D1C0F3C211042903D100F07F00DF
:205A8C00834201D000207047012070471078802811D1508840F27F6181420CD190883F21A1
:205AAC00B1EBA02F07D1C0F3C211032903D100F07F00834201D000207047012070471078D5
:205ACC00802811D1508840F27F6181420CD190883F21B1EBA02F07D1C0F3C211052903D163
:205AEC0000F07F00834201D0002070470120704710B5401E0C460DD0401E09D0801E05D0EA
:205B0C00001F01D0FEF774FF052004E0002002E0042000E00220226821469047002010BD3B
:205B2C0010B504462088FFF77DFEFF2808BF4FF0FF300AD0054B810001EBC000195811B14B
:205B4C002046884710BD6FF0010010BDD42900200A4A10B512680C464FF47A710023A1FB1B
:205B6C000001FCF7F9F9002908BFB0F1004F2EBF6FF002002060002010BDC046C06D000065
:205B8C0010B500F061FE00F06BFE032000F0D8FD06481030006830B1034C204600F02AFC02
:205BAC00204600F024FC10BDF9630000A401002045F2280041F20C31C4F20900C5F200012F
:205BCC00826891F900100068A0F540704143091142F31000401A80300012704738B505469A
:205BEC00074800780C4600F07AF9C2B205482946234600904FF61840FFF71AFB38BDC04651
:205C0C008A1F00206B66000010B5044600F0BEFA074934F8042C6FF3DF3224F8042C4A6909
:205C2C000861241F944238BF4C6100F08BFB10BD8829002038B50C46054600F0A7FA0021E2
:205C4C0044F80C1C296811B92C6006E0114651F80C2C002AFAD141F80C4C00F073FB38BD56
:205C6C0010B5044660680C3080B2FEF71BF950B1A18800230181FF22036000F10C01827285
:205C8C001846A16010BD6FF0030010BD38B5054600F07CFA074C0322014654F80C0F18B110
:205CAC00A84202D0521EF8D10024084600F04AFB204638BD9C29002000B5ADF1140DADF8E3
:205CCC00040003910822ADF80020ADF802201020ADF8060002208DF808006846FFF720FF1D
:205CEC0005B000BD38B500F05DFC0021002808BF012142F20800C4F20900056844685FEA61
:205D0C00010E01D000F054FC280440EA144038BD38B5094B1C6802F0FF05AC420AD902F03A
:205D2C00FF0403EB84031B6E984203D108461146FDF734FD38BDC046601900200A460949A8
:205D4C0010B50B6802F0FF04A3420AD902F0FF0301EB8301096E884203D14FF4E021FFF78F
:205D6C00D7FF10BD6019002080B517460246074803688B4209D900EB8100006E824204D125
:205D8C00002007B10120024A505480BD60190020002002401078802810D1508840F27F61DB
:205DAC0081420BD19088032818BF042806D1917931F0100014BF1129012000D0002070470B
:205DCC00084838B50068EFF3118580F31188064CE088012803D1FEF7B5FB0020E08085F33A
:205DEC00118838BDBC6D0000142A002010B50C46ADF1180D02900821ADF800101921684650
:205E0C00ADF802104FF0FF310191FFF789FE0499216006B010BD80B5107802AF80280DD1AC
:205E2C00508840F27F61814208D19088834205D138789179884208BF012000D0002080BD84
:205E4C00002808BF01200ED0002802D400210A2206E040420121FAE7491C90FBF2F0C9B245
:205E6C000028F9DC0846704710B5ADF1180D019100240394006802944068016800920A692B
:205E8C0069469047012808BF0124204606B010BD10B50E284FF0010403D00649085C28B1D4
:205EAC0005E0204600F008F8012800D00024204610BDC046482D002001464AF20000042900
:205ECC00C4F20C0005D134214FF0C0421D23FEF791BF34214FF080521C23FEF78BBF0EB55C
:205EEC00ADF806005021ADF8001068460021ADF80210FFF715FE002814BFFF209DF808007F
:205F0C000EBD00001CB5074A14880B4669460C8092788A700A78D2180A700322FEF75AFE04
:205F2C001CBDC0469C680000074B10B51C688C4208D903EB81031B6E984203D108461146DA
:205F4C0000F0FAF810BDC04660190020074808B51030006828B1034800F04CFA024800F09F
:205F6C0046FA08BD8D600000F1620000A4010020074810B51030006830B1044C204600F0C8
:205F8C0039FA204600F033FA10BDC046A32E0000A4010020074808B500F0CEFBFFF7D6FF46
:205FAC0000F0C6FB00F0C0FB00F0BAFB00F0B4FB08BDC0468D5B000010B5064806490068B8
:205FCC004C684068014601208847A06901466069884710BD8C010010E4010020074908B5BE
:205FEC00283090E80C000020FBF7B6FF002908BFB0F1FF3F88BF4FF0FF3008BD907E00009B
:20600C000EB501900821ADF8001068460221ADF80210FFF785FD002814BF002002980EBDC2
:20602C000EB50820ADF800001A20ADF802006846FFF776FD002814BFFF20BDF804000EBD2E
:20604C0008B54288292A28BF6FF0010004D203490C3151F82210884708BDC046846A0000B1
:20606C00064A127842B1091F31F8043F984208BF081C02D0521EF7D10020704724230020A6
:20608C0010B5064C206900F043FB0146A06800B9E160A068401CA06010BDC046A4010020E1
:2060AC000648026840680021120040184FEA104041EB0201090408437047C04608200940AB
:2060CC0010B50446E088FFF7ADFBFF2808BF4FF0FF3003D0E0802046FDF7DCFF10BD10B549
:2060EC00044607E090FAA0F0B0FA80F0C1B22046FEF7C0FD60680028F4D110BD10788028F2
:20610C0009D1508840F27F61814204D19088834208BF012000D000207047000010B50C4694
:20612C0001460448006818B113462246FDF728FA10BDC046702B0020002948BF0021044A8B
:20614C0002EB8000026861F3050202607047C0460010084050B110F1040F08BF042006D0B4
:20616C0010F1030F0CBF02200120704700207047054910B50968EFF3118481F3118800F06C
:20618C00C3FA84F3118810BDBC6D000010B500F067FB80B260F30F0400F03AFB80B260F3D7
:2061AC001F44204610BD1CB5044660686946FFF7CFFC20B9009860602046FDF783FC1CBD07
:2061CC0008B503200121FEF764FCFFF78BFD41F65C31C2F20001086008BD10B51D23FFF73D
:2061EC0055FC012420B91B23FFF750FC00B90024204610BD10B50446034803681BB10A46D3
:20620C0001202146984710BDC42D002008B5406810F07F4F18BF6FF0020002D1FFF7C4F93C
:20622C00002008BD08B5406810F07F4F18BF6FF0020002D1FFF7D3F9002008BD0EB5019034
:20624C000821ADF8001068460521ADF80210FFF767FC0EBD0EB501900821ADF800106846C5
:20626C000321ADF80210FFF75BFC0EBD0EB501900821ADF8001068460321ADF80210FFF76E
:20628C004FFC0EBD10B50446A088FDF70BFE0028A06014BF00206FF0030010BD044B03F11B
:2062AC001202118808431080986A00F0E5BAC046242300200449B1F1FF3F07BF0020011C1C
:2062CC000868091DFDF794BFFFFFFFFF30B502FB01F403FB00444FF00005E2FB00542146E4
:2062EC00284630BD04498868401E886003D10869C96800F005BA7047A4010020012814BF17
:20630C00002040F2FF700249086000207047C04600000460044802684068002112004018D3
:20632C0041EB02017047C04608200940034804490068814201D0FEF710BE704798CA011073
:20634C007047282008B50090BDF8020000F05CFABDF8000000F070FA08BD08B5406820B1DE
:20636C00006800F039FA002008BD6FF0020008BD10B50446FFF7FCFD032000F0E1F920462A
:20638C0000F0EEF910BD38B50546FEF711FF002400B1012400202C7138BD00004FF0FF31F5
:2063AC0001600249416000210172704740420F004068002180F8A410014801707047C0463C
:2063CC00801B0020034938B53CC93CC01EC980E81E0038BDC86C0000034B1A1D11880843BD
:2063EC001080986800F048BA881F002070470349086070470149091F08607047EC2D00205C
:20640C004FF0FF31421E12F8010F491C0028FAD108467047812342EAC112037042F47C4220
:20642C0082800023C370704708B500F065F90248006800F05DF908BD84010020014600206D
:20644C0001E0401CC0B20A5C002AFAD1704700B50A21ADF12C0D684600F046F90BB000BD63
:20646C00024A00200821FEF7DFBDC0468566000010B504466068FDF76FFBA060002010BDD7
:20648C0002490968416000207047C046C06D00000246024808B5904708BDC046846A0000AA
:2064AC00016891F82C1011B10121FDF7E5BF704710B500F003F9002400B10124204610BD91
:2064CC0010B5044600F09EF86060002010BD08B500F0C6F900F09CF9002008BD08B500F0EB
:2064EC00FFF800F0F9F8002008BD08B540680C38FFF78AFB002008BD10B5044600F078F95A
:20650C006060002010BD006801092CBF042000F003007047D0F80320C31D08461946FDF72B
:20652C0037BA08B5022004230090FFF774FC08BD08B5142001230090FFF76DFC08BD08B517
:20654C00152002230090FFF766FC08BD08B5122001230090FFF75FFC08BD82230370818056
:20656C0082710023C370704708B5014688684968884708BD08B5406800F0AAF8002008BDFA
:20658C0008B5406800F0A0F8002008BD08B54068FFF73AFB002008BD08B5406800F06CF9EE
:2065AC00002008BDEFF3108072B6704700207047EFF3108062B6704700207047014800F071
:2065CC000FB9C046F41F0020D0F8032008460021FDF7EBBC08B506200090FFF71CFC08BD73
:2065EC0008B50846FEF72AF9002008BD0148007D7047C046A40100200149085C7047C046D4
:20660C00482D0020014800797047C046142A002001B9014900F054B8A001000008B5FCF7AB
:20662C005FF9FFF783FE08BD08B5FFF7C9FB002008BD01468888891DFFF7A6B840680068FD
:20664C000121C16470474068383000F015B901460220FDF7E3BC01460120FDF7DFBC4FF62A
:20666C001843FFF74BBD3623FFF7F7B90323FFF7B1BF0023FFF7F1B90823FFF7EEB931234B
:20668C00FFF7EBB90623FFF7E8B93023FFF7E5B91023FFF7E2B90A23FFF7DFB90723FFF70E
:2066AC00DCB91123FFF7D9B90123FFF708BA0223FFF705BA00F090B800207047808A7047F7
:2066CC00DFF800F0F1C50110DFF800F085C20110DFF800F081C20110DFF800F043C2011009
:2066EC00DFF800F055C10110DFF800F00DC30110DFF800F021B30110DFF800F067BE01104F
:20670C00DFF800F04DC20110DFF800F021C10110DFF800F049C20110DFF800F009C3011045
:20672C00DFF800F03DC20110DFF800F08DC20110DFF800F095B70110DFF800F081C601100C
:20674C00DFF800F045C00110DFF800F02DBF0110DFF800F079AB0110DFF800F025B10110E2
