:20000000E83F0020294A000001CA011001CA011001CA011001CA011001CA011001CA0110FE
:1C00200001CA011001CA011001CA011001CA011001CA011001CA01103FCA011082
:20003C00F8B58C4645688468DCF8007095F85810B8B288401FFA80FE2068B0F1804F14BFBF
:20005C00234B244BDCF80820234832B995F858108E00815905F1720207E095F858108E0024
:20007C00811951F8081C7244521E99605A6021683A0143F6F077103A0831174019609A68CB
:20009C003A439A602368B3F1804F14BF134A144ADCF804C0BCF1000F04BF8059A61D05D0B9
:2000BC00801950F8100C0EEB0C06761E906016605160906807439760A168EE6EE068084340
:2000DC00716809688862586A40F003005862F8BD00050020300400201C7000001005002032
:0400FC00400400209C
:200100003C000000000000000000000034010000000000000000000001000000000000006D
:1C01200000000000000000000000000001000000000000000800000000000000BA
:20013C00340000000000000000000000680100000000000000000000010000000000000005
:14015C00010000000000000000000000080000000000000086
:2001700030000000000000000000000098010000040000000000000001000000FFFFFFFFA5
:10019000FF00000001000000080000000000000057
:2001A0002C0000000000000000000000C4010000040000000000000001000000FFFFFFFF4D
:0C01C000FFFFFFFF08000000000000002F
:2001CC0034050000E401000099A1011095A70110A5C2011009B2011045B80110000000000B
:0801EC00000000002E000000DD
:2001F400280000000000000000000000140200000000000000000000FFFFFFFF00000000B1
:080214000800000000000000DA
:20021C00300500003002000069C201106DC101101FC2011095BA011000000000000000008E
:04023C00300000008E
:20024000300500005402000075C20110A9B601109DBF011049B601100000000000000000DE
:040260003100000069
:200264002400000000000000000000008002000000000000000000000000000008000000CC
:040284000000000076
:20028800240000000000000000000000A40200000000000000000000000000000800000084
:0402A8000000000052
:2002AC00240000000000000000000000C8020000000000000100000000000000080000003B
:0402CC00000000002E
:2002D00000000000F02D00200400000000000000000000002000000070010000300000000C
:2002F0001C020000F82D00200400000000000000000000000C00000030040000180000002F
:2003100040020000002E0020040000000000000000000000240000004804000018000000B1
:2003300000000000082E002004000000000000000000000010000000A00100002C00000076
:20035000CC010000102E0020040000000000000000000000200000006402000024000000B4
:20037000FFFFFFFF182E002004000000000000000000000028000000880200002400000031
:20039000FFFFFFFF202E0020040000000000000000000000580000003C0100003400000016
:2003B000FFFFFFFF282E00200400000000000000000000001000000060040000180000002B
:2003D000FFFFFFFF302E00200400000000000000000000001C000000AC02000024000000A1
:2003F000FFFFFFFF382E002004000000000000000000000038000000F40100002800000012
:20041000FFFFFFFF402E002004000000000000000000000054000000000100003C000000AD
:1804300018000000000000000000000040040000080000000000000050
:1804480018000000000000000000000058040000080000000000000020
:18046000180000000000000000000000700400000800000000000000F0
:08047800010000000072000009
:0404800006F00DBBBA
:040484000100000073
:0404880000000C0064
:04048C0000000D005F
:040490003200000036
:040494000200000062
:04049800242C0020F0
:04049C00000200005A
:0404A0000000000058
:0404A40001CA011078
:0404A8000000000050
:0404AC00000000004C
:0404B0000800000040
:0404B4000000200024
:0404B800EC2B002009
:0404BC00010000003B
:0404C0001C2D0020CF
:0404C400080000002C
:0404C8000000000030
:0404CC00000000002C
:0404D0000000000028
:0404D4000000000024
:0404D8000000000020
:0404DC00010000001B
:0404E000842C002048
:0404E400060000000E
:0404E800010000000F
:0404EC00D82A0020EA
:0404F0000000000008
:0404F4000000000004
:0404F80000020000FE
:0404FC0000000000FC
:02050000704742
:020502002A00CD
:020504000100F4
:020506002500CE
:020508003000C1
:02050A003100BE
:02050C002E00BF
:02050E000100EA
:0105100001E9
:0805140003000000A0710000CB
:08051C000000000000000000D7
:0405240000000100D2
:0405280000000300CC
:04052C0087C401106F
:04053000380500008A
:040534003805000086
:0405380000000000BF
:04053C00800000003B
:040540008000000037
:0405440000000000B3
:040548001C2D002046
:04054C00DB67000069
:040550002000000087
:0405540040710000F2
:04055800907000009F
:04055C000DC30110BA
:04056000B73E0000A2
:04056400EB40000068
:0405680099C801101D
:04056C009BC8011017
:040570000000000087
:04057400DF71000033
:04057800D46F00003C
:04057C00EC6F000020
:04058000BC6F00004C
:0205840008006D
:0205860009006A
:02058800010070
:02058A0000006F
:01058C00016D
:040590000000000067
:040594000000000063
:04059800000000005F
:04059C00000000005B
:0405A00039660000B8
:0405A400B94C00004E
:0405A800655D00008D
:0405AC00B14A000050
:0405B000793F00008F
:0405B40021510000D1
:0405B8009135000079
:0405BC004961000091
:0405C00035400000C2
:0405C40011C8011049
:0405C80021C8011035
:0405CC000800000023
:0405D0002400000003
:0405D400180000000B
:0405D80028000000F7
:0405DC0020000000FB
:0405E0003C000000DB
:0405E4000C00000007
:0405E80034000000DB
:2005EC002DE9F84F054640F29421012441F22D00C4F22231C4F2090040F81D4C086810B939
:20060C0008680028FAD046F2000043F6B477C021C4F20C00C5F2000701603E6857F8040C09
:20062C0046F25622C4F20802800806D257F8080C000C40F0F000107001E07220107041F2A9
:20064C00B820C5F200000068C0F3046006F03AF939680B171B185B1C13F10A0FB8BF6FF0F7
:20066C0009034FF0000CF10EB00E03F01F0381F00101C4F2203C80F0010043F4F85301F0DC
:20068C000101138300F00100CCF800103146CCF80800284601F030FF814606F081F90021C8
:2006AC00002808BF211C48F20008C4F20C08D8F8000018B9D8F800000028F8D04AF2080A47
:2006CC00C4F20C0ACAF81090C8F8004009B106F06DF9284605F082FC40F2FF32002380B231
:2006EC002C2100904AF20000C4F20C0003F0CAFC284605F093FE814606F052F90021002815
:20070C0008BF211CD8F8000018B9D8F800000028F8D0CAF81490C8F8004009B106F046F913
:20072C00284605F051FA814606F03AF90021002808BF211CD8F8000018B9D8F80000002829
:20074C00F8D0CAF80C90C8F8004009B106F02EF9284605F0EFFB814606F022F90021002822
:20076C0008BF211CD8F8000018B9D8F800000028F8D0CAF80890C8F8004009B106F016F9EF
:20078C00284602F0E3FD814606F00AF90021002808BF211CD8F8000018B9D8F80000002867
:2007AC00F8D0CAF80490C8F8004009B106F0FEF8284605F003FE4AF24009C4F20C09400075
:2007CC0040F0200089F80901284605F003FE40F0100089F80901284605F010FC834606F0D5
:2007EC00DFF80021002808BF211CD8F8000018B9D8F800000028F8D0CAF820B0C8F80040D6
:20080C0009B106F0D3F8284605F0F0FD400040F0600089F80C01284605F0F4FDC00040F05F
:20082C00800089F80101284605F004FE800040F47C40A9F89C01284604F0B8FF834606F0BE
:20084C00AFF80021002808BF211CD8F8000018B9D8F800000028F8D0CAF800B0C8F80040C5
:20086C0009B106F0A3F8442089F8C5004FF0880E89F8C7E0284605F0F1FE40F03001C6F30E
:20088C00815089F8C81078B3401E06D0401E26D00420022103F0A5FD30E0204605F070FABE
:2008AC0005460420294603F09CFD042005F068FA8542FAD157F80C5C25F07F4004F0B6FD83
:2008CC0040F2B410C1F200000068036807214FF06022280E98474FF48060C9F8000004208A
:2008EC00032103F07EFD09E00420214603F079FD43F2BD70C0F2860004F098FD41F2B8204F
:20090C00C5F20000D0F8B4004BF2700242F22C0E46F2000B47F618014FF0000C41F22D0A2D
:20092C00C4F20C02C4F2090E40F2944800F03F0089F8CB0FC4F20C0B1180DEF80000CBF88B
:20094C0000C0C4F2090A4AF81DCCC4F26028C8F80040BDE8F88F70472DE9F84FC64DC74E31
:20096C00D5F8EF1FCC4C7368D5F8F30F8843C5F8F30F002BC5F8FF1F00F011817788012B91
:20098C0000F0D680DFF8FCB2BF4FDFF800A3DFF80093DFF80083022B72D0032B40F06A817C
:2009AC000024B06855F8312C74600028A2F5C062B8BF404211460029B8BF494288422EDA43
:2009CC00111C54BF02206FF00100B26900EB4100032190FBF1F18918B161F36870699842B0
:2009EC000BD0B1F11002B8BF524230691038B8BF40428242B8BF88B209DB98B20090A0485C
:200A0C0030214FF47F42082303F03CFB308A00909B4804214FF4F802122303F033FB58469D
:200A2C00046001688908FCD20460012644600E203E6001F035FF50460468EFF3118584F36D
:200A4C00118849460820B0FA80F00A1AD07F431E0128D37704D14246106820F0080010607C
:200A6C0085F31188EFF3118384F311880420B0FA80F0091AC87F421E0128CA7754D14EE00E
:200A8C0055F8310CB0F5C06F17D00327776001F0BFFA45F8397C0027276020688008FCD2DC
:200AAC007748394660220523009103F0EBFA0126266020688008FCD364E000217160584679
:200ACC00016002689208FCD20160012641600E203E6001F0E5FE50460468EFF3118584F31D
:200AEC00118849460820B0FA80F00A1AD07F431E0128D37704D14246106820F008001060DC
:200B0C0085F31188EFF3118384F311880420B0FA80F0091AC87F421E0128CA7704D1424663
:200B2C00106820F00400106083F31188BDE8F88F55F8312C02214BF2F52071605043000AE5
:200B4C0037B95649096821F07F414018400801E0002171806060000CA0600126E6600327C2
:200B6C0045F8397C0027276020688008FCD24448394660220523009103F084FA2660206826
:200B8C008008FCD345F8216C45F8397C0820C5F8FF0FC5F8F30F45F8396CBDE8F88F4048EE
:200BAC000068006801462020884741F61D574FF002080F2045F82D0C00214FF4C0720723AA
:200BCC0045F8297C2E48CDF8008003F05BFA012744F8047C54F8040C8008FBD3308845F899
:200BEC001D7C012821D0032045F8390C4FF00009C4F8009020688008FCD2214849466022A5
:200C0C000523009103F03EFA276020688008FCD345F8217C45F8399C0820C5F8FF0FC5F8E2
:200C2C00F30F45F8397C474623E04FF00009C4F80C90032045F8390CC4F800902068800883
:200C4C00FCD20F48CDF8008049466022052303F019FA276020688008FCD3202045F8210CCF
:200C6C0045F8399C0824C5F8FF4FC5F8F34F45F8397C7760BDE8F88F39400C40E42C002036
:200C8C0000A00C4034600C4004800C40F87100004D2E0020142A002038600C4010200940ED
:200CAC00A00100102DE9F04F8146B9F1010FADF11C0D40F05781AD480068EFF3118280F38D
:200CCC001188DFF8CCB29BF80400012818BF012003D1022100208BF8041082F3118801287D
:200CEC0000F03E8105F0EEFF0390AA48046804EB0B0005F0E3FF4FF00008464637460BEB4F
:200D0C000401CDF810800191B0B90C46084605F0D1FF0546A868400808D3E8682969024665
:200D2C0001209047C0B2012800F01281284605F0BDFF0546AC42EDD1002F40F00D8105F099
:200D4C00B1FF029005978A480760012005F018F8012804D1404603F069FF4FF00108854F4F
:200D6C0038688068014630468847874819300090D0F8FF0FB9F1010F40F08C80864C0A34CF
:200D8C00E57905B10126A5790DB146F0020665790DB146F00406DFF8E09165782DB1B86AF1
:200DAC00006B49460246C88D904725782DB1B86A006B49460246488D9047704901200860EC
:200DCC00B86A8069014646F0200088476C4DDBF80010286840F001002860480813D26948C5
:200DEC0005F069FD8246BAF1040FF8D0D5F8180220F00300C5F81802B86C406802466148B0
:200E0C000321904701E001200490059800F0EAFCB86A0099806BD1F8FF1F8047049858B9C1
:200E2C00B86C40680246574851469047D5F8180240F00300C5F818023868806801460120A4
:200E4C008847514801688909FCD3B8F1010F02D1012003F0EBFEB86A406901463046884774
:200E6C00B86A406B0146304688470128F8D166782EB1B86AC06A49460246C88D9047267871
:200E8C002EB1B86AC06A49460246488D90473B49012008603A480168032221F00101016007
:200EAC0001988BF8042005F009FF0028059818BF01200125C8B9019C204605F0FBFE064648
:200ECC00B068C00807D3F0683169024604209047C0B2012806D0304605F0E8FE0646B44213
:200EEC00EED102E02948006880472148009F0560D7F8FF0F05F05AFD019805F0DFFE059F00
:200F0C00D0B9019C204605F0D5FE0646B068000907D3F0683169024608209047C0B2012856
:200F2C0006D0304605F0C2FE0646B442EED103E0164800688047022702988BF8045005F0A4
:200F4C00ADFE02F081FF039805F0A4FE38460AE00E4800688047022701208BF80400F2E79F
:200F6C00062000E0022007B0BDE8F08FF87100000C40094090010010706F00002820086034
:200F8C000C2008400040034014100940EC710000142A0020E8710000482D0020F8B5A0F2F9
:200FAC00013517460E46022D40F20A81874A8549854B2D1F0F2D04D9143D4AD0AD1E1CD05C
:200FCC0011E0DFE815F0B900B400EA00DA00AD00A600FD009E00970010001000900086005C
:200FEC0079006E006000272880F2EA80022E40F0E780398804F04AF9F8BD012E40F0E08040
:20100C000A469078012800F0DB80D1783878D07081B9002800F0D4801078012800F09F8059
:20102C00042800F09C80062800F09980052800F09680F8BD3878002840F0C2801078032850
:20104C0000F09880072800F09580052800F09280F8BD012E40F0B4803878012840F0B08098
:20106C001D4605F1F00005F0FBFB002840F0A880002002F04FFD002840F0A2802846CC306E
:20108C0005F033FDF8BD022E40F09A8038880A28C0F29680B0F5486F00F3928011461E312F
:2010AC0015E0022E40F08C803888B0F5FA7F80F2878011461C310AE0022E40F081803888BD
:2010CC0006287DDBB0F5486F7ADC11461A310880F8BD022E74D13888062871DBB0F5486FE2
:2010EC006EDC1731F3E7012E6AD13878022867DA0A310CE0012E63D13878042860DA093119
:20110C0005E0012E5CD13878082859DA08310870F8BD012E54D13878042851DAC91DF6E7EB
:20112C00012E4DD1387804284ADC891DEFE7022E46D138881331CAE7012E41D10A46D07803
:20114C0001283DD091783878907061B9002837D01078012803D0042818BF052830D1012075
:20116C0005F028FAF8BD387850BB1078022818BF052825D105F03CFBF8BD1D4605F1890469
:20118C0000211F22204602F0C9FA39463246204601F0AEFF0020AE710EE01D4605F16A04D7
:2011AC0000211F22204602F0B9FA39463246204601F09EFF01206E713146224603F062F99E
:2011CC00F8BDC0462523002024230020242300202DE9F0410446DFF81C82A2780026101CA0
:2011EC0000F0D780801E00F0B180401E012840F28780801E52D0401E26D0401E03D0083898
:20120C0000F0EA80EBE0454605F1F00005F06DFC6078002840F0E380E08828842089688492
:20122C006089A88405F1CC0005F01AFB002840F0D6806B6B002B00F0D2801B68288C698CA4
:20124C00AA8C9847BDE8F081A08804F0ACFD45463146062205F1440002F060FA2E846E843E
:20126C00AE84A079687305F1CC0005F03EFC05F1F00005F03AFC01264FF6FF702F79E8824D
:20128C004FB9A079082814BF042005206870304605F090F9A3E003206870A0E045466778A1
:2012AC00EA7A2FBB211D0B6805F1440003608988818006276F706089E882E0892884208A56
:2012CC006884608AA884E078012A28730AD11F2003F02CFD4FF47A71024605F1CC005143E0
:2012EC0003F0C4FEE0786289211D03F087FE78E06078312818BF08201CD1EE70042019E044
:20130C006778002F63D14546A98A6878032A13D0EA782F7921B9012A14BF2E71EE7006E00C
:20132C00174304D005F1A80003F0A0FE68780728E4D10620687054E0062805D0E8780028C3
:20134C000CBF03200220F5E70720F3E76078651C00283CD14046E77881798FB941780229FB
:20136C0014D0072912D0062902D1017901290DD1A83005F075FA48B9012005F01BF905E09B
:20138C0000F18902304603F07DF828702878F0B925E06078D8B945460220102105F14A0278
:2013AC0004F078F80320102105F15A0204F072F8E41C05F13800A7882168878005F16A026A
:2013CC00016001206979687003F05CF848B1454608206D1C287004E0A08805F0B1FA012ED6
:2013EC0006D14546286B18B1016809B168788847BDE8F081242300202DE9F041ADF1280DBA
:20140C0004F032FC05F0CAF8764D41F2883204237549E86005F16C0003F02EFA03F0E8FEB4
:20142C001F20062103F032FF5021ADF806100020ADF8020001248DF8004080468DF80440AA
:20144C006A46ADF80A804FF44871ADF808104FF47A70ADF80C0040F205302146FFF79EFDAB
:20146C0040F2063002210DF10202FFF797FD05F14D024FF442701E21FFF790FD05F11C0239
:20148C0040F207300721FFF789FD4FF44470214601AAFFF783FD40F2113002210DF1060218
:2014AC00FFF77CFD40F21230022102AAFFF776FD40F2133002210DF10A02FFF76FFD4FF4BE
:2014CC004570022103AAFFF769FD05F045FA0620A02103F0DBFE0720A02103F0D7FE082060
:2014EC00A02103F0D3FE0920A02103F0CFFECDF810808DF8144027468DF816804FF48160D7
:20150C0004218DF8157004AA8DF8177003F0A4FE4FF48060214605AA03F09EFE40F2024005
:20152C0021460DF1150203F097FE40F2034021460DF1160203F090FE40F2064021460DF14B
:20154C00170203F089FE05F09BFAFEF793FF05F0BDF804F0C5FB02268DF8187003258DF89B
:20156C00196004248DF81A5020498DF81B4007A80A680979026006AA01714046394602F068
:20158C0025FD38460DF11902014602F01FFD304639460DF11A0202F019FD284639460DF12F
:2015AC001B0202F013FD2046052107AA02F00EFD05F0C8F804F02CFE04F082F905F05AFA3B
:2015CC0005F05BFA03A0414604F0D6FA0AB0BDE8F081C046424C45205065726970686572BF
:2015EC00616C00C0881F00203D670000DA7100002DE9F0411C4615468C4208BF854282BFFB
:20160C0000230022E5E0002C08BF002D0AD100290EBF00286FF000006FF0000100F0E1F813
:20162C00BDE8F0815FF000085FF0000E002C08BF8D429CBF2C1C0025070C47EA01470E0CA4
:20164C00B44208BFBD429EBF5FEA044444EA15445FEA0545070A47EA01670E0AB44208BF3B
:20166C00BD429EBF5FEA042444EA15645FEA0525470847EAC1774E08B44208BFBD4200F2BB
:20168C009380870847EA81778E08B44208BFBD427CD8C70847EA4177CE08B44208BFBD4283
:2016AC0066D8070947EA01770E09B44208BFBD4250D8470947EAC1674E09B44208BFBD4270
:2016CC003AD8870947EA81678E09B44208BFBD4224D8C70947EA4167CE09B44208BFBD42B8
:2016EC000DD8E60146EA5566EF01B14208BFB84201D3C01BB14158EB08085EEB0E0EA60183
:20170C0046EA95664FEA8517B14208BFB84201D3C01BB14158EB08084EEB0E0E660146EA29
:20172C00D5666F01B14208BFB84201D3C01BB14158EB08084EEB0E0E260146EA15762F01E3
:20174C00B14208BFB84201D3C01BB14158EB08085EEB0E0EE60046EA5576EF00B14208BFE6
:20176C00B84201D3C01BB14158EB08084EEB0E0EA60046EA9576AF00B14208BFB84201D302
:20178C00C01BB14158EB08084EEB0E0E660046EAD5766F00B14208BFB84201D3C01BB14123
:2017AC0058EB08085EEB0E0EA14208BFA84201D3401BA14158EB08085EEB0E0EA34208BF5C
:2017CC00AA423EBF2D0A45EA0465240A89D3734642461E4617460B46024631463846BDE886
:2017EC00F0817047F8B507460020C4F209000068800880F0CA8004F04CF842F22421C4F2CB
:20180C0008010A68002112F0030F18BF0121D20828BF41F00201002F18BF41F0040141F6AB
:20182C007836C2F2000696F90720821A052A04DAB2798A4208BFB28871D041F29C340F2862
:20184C00A0F10F02C5F2000426DB02EB0012F03A1712072F88BF0727BC46BCF1060F88BF16
:20186C004FF0060C54F82CE00423254603EB8C03EB58CD08A3EB0E0303F0FF0C24BFC3F356
:20188C000725AC448D0824BFC3F30745AC444D0805D30CEB136C02E04FF0000C674654F8ED
:2018AC002730CC0803F0FF0524BFC3F3072425448C0824BFC3F3074425444C0828BF05EBC1
:2018CC001365A2EB07221FFA8CF3534380330022082B88BF012243F6B473C5F200031C6890
:2018EC001B684FF4D07C34275219241703F0FF0307FB14C45C434FF6FF73B4FBF2F293423C
:20190C0038BF1A1C802892B2B28005DA10F1800F03DA6FF07F0000E07F20F071B17142F210
:20192C000800C4F2090001681F2A4FF00000316015D340F2FF13934213D219465208401C57
:20194C0093420ED25208401C93420AD25208401C914206D25208401C9142EFD301E01F2291
:20196C00B2800F3A4FF600714FF0350E1209C8F2A401C4F2090E40EAC2000143CEF8FB1F51
:20198C004FF0000CCEF8FFCFF8BD41F67E324FF6FD50082141F2300EC2F20002C0F2A40088
:2019AC001170C4F2090ECEF80000F8BD2DE9F04FADF15C0D03F036FC0027012804D104F0B8
:2019CC00D8FC022808BF012751490868C0F38150012806D151F80C0C0126010E06FA01F0F8
:2019EC0007434C484C4E00783068C0F3460603F019FC012808BF761C484C26603EB1FF22A0
:201A0C0004F140013046401E01F8012BFBD1DFF81091D9F800004FF0000800F0FF01FF2917
:201A2C0018D04D4600F0FF03414601229E426CD902FA03F31F4268D100F0FF00201880F833
:201A4C00401055F8040F43EA0808491C00F0FF03FF2BEBD1092000F0B7FEC4F8049001A889
:201A6C0000212422082305F011F94FF0010A04F1240001AA8DF81CA0514605F003F9236867
:201A8C0033B300262546B34660350AFA06F0074218D118EA000F04BF06F0FF0141F4C04109
:201AAC0004D0A01990F8400059F820101D4801F023F8F0B24FF0FF3104F0E2FB2368C5F8A9
:201ACC0000B001E004202860761C2D1D9E42DCD30AA800213022082305F0D0F800201021F4
:201AEC000AAB114A009004F1080005F0C3F80F4951F80D0C20F4F85040F4005041F80D0CA1
:201B0C005746C1F8FF7F0A4E376017B0BDE8F08FB43F0050811B0020801208406019002099
:201B2C00B02B0020007FC7673D4800000D300940080009401FB5401E3DD0401E39D0801E51
:201B4C0035A421D0401E1AD0401E08D0401E04D0401E14BF201C31A059E032A057E040F24D
:201B6C001530694600F030F904F02CFF33A0022104F002F8684602F04DFD032148E01420DF
:201B8C0002F094F930A006E03C4804F0AEFF142002F08CF92FA0022103F0EEFF20460321D8
:201BAC0003F0EAFF2046042103F0E6FF204605212EE02CA02BE04FF4417002A900F004F9DD
:201BCC009DF809408DF801409DF80A308DF802309DF808008DF8000000228DF804209DF84D
:201BEC000D108DF803209DF80C408DF807109DF80B308DF8064068468DF8053004F0F0FDB3
:201C0C0002A802F007FD012103F0B6FF18A0022103F0B2FF00901FBD00C046C04572726F05
:201C2C007200C046436F6E6E6563746564204164766572746973696E6700C046436F6E6E59
:201C4C00656374656400C04654696D6564204F757400C046446973636F6E6E656374656449
:201C6C0000C046C04164766572746973696E6700496E697469616C697A656400F41F002069
:201C8C00B0B5456884684B48297BADF1180D012916D0217C627C484B2F7E0143009143EA73
:201CAC0002010191454937F0010718BF081CA27C1043029095F859000322FF2811D00DE0C8
:201CCC00677C217C3843A37C019041F00041009143F000403A49029095F859000143042272
:201CEC000391FF204DF82200694605F15C0001F075FBA866002808BF002058D0287B3149FA
:201D0C0051F82000012828D02068B0F1804F14BF22220A22217CA86E04F0A0F82068B0F18A
:201D2C00804F14BF21220922617CA86E04F096F82068B0F1804F14BF24220C22A17CA86EA0
:201D4C0004F08CF895F85910FF292FD02068B0F1804F14BF23220B2225E02068B0F1804FA8
:201D6C0014BF21220922217CA86E04F077F82068B0F1804F14BF22220A22617CA86E04F0DE
:201D8C006DF82068B0F1804F14BF24220C22A17CA86E04F063F82068B0F1804F14BF232201
:201DAC000B2295F85910A86E04F058F8012006B0B0BDC046000480A0004000800004C0A008
:201DCC0000200080047000002DE9F04F0C4646498A8BADF13C0D84460992487B0D90CE78A6
:201DEC0000964A8B0892888C0C900A8B488C079291F80CE00B908E78CA7A088C0692CB8A45
:201E0C000A908A7A91F804A005924A7AC88B04920A7A91F801800392CA798D8A02928A7993
:201E2C00CF6A01924A79E146A9F54079B9F11D0F10D8DFE809F0554F4D4B49474543403D3A
:201E4C003B393634320F312F2D2B2A24211F1D0F1A191816BCF1270F43DA604602F066FF87
:201E6C0013E0DDF834E0F246D046CDF8148016E00C980B900B980A900A98054620E04431FF
:201E8C00086820608888A0802BE00990099808900898079007980690069B238021E00598EB
:201EAC0004900498039001E03E31E9E7039802900298009006E0019A89310DE06A310BE02E
:201ECC002846E2E7009E0BE03831D9E7276008E05A3100E04A311022204601F009F900E04D
:201EEC0026700FB0BDE8F08F242300202DE9F04304466668A5680F46ADF1540D04F0B6FE8C
:201F0C0096F8A4102D1D012903D104F0ABFE002075E04FF0010986F8A49004F0A3FE1FB9B1
:201F2C000DA804F0FBFB0DAF4FF00008C6F854803869306178697061387E3076387B3073CB
:201F4C0038783070786886F87080706078694146092828BF494686F85810687800F034FC12
:201F6C00204602F0E9F8E87B86F859002046FFF787FE50B9687800F093FC04F077FE86F8B2
:201F8C00A48004F06FFE444638E001A841463022082304F073FE0694CDF80080194A297819
:201FAC0006F11C0001AB04F065FE307878B901A841462422082304F069FE8DF81C9006F102
:201FCC003800414601AA04F05DFE0F4800E0B868B06002F0DDF8F066307B012805D1B06EF0
:201FEC0004F0EAFCB06E00B18460084ACDF8008006F190000421234603F0A8FB204615B0DB
:20200C00BDE8F08321220000616A0000E96900002DE9F843804604F0C3FC002100B9012176
:20202C003A4D2D1F28680028FCD0DFF8DC90012609F10407FC6A2E6009B104F0B7FC3448FD
:20204C00C4F3072100F10804616004F0A9FC0146002001B93046014628680028FCD03F6835
:20206C002E6009B104F0A2FCC7F38441A8F5C060A160B8F5C06F2060B4BF6FF001030223E6
:20208C00626803EB4003032093FBF0F00918104602290FDB1E290BDB3F28B9BF521C401C46
:2020AC003F22101CE2603029B4BF10391F210DE0E0600BE010F13F0FACBF401E6FF03F0022
:2020CC00E06011F1100FACBF10310021216180B24FF47F42082330210090484601F0D2FFB2
:2020EC000096484604214FF40032112301F0CAFF208A04214FF4F80212230090484601F0D8
:20210C00C1FFBDE8F883C04600A00C4004800C40E42C00202DE9F04707467C68BE6804F049
:20212C00A5FD0834E16C002967D004F09BFD3168486820F0020048603168486A20F003001B
:20214C004862656EF068B168084369680968C1F804053168486920F00100486130684FF05B
:20216C000108C0F820803068B0F1804F14BF40F201104FF48070234909688847384601F086
:20218C00DBFFE06CD0F804A004F070FD1E4D8146287850B11AF0704F02D1102002F010FFA0
:2021AC00042002F00DFF00202870484604F05AFDE16C087C042802D003200874E16CB2688B
:2021CC00F068636E4546104305FA00F258680068C2623068B0F1804F14BF0C480C480E68B6
:2021EC00006800258204A6EB9250401E086038462268E5649047BDE8F08704F033FDBDE87A
:20220C00F087C04678000010801B002008050020380400202DE9F0470646B1680A68746869
:20222C00D06908341062400841D2606E40680268CD68D2F80405284206D00B68586A20F0E3
:20224C0002005862C2F80455D2F804258868024256D00A68506A20F0010050628868616EA8
:20226C0049680968C1F80405E06C00250574E76CD7F804A004F0FAFCDFF88880814698F89E
:20228C00000050B11AF0704F02D1102002F098FE042002F095FE40460570484604F0E2FCD9
:2022AC002268E564304639469047BDE8F0870A68506920F001005061E76CF7B9506820F09F
:2022CC0002005060506A20F0030050628B68C868616E496809681843B2F1804FC1F804051E
:2022EC000CBF4FF4807040F20110074909688847304601F021FFBDE8F0873046FFF70AFFE9
:20230C00BDE8F087801B00207800001038482DE9FC4700680068014620208847354DDFF8FA
:20232C00D8A04FF002080F2000214FF4C072072345F82D0C41F61D5045F8290C5046CDF8FA
:20234C00008001F09FFE2D4C012644F8046C54F8040C8008FBD3DFF8A890B9F8000045F868
:20236C001D6C01281FD0032045F8390C0027276020688008FCD2394650466022052300912F
:20238C0001F080FE266020688008FCD345F8216C45F8397C0820C5F8FF0FC5F8F30F45F8B2
:2023AC00396C464620E00027E760032045F8390C276020688008FCD2CDF80080504639460E
:2023CC006022052301F05EFE266020688008FCD3202045F8210C45F8397C0824C5F8FF4FC2
:2023EC00C5F8F34F45F8396CC9F80460BDE8FC87A001001039400C4000A00C4038600C405D
:20240C00E42C00202DE9F043ADF1140D00F0D2FD384C4FF0030908274FF6FF78002625466E
:20242C0003F012FF20BB009601A80DF106016A4603F0D3F9E0B9BDF80400102814D1208AE5
:20244C00BDF8061088420FD100980188884509D14088C00B08D3042005F12C02014603F043
:20246C0019F801E002F072F9009808B104F036F8608A41082CD320F001002379E178608274
:20248C0053EA010224D073B9E079237A8DF8080005F13E018DF809300A680DF10A031A6063
:2024AC008988998001E08DF80890607A8DF81000A37A8DF8113002A804F03CFA38B1236B4B
:2024CC00677023B11A6812B1196838468847608A810806D320F002006082304601F01AFB76
:2024EC00608AC1089CD320F00400608203F0D6FE96E7C0462423002010B50B46002804BF06
:20250C0040F6FF70C0F20F006ED041F25030C5F2000000689A0CC0F38361C0F38F2061D267
:20252C0043F30722002A26D55442B2F1FF3F4FEA640415DA400805D1490806BF0121081C8A
:20254C004FF6FF70400802F1010205D1490806BF0121081C4FF6FF70641E02F10102E9D165
:20256C005B0A08D3400805D1490806BF0121081C4FF6FF70521C002A34DD022A4FEA62036E
:20258C0002F001041DDB4FF6FF7C400040F00100844507D2480040F001010F2992BF012049
:2025AC000F216046400040F00100844507D2480040F001010F2992BF01200F2160465B1EB3
:2025CC00E3D1002C0EDD40004FF6FF7240F00100824207D2480040F001010F2992BF01203C
:2025EC000F21101C40EA014010BD7047F8B504F0D7F9314C256805F00C000C2855D0E808BF
:20260C002ED22E480068EFF3118780F311882C4EB068002104F022FB7169B269091A8A42A2
:20262C0038BF002187F3118826480068884217D22548264A264D036812682868B3FBF2F283
:20264C002018891A04F006FB2868201804F0FEFA0120FEF727FB2868201804F0F3FA25E004
:20266C00280922D21B48690939BF016821F00101016841F0010102460160D2F898004FF0FA
:20268C00805440F00300C2F89800D4F8B8018069014620208847D4F8B8010F4C806B2168BD
:2026AC00804701202060206800E030BF04F07EF901F0FAF9F8BDC046142A0020F87100007E
:2026CC0078010020F0710000F4710000FC710000E07100008C2108402C2009402DE9F043FE
:2026EC000646ADF11C0D04F0A9FA03F083F94FF000090546CDF8009004F076F930F0010049
:20270C0002D00098A84202D16FF0040059E070684C4658B1B0F1FF3F05D001A902F0CEFF5A
:20272C0030B107464CE04FF0FF3000E02046019004F080FA0199012701EB000800E0019356
:20274C006868019904F072FA00282ED003A802F0EBFDD8B9BDF8100002A902F0CBFD88B9FC
:20276C00B368BDF80800BDF81210059A984748B1BDF81270F781BDF80800B081059B336156
:20278C004F4612E00599684603F0F2F80198641CB0F1FF3FD4D00028D2D004F04BFAB8EB3B
:2027AC00000302D001989842C9D2009905F1080003F032FA24B1686804F034FA641EFAD160
:2027CC00384607B0BDE8F0832DE9F04105462E480068EFF3118880F311882C4A505D411C29
:2027EC000028515549D12A4CA900675C07F03F003F280C4401D0FFF7E7FF607800F03F0062
:20280C003F2801D0FFF7E0FF668837F07F0019D1F80911D24FF08054D4F8B80140690146B5
:20282C003046884704F5DC742068406B0146304688470128F8D120E0164850F82610012050
:20284C0088471AE04FF08054D4F8B801C069014630468847D4F8B801406A0146304688479B
:20286C00D4F8B801C06A01463046884701210A4A0A48116001688908FCD388F3118828468D
:20288C0003F056FABDE8F081F8710000482D0020706F0000C82D00202820086028200840A1
:2028AC002D492DE9F0410968EFF3118881F311882A4B195C4A1E01291A5449D12849800061
:2028CC0045180E5C6F8836F07F0019D1F00911D24FF08054D4F8B8018069014638468847AE
:2028EC0004F5DC742068406B0146384688470228F8D120E01D4850F82710002088471AE0FC
:20290C004FF08054D4F8B801006A014638468847D4F8B801806A014638468847D4F8B8018D
:20292C00006B01463846884701210E4A0E48116001688908FCD306F03F003F2801D0FFF71F
:20294C00AFFF687800F03F003F2801D0FFF7A8FF88F31188BDE8F081F8710000482D0020B1
:20296C00706F00002820086028200840C82D00202DE9F0432D4D2E68D5F804800446ADF185
:20298C00540D04F073F93188012903D104F06AF9002048E00127378004F064F91CB9684661
:2029AC0003F0A8FE6C4603A803F0B8FE60680790237A8DF8243098F8070003A903F0D6FD8E
:2029CC000028E5D07060DFF8689020680021C6F828902422B060082386F82C700BA804F00E
:2029EC0055F900240AE0A00039460BAA00EB44104844083004F046F9641CE4B2002CF2D061
:202A0C008DF8447006F10C0039460BAA04F03AF900F06EFF0028BBD0D8F800102846112282
:202A2C0001F038FC284615B0BDE8F083AC7100008C2B00202DE9F8430C46064620687568D2
:202A4C00B768002850D004F011F9696D21B104F009F90320207447E04FF0010884F8108035
:202A6C006C6504F0FFF895F8700030B195F859201F49A86E114303F015F83968486840F057
:202A8C000200486030462146FDF7D2FA3968486940F001004861676804F0E8F8154C8146EC
:202AAC00207801280AD017F0704F02D1102002F015FB042002F012FB84F80080484604F003
:202ACC00D1F8287830B9696805F13804204604F0ADF810B14046BDE8F8833046FFF71AFBAE
:202AEC002046002104F0A2F80020BDE8F883C04600000680801B0020F8B50D46EEB229085D
:202B0C0024BF26494D40264BB400195985EA01020240C2F3006C234A00EA05078143FF3206
:202B2C003A4000F4E0270A43B7F5E02F01D1510E15D300F4E0215CEA010710D002F4E027D3
:202B4C00B7F5A02707D0B7F5803704BF22F4003242F4A02203E022F4803242F4C0221A518B
:202B6C00114CC10D04D3A4F18001C5F380528A55000E11D304F07AF8290E03D20121002220
:202B8C00B14002E00121B1400A46503423688B431A43226004F066F8F8BDC046006000A02A
:202BAC0000100840007F077F8020024041F21C3010B5C5F200000468B4F1FF3F08BF002495
:202BCC0003F0CAFD40F2844346F25C01002242F2082E012040F2801CC4F26023C4F20C012A
:202BEC001A60C4F2043E0860C4F2283CCEF80000DCF8000038B140F20010C4F220300068A2
:202C0C002046FDF7EDFC44F20402C4F203021068052142F24803C2F20001C4F2030320F0D0
:202C2C0003000143116019684FF0000EC0F2391E6FF35B414EEA01000421C4F20901186065
:202C4C000868C0F30130012809D10A684FF6FF70CFF6FC40104040F400320A60086010BD95
:202C6C002DE9F0470646346894F82C0092460F4603F00709ADF1380D002846D0A16804F10C
:202C8C000C0003F0D3FF00283FD0A06A0021322200F10808384603F031FA00280EBF3225B8
:202CAC00C01BC5B22021322201A800F037FD01A839462A4600F01CFA504602F0E9FF4019ED
:202CCC0014281EDA05EB0D015046891D01F03FFEA168404603F0AAFF98B1304649460022B1
:202CEC0002F07EF80025304601A94B4600952A4600F0B0F93046294600F077FF404603F028
:202D0C0091FF04F10C0003F08DFF0EB0BDE8F0872DE9F0410E46294990461C4606AF8C46F1
:202D2C0072680878BB8851783F881278002502EB012242F62321521A29D0521E052A18D92A
:202D4C00921F0CD0263A34D1072F30D8C7F10700984298BF83B2674407F1080121E0B8426B
:202D6C0025DBC01B9842D8BF83B22380DCF804000BE0F06803F004FD80B2B84217DBC01B1B
:202D8C009842D8BF83B22380F06839180AE0082F0DD8C7F10800984298BF83B207EB0C010A
:202DAC000F31238040461A4600F0A2F903E0072501E025800A252846BDE8F0819026002095
:202DCC0029482DE9F84FD0F80090EFF3118589F31188264CA068012103F040FF4FF0010A1C
:202DEC004FF00008064621686769A4F81CA02068A4F81E80791A321A8A42A6EB07062DD378
:202E0C0085F311884546EF195046394603F006FF761B0546B542F6D9EFF3118B89F31188C0
:202E2C00E08B012804D14046394603F0F7FE0546B5F1FF3F06D0A169AD1BA94238BF0D1C4E
:202E4C00E91901E0A5697919284603F0E3FEA4F820A0A4F81C805D46276001E0A4F81C80CA
:202E6C0085F31188BDE8F88FF871000078010020F8B5264C2068EFF3118680F3118824496E
:202E8C001D4D0B680420B0FA80F043F00403281A1F3002780B60521C027086F311882068E1
:202EAC00EFF3118380F311880A680820B0FA80F042F008022D1AE87F0A60401CE87783F34B
:202ECC0011880E20FFF780FC0C480068C0F38150032814BF0020012009490A4A0880176881
:202EEC003FB9094C402020600123D36100204860F8BD0120F8BDC0464D2E0020B43F00500A
:202F0C00E42C002004800C402C500C40F8710000142A0020F0B520480127F84201D001F0E5
:202F2C003BFC204D204F214EBD4206D203CD0478A4003459401CA047F6E71D48002800D032
:202F4C008047164D164FBD4202D210CDA047FAE7F0BD03251BE0416808300A1C2A400BD141
:202F6C001A1C2A40AB4305D0046804300C600431043BF9D1131C05D0047801300C70013139
:202F8C00013BF9D1021C2A4001D0A84304300368002BE0D17047C046FFFFFFFF00000000A7
:202FAC00000000000C7A0000947A0000047A000059C501102DE9F84302F042FE244C0025AC
:202FCC0065704FF6FF70E08202F06CF81F4E01232A462070314604F1A80001F04DFC0223A0
:202FEC002A4604F1CC00314601F046FC04232A4604F1F000314601F03FFC042704F14A0859
:20300C00102240462946A77000F088FB04F15A0910224846294600F081FB04F12C06356044
:20302C00E57107202572102160724246A572022002F016FA032010214A4602F011FA38464B
:20304C003246014602F00CFABDE8F883C1650000242300202DE9F04708AF97F800800446A3
:20306C0091460D46084603F0A9FB21680646886A04680831086A09EBC317B8F1000F00F1E0
:20308C000800814603D0096803F0D0FD60B32EB3DFF858C0691E3846002511F8012F202AC1
:2030AC0012D0071902EB820207F1050E0319A53A052792B2624412F801AB7F1E03F801AB7B
:2030CC00F9D18EF8005005E0021906277F1E02F8015BFBD1761E00F10600DED1B8F1000F66
:2030EC0002D0484603F09EFDBDE8F087DB6C0000002A4AD05FEA000C8B071CD1830722D1DE
:20310C00102A08D370B4103A78C978C0103AFBD270BC103238D0042A2CD3082A05D30C2AAD
:20312C0024BF08C908C008C908C008C908C092072AD0920F22E00B780370491C401C521E78
:20314C0022D08B07F7D1C30714D18307D8D0121F12D308C903801B0C4380001D121FF8D2CA
:20316C000AE008C903701B0A43701B0A83701B0AC370001D121FF4D2121D05D00B780370BF
:20318C00491C401C521EF9D160467047FEB5FEF733F9234C4FF6FF75002603F063F8002833
:2031AC0033D1009601A80DF106016A4602F02CFB30BBBDF804000127102811D16088BDF86F
:2031CC00061088420CD1009801888D4205D14088000905D301F0F6F902E003F07AFB074640
:2031EC00009868B167B103F085F909E0E06802F075FF071C04D003F0A2F8384603F03EF9C6
:20320C00E06803F05BFD0028F0D0A088C108C4D320F00400A08003F0D5FB03F0B3F9BCE766
:20322C00881F002070B5054602F010FC41F65434C2F200046668034602F02BFB22699B1B66
:20324C004FF47A715943090C801A48BF404240F6B83249198A4216D3062814DAA268E068BB
:20326C00824210D8216871B1801A44F24022C0F20F024243900C00EB1240814212D908469C
:20328C00C82811D312E043F6AC71C5F200014868400828BF4FF4FA600DD209687D2001F0F4
:2032AC00FF014843C82801D2C82070BDB0F57A6F88BF4FF47A6070BD2DE9FC41844608AFAC
:2032CC00087A3F88800928BF08203BD20878DFF87880FF24022829D14E687578307842F6DB
:2032EC00021600EB0520801B1AD04DF2EF65401B18BFB0F1020011D177B9012B0AD110780C
:20330C00CA681070C968474600258F4214BF02242C1C0EE00D250AE00B2508E00A2506E0C3
:20332C000097604601F05EFA054600E00125FF2C07D04046001D006818B1016809B120464B
:20334C0088472846BDE8FC81642800202DE98841071C3CD041F2783043F6AC72C5F200005F
:20336C00C5F2000200685168C0F3035CC0F3034E49081BD2D2F800804FEA08511CEB217C93
:20338C0005D4BCF1100F04DB4FF00F0C01E04FF0000C4FEA08411EEB217E05D4BEF1100F46
:2033AC0004DB4FF00F0E01E04FF0000E4EEA0C1E00F47F4100F0FF02222F41EA0E4142EA9A
:2033CC00010208D300F080401043BDE8888143F62772C0F271021046BDE888812DE9F84306
:2033EC00204D884606464FF0FF3105F12400814603F01CFC002000E0401CB8F1000F0DD0EE
:20340C0018F82010FF2909D02A688A4204D905EB8101096E0029EFD000261CE00024346079
:20342C0074600127B4600EE005EB80000B787268066607FA03F0104370600A680A493046F7
:20344C0002F01AFB641CB8F1000F04D008EB84010878FF28E8D1484603F0E4FB3046BDE8FA
:20346C00F883C04660190020007FC76738B5042002F086FC1A4C022818BF03281FD103204F
:20348C000090164800214FF040521C2300F0FAFD17480068EFF3118380F31188154804214F
:2034AC00B1FA81F1401AC17F4A1E0129C27703D1206820F00400206083F3118838BD094D34
:2034CC000A48094A296803686018B2FBF3F103F0C1FB2868201803F0B9FB38BD00A00C4037
:2034EC00142A0020E4710000A0860100FC710000F87100004D2E002010B51A481A49007873
:20350C00086820F0030040F00100086001F06EFB02F00EF80021154C154821600068C06841
:20352C000146022088471349134A086820F0010008601068D4F8EC1FEFF3118480F31188D3
:20354C000E4B0F481A680421B1FA81F1401A42F00402C17F1A60491CC17784F311884FF0B3
:20356C00FF3010BD811B00200440034040100940A00100108C210840F8710000142A0020FA
:20358C004D2E0020F8B505461E480068EFF3118780F311881C4C20684FF0805640F0800083
:2035AC002060D6F88C014068014601208847D6F8B001006A014614208847286906F5C6754B
:2035CC00810C14BF010C04212868406A024601209047D6F884010068232102460020904795
:2035EC002868C069014601208847206820F4C02040F480302060206840F00100206087F33C
:20360C001188F8BDF871000000200940F8B5001D84B214F0030002D0241A241DA4B202F0DE
:20362C0067FE01461948102C47680160C8BF8768388800221646C30BDD0319D126B9844234
:20364C000ADD3A46012617E01388C3189BB29C42138011DC174618469FB1001B80B2042834
:20366C00B4BF3C88385344F400443C803F1D08E080F40040002680B2C71938880028DAD181
:20368C000027084603F000F83846F8BD98290020B0B50446A768ADF1280D27BB0C20FFF715
:2036AC00B5FF071C16D0684600212422082303F0ADFA002306976A466168ADF810301448ED
:2036CC00059303F09FFA386038B902F0D2FF384602F022F96FF0030018E0E06878602069E0
:2036EC00B860A7600AE002F003FE0546386803F0A9FA2069B860284602F0C6FF3868616812
:20370C0003F0A8FA386803F0A1FA00200AB0B0BD71690000002213460A46194671B510F069
:20372C00030F0BD0002A82BF00F8011BB2F1010210F0030FF6D1002A08BF71BD11F0FF0172
:20374C0041EA0121042A18D341EA0141082A0FD30E46102A08D30C460D46B2F10F0312F0B1
:20376C000F0272C0103BFCD812F0080F18BF42C012F0040F18BF40F8041B12F0020F18BFBC
:20378C0020F8021B12F0010F18BF017071BDFEE770B5154686684268B1F1200002F10C049E
:2037AC0027D0401E21D0401E1CD1906E15492A78114300F017FB90B93068B0F1804F14BFF4
:2037CC0023220B222978E06D02F048FBE06D94F84D1000F0CFFE287884F84D0010E04FF0BD
:2037EC00FF3070BD6FF0010070BD002084F8640070BD21780020012908BF012084F86400FC
:20380C00002070BD0020008070B50646F088F5680628A5F108052CDAB088062829DA02F037
:20382C0067FD154CF28891000C3401EBC20161184968E1B102F028FF30792870B0796870A6
:20384C00307AA870F188880000EBC1002018F1684068083002F08CF8F188880000EBC10059
:20386C0024186068406803F0DDF9002070BD02F00BFF6FF0020070BDC029002041F2A00113
:20388C0008B5C5F20001D1F878020B68020F03F0FF03802B28BF002301F0C4FC4FF0FF3116
:2038AC0088B1401E05D0401E1FD1F2B90A3358B208BD101C02D0801E02D016E00A2008BD38
:2038CC00143358B208BD1046401E0DD0801E04D0001F04D0401E04D007E0142008BD152089
:2038EC0008BD163358B208BD0A21084608BDFEE7154830B5016815480A79164CADF1140D10
:20390C00024300928A794D1D104349790190104808430290FF206946039004F10800FFF728
:20392C005DFD206068B10D480B490068B1FBF0F003F064F920682978012201F0D7FE012068
:20394C0000E0002005B030BDB07100000000C08000008080342D0020A0860100FC71000043
:20396C0010B50446607816280DD020797E2804D07F280DD121890EA001E0217A0FA00522F7
:20398C0002F038FC04E06088082101F0AFFF30B1217904F1080002F049FC012010BD0120A3
:2039AC0000F084FA094810300460002010BDC0464D54552053697A653A00C04646432056B5
:2039CC00696F6C617465643A00C046C0881F002038B50079184CA0B902F08AFC21780029D5
:2039EC0004BF6FF00704051C13D0491EC9B2217029B902F049FE606801F0A8FB18E005465D
:203A0C0013E002F075FC05462078FF2805D16FF00604284602F038FE0BE0401CC0B2012883
:203A2C00207002D1606801F0ACFB284602F02CFE0024204638BDC046E02D0020B0B5ADF178
:203A4C00400D03F03FF9044600213C220823684603F0D0F811484168069181680068049007
:203A6C001048001D0068002205900D480891694603F0BCF8071C0DD002F03AFC0546384671
:203A8C0000F03EFE30B1284602F0FEFD204603F001F901E000F054FC10B0B0BDB46E0000EF
:203AAC003D6800008829002045F2280080B5C4F2090007686FB343F6AC70C5F200008268AA
:203ACC0002EA5201C90E24D24168890821D20021C4F20901D1F800C000681CF0050F4FEA76
:203AEC00104000F0F00000F5E0700CD1B84210D2100F38BF4CF0010CD00E38BF4CF0040C0C
:203B0C00C1F800C080BDB84284BF2CF0050CC1F800C080BDFEB5194C0546208C218B814245
:203B2C000CDC618B814209DBA08B618C884205D1E08BA18C884208BF18271DD0052001F0DB
:203B4C00F5F8278B638BADF80270A28BADF80430E18BADF806200646ADF80810E08AADF860
:203B6C000000684602F0F2FE071C05D1A57304F1F000314601F07AFA3846FEBD2423002037
:203B8C002DE9F041054615F8017B90460E461CE0B8F1000F05F101050BD0FF2C09D802201B
:203BAC0015F8011B401E41EA0424F9D101E0042C02D315F8011B00E0394630462246FFF713
:203BCC00ADFDA61901E006F8010B15F8010B8742F9D115F8014B002CE9D115F8010B2C78DD
:203BEC0000022418D4D1BDE8F0812DE9F843064635685FEA010805D0A96805F10C0003F059
:203C0C0015F818B3A86A0468B8F1000F00F10800814603D0A96803F009F898B1002730460C
:203C2C00394602F009F930462146802200F05CFB7F1C8034082FF2DBB8F1000F06D04846D0
:203C4C0002F0F0FF05F10C0002F0ECFFBDE8F883F0B50E4615460746ADF11C0D03A902F072
:203C6C00ADF9059018B300210091BDF80C10FF240DF11203024601912946029400F01BF897
:203C8C00041C0FD16889ADF81000700804D3384604A902F087FB03E0384604A902F0D6FEB0
:203CAC00041C05D004A81B2102F0C0FA00E01524204607B0F0BDB0B5087A04AF400928BFC2
:203CCC0008202AD23F88002F18BF0B2025D1087802281FD14D686C782F7800204FF6F17521
:203CEC0007EB04277F1B012F0ED9FF1E0CD07F1E1CBF011C0A200FD105241C80C9680B68E9
:203D0C00136009791171B0BD01241C80C96809781170B0BD002101201980B0BD2DE9F84FAD
:203D2C00061C28D01548017800244FF6FF7A81461FE0A00036F800B03518DA4515D0AF78E9
:203D4C009FB102F043F85FEA00080ED0780804D3584601214246FFF77BFFA878800804D31D
:203D6C00288802214246FFF773FF99F80010641CE4B2A142DDDCBDE8F88FC0462423002088
:203D8C0010B5012001F0FCFF012829D04AF20000342101220023C4F20C0000F0B5FD0028C0
:203DAC0008BF00201DD08020C1F200000068804701F04CFE41F6543344F24022C2F2000359
:203DCC00C0F20F029C681968D860041BA1EB91016243120C8A4224BF1A60012001D21960C1
:203DEC00012010BD2DE9F041071C0E4604D0144C2068F5B2A84202D80220BDE8F08104F1B7
:203E0C0024004FF0FF31804602F010FF04EB85046034206860B979680120A84027603246A6
:203E2C00084308497860384601F026FE002400E00124404602F0F6FE2046BDE8F081C04658
:203E4C0060190020007FC76798B541F23403C4F2090318680004070C26D001F01AFD41F6CB
:203E6C007832C2F2000292F90710814205DD10F1800FB8BF6FF07F00D0719188B94212D86B
:203E8C001468D3F8D40F001B801C1F2888BF1F207F1A4008C7404FF6FF70C919884238BF29
:203EAC00011C918098BD978098BDFEE710B5164C216999B1002808BF09A005D001F10800C0
:203ECC00097902F0B3F90BA02178052202F092F9206902F00FFB00202061207010BDC04645
:203EEC005273702073656E742C2072657472793A00C046C0527370207265747279206661B3
:203F0C00696C65643A00C046881F002038B502F0ADFE154C0546A01D008840B9FEF7A8FFE0
:203F2C000446102000F060F9012C0DD017E0FFF727FF60B10020E080FEF79AFF04461020FC
:203F4C0000F052F9012C0AD1FEF7E0F907E030340521204602F07EFE204602F077FE2846C4
:203F6C0002F080FE38BDC046142A0020F8B5054605F128020CCA0846002102F033FB05F1F9
:203F8C00300292E8C00036184FEA164447EB01073804044301F05AFD211AB1F1004F08D8B7
:203FAC00011B091DC90F05D1001DA04288BF041C00E0041D04480068426A214601209047DF
:203FCC00383585E8C000F8BD8C010010154B10B3401E1BD0401E14D0401E0AD0401E1FD1B5
:203FEC0005291DD1116818460C300160137903717047012914D111781846C1708068FFF769
:20400C008DBE01290CD11846801C07E0012907D11846401C02E0012902D11846117801706E
:20402C007047C046642800201549096821280ADC212819D00C380FD00D380FD0001F0FD096
:20404C00C01E0FD01AE0253810D0401F10D0401E10D0401E10D011E0086870474868704726
:20406C0088687047C86870470869704748697047C8697047086A7047486A704700207047C5
:20408C00F00100202DE9F041984600EB41001646B8F1100F06AF00F5007404D3A8F11008E8
:2040AC0000F50174360C3D8802F07AFC05FA08F545EA06450021002808BF012148F2000237
:2040CC00C4F20C02106810B910680028FAD025600120106009B102F069FCBDE8F081704771
:2040EC00B0B5044602F0AAFD00F00AFB054602F0FFF80146A2880F480023243030F80C7F51
:20410C005FB902804560A381A2688260686820610024084602F0B8FA09E0974208BF6FF0F5
:20412C000204F6D05B1C062BE8D300F009F92046B0BDC0469C2900207FB58668316845682C
:20414C00486820F0020048603168486920F00F00486130680321016202A802F043FD0B4889
:20416C0000680468286900906869074B0190297E03EB81010A6A297B306853F8213003998B
:20418C00A04700907FBDC04604700000C4010010F0B5144C241F65686879ADF1340DFEF747
:2041AC0013FB02F063FD26680746307890B901A800213022082302F061FD069400200090E6
:2041CC00074A297901AB301D02F054FD0120307001F074FF384602F045FD20460DB0F0BDFD
:2041EC004F6A00007C710000F8B507461248134C0668301902F062FD0025A419C0B9204691
:20420C0002F058FD0646B068074206D0F268316938469047C0B2012806D0304602F046FD63
:20422C000646B442EFD103E002480068804702252846F8BDEC710000E8710000142A0020B6
:20424C00B0B5044602F0D0FB30F0010008BF6FF004041BD002F0F2FC054602F049F80C4AF8
:20426C00062132F80C7F6FB1A388BB4208D1526812680021954208BF0121A160002403E018
:20428C00491EEED14FF0FF3402F0FEF92046B0BDC02900202DE9F0478A460646114C716816
:2042AC008F1D20683568097991460022804601F01DFA39780022404601F018FA30464A4676
:2042CC00514601F0F9FC2D1D296889680A68D1684909FCD220B120683978012201F006FAA0
:2042EC00BDE8F087342D00202DE9F0478A460646114C71688F1D2068356809799146012229
:20430C00804601F0F3F939780022404601F0EEF930464A46514601F0CFFC2D1D2968896898
:20432C000A68D1684909FCD220B120683978012201F0DCF9BDE8F087342D002000BF7047A0
:20434C0008B5FFF7FBFFFEE738B50D4C0546A06820B10C48B0F1FF3F00D080470A480068D1
:20436C008047606810B1014628468847206800B18047064800688047FFF7E2FF38BDC0460E
:20438C00B02D0020FFFFFFFFE82D0020EC2D0020DCB5044602F052FC01F02CFB064602F039
:2043AC0023FB30F0010014BF002E6FF0040017D0606858B1B0F1FF3F05D0694601F07EF9CB
:2043CC0030B107460BE04FF0FF3000E0002000907068009902F02AFC002700B901273846AB
:2043EC00DCBD70B504464AF200060D466008ADF1080DC4F20C0607D3A8B200210090012229
:20440C000B463046FFF73EFEA00807D3A8B200900021022201233046FFF734FEE00807D362
:20442C00A8B2009000210C2202233046FFF72AFE02B070BDF8B5124C267CA578182001F0AC
:20444C00EDFD071C19D00421002202F0A3F9304601F0CEFC38727D720020B87204F14A062C
:20446C00FE6004F15A033B6104F12C027A6101F0E5FD024A394600F067FDF8BDB16A000024
:20448C00242300202DE9F04104461148103090F8008016460D46102001F0C0FD071C12D0E5
:2044AC000421072202F076F9404601F0A1FC38727C72BD72FE6001F0C1FD044A394600F09C
:2044CC0043FDBDE8F0810420BDE8F081DB6A000024230020B0B5054602F0B0FB044602F00B
:2044EC0083FA30F0010008BF6FF0040416D001F0FFFE01460A48002230F80C7F4FB14368F7
:20450C001B689C4204BFAA80002404D0521C062AF2D36FF00404084602F0B6F82046B0BDBE
:20452C00C0290020F8B5044602F088FB00F0E8F8071C19D001F0DCFE84460D4800212430BF
:20454C0030F80C6F6EB94FF6F87202804760A180002585607868A060604602F095F828460F
:20456C00F8BD491C0629EBD3FFF7EAFEF8BDC0469C29002010B50C46F0B142680121A14045
:20458C000A4219D08A4342600C48002300EB840122180B6602F140010978FF291ABF40687B
:2045AC0050F8211044F020410548FEF7A5FA20464FF0FF3101F064FE10BDC046601900206C
:2045CC00007FC76738B5124C2069C0B121780830491C217000F0EAFA0546162D0AD0042DA9
:2045EC0008D020694088002101F080F92846FFF75DFC38BD217802A0052201F0FBFD38BD09
:20460C005273702073656E642072657472793A00881F0020114990B504461122ADF1140D5D
:20462C006846FEF765FD0E48A41D302106270170821C7821417014F8011D09111DF8011011
:20464C00237802F8011B03F00F011DF801107F1E02F8011BEFD105B090BDC0465471000034
:20466C00681B002038B544688568E06E01F045FAA06E01F082FD2968486820F0020048600E
:20468C0004F11C0002F0AAFA6879FEF709F9207818B904F1380002F09DFA04F1900001F0FA
:2046AC0019FE02F0E3FA002184F8A41002F0DAFA38BD000010B5114CF03C607806281CD1BB
:2046CC00208B062819DBB0F5486F16DA608B062813DBB0F5486F10DAA08BB0F5FA7F0CDA39
:2046EC00E08B0A2809DBB0F5486F06DA0120FFF711FA04F1CC0002F0F8F910BD1424002006
:20470C002DE9F843804601F0F3FD0F4C03250026814654F80C7F5FB93046C4F8008001463D
:20472C00A6600A4602F052FA606018B9FFF708FE474501D1264601E06D1EEAD1484601F0DC
:20474C00A3FF3046BDE8F8839C29002010B50178A23902D02E391AD010BD4179132918D148
:20476C0000890C4C01280AD12046F038817B022905D1F03002F0B9F901F008FE10BD052010
:20478C0000F0D4FA0146204600F070FC10BDFCF71FFD10BD14240020F8B506460F4D104F91
:2047AC007388002417E0A00000EBC400321851689068D26852B9AF420BD00A7855F822206B
:2047CC000346491C08461946904701E0FEF790FC7388641CA4B2A342E5DCF8BD047A00008F
:2047EC000C7A0000F8B506AF3F880D460646E7B9022B18D15078147804EB002434F001001D
:20480C000FD1E9680968304601F0FAFF844208BF00200BD0E96809683046224601F0C0F9B8
:20482C00F8BD8020F8BD0D20F8BD0B20F8BD000008B50D480D4B006890FAA0F0B0FA80F199
:20484C00012000FA01F21A60094A1060094802688A4207D900EB8100006E18B102680AB1D2
:20486C00C9B2904708BDC046E0200240E020026080E200E060190020F0B50D4614461F46D9
:20488C000646ADF1240D002124220823684602F0BDF900200590ADF8100008484FF47A7121
:2048AC00A2B26B4600680697B1FBF0F080B229464243304602F086F909B0F0BDFC71000076
:2048CC002DE9F04104461E4690460D46142001F0A5FB071C13D03246032101F05BFF3C813F
:2048EC00002038744046FD6001F082FA787401F0A5FB044A394600F027FBBDE8F0810420FA
:20490C00BDE8F0816563000070B51E460C181546102E02D3103EA41C2D0C02F041F80021FF
:20492C00002808BF012148F20002C4F20C02106810B910680028FAD024880120106009B1B8
:20494C0002F034F805EA0400304180B270BDD0B50746202400260A20ADF1200DADF1010397
:20496C00B7FBF0F24243BA1AB7FBF0F7303203F8012F27B1641E06F10106F1D15B1C761CF5
:20498C0013F80109761E01F8010BF9D1002008B00870D0BD0E48B0B5057CC48A0E2001F00D
:2049AC003DFB071C11D004210A2201F0F3FE284601F01EFA38727C811320387301F03EFB56
:2049CC00044A394600F0C0FAB0BD0420B0BDC04624230020D56A00000A460F49F8B5CF780E
:2049EC008D784E780C78002398B1401E10D0401E0DD0401E0AD0401E18BF02230AD10846BC
:204A0C000C30016811600079107103E03D462E46344614701846F8BD642800200C488546C4
:204A2C000C4885446F4607208743BD460A486F4607600A48002803D07946491D8E460047A9
:204A4C00FEF768FA01F0C2FD02F0B8F8FEE7C046E83F002000040000242B0020256A00006D
:204A6C002DE9F04104460E48057890460E46102001F0D4FA071C10D03246042101F08AFE94
:204A8C00284601F0B5F93872FC6001F0D7FA3946424600F059FABDE8F0810420BDE8F0819B
:204AAC003423002038B50F4C2C34A4F12C01086820F00100086054F82C1C4FF0805541F047
:204ACC00800144F82C1C01202060D5F88C11226849688847D5F8B001006A0146142088477E
:204AEC00206838BD0020094098B504462420FEF78DFD071C14D000212422082302F0C6F821
:204B0C002079012804BF01203876A0683946002202F05CF8E060384600F0FEFEE06810B98B
:204B2C006FF0030098BD002098BDD0B504463C20FEF76CFD071C14D000213C22082302F011
:204B4C0059F8207AB86160893862E068386160683946002202F04AF80646384600F0DCFEB0
:204B6C0016B96FF00300D0BD0020D0BD00B500213C220823ADF13C0D684602F03BF8094854
:204B8C0000F5B27107914FF40271089103210691054900236A4600F58A7002F00BF80FB08B
:204BAC0000BDC0462423002011240000F8B506460C48006844880579102001F02FFA071C1E
:204BCC000DD00221152201F0AEFE3C81BD72FE6001F034FA044A394600F0B6F9F8BD042047
:204BEC00F8BDC046981F00201769000010B54FF08054D4F8900181680120884741F2140141
:204C0C00C4F209010868800902D208688009FCD3D4F8A00101684020884704F5D074206869
:204C2C008168402088471128F9D110BD012810B515D1012001F0A4F8012812D001F072FB95
:204C4C00094C0120E0803034204601F0FBFF0521204601F0FFFF204601F0F8FF01E000F023
:204C6C0067FC002010BDC046142A00200C4810B50068EFF3118480F311880B48C0880128AC
:204C8C0009D10848342101220023FFF73DFE002808BF002000D0012084F3118810BDC0462F
:204CAC00F871000000A00C40142A0020B0B504460D48026840680F4600211200401841EB13
:204CCC00020104F128020CCAFCF792FC05460B4647B104F1280003C82A4601F083FC30348F
:204CEC0084E803002846B0BD082009402DE9F0410446984616460D460E2001F08FF9071C05
:204D0C0010D0812038700123FB70BC803D817E81A7F80C8001F092F9069A394600F014F913
:204D2C00BDE8F0810420BDE8F08100003EB505460020ADF804000A2001F070F9041C0DD08F
:204D4C000421312201F026FD258101F077F901A90223044A0091214600F014F9BDF80400E9
:204D6C003EBDC046BD6A0000F8B5044616460D46142001F053F9071C0FD00421022201F0AC
:204D8C00D2FDBC60BD811020B8733E6101F056F9034A394600F0D8F8F8BD0420F8BDC04684
:204DAC00FB68000070B50446606810F07F4F18BF6FF0020011D101F09BFA084D064628789E
:204DCC0028B1686800F0C2F9606800F0DAF960686860304601F058FC002070BDE02D002023
:204DEC00F8B500680E46816A0C6800F10801086A151C00F10800074603D0096801F016FFB2
:204E0C0058B1002104EBC6148020401E04F8011BFBD115B1384601F005FFF8BD014638B58F
:204E2C000A480C4B50F8212009481C6810400122084302FA01F5254218BF40F480008A40F3
:204E4C00196D0A4218BF40F4000038BD00100840007F077F80200240F8B50746BD68686846
:204E6C0000F1540490F8590001F074FB61790646384600F017FE064800EA0601884205D114
:204E8C002168042008742846FDF744F9F8BDC0460000068000B500213C220823ADF13C0DB7
:204EAC00684601F0A7FE084800F1E00107914FF42F71089101210691044900236A469030D3
:204ECC0001F078FE0FB000BD881F00209931000008B538B1801E0FD102206946FFF77CFDEE
:204EEC0006A004E000206946FFF776FD05A09DF80010042201F07EF908BDC04643686172C3
:204F0C0020333A004368617220313A00B0B504460D46102001F082F8071C10D021460622C0
:204F2C0001F001FD0020388115247C81054AFA6001F084F839462A4600F006F8B0BD0420E3
:204F4C00B0BDC046C01F00201CB51446CA78012A02D18A880A4B1A8000F062FD30B900200F
:204F6C0000906946204601F035F918B101F0A4F9044603E00098447801F0A4FA20461CBDBB
:204F8C00BC2D002038B51C46154600F049FDB0B9002000906946284601F01CF978B9009916
:204FAC00487848B90846C1798C4205D10146049889682246FEF79CF8009801F083FA38BD38
:204FCC000C4910B50968EFF3118481F311880A49B0FA80F2891ACA7F531E012ACB7703D1A9
:204FEC00034A11688143116084F3118810BDC046142A0020F87100004D2E0020F8B504466E
:20500C0016460D46142001F009F8071C0ED00121142201F088FC3C72FD603E820420B874C6
:20502C0001F00CF8024A3946FFF78EFFF8BDC0460969000010B504460B4802680023D90725
:20504C0050080143D007801A4FF47A729941FCF7CFFA002908BFB0F1004F28BF6FF000400C
:20506C006060002010BDC046FC71000038B50D46044601F040FD10B1204601F0E3FD084804
:20508C0000684FF47A71B1FBF0F080B205FB00F1204601F0DFFD204601F0D8FD38BDC04665
:2050AC00FC7100001CB500208DF80400082000F0B5FF041C0CD00121122201F034FC00F0CE
:2050CC00BDFF01A90123044A00912146FFF75AFF9DF804001CBDC046256900000C4938B55D
:2050EC000968EFF3118581F31188074B07491A68B0FA80F4091B1043CA7F1860521CCA7785
:20510C0085F3118838BDC046142A00204D2E0020F871000010B50C4600F098FC211AB1F19D
:20512C00004F08D8011B091DC90F05D1001DA04288BF041C00E0041D03480068406A214619
:20514C0002460120904710BD8C01001038B50546012411E0C0F11F0004FA00F1052881EAF4
:20516C00050504DB401FC0B2FDF79AFB04E004FA00F0C0B2FFF724FFB5FA85F02028E9D15D
:20518C0038BD38B50546012411E0C0F11F0004FA00F1052881EA050504DB401FC0B2FDF7BB
:2051AC0013FB04E004FA00F0C0B2FFF797FFB5FA85F02028E9D138BD98B50446A06858B142
:2051CC00B0F1FF3F05D0694600F078FA30B107460BE04FF0FF3000E0002000906068009986
:2051EC0001F024FD002700B90127384698BD00001FB50B4C04F1100004F10801FEF7EEF8AD
:20520C006060684601F076FAFDF7B2FB206020B100F0F2F8206801F01BFB00901FBDC046E6
:20522C00702B002041F21830C5F2000001684BF69A10C1F30F31884208BF00200BD024304D
:20524C00884208BF012006D04BF6203088420CBF02204FF0FF307047F8B5044616460D46A7
:20526C00102000F0DBFE071C0CD00421362201F091FA3C817D81FE6000F0E0FE024A39467F
:20528C00FFF762FEF8BDC046A56A000070B505460E460C2000F0C2FE041C0CD004213022CF
:2052AC0001F078FA2581668100F0C8FE034A2146FFF74AFE70BD042070BDC046C96A000093
:2052CC0038B50446A1686068086001F0DCFB48B1002506490095064AA368097800F036FA8C
:2052EC00284638BD6FF0030038BDC046DF70000069560000024680B5062A0CDA094F900059
:20530C0000EBC20007F13002175A13181FB14FF6F870B84202D14FF0FF3080BD18880880F1
:20532C00002080BD9C29002010B5044601F086FC00F060FB002808BF6FF004000DD00830EB
:20534C0000F079FAA06038B110F8081CA18010F8070CE080002010BD022010BD10B5044642
:20536C0000212C220823ADF1300D684601F04EFBE0200890A168606800236A4601F016FC85
:20538C00002818BF002001D1FEF7DAFF0CB010BD10B5044600212C220823ADF1300D684687
:2053AC0001F034FBE068A1680890606800236A4601F0FCFB002818BF002001D1FEF7C0FFB0
:2053CC000CB010BD10B5044600F092FF094B0022014633F80C0F30B1A04208BF94B203D002
:2053EC00521C062AF5D3FF24084601F04DF9204610BDC046C0290020B0B50168083191F8C1
:20540C00240090B1086A4768046809680830054601F00CFC48B12FB100213846401E04F8CF
:20542C00011BFBD1284601F0FDFBB0BD010446F244020B0CC4F20C02C0F3074142F8083CDD
:20544C00012042F8041C40F68401C4F28C311060086810B908680028FAD000201060704745
:20546C00F8B5044616460D46102000F0D7FD071C0CD00521012201F08DF93C727D72FE60CC
:20548C0000F0DCFD024A3946FFF75EFDF8BDC046E76A0000F8B5044616460D46102000F049
:2054AC00BDFD071C0CD00521022201F073F93C727D72FE6000F0C2FD024A3946FFF744FDD4
:2054CC00F8BDC046ED6A000038B505460C2000F0A5FD041C0DD02946002201F024FA4FF0DC
:2054EC00FF30A06000F0AAFD034A2146FFF72CFD38BD042038BDC0467158000070B50646B9
:20550C000A48163805780A2000F088FD041C0CD03146102201F007FA284600F069FC2072D7
:20552C0000F08CFD214600F07BFA70BDA01F002008B503200021FEF754FF012000F020FC98
:20554C0020B18020C1F200000068804700F07EFA41F65433C2F20003586000F09AF918615B
:20556C0008BDF8B5044616460D460C2000F056FD071C0DD02A46042101F00CF93C810520D8
:20558C00B87200F05BFD39463246FFF7DDFCF8BD0420F8BDF8B5044616460D46102000F073
:2055AC003DFD071C0DD02A46042101F0F3F8BC600020F86000F042FD39463246FFF7C4FCC4
:2055CC00F8BD0420F8BD1078802811D1508840F27F6181420CD190883F21B1EBA02F07D1DA
:2055EC00C0F3C211042903D100F07F00834201D000207047012070471078802811D150887A
:20560C0040F27F6181420CD190883F21B1EBA02F07D1C0F3C211032903D100F07F00834257
:20562C0001D000207047012070471078802811D1508840F27F6181420CD190883F21B1EB2E
:20564C00A02F07D1C0F3C211052903D100F07F00834201D0002070470120704710B5401E38
:20566C000C460DD0401E09D0801E05D0001F01D0FEF766FE052004E0002002E0042000E0ED
:20568C000220226821469047002010BD38B5094CE8210020218040F68412A4F86C0A04F148
:2056AC00E8010A80044D6961FDF7B0FFA8616C6138BDC04620050020882900200A4A10B5AD
:2056CC0012680C464FF47A710023A1FB0001FBF78FFF002908BFB0F1004F2EBF6FF0020056
:2056EC002060002010BDC046FC71000080B517460246084803688B420AD900EB8100006E9F
:20570C00824205D1002207B101220348D038425480BDC04660190020D020024010B501F039
:20572C00C1FA01F0CFFA032001F03CFA06481030006830B1034C204601F01CF8204601F0B6
:20574C0016F810BD79670000A401002098B517460A46011C14BF002F032009D0064C8A606C
:20576C000448CF6022680B61801801F017FA002098BDC046142A0020E8710000094838B5A2
:20578C000068EFF3118580F31188074CA41D2088012803D1FEF7F4FA0020208085F31188A4
:2057AC0038BDC046F8710000142A002020280FD341F29830C5F2000001680803820D9205A5
:2057CC0000F47C1001F00F01104340EA0130704748F20000C4F23F0070477FB50646082049
:2057EC0014460D46ADF800000920ADF80200684600F0B1FBBDF804103180BDF80610298043
:20580C000299216000907FBD7FB50646082014460D46ADF800000920ADF80200684600F02C
:20582C009AFBBDF804103180BDF8061029800299216000907FBD98B5044600F059FD21688B
:20584C00002908BF002709D00F4657F80C2C2260002347F80C3CFF2401F8024C00F014FFD7
:20586C00384698BD1078911D802810D1508840F27F6383420BD19088032818BF042806D1E0
:20588C00097831F0100014BF1129012000D00020704745F2280041F20C31C4F20900C5F230
:2058AC000001826891F900100068A0F540704143091142F31000401A8030001270470000F4
:2058CC0010B50C2000F0AAFB041C0BD00121042201F029F804480C30A06000F0AFFB214658
:2058EC0000F09EF810BDC046A01F002038B5054608480E3800780C4600F07AFAC2B20448A8
:20590C002946234600904FF61840FFF7EFF938BD796A0000981F002010B5044600F0E8FC06
:20592C00074934F8042C6FF3DF3224F8042C4A680860241F944238BF4C6000F0A5FE10BDBA
:20594C00982900200EB50820ADF800000420ADF802000648007880000190684600F0FBFA95
:20596C00002814BF002002980EBDC0462423002038B50C46054600F0BBFC002144F80C1C78
:20598C00296811B92C6006E0114651F80C2C002AFAD141F80C4C00F077FE38BD10B5044667
:2059AC0060680C3080B2FDF731FE50B1A18800230181FF22036000F10C0182721846A160DE
:2059CC0010BD6FF0030010BD38B50546FFF7ACFC041C0DD1A8886946FFF78CFC28B1A868A5
:2059EC0000F064FD6FF0050038BDBDF80000A880204638BD38B5054600F07AFC074C0322A3
:205A0C00014654F80C0F18B1A84202D0521EF8D10024084600F038FE204638BD9C29002036
:205A2C0000B5ADF1140DADF8040003910822ADF80020ADF802201020ADF8060002208DF871
:205A4C000800684600F087FA05B000BD38B500F0A7FF0021002808BF012142F20800C4F2FA
:205A6C000900046845685FEA010E01D000F09EFF200440EA154038BD38B5094B1C6802F0F3
:205A8C00FF05AC420AD902F0FF0403EB84031B6E984203D108461146FDF72EF838BDC046CA
:205AAC00601900200A46094910B50B6802F0FF04A3420AD902F0FF0301EB8301096E884205
:205ACC0003D14FF4E021FFF7D7FF10BD6019002010B50C46ADF1180D02900821ADF8001026
:205AEC0019216846ADF802104FF0FF31019100F032FA0499216006B010BD70B505684468FF
:205B0C00287870B1607900F075FF012806D1206800264660281D01F061F82E706079FCF72E
:205B2C00BFFE70BD70B515460C46064600F024FA011C03D1284600F0ADFC70BD8D603046BB
:205B4C0001F028F814B1204601F06CF870BD80B5107802AF80280DD1508840F27F618142DA
:205B6C0008D19088834205D138789179884208BF012000D0002080BD70B5084C06462068A7
:205B8C000D4648B100F05CFE20682A46314600F0D5FC206800F05CFE70BDC046702B002073
:205BAC0070B515460E46044600F0AEF848B94FF6FF70314600F0A8F8002808BF112002D077
:205BCC0004808570002070BD70B141F27430C5F2000001684FF6FC4CC0F2FC0C01F07C42E5
:205BEC000CEA0100104370470020C6F688007047084A0021032002F1140343F80C1F401E19
:205C0C009960FAD144320620401E22F80C1BFBD100F07CBC8829002098B50F46044600F0D8
:205C2C0067FB57B13A4600E00A4652F80C1C0029FAD1216842F80C1C276000F025FD98BDFF
:205C4C000EB50820ADF800000120ADF80200684600F081F90349BDF80400088202988862B5
:205C6C000EBDC046242300200EB50820ADF800000120ADF80200684600F06DF90349BDF883
:205C8C0004004880029888600EBDC046881F0020002808BF01200ED0002802D400210A22D9
:205CAC0006E040420121FAE7491C90FBF2F0C9B20028F9DC0846704710B50024ADF1180D72
:205CCC000191036803941B1D029418680092694600F0B2FE012808BF0124204606B010BDF7
:205CEC0010B5FFF72FFE064CA06038B100F056F9044A204611211430FFF736F810BDC04615
:205D0C006428002094710000034608460749097849B1021F084632F8041F8B4208BF101CE8
:205D2C0002D0401EF7D100207047C0462423002010B50E284FF0010403D00649085C28B17D
:205D4C0005E0204600F01CF8012800D00024204610BDC046482D002008B5283090E80C0064
:205D6C0005A003C8FBF744FC002908BFB0F1FF3F88BF4FF0FF3008BD00000000907E00001E
:205D8C0001464AF200000429C4F20C0005D134214FF0C0421D23FEF7B7BD34214FF080520A
:205DAC001C23FEF7B1BD38B505460A2000F036F9041C09D00121152200F0B5FD258100F02A
:205DCC003DF92146FFF72CFE38BD0000074910B5112201F11400C468CB1CA34204D0521E7B
:205DEC0000F11000F7D1002010BDC046642800200EB5ADF806005021ADF8001068460021CC
:205E0C00ADF8021000F0A7F8002814BFFF209DF808000EBD0EB50820ADF800002020ADF839
:205E2C0002001020ADF80400684600F094F8002814BF002002980EBD1CB5074B1C880A46BA
:205E4C0069460C809B788B700B78D2180A700322FEF720FA1CBDC046D86C0000074B10B598
:205E6C001C688C4208D903EB81031B6E984203D10846114600F004FA10BDC046601900203B
:205E8C0038B50D46044600F0E9F802460448016822B1148095704068FFF744FE38BDC04657
:205EAC00901F0020074808B51030006828B1034800F060FC024800F05AFC08BD2961000004
:205ECC0009660000A4010020074810B51030006830B1044C204600F04DFC204600F047FC5D
:205EEC0010BDC04663090000A4010020074808B500F04CFEFFF7D6FF00F044FE00F03EFE23
:205F0C0000F038FE00F032FE08BDC0462957000010B50648064900684C6840680146012056
:205F2C008847A06901466069884710BD8C010010E401002050B141F27030C5F2000000683C
:205F4C00020400F47C01100C0843704747F28A60C0F26800704710B50446208800F09EF86F
:205F6C0038B1816811B12046884710BD6FF0010010BD4FF0FF3010BD0EB50820ADF8000087
:205F8C000420ADF802000C2001906846FFF7E3FF002814BF002002980EBD000001460648D2
:205FAC00007840B14FF6FF73091F002221F8043F401E8A70FAD17047242300201CB5064AAD
:205FCC0014683CB1024600911B2301204FF6FF71A0471CBD00201CBDC02D002060B141F255
:205FEC005031C5F2000108680968C0F3870001F0030140EA01207047D820704720280BD375
:20600C0041F29830C5F200000068C10C01F44071C0F3845008437047002070470EB5019033
:20602C000821ADF8001068460221ADF80210FFF792FF002814BF002002980EBD0EB50820FC
:20604C00ADF800001A20ADF802006846FFF783FF002814BFFF20BDF804000EBD0EB50820FF
:20606C00ADF800000420ADF8020001906846FFF772FF002814BF002002980EBD08B54288F7
:20608C00292A28BF6FF0010004D203490C3151F82210884708BDC046C06E000008B5FFF705
:2060AC0091F9FF2808BF002004D0034B810001EBC001581808BDC046CC29002005480068E7
:2060CC0001680022CA62044A01688A6000680121416070477C7100000004002010B504465A
:2060EC0000F0ECFD002818BF002006D1204600F039FD846800F0CEF9204610BD03461046C4
:20610C001A4648B1521ECBB212F8011F8B4208BF101C02D0401EF7D10020704710B5064C5D
:20612C00206900F01BFD0146A06800B9E160A068401CA06010BDC046A401002006480268C5
:20614C0040680021120040184FEA104041EB0201090408437047C0460820094010B50446B3
:20616C00E088FFF72FF9FF2808BF4FF0FF3003D0E0802046FDF748FB10BD10B5044607E09E
:20618C0090FAA0F0B0FA80F0C1B22046FEF7F2F960680028F4D110BD08B5FBF707FCFFF7DC
:2061AC0027FDFDF74BFCFEF7E1FCFEF773FE00F0D1FC002008BD1078802809D1508840F286
:2061CC007F61814204D19088834208BF012000D00020704738B50D460446FFF71BFE00280E
:2061EC0018BF6FF0040003D120462946FFF770FC38BD000010B50C4601460448006818B17E
:20620C0013462246FCF72CFD10BDC046702B00200449487820B90448001F086300F067BC38
:20622C007047C04624230020A01F002010B504460448001D03681BB10A46012021469847E9
:20624C0010BDC046C02D00200EB50820ADF800000A20ADF802004FF0FF3001906846FFF74E
:20626C007AFE0EBD0EB50820ADF800000A20ADF802004FF0FF3001906846FFF76CFE0EBD96
:20628C00002948BF0021044A02EB8000026861F3050202607047C046001008400548E23843
:2062AC000078401E03D0401E03D100F06FB8FEF701BA70471424002050B110F1040F08BF45
:2062CC00042006D010F1030F0CBF02200120704700207047054910B50968EFF3118481F39A
:2062EC00118800F033FC84F3118810BDF871000010B500F0E7FC80B260F30F0400F0B6FCC2
:20630C0080B260F31F44204610BD1CB5044660686946FFF7D3F920B9009860602046FDF777
:20632C00B7F91CBD08B503200121FEF75AF8FFF78DFB41F65C31C2F20001086008BD014614
:20634C000888401E04D0401E05D18878FEF7C0BD8878FBF7EFBB704710B51D23FFF74CF936
:20636C00012420B91B23FFF747F900B90024204610BD41F29420C5F200000068C0F3024094
:20638C000228C8BF4FF0FF30704700000448401C0078062818BF072801D1FEF7FBBA704794
:2063AC002423002038B50C460546FFF747FEC2B21B2321462846FEF783FA38BD222807D393
:2063CC0041F28C30C5F200000068C0F30070704701207047222807D341F28C30C5F2000027
:2063EC000068C0F34070704701207047202807D341F29830C5F200000068C0F30150704740
:20640C0000207047222807D341F28C30C5F200000068C0F3C06070470020704738B141F2EA
:20642C007C30C5F200000068C0F30D00704740F2FF307047222807D341F28C30C5F200002C
:20644C000068C0F3455070470020704708B5406810F07F4F18BF6FF0020002D1FEF776FE4B
:20646C00002008BD08B5406810F07F4F18BF6FF0020002D1FEF785FE002008BD0EB501903C
:20648C000821ADF8001068460521ADF80210FFF762FD0EBD0EB501900821ADF80010684687
:2064AC000521ADF80210FFF756FD0EBD0EB501900821ADF8001068460321ADF80210FFF72E
:2064CC004AFD0EBD0EB501900821ADF8001068460321ADF80210FFF73EFD0EBD0EB5019093
:2064EC000821ADF8001068460321ADF80210FFF732FD0EBD0EB501900821ADF80010684659
:20650C000321ADF80210FFF726FD0EBD04480821A0F844100149C164FFF7B8B88960000091
:20652C008829002010B50446A088FDF76FF80028A06014BF00206FF0030010BD08B503687A
:20654C0093F82C302BB10123009313460022FCF781FD08BD08B5FEF761FC014602484840DC
:20656C0040F0004008BDC0460060002010B5044C830003EBC003E058C268E018904710BD0D
:20658C00E070000008B502206946FEF725FA20B9032001216A46FDF719FD08BD10B5044C4B
:2065AC0000212C34204600F0CDFA204610BDC046881F0020044B03F112010A88104308806E
:2065CC00986A00F02FBBC046242300200449B1F1FF3F07BF0020011C0868091DFFF7DCBD11
:2065EC00FFFFFFFF30B502FB01F403FB00444FF00005E2FB00542146284630BD0449886806
:20660C00401E886003D10869C96800F097BA7047A4010020012814BF002040F2FF700249ED
:20662C00086000207047C0460000046004480268406800211200401841EB02017047C046D0
:20664C0008200940034804490068814201D0FDF74EB9704798CA01107047282038B141F2E9
:20666C008C30C5F200000068C0F3C14070470020704708B50820ADF800000C20ADF8020094
:20668C006846FFF768FC08BD08B50090BDF8020000F0E8FABDF8000000F0FCFA08BD08B52E
:2066AC00406820B1006800F0CDFA002008BD6FF0020008BD10B50446FFF706FC032000F011
:2066CC0071FA204600F07AFA10BD00000248034A1321FEF749BBC04634270020887100006E
:2066EC0038B50546FEF7C2FA002400B1012400202C7138BD4FF0FF3101600249416000211C
:20670C000172704740420F004068002180F8A410014801707047C046801B0020034938B552
:20672C003CC93CC01EC980E81E0038BD04710000034B191D0A8810430880986800F072BA68
:20674C00881F002003480249001D01607047C046A01F00206428002008B5FEF763FD18B927
