:2070000038B50D46044614F011FB07482168016061684160A168816014F00EFD14F0C3FB78
:0C702000284613F0A3FF38BD3C480020B8
:20702C0001708270C370091241701912017105207047F8B5D24C0F461646034640F294419D
:20704C00002204F12C052846FFF7EAFF24183146401C84F82C70C4B2601906F022FD00194B
:20706C002A46C1B2FF2014F09FFF4FF6FF70F8BD2DE9FE4F4FF00108044600269346009172
:20708C00DFF8FC9283F80080A07801960F2800F2CD82DFE810F077012501BB02B002A302E4
:2070AC0070025C023902250204028300E601CC015200B90110004D4606270F2285F82D702E
:2070CC0005F12C000270627885F82E20A68885F82F60321285F83020227A85F83120627ADA
:2070EC0085F83220A27AE36885F83320E27A04F10C0185F8342003F001029B0828BF42F09D
:20710C0002020968CB0828BF42F004020B0928BF42F008024B0A28BF42F010028B0A28BFC9
:20712C0042F02002CB0A28BF42F04002090B28BF42F080020A26427220E1207B0D30C0B2E1
:20714C00064614F051FC25460190002804BF1320607000F06B8204460D2004F8010B062218
:20716C0004F8012B687804F8010BE87804F8010B2879691D04F8010B20460AF0B9FFE87AE2
:20718C00A41D04F8010B287B04F8010B29692A7B20460AF0ADFF8BF8008047E26A2014F072
:2071AC0023FC271D0028019000F08E8005468BF8008031466A220AF099FF0A2005F8010B93
:2071CC00062605F8016B607805F8010B207905F8010BA088001205F8010BA07905F8010B26
:2071EC00A068002808BF1C351BD005F8018B7868807E05F8010B7968102228460AF078FFEE
:20720C007868007C103505F8010B7868008A001205F8010B79680822284612310AF068FF16
:20722C000835F868002808BF1C351BD005F8018BF868807E05F8010BF968102228460AF08F
:20724C0057FFF868007C103505F8010BF868008A001205F8010BF9680822284612310AF067
:20726C0047FF08353869002808BF17350ED005F8018B3969102228460AF03AFF39691035E0
:20728C003246284610310AF033FFAD1DB8686A26002800F0CB8105F8018BB9681022284667
:2072AC000AF026FFB868007C103505F8010BB868407C05F8010BB868807C05F8010BB8688F
:2072CC00C07CAB46804666E74D460A2005F12C03062613221870388885F82D601F469DE0EB
:2072EC0067782546002F3AD1E77897B3042000EBC700C0B2064614F077FB0190002804BFCF
:20730C001320607025D0044604F8018B062004F8010B687804F8010BE87804F8010B6F6842
:20732C004FF0000A10E0387804F8010B7878B91C062204F8010B20460AF0DAFE0837A41D23
:20734C000AF101005FFA80FAE8785045EBDC8BF80080687818B9E878002840F067814946B3
:20736C0001F12C00062280F80080002381F82D206A7881F82F30042681F82E20814641E047
:20738C00D84300204D460622304685F82D2005F12C0630706078E11C85F82E0005F12F003E
:2073AC000AF0A6FE608985F83500001285F83600217B05F1380705F137031022A3F12B08C9
:2073CC003846197005F10C010AF092FE05F11C01102206F11C000D460AF08AFE6078B14611
:2073EC00343F70B902201021424610F09AF8032010212A4610F095F804203A46014610F03C
:20740C0090F82C264F4610E14D4606260E2085F82D6005F12C0738706278A08885F82E206B
:20742C00041285F82F00052685F83040FDE04D4606220C2685F82D2005F12C073E70607823
:20744C00A38885F82E00A11D85F82F30181285F8300005F131000AF04BFE207B85F8370020
:20746C00E3E04D4606220B2085F82D2005F12C0738706078E11C85F82E0005F12F000AF01D
:20748C0037FE608985F83500001285F83600207B85F83700607B0D2685F83800C5E04D4601
:2074AC000622092085F82D2005F12C073870607885F82E00E078211D85F82F0005F13000E9
:2074CC000AF016FEE268100A85F83700130E85F83930140C85F838400E2685F83620A4E0D3
:2074EC0048460622082180F82D2000F12C073970617880F82E10E17880F82F10211D3030D2
:20750C000AF0F6FD0A2690E04D460626072085F82D6005F12C0738706078A38885F82E0063
:20752C00E28885F82F30218985F83120181285F83310638985F830000B2685F835301012C9
:20754C0085F832001A12081285F83400C5E74D46062685F82D6005F12C073E70607885F8D8
:20756C002E00A38885F82F30181285F83000A07985F8310059E04D460622052085F82D2049
:20758C0005F12C073870607885F82E00E078211D85F82F0005F130000AF0AAFD608985F81C
:2075AC003600001285F83700207B85F83800E68985F83960238A85F83B30628A85F83D2093
:2075CC00301285F83A00181285F83C00101285F83E00207D142685F83F0026E04D4606278D
:2075EC00042185F82D7005F12C0001706178032685F82E10C2E64D460621032685F82D10AB
:20760C0005F12C00067062784946B5E64D460626022085F82D6005F12C073870607885F8B1
:20762C002E00E07885F82F0004260197009806700198BDE8FE8FF8B54278AC4D0F46002498
:20764C007AB9037973B9C188068985F83210042485F83460091285F83310311285F8351093
:20766C0000E0037943F4B061438805F12C063046FFF7D6FC85F83140A31D30463B70F8BDA5
:20768C002DE9FE4F044602910021DFF864826078019289460F46002811704E46009018BF8D
:2076AC00162840F0B680257990486D1E1C2D04D97D3D19D06D1E11D0ABE0DFE805F0A40FEA
:2076CC009E989289834F7D77716B625B554F4739AAAAAA302A24AAAA1DAA1DC0404604F1DB
:2076EC0008010EF088F893E0217A80F83210617A022780F833108CE0404604F108010EF082
:20770C001CFA022720E0404604F108010EF003FA7EE0404604F108010EF0D5F904E0404687
:20772C0004F108010EF0BAF92669001F04272EE0217C80F83210617C80F83310343004F15F
:20774C0008010EF04CF90427801E1FE0404604F108010EF085F9401E012717E0404604F111
:20776C0008010EF0CFF853E0404604F108010EF074F90BE0404604F108010EF05EF9A6683B
:20778C0005E0404604F108010EF04EF9E6685FFA80F93EE0404604F108010EF026F937E039
:2077AC00404604F108010EF002F9EFE7404604F108010EF0EEF82BE0404604F108010EF075
:2077CC00D7F8C8E7404604F108010EF08EF8DDE7404604F108010EF05AF866690627801FE4
:2077EC00D5E7404604F108010EF024F8B3E7404604F108010EF018F80AE0404604F1080189
:20780C000DF0FFFF04E0404604F108010DF0DBFFC7B209EB070ABAF1260F15DD0AF1060BC6
:20782C00584614F0E1F8051C09D00199012008706FB1A81D41463A460AF05AFC07E013203E
:20784C00BA464FF000090090CA4D0AF1060B5EB1B9F1000F05D0E81931464A46801D0AF0E5
:20786C0047FC304613F0CDFC21796388009A284641F4A061FFF7D4FB85F805A0029880F8BB
:20788C0000B02846BDE8FE8F0B7813700B8890700012D0701B12537088781071488800124E
:2078AC0050710879907188880012D07188791072C88800125072087A907208890012D07206
:2078CC00887A1073488900125073087B907388890012D073887B1074C88900125074087C53
:2078EC009074088A0012D07414207047D84300200A440020F8B506460F469E4871797278F4
:20790C007388054641F49061FFF78AFB04467079642860D07178002940F08D80401E54D0B4
:20792C000A384CD0083844D0401E37D04C3805D0401E2FD0401E012815D97CE03189631C64
:20794C0032892955D8B2002A4FEA2121295400F1010006F10801C4B26DD17089091D6219F6
:20796C00FFF792FF23E03189631C72892955D8B20912B4892954401CC0B211122A54401C95
:20798C00C0B22954401CC0B221122C54401CC0B229544EE030897189B28937E03079631CC5
:2079AC0006F108012855DCB2601906F07AF8001940E0601906F1080106F007F8F7E76019D1
:2079CC0006F1080106F01BF8F1E7601906F1080105F089FFEBE73189631C2955B289748903
:2079EC00D8B2091229541312401CC0B221122C54401CC0B22954401CC0B22A54728A401CC4
:207A0C00C1B2F0896B54491CCCB2318A2855641C0012E3B20E12E8545B1C1412D8B229546D
:207A2C00401CC0B22E54401CC0B22A54401CC0B22C54401CC4B23C702846F8BD2DE9F8435E
:207A4C0005469146002089F800006E78A8898846093080B204462C2C0CDD13F0C5FF071C92
:207A6C0004D1A8891326241AA4B203E0012089F8000000E03F4F6B8838464FF49E61324609
:207A8C00FFF7CEFA28797871A8880012B871287BF871A88900123872A968081C08D02EB93A
:207AAC00AA8907F109000AF023FBA86813F0A9FB88F800403846BDE8F8832DE99C4104461C
:207ACC00002080462C228DF80200414601208DF8000028488DF801800AF008FB2078A038CF
:207AEC0026D0801E1ED00E3814D0401E0CD01F3818BF474627D120460DF102010DF1010279
:207B0C006B46FFF7B5FA1AE020460DF10201FFF792FD14E020460DF102010DF10102FFF7CB
:207B2C00AFFD0CE020460DF10201FFF7E3FE06E020460DF102010DF10102FFF77FFF074654
:207B4C009DF8000010B120460AF0B5FA9DF8020028B19DF80210FF203A4614F025FA37B1F3
:207B6C009DF80100012802D1384613F04EFF4046BDE89C810444002002460023921E012AA3
:207B8C0009D9921E04D0802807DB902805DA05E0042902D102E0102900D002231846704748
:207BAC0060B192223C4982713C4B01602C224281198881807F23038100207047022070470B
:207BCC002DE9FF4115460027401EDFF8D4808C682F7021D0401E04D0401E58D0401E2ED0A0
:207BEC002BE0207861780646FFF7C6FF00284ED1A21C30460FF095FCA51C042E48D1627904
:207C0C0029782779E678434601EB026101EB074101EB062119603BE0617820780E460746F4
:207C2C00322E34DAFFF7A8FF88BB424638465A320FF0CEFC60BB617827E0012028E06846BD
:207C4C00FFF7AEFF0098C44A82F85E00BDF8046082F8616082F8657082F867709DF8064028
:207C6C0082F863409DF8083082F86430010A82F85F10000C82F8600030129DF80A6082F86B
:207C8C0062000A2182F866603846297000E002200090BDE8FF81C046000102002CCA01003D
:207CAC00DC4300202DE9F041AB4D8C682F7811281646ADF1300D03D93038082814D93BE1B2
:207CCC00DFE810F0F9003A013A01E60017021302F801F101ED01D601CD016D00C501BD01DF
:207CEC009F017A0172014C01DFE810F04B0031003001130009002D0128012A0128012078CA
:207D0C000CF0C8FF002800F01981002713F07DFE00E260780546083080B213F065FE061C46
:207D2C0013D0207806F108073070A11C2A46757006F1080077600AF0DBF930460CF06AFF85
:207D4C00071C00F0E7813046E0E71327E2E121784FF6FF70FF2906DA262904D0272902DABE
:207D6C00084611F017F84FF6FF71814214BF0027022785F85E000221001285F85F00317071
:207D8C00C8E12078262800F0D980272880F2D680A278617801EB022110F0EEFFB9E104A8B3
:207DAC00002120220AF0A2F961782078A71C00EB0120ADF8100017F8010B8DF8140017F807
:207DCC00010B102239468DF815000DF116000AF08FF907F1100414F8010B8DF8260014F8CF
:207DEC00010B8DF82C0014F8011B0023080131F07F0718BF01230A9A00F4807700F4C0661B
:207E0C0001F00F016FF30802114347EA010222F4606246EA020040EAC32020F470400A90EC
:207E2C002078002808BF00212ED0641C14F8010B8DF8080014F8010B8DF8090014F8010BAD
:207E4C008DF80A0014F8010B8DF80B002178002331F07F074FEA011018BF0123039A00F4A6
:207E6C00807700F4C06601F00F016FF30802114347EA010222F4606202A946EA020040EA11
:207E8C00C32020F47040039004A809F028FD40E102A80021062213F012FB601C02A906225F
:207EAC000AF032F9651C01280CBF0021291C207810F0ACFF2DE12678A01C002110220AF0BE
:207ECC007DF928B905F10C00A11C10220AF010F9002104F1120010220AF070F900B10121BB
:207EEC0005F10C08081C06D105F11C0004F1120110220AF0FDF894F8251094F8223094F80B
:207F0C00242003EB016303EB024394F8232005F11C0013EB022318BF6B600090281D019080
:207F2C00627843463146384613F0B4FC29780746262010F021FFEDE00127EBE00227E9E024
:207F4C00002102271BE70CF0AFFEE2E004F11001204613F06FFADCE0D8430020617820781E
:207F6C00A41C00EB0120ADF8080020786178A71C00EB0120ADF80A0038787978BE1C00EB27
:207F8C000120ADF80C0030787178B51C00EB0120ADF80E002878697800EB0120ADF81000A0
:207FAC0002A809F040FCB4E06178207800EB0120A17809F0E1FCACE060782578A41C14F809
:207FCC00016B102205EB0025214602A80AF090F8103461782078A71C082200EB0120ADF8FC
:207FEC00180039460DF11A000AF082F817F8080F02AA012331468DF82200284609F00AFDD0
:20800C0087E060782578A41C14F8016B102205EB0025214602A80AF06BF81034A778E178CF
:20802C002078637802AA00EB016000EB0740314600EB03200690284609F02DFC69E06178CA
:20804C00207800EB0120A17812F0A4FE61E062782178A01C01EB022109F09DFC59E0607891
:20806C002178A27801EB0021384609F09FFB50E08DF8087014F8010B8DF8090014F8010B38
:20808C008DF80A0014F8010B062221468DF80B0003A80AF02DF802A812F06AF839E038469F
:2080AC000CF092FD35E021786278A31C38460CF054FD2EE014F8010B8DF8080014F8010B4C
:2080CC00062221468DF809000DF10A000AF010F8A41D14F8010B8DF81000207802A98DF837
:2080EC00110038460CF0E6FC13E038460EF050FE0FE08DF8087014F8010B8DF8090014F8AC
:20810C00010B8DF80A0020788DF80B0002A80EF0FFFD074638460CB0BDE8F08170B50C46D8
:20812C0005461219521C90B206F05AF850B14FF0FF3113F039F806462246294609F0D8FF2E
:20814C00304670BD002070BD0022FFF7E7BF10B5144600280A46204603D0002A18BF0C2266
:20816C0000D100221946FFF7D9FF10BD0146401F08D0C01F04D0C01E14BF081C42207047E7
:20818C0043207047412070472DE9F04F0F4680463879ADF12C0D0228B8BF4020C0F2A682CE
:2081AC00BC68BE4D627821782B78402601EB022109910022414607921D294FF001020892FB
:2081CC0026DC1D2900F095810C2912DC0C2900F01982891E00F06082891E00F04982891EE0
:2081EC0000F07282891E00F03182891E00F01C8263E20E3900F0E681891E00F06082891E0D
:20820C0000F0BE81091F21D0491F00F0968154E23A2912DC3A2900F08F80303900F0538185
:20822C00891E00F05081891E00F03A81891E00F01181891E00F0E9803FE23C3969D0891ED9
:20824C0054D0891E2ED0891E40F03782801EA41C81B22046FFF778FF0028079000F04382E1
:20826C0001A800903879079A801E83B2002001460DF015FC002840F02F822A78B8F1160FA6
:20828C0004D1099801A906F0F4F803E0099801A906F038F9061C40F01F820398002840F095
:2082AC00AE8119E2801EA41C81B22046FFF74CFF0028079000F0178201A800903879079A7D
:2082CC00801E83B2002001460DF074FB002840F003822A78099801A906F013F9061C40F0CE
:2082EC00FB810298002840F08A81F5E101A9801E009183B20798A41C224601460DF082FB8D
:20830C00002840F0E9812A78099801A906F0F8F8E1E101A9801E009183B20798A41C224625
:20832C0001460DF037FB002840F0D6812A78099801A906F0E4F8CEE1022840F3CD81A778D4
:20834C005FEA07085FD0B8F1060F5CDAB80000EBC70080B213F048FB5FEA000A51D00799A0
:20836C004FEA880202EBC80209F0C0FEB8F1000F08BF079F26D0BB46E41C079F23787BB137
:20838C001B1D641C5FFA83F920464946FFF7DCFE0790002808BF132614D04B46024603E020
:2083AC00641C042322469946B80000EBC70050440090002001460DF072FB4C447F1CBBF18D
:2083CC00010BDBD1B84508D128780090089B09985146424606F04EF80646002E00F07C81CD
:2083EC00B8F1000F09D00AF10804474654F80C0B08B112F006FF7F1EF8D1504613F005FB2A
:20840C006AE1132668E1022666E1801EA41C114683B210462246FFF79AFE0028079000F02F
:20842C00628101A800903879079A801E83B2089801460DF0BFFA002840F04E81099801A9E0
:20844C0005F0FEFF061C40F047810298002840F0D68041E1801EA41C81B22046FFF774FE3B
:20846C000028079000F03F8101A8009008993879079A801E83B200200DF09CFA002840F077
:20848C002B81099801A905F0CDFF061C40F024810298002840F0B3801EE1C046D8430020BC
:2084AC0001A9801E009183B20798A41C224601460DF040FA002840F00F812A78099801A988
:2084CC0005F096FF07E1062840F00681E078A17822796779B8F1300F01EB002102EB072242
:2084EC0003D1099805F03DFFF5E0099805F046FFF1E0C01EE21C81B21046FFF725FE0028A3
:20850C00079000F0F08001A800903879079AC01E83B2002001460DF01AFB002840F0DC808D
:20852C00A2782B78099801A907F09CFC061C40F0D3800298002862D1CEE0C01EE21C81B241
:20854C001046FFF701FE0028079000F0CC8001A800903879079AC01E83B2002001460DF0C7
:20856C00F6FA002840F0B880A278099801A907F0A6FC061C40F0B080029800283FD1ABE092
:20858C00801EA41C81B22046FFF7DEFD0028079000F0A98001A800903879079A801E83B2D1
:2085AC00002001460DF006FA002840F095802A78099801A905F05CFF061C40F08D800298A8
:2085CC00E8B989E0801EA41C81B22046FFF7BCFD0028079000F0878001A800903879079A9E
:2085EC00801E83B2002001460DF02BFA002873D12A78099801A905F0FFFE061C6CD1002049
:20860C00089069E001A9801E009183B20798A41C224601460DF0F6F900285DD12A780998CC
:20862C0001A905F0E8FE56E001A9801E009183B20798A41C224601460DF0ACF900284BD171
:20864C002A78099801A905F0D2FE44E001A9801E009183B20798A41C224601460DF06AF9BC
:20866C00002839D12A78099801A905F09FFE32E001A9801E009183B20798A41C224601460F
:20868C000DF0D3F840BBBDF80410BDF806202B78099805F08EFE1EE001A9801E009183B296
:2086AC000798A41C224601460DF0A6F8A0B92A78099801A905F0E8FD0DE010460BE0099816
:2086CC00194605F0F7FD06E0801EC2B20998A41C214605F016FE0646079820B1089810B160
:2086EC00079812F08EFD3046FFF740FD0BB0BDE8F08F2DE9F04F0F463B79ADF11C0D022B68
:20870C00B8BF4020C0F25583BE6871783278DFF8F882DFF8F0B200254FF00109402402EBAA
:20872C00012A0246511E1D2900F23883DFE811F0290317030903F302D902AF0295025B02C9
:20874C0040022C020C02F801D801B80198016E014F011A010C0136033603D600B700810004
:20876C0073003603510036032D001E009B1EB61C01AA99B230460DF000FA002840F00F8394
:20878C00504612F09FF9044610E3DB1EF01C99B2FFF7DAFC051C00F0098301A800903879BD
:2087AC002A46C01E83B2002001460DF0D0F9002840F0F5824446B2782378504601A907F0A8
:2087CC0051FB041C40F0EB820298002840F0A082E5E2DB1EF01C99B2FFF7B6FC051C00F0A0
:2087EC00E58201A8009038792A46C01E83B2002001460DF0ACF9002840F0D182B278504625
:20880C0001A907F05CFB041C40F0C9820298002840F07E82C3E29B1EB61C01AA99B230462B
:20882C000DF086F9002840F0BA82504612F053F893E201A8B61C9B1E0090324628469BB2CD
:20884C0001460DF06CF9002840F0A9824446A168002900F044824646307800909DF80430E1
:20886C007278504605F006FE041C14D0B26871782F460BE0B80000EBC7001018806818B1C9
:20888C0012F0BFFCB26871787F1CFFB2B942F1DCB06813F0BAF8B5602F4677707FE29B1EA0
:2088AC00B61C99B23046FFF74FFC051C00F07E82387901AA801E81B228460DF013F90028FB
:2088CC0040F06D82504601A911F0F8FF041C40F066820398002840F01B8260E29B1EB61CA0
:2088EC0099B23046FFF730FC051C00F05F8201A8009038792A46801E83B2002001460DF006
:20890C00CEF8002840F04B824446A06840B93C2013F06AF8A060002808BF132400F03F823D
:20892C006178052980F2DB81491CC9B26170491ECAB2910001EBC20140180C2201A909F059
:20894C00D7FB0024A1462AE29B1EB61C01AA99B230460DF045F8002840F02182504611F05F
:20896C00A7FFFAE1B078F1781B1F321D9BB2FFF7EEFB051C00F01A8201A800903A79F17822
:20898C00B078121F93B22A460DF014F8002840F0068244469DF80D00227860B19DF80C005C
:2089AC0020B9504601A905F03DFD08E0504601A905F046FD03E0504601A905F059FD041C75
:2089CC0040F0ED810298002840F0A281E7E19B1EB61C99B23046FFF7B7FB051C00F0E681A4
:2089EC00387901AA801E81B228460DF042F8002840F0D581504601A911F049FF041C00F052
:208A0C008781CCE11CAC0100D843002001A8B61C9B1E0090324628469BB201460CF08AFFCE
:208A2C00002840F0BC819DF808300DF10902584602210DF0E9F8002800F05181BDF804007D
:208A4C00012840F04C81BDF806004FF6FF71814240F0458144462178504605F02BFC7CE189
:208A6C00022B07DD9B1EB61C99B23046FFF76CFB3B790546022B02D0002D00F097819B1E44
:208A8C00284601AA99B20CF0EAFF002840F08781504601A911F0ECFE041C00F039817EE1CD
:208AAC009B1EB61C99B23046FFF74EFB051C00F07D8101A8009038792A46801E83B20020C3
:208ACC0001460CF0BEFF002840F0698144462278504601A905F090FC041C00F019815EE17A
:208AEC00022B07DD9B1EB61C99B23046FFF72CFB3B790546022B02D0002D00F057819B1E44
:208B0C00284601AA99B20CF091FF002840F04781504601A911F09EFE041C00F0F9803EE1B4
:208B2C0001A8B61C9B1E0090324628469BB201460CF068FF002840F03281444622785046C3
:208B4C0001A905F058FC08E1022B07DD9B1EB61C99B23046FFF7F8FA3B790546022B02D0EA
:208B6C00002D00F023819B1E284601AA99B20CF020FF002840F01381504601A911F05CFE69
:208B8C00041C00F0C5800AE101A8B61C9B1E0090324628469BB201460CF0FCFE002840F0FD
:208BAC00FE8044462278504601A905F020FCD4E09B1EB61C99B23046FFF7C6FA051C00F0EF
:208BCC00F580387901AA801E81B228460CF0D1FE002840F0E480504601A911F017FE041C7C
:208BEC0000F09680DBE001A8B61C9B1E0090324628469BB201460CF09DFE002840F0CF802C
:208C0C009DF808306C480DF10904022122460CF0FBFFC0B99DF808306848022122460CF0BE
:208C2C00F3FF30B944462278504601A905F0E0FB93E04446BDF80410BDF806202378504647
:208C4C0005F09CFB89E04446BDF80410BDF806202378504605F085FB7FE09B1EB61C99B20A
:208C6C003046FFF771FA051C00F0A080387901AA801E81B228460CF03CFE002840F08F80A8
:208C8C00504601A911F0B2FD041C41D087E001A8B61C9B1E0090324628469BB201460CF006
:208CAC0003FE00287BD19DF808300DF10902584602210CF0A9FF90B1BDF8040001280ED1F6
:208CCC00BDF806004FF6FF71814208D1444604999DF80C202378504605F013FB3DE002241D
:208CEC005DE09B1EB61C99B23046FFF72DFA051C5CD0387901AA801E81B228460CF0A6FD3B
:208D0C0000284CD1504601A911F058FD041C46D14FF0000943E001A8B61C9B1E009032468E
:208D2C0028469BB201460CF080FD002837D14446BDF80410BDF806202378504605F039FBF4
:208D4C000BE09B1EB61C01AA99B230460CF061FD28BB504601A911F025FD04461FE001A893
:208D6C00B61C9B1E0090324628469BB201460CF043FDA0B944462278504601A905F084FAE6
:208D8C00EBE79B1EB61C01AA99B230460CF024FD28B9504601A911F0FCFCDEE74C462DB192
:208DAC00B9F1000F02D0284612F02BFA2046FFF7DDF907B0BDE8F08F24AC010028AC0100D4
:208DCC002DE9F0430C461546A168DFF854934B780A787028ADF12C0D02EB0322904615DC3D
:208DEC00702800F0CF80801F00F03381001F00F01F81083800F00C81801E00F0F980401E7C
:208E0C0000F0E980401E00F0D98029E1713800F09080401E00F08380401E4DD0401E1AD07F
:208E2C00401E40F01D812079022840F01981404669460EF03DFF041C40F013819DF8000085
:208E4C004A460DF1020182F85E0040465F32FEF71BFD401C61E02079022840F00181104611
:208E6C0069460EF0DAFE041C40F0FB809DF80900002800F0F6800746400012F0B5FD061C07
:208E8C0000F09A804046394632460EF0DEFE041C40F08E80CF4A67B130463B46017802F86C
:208EAC00011B30F8021B5B1E4FEA212102F8011BF4D1780028707BE02079022840F0D080C8
:208ECC00104669460EF0A9FE041C40F0CA80BDF800104A4682F85E10BDF8027082F8607094
:208EEC009DF8080082F86600BDF8046082F86260BDF8063082F86430091282F85F1039124C
:208F0C0082F861109DF8097082F86770311282F86310191282F865100A202870A1E04A46DE
:208F2C0021791078022940F09B8041460EF061FE8DE020790A2840F09380ADF80080CA78C7
:208F4C00887800EB0220ADF8020008794A7900EB0220ADF804008879CA7900EB0220ADF861
:208F6C000600087A8DF80800487A00280CBF0020C9484A46039010788DF8090068460EF005
:208F8C0015FE64E02279022A6ADD881C921E91B2FFF7DAF8061C0FD0ADF8008020790196AB
:208FAC00801EADF8080068460EF092FE041C58D0304612F02AFD54E0132452E0227905A852
:208FCC0004F0DDFD041C4CD1BDF81400BDF816100EF004FF3BE02079052841D18B7808795E
:208FEC00CA78194602EB002240460EF0D1FE2EE02079062834D1CA7888784F790E7900EB0C
:20900C0002234046194606EB07220EF096FE1EE02079891C801E82B205A804F0B9FC041C0A
:20902C001FD14A461278404605A90EF008FF0EE02079891C801E82B205A804F0D4FC041C52
:20904C000FD14A461278404605A90EF0EEFE044607E02079022803D110460EF0ACFEF6E749
:20906C00012420460BB0BDE8F0837FB50546002468688DF8004010F8011B8DF804104278D7
:20908C000178801C01EB0221ADF8061010F8012B03908DF80820C811401E23D0401E1BD0FE
:2090AC00401E13D0401E0AD0401E18BF012620D101F07F006A4601A9FEF782FD18E001F0B7
:2090CC007F006A4601A9FEF7EDFD11E001F07F0001A9FFF759F80BE001F07F0001A9FFF77F
:2090EC0008FB05E001F07F006A4601A9FFF768FE0646284608F0DFFF094906257F2081F831
:20910C00595001F158021070BDF8063081F85B309DF8005081F85A60181240F0FC0001E090
:20912C00D843002081F85D509DF8003081F85C00981DC1B2FF2012F037FF204600907FBD77
:20914C0010B5817961B3891E22D0491E1AD0891E12D0491E09D00C3918BF012023D10289C1
:20916C00817A104604F080F810BD037A817AC268184603F05EF910BD027AC168104603F054
:20918C0088F910BD0289C168104603F031F910BD84688189827B0369204603F0FFF810BD05
:2091AC00806803F0D1F910BD0246907970B1401F08D0401E18BF01200BD1107A917AD26887
:2091CC0010F022B9107AD16810F05EB9906810F079B970473644002038B50D4601468879CB
:2091EC000024103823D0401E1ED0401E18D0401E11D0401E0BD0401E18BF01241BD1088923
:20920C008B7ACA68194606F0D3FD044613E0886810F08DFA0EE00889897A10F082FA09E04B
:20922C00087A05F02DF805E004F0EAFFEDE7087A10F074FA2C70204638BD70B50E46014649
:20924C00887915460024001F22D00C381DD0401E12D0401E0DD0401E012808D9801E012896
:20926C0016D9801E18BF012414D10A2008E0022410E010F0AFFC03E00889897A10F080FCAE
:20928C00B74935460870012003E0087A10F008FD20462870204670BD3F70000008B50A46F7
:2092AC008179102905D1007A12F0C2FA0020107008BD012008BD2DE9F84308AF3E78814691
:2092CC00984615460C4606F10C0080B208F0DEFE071C16D08020387087F8018040F27F6389
:2092EC007B809F49BC803246BD7107F10C00FE7107F10C03BB6008F0FBFE4846394608F012
:20930C00BEFFBDE8F8832DE9FE43044600250120A688A7798DF8055094F802808DF80400BE
:20932C00311C1BD0491E12D0491E0BD0491E05D0491E17D12046FFF703FF13E02046FFF726
:20934C0033FF0FE0204601A9FFF746FF0AE020460DF1050101AAFFF770FF03E0204601A93E
:20936C00FFF79CFF8146204608F0A5FE9DF8040040B19DF8050031463A464B4600904046C6
:20938C00FFF799FF2846BDE8FE837CB5401E15460C4616D0401E08D0401E44D0401E3ED069
:2093AC00401E2BD0401E19D016E0207A617A0546FEF7E2FB002836D1E26828460EF0B1F8EB
:2093CC007CBD207A617A0546FEF7D6FB58BBE26828460EF0FDF87CBD01207CBD4FF6FF70BD
:2093EC00ADF8000007F004F80222ADF8000069465B482A7008F07CFE00207CBD12F0F6F958
:20940C000423654A2B70010A82F85F1082F85E00060C82F86060040E82F86140ECE7A068AF
:20942C00FEF7BEFB7CBD02207CBD30B511280B461546ADF1140D03D9303808280BD93DE0E0
:20944C00DFE800F09D3C3C98949088817D79736E69645E57524EDFE800F0280D3E3A0537D6
:20946C00353335C0187A0BF015FC039050B3042203A914E04FF6FF741889ADF80840FF281C
:20948C0007DA262805D0272803DA0FF083FCADF80800BDF80800844214D0022202A93048B7
:2094AC002A7008F025FE002073E01889262809D0272807DA59890FF05FFC6AE0012068E091
:2094CC0000202870022064E00BF0EEFB61E098680BF0A0FB5DE09868D96811F0ABFF58E046
:2094EC00986808F0A0F954E01889997A08F044FA4FE01889997ADA681B7C08F08BFA48E050
:20950C001889997ADA6808F0C6F942E01889997A11F040FC3DE0D868198908F03CFA38E03A
:20952C009868D96808F0DBF933E0187A59891A7B08F03CF92DE0986810F01AFE29E0187A09
:20954C000BF042FB25E0187A597A9A7ADB680BF004FB1EE0187AD9680BF0ACFA19E0C0469B
:20956C0036440020187A0DF013FC12E098680DF0CFFB0EE0187AD9680FF048FC09E0186980
:20958C00009058690190597A9A7A187ADB6812F081F905B030BDC046D843002098B5074628
:2095AC000846037CC16804893A461D2A9C4621DC1D2A7FD00C2A12DC0C2A00F09580921ED1
:2095CC0000F0B080921E00F0A580921E00F09B80921E00F09380921E00F08B8031E00E3A28
:2095EC007DD0921E76D0921E6FD0121F2BD0521F66D026E03A2A0CDC3A2A13D0303A4BD03C
:20960C00921E49D0921E42D0921E3CD0921E36D017E03C3A2ED0921E27D0921E20D0921EDF
:20962C0011D00EE0C77A57B1062F08DACDF800C0C1683A460123204604F01CFF98BD0220B1
:20964C0098BD012098BDC168162F04D120461A4604F00FFF98BD2046624604F053FF98BD2A
:20966C0020461A4604F04DFF98BD20461A4604F047FF98BD20461A4604F041FF98BD204679
:20968C0004F0DEFE98BD204604F0CCFE98BD20461A4604F0ADFE98BD41898289302F04D15D
:2096AC00837B204604F05DFE98BD837B204604F065FE98BD437C6246204606F0D3FB98BDA0
:2096CC0020461A4606F0FBFB98BD20461A4604F0CFFE98BD2046194604F0ECFD98BD20463E
:2096EC001A4604F089FE98BD20461A4604F083FE98BD20461A4604F07AFE98BD20461A4651
:20970C0004F054FE98BDC168827A037C204604F0F8FD98BD0B884A8820461946634604F093
:20972C0048FE98BD20461A4604F0AEFD98BD0246CB680889511E17D00A3912D0891E0DD0BD
:20974C00891F09D0891F05D0491F18BF01200ED111F0B8B911F0BFB811F0AAB8194611F013
:20976C0079B8194611F068B8194611F012B8704780B507460846394670290CDC702933D0DF
:20978C00891F50D00C3947D0891E3ED0491E35D0491E2DD009E0713922D0491E1AD0491ED7
:2097AC0012D0491E09D0491E01D0012080BD0289C16810460EF07CFA80BD0389817AC26879
:2097CC0018460EF042FA80BD0289C16810460EF024FA80BD027A418910460EF00AFA80BD6A
:2097EC0080680EF0E3F980BD80680EF071FA80BD0289418910460EF0F1FA80BD0389817A78
:20980C00828918460EF0C4FA80BD03894189828918460EF092FA80BD0389C168027C1846C3
:20982C000EF00DFB80BD00890EF0C5FA80BD10B50446C4F3C21048B1401E1DD0401E16D036
:20984C00401E0FD0401E08D0401E01D0012010BD04F07F00FFF799FD10BD04F07F00FFF737
:20986C00E4FD10BD04F07F00FFF798FE10BD04F07F00FFF75CFF10BD04F07F00FFF778FFF1
:20988C0010BD80B5074641F20300B8421EDBB84200F00C81A7F21D40002800F02081A0F28C
:2098AC00E470002800F01781801E00F011812A3800F00981363800F00281A0F29E30002833
:2098CC0000F0FA80401E00F0F48040E0801D3F1A00F0E980B7F57F7700F0E180A7F6FC371E
:2098EC00002F00F0D880BF1E00F0D2803F1F00F0CC80083F102F05D94DF6F2303F1A1F2FBC
:20990C0013D924E0DFE817F0BE00BB00B600B1002300AD00A900A500A00023002300230076
:20992C0023009D00990092008F00DFE807F0787410106F6B67625F5B5854504D10104910B8
:20994C0045403B10362F102B26221E101912012080BD8868CB680A6919460EF0D2FE80BD8C
:20996C00087A897A12F01CFB80BD087A0EF0B9FF80BD08890EF0CCFF80BD087A498912F09E
:20998C000BFB80BD087A12F003FB80BD08898B7A8A8919460EF0CEFF80BD087A498912F053
:2099AC00F3FA80BD0889C96812F0EAFA80BD0889897A12F0E1FA80BD088912F0D9FA80BD3B
:2099CC00087A12F0D1FA80BD12F0CAFA80BD088912F0C2FA80BD886812F0BAFA80BD12F07B
:2099EC00B3FA80BD087A12F0ABFA80BD12F0A4FA80BD087A897A12F09BFA80BD087A12F051
:209A0C0093FA80BD886812F08BFA80BD8868C96812F082FA80BD087A12F07AFA80BD087A29
:209A2C0012F072FA80BD12F06BFA80BD087A4B7A8A7A19460EF01EFF80BD087A0EF023FF27
:209A4C0080BD12F059FA80BD8868C96812F050FA80BD08890EF0F9FE80BD088912F044FAED
:209A6C0080BD886812F03CFA80BD087AC96812F033FA80BD087AC96812F02AFA80BD12F001
:209A8C0023FA80BD12F01CFA80BD12F015FA80BD12F00EFA80BD88680EF04EFF80BD08896D
:209AAC0012F002FA80BD12F0FBF980BD12F0F4F980BD0EF01CFE80BD0EF05AFF80BD886827
:209ACC000EF0EAFE80BD0889897A12F0E1F980BD0EF0FCFD80BD886812F0D6F980BD0889E7
:209AEC0012F0CEF980BD2DE9FE430446012000253F218DF80400A679A778A0888DF8055044
:209B0C008046B1EBA82F02D1C8F3C21119B92146FFF7B7FE05E021460DF1050201ABFFF7C8
:209B2C0086FE8146204608F0C6FA9DF8040040B19DF80500414632464B4600903846FFF7F8
:209B4C00BAFB2846BDE8FE83554A2DE9F04110780C46E10BC9030CD1E00B07D30420121D43
:209B6C0001460DF0DEFC84F4804453E00020BDE8F08108F0F3FA071C4AD0DFF81C81474DEC
:209B8C00D8F80010012649B12878B1F1FF3F06D008F075FB40464FF0FF3101602878397853
:209BAC00891E32D0491E07D07E3925D0491E1FD0B1F1110018D013E0D7F80C80388912F004
:209BCC005BF9F86040B13A89414608F091FA2878394608F054FB0026404611F016FF0FE0F8
:209BEC003846FDF76AFF0AE03846FFF73EFA06E03846FFF788FB02E03846FFF774FF0646F6
:209C0C0036B1384608F057FA02E0394608F037FB84F40044A0B2BDE8F08110B50C4601467D
:209C2C002046491E07D0491E02D011F0D1FA10BD04F0D6FA10BD1946029B1446024620460D
:209C4C000FF09EFE10BD10B504460846012C114602D10FF0D1FE10BD11F0D3FA10BD10B5E1
:209C6C000F4C20700FF05AFD207804F009FB207802F03AFB0220102104F10C020DF0A8FC51
:209C8C000320102104F11C020DF0A2FC0420221D01460DF09DFC10BD0C480020B448002019
:209CAC00D84300202DE9F84FDFF8044BDFF8045B2070072100206861DFF8FC0A01700D2187
:209CCC0041804FF404718180DFF8F00ADFF8E01BA9618A7E0270FF2ACB7E437008BFFF2BC1
:209CEC000E7F86704F7FC77091F81EC080F804C0C97F417116D1FF2E08BFFF2F12D1BCF19A
:209D0C00FF0F08BFFF290DD1DFF8A81B0A7802704A7842708A788270CA78C2700A790271FC
:209D2C0049794171DFF8901B02780A7000234278DFF85C8CDFF85C7CDFF880EB4A708278EC
:209D4C008A70C278CA7002790A714079DFF8482C4871FF20DFF8681B087048708870C870FD
:209D6C0008714871111D0B708B725A32A0238B81087103238B7348710723CB7388710023CA
:209D8C000B74C87128234B82087201230B75487200238B75537001234B751370002200237D
:209DAC00DFF8F81B0B7501230A71CA814B75CB824FF420720023087248728872C87208735B
:209DCC0048730A824A820B83DFF8681C087248728872C872087348730B7101208873CB7307
:209DEC0005200A824A828B828875DFF8B41B0B80D8F82C30DFF8AC1B587808701978397053
:209E0C009A782A709E683679761E8EF80060DB78DFF8946B6B704FF4967333801B261B23D9
:209E2C0092FBF3F306FB132202B10122D218504328814FF0180AC81C0AFB00F080B211F004
:209E4C00D3FDDFF8686BB060002800F09C803878002800F09B804FF49071484380B211F053
:209E6C00C3FDDFF8D49BC9F8040008B9B06888E03878800111F0B8FDE86020B900F0D9F801
:209E8C00D9F804007DE0387811F0AEFD286128B900F0CFF800F0C9F8E86872E038780AFBFF
:209EAC0000F011F0A1FDDFF894ABCAF8000038B900F0BFF800F0B9F800F0B4F8286960E089
:209ECC003878DFF87CBB400111F08EFDCBF8000050B900F0AEF800F0A8F800F0A3F800F07E
:209EEC009AF8DAF800004CE03878000111F07CFDDFF8501B086060B900F09BF800F095F8D8
:209F0C0000F090F800F087F800F088F8DBF8000037E03878000111F067FDDFF8C81B0860BC
:209F2C0080B900F086F800F080F800F07BF800F072F800F073F8DBF8000011F066FDDFF8E0
:209F4C00040B1DE038783021484311F04DFDDFF8CC1B0860D0B900F06CF800F066F800F0D1
:209F6C0061F800F058F800F059F8DBF8000011F04CFDDFF8D00A006811F047FDDFF8640B3A
:209F8C00006811F042FD4FF480413FE000F0A1FA074609F07CFD11F06BFFDFF8C40B006926
:209FAC000068804711F060FF11F05AFFDFF8B40B002101600160C160C16009F0B5FB11F047
:209FCC0005FCDFF8A41B40F2FF70086011F044FF064611F041FF864208BF11F039FFD8F86C
:209FEC000C00697800880843DFF8801B08803846DFF8481C0968884700F066FA2078002199
:20A00C0011F0DEF900F0CDF84FF400512078BDE8F44F08F077B9286911F0F7BCDAF8000054
:20A02C0011F0F3BCE86811F0F0BCD9F8040011F0ECBCB06811F0E9BC30B50C46E00785B0D8
:20A04C0013D511F001FF38B100218160DFF8F00B0068010018BF8047DFF85407007800217C
:20A06C0011F0AEF984F001008FE0DFF84817DFF8C839C86825074FF490721ED5DFF8B41902
:20A08C005B68497D02FB013500EB8110002104910022E98E09090391A98E0291698E490875
:20A0AC00019100F13401009190F83030A979002011F0C6FE84F0080067E0E5060ED50020AB
:20A0CC0004900390029001900090024601460023022011F0B5FE84F0100056E0A50707D5D0
:20A0EC0000F055F83C2011F0ABFE84F002004CE065071ED509795B6802FB013200EB81101F
:20A10C00911D12F82C3F049353891B0903938B8B0293D2885208019200F134020092012215
:20A12C0090F830300978002011F08AFE84F004002BE0200607D500F02AF83B2011F080FE90
:20A14C0084F0800021E0A00508D5DFF8440C016841F00041016084F4007016E0600504D5FD
:20A16C0011F0C4FC84F480600FE0600405D5812011F062FE84F4804007E0A00443BF4FF087
:20A18C00FF30486184F40050002005B030BD002004900390029001900090014600230122CA
:20A1AC007047F8B509F09AFBDFF8980ADFF888680068DFF8E07780470446002009F010FD94
:20A1CC0040F2014011F034FEDFF894090069C068804711F049FEDFF8B807DFF8B81BC06A4F
:20A1EC0080684079087001F0A5FEDFF8AC0B11F01BFE11F015FE11F00FFEDFF8A00B002139
:20A20C000170017141718171C171017241720022DFF8840700F10E010A70A0224A800722A0
:20A22C004A7103220A7100220A738A7200F8592F0122CA720021427081700020DFF85C170F
:20A24C0088730546DFF8EC17C8730BE070684FF4907101FB05004179012908BF01F03CFABD
:20A26C006D1CEDB238788542F0DB11F0D1FD10F0F5FC01F063F8DFF8281B00200870DFF8D3
:20A28C00241B08700120DFF8201B08700020DFF81C1B08700120DFF8181B08700020DFF810
:20A2AC00141B0870DFF8101B0870DFF8101B0880DFF8141D087009F04CFB00F099F8002086
:20A2CC00F2BD2DE9F0411446DFF8C85608B12A780270DFF8648711B198F801000870002CA7
:20A2EC003DD0002600271CE0C9B2DBB2085502F1300001791955591C427900F033F8827946
:20A30C0000F030F8C27900F02DF8027A00F02AF8427A00F027F80078C9B24E1C08557F1C1B
:20A32C00FFB2287887421ADA384611F06DFD0028F5D1D8F804004FF49071F6B201FB070069
:20A34C00DFF87014C968375501EB871200680078711C4B1C80280CBF00200120C4E7002001
:20A36C00BDE8F081C9B20A55491C704738B504460D4611F049FD48B9DFF83804C068A10116
:20A38C0008580A21B0FBF1F02880002032BD38B505460C4611F038FD48BBDFF89C06DFF8D0
:20A3AC0014244068D26800F0BCF8811D0B7802EB83153CB1CB8D898D5B1C4900E200594394
:20A3CC008A4201D2122032BD0A216143296090F8920058B100F07DF80446002068712868FE
:20A3EC004108A87910F029F800F002F8002032BDDFF848180968204608472DE9F8435FEAD6
:20A40C000109144618BF002C06461D4600D00DB9122057E011F0F8FC002853D100F080F971
:20A42C0001FB060630680078802818BF0C2049D106F1E307B87DC00758BF112042D5B87CC3
:20A44C00012808BF3A203DD000F043F880460120B874002010F809108219401C082882F879
:20A46C00AC10F7DB06F1B40021780170617841700020415D321A401C102882F8E210F8DB26
:20A48C0006F1A40011F0BCFC06F1980011F0B4FC00F01AF8002086F866003870787096F8F8
:20A4AC009200012802D178730A2102E0002078730321304611F09CFCDFF880170968404667
:20A4CC0088470020BDE8F2830C21DFF8580C11F08BBCDFF870070068004738B50C00054676
:20A4EC0001D1122032BD11F08FFCB0B900F016F801680978402901D00C2032BD00210A5DA3
:20A50C00431A491C102983F8E220F8DB012180F8E410052101F078F9002032BDDFF81805CB
:20A52C0040684FF4907101FB0500704710B5044611F06AFCA0B900F0E6FA402901D00C2066
:20A54C0010BD00F1F0010A78012A03D106220A77022102E006224A700D2101F055F90020A2
:20A56C0010BD10B5044611F04FFCF0B900F0BFFD00F1F8010A78022A06D1817900F1F902FD
:20A58C0000200DF030FD0FE002681278802A08BF082107D0402A07D14978090701D41120F8
:20A5AC0010BD0E2111F024FC002010BD10B5040001D1122010BDDFF88004407808B10C20F3
:20A5CC0010BD00F0BBFE2078DFF85C1B00F01F0020704A7810404870002010BD38B50D00C3
:20A5EC00044606D0DFF8A803C06A80680079844201D3122032BD09F081FA032803D020468F
:20A60C0001F0DDFC02E0DFF88C07047001202870002032BDDE49C96A89680979884201D371
:20A62C0012207047A54908700020704710B5140018D011B1012908D014E001F0D9FC10F1A8
:20A64C00800F20700CD1302010BDD148C06A80680168007900EB4000401810F8030C20709E
:20A66C00002010BD122010BD2DE9F0410C0082B0074690461D4628D0DFF8B06A30784045C1
:20A68C0028D3384611F0C0FB002847D100F048F801FB070706F069FB1B2298FBF2F21B23B3
:20A6AC0003FB128303B10123318910181818814204DA012011F094FB07202FE030781C289D
:20A6CC0014DA002D18BF012D01D0122026E0B8F11C0F04DB8A2011F0AFFB30201EE02B467E
:20A6EC0042462146384611F077FB13E042462146384601F0D1FA88B9204610F082FDB879FB
:20A70C00ADF800000DF102020120ADF8020000A90DF0A0FC384601F07DFB0020BDE8F68159
:20A72C00DFF80C0A40684FF49071704770B50646282E01DB122070BDDFF88C48207808B17F
:20A74C00212070BD09F0CAF8DFF81454286980688047700000F6621189B2002011F038FBDD
:20A76C00DFF8D00940F6070101804060002141808160017B01F060010173417B01F0F0011B
:20A78C0041F00201417302218173DFF8AC19016100214161C17B01F0F00141F00101C17368
:20A7AC000C212170296989698847002070BD0000844C0020F84700208C4C00206C4C002010
:20A7CC002DE9F04104460D46282CB8BF262D16460FDA002E18BF012E0DD0022E18BF032EDD
:20A7EC0009D0042E18BF052E05D0062E18BF072E01D012205AE0DFF8D08798F8000008B16F
:20A80C00212053E009F06AF8DFF83079DFF8301941F60A0038800022002078807F60B86093
:20A82C00387B00F060003873787B00F0F00040F00200787360006630B8738020F873DFF86B
:20A84C000409386179610280857040F6C4124260C670027A02F0FE02027200224272C26037
:20A86C00C27A02F0F00242F00102C272002008800021DFF8D4088180C180047080214570BB
:20A88C00867001720D48B64C007801F098FB092088F8000000222369DFF8B0085B68002126
:20A8AC00984721698969384688470020BDE8F081B63F0050E81200507C4C0020854C002046
:20A8CC00744C002070B50446282C01DB122070BDDFF8F456287808B1212070BD08F0FEFFB1
:20A8EC00DFF85868DFF86818766041F609003080716100207080B0600022307B00F0600089
:20A90C003073707B00F0F00040F00200707360006630B0738020F073DFF838083061026082
:20A92C000F22027101224271DFF80C288260552202734273827300220261C27B02F0F00268
:20A94C0042F00102C2730020088048808880002280208871002088600021DFF8EC074170AA
:20A96C00FF218170047000218180C18080217C4C01720A20287000212369DFF8D0075B6827
:20A98C0098472169896930468847002070BD0000ECC90100BC4C0020EC490020944D00208A
:20A9AC00984C00208B4C0020964C0020F44E002070B5DFF814462078092818BF0A2801D033
:20A9CC00212070BD40F2024011F032FA2078DFF8781709280BD1DFF8680700888880DFF8A4
:20A9EC00B403007801F0EBFA0021002017E00A2817D1DFF85C27538810889688CB801D1889
:20AA0C0075198D809279802A18BF812A0FBF7F22DFF8443793F90030D21A0A72012111F050
:20AA2C00D3F911F021FA0020207008F092FF002070BD0000584E0020B04C002074480020DE
:20AA4C00784800200C4F002038B5DFF87C45207808B1212032BD08F041FFDFF8E056DFF86D
:20AA6C00E026297B6D6001F0E00141F08501297341F60A00697B288001F0F00141F002014B
:20AA8C00697300206621A97368808021E97340F6C410DFF8B016A86029616A614860012356
:20AAAC00087A0B8000F0FE0008722523C87A8B7000F0F000002340F00100CB704B72CB6039
:20AACC00C87213800D2020700022254CDFF88C0623695B68114698472169896928468847A6
:20AAEC00002032BD1C4F002010B5044611F08CF940B900F008F880290CBF0021102100F07C
:20AB0C0083FE002010BDDFF8280640684FF4907101FB04000168097870470000104F0020AA
:20AB2C0038B505460C4611F06FF9B8B9FFF7F6FC00F1F9010A78520703D40F220A75072148
:20AB4C0009E0DFF8E815C96801EB85110F2201F8242F4C70112100F057FE002032BD0000BA
:20AB6C002C4F00201010044000000460944C00202DE9F04180460D4640F67B40A91F1646F1
:20AB8C0081423CBFB11F81421F4611D2AE420FD3B7F5FA7F0CDA069CA4F10A0140F6774202
:20ABAC0091423FBF781C71004843B0EBC40F01D3122041E0404611F027F900283CD1FFF7C1
:20ABCC00AFFD01FB0800DFF86415C96800F1770201EB881113792BB11378002B1CBF0F2B16
:20ABEC00102B02D0527A012A01D13A2024E002681278402A05D190F8F920920758BF11205F
:20AC0C001AD500F182028D81CE810F824C820223937000239380838ED680DB1D1380178120
:20AC2C0054810122CA7190F8F910890754BF00210F2111F0DDF80020BDE8F0814448002098
:20AC4C00C44C002040480020F8B5DFF87C432178092918BF0A296CD00B291CBF0C290D2942
:20AC6C0067D0DFF8FC54A97C002918BF012904D003291CBF022904290ED12A79002A18BF65
:20AC8C00012A09D1032918BF022902D12B8AA02B7CDB00284BD0012878D1A87B012848D0B2
:20ACAC0000291CBF0129042914D1DFF8B804007800286BD0DFF878144978814201D10920F8
:20ACCC00F2BD36480278011D802001F00BFA08B10B20F2BD01200FF0DAFF286000260120B2
:20ACEC00A87308F0FBFD11F06BF8DFF87C04182101FB0607387B40F080003873A87C0128E5
:20AD0C0007D026B911F0A8F800F5C87000E00020B860761C032EE8DB207830B9A97CDFF888
:20AD2C004C04085C207011F047F80020F2BDA87B08B92120F2BDFFF7CCFB064611F038F8A6
:20AD4C00012804D011F080F82968884207D108F0C5FD40F2024011F06BF8012700E000277D
:20AD6C000020A873286808F03BFF284611F01CF8207810B908F0EDFD02E00FB111F01CF84D
:20AD8C00DFF8EC13096830468847CEE71220F2BD04000940B94C00208C4A00209C4C002015
:20ADAC00864C0020BA4C0020874C0020884C0020BB4C0020894C00208A4C0020BE4C00204C
:20ADCC002DE9F14FDFF8AC7382B0F87B01280E469246984611D004200FF086FF01281EBFB4
:20ADEC00DFF894030078092807D00A2818BF0B2803D00C2818BF0D2801D12120E2E0BDF880
:20AE0C00081043F6FD70091F81423CBF311F81424AD2BDF80800B04246D30C9DBAF1000F28
:20AE2C0003D0BAF1010F3FD101E0002D3CD0B8F1000F18BFB8F1010F36D10D9C002C18BF53
:20AE4C00012C31D11399129881422DD30E9840F67B41821F8A423EBFDDF83C90A9F1060259
:20AE6C008A4221D281451FD3BDF84000B0F5FA7F1ADABDF844100A3940F67742914213D255
:20AE8C00401C4FEA49014843BDF84410B0EBC10F0AD210F085FF012808BF3A2005D0BAF19E
:20AEAC00000F08BF002D01D112208BE000F0AEF95FEA000B08BF0920F7D09BF806007875EC
:20AECC0042469A489BF80610C06800EB811000902946BDF8080038827E8287F814A04020A6
:20AEEC0001F000F908B10B206CE00BF16101584601F08EF80BF12406B07D022803DA5846C1
:20AF0C0010F04AFFD0E7002C0CBF9C489C483C71BAF1000F01783972417879728178B97213
:20AF2C00C178F97201793973407978731ED195482978017169784171A9788171E978C1717F
:20AF4C00297901726979417200992A7830310A716A784A71AA788A71EA78CA712A790A72AE
:20AF6C006A794A7280F8008081F8008010F010FF706010F009FF3060A6F80E90BDF8440089
:20AF8C007082BDF840003082B87D30720220B0720520F07504200FF07AFE38600120F873A8
:20AFAC0008F09CFC9BF8060010F0EAFE7248007838B9787D10F0E0FE6F490620087010F028
:20AFCC00FBFE0020BDE8FE8FB84C00202DE9F041040008D02079E021084204D1204610F0B4
:20AFEC00C7FE012801D0122036E000254FF490784F4E5C4F01E06D1CEDB2387885420DDA1F
:20B00C0000F02CF8F7D17730017911B10178012902D0C07D0128EED13A201DE0002517E058
:20B02C0000F01CF802BF0168097880290ED100210A5D0B18491C052983F86120F8DB818EB1
:20B04C00C91DA0F89010012110F0D2FE6D1CEDB238788542E4DB0020BDE8F081706808FB65
:20B06C00050041790129704770B5017841F08F010170FF260379C27844798578467043F0D6
:20B08C00C003037142F0200243F03F03C270037144F00104447145F03F0542F0CC0244F063
:20B0AC0002038570C270437141F07001017042F01001C17045F0C00241F003018270C170CE
:20B0CC00002070BD10B11A49497801700020704770B504460D46164610F096FE30B900F05F
:20B0EC0006F800F58E7005704680002070BD104840684FF4907101FB04007047224B10B1A2
:20B10C00012803D00CE0198000207047188810701888000A507047209070AE20D070F3E7F2
:20B12C0012207047E84E0020D04E0020F8470020B04C0020404E002029417671284E002076
:20B14C00204F0020A84E0020DC4E002002000080C44E0020844E0020C04C002001000080A1
:20B16C00EC490020BC4C0020244C0020C0D9001044480020584E0020B84C00206C4C00209F
:20B18C00744C00209C4C0020984C00202DE9F843099D002600274FF6FF7835F817404445AA
:20B1AC001CBF761CF6B27F1C062FF6DB00270DE00CF1010C5FFA8CFCE646B64505DA35F89B
:20B1CC00179035F81EE0F145F2D1E7B2B74208DA35F81740444504D0A14202D37C1CA44609
:20B1EC00E8E7B7420DD176B1884202D04BB1994207D30898114610F0B7FD47F6FF71884207
:20B20C0001DB012000E00020BDE8F2832DE9F843DFF8BC0CDFF8BC9C017899F80000884218
:20B22C0000F0898000204FF4907301E0401CC0B2884280F28080D9F8042003FB002808F1A4
:20B24C0004063278002AF1D1DFF8E41C0968B0700122327001EB8011002208F16104727036
:20B26C0001206071E072B280F280307388F8392008F18E007261327672830270E277002379
:20B28C0001F12602FF25937508F1E8078023E37400236375A37615707B76BB76FB763B779C
:20B2AC00FB833B8488F80B31037108F1E3000370437008F587703B607B60BB723B733B7221
:20B2CC007B73BB73FB73038043808380C38047F2305008600B714B718D7193729373D373A4
:20B2EC00137453749374D374FF22042108F1770010F0E2F825706570A570E5701F20207172
:20B30C000020DFF8001D421800EB0803527883F8F920401C0828F6DB0020387499F80000A5
:20B32C00401C89F80000C0B2012804BFB07889F80200404600E00020BDE8F28310B5DFF8DF
:20B34C00C44C0821601C10F0B6F8607840F01F00607010BD70B50446092010F001FDE8B18B
:20B36C0000F0E7F800F03CF806F8010B04F1F901DFF8940C0078082818BF0E2030700822E7
:20B38C00701C06F0B5FE94F8920008B100F066FF08F0B4FB00F042F89847012070BD70B51D
:20B3AC000446092010F0DCFCC8B100F0C2F800F017F830700822092006F8010F04F1F90124
:20B3CC00701C06F095FE94F8920008B100F046FF08F094FB00F022F8984700F03FF870BD7C
:20B3EC000A30C0B2E880002105F108062960297169710320704738B50446012010F0B0FC2D
:20B40C0058B100F02FF8122000F023F808F076FB00F004F8984700F021F832BDDFF8EC3B99
:20B42C001B69DB6C0246A06E2946704738B50446012010F095FC58B100F014F8132000F0A8
:20B44C0008F808F05BFBFFF7E9FF984700F006F832BD03F8010F204610F07EBC0020E083CA
:20B46C0001207047A0F10905002028602871687105F108030620E8800122032018700321AE
:20B48C0070472DE9F0418046082010F069FCA0B308F19006A0F10905B07800B10420093098
:20B4AC00C0B2E880002105F10807296029716971032038700522012007F8010F08F1610106
:20B4CC00781C06F015FE08F108043088218808183080B8713088000AF871B07828B13B46B7
:20B4EC0008220321404610F037FC08F007FB00F0B8F8206E294698470120BDE8F08170B567
:20B50C000446182010F02CFC002811D000F011F800F061F80F2000F02DF810B1182200F0FB
:20B52C009FFE08F0EBFA00F04EF89847FFF796FF70BDA0F1090594F8920000B1042070476F
:20B54C0070B50446182010F00BFC002811D0FFF7F0FF00F040F8102000F00CF810B11822FC
:20B56C0000F07EFE08F0CAFA00F02DF89847FFF775FF70BD03F8010F308C5870308C000AB7
:20B58C009870308CD870308C000A1871708C5871708C000A9871B08CD871B08C5972000ADA
:20B5AC0018729972FF20187358739873D873187458749874D874187558759875D875D97270
:20B5CC0094F892007047DFF8B03C1B69DB6C02463068294670471930C0B2E880002105F1BC
:20B5EC0008032960297169710320187004F16806704770B50446032010F0B2FB80B3A51D3E
:20B60C00DFF8781C2A780968A0F1090694F8920001EB821100B10420001DC0B2F08000226D
:20B62C0006F1080332603271727103201870112003F8010F01F124000178597040789870E5
:20B64C0094F8920010B1032200F00AFE08F056FA00F007F8A06E314698470020288301205B
:20B66C0070BDDFF8143C1B69DB6C02467047F8B505460E46DFF8084CDFF8907908E0007AE7
:20B68C0003281CBF481C20703969A86E496D88473969A86E096E8847217810B10279032A67
:20B6AC00EDD0DFF8E00B00781C2814DA99B1DFF8D80B0078814205D2012E0CD1DFF8CC0B85
:20B6CC00007840B1A879ADF80000ADF8021000F076F800202070F1BD2DE9F8430446DFF84A
:20B6EC005008A1790068DFF8247900EB811600F0EAFB8046002008F073FAB079DFF8806B63
:20B70C000EF0CBFEA06E00B306E0007A00F051F83969A06E496D88473969A06E096E8847D1
:20B72C000028F2D13969A06E496E8847054606E0287A00F03EF828460FF063FD2D68002D54
:20B74C00F6D13969A06E096D8847206FA0B13969096E88470546A946D9F8080020B10FF076
:20B76C0050FD0020C9F80800D9F80090A945F3D13969206F096D8847DFF8080B00781C2858
:20B78C0008DA307840B1A179ADF80010ADF8020000F015F800203070204610F0FDFA20462C
:20B7AC0010F002FBDFF8E81A096840468847BDE8F183032802D03078401C307070470DF172
:20B7CC00020200A901200CF045BC70B5044600F07AFB04F17601FF234A79521E4A71D2B2BE
:20B7EC000AB94B7008E0002215197735521C6E782E70032AF8DB0B7100220A70BDE870407C
:20B80C00DFF88C1A0968084738B50446DFF8840A00680D468047002204F176010A704D70FC
:20B82C004A790AB901224A71BDE83440E8E72DE9F04705460C464FF49078DFF85CAA002777
:20B84C00012624E006EB0509DAF80400715D19F8012C08FB010108FB02000968006849683C
:20B86C0040688968806810F073FA01280ED119F8010C715D484009F8010C3746715D484071
:20B88C00705519F8011C484009F8010C761CA642D8DBFCB2002CD2D1BDE8F0872DE9FE4FEA
:20B8AC000446DFF88C0600688946A17900EB811A20684768B868494610F04AFA002840F070
:20B8CC00CE8020680169484610F03EFA04F1800680463078002804F12E0540F6C41B68D0D0
:20B8EC002189708810F040FA02903078029902280CBFBAF82A00A888484301900BFB00F078
:20B90C0000902068009900690918484610F020FA00284ED000983289A8EB00010BFB02F310
:20B92C00B1FBF3F003FB101101B1401C02FB00F12289029B9A1880186081F28801981018A3
:20B94C0001EB00093078012844D104F18401204610F0F6F97089E189608400202077E083D0
:20B96C0060890818A081A9883089884202BFB1892A89914202BF7189EA88914208D0B1894A
:20B98C000909009142087389A17900200CF0EAFAA888AAF82A00307928703089A880708981
:20B9AC00E880B0892881204610F0C6F90220307010E0A8880BFB00F1B8FBF1F290B201FB5F
:20B9CC00128109B1401C80B2218941186181A98801FB00F9206801690BFB0911B9600278D0
:20B9EC00802A06D1C160A9883A69091F0BFB01F15161017840292BD1618A01FB09F14FF4F1
:20BA0C00C872B1FBF2F1491CC4F818906161BA68511AB9606269DAF82C1001EB42013A6975
:20BA2C005161DFF8781832780968022A07D1A2792E7801EB421253690BFB06335361A279F7
:20BA4C00DFF85C3801EB4211AA880BFB0232CA61B9688160E87AA872204600F01FFB6189C1
:20BA6C00A08910F081F9AAF82800E18981423CBF0120AAF82800BDE8F78F2DE9FE4F10F0AC
:20BA8C00EBF94FF0000900F6C4140026DFF81458DFF84074DFF838844FF4907A11E07868FB
:20BAAC000AFB0600417951B12A68817909F8021009F101015FFA81F92146FFF7EFFE761C69
:20BACC00F6B298F800008642E9DB787881451CBF822000F0C9FB7878012812D1002601E0AC
:20BAEC00761CF6B298F80000864207DA78680AFB060041790029F3D08079A0E0822000F02B
:20BB0C00B3FB79782868FFF792FE29687B680A780AFB0232002012685468A668012202E0CC
:20BB2C00521C6046D2B24A4500F1010C07DA545C0AFB043424686468A468A642F0D0C0B288
:20BB4C0000281ABF5FFA8CF000280B78DFF8E08312D00B7801220DE0565CD8F800E00EEB4E
:20BB6C0086140EEB831E248DBEF828E0744538BF3346521C8242EFDBDFF82C4723704FF6CF
:20BB8C00FF7000F05EF801900026786821780AFB010040F6C4110068406802900198400820
:20BBAC00484300901AE0786821780AFB010001680A78802A03D1DBF81030009A5A61097893
:20BBCC00402909D1DFF8D4168079096801EB4010009901F5A061C161761CF6B24E452DDA29
:20BBEC0028682178305C8142F6D07A68D8F8001001EB80110AFB00F08318DB89098D4FEAF9
:20BC0C00530C8C4502D2591A8945E5DA8058D0F804B0029A0198DBF80810926800EBD0707B
:20BC2C00401040F6C413A1F6C41103FB002010F08FF80028B7D02868305C20702078BDE8F2
:20BC4C00FE8FF0B54FF6FF710C460023A14A03E0A64298BF34465B1C9D4D2D78DBB2AB4275
:20BC6C0016D255684FF4907606FB03556E79002EF1D005F180068C42377804D1002F0CBFD3
:20BC8C006C8E3489E7E7002F14BF36896E8EDFE7A04288BF2046F0BD2DE9F84304468846EB
:20BCAC00164600270FE02A46414606F021FA3846471CC3B203B101232A464946204610F06B
:20BCCC008BF8A844761BB6B276B11C2EACBF1B25F5B2284610F0D0F85FEA0009E3D1812050
:20BCEC0010F0AAF8072000E00020BDE8F2832DE9F04D784FDFF8B465DFF8B4A50C4615466E
:20BD0C0079684FF4907282B002FB0018307801289B4602D0022830D068E0B068BBF1020FDF
:20BD2C0004D100F070F80020B06029E07388B188EA18914205DA00F066F80020B0608B2080
:20BD4C0052E02A462146181806F0D2F970882818708080B2B288904248D198F874008028B2
:20BD6C0017BF81287F209AF80010401A00F043F80020B0807080022033E0BBF1020F35D13A
:20BD8C00042DB8BF8C202FDB21786078091D41EA0020DFF8F014B08080B20978814238BFDF
:20BDAC008A2021D3A84238BF8B201DD30FF0C0FFB060C0B12A46214606F09AF9B2889542AD
:20BDCC000BD198F87400802817BF81287F209AF80010401A00F00FF808E0708828187080AE
:20BDEC000120307002E0812010F026F82046BDE8F64D0FF006BA40B200905B46B168B8785C
:20BE0C00D2B20FF029BA0021B1807180022131700FF0F7B92DE9F8430446206800784028F7
:20BE2C004FD1E08B00284CD0DFF888040078012847D107F053FD00F046F8054610F00CF847
:20BE4C00618E40F6C418891C08FB0109DFF848242068A1799278476891422CD1B868494606
:20BE6C000FF076FF48B30FF0EFFF064640F202400FF0DEFF304607F0B3FE316948460FF079
:20BE8C0063FF618E08FB01F2B0FBF2F0228980B28218628148432268126908FB0020B8609D
:20BEAC0004F1380041780170204600F0F7F830460EF05EFF01E00069B8602846BDE8F4435D
:20BECC009EE4BDE8F183DFF8CC03006800470000BC4C0020B04C002070B50446A0790FF09B
:20BEEC0093FF20BB1248A179006800EB8115FFF7EAFF06466879012803D1A0790CF019F93C
:20BF0C0007E0287928B901202871122120460FF06FFF687980F001006871AB1D286842081F
:20BF2C002146DFF894030EF024FB304666E470BD0448002030B587B040F60200ADF80000B1
:20BF4C000020ADF8020001900290ADF80C0001208DF80D000020ADF80E00D84CD84D2088C3
:20BF6C00D84A1278ADF8100002EB4202E86A816809685118B1F80110ADF812102349406879
:20BF8C000969059000A8C9698847012807BFBDF80200B0F5806F892000F066F9E868CA4A4F
:20BFAC0041881278114321800078C149800643BFC6480068400A0020087007B030BD10B562
:20BFCC0082B004461020ADF8000004EB4401BC48C06A8068006808180C49B0F801000969C2
:20BFEC00ADF8020000A889698847B648047013BDB348B449C06A80680978006801EB4101C2
:20C00C0008567047D04E0020B84C00202C4F002030B50A7902F01F020A71002280F83A2018
:20C02C000023545C24FA03F5EC070BD590F83A502D1803EBC20485F83C4090F83A40641CB2
:20C04C0080F83A405B1C082BEBDB521C052AE7DB30BD10B500F138025378D47801FB0431EE
:20C06C00252391FBF3F3252404FB131111700023117800E05B1C9478DBB2A34206D21C1880
:20C08C0094F83C40A142F5D1084610BD91FBF4F204FB1211081890F83C0010BD70B5044614
:20C0AC0004F1380004F18E0601784170608921890FF05AFE05463078012801BF708821892C
:20C0CC00491C884206D104F161012046FFF7A0FF0020307029462046FFF7BBFF216849687D
:20C0EC00887370BD2DE9F44FDFF8AC81044698F801000D4668B1802C0ED17548817C0129F9
:20C10C0018BF04290DD021B9007D022818BF03280BD00020BDE8F28F402CFAD16D48007D25
:20C12C0008B9012702E00128F3D100270026DFF8A891DFF848A1DFF8A4B11DE09DF8001050
:20C14C008A4202BF01792A78914213D141796A78914202BF8179AA7891420BD1C179EA78DC
:20C16C00914202BF017A2A79914202BF407A6979884221D0761CF6B29BF800008642C8DADF
:20C18C00DAF8000000EB8611D8F804004FF4907202FB06004279002AECD000680078A042C0
:20C1AC00E8D101F13000002F0278C7D1343148460FF0BAFD1028DDDA0120ABE738B500F12E
:20C1CC00F103474C1D7A6D070AD52C4B85791B6803EB851303F8241F5A70FFF70AFA02E080
:20C1EC001A700FF09DFD30B92078BDE834404FF4804106F087B831BD70B5044602200FF0BF
:20C20C00AFFD50B3FFF795F9C01CC0B2E880002105F108032960297169710320187002203D
:20C22C0003F8010F94F80C01587094F8920010B1022200F015F807F061FC0F4B1B69DB6C0D
:20C24C0004F16806024630682946984704F10E00002101820088F082012070BD33460922AE
:20C26C00032120460FF078BD80B50FF0E5FD1D490020087001BD00002C4F0020044800201B
:20C28C00BA4C0020F8470020874C0020884C00204448002040480020B04C002078480020D6
:20C2AC00F0DDFFFF08480020B148002014470020C04C0020BB4C0020E5BE0000944C0020AD
:20C2CC00ECC90100B94C0020F947002080130050EC490020584E00208C4A0020BC4C0020FB
:20C2EC00844C0020B84C0020DFF88C1C0870704770B5DFF8884CDFF8885C20762878C000EF
:20C30C000FF072FBE06148B3287880000FF06CFB0100616204D1E069BDE870400FF075BB7D
:20C32C004FF6FF7630460EF016FFE169002006E021F8306001EBC00300225A60401C2A782C
:20C34C009042F5DB052000F0AEF8207E03F00DFCBDE87040DFF82C0C0DF07EBB70BD38B526
:20C36C000C46200418D5DFF8140C007E05F0F6FE05000ED02878B02808D1284600F00BF95A
:20C38C0020B1297905F108000DF036FB284605F092FE84F4004032BD002032BD7CB5040014
:20C3AC001D460CD0ADF800108DF80220019400A803F06FFB060019D1C5B164890CB90226FC
:20C3CC0014E00C200FF010FB08B913260EE00021016084808560DFF8B01B0A6812B908608D
:20C3EC0004E00A4611680029FBD11060304676BD30B50D46DFF8901B0446086883B00022AD
:20C40C0001E00246006890B18388A342F9D10368002A0CBF0B6013600FF0F7FA00A9204647
:20C42C0003F083FB10B90DB1019929603EBD01203EBD70B558BB012927D1DFF8400BC16918
:20C44C0000230C2601E05B1CDBB2DFF8344B2478A34216DA31F833404FF6FF75AC42F2D0CA
:20C46C00002400E0641C457EE4B2AC42EBD201EBC3056D6806FB04552D88002DF2D0012080
:20C48C0070BDBDE8704010780DE0182070BD022070BD0022002803BFDFF8E00A407E0870E2
:20C4AC000222104670472DE9F843DFF8D07A0446002078760C25F869DFF8C46A406805FB36
:20C4CC0004F868B10FF0A1FA0020002204E0F96901EBC001401C4A60C0B231788842F6D3B8
:20C4EC00307808FB00F080B20FF07EFA5FEA000927D0307808FB00F20021484605F0F6FD6F
:20C50C0000200FE0516805FB0CF34FF0000E23F801E059180CF1010CC1F808E0A445F1DB2E
:20C52C00C144401C3178C0B2884207D2F96901EBC0024FF0000CC2F80490EFE77C7600203F
:20C54C0000E01320BDE8F28301460020C90706D50FF20C03DFF8340D102204211EE7704755
:20C56C0000000000A5CF00000000000001460020C90704D5DFF8140D4089002138E7704773
:20C58C00DFF8041A096821B18A888242FAD188687047002070472DE9F04387B0044600204E
:20C5AC00ADF8100001208DF81200DFF8D059286A38B90BF087FC0FF017FA0028286200F04F
:20C5CC00E48018220021284605F090FD2079022800F1010804F108074FF6FF7917D006280D
:20C5EC002CD008282FD00A2832D00C2855D00E2800F08880102800F08A80122800F08C80E1
:20C60C00162800F09080182800F09480BAE00BF059FC2880294660880EF0C4F80028398800
:20C62C00288804D0814228BF014629809DE0814228BF014660880DF04DF9A3E004A92046A1
:20C64C0000F0ADF87AE004A9204600F02FF975E000F0A0F8060050D0608805AB4A460B215D
:20C66C000DF08EF903006B6023D02079BDF81620039000953146BDF8140000F0A1F900F003
:20C68C0026FA060004D1608829460EF0D5F829E0162E686808BF00262BE000F07BF80600F3
:20C6AC002BD0608805AB4A460D210DF069F9686020B93888ADF81000112643E02179BDF8FF
:20C6CC00162003910346BDF814100291798801910095314600F0FBF9060006D16088294618
:20C6EC000EF0B8F8002840D129E0162E686808BF00260EF086FD0EB921E001263888ADF868
:20C70C0010001CE004A9204600F05EF916E004A9204600F0E3F911E00DF1120204A92046BC
:20C72C0000F07EFA0AE00DF1120204A9204600F0BFFA03E004A9204600F028FB064696B131
:20C74C00162E12D0607814280DD0207928702946BDF8100068802E7160880EF01AF810B111
:20C76C004FF0010801E0162E0CD160882B465FFA88F216210DF0A4F820B15FFA88F1284656
:20C78C000DF03AF920460CF0D2FF9DF8120007B0BDE8F08338880DF1160103F095BA2DE987
:20C7AC00FA4786B0044604F1080500F034FA05906A1D0DF1120000902B796988288803F098
:20C7CC0055FA002780464FF0FF0AB8F1000F5BD009E0BDF810300B54BDF81000716892B2C7
:20C7EC00000A5054571C0598BFB2401F87424BDA2079BDF8122003904FF000090598CDF8F4
:20C80C000490C01F80B20290414600F05CF9002802BF728B2889904214D1316AE86805F0DB
:20C82C0073FC78B1706858B900F048F907210DF0A7F8706020B9069928880880112032E0B3
:20C84C00B8F80A90BDF81220698804AB404603F05FFAB9F1000F8046B7D0706807F80090BC
:20C86C00781C726880B24FEA29218154411C4A1C7068B8F1000F89B2ABD101F800A092B2CD
:20C88C00706802F800A0571CBFB247B1B8083080314660880DF0AAFF28B1162003E0069938
:20C8AC00288808800A2008B0BDE8F0872DE9F04F89B0044604F1080005908A460688608886
:20C8CC00DFF8B85609F010FA07900027001FB84606904FF6FF7900E0761C0698B84257DBFA
:20C8EC0004A80090059803794188421DB0B203F0BDF95FEA000B4BD0BBF80A60BDF8102033
:20C90C009BF80810608803F034F95FEA00083FD100F0DFF859460798001F00F050F805F1A5
:20C92C001A0000902B6A00F0D2F85FEA00082FD17FB9608800234A4609210DF021F86860C6
:20C94C0018B9AAF80060112036E0688B801C688004E0698B6888891C88421AD1698B069886
:20C96C00C919884214DB6968BBF80A007854BBF80A106A6800F049F968686A8B296ABFB21C
:20C98C00381805F0B5FB688BC7194E45BFB2A3D157B1688897FBF0F02880294660880DF0E5
:20C9AC0035FF48B1162007E0B8F1000F08BF4FF00A08AAF80060404609B0BDE8F08F80B2BA
:20C9CC0002900020019070472DE9F04F85B00D46044604F108066088DFF8A07509F084F9DD
:20C9EC004FF0000BA0F10108A0F1010A16E039887A8B084612189245BCBFA8EB0101798394
:20CA0C007B687A8B396AC01805F072FB3888798B081838800BF101001FFA80FBB088834518
:20CA2C00BCBF3888504537DA306810F81B2000EB4B0004A9407802EB002080B203F044F924
:20CA4C0001000BD14FF0010900F02EF8786808B10EF0D7FB484605B0BDE8F08F00F039F89D
:20CA6C001FFA88F0FFF7ACFF07F11A0000903B6A00F02DF85FEA0009E6D178680028B6D184
:20CA8C0000F01CF80F210CF07BFF00287860AED100F00AF81120DEE7608839460DF0E8FE2F
:20CAAC000028D8D01620D6E7306810F81B1000EB4B00407801EB0020288070476088002378
:20CACC004FF6FF72704706F11A000090336A60887AE22079BDF81020039070472DE9F04746
:20CAEC0086B08846044604F1080900F094F8059009F1050204A8009099F80430B9F8021000
:20CB0C00B9F8000003F0B2F80027BA4605460FE07268FF21B95480B272688154471C706837
:20CB2C00728B316ABFB2381805F0E2FA708BC719BFB2BDB1BDF81020297A608803F019F891
:20CB4C005FEA000A0BD1FFF7C4FF29460598801FFFF735FFFFF7B7FF5FEA000A10D068893C
:20CB6C00A8F80000002F43D0708897FBF0F03080314660880DF08BFE002843D0162041E036
:20CB8C007FB9FFF79BFF11210CF0FAFE706020B96889A8F80000112034E0708B001D708014
:20CBAC0009E0708B7188021D9142DDD10599891FC0198142D8DB71686889785469897268F5
:20CBCC0000F023F8BDF81020B9F802100DF11203284603F09DF80546781C002DBFB297D0A9
:20CBEC007268BDF81210B954BDF81210090A92E7B9F80000A8F80000BAF1000F08BF4FF0F7
:20CC0C000A0A504606B0BDE8F087781C80B2090A8154471C70476088DFF8606309F064B82D
:20CC2C002DE9F041044604F1080784B00D463888904602A903F048F806002FD0307A800623
:20CC4C000BD5BDF8080000F0A1F903000BD06088122231469847060021D1787A002814BF6C
:20CC6C005220207901E00E2619E00190002000907B887A683988608800F0A0FA060007D158
:20CC8C00787A70B960880DF013FE50B116200CE0162E04D1002688F8006002E0012638886C
:20CCAC002880787A00B10026304604B0BDE8F0812DE9F843894690460121044604F1080652
:20CCCC0060880CF05DFF002718B9142060700E205AE0308800A902F0F7FF05004FD0287A95
:20CCEC0080060BD5BDF8000000F050F9030015D06088122229469847070041D1658828460E
:20CD0C0000F006F9010006D14FF6FF7000F000F9010030D00D800022984D02E00E272FE0E8
:20CD2C00521C687ED2B2824225D248680C2303FB02000388002BF3D10C22314605F0D8F990
:20CD4C00002088F800000C223146284605F0D0F9B2886088002317210CF012FEA86060B1B4
:20CD6C00B288B16805F0C4F9608829460DF0A6FD48B1162008E0092702E0112700E0012742
:20CD8C003088A9F800003846BDE8F2832DE9F04383B089460027044604F10805608800F000
:20CDAC00B7F85FEA00084AD02878012843D14146284600F050F8A0B1D8F804501820019005
:20CDCC0068880090AB88AA682988608800F0F6F90746162F02D10020A8602CE05FB32888AF
:20CDEC0027E000250EE0019070880090B388B268608800F0E3F90746162F17D10020B06041
:20CE0C006D1CEDB25D48407E854214DAD8F804100C2202FB05121646318861B16B1C83422D
:20CE2C001DBF9089002816201820DCE7002FE7D03088A9F80000404600F07DF82FB960889E
:20CE4C000DF049FD20B1162003E0162F08BF00273846BDE8FE832DE9F84F0C4600210025CD
:20CE6C000E464FF00C0B45480EE0994202BFBCF8027093B2BB4224D1BCF804305D19ADB2CB
:20CE8C009A18761C92B2F6B2437E9E420EDA63680BFB063CBCF8003043B10029E5D1BCF84F
:20CEAC000450BCF802201946AA18EAE7022E2CDB28004FF0000904D00EF08AF95FEA0008FD
:20CECC0001D1002022E0CA4619E00BFB0A07B96859B1BA8809EB080005F00AF9B888484405
:20CEEC001FFA80F9B8680EF08CF9BAF1000F04D00C220021384605F0F9F80AF1010AB245B3
:20CF0C006068E2DBC0F8088085800120BDE8F28F1A4AD269002100E0491C194B1B78C9B27D
:20CF2C00994206D232F831308342F5D102EBC10070470020704770B5044600250BE0B06849
:20CF4C0008B10EF05EF90C220021304605F0CEF8002030806D1C0948407EEDB2854206D291
:20CF6C0060680C2101FB050630880028E7D14FF6FF70208070BD000064470020D04700208E
:20CF8C00684700209DD200009448002080B5FFF7F7FA00B1806802BD30B583B00C78022C0D
:20CFAC0010D14C682578647805EB0424A4B242F60215AC4206D102240194069C00940EF0E6
:20CFCC00A4F83EBD01203EBD2DE9FE4F0D468046287AC00693461E464FF0000A0CD55846A9
:20CFEC00FFF7D4FF030000F0E4800A222946404698475FEA000A49D128780C9F0D9CDDF8CF
:20D00C003890022816D100F016F94FF42051401A012810D9801E3AD0401E14D0FD3876D0A7
:20D02C00401E00F07D80401E6AD0401E6FD0401E00F09180A7E0002C2AD1E86801783980D5
:20D04C000278416883E0002C22D1012038800021E868007830706889401C80B202F034FE1A
:20D06C00398860B10278921C51183980418971704189090AB17002784168F01C68E0081D43
:20D08C00388004220021701C05F030F893E0002C62D1E8680488042038803470200A7070A4
:20D0AC000DF10201204602F00FFE05001ED0EC68BDF802204FF6FF7800AB414602F028FEDA
:20D0CC0040B92B786A689548022108F09DFD08B9ADF80080207802280AD161680222301D87
:20D0EC0005F006F83888801C388001E0ADF80040BDF80000B070BDF80000000AF0705AE029
:20D10C0054BBE868016840460DF0E3FF02E01CBBE8680088022139803070000A70704AE0B5
:20D12C00E86805F025FB82B2A242B8BF4FF0070A41DB944208BF002206D009EB0401914222
:20D14C00B2BF4A46121B92B23A80E9686118304604F0CEFF2FE014B14FF00B0A2BE0E86813
:20D16C000721398001783170417871704188B1704188090AF17001793171C1887171C08858
:20D18C00000AB07117E05846FFF7FAF900281CBFD0F800C0BCF1000F0BD00F980290CDF8BA
:20D1AC00049000943B46324629464046E047824601E04FF00E0A5046BDE8FE8F2DE9FE4307
:20D1CC008046894617461E4602A9484602F07CFD05002CD0BDF80800FFF7D2F900281CBFC7
:20D1EC00D0F804C0BCF1000F1FD00A980B9C0090019433463A4629464046E047060017D17B
:20D20C00FE2C15D02878022812D100F014F842F6021188420CD13878797800EB012292B265
:20D22C004946404600F05EF802E00E2600E001263046BDE8FE8368680178407801EB0020C1
:20D24C0080B27047704700207047E0B58DF808200223120A8DF80920FE22019200220092B3
:20D26C0002AAFFF7ABFF0EBD38B504462C480D46416A20460DF02DFF800705D5294620461D
:20D28C00BDE8344002F0B9BC012032BDA44500207CB50129044605D0022922D101210CF033
:20D2AC006FFCF0B92046FFF733FE08B1FFF743FE01A800904FF6FF7502231A4A29460120C6
:20D2CC0002F0D4FC0BE0F068016820460DF043FFBDF8042000232946304602F019FD060040
:20D2EC00F1D173BDF8B5104F04463878FF280D46164611D00A2004F0C9FE68B1B121017032
:20D30C004480002141700171C580068101463878BDE8F44004F0B3BFF1BD000020AC01007C
:20D32C00D047002034AC0100644700200A7802704A7842708A78C97802EB012141807047CC
:20D34C002DE9F0420C46062C84B0074615461E460CD1688800F0BBFD019008B9022037E0B5
:20D36C00C068408828800198C78807E00C9A0B9901AB00F0F7FC5FEA000928D101990A98DA
:20D38C000870DFF8100C0178491CC9B201B901210170142C0198017106D101984088688005
:20D3AC000199C9682889088100962B46019802792146384600F00FF85FEA000904D10198A5
:20D3CC001E2100F0E9FD02E0019800F01CFD484604B0BDE8F0822DE9F041044684B00E4636
:20D3EC0017469846172000F0FBFE050025D00A9A100003D04146281D904700E00020010A97
:20D40C002E70E9706F70A8700521001DADF80800ADF80010019500A9DFF8C40C00780028E7
:20D42C00204602D000F0DBF901E000F009F8040004D028460DF0E5FE00E013242046FDE092
:20D44C0010B50B88DFF89C2C0C2404FB0322303A536833B94B6853600989508111810020E9
:20D46C0010BD162010BD80B5052000F019F858B9062000F015F838B9042000F011F818B962
:20D48C00072000F00DF808B1012002BDDFF8580C007800281CBFBDE8014000F025B802BDA3
:20D4AC00DFF8401C0C2202FB001110B5A1F1300484B06168A9B1DFF8282C12787AB1ADF88A
:20D4CC000000019100A92089ADF80800608900F086F910B160680DF094FE0020606001203E
:20D4EC0000E0002004B010BD2DE9F843DFF8FC4BDFF8F45B94F80090DFF8F48B4E46D8F834
:20D50C00000000EB06173878012811D1F86800281CBFC16800290BD0018891B9407FFF28F3
:20D52C0006D16221384600F0B4FBF96800204877761C2878F6B2864228BF00264E45DED137
:20D54C000646287886421AD2DFF8940B0078A0B1D8F8000000EB0617384600F013F801008E
:20D56C0003D0384600F060FD09E0761C2878F6B2864226BF002020702670012000E000202A
:20D58C00BDE8F2832DE9F0410446DFF82C0CE56800886A8A84B0EE88B04238BF0646288A6B
:20D5AC0022B9811CB14206DA871C05E0811AB142B8BF871A00DB3746B8B200F011FE5FEADC
:20D5CC00000839D06888ADF80000CDF80480ADF80870688A50B9288A08F8010BBFB2000AFF
:20D5EC0008F8010BB7422CBFBF1E2F8AE868698ABFB209183A46404604F07AFDE08800A942
:20D60C0000F0EDF8060013D12888401E2880698A2A8A7918698289B2914204D300212046FA
:20D62C0000F002FD09E080B238B9FF20687704E040460DF0E6FD00E01326304604B0BDE8B3
:20D64C00F0812DE9F0470F4684B08146388800F03EFC06001CBFF468002C7AD0F08848450E
:20D66C0077D12089002870D0401EDFF8508B227F208180B2D8F8001001EB0211C9888842C7
:20D68C0003D16321304600F004FB606920BB78680178427801EB0225ADB23A89A91C91423D
:20D6AC006FF0010A0BD151460DF07EFD78603D813A46307A494600F067FA68B94AE02846B0
:20D6CC000DF086FD60612583514678680DF06CFD78603889801E38816069A0B3638B3A89BB
:20D6EC00258BD1188D422CDBD8F8005094F81CE005EB0E156D888D4221DB7968181804F02F
:20D70C00F7FC608B39890818608380B2218B88421FD17088ADF8000000AA60690190494692
:20D72C00208BADF80800307A00F02EFA10B160690DF067FD002060616083208309E0052162
:20D74C0004E0042102E0092100E00621304600F09FFC012004B0BDE8F087F0B585B004468B
:20D76C000D4616461F460A22002101A804F0BEFCADF80C60AEB97888ADF80400DFF8380AAB
:20D78C000088ADF80800F86858B1DFF8301A027F096801EB02114988ADF806100089ADF813
:20D7AC000A0001AB0FF2093000902A4615212046FFF711FE040008BF002E09D10120387030
:20D7CC000022002038710146384600F026FA03E017B1384600F017FB204605B0F0BD70B565
:20D7EC000D460446288920B1DFF8CC190988814201D21B2070BD686804210DF0D5FC0646A4
:20D80C00288930702889000A70702888B0702888000AF0702889051D4FF6FE70844213D1F6
:20D82C000C2004F033FC01000CD0902008704C8002200871CD808E60DFF88409007804F016
:20D84C001EFD17E0132070BD3346AAB2002120460EF062FA010007D002280DD007280FD0A7
:20D86C0012280BD01F280CD1DFF87408017809B1491E0170002070BD142070BD022070BD08
:20D88C00042070BDF8B5044600200D4660602879022826D1E888042823DBA9680A784B784F
:20D8AC0002EB03268A78C978B6B202EB0127311D8142BFB215D1052F18BF042F07D0062FD4
:20D8CC0018BF072F03D0384600F001FB48B1268127806FF00301A8680DF066FC60600020F9
:20D8EC00F2BD0120F2BD0B88037002220B881B0A43700B88012B06D14A88827004224988B7
:20D90C00090AC1700CE0022B0AD14A8882704A88120AC2708A88027106228988090A41715C
