:100000005844002005E4000001CA011001CA011093
:1000100001CA011001CA011001CA011001CA011070
:1000200001CA011001CA011001CA011001CA011060
:0C00300001CA011001CA01103FCA0110F2
:10003C005FF0FF0C1CEAD05114BF614506E0C11003
:10004C00400721F0E04101F16051704779B900F0AF
:10005C00004100020AD0B0FA80FC00FA0CF001F169
:10006C006051A1EB0C5101EBD021400570474102CE
:10007C000CBF40F4E0016FF0000100207047FF7FDF
:10008C004100090E7F3915D4D1F11F0114D4400061
:10009C0007D2C00140F00040C84048BF6FF000409C
:1000AC007047C00140F00040C8404CBF4FF00040CA
:1000BC00404270470020704700424FF0004058BF4C
:1000CC00C04370470040000040EA010C5FEA4C0C52
:1000DC0007D0884205D14FEA400C1CF1807F98BFB5
:1000EC008042704770477047012070471000000035
:100100003C0000000000000000000000340100007E
:1001100000000000000000000100000000000000DE
:1001200000000000000000000000000001000000CE
:0C013000000000000800000000000000BB
:10013C003400000000000000000000006801000016
:10014C0000000000000000000100000000000000A2
:10015C00010000000000000000000000080000008A
:04016C00000000008F
:1001700030000000000000000000000098010000B6
:10018000040000000000000001000000FFFFFFFF6E
:10019000FF00000001000000080000000000000057
:1001A0002C0000000000000000000000C40100005E
:1001B000040000000000000001000000FFFFFFFF3E
:0C01C000FFFFFFFF08000000000000002F
:1001CC0034050000E401000099A1011095A701106D
:1001DC00A5C2011009B2011045B8011000000000C1
:0801EC00000000002E000000DD
:1001F40028000000000000000000000014020000BD
:100204000000000000000000FFFFFFFF00000000EE
:080214000800000000000000DA
:10021C00300500003002000069C201106DC10110F0
:10022C001FC2011095BA0110000000000000000070
:04023C00300000008E
:10024000300500005402000075C20110A9B601106B
:100250009DBF011049B60110000000000000000021
:040260003100000069
:1002640024000000000000000000000080020000E4
:100274000000000000000000000000000800000072
:040284000000000076
:10028800240000000000000000000000A40200009C
:10029800000000000000000000000000080000004E
:0402A8000000000052
:1002AC00240000000000000000000000C802000054
:1002BC000000000001000000000000000800000029
:0402CC00000000002E
:1002D00000000000540200200400000000000000A4
:1002E000000000002000000070010000300000004D
:1002F0001C0200005C02002004000000000000005E
:10030000000000000C000000300400001800000095
:100310004002000064020020040000000000000011
:100320000000000024000000480400001800000045
:10033000000000006C02002004000000000000002B
:100340000000000010000000A00100002C000000D0
:10035000CC01000074020020040000000000000036
:1003600000000000200000006402000024000000E3
:10037000FFFFFFFF7C0200200400000000000000DF
:100380000000000028000000880200002400000097
:10039000FFFFFFFF840200200400000000000000B7
:1003A00000000000580000003C0100003400000084
:1003B000FFFFFFFF8C02002004000000000000008F
:1003C00000000000100000006004000018000000A1
:1003D000FFFFFFFF94020020040000000000000067
:1003E000000000001C000000AC020000240000001F
:1003F000FFFFFFFF9C02002004000000000000003F
:100400000000000038000000F40100002800000097
:10041000FFFFFFFFA4020020040000000000000016
:100420000000000054000000000100003C0000003B
:100430001800000000000000000000004004000060
:080440000800000000000000AC
:100448001800000000000000000000005804000030
:08045800080000000000000094
:100460001800000000000000000000007004000000
:0804700008000000000000007C
:080478000200000060E4000036
:01048000007B
:040484000100000073
:0404880000000C0064
:04048C0000000D005F
:040490003200000036
:040494000200000062
:04049800E01100204F
:04049C00000200005A
:0404A000A5E10000D2
:0404A40001CA011078
:0404A8000000000050
:0404AC00000000004C
:0404B0000800000040
:0404B4000000200024
:0404B800A811002067
:0404BC00010000003B
:0404C0001C020020FA
:0404C400080000002C
:0404C8000000000030
:0404CC00000000002C
:0404D0000000000028
:0404D4000000000024
:0404D8000000000020
:0404DC00010000001B
:0404E00010120020D6
:0404E400060000000E
:0404E800010000000F
:0404EC0014110020C7
:0404F0000000000008
:0404F4000000000004
:0404F80000020000FE
:0404FC0000000000FC
:020502002A00CD
:020504000100F4
:020506002500CE
:020508003000C1
:02050A003100BE
:02050C002E00BF
:02050E000100EA
:0105100001E9
:080514000400000044E40000B3
:08051C000000000000000000D7
:0405240000000100D2
:0405280000000300CC
:04052C0087C401106F
:04053000380500008A
:040534003805000086
:0405380000000000BF
:04053C00800000003B
:040540008000000037
:0405440000000000B3
:040548001C02002071
:04054C009380000098
:040550002000000087
:040554001CE40000A3
:0405580008E20000B5
:04055C000DC30110BA
:04056000EB36000076
:04056400ED36000070
:0405680099C801101D
:04056C009BC8011017
:040570000000000087
:0405740080040000FF
:04057800E8DF0000B8
:04057C0000E000009B
:04058000D0DF0000C8
:0205840008006D
:0205860009006A
:02058800010070
:02058A0000006F
:01058C00016D
:040590000000000067
:040594000000000063
:04059800000000005F
:04059C00000000005B
:0405A000CD31000059
:0405A4002D320000F4
:0405A800AD30000072
:0405AC0057320000C2
:0405B0001531000001
:0405B400C93000004A
:0405B80055310000B9
:0405BC009932000070
:0405C00011800000A6
:0405C4007F83000031
:0405C8008383000029
:0405CC000800000023
:0405D0002400000003
:0405D400180000000B
:0405D80028000000F7
:0405DC0020000000FB
:0405E0003C000000DB
:0405E4000C00000007
:0405E80034000000DB
:1005EC00DFF800F0D9C10110DFF800F025B10110DF
:1005FC00DFF800F06DA90110DFF800F0D9B601109A
:10060C0000B58FB008233C22002100A8FFF7E8FFBB
:10061C00DFF8180E00F1E001079100234FF416717A
:10062C00089100AA0121069190300FF2B511FFF745
:10063C00DBFF0FB000BD10B5012886B0DFF8EC4D24
:10064C0004D002285BD0042866D080E001F08BFD3A
:10065C00C00607D4FF2020750122217D012000F067
:10066C00BFF974E0207DFF28F6D004A9012001F029
:10067C0034FE9DF8100060B90FF2D80003F01DF89D
:10068C0004F16C0003F05AF9002003F045FA002045
:10069C0028E0802829D0002003F03EFA7F2100209A
:1006AC0003F0CDFA9DF81000C0F3410003F045FBB8
:1006BC009DF81000C0F3C10003F09EFB0020E06425
:1006CC0020656065A065E06520666063A063E063FB
:1006DC00012104F1900001F089FF04F16C0003F09A
:1006EC000FF9012003F025FE03E0207D08B1012065
:1006FC00A0759DF81000802829D0207527E004A94A
:10070C0001F0EBFD9DF8100000EB800189B204F1C3
:10071C006C0003F015F91AE004F1280101F0DDFD7D
:10072C00206BFFF785FCCDE90201E06AFFF780FC46
:10073C00CDE90001A06AFFF77BFC02460B460FF2E5
:10074C00240002F0BAFF01210E2004F072FA06B068
:10075C0010BD0000414852532053746F702E0A0D87
:10076C0000000000476F7420426F617264204D617D
:10077C00672043616C6962726174696F6E204461B9
:10078C007461203A2025662C2025662C2025660ACB
:10079C000D00000010B50FF23800DFF8904C02F09D
:1007AC008CFF002020751422002100F019F9012281
:1007BC00217D104600F014F90020607503F07DF9DE
:1007CC0003F095F900206063A063E063E07410BD52
:1007DC00414852532052657365742E0A0D00000077
:1007EC002DE9F04387B003A8002100220B460EC070
:1007FC000820ADF800000120DFF8A81CDFF82C4C15
:10080C000968DFF8A47CDFF8A48CADF8020004F5CD
:10081C00537500A8884701F0F3FC04F03CFC284613
:10082C0001F016FD284604F05EFC002001900090BB
:10083C004FF47A731A460FF2C91104F16C0003F0ED
:10084C003BF8FFF7A7FF01226421022000F0C8F853
:10085C0004F1900500F0BBF80020608204F54E799D
:10086C004FF4F070FFF7C4FE03AE0BE004F16C0024
:10087C0003F05DF818B904F16C0003F041F80A209C
:10088C00FFF7B6FE607D002851D0039801F031FAD5
:10089C00FFF7F6FB20804146706804F0CBFCFFF7B5
:1008AC00EFFB60804146B06804F0C4FCFFF7E8FB46
:1008BC00A080A21DE06C00900C2100F071F8206D5E
:1008CC0000F07DF8606D00F072F8002004F014FC6C
:1008DC00206C0090A21DBDF90000E0800C21BDF938
:1008EC0002002081606C00F06AF8A06C00F05FF8E8
:1008FC00032004F001FC606B009000F051F8A06B39
:10090C0000F05DF8E06B00F052F83888800703D5F2
:10091C00E07C40F04000E07422461421002001F0FD
:10092C00A0FCE07C00F0FE00E07400206075A07D6F
:10093C0020B10020A0756063A063E06303F0CFF8E2
:10094C00F0B1002003F05EF9C00719D5207DD8B1B5
:10095C004946002003F091FA04F23E31002003F0E6
:10096C002FFA04F55171002003F02EFC20B102285F
:10097C0006D003F0A4FB03E003A9484600F045F8B9
:10098C00207D00287FF472AF04F16C0002F0CFFFE1
:10099C0018B104F16C0002F0D1FF00F018F871E707
:1009AC00BDF90000E080BDF9020020817047009085
:1009BC00BDF90000E081BDF9020020827047009073
:1009CC00BDF900006081BDF90200A08170474FF0B5
:1009DC00FF31284601F00ABE01460C2004F029B96B
:1009EC0030B5154685B004460A46294600A804F0E1
:1009FC008DFC00AA2946204601F033FC05B030BD21
:100A0C00DFF8281A0120487570472DE9F24F94B091
:100A1C0005460AA8242104F097FC002006900AAC95
:100A2C00FFF7EAFD0890DFF8046AB5F9000003F05F
:100A3C0085FA0A90B5F9020003F080FA6060B5F906
:100A4C00040003F07BFAA060B5F9060003F058FA35
:100A5C00E060B5F9080003F053FA2061B5F90A001B
:100A6C0003F04EFA6061B5F90E0003F097FAA0613D
:100A7C00B5F90C0003F092FAE061B5F9100003F03F
:100A8C008DFADFF82C1A04F0D5FB2062B16AA0694C
:100A9C0004F05EFCA061F16AE06904F059FCE061CD
:100AAC00316B206A04F054FC2062E16865692769A7
:100ABC0001F039F9804601F044F901F046F901F0F2
:100ACC005DFA01F003F901F061FB00F0D3FC0A9927
:100ADC00A5686768804601F026F9814601F031F976
:100AEC0001F003F901F04AFA01F0F0F801F04EFBC5
:100AFC000546DFF8C00901F00AF90746DFF8B80926
:100B0C0001F005F900F0B6FC0990DFF8B019DFF838
:100B1C00B059AA6D384604F08FFC98BF4FF07E5741
:100B2C0000F0A0FC0AD2FFF783FADFF89829DFF86F
:100B3C00983904F093FC04F005FD02463846114642
:100B4C0004F048FD38BF3A46AA65104601F0BEF8DD
:100B5C0000F098FC079041462F79D4F80890D4F80F
:100B6C0004A0781C2871404604F064FB0A9901F03B
:100B7C00D9F801F0A5F801F0DEF801F0A1F801F0C8
:100B8C00D5F801F0A0F801F001FB00F073FC05EBC7
:100B9C0087010027C8640321287990FBF1F101EB50
:100BAC004101401A287105EB8700DFF82019C06C51
:100BBC0004F022FD069904F09DFD7F1C032F069086
:100BCC00F1DB0898696CDFF808A9DFF808B9401A5E
:100BDC00263004F0DBFDDFF8001904F00DFD706623
:100BEC00206AE7680490E0690390A069029060694C
:100BFC00019020690090A068FFF71AFA00F090FCB1
:100C0C0004F0A0FC81466068FFF712FA00F088FC43
:100C1C0004F098FC05900A98FFF70AFA52465B46D6
:100C2C0004F0C4FD04F08EFC05993B464A4600F0E6
:100C3C0093FCFFF7E1FC68644FF0804AB769D6F883
:100C4C001C9001F07EF8834601F071F801F038F841
:100C5C00316A01F067F801F040F801F062F801F038
:100C6C003CF8FFF7E5F9CDE90001306A01F060F8D6
:100C7C008146706A01F066F801F037F801F05DF812
:100C8C00FFF7D6F9DDE9002304F062FEDFF84C280B
:100C9C00DFF84C3804F0E2FB04F054FC14990860C3
:100CAC00B169306A04F0C6FA0746F169706A04F05B
:100CBC00C1FA01F016F801F040F8FFF7B9F904F0A9
:100CCC00ADFE04F03FFC14994860B769D6F820904B
:100CDC0001F037F8F16901F025F800F0FEFF8346CA
:100CEC0001F025F800F0F9FF01F01BF800F0E8FF27
:100CFC00FFF79EF9CDE90001F06901F023F80746F2
:100D0C00706A01F015F800F0E1FF01F016F8FFF73A
:100D1C008FF9DDE9002304F01BFE04F013FC149999
:100D2C0088601498DFF8BC17006804F085FB0BD8BA
:100D3C00FFF77EF9DFF8A427DFF8AC3704F08EFB61
:100D4C0004F000FC149908601498DFF8A077006890
:100D5C00DFF89CB7FFF76CF900F0DCFB04F0F2FB5A
:100D6C001499086014984068FFF762F900F0D2FB00
:100D7C0004F0E8FB1499486014988068FFF758F960
:100D8C0000F0C8FB04F0DEFB14998860216A6369EB
:100D9C0022690291E1690191A1690091E16804F075
:100DAC0083FF0998FFF744F907468B46DFF80007E5
:100DBC0000F0CBFFFFF73CF921F000413A465B46CF
:100DCC0004F04CFB4FF0C042DFF8283705F004FC70
:100DDC0021D2687915280DDBB07C58B90FF2506020
:100DEC0002F06BFC0898A8640120B0740020F06439
:100DFC003065706568796428B8BF401C14DBB07C22
:100E0C00022814D00FF2346002F057FC0220B074A8
:100E1C000120B07509E0B07C28B10FF22C6002F013
:100E2C004CFC0020B07400206871B07C022800F0EB
:100E3C007B820FA802900EA801900DA80090626909
:100E4C002169E068DFF8B076012300F089FF0CA877
:100E5C0002900BA801900AA8009063692269E168CE
:100E6C00012000F0BFFFA068FFF7E2F8DFF83C2E8E
:100E7C00DFF83C3E04F0F2FA04F064FB394602461B
:100E8C000A98DFF8303EA26004F0A4FB05D21946A4
:100E9C0004F0D2FA9CBF00200A90606800F0E3FADC
:100EAC0005D2194604F0C8FA9CBF0020606000F01F
:100EBC00D9FA05D2194604F0BFFA9CBF0020A060F5
:100ECC000A990798DFF8F08DDFF8F09D04F0B2F97D
:100EDC00A96B04F00FFC00F0D5FA83466168079803
:100EEC00C4F80CB004F0A6F9E96B04F003FC00F0B4
:100EFC00C9FA8246A1680798C4F810A004F09AF9C0
:100F0C00296C04F0F7FB00F0BDFA07466761C5F8E1
:100F1C0038B0C5F83CA02F645846FFF789F800F0AC
:100F2C000BFB04F00FFB0A9000F00EFB00F004FB2F
:100F3C0004F008FB60603846FFF77AF800F0FCFA22
:100F4C0004F000FBA060002030647064B064F16CAD
:100F5C00776DD6F850A000F0E6FE00F0ECFE00F045
:100F6C00AFFE00F0EDFE00F0AEFE01F00FF90290C6
:100F7C00B07C002840F046816F690A98DFF84CAECF
:100F8C00DFF84CBEFFF754F800F0E1FA00F0C8FAB5
:100F9C0000F0BAFA04F0D6FAE0606068FFF748F89F
:100FAC00CDE90001686AFFF743F800F0B9FA00F0E8
:100FBC00ABFA04F0C7FA2061A068FFF739F8CDE965
:100FCC000001686BFFF734F852465B4604F0EEFB09
:100FDC0000F09AFA04F0B6FA6061394600F091FE1E
:100FEC00696A074600F09FFE00F070FE696B0746C9
:100FFC0000F099FE00F06AFE01F0C8F8074602996D
:10100C004FF07E5004F0F8FA80F00040FFF710F833
:10101C0004F098FADFF8BC1D009183463846FFF7C0
:10102C0007F842464B4604F0C1FB02460B46002033
:10103C00DFF8A41D05F0E8FA04F084FA0099002307
:10104C005A4600F0A0FFDFF8941D04F0F3F80746B1
:10105C006969E06804F04EFB00F074FE00F012FACF
:10106C00E060696A206904F045FB00F06BFE00F05B
:10107C0009FA2061696B606904F03CFB00F062FEC8
:10108C0000F000FA6061E068E16830642069706427
:10109C006069B06400F0F3F9F16C04F02BFBF064C0
:1010AC002169706EDFF8389D04F0C4F8316D04F0DE
:1010BC0021FB83466169706EC6F850B004F0BAF833
:1010CC00716D04F017FB0746B06D7765FEF7B0FF46
:1010DC00CDE90001F06CFEF7ABFF00F02DFA00F04B
:1010EC00C5F904F02FFAB065F06DFEF7A1FFCDE95C
:1010FC0000015846FEF79CFF00F01EFA00F0B6F90E
:10110C0004F020FAF065306EFEF792FF00F01FFA43
:10111C0000F012FA00F0AAF904F014FA0021824649
:10112C00E068DFF8189EC6F860A004F085F94FF06F
:10113C00333803D2F06C04F04DFA07D3E06804F0B6
:10114C0049FA0AD2F06C04F077F906D2FEF770FF78
:10115C0000F0F2F904F0F6F903E0F06CB16D04F074
:10116C00F7F8F0640021206904F066F903D25846C0
:10117C0004F030FA07D3206904F02CFA0AD258464E
:10118C0004F05AF906D2FEF753FF00F0D5F904F03B
:10119C00D9F902E0F16D00F0A1FD30650021606924
:1011AC0004F04AF903D2384604F014FA07D3606904
:1011BC0004F010FA0AD2384604F03EF906D2FEF7D3
:1011CC0037FF00F0B9F904F0BDF903E03846514699
:1011DC0004F0BEF87065B07CA0B9F16C00F04FF96A
:1011EC00716B04F087FA7063316D00F048F9B16BE4
:1011FC0004F080FAB063716D00F041F9F16B04F00A
:10120C0079FAF063002728780A9905EB8002401CD4
:10121C009160287000F01EF92870002068616869E0
:10122C00FEF706FF804605F10800894650F82700B6
:10123C00FEF7FEFE00F030F900F028F904F082F918
:10124C007F1C032F6861EADB00276878616805EB77
:10125C008002401C9161687000F0FCF868700020FE
:10126C006862686AFEF7E4FE804605EB87008946F3
:10127C008069FEF7DDFE00F00FF900F007F904F0CD
:10128C0061F97F1C032F6862EBDB0027A878A1684B
:10129C0005EB8002401C9162A87000F0DBF8A8708E
:1012AC0000206863686BFEF7C3FE044605EB8700FD
:1012BC008946806AFEF7BCFE00F0EEF822464B46EB
:1012CC0004F0CCF804F03EF97F1C032F6863E9DBD3
:1012DC004FF08241069804F07DF90AD2A87978B9CA
:1012EC000120A871F07C40F00100F07401207075B1
:1012FC0006E0DFF8041D04F09FF89CBF0020A871E5
:10130C00F07C00061AD4B06E4FF07E5104F062F9F6
:10131C0014D2F07C40F08000F0740FF61C5002F0F8
:10132C00CCF90120707509E000200290019000902A
:10133C0062692169E068002300F012FDF16C746DA4
:10134C00356D00F0F0FC00F019FE00F0BFFC054616
:10135C0000F010FE294604F0CDF900F017FF00F064
:10136C0089F8DFF8981CB76D04F066F8044639D894
:10137C004FF0785000F0FFFDFEF75AFEDFF8802C9E
:10138C00DFF8803C04F012FAD6F84CA004460D4667
:10139C0000F0DAF800F0D6F800F0C8F800F0AEF87B
:1013AC0004F0D0F8F064D6F850A000F0CDF800F0BE
:1013BC00C9F800F0BBF800F0A1F804F0C3F83065F0
:1013CC00D6F854A000F0C0F800F0BCF800F0AEF86D
:1013DC0000F094F804F0B6F87065DFF82C4CDFF8E8
:1013EC002C5C08E04FF07E5104F0F4F81BD2DFF8CF
:1013FC00204CDFF8205C3846FEF71AFE00F096F819
:10140C0004F0A0F8B065F06DFEF712FE00F08EF857
:10141C0004F098F8F065306EFEF70AFE00F086F8DE
:10142C0004F090F8306615B0BDE8F08F2005002070
:10143C005374656164792E0A0D000000536C656568
:10144C00702E0A0D000000004D6F76696E672E0A33
:10145C000D0000000321C0B290FBF1F101EB410142
:10146C00401A70471046394604F0B4B8DDE9002341
:10147C0003F0F4BF01464FF07E5004F0BDB8706E1F
:10148C0003F0D8BE4FF07C5103F0D4BE02460B469D
:10149C004046494603F0E2BF0022DFF87C3B05F0F2
:1014AC00B3B800003C020020500D00200000C842E0
:1014BC00000080BF00007A430000FA430100803F27
:1014CC000C100020FCA9F1D24D62503F00004040AE
:1014DC00399D52A246DF913F0050C347182D44540A
:1014EC00FB210940DB0F4940FB2119C0F8C1631AED
:1014FC00DCA54C406666C63F6F12833A02460B462B
:10150C004046494605F0ACB902460B46DDE9000100
:10151C0005F0A6B902460B463846594604F046B9C2
:10152C0002460B465046594604F040B902460B465B
:10153C002046294604F03AB902460B464046494635
:10154C0004F034B9804689465046FEF771BDCDE9AA
:10155C0000013846FEF76CBD2DE9F04F0546DFF86B
:10156C00BC0ADFF8BC9A80699DB00F460390144604
:10157C00DFF8A80AC06902909846DFF8A00A006A52
:10158C0001902946DFF8940A466A00F0BDFB80F012
:10159C00004A019800F0D6FB00F09BFB82463046D7
:1015AC0000F0E9FC00F095FB00F0C2FB0E90294620
:1015BC0000F0CFFB8246019800F0DDFC00F083FBCD
:1015CC008246304600F0BEFB00F083FB00F0B0FB1F
:1015DC000D9000F0BDFB8246029800F0CCFC00F0B0
:1015EC0078FB8246304600F092FB00F06CFB00F07A
:1015FC009FFB0C90214600F0ACFB0446029800F0D7
:10160C00A1FB00F0A0FC0446019800F080FB014611
:10161C00204603F09DFE00F08BFB0B900021404612
:10162C00FEF752FD269D08D12846FEF74DFD04D14C
:10163C002798FEF749FD00F0ED8200F059FB0446B7
:10164C0000F09DFC00F07FFC2799044600F06BFB3A
:10165C0000F079FC00F09AFD0446404600F08BFC4B
:10166C00804600F079FB0546279800F084FC279013
:10167C00289F299CDDF8A89000F063FB824600F0BF
:10168C0079FC00F020FB00F051FB00F01CFB00F09B
:10169C007DFD8246384600F050FB8346204600F024
:1016AC004CFB0446484600F048FB8146039900F089
:1016BC0023FB824600F02EFB13902146504603F08C
:1016CC00B9FD12904946504603F0B4FD08904FF016
:1016DC008040029903F0AEFD074600F01BFB07901B
:1016EC00CDF860A00A974FF0804000F038FC074618
:1016FC0009974FF0804000F03AFC179000F00DFB7A
:10170C00169000F0FDFA1C90039900F00CFB009071
:10171C00039900F0F9FA1190039900F0FFFA109078
:10172C00314600F016FB1B90029900F0FCFA059074
:10173C00029900F0F3FA1A90314600F0E5FA0F9096
:10174C00019900F0F0FA0490314600F0E7FA199094
:10175C003146304603F06EFD06905946009803F072
:10176C0069FD0746129800F002FC00F0BAFA074631
:10177C00089900F0D3FA00F0A9FA0746059800F092
:10178C00C9FA00F0A3FA07460A9800F0F4FB00F03F
:10179C00E6FB00F09BFA07460A9800F0C9FA00F045
:1017AC00E6FB00F093FA0746049800F0B3FA00F059
:1017BC0098FA0746069800F0ADFA00F092FA8246C5
:1017CC00139800F0D4FB0746009800F0D4FB00F00F
:1017DC007DFA0746089900F097FA00F082FA07465E
:1017EC00079900F09BFA00F071FA0746059800F093
:1017FC00C2FB00F076FA0746049800F0BCFB00F040
:10180C0065FA0746099800F093FA00F0B0FB00F077
:10181C005DFA0746069800F0AEFB00F062FA074648
:10182C0000F08AFA00F08CFA00F04DFAFEF700FC9A
:10183C0005F0D6F803F086FE8246129900F064FAA1
:10184C000746139900F06AFA00F04BFA0746009825
:10185C0000F06EFA00F03AFA0746079800F087FBA2
:10186C0000F034FA0746059800F062FA00F039FAF5
:10187C000746099800F07FFB00F079FB00F026FA90
:10188C000746049800F054FA00F02BFA0746069825
:10189C0000F04EFA00F01AFA07464FF0804000F0C4
:1018AC004CFA1590394600F027FA149010990F98BD
:1018BC0003F020FF00F041FA00904FF07C500599A6
:1018CC0003F046FD049903F043FD00F03BFA00F0F1
:1018DC0037FB494603F03CFD08901B991A9803F01E
:1018EC0037FD00F02AFA81461199199803F002FF8E
:1018FC0000F028FA00F0F9F9214603F029FD0790D1
:10190C004FF07C50049903F023FD069903F020FD61
:10191C0000F013FA04460F98109903F019FD00F02B
:10192C0011FA00F010FB00904FF080400F9903F07B
:10193C0081FC04461698214603F00AFD00F005FAD6
:10194C0013904FF08040119903F074FC1C9903F034
:10195C00D1FE294603F0FCFC069000F0DEF90546AA
:10196C00029800F0EFF91290394600F0D7F9119077
:10197C0006990A9803F05EFC81461399099803F0C6
:10198C0059FC00F0B2F98146009900F0A7F91199C1
:10199C0003F050FC00F0A9F900F0E7FA01461298A8
:1019AC0003F0D6FC00F0DEFA00F09FF981460898AF
:1019BC0000F0ADF900F099F981460098594603F012
:1019CC00C7FC0F904FF08040049903F033FC834622
:1019DC00059900F091F900F0BDFA00F07EF9279915
:1019EC0003F088FE10902046169903F0B1FC414696
:1019FC0003F0AEFC049000F0ABF98046384600F0E2
:101A0C00B6FA83460499179803F014FC0746069916
:101A1C00189803F00FFC00F059F907464FF0814479
:101A2C00029800F0A8FA109903F004FC00F04EF9AB
:101A3C0007460F9800F06EF900F048F90746284663
:101A4C0000F083F900F08EFA00F040F9054600F042
:101A5C008DFA0746149900F057F900F042F90899ED
:101A6C0003F0E8FB294603F045FE0546039800F019
:101A7C0064F90746029800F060F9824606991798B7
:101A8C0003F0D8FB00901399189803F0D3FB00F0E7
:101A9C0057FA0090214600F041F9109903F0CAFB67
:101AAC0000F04EFA0446159900F038F980F0004029
:101ABC00414603F04DFC0F9903F0BCFB00F043FAD8
:101ACC000446504600F0FCF800F04CFA00F03BFAEB
:101ADC000446149900F022F900F003F9089903F078
:101AEC00A9FB00F030FA804604990A9803F0A2FB97
:101AFC0004460699099803F09DFB00F024FA04466D
:101B0C00159800F034FA0146129803F021FC0F9955
:101B1C0003F090FB00F017FA04461198394603F0D5
:101B2C0017FC00F01FFA00F00EFA0446089800F0BB
:101B3C0004F900F008FA074600F0F9F8044600F042
:101B4C001EFA00F000FA044600F0D2F800F0FBF99F
:101B5C00044600F0F6F800F0F6F900F017FB044626
:101B6C00484600F008FADFF8BCA400F0E6F801469D
:101B7C000E9803F0EDFB0E9000F0EEF800F0DDF89F
:101B8C0001460D9803F0E4FB0D902146404603F00E
:101B9C0051FB00F0D2F801460C9803F0D9FB0C90E5
:101BAC00214600F0AEF800F0C8F801460B9803F09F
:101BBC00CFFB0B900E98FEF73BFA80460D9821F068
:101BCC000045FEF735FA04460C9821F00049FEF763
:101BDC002FFA824621F0004700207F4942462B46CF
:101BEC0004F03EFE22464B4603F038FC52463B4680
:101BFC0003F034FC04460B980D46FEF719FA21F05D
:101C0C00004122462B4603F029FC03F09BFCDFF835
:101C1C000C148866DFF80404446E0E9800F0ABF9DF
:101C2C00039903F067FD07460D9800F0A4F902999B
:101C3C0003F060FD05460C9800F09DF9019903F046
:101C4C0059FD83460B9800F096F9314603F052FD8E
:101C5C00064600F076F8044600F091F900F073F9AE
:101C6C000446584600F056F800F06DF9044630462C
:101C7C0000F07DF900F067F900F088FA0446384668
:101C8C0000F079F9DFF89413886100F065F8E34906
:101C9C00C861584600F06FF9E0490862304600F020
:101CAC006AF9DE4948621DB0BDE8F08F3D0AD7A342
:101CBC00703DF2BF6E1283BA9A9999999999234003
:101CCC00594603F017BD514603F014BD394603F0D5
:101CDC0011BD0146504603F03BBB0146584603F08C
:101CEC0037BB0146384603F033BB494603F002BD0F
:101CFC004046414603F09EBA4FF0804003F09ABA3A
:101D0C003146384603F096BA029803F093BA294646
:101D1C0003F090BA594603F08DBA5146019803F07E
:101D2C0089BA716A8346084603F084BA82464846EB
:101D3C00494603F07FBA83465046514603F07ABABF
:101D4C0082463846394603F075BA414603F0D2BC98
:101D5C003946039803F06EBA2846214603F06ABA56
:101D6C002DE9F041032BA8BF022302DA002B48BF58
:101D7C000123AD4C656AB5EB030C069B48BF0CF117
:101D8C00030C002B1CBF079E002E4FF00C0E0DD029
:101D9C00089F5FB10EFB0C4CDCF80080C3F8008090
:101DAC00DCF804303360DCF808303B600EFB054394
:101DBC0018605960681C032190FBF1F101EB4101A3
:101DCC009A60401A6062BDE8F0810000B81E85EB95
:101DDC0051B8DE3FCDCCCC3F0000F03F0000A0401E
:101DEC009999993F2DE9FF4F8C4FFD69BC6985B0DE
:101DFC002046FFF78CFF3E6A8046204600F0B7F87D
:101E0C008146786A00F0B7F8824600F0B8F80446CC
:101E1C00284600F0ACF804902946786A03F00AFAD8
:101E2C000546304600F0A3F88346786A00F09FF828
:101E3C000390796AFFF777FF07469DF8140050B1BD
:101E4C007A4E404600F093F88046484600F08FF8F2
:101E5C0000F08BF882464FF08046089800F087F827
:101E6C0002903146079803F0E5F901903146584647
:101E7C0003F0E0F900F06EF80090FFF741FF00F07E
:101E8C0065F8069903F0D6F900905146049803F0D2
:101E9C0031FC00F064F800F053F8009049462846F5
:101EAC0003F056FA029903F0C5F900F049F81299BB
:101EBC000860204600F05BF800F04CF800903146CA
:101ECC00069803F0B7F904460498514603F040FA1B
:101EDC0000F051F88246384600F049F800F036F828
:101EEC0000F040F8FFF7EFFE07460398FFF72DFFD1
:101EFC00029903F09FF9FFF7E9FE13990860284651
:101F0C00FFF7F3FE00F037F804460398414603F060
:101F1C001FFA00F024F800F016F80446584600F0BA
:101F2C0026F800F013F8089903F084F900F00BF888
:101F3C001499086009B0BDE8F08F00003333D33F2B
:101F4C00009903F0D7BB214603F0D4BB014600989F
:101F5C0003F0FEB901464FF07E5003F0F9B9019938
:101F6C0003F068B9079903F065B9814650463146CC
:101F7C0003F060B92046214603F05CB907462846B9
:101F8C00294603F057B92DE9F0420C4611461D467F
:101F9C0003F0DEF906462046FEF74AF802460B46E9
:101FAC002348244904F030FB074689461F48FFF7B5
:101FBC00DEFFFFF7DCFF06464FF08040FFF7DBFF4C
:101FCC00FFF7D9FF0146304603F016FBFEF730F859
:101FDC0004F07EFD3A464B4603F0E8FB06460F46FE
:101FEC002846FEF725F832463B4603F037FABDE8A3
:101FFC00F04203F0A7BA00000100C84118B7D1386D
:10200C002D431CEBE2363A3FAE47E17A14AEEF3F7C
:10201C000AD7A3703D0AEF3F0000084020050020BE
:10202C008FC2F53E9A99193F04360020000080BFFC
:10203C002BF697DD9387D93F52656164792E0A0D93
:10204C000000000001B513460A46012100A804F067
:10205C0093FD02BD38B55A4B1870581C002404E08F
:10206C0011F8015B00F8015B641CE4B29442F7D3F5
:10207C00511CBDE83440C9B2184604F063BD2DE9CB
:10208C00F84F05464F4C0020207060804FF480784C
:10209C0001F02DFD01F0FDFCE8064FF0010922D501
:1020AC00002001F007FF18B1207840F010002070DC
:1020BC000127F8B201F0FEFE80B17E1E608809FA9D
:1020CC0006F10843608047F08000C0B201F0F2FED8
:1020DC0020B1608808FA06F1084360807F1C062F47
:1020EC00E7DB01F0D6FCA8063AD5002002F04EF84A
:1020FC0018B1207840F02000207001274FF6FF75B2
:10210C000FF2C80B7E1E608809FA06FA10EA0A0F55
:10211C0021D0F8B202F03AF840B93946584601F0ED
:10212C00CCFA608885EA0A010840608008FA06F655
:10213C00608830420FD047F08000C0B202F026F821
:10214C0048B939460FF29C0001F0B7FA608885EA6D
:10215C000601084060807F1C062FD3DB01F099FC40
:10216C002078BDE8F28F17480078704715484088F2
:10217C00704730B5002206E01418135C65781554CE
:10218C00921C6370D2B28A42F6DB30BD10B50E4998
:10219C00A1EB60044FF07C5103F04CF8214603F0A6
:1021AC0049F8214603F046F801464FF07F5003F002
:1021BC00CFF82146BDE8104003F03CB80000000009
:1021CC00B836002088370020DF59375F44657669C0
:1021DC0063655B25645D204D616720646561642ED9
:1021EC000A0D00004465766963655B25645D2D32DC
:1021FC00204D616720646561642E0A0D00000000AB
:10220C0010B584B00820ADF800000420ADF8020031
:10221C009049914800780968904C8000019000A882
:10222C008847002814BF00200298A060010008BF56
:10223C0013200BD04FF6FF7004F00AFD0FF2202391
:10224C0010220A2104F12C0004F056FF04B010BD3A
:10225C0082494A681AB900B14860002070471120C1
:10226C0070473EB5134600250A467C4C30B1012818
:10227C001CD002281FD0042822D02BE0142927D1EF
:10228C00194604F10C0005F073FA0FF28900029064
:10229C0004F12C03FF20019000220A20009004F18D
:1022AC000C01A06804F0EEFC054614E001290FD1E6
:1022BC00187820700FE001290AD1187860700AE0B4
:1022CC000C2905D1194604F1200005F051FA02E061
:1022DC00182500E0022528463EBD10B502460846EA
:1022EC0000245E4932B1012A07D0022A07D0042A01
:1022FC0008D00CE014220C3106E0097800E0497893
:10230C00017005E00C22203105F032FA00E00224C5
:10231C00204610BDF8B50D460027287AC006164693
:10232C001C4601D50820F2BD069808B10B20F2BD61
:10233C0000A9284605F057FA012802D12780012070
:10234C00F2BDBDF800004AF63121401A05D0401EFE
:10235C00012804D9801E08D00FE0142006E00120CB
:10236C002080E8680078307009E00C20208002465C
:10237C00E968304605F0FCF901E027800A27384669
:10238C00F2BD2DE9FE430E468046307A00248006CD
:10239C0091461F4648BF08202AD402A9304605F0B2
:1023AC0022FA012824D0BDF808100A982B4D42F6C9
:1023BC000212891A40D048F22F12891A17D0491EDE
:1023CC0004D0491E16D0491E24D040E038BB012F42
:1023DC0023D1F16899F800000870F068A84206D182
:1023EC000120696819B109680A0018BF884720469E
:1023FC00BDE8FE8398B9012F0FD199F8000008B9F8
:10240C008024F4E7F1680870691CF0688842EED10A
:10241C000220E6E718B90C2F03D00D24E7E70B24B4
:10242C00E5E7F06805F120018842E0D10C2249462D
:10243C0005F09EF90420D4E70121019100903B4660
:10244C004A463146404604F07BFC0446CFE70A245A
:10245C00CDE700003C020020A0090020B40B0020B6
:10246C00212300008F23000000000000DFF800F0A3
:10247C0013C10110DFF800F0F5C00110DFF800F017
:10248C0049BA0110DFF800F025C20110DFF800F0A6
:10249C00C1C20110DFF800F0E3BF0110DFF800F05B
:1024AC00B5C10110DFF800F0D5C00110DFF800F065
:1024BC0095C00110DFF800F00DA80110DFF800F056
:1024CC00BDBE0110DFF800F021C10110DFF800F0F3
:1024DC002DBF0110DFF800F0E1B50110DFF800F0BE
:1024EC00D5C20110DFF800F0D9C20110DFF800F0FE
:1024FC00F1C50110DFF8DC00007D704738B5DFF85E
:10250C00DC00DFF8D4500068EFF3118480F31188FD
:10251C00A8680021FFF7CAFF6969081AA9698142F6
:10252C0038BF002084F3118832BD00002DE9F04142
:10253C00DFF8A800DFF8A0400768EFF3118887F3F5
:10254C001188A0680121FFF7B1FF0121A1830021AF
:10255C00E183656921682268461B801A691A8842E2
:10256C0004D20020A08388F311882AE088F3118814
:10257C00002005E04519361A29460120FFF79AFF7D
:10258C008642F7D2EFF3118887F31188E18B01298A
:10259C0003D129460020FFF78DFFA16910F1010F2F
:1025AC0008BF084603D0801B814238BF084641193A
:1025BC00FFF784FF012020840020A083256088F38E
:1025CC001188BDE8F08101617047808A7047FFF780
:1025DC0065BF0000A40100207801002080E4000009
:1025EC000446DFF8CC000068704700002DE9F84F76
:1025FC0004460D46FFF73EFF0646FFF7F2FFEFF3EA
:10260C00118780F31188D4F80880A84502D187F38C
:10261C00118847E0002DDFF8A49007D5DFF8C4003F
:10262C0000684FF0000A00EB090B06E0012000FAED
:10263C0005FAD9F8180000EBC50B207D012822D132
:10264C002046FFF73FFF206CFFF710FF28B1D9F8A9
:10265C000400E1688843C9F80400D9F81000A042CE
:10266C0007D1C9F814B02146DBF80000FFF7AFFF23
:10267C0003E021465846FFF711FFD9F804004AEA57
:10268C000000C9F80400A560C4F80CA0C4F840B060
:10269C00002D44BF0020C9F814000120A9F808003F
:1026AC0087F311883046FFF7E9FE4046BDE8F28F0C
:1026BC0080E40000DFF8301009687047000100204A
:1026CC0010280ED3A0F11002DFF82010520901EBF4
:1026DC0082011038012200F01F0002FA00F0C1F84C
:1026EC0080027047E805000080E4000000E000E094
:1026FC0005F090B880B5002301223421DFF8F009F1
:10270C0005F046FB00B10120C0B202BDDFF8C41ACF
:10271C000A68002812BF42F001005008400008600F
:10272C00704700007047FEE710B582B0042005F03A
:10273C0063FB022818BF03280DD1032000901C2333
:10274C004FF040520021DFF8A80905F0FEFABDE871
:10275C00164004206AE0DFF89C19DFF89C0A09682F
:10276C000C18DFF89419DFF8940A0968B0FBF1F142
:10277C002046FFF78BFE2046BDE81640FFF78ABEC9
:10278C0080B5DFF878090078DFF8740901688908EA
:10279C00890041F00101016005F03BFB05F0C5FB30
:1027AC00DFF86019002008600220DFF8941909682E
:1027BC00C9688847DFF85C0A01684908490001606C
:1027CC0000F01BFA042000F013F900F0B6BC000076
:1027DC00DFF82C1A405C70470022012904D1012833
:1027EC0007D1DFF8600903E0012802D1DFF82C0AD9
:1027FC00026810467047DFF8000A00797047000045
:10280C0005F01CBB10B5DFF83C160968EFF311841A
:10281C0081F31188DFF8E019C9880120012908BF6C
:10282C00FFF768FF84F3118810BD000030B5DFF8A6
:10283C001416DFF888390A68EFF3118182F31188D6
:10284C00B0FA80F2C2F11F02D25CB0FA80F4C4F18B
:10285C001F04551EE55405D1DFF89C29136823EAA3
:10286C000000106081F3118830BD00002DE9F041AB
:10287C00FFF720FFEFF3118481F31188DFF8801943
:10288C00425C531E435444D1DFF87819DFF8788941
:10289C0001EB80052E786F88300618D5D8F800101B
:1028AC00096A38468847D8F80010896A384688473C
:1028BC00D8F80010096B38468847DFF8501901200A
:1028CC000860DFF84C0900688007FAD514E0700640
:1028DC0006D5DFF8B01951F82710002088470BE017
:1028EC00D8F80010896938468847D8F80010496B29
:1028FC00384688470228F8D106F03F003F2818BF19
:10290C00FFF7B4FF687800F03F003F2818BFFFF7CF
:10291C00ADFF84F31188BDE8F08110B508B1140047
:10292C0001D1032010BD8160C26003610146DFF854
:10293C00E828DFF84C0912681018FFF7C7FD0020D3
:10294C0010BD0000F8B50446DFF8F804DFF8B01845
:10295C000068EFF3118580F31188625C531C63549B
:10296C00002A3ED1DFF89C1801EB8407387800F080
:10297C003F003F2818BFFFF7E5FF787800F03F00D5
:10298C003F2818BFFFF7DEFF7E883878DFF87878AD
:10299C00010613D53968C969304688473968496AD0
:1029AC00304688473968C96A3046884700F038F89D
:1029BC00DFF85C0800688007FAD512E0400606D5FF
:1029CC00DFF8C01851F826100120884709E0396853
:1029DC004969304688473968496B30468847012831
:1029EC00F9D185F311882046BDE8F24005F0AEBC64
:1029FC00DFF850140A68EFF3118182F31188DFF8C5
:102A0C00F827136803431360B0FA80F0C0F11F007D
:102A1C00DFF8A827835C5B1C835481F31188704713
:102A2C00DFF8E81701200860704700002DE9F04F2F
:102A3C0083B04FF0000800210128C1468A4618BF18
:102A4C00022412D1DFF8FC03DFF834780268EFF3CC
:102A5C00118082F311883A79012A06BF02223A7159
:102A6C00012180F3118809B10624BDE0FFF702FDB6
:102A7C000090012000F0E6F8040002D0012038712B
:102A8C00AFE0FFF70FFDDFF828180190C1F80090B8
:102A9C00012005F0B1F9012804D1002005F036FC25
:102AAC004FF00108DFF8E047DFF8545721688968D8
:102ABC000020884700F0A1F8687C08B14FF00109AC
:102ACC00287C08B149F00209E87B08B149F00409F7
:102ADC00E87ADFF8306718B1A16AF08D096B884786
:102AEC00A87A18B1A16A708D096B8847FFF798FF17
:102AFC0049F02000A16A896988470120FFF706FE8A
:102B0C003878C00748BF4FF0010A12D4DFF8980795
:102B1C0005F056FC8346BBF1040FF7D000F067F8C4
:102B2C008008800008600321A26CDFF87C075268E3
:102B3C009047002005F04CFC00F05FF8A06A806B19
:102B4C008047BAF1000F0AD1A26CDFF85C0752681B
:102B5C005946904700F04BF840F003000860012004
:102B6C00216889688847DFF8440700688006FAD531
:102B7C00B8F1000F1CBF012005F0C8FBA16A496920
:102B8C0048468847A16A496B484688470128F9D1CD
:102B9C00E87A18B1A16AF08DC96A8847A87A18B189
:102BAC00A16A708DC96A8847FFF73AFF0020FFF7CA
:102BBC00ADFD03203871042000F044F8DFF8F01666
:102BCC000120086000F019F805F010FD082000F055
:102BDC0039F80446012038710198FFF77BFC05F0A9
:102BEC0090FC0098FFF74AFC2046BDE8FE8FDFF80A
:102BFC00D006DFF8CC1600687047DFF8A80600682E
:102C0C007047000038B58F48DFF874560068EFF352
:102C1C00118480F31188E888012803D105F062F94A
:102C2C000020E88084F3118831BD000010B5FFF757
:102C3C0041FDEFF3118481F31188FFF743FC84F31A
:102C4C00118810BD38B500F02AF80818FFF70EFCF3
:102C5C00002540B9204600F008F820B1DFF86806DE
:102C6C00006880470225284632BD70B500F017F881
:102C7C000D182846FFF732FC0646B068204206D0F5
:102C8C003169F26820469047C0B2012806D0304620
:102C9C00FFF728FC0646AE42EFD1002070BDDFF8EE
:102CAC00781509680446DFF8D805704730BF7047BF
:102CBC0070B505F097FCDFF840552E6806F00C0057
:102CCC000C284BD0700727D4FFF718FC04460021C2
:102CDC000120FFF781FDA0421ED2DFF8C00300687F
:102CEC004519DFF814040668DFF8D8050068B0FB56
:102CFC00F6F0211A2846FFF7C9FB2846FFF7CAFB56
:102D0C004FF47A70B0FBF6F200210120FFF78EFE33
:102D1C002846FFF7B7FB23E030071FD4DFF8F40495
:102D2C00DFF8E444DFF87C55F10601685ABF490826
:102D3C00490041F001010160DFF88405016841F0B0
:102D4C000301016020202168896988472868206870
:102D5C00806B804701202860286801E0FFF7A6FF00
:102D6C0005F044FCBDE8704005F0F6BB10B50C183E
:102D7C0005F038FC401E8041C00FDFF860150A6872
:102D8C00002AFCD0246801220A6008B105F02EFC50
:102D9C00204610BD80B50420FFF72AFE0820FFF75F
:102DAC0027FE0E20FFF7CEFDDFF82005DFF82015FB
:102DBC000068C0F3815003280CBF0120002008805C
:102DCC00DFF8100502680AB1012002BDDFF81035EA
:102DDC0040221A600122C2610020486002BD10B579
:102DEC00DFF85C13DFF8F04482B009680968202032
:102DFC0088470F202060072341F61D5060604FF478
:102E0C00C0720220009000F0C9F8DFF8D80401214C
:102E1C00016001688907FCD501212161DFF8B0440C
:102E2C002188012907D1002101610220202100F015
:102E3C0091F8012004E00121002000F08BF8022021
:102E4C00606013BD80E400002DE9F041DFF89804C8
:102E5C00DFF87C4482B0016842688A4342600161B9
:102E6C006068002804BFBDE8F341FFF7B8BF012834
:102E7C00DFF878141AD10220606008684BF2F52153
:102E8C0048436188000A11B10021618006E0DFF837
:102E9C0060140968090210EB11204008DFF8541483
:102EAC000860000C4860012088600CE002280FD1FB
:102EBC000868B0F5C06F02D10020606045E00321C6
:102ECC00616000F06FF80121BDE8FC41002041E099
:102EDC0003283DD1002060600868A0F5C065A0689B
:102EEC0000F0B2F80646284600F0AEF886422CDA1E
:102EFC00A669284600F0ACF88019A061E568606905
:102F0C007B4E85420ED0A769A7F1100000F09CF80B
:102F1C0080462069103800F097F8804502DABFB27D
:102F2C0000970BE0ADB2009508234FF47F4230219F
:102F3C00304604F00AFF206980B2009012234FF44F
:102F4C00F8020421304604F000FFBDE8F3418AE0AA
:102F5C00BDE8F38170B50D46DFF89C4382B00321C8
:102F6C0021600021DFF89463316031688907FCD45B
:102F7C0080B200900523602200F010F80120306030
:102F8C0030688007FCD5A561002020600821DFF89F
:102F9C005003C16001600120206073BD00215448C2
:102FAC0004F0D3BE70B50646514C82B03021204699
:102FBC00FFF7DCFEDFF81853C0F30720E8600421AC
:102FCC002046FFF7D3FEC0F384402861A6F5C0600D
:102FDC00A8602E6900F03CF88019A861A969E8681E
:102FEC00022909DA401E6FF03F039842B8BF184619
:102FFC0010310BD5002109E01E2908DB401C4028AC
:10300C00A8BF3F2010392029A8BF1F21A9616861E2
:10301C00082380B200904FF47F42302100F011F869
:10302C000120009011234FF4003200F009F8A86938
:10303C0080B2009012234FF4F80200F001F873BD37
:10304C000421204604F081BE002848BF404270474E
:10305C0000284CBF6FF00101022101EB400003215D
:10306C0090FBF1F0704780B5DFF878020021016029
:10307C0001688907FCD40021016041600120DFF860
:10308C00541208600E20FFF7F1FB0820FFF7CEFB6F
:10309C00BDE802400420FFF7C9BB0000F8000000A7
:1030AC0010B504460020D4E90A2347F6906105F0D8
:1030BC00A5FA012928BF4FF0FF3010BD10B50C4602
:1030CC0005F014FB011D201AB0F1004F05D8081BA8
:1030DC00B0F1004F38BF8C4200D20C46DFF82022F2
:1030EC001268526A2146BDE81040012010470000CA
:1030FC0000A00C4068E4000084E400009937002034
:10310C0004400340401009402DE9F04180460A4636
:10311C00D8E90A01D8E90C45A0FB026701FB02774C
:10312C00A6196F41340C002244EA07414046FFF7D0
:10313C00C5FFC8E90E67BDE8F0814FF0FF3002BD56
:10314C00A001001074E40000F8B50546DFF8B801E2
:10315C00DFF8B8610068DFF8B871EFF3118480F321
:10316C001188306840F0800030600120B9684968EF
:10317C008847F96A096A142088472869B0F5802FB6
:10318C0034BF0421010CBA68526A012090473A6896
:10319C001268232100209047B968C969012088472B
:1031AC00306820F4E02040F480303060306840F02B
:1031BC000100306084F31188F1BD00005C37002001
:1031CC00DFF85401036840680022002110185941AF
:1031DC00704700000C200840DFF82411DFF82401B0
:1031EC0010B5096844684968012088476069A1697D
:1031FC00BDE81040084700009C0F0020A08601008D
:10320C000837002018E00000B801001028200860E2
:10321C00282008408C2108406CE4000078E4000071
:10322C00F8B504460D46FFF7CBFFD4E90A673246E2
:10323C003B4605F0E3F93DB1A6FB002306FB013349
:10324C0007FB0033C4E90C23F2BD38B5DFF8BC40F2
:10325C00DFF8C0502068400840002060206840F033
:10326C00800020600120E062E06A29684968012042
:10327C008847696A096A14208847E06A31BD0000F2
:10328C009C0F0020400200209001001080B500F03F
:10329C0004F8000C40EA014002BDDFF88000006831
:1032AC008EE700002C200940004003401410094018
:1032BC000C40094009B9DFF86810FFF717B9000096
:1032CC00242208407CE4000070E40000B43F00506D
:1032DC00DC12002004800C400C400C4000800C40A0
:1032EC002C500C4034600C4028500C4008400C40D2
:1032FC00102009403C600C4000400C4038600C40F1
:10330C008C010010E401002080E400000020094042
:10331C00840100108C01001008200940EC010020F1
:10332C00A0010000DFF8FC14096821B10A8982426F
:10333C00FAD1084670470020704700BF13B5044609
:10334C0005F01DF818B1002000F002F806E008E0C6
:10335C00009001AB22464FF0FF31704700F00DF8A2
:10336C0016BD4FF0FF3016BD00F007F80EBD08B5C6
:10337C0082B00023009302ABF6E777B58DB01C4604
:10338C001498ADF8180000250F9828B92FE10EAA53
:10339C000DA800F07BF96D1C00F034F9080000F06A
:1033AC0020812529F3D100F02DF92D2905D10120FB
:1033BC00ADF8060000F026F902E00020ADF806009A
:1033CC00302904D10120049000F01CF901E0002008
:1033DC000490002000904FF0FF3002900A202A2920
:1033EC0018D12168216051F8042B2160009200F063
:1033FC001AF9009A002A11D50122ADF80620009A7C
:10340C00524200920AE0009A00FB021130390091FE
:10341C0000F009F9A1F130020A2AF4D32E291DD1AA
:10342C00002102910F990F9A0978521C2A290F92A8
:10343C0010D100F0F2F80291002944BF0020029054
:10344C0000F0E0F80AE0029A00FB02113039029118
:10345C0000F0E9F8A1F130020A2AF4D3049808B17B
:10346C00009804906C2918BF4C2905D10120ADF8A7
:10347C00040000F0C7F802E00020ADF8040008A832
:10348C0007900CA8059000200390642918BF6929A7
:10349C000DD1BDF818000028FFD000F0B8F86FF07F
:1034AC0009030298049A8242B8BF049019E00A23D7
:1034BC0075291FBF1023782908236F2903D1BDF864
:1034CC00180038B906E0702913D1049320682060E5
:1034DC00016814E000F09BF8049A02988242B8BF8D
:1034EC000490049A059800F0A4F807900599081A1E
:1034FC002FE0632919D12068206001680FE0001DBE
:10350C00206010230598082200F093F8401E0790C5
:10351C0040200799087005980799401A19E0001D7A
:10352C00206007980170012013E0732913D100F07B
:10353C0074F8079111B90FF2BC000790079805F0C9
:10354C00E7F80390029810F1010F1ED003998842FE
:10355C001BDA039019E00F98401E0F900E9802286A
:10356C0013D3029810F1010F02D00E99884201D3A7
:10357C000E9800E0401CDFF8B462366802906B468F
:10358C0022460FA90DA8B047451900980399401A77
:10359C000090BDF8060038B902E000F02FF86D1C61
:1035AC000098401E0090F8D50398411E039150B12D
:1035BC000798401C07900EAA10F8011D0DA800F0EA
:1035CC0065F86D1CF0E7BDF8060000283FF4E4AE8A
:1035DC000098401E00903FF5DFAE00F00FF86D1C18
:1035EC00F6E70D9810B10D9900200870284610B020
:1035FC0070BD0000286E756C6C2900000EAA20218D
:10360C000DA843E00F9810F8011B0F90704720682D
:10361C0020600168001D206070472068206050F811
:10362C00041B206070470F990F9A0978521C0F9257
:10363C007047F0B500240025002B44BF5B420029E5
:10364C0002D54942521E2D25B1FBF3F60FF2280785
:10365C0003FB1611641CC95D00F8011D31460029DD
:10366C00F2D19442BEBF302100F8011D641CF8DB7E
:10367C000DB100F8015DF0BD3031323334353637E1
:10368C0038396162636465660000000010B50C4651
:10369C00116802290BD3491E1160016819B14A1C2B
:1036AC0002600C7010BD04F06AFE00B100E010BDA9
:1036BC002046BDE8104004F060BE0EB400B501A970
:1036CC00FFF73BFE5DF810FBDFF864110968084753
:1036DC000000DFF860010068004701207047FEE73A
:1036EC00704710B50446606808B9012010BD0B4640
:1036FC000146206848A200F077F8A1684118A16043
:10370C0061680129A4BF081A6060002010BD000088
:10371C003EB50D464249098814468142034628BFEE
:10372C000FF21C1210D240490988814207D3FFF7CF
:10373C00F9FD21464268284600F056F83EBD354951
:10374C00098831B90FF204122146284600F04CF8D2
:10375C003EBD394B0095002C48BF47F6FF74002145
:10376C00029101946A461B683449984702983EBD01
:10377C002DE9F843170048BF47F6FF770446884603
:10378C00002664B3208818B13A46FFF7C1FF0646FD
:10379C00B91B012922DB208820B120A2404600F071
:1037AC0023F88619A068C8B1656875B1284604F07D
:1037BC00AFFFA7EB0609401D814506DB2B460FF238
:1037CC00A002494600F00EF88619B91B122905DB38
:1037DC00A3680FF2940200F005F886193046BDE894
:1037EC00F28300004046FFE708B478B504001ABF26
:1037FC002668002E00260D4605AB3046FFF7B7FDB8
:10380C00854238BF681E16B121684118216072BC10
:10381C005DF808FB8A050000257300003A200000C3
:10382C00D0000000AC0200208A00000090E40000F0
:10383C0088E400008CE4000094E40000EF36000003
:10384C007B6D6F64756C652325647D007B6D6F6487
:10385C00756C652D726F70653A25787D00000000DF
:10386C00222573222C2000006C696E652025643A99
:10387C0020000000DFF800F041AC0110DFF800F090
:10388C0085C10110DFF800F079B50110DFF800F008
:10389C00F5B80110DFF800F0A9C1011000B583B034
:1038AC000821ADF8001001900521ADF8021000A818
:1038BC0053490968884707BDF0B589B004460D46E1
:1038CC0016461F4608232422002100A8FFF7D6FF26
:1038DC000F984C490968069000AB4FF47A70B0FB16
:1038EC00F1F101FB07F0059001FB06F20E98ADF823
:1038FC00100029462046FFF7C5FF204609B0F0BD51
:10390C00FEF7C8BD38B504460D46FEF75EFE10B195
:10391C002046FEF7B7FD00F031F800FB05F120461C
:10392C00FEF7B4FD2046BDE83240FEF7B3BD80B5CE
:10393C00FEF74BFE00B10120C0B202BDFEF7A2BDE6
:10394C0070B504460D46FEF740FE20B12046FEF74A
:10395C0099FD012600E0002600F010F845432946A9
:10396C002046FEF793FD29462046FEF72CFE26B195
:10397C002046BDE87040FEF78DBD70BD2149096839
:10398C004FF47A70B0FBF1F0704710B5044600218B
:10399C00FFF77CFF204610BD70B584B004460820AC
:1039AC00ADF800000D460420ADF802000C201449BF
:1039BC0009680190164600A8884758B9029949B180
:1039CC008E602046FEF76AFD15B12846FFF752FFC0
:1039DC00012003E03046FFF761FF002004B070BD0A
:1039EC0010B50446FEF742FD38B92046FFF752FFEA
:1039FC008468FFF753FF204610BD002010BD000067
:103A0C003C02002084E4000070B5044604F00F056D
:103A1C00062D18DA15B96821012016E0DFF8C06808
:103A2C00B07FA8420AD000F044F860B10120A84051
:103A3C00C0B203F08FF8B57703F0C7F8A54214BFF6
:103A4C006921682100E0D2E00020BDE8704003F05D
:103A5C009AB810B500F00F04062C16DA14B90C2124
:103A6C0001200EE000F025F878B10120A040C0B292
:103A7C0003F070F8DFF86808847703F0A6F80C21DF
:103A8C000020BDE8104003F07EB803F09EF8002043
:103A9C0010BD10B5DFF84848A07F48B100F009F818
:103AAC0010B1002003F056F803F08FF80020A07737
:103ABC0010BD7021002003F066B880B5DFF8200837
:103ACC00006D01220C2105F02AF8DFF81818DFF838
:103ADC00180800F0EAF9BDE8024000201CE080B5AF
:103AEC000C2005F02FF8012818BF002002BD10B5DE
:103AFC00DFF8EC47206D50B904F1580104F1640073
:103B0C0004F053FF20650FF2C97105F036F8002060
:103B1C006065BDE81040FFE770B5044604F00F0582
:103B2C00A5421CBFAD1DEDB2DFF8B46725B9306DF1
:103B3C00DFF8B81705F00DF800F09AF9002847D017
:103B4C000020B077A919A85508730122802070773E
:103B5C0006F11D016B20FEF77DFA3DB9002000F047
:103B6C003FF8052000F035F8002006E0042000F0B6
:103B7C0037F8062000F02DF8042000F098FA1920F0
:103B8C00FEF768FA03F021F8204600F093F90500DF
:103B9C001DD000F06DF900B929E0707EC000B07640
:103BAC0000F0F4F8F07EC00000F049F903F00DF8D5
:103BBC00DFF8301709684FF4FA60B0FBF1F0FCF74E
:103BCC0017FD204600F032FA204600F0F5F92846A1
:103BDC0070BD7077012206F11D011D20FEF73ABA67
:103BEC007077012206F11D011A20FEF733BA02F09C
:103BFC00ECFF002070BD6077012204F11D016B20E9
:103C0C00FEF728BA10B582B0044600208DF80000EB
:103C1C00FFF765FF18B902F0D8FF002016BD00F0C1
:103C2C0027F948B1012200A93A20FEF70BFA08B98E
:103C3C008DF8000002F0C9FF9DF8000016BD2DE9BB
:103C4C00F04782B00D468046FFF749FF08F00F069B
:103C5C000028344650D0062C4EDAA01D5FFA80F9AD
:103C6C00444518BF4C46DFF87876E05D58BB55B339
:103C7C00B246C24518BFCA46FFF731FF08B34046EB
:103C8C00FFF7C2FEF8B109207877012207F11D0178
:103C9C006B20FEF7DFF9A0B13F20787700F047F8F2
:103CAC0000210AF8071060B1012207F11A011C204B
:103CBC00FEF7D0F928B1012207F11D013A20FEF7D9
:103CCC00C1F902F082FFE555E05D00282AD0464597
:103CDC0018BF4E46F05DC04378774046FFF794FE20
:103CEC0018B300F024F802F070FFF05D800900F0CA
:103CFC000105FFF7F4FE10B902F067FF15E0012192
:103D0C0000F0DCFA88B14046FFF7A3FE38B1002D75
:103D1C0014BF1120002000F0D3FA02F056FF00F07F
:103D2C00CCFA02E0404600F047F9BDE8F3870122E7
:103D3C0007F11D016C20FEF78DB970B5DFF8A06599
:103D4C000446707E0125A04201D1012070BDE00027
:103D5C00B076FFF7C4FE18B902F037FF002070BD33
:103D6C0000F02CF80028F9D000F010F800B900256C
:103D7C0002F02BFF002DF1D074760124204600F0C8
:103D8C000BF8641C062CF9DB284670BD012206F1E9
:103D9C001A011C20FEF75EB910B500F02BF900B922
:103DAC0073E600F065F840B10122DFF844151C20E1
:103DBC00FEF750F900F05EF8204610BD002023E617
:103DCC0038B504460D46FFF78AFE00B910E000F046
:103DDC004FF860B1062229463B20FEF733F900F07C
:103DEC0049F81CB106212846FEF7C3F9204632BD1E
:103DFC0002F0EBFE002032BD70B5DFF8E46404463F
:103E0C00F07E0125A04201D1012070BDFFF767FEB5
:103E1C0000B9ECE6FFF7D2FF80B1E00000F00FF83C
:103E2C0000B9002502F0D1FE05B1F476002420463D
:103E3C0000F00CF8641C062CF9DB284670BD3077BA
:103E4C00012206F11C011B20FEF704B910B500F08D
:103E5C00D1F800B919E600F00BF840B10122DFF8F7
:103E6C0094141B20FEF7F6F800F004F8204610BD61
:103E7C002046C9E5044602F0A8BE38B504460D46F6
:103E8C00FFF72DFE00B9B3E7FFF7F2FF60B1062292
:103E9C0029464320FEF7D6F8FFF7ECFF1CB10621AC
:103EAC002846FEF766F9204632BD0968B0FBF1F0F2
:103EBC00FCF79EBB10B500F09DF8B8B1FFF7D8FF2A
:103ECC00C0B1DFF81C44207E38B10020DFF8141498
:103EDC0020764CF25030FFF7E8FF00F00DF875201B
:103EEC00FEF7B0F810B1607F712800D0CDE502F07C
:103EFC006CFE012010BD6077012204F11D0170479A
:103F0C0080B504F0B3FEDFF8D823527E2AB1022A22
:103F1C000AD005D3032A0BD00EE0DFF8DC330AE01D
:103F2C000022DFF8D83306E00022DFF8D43302E0B9
:103F3C0000224FF07D532BE0002002BD80B5DFF84E
:103F4C00A023D27E2AB1022A13D00AD3032A18D076
:103F5C0002BD04F08BFE00F02AF80022DFF8A43337
:103F6C0016E004F083FE00F022F80022DFF898330C
:103F7C000EE004F07BFE00F01AF80022DFF88C3320
:103F8C0006E004F073FE00F012F80022DFF8803334
:103F9C0001F00CFCBDE8044001F0D4BA80B504F08B
:103FAC0065FE00F004F80022DFF86833F0E7002229
:103FBC004FF07C5301F0FABB10B500F01BF868B160
:103FCC00062C0BDAFFF754FF60B1DFF814433F20E7
:103FDC0000F009F810B14F20FFF70DFEBDE81040BE
:103FEC0002F0F3BD10BD6077012204F11D016C20BD
:103FFC00FEF730B8044672E510B50C4600F00F0120
:10400C00062900DB41E5FFF7FFFC60B1202004B17D
:10401C002220B349487701221D313720FEF71AF8C8
:10402C00FFF728FF00E00024204610BDF8B5FFF78D
:10403C00E1FF04F00F05002804BFBDE8F14002F0D9
:10404C00C4BD00F039F8002830D0A5421CBFAD1D0E
:10405C00EDB200F086F820B3A14EAF4F0F2000F068
:10406C0026F80A20FDF7F6FF00F04CF8032239463B
:10407C001020FDF7E7FF60B1397806EB4500803181
:10408C00018479788031018707EB4501B87880305D
:10409C008880012000F00BF80B20FDF7DBFF02F00D
:1040AC0094FD1CB12046BDE8F4406DE0F1BD707785
:1040BC00012206F11D017047012120469CE738B50D
:1040CC00FFF70DFD002804BFBDE8314002F07DBDB7
:1040DC000024834DFFF7F0FF80B100F042F850B19F
:1040EC0000F04AF800F00EF8605D400601D500F0D3
:1040FC003BF802F06AFD0021FFF7DFFF641C062C81
:10410C00E8DB31BD7749096842F21070B0FBF1F081
:10411C00FCF76EBA70B5FFF76DFF04F00F060028C0
:10412C0004BFBDE8704002F050BDA6421CBFB61DD6
:10413C00F6B2FFF7C1FF98B100F013F858B1684D13
:10414C0000F01AF8FFF7DEFF705D400601D500F0B5
:10415C000BF802F03AFD1CB12046BDE8704013E0AC
:10416C0070BD2046FFF775BC11206877012205F160
:10417C001D010A20FDF76EBF01206877012205F1B1
:10418C001D010B20FDF766BF002135E738B5FFF7A1
:10419C0031FF88B1FFF790FFA8B1FFF7E2FF504D58
:1041AC00FF206877012205F11D010020FDF74AFF71
:1041BC0010B1687F482800D01AE602F006FD0021F5
:1041CC00FFF77BFF012032BD2DE9F041804608F05E
:1041DC000F05062D84B00F460ADA45451CBFAD1DF0
:1041EC00EDB23F4C2E1906203073FFF778FC18B94E
:1041FC0002F0EBFC00205DE0002030734046FFF73E
:10420C0003FC22208DF80000012200A93720FDF7C5
:10421C0021FF08B90520307302F0D7FC307B08B1C0
:10422C00012047E04046FFF714FC012200A90220C0
:10423C00FDF708FF98B39DF80000C0072DD50722A5
:10424C0001A90320FDF7FEFE28B301A88179090717
:10425C001FD4BDF80410398004EB4502B0F90210EC
:10426C007980B0F90400B880B7F90030B2F9204079
:10427C0063431B123B80B2F93820514309127980F9
:10428C00254901EB4501B1F9041048430012B880EF
:10429C0007E0032004E0042002E0022000E00120FB
:1042AC003073112000F00CF802F08FFC0DB100F00F
:1042BC0004F8307B04B0BDE8F081002140469BE659
:1042CC008DF80000012200A90A20FDF7C3BE0000F2
:1042DC00072904D10248406D010018BF0047704700
:1042EC002C0F002084E40000A08601000700008051
:1042FC00460F0020480F00200000103F0000203F18
:10430C000000303F00406F4000407F4000408F4035
:10431C0000409F4000C0B240D8360020DFF8E809CA
:10432C00007D28B1DFF8E40900687D21484340098D
:10433C007047DFF8D419C97C39B1002804BF0120BB
:10434C0004F0A4BE012004F09FBE704700B58FB0EE
:10435C0008233C22002100A8FCF742F9DFF8B00941
:10436C0000F15001079100234FF44071089100AA0D
:10437C00012106910FF28131FCF736F90FB000BD27
:10438C0030B5DFF8901985B0032008600120DFF804
:10439C007849207504F0A2FE02F01AFCFF223021AD
:1043AC0004F1200000F0B2FF002000F019FB04F033
:1043BC0084FF68B104F120023021802004F0C6FF94
:1043CC0018B90FF67030FFF778F904F0A1FF03E08D
:1043DC000FF67830FFF771F9012000F001FB002097
:1043EC00A07504F094FC0FF2396004F088FC0FF215
:1043FC00356004F088FCDFF8200904F0F8FC30B9D3
:10440C004FF4804005F06FF80120E07403E00FF6E4
:10441C001C10FFF752F90FF6344104F1600004F060
:10442C00C4FA606508B10121E17510221B2104F06A
:10443C00E0FB606D18B90FF62010FFF73EF96FF036
:10444C007E0060740020A07400F043FA0120DFF8B5
:10445C00CC180968ADF8020000A88847BDF8040024
:10446C0060830298206504F19C00FFF78EFAE065EA
:10447C000023042001904FF47A720020009004F184
:10448C0078000FF2FD71FFF717FA01211F2002F0DF
:10449C0053FF01208DF801000DF101020020ADF851
:1044AC000C0001208DF800000820ADF80A004FF434
:1044BC004870ADF808000020ADF806006420ADF897
:1044CC0004000120ADF80200014640F2053005F071
:1044DC0025F803AA022140F2063005F01FF8DFF898
:1044EC00402800F0A1FB22460E2140F2073005F0D7
:1044FC0015F800AA01214FF4447005F00FF80DF1E6
:10450C000A02022140F2113005F008F802AA022139
:10451C0040F2123005F002F80DF10602022140F2D1
:10452C00133004F0FBFF01AA02214FF4457004F094
:10453C00F5FF0DF10202022140F20F3004F0EEFF04
:10454C000FF6B0220B21002002F0F6FDA021062070
:10455C0002F0F2FEA021072002F0EEFEA0210820BE
:10456C0002F0EAFEA021092002F0E6FE4FF0FF3037
:10457C0002F0DFFD4FF0FF3002F0BBFD05F07AFCDE
:10458C00FFF7CCFE00F244500A21B0FBF1F505F028
:10459C007BFD01466420B5FBF0F200FB12530FF2D9
:1045AC00CC70FFF78AF8B5F5B47F10D80FF2E47031
:1045BC00FFF783F80A2400F006FA641EFBD10FF211
:1045CC00E470FFF77AF8022005F072FDFEE70FF6B3
:1045DC0030221121012005F055FC0FF638252A4612
:1045EC000521022005F04EFC2A460521052005F088
:1045FC0049FC0FF628221921032005F043FC0FF685
:10460C0044220821042005F03DFC0FF62C22092140
:10461C00062005F037FC0B2003F044F8012000F0D5
:10462C005CF93020FDF72BFD0546302D06D100F04E
:10463C005FF80FF28070FFF740F806E000F0C3F966
:10464C0029460FF28470FFF738F8FDF78FFD01460D
:10465C000FF29870FFF731F8208C4FF6FF718842FB
:10466C0004D10FF2A470FFF728F828E080070CD4CF
:10467C0004F124020C210420FDF7F3FD0420FBF7C8
:10468C00DAFF208B40F00200208394F820004007D2
:10469C0015D404F130020F21042005F0E5FD04F1DE
:1046AC003F020F21052005F0DFFD042001F05EFA2A
:1046BC00052001F05BFA208B40F00400208305F00C
:1046CC00EBFE01F027FA04F1B00005F0FCF8002035
:1046DC0002F0D3FC608BC0B202F0CCFC606D0FF228
:1046EC00F95104F04AFA012000F07AF905B030BD16
:1046FC0005210F20A1E200002DE9F04786B0FFF75D
:10470C003FFE0FF250710FF240700FF284740FF2F3
:10471C0068780FF25479DFF80456DFF8EC65FEF791
:10472C00CCFF4FF6FF7A0FE00221002004F024FCAE
:10473C000221002004F035FC0221002004F0ECFBE7
:10474C000028F1D104F0D0FB00F0C3F80A20ADF83A
:10475C0002004FF0FF30019000A82968884700281C
:10476C0060D10820ADF80C000920ADF80E0003A8AC
:10477C0029688847BDF81210059F70BBBDF8100062
:10478C00102804BF708B814216D13878912807D03D
:10479C00B02802BF397907F1080002F076FE0BE071
:1047AC0078780E2802BFB88841F20541884203D1BF
:1047BC00B86890F9030070747FB100F08AF8032098
:1047CC0005E0787800F036F900F083F80520ADF8B4
:1047DC000200019700A829688847F06DFDF746FE96
:1047EC00E0B9F06DFFF7FCF80700F6D03878012837
:1047FC00E7D00228E8D17978B8780C290BD0E3D32C
:10480C000E2901D004D3DFE7B17D0843B075DBE797
:10481C0001F0ACF9D8E7FBF70EFFD5E705F080FE09
:10482C0001F080FAB08B41073FD54FF6FB71084081
:10483C00B083307C062812BF022806F17800FFF7FF
:10484C005FF8307C06280ED10220B074ADF808A0B9
:10485C0002A940F20E3004F0A7FFBDF80800504545
:10486C0018BF02F0D8FE307C022804D10320B074AB
:10487C000121FFF73EFF707DB8B1FFF74FFD40F609
:10488C00B831884211D2002000F027F84846FEF7D4
:10489C0014FF28210A2000F0D0F9307C062804D11E
:1048AC0005F02AF84046FEF708FFB08B01077FF5AC
:1048BC004BAF4FF6F7710840B08304F00EFB04F0D9
:1048CC0008FBC0F30020002802D02046FEF7F5FEBE
:1048DC0032E70820ADF8000070472DE9F041DFF811
:1048EC0028440100606D62D00122142104F017F9F4
:1048FC00DFF83004056844F6206000F060F8FFF73C
:10490C000DFD40F6B836B0424BD200F064F84FF4CF
:10491C00FA60B0FBF5F73846FBF76AFE606D0122D2
:10492C00102104F0FCF83846FBF762FE00F04EF85C
:10493C000A270FF29058FFF7F1FCB04229D200F091
:10494C0042F8FFF7EBFC01464046FEF7B6FE00F0DE
:10495C0042F84FF47A7000F032F800F037F8DFF8D4
:10496C00C80300F02CF87F1EE5D1FFF7D7FCB0424E
:10497C001BD20FF29850FEF7A0FE00F02CF80FF2AD
:10498C002440FEF79AFE00F01EF8042005F090FB80
:10499C00FEE7FFF7C3FC01460FF24850FEF78DFE11
:1049AC0003E00FF27C50FEF788FE012004E00022A9
:1049BC00142104F0B4F800206075BDE8F081B0FB60
:1049CC00F5F0FBF715BE05210A2036E1606D0122DA
:1049DC00142104F0A4B8606D0022142104F09FB8D7
:1049EC0010B5C94CE17DB1B1A16D70B199B904F1AB
:1049FC00A80104F16C0003F0D8FFA06558B1BDE824
:104A0C0010400FF2D52104F0B8B821B1084604F0DB
:104A1C0058F80020A06510BD01460022012036E1A7
:104A2C0070470000B848818B41F008018183006D0C
:104A3C00FEF720BF7FB5012804460FF20C46B24D9D
:104A4C000BD0022845D0042818BF052875D006289D
:104A5C0053D0082800F0CE80D7E0FFF749FE02A91A
:104A6C004FF4417004F0A0FE9DF808008DF8000092
:104A7C0002A900A84A7842708A78827000220271DA
:104A8C00C2704A798DF807200A79C9788DF806200A
:104A9C00417100AA0821002005F0F4F99DF80800E6
:104AAC009F4A9DF80810000910750A28ACBF5723BF
:104ABC0030231818107501F00F010A29ACBF5720CC
:104ACC00302051754018507500F0AEF80FF2E041EF
:104ADC0099E005F17800FEF72AFF18B905F1780086
:104AEC00FEF70EFF687D10B90120FFF7F6FE0020DF
:104AFC0000F002F90FF2C44185E005F17800FEF7F1
:104B0C0016FF18B905F17800FEF7FAFE686D002261
:104B1C000A2104F004F8686D00220F2103F0FFFF56
:104B2C00686D0022152103F0FAFF0FF29C4100F092
:104B3C0078F80420FDF75CFF67E000F0C4F80FF292
:104B4C00944100F06EF8A87C02280AD00FF2904134
:104B5C0000F067F80020FFF7C0FE0420FDF766FEAA
:104B6C0053E0AE7D0120002EA8744ED0F0070DD579
:104B7C0005F124010420FDF7B0FB288C4FF6FD71E4
:104B8C0008402884288B40F002002883B00706D503
:104B9C0005F13001042005F0A9FB00F038F870078E
:104BAC0006D505F13F01052005F0A0FB00F02FF81C
:104BBC000020FFF715FF04F080FB88B13021802026
:104BCC0004F022FC05F120023021802004F0E5FBEA
:104BDC0018B90FF29C30FEF770FD04F099FB03E05E
:104BEC000FF2A430FEF769FD0120FFF7F9FE00205B
:104BFC00A8750AE000F067F8686D01220A2103F03D
:104C0C008EFF0FF2E83100F00CF82C747FBD288C6D
:104C1C004FF6FB7108402884288B40F00400288351
:104C2C0070473046FEF749BD1F214FF4427004F027
:104C3C0075BC0A460146022029E02DE9F0410446E4
:104C4C000D460026304F16E0786D0122214603F008
:104C5C0066FF3449096844F62060B0FBF1F8404621
:104C6C00FBF7C6FC786D0022214603F058FF404646
:104C7C00FBF7BEFC761CF6B2AE42E5D3BDE8F08184
:104C8C0021498A8B10438883086DFEF7F3BD70B5FC
:104C9C0084B00446FFF71DFE0D460420ADF802005B
:104CAC0003201E4909680190164600A8884748B998
:104CBC00029A3AB11470557096701348016DC06D1C
:104CCC00FEF76AFE7FBD80B5FBF764FD00F0B2FF16
:104CDC00BDE8014005F06CBC31B1032908D00429B2
:104CEC0004D0112906D0704705F0EBBB05F0D5BBFD
:104CFC0005F003BC00F0EEBF034A50730E2140F2E6
:104D0C00073004F00BBC0000380D0020285009407F
:104D1C00B02800200050094084DB00003C02002039
:104D2C00A012002084E4000018310C00436F6E7454
:104D3C00726F6C6C65725F53656E736F72436F6EDE
:104D4C0074726F6C6C6572496E6974204661696C23
:104D5C0065642E0A0D00000050494E5F6F70656E41
:104D6C00204661696C65642E0A0D0000414F4E5F50
:104D7C0054656D70203A202564200A0D42617474CC
:104D8C0065727920203A2025752E25752056200A2B
:104D9C000D0000004C6F7720506F77657221212138
:104DAC002E0A0D0053797374656D2048616C742E56
:104DBC000A0D000073656C66546573744D61702048
:104DCC00506173732E0A0D0073656C6654657374B1
:104DDC004D6170204661696C656428476F74203A98
:104DEC0030782578292E0A0D00000000466967549A
:104DFC00657374526573756C74203A203078253065
:104E0C003478200A0D0000004469646E74206669D1
:104E1C006E642043616C6962726174696F6E2064A8
:104E2C0061746120696E20466C6173682C204D6141
:104E3C0079206361757365206F6666736574206590
:104E4C0072726F722E0A0D004C43443A25730A0D90
:104E5C0000000000436F6E74726F6C6C65722053AF
:104E6C007461727400000000506F776572204661A7
:104E7C00696C65642E0A0D00426C7565746F6F74F5
:104E8C006820446973636F6E6E6563742E0A0D003F
:104E9C0053656E736F7220436F6E74726F6C6C65BA
:104EAC0072204F766572666C6F77206572726F72C6
:104EBC0020686173206F63637572726564210D0ADB
:104ECC0000000000506F776572204F6E20466169BC
:104EDC006C65642E2056444442203D202575206D7F
:104EEC00560A0D00506F77657220526573657420F9
:104EFC00537563636573732C2056444442203D20E4
:104F0C002575206D562E0A0D00000000506F776538
:104F1C0072204F6E204661696C65642E0A0D00008C
:104F2C00506F776572204F6E205375636365737392
:104F3C002E0A0D00466C6173682052656164204630
:104F4C0061696C65642E0A0D00000000436F6E747D
:104F5C00726F6C6C65725F5265616443616C6962FF
:104F6C00726174696F6E204572726F720A0D000067
:104F7C00466C617368205772697465204661696C70
:104F8C0065642E0A0D000000436F6E74726F6C6CBA
:104F9C0065725F53746F726543616C6962726174A0
:104FAC00696F6E204572726F722E0A0D0000000040
:104FBC00496E697469616C697A65640041647665EF
:104FCC0072746973696E6700436F6E6E65637465A6
:104FDC006400000057616974696E672E2E2E000004
:104FEC00506F776572206F66662E00004572726F87
:104FFC007200000046726565205772697465000086
:10500C004343323635302046726565577269746594
:10501C00000000004E2E412E0000000046575F5647
:10502C00455253494F4E20284D6172203236203262
:10503C00303137290000000053504945204C414283
:10504C000000000050434220322E30000A088086B7
:10505C000F088086002007C0042007C0034007C04B
:10506C001508808014088080100080801B00C0A070
:10507C00FF000000E0B50821ADF8001001900421FC
:10508C00ADF8021000A836490968884708B100201D
:10509C000EBD02980EBD38B5324D334C28788000C9
:1050AC00FFF7E8FF206028788000FFF7E3FF216816
:1050BC006060002918BF002801D1132032BD4FF6C3
:1050CC00FF75284601F0C4FD6168284601F0C0FD5B
:1050DC0004F1200001B0BDE830400FF24C13102257
:1050EC00072102F009B821490A681AB900B1086011
:1050FC0000207047112070473EB5030010460FF298
:10510C007104194D02D0032B0DD01EE00C291AD1BD
:10511C0001460C2205F1080002F02AFB00F017F8FA
:10512C0005F108010BE00C290DD101460C2205F10B
:10513C00140002F01DFB00F00AF805F114012868B8
:10514C0001F0A0FD3EBD18203EBD02203EBDFF205B
:10515C00019002940720009005F120030022704773
:10516C003C020020A00900209C0E0020803700206B
:10517C00F8B50D460027287AC00616461C4601D500
:10518C000820F2BD069808B10B20F2BD00A92846F4
:10519C0002F029FB012802D127800120F2BDBDF8C5
:1051AC0000004AF63D21401A01D0401E07D10C20C8
:1051BC0020800C22E968304602F0DAFA01E0278000
:1051CC000A273846F2BD2DE9F0410D460446287AEF
:1051DC000027800684B01646984648BF08201FD486
:1051EC0002A9284602F0FFFA012819D0BDF80800E0
:1051FC0042F60211401A05D048F23B11401A012820
:10520C000DD90BE00120019043460A9800903246DC
:10521C002946204601F094FD074600E00A2738464F
:10522C0004B0BDE8F08100007D510000D3510000B6
:10523C0000000000FF2212EAD05C1DBF12EAD1531D
:10524C00944593422BE09C44D30780EA01021A4018
:10525C0043EA002043EA0121A1FB0030410038BFA2
:10526C0040007CF17F010BDBFE294ADA5B0842EA45
:10527C00C15153EA006373F1004C51EB102070479D
:10528C00D1F1080CDCF120012FDB5B0810FA01F1E5
:10529C000B4373F1004120FA0CF0504170479445D8
:1052AC001CBF02EAD153934280EA010202F0004291
:1052BC001DD0400019D0490017D05BB9634514D0FC
:1052CC000902B1FA81F39940BCEB030CC00140F028
:1052DC000040C1E70002B0FA80FC10FA0CF0B3EB0E
:1052EC000C0CC90141F00041B6E7100070474000BA
:1052FC000AD0490008D010F1807F94BF11F1807F53
:10530C0002E042F0FF407047D043704762F30F2237
:10531C0062F31F4200B500BF130096469446103945
:10532C0028BFA0E80C50FAD85FEA417C28BF0CC01B
:10533C0048BF40F8042BC90728BF20F8022B48BFF0
:10534C0000F8012B00BD00000022FFF7E3BF0000B6
:10535C0090EA010F44BF81F0004100F0D3B900BFC7
:10536C00431A4FF000423EBF5340C01AC91800BF49
:10537C00D3095FEAD05C13EB400F34BFB3EB410FA2
:10538C0040E07CEBD1530CD342EA012122D8D1EB83
:10539C00402009D3400A28BF5FEA500140EBCC50B3
:1053AC007047401A15D04002B0FA80F2521C90405F
:1053BC00400A4FEA3C23B3EB026384BF00EB73005B
:1053CC0007E040F400001A16DB07C2F10102D040DE
:1053DC0018437047182BFCDC31FA03F202FA03F382
:1053EC00591A38BF42F00102D2EB40203CBF4000BA
:1053FC00ACF1010C5FEACC5CC20572F100414CEBE4
:10540C005020704713EB400F0FD24B0009D0ACEB80
:10541C00D153022B03DB4902172BDDDD704791437F
:10542C00401A4300D5D10020704713EB410FD0D365
:10543C006FF00000704700004FF0807C1CEB400FB9
:10544C0094BF1CEB410F05E040EA010C5FEA4C0CE9
:10545C0001D28142704718BF88427047F0B44FF0B8
:10546C00004591EA030C44BF6B4001F003BA00BF46
:10547C00841A71EB030603D2001BB141121973415C
:10548C004FF4001C1CEB410F34BF7CEB430443E096
:10549C000C0DA4EB1356352E50DC45EAC323DB0A66
:1054AC0045EAC121C912B6F120050DDD63FA05F6F6
:1054BC00EB4086EA0305124218BF45F00105C018FF
:1054CC0051F100010CD213E062FA06F5F24055409E
:1054DC00F3415A40B340F3405A408018594107D326
:1054EC0049085FEA30005FEA350528BF45F0010541
:1054FC0001F58011420875F1004250F1000041EBBA
:10550C000451F0BC4FF4001C1CEB410F38BF70472A
:10551C000020090D090570471CEB410F10D252EA0F
:10552C0043060BD0BCEB410F05D80C0DAB43661EEC
:10553C00342EB5DD02E0AB4380185941F0BC704706
:10554C00F0BC70474FEAF17CBCF1E04C2CBFBCF5D1
:10555C00001F11E05FEA4C0C34BFBCF17F5F2EE002
:10556C005FEA9C0C4FEA0C1C4FEA3C0CC10071F139
:10557C0000414CEB50707047C90241EA5051C002D7
:10558C0018BF41F0010141F000414FEA6C50C0F1ED
:10559C000900212810D240EACC7CCCF1200C11FA65
:1055AC000CF070F10040CCF1200C21FA0CF00CF056
:1055BC00004C40EB0C0070474FEACC707047490030
:1055CC0011F5001F04D84FEACC10FF30C00570470E
:1055DC00C81770474FF0807C1CEB400F94BF1CEB3E
:1055EC00410F05E040EA010C5FEA4C0C01D2884205
:1055FC00704718BF8142704710B5FF2313EAD0548F
:10560C001DBF13EAD1529C429A4239E0A41ADA0720
:10561C0080EA0103134042EA012142EA0020421AC7
:10562C003CBF641E01EB4202090AB2FBF1FE01FB16
:10563C001E221202B2FBF1F001FB10226EF30F20BE
:10564C001202B2FBF1FE4EEA00207F3406DDFE2C86
:10565C0024DA53EA500050EBC45010BDD4F10204CC
:10566C0001FB1E2240F08071192C1DDC21FA04F084
:10567C00C4F12004A140114371F10042584110BD06
:10568C009C421ABF03EAD1529A420FE080EA010E03
:10569C000EF00043400004D0490016D143F0FF4007
:1056AC0010BD490008BFD343180010BD9C4205D162
:1056BC00D21AF7D001F00041484010BD4A0212BF87
:1056CC000846484000F0004010BD4AB90902B1FA42
:1056DC0081F2914044B1A418C00140F000409EE713
:1056EC00C90141F0004152420002B0FA80F4A040DE
:1056FC00141B94E790EA010F44BF81F00041FFF7BF
:10570C002FBE00BF421A3CBF801A89184FF0004CC4
:10571C00C0F3C752FF2A24D0C1F3C75313B3D21A14
:10572C00D2F1190327DD4CEA01214CFA03F321EAEB
:10573C000303D140C20D4CEA0020401834BF20EACC
:10574C000C004CEA5000D20553EA006373EB0C0CCE
:10575C0052EB1020420012F1807F38BF7047C00D11
:10576C00C0057047490212BF9A4200EB5120F8E77E
:10577C00D2F11703D9D57047002840F10980F446BF
:10578C00404200F005F850F000406047002800BF90
:10579C000AD0B0FA80F18840D1F19D01C90502060A
:1057AC0072F1004241EB102070470000B0B581EA65
:1057BC00030C0CF0004C40F2FF7515EA11541DBFA0
:1057CC0015EA1357AC42AF4239E0E41923EA4553CA
:1057DC0043F48013C90241F0004141EA505EC70214
:1057EC001100A7FB020200284FF00000EEFB012085
:1057FC004FF00001E3FB072118BF42F001024018F3
:10580C0000214941E3FB0E01A4F580640F0302D291
:10581C0052004041494154F101046CDD470872F1DA
:10582C00004250F1000051EB0451A1F580115CBF16
:10583C0041EA0C01B0BD4CEA05510020B0BD05EAAF
:10584C001357AC4214BFAF4241E050EA410E1CBFAB
:10585C0052EA430E02E061460020B0BD24423C44B3
:10586C001BD15FEA070EF6D0090302BF01460020E8
:10587C00AEF1140EB1FA81F7AEEB070401FA07FE94
:10588C000C37C7F1200100FA07F7C8404EEA000EAA
:10589C0023EA455343F48013A2E733F00043B3FAF1
:1058AC0083F704BFB2FA82FE77440B3FE41BB7F1D7
:1058BC00200E2FBF02FA0EF3BB40C7F1200E22FAC6
:1058CC000EFE38BF43EA0E03BA40641C82E750EA6E
:1058DC00410E14BF52EA430E6FF000014FF4001753
:1058EC0017EB430F8ABF194617EB410FB5E74CEA8C
:1058FC0005510020B0BDD4F10104B4F120070FDA3A
:10590C00C4F12007520828BF42F0010210FA07F533
:10591C0001FA07F7E1BF2A43E0403843E1400FE0CA
:10592C00352C98DCC7F1200452EA400220FA07F229
:10593C0018BF42F0010231FA07F0A1400A430021DE
:10594C0072F1004250F1000051EB0C01B0BD0000AF
:10595C0038B50FB4DDE9020104F05FFE0546DDE960
:10596C00000104F05AFE0246012DB8BF012A2CDAC0
:10597C000198002807D5DDE9000181F00041CDE94F
