:100000005844002031D9000001CA011001CA011072
:1000100001CA011001CA011001CA011001CA011070
:1000200001CA011001CA011001CA011001CA011060
:0C00300001CA011001CA01103FCA0110F2
:10003C005FF0FF0C1CEAD05114BF614506E0C11003
:10004C00400721F0E04101F16051704779B900F0AF
:10005C00004100020AD0B0FA80FC00FA0CF001F169
:10006C006051A1EB0C5101EBD021400570474102CE
:10007C000CBF40F4E0016FF0000100207047FF7FDF
:10008C004100090E7F3915D4D1F11F0114D4400061
:10009C0007D2C00140F00040C84048BF6FF000409C
:1000AC007047C00140F00040C8404CBF4FF00040CA
:1000BC00404270470020704700424FF0004058BF4C
:1000CC00C043704700400000002204F0C1BF000094
:1000DC00704770470120704755D100008FD1000048
:1000EC0095D100000BD200003DD2000045D200009B
:0200FC00000002
:100100003C0000000000000000000000340100007E
:1001100000000000000000000100000000000000DE
:1001200000000000000000000000000001000000CE
:0C013000000000000800000000000000BB
:10013C003400000000000000000000006801000016
:10014C0000000000000000000100000000000000A2
:10015C00010000000000000000000000080000008A
:04016C00000000008F
:1001700030000000000000000000000098010000B6
:10018000040000000000000001000000FFFFFFFF6E
:10019000FF00000001000000080000000000000057
:1001A0002C0000000000000000000000C40100005E
:1001B000040000000000000001000000FFFFFFFF3E
:0C01C000FFFFFFFF08000000000000002F
:1001CC0034050000E401000099A1011095A701106D
:1001DC00A5C2011009B2011045B8011000000000C1
:0801EC00000000002E000000DD
:1001F40028000000000000000000000014020000BD
:100204000000000000000000FFFFFFFF00000000EE
:080214000800000000000000DA
:10021C00300500003002000069C201106DC10110F0
:10022C001FC2011095BA0110000000000000000070
:04023C00300000008E
:10024000300500005402000075C20110A9B601106B
:100250009DBF011049B60110000000000000000021
:040260003100000069
:1002640024000000000000000000000080020000E4
:100274000000000000000000000000000800000072
:040284000000000076
:10028800240000000000000000000000A40200009C
:10029800000000000000000000000000080000004E
:0402A8000000000052
:1002AC00240000000000000000000000C802000054
:1002BC000000000001000000000000000800000029
:0402CC00000000002E
:1002D00000000000900F002004000000000000005B
:1002E000000000002000000070010000300000004D
:1002F0001C020000980F0020040000000000000015
:10030000000000000C000000300400001800000095
:1003100040020000A00F00200400000000000000C8
:100320000000000024000000480400001800000045
:1003300000000000A80F00200400000000000000E2
:100340000000000010000000A00100002C000000D0
:10035000CC010000B00F00200400000000000000ED
:1003600000000000200000006402000024000000E3
:10037000FFFFFFFFB80F0020040000000000000096
:100380000000000028000000880200002400000097
:10039000FFFFFFFFC00F002004000000000000006E
:1003A00000000000580000003C0100003400000084
:1003B000FFFFFFFFC80F0020040000000000000046
:1003C00000000000100000006004000018000000A1
:1003D000FFFFFFFFD00F002004000000000000001E
:1003E000000000001C000000AC020000240000001F
:1003F000FFFFFFFFD80F00200400000000000000F6
:100400000000000038000000F40100002800000097
:10041000FFFFFFFFE00F00200400000000000000CD
:100420000000000054000000000100003C0000003B
:100430001800000000000000000000004004000060
:080440000800000000000000AC
:100448001800000000000000000000005804000030
:08045800080000000000000094
:100460001800000000000000000000007004000000
:0804700008000000000000007C
:08047800020000008CD9000015
:0304800000000079
:040484000100000073
:0404880000000C0064
:04048C0000000D005F
:040490003200000036
:040494000200000062
:04049800280E00200A
:04049C00000200005A
:0404A000CDD60000B5
:0404A40001CA011078
:0404A8000000000050
:0404AC00000000004C
:0404B0000800000040
:0404B4000000200024
:0404B800F00D002023
:0404BC00010000003B
:0404C000580F0020B1
:0404C400080000002C
:0404C8000000000030
:0404CC00000000002C
:0404D0000000000028
:0404D4000000000024
:0404D8000000000020
:0404DC00010000001B
:0404E000580E002092
:0404E400060000000E
:0404E800010000000F
:0404EC00240D0020BB
:0404F0000000000008
:0404F4000000000004
:0404F80000020000FE
:0404FC0000000000FC
:0105000000FA
:020502002A00CD
:020504000100F4
:020506002500CE
:020508003000C1
:02050A003100BE
:02050C002E00BF
:02050E000100EA
:0105100001E9
:03051100F20800ED
:080514000400000070D9000092
:08051C000000000000000000D7
:0405240000000100D2
:0405280000000300CC
:04052C0087C401106F
:04053000380500008A
:040534003805000086
:0405380000000000BF
:04053C00800000003B
:040540008000000037
:0405440000000000B3
:04054800580F002028
:04054C00E77E000046
:040550002000000087
:0405540048D9000082
:0405580030D7000098
:04055C000DC30110BA
:040560002737000039
:040564002937000033
:0405680099C801101D
:04056C009BC8011017
:040570000000000087
:0405740080040000FF
:04057800A0D400000B
:04057C00B8D40000EF
:0405800088D400001B
:0205840008006D
:0205860009006A
:02058800010070
:02058A0000006F
:01058C00016D
:03058D0001F00179
:040590000000000067
:040594000000000063
:04059800000000005F
:04059C00000000005B
:0405A000093200001C
:0405A40069320000B8
:0405A800E930000036
:0405AC009332000086
:0405B00051310000C5
:0405B400053100000D
:0405B800913100007D
:0405BC00D532000034
:0405C000657E000054
:0405C400D3810000DF
:0405C800D7810000D7
:0405CC000800000023
:0405D0002400000003
:0405D400180000000B
:0405D80028000000F7
:0405DC0020000000FB
:0405E0003C000000DB
:0405E4000C00000007
:0405E80034000000DB
:1005EC00DFF800F0D9C10110DFF800F025B10110DF
:1005FC00DFF800F06DA90110DFF800F0D9B601109A
:10060C0000B58FB008233C22002100A8FFF7E8FFBB
:10061C00DFF85C0E00F1EC01079100234FF416712A
:10062C00089100AA012106919C300FF2C511FFF729
:10063C00DBFF0FB000BD10B5012886B0DFF8304EDF
:10064C0004D0022864D004286FD089E001F0ADFDFD
:10065C00C00609D4FF206075002020750122617D41
:10066C00012000F0D9F97BE000202075607DFF2887
:10067C00F4D004A9012001F052FE9DF8100058B9E5
:10068C000FF2E00003F037F804F1780003F074F98E
:10069C00002003F03CFA35E080282FD0002003F036
:1006AC0036FA002003F007FD7F21002003F0BDFA8D
:1006BC009DF81000C0F3410003F03BFB9DF81000C7
:1006CC00C0F3C10003F094FB0020A065E065206638
:1006DC006066A066E0666063A063E063012104F1DC
:1006EC009C0001F0A5FF04F1780003F027F99DF8B8
:1006FC001000400606D50120207503E0607D08B18E
:10070C000120E0759DF81000802829D0607527E045
:10071C0004A901F004FE9DF8100000EB800189B2E1
:10072C0004F1780003F02AF91AE004F1280101F031
:10073C00F6FD206BFFF77CFCCDE90201E06AFFF7C8
:10074C0077FCCDE90001A06AFFF772FC02460B466C
:10075C000FF2200002F0CFFF01210E2004F08CF9E3
:10076C0006B010BD414852532053746F702E0A0DC1
:10077C0000000000476F7420426F617264204D616D
:10078C00672043616C6962726174696F6E204461A9
:10079C007461203A2025662C2025662C2025660ABB
:1007AC000D00000010B50FF23800DFF8C44C02F059
:1007BC00A2FF002060751422002100F02DF9012207
:1007CC00617D104600F028F90020A07503F093F924
:1007DC0003F09AF900206063A063E063E07410BD3D
:1007EC00414852532052657365742E0A0D00000067
:1007FC002DE9F04387B003A8002100220B460EC060
:10080C000820ADF800000120DFF8DC1CDFF8604C9C
:10081C000968DFF8D87CDFF8D88CADF8020004F555
:10082C00567500A8884701F00DFD04F0D2FA284651
:10083C0001F030FD284604F0F4FA002001900090FD
:10084C004FF47A731A460FF2F11104F1780003F0A9
:10085C0051F8FFF7A7FF01226421022000F0DCF819
:10086C0004F19C0500F0CFF80020608204F551796A
:10087C004FF4F070FFF7BCFE03AE0CE004F178000F
:10088C0003F073F818B904F1780003F057F84FF43B
:10089C007A70FFF7ADFEA07D00285ED0039801F0C2
:1008AC004AFAFFF7EDFB20804146706804F060FBCC
:1008BC00FFF7E6FB60804146B06804F059FBFFF798
:1008CC00DFFBA080A21DA06D00900C21BDF90000E3
:1008DC00E080BDF902002081E06D00F08CF8206E04
:1008EC0000F081F8002004F0A5FA206C0090A21D05
:1008FC00BDF90000E0800C21BDF902002081606C84
:10090C0000F079F8A06C00F06EF8032004F092FA75
:10091C00207D38B9606B00F05EF8A06B00F06BF8CE
:10092C00E06B06E0E06C00F056F8206D00F063F828
:10093C00606D00F058F83888800703D5E07C40F0F3
:10094C004000E07422461421002001F0ACFCE07C55
:10095C0000F0FE00E0740020A075E07D20B10020C6
:10096C00E0756063A063E06303F0C6F818B3002081
:10097C0003F03EF9C0071ED5607D00B34946002048
:10098C0003F077FA04F24A31002003F015FA04F56B
:10099C005471002003F0EDFB48B1022803D0002075
:1009AC0003F089FB07E06420FFF722FE03E003A9B4
:1009BC00484600F046F8607D00287FF45FAF04F1F4
:1009CC00780002F0D2FF18B104F1780002F0D4FFE5
:1009DC0000F019F85FE70090BDF90000E080BDF968
:1009EC000200208170470090BDF90000E081BDF944
:1009FC000200208270470090BDF900006081BDF9B3
:100A0C000200A08170474FF0FF31284601F010BE64
:100A1C0001460C2004F030B830B5154685B00446BC
:100A2C000A46294600A804F00FFB00AA29462046D6
:100A3C0001F039FC05B030BDDFF8341A012088759F
:100A4C0070472DE9F24F94B005460AA82421FFF710
:100A5C003BFB002006900AACFFF7CEFD0890DFF8B8
:100A6C00106AB5F9000003F06AFA0A90B5F90200B1
:100A7C0003F065FA6060B5F9040003F060FAA06059
:100A8C00B5F9060003F03DFAE060B5F9080003F093
:100A9C0038FA2061B5F90A0003F033FA6061B5F950
:100AAC000E0003F07CFAA061B5F90C0003F077FAA4
:100ABC00E061B5F9100003F072FADFF8381A04F0AF
:100ACC0057FA2062B16AA06904F0DCFA0546E069C5
:100ADC00F16AA56104F0D6FA0746206A316BE7612A
:100AEC0004F0D0FAF564376520627065E1686569D9
:100AFC00276901F03AF9804601F045F901F047F910
:100B0C0001F05EFA01F004F901F062FB00F0D4FC94
:100B1C000A99A5686768804601F027F9814601F0BB
:100B2C0032F901F004F901F04BFA01F0F1F801F09F
:100B3C004FFB0546DFF8C00901F00BF90746DFF85B
:100B4C00BC0901F006F900F0B7FC0990DFF8B01908
:100B5C00DFF8B059AA6D384604F008FB98BF4FF087
:100B6C007E5700F0A1FC0AD2FFF762FADFF8982951
:100B7C00DFF8983904F00CFB04F07EFB0246384693
:100B8C00114604F0C1FB38BF3A46AA65104601F085
:100B9C00BFF800F099FC079041462F79D4F80890E3
:100BAC00D4F804A0781C2871404604F0E1F90A99A5
:100BBC0001F0DAF801F0A6F801F0DFF801F0A2F884
:100BCC0001F0D6F801F0A1F801F002FB00F074FC82
:100BDC0005EB87010027C8640321287990FBF1F10C
:100BEC0001EB4101401A287105EB8700DFF8201951
:100BFC00C06C04F09BFB069904F016FC7F1C032FC1
:100C0C000690F1DB0898696CDFF808A9DFF808B9E1
:100C1C00401A263004F054FCDFF8001904F086FB6F
:100C2C003067206AE7680490E0690390A06902903D
:100C3C006069019020690090A068FFF7F9F900F055
:100C4C0091FC04F019FB81466068FFF7F1F900F0A4
:100C5C0089FC04F011FB05900A98FFF7E9F952465C
:100C6C005B4604F03DFC04F007FB05993B464A4605
:100C7C0000F094FCFFF7C0FC68644FF0804AB76941
:100C8C00D6F81C9001F07FF8834601F072F801F061
:100C9C0039F8316A01F068F801F041F801F063F8B5
:100CAC0001F03DF8FFF7C4F9CDE90001306A01F01D
:100CBC0061F88146706A01F067F801F038F801F0CC
:100CCC005EF8FFF7B5F9DDE9002304F0DBFCDFF893
:100CDC005028DFF8503804F05BFA04F0CDFA149980
:100CEC000860B169306A04F043F90746F169706A2B
:100CFC0004F03EF901F017F801F041F8FFF798F90C
:100D0C0004F026FD04F0B8FA14994860B769D6F8D7
:100D1C00209001F038F8F16901F026F800F0FFFF9F
:100D2C00834601F026F800F0FAFF01F01CF800F001
:100D3C00E9FFFFF77DF9CDE90001F06901F024F836
:100D4C000746706A01F016F800F0E2FF01F017F8A0
:100D5C00FFF76EF9DDE9002304F094FC04F08CFA43
:100D6C00149988601498DFF8C017006804F0FEF935
:100D7C000BD8FFF75DF9DFF8A827DFF8B03704F0E0
:100D8C0007FA04F079FA149908601498DFF8A07740
:100D9C000068DFF8A0B7FFF74BF900F0DDFB04F0BB
:100DAC006BFA1499086014984068FFF741F900F049
:100DBC00D3FB04F061FA1499486014988068FFF72B
:100DCC0037F900F0C9FB04F057FA14998860216ACE
:100DDC00636922690291E1690191A1690091E1685D
:100DEC0004F0FCFD0998FFF723F907468B46DFF862
:100DFC00040700F0CCFFFFF71BF921F000413A4645
:100E0C005B4604F0C5F94FF08042DFF82C3705F053
:100E1C00FFFA21D2687915280DDBB07C58B90FF296
:100E2C00546002F068FC0898A8640120B07400209B
:100E3C00B065F065306668796428B8BF401C14DB77
:100E4C00B07C022814D00FF2386002F054FC02205F
:100E5C00B0740120F07509E0B07C28B10FF22C6061
:100E6C0002F049FC0020B07400206871B07C0228AC
:100E7C0000F07B820FA802900EA801900DA80090A4
:100E8C0062692169E068DFF8B476012300F08AFF1B
:100E9C000CA802900BA801900AA800906369226923
:100EAC00E168012000F0C0FFA068FFF7C1F8DFF88F
:100EBC00402EDFF8403E04F06BF904F0DDF93946C2
:100ECC0002460A98DFF8303EA26004F01DFA05D203
:100EDC00194604F04BF99CBF00200A90606800F0A2
:100EEC00E4FA05D2194604F041F99CBF0020606079
:100EFC0000F0DAFA05D2194604F038F99CBF00204C
:100F0C00A0600A990798DFF8F48DDFF8F49D04F0DF
:100F1C002FF8A96B04F088FA00F0D6FA83466168C2
:100F2C000798C4F80CB004F023F8E96B04F07CFAD1
:100F3C0000F0CAFA8246A1680798C4F810A004F021
:100F4C0017F8296C04F070FA00F0BEFA07466761D6
:100F5C00C5F838B0C5F83CA02F645846FFF768F8C0
:100F6C0000F00CFB04F088F90A9000F00FFB00F085
:100F7C0005FB04F081F960603846FFF759F800F082
:100F8C00FDFA04F079F9A060002030647064B0645C
:100F9C00B16D376ED6F85CA000F0E7FE00F0EDFE08
:100FAC0000F0B0FE00F0EEFE00F0AFFE01F010F924
:100FBC000290B07C002840F046816F690A98DFF8F7
:100FCC0050AEDFF850BEFFF733F800F0E2FA00F055
:100FDC00C9FA00F0BBFA04F04FF9E0606068FFF763
:100FEC0027F8CDE90001686AFFF722F800F0BAFA99
:100FFC0000F0ACFA04F040F92061A068FFF718F893
:10100C00CDE90001686BFFF713F852465B4604F01C
:10101C0067FA00F09BFA04F02FF96061394600F092
:10102C0092FE696A074600F0A0FE00F071FE696B43
:10103C00074600F09AFE00F06BFE01F0C9F8074677
:10104C0002994FF07E5004F071F980F00040FEF7E9
:10105C00EFFF04F011F9DFF8C01D0091834638460C
:10106C00FEF7E6FF42464B4604F03AFA02460B46C0
:10107C000020DFF8A81D05F0E3F904F0FDF8009955
:10108C0000235A4600F0A1FFDFF8941D03F070FF17
:10109C0007466969E06804F0C7F900F075FE00F0D6
:1010AC0013FAE060696A206904F0BEF900F06CFE86
:1010BC0000F00AFA2061696B606904F0B5F900F080
:1010CC0063FE00F001FA6061E068E1683064206959
:1010DC0070646069B06400F0F4F9B16D04F0A4F9C7
:1010EC00B0652169306FDFF83C9D03F041FFF16D75
:1010FC0004F09AF983466169306FC6F85CB003F06E
:10110C0037FF316E04F090F90746706E3766FEF7C4
:10111C008FFFCDE90001B06DFEF78AFF00F02EFACB
:10112C0000F0C6F904F0A8F87066B06EFEF780FF08
:10113C00CDE900015846FEF77BFF00F01FFA00F0E6
:10114C00B7F904F099F8B066F06EFEF771FF00F095
:10115C0020FA00F013FA00F0ABF904F08DF800213E
:10116C008246E068DFF8189EC6F86CA003F0FEFF1C
:10117C004FF0333803D2B06D04F0C6F807D3E068F3
:10118C0004F0C2F80AD2B06D03F0F0FF06D2FEF7FD
:10119C004FFF00F0F3F904F06FF803E0B06D716EDF
:1011AC0003F070FFB0650021206903F0DFFF03D26C
:1011BC00584604F0A9F807D3206904F0A5F80AD220
:1011CC00584603F0D3FF06D2FEF732FF00F0D6F9F3
:1011DC0004F052F802E0B16E00F0A2FDF0650021BF
:1011EC00606903F0C3FF03D2384604F08DF807D3CF
:1011FC00606904F089F80AD2384603F0B7FF06D2CA
:10120C00FEF716FF00F0BAF904F036F803E03846A2
:10121C00514603F037FF3066B07CA0B9B16D00F0D9
:10122C0050F9716B04F000F97063F16D00F049F93D
:10123C00B16B04F0F9F8B063316E00F042F9F16B68
:10124C0004F0F2F8F063002728780A9905EB800285
:10125C00401C9160287000F01FF928700020686114
:10126C006869FEF7E5FE804605F10800894650F8EE
:10127C002700FEF7DDFE00F031F900F029F903F04C
:10128C00FBFF7F1C032F6861EADB0027687861682D
:10129C0005EB8002401C9161687000F0FDF86870ED
:1012AC0000206862686AFEF7C3FE804605EB870083
:1012BC0089468069FEF7BCFE00F010F900F008F9D1
:1012CC0003F0DAFF7F1C032F6862EBDB0027A878A2
:1012DC00A16805EB8002401C9162A87000F0DCF85C
:1012EC00A87000206863686BFEF7A2FE044605EB4D
:1012FC0087008946806AFEF79BFE00F0EFF82246D5
:10130C004B4603F045FF03F0B7FF7F1C032F6863C8
:10131C00E9DB4FF08241069803F0F6FF0AD2A87978
:10132C0078B90120A871F07C40F00100F074012024
:10133C00B07506E0DFF8041D03F018FF9CBF002019
:10134C00A871F07C00061AD4706F4FF07E5103F038
:10135C00DBFF14D2F07C40F08000F0740FF61C50D0
:10136C0002F0C9F90120B07509E00020029001904B
:10137C00009062692169E068002300F013FDB16DF3
:10138C00346EF56D00F0F1FC00F01AFE00F0C0FCBC
:10139C00054600F011FE294604F046F800F018FF4F
:1013AC0000F08AF8DFF8981C776E03F0DFFE044635
:1013BC0039D84FF0785000F000FEFEF739FEDFF818
:1013CC00842CDFF8843C04F08BF8D6F858A0044643
:1013DC000D4600F0DBF800F0D7F800F0C9F800F08B
:1013EC00AFF803F049FFB065D6F85CA000F0CEF87A
:1013FC0000F0CAF800F0BCF800F0A2F803F03CFFD3
:10140C00F065D6F860A000F0C1F800F0BDF800F06F
:10141C00AFF800F095F803F02FFF3066DFF82C4C96
:10142C00DFF82C5C08E04FF07E5103F06DFF1BD20F
:10143C00DFF8204CDFF8205C3846FEF7F9FD00F0B1
:10144C0097F803F019FF7066B06EFEF7F1FD00F02F
:10145C008FF803F011FFB066F06EFEF7E9FD00F0B7
:10146C0087F803F009FFF06615B0BDE8F08F0000B7
:10147C00080200205374656164792E0A0D00000087
:10148C00536C6565702E0A0D000000004D6F766977
:10149C006E672E0A0D0000000321C0B290FBF1F123
:1014AC0001EB4101401A70471046394603F02CBF3E
:1014BC00DDE9002303F06CBE01464FF07E5003F0D3
:1014CC0035BF306F03F054BD4FF07C5103F050BD6D
:1014DC0002460B464046494603F05ABE0022DFF84E
:1014EC007C3B04F0ADBF0000780F0020F20A002016
:1014FC000000C842000080BF00007A430000FA439D
:10150C000100803F740C0020FCA9F1D24D62503FC9
:10151C0000004040399D52A246DF913F0050C34726
:10152C00182D4454FB210940DB0F4940FB2119C005
:10153C00F8C1631ADCA54C40E17AB43F6F12833AD0
:10154C0002460B464046494605F0A6B802460B46F5
:10155C00DDE9000105F0A0B802460B4638465946B5
:10156C0003F0BEBF02460B465046594603F0B8BFC7
:10157C0002460B462046294603F0B2BF02460B46F4
:10158C004046494603F0ACBF804689465046FEF7BC
:10159C004FBDCDE900013846FEF74ABD2DE9F04FAD
:1015AC000546DFF8BC0ADFF8BC9A80699DB00F468F
:1015BC0003901446DFF8A80AC06902909846DFF839
:1015CC00A00A006A01902946DFF8940A466A00F0E6
:1015DC00BDFB80F0004A019800F0D6FB00F09BFBAD
:1015EC008246304600F0E9FC00F095FB00F0C2FBAF
:1015FC000E90294600F0CFFB8246019800F0DDFCEE
:10160C0000F083FB8246304600F0BEFB00F083FB0B
:10161C0000F0B0FB0D9000F0BDFB8246029800F08C
:10162C00CCFC00F078FB8246304600F092FB00F0D8
:10163C006CFB00F09FFB0C90214600F0ACFB0446C9
:10164C00029800F0A1FB00F0A0FC0446019800F009
:10165C0080FB0146204603F015FD00F08BFB0B9040
:10166C000021404605F0D8F8269D08D1284605F003
:10167C00D3F804D1279805F0CFF800F0ED8200F0F4
:10168C0059FB044600F09DFC00F07FFC27990446B2
:10169C0000F06BFB00F079FC00F09AFD044640462C
:1016AC0000F08BFC804600F079FB0546279800F093
:1016BC0084FC2790289F299CDDF8A89000F063FB00
:1016CC00824600F079FC00F020FB00F051FB00F0AA
:1016DC001CFB00F07DFD8246384600F050FB834633
:1016EC00204600F04CFB0446484600F048FB81467F
:1016FC00039900F023FB824600F02EFB1390214649
:10170C00504603F035FC12904946504603F030FC2D
:10171C0008904FF08040029903F02AFC074600F035
:10172C001BFB0790CDF860A00A974FF0804000F0AB
:10173C0038FC074609974FF0804000F03AFC1790B0
:10174C0000F00DFB169000F0FDFA1C90039900F0D0
:10175C000CFB0090039900F0F9FA1190039900F03A
:10176C00FFFA1090314600F016FB1B90029900F026
:10177C00FCFA0590029900F0F3FA1A90314600F049
:10178C00E5FA0F90019900F0F0FA0490314600F060
:10179C00E7FA19903146304603F0EAFB06905946B9
:1017AC00009803F0E5FB0746129800F002FC00F0ED
:1017BC00BAFA0746089900F0D3FA00F0A9FA0746DE
:1017CC00059800F0C9FA00F0A3FA07460A9800F051
:1017DC00F4FB00F0E6FB00F09BFA07460A9800F0D9
:1017EC00C9FA00F0E6FB00F093FA0746049800F003
:1017FC00B3FA00F098FA0746069800F0ADFA00F03C
:10180C0092FA8246139800F0D4FB0746009800F039
:10181C00D4FB00F07DFA0746089900F097FA00F027
:10182C0082FA0746079900F09BFA00F071FA074616
:10183C00059800F0C2FB00F076FA0746049800F019
:10184C00BCFB00F065FA0746099800F093FA00F02B
:10185C00B0FB00F05DFA0746069800F0AEFB00F016
:10186C0062FA074600F08AFA00F08CFA00F04DFAA2
:10187C00FEF7DEFB04F0DEFF03F0FEFC824612995D
:10188C0000F064FA0746139900F06AFA00F04BFA7C
:10189C000746009800F06EFA00F03AFA07460798EF
:1018AC0000F087FB00F034FA0746059800F062FA66
:1018BC0000F039FA0746099800F07FFB00F079FB3D
:1018CC0000F026FA0746049800F054FA00F02BFAC0
:1018DC000746069800F04EFA00F01AFA07464FF049
:1018EC00804000F04CFA1590394600F027FA14901D
:1018FC0010990F9803F098FD00F041FA00904FF00A
:10190C007C50059903F0BEFB049903F0BBFB00F07F
:10191C003BFA00F037FB494603F0B4FB08901B99E7
:10192C001A9803F0AFFB00F02AFA81461199199826
:10193C0003F07AFD00F028FA00F0F9F9214603F0E3
:10194C00A1FB07904FF07C50049903F09BFB069988
:10195C0003F098FB00F013FA04460F98109903F06B
:10196C0091FB00F011FA00F010FB00904FF080405A
:10197C000F9903F0FDFA04461698214603F082FBFA
:10198C0000F005FA13904FF08040119903F0F0FA33
:10199C001C9903F049FD294603F074FB069000F0F6
:1019AC00DEF90546029800F0EFF91290394600F086
:1019BC00D7F9119006990A9803F0DAFA814613992F
:1019CC00099803F0D5FA00F0B2F98146009900F0BD
:1019DC00A7F9119903F0CCFA00F0A9F900F0E7FA95
:1019EC000146129803F04EFB00F0DEFA00F09FF96E
:1019FC008146089800F0ADF900F099F981460098FD
:101A0C00594603F03FFB0F904FF08040049903F0D0
:101A1C00AFFA8346059900F091F900F0BDFA00F099
:101A2C007EF9279903F000FD10902046169903F0DB
:101A3C0029FB414603F026FB049000F0ABF98046ED
:101A4C00384600F0B6FA83460499179803F090FADA
:101A5C0007460699189803F08BFA00F059F90746D7
:101A6C004FF08144029800F0A8FA109903F080FA24
:101A7C0000F04EF907460F9800F06EF900F048F9A7
:101A8C000746284600F083F900F08EFA00F040F982
:101A9C00054600F08DFA0746149900F057F900F04E
:101AAC0042F9089903F064FA294603F0BDFC054697
:101ABC00039800F064F90746029800F060F982463A
:101ACC000699179803F054FA00901399189803F09C
:101ADC004FFA00F057FA0090214600F041F91099A6
:101AEC0003F046FA00F04EFA0446159900F038F966
:101AFC0080F00040414603F0C5FA0F9903F038FA24
:101B0C0000F043FA0446504600F0FCF800F04CFAA2
:101B1C0000F03BFA0446149900F022F900F003F9A6
:101B2C00089903F025FA00F030FA804604990A98D7
:101B3C0003F01EFA04460699099803F019FA00F00E
:101B4C0024FA0446159800F034FA0146129803F072
:101B5C0099FA0F9903F00CFA00F017FA0446119851
:101B6C00394603F08FFA00F01FFA00F00EFA044623
:101B7C00089800F004F900F008FA074600F0F9F8AC
:101B8C00044600F01EFA00F000FA044600F0D2F809
:101B9C0000F0FBF9044600F0F6F800F0F6F900F05E
:101BAC0017FB0446484600F008FADFF8BCA400F026
:101BBC00E6F801460E9803F065FA0E9000F0EEF888
:101BCC0000F0DDF801460D9803F05CFA0D9021460B
:101BDC00404603F0CDF900F0D2F801460C9803F022
:101BEC0051FA0C90214600F0AEF800F0C8F801460E
:101BFC000B9803F047FA0B900E98FEF719FA8046F3
:101C0C000D9821F00045FEF713FA04460C9821F0CC
:101C1C000049FEF70DFA824621F0004700207F496B
:101C2C0042462B4604F038FD22464B4603F0B0FAF0
:101C3C0052463B4603F0ACFA04460B980D46FEF7B1
:101C4C00F7F921F0004122462B4603F0A1FA03F0EC
:101C5C0013FBDFF80C144867DFF80404046F0E98CC
:101C6C0000F0ABF9039903F0DFFB07460D9800F089
:101C7C00A4F9029903F0D8FB05460C9800F09DF9E5
:101C8C00019903F0D1FB83460B9800F096F931468D
:101C9C0003F0CAFB064600F076F8044600F091F912
:101CAC0000F073F90446584600F056F800F06DF950
:101CBC000446304600F07DF900F067F900F088FA30
:101CCC000446384600F079F9DFF89413886100F087
:101CDC0065F8E349C861584600F06FF9E0490862BD
:101CEC00304600F06AF9DE4948621DB0BDE8F08F5D
:101CFC003D0AD7A3703DF2BF6E1283BA9A99999997
:101D0C0099992340594603F08FBB514603F08CBB85
:101D1C00394603F089BB0146504603F0B3B901467E
:101D2C00584603F0AFB90146384603F0ABB9494603
:101D3C0003F07ABB4046414603F01AB94FF080409D
:101D4C0003F016B93146384603F012B9029803F085
:101D5C000FB9294603F00CB9594603F009B951469D
:101D6C00019803F005B9716A8346084603F000B97F
:101D7C0082464846494603F0FBB8834650465146D6
:101D8C0003F0F6B882463846394603F0F1B84146BE
:101D9C0003F04ABB3946039803F0EAB828462146BB
:101DAC0003F0E6B82DE9F041032BA8BF022302DAB9
:101DBC00002B48BF0123AD4C656AB5EB030C069BA9
:101DCC0048BF0CF1030C002B1CBF079E002E4FF0DC
:101DDC000C0E0DD0089F5FB10EFB0C4CDCF8008094
:101DEC00C3F80080DCF804303360DCF808303B606A
:101DFC000EFB054318605960681C032190FBF1F140
:101E0C0001EB41019A60401A6062BDE8F08100006C
:101E1C00B81E85EB51B8DE3FCDCCCC3F0000F03F77
:101E2C000000A0409999993F2DE9FF4F8C4FFD6917
:101E3C00BC6985B02046FFF78CFF3E6A8046204681
:101E4C0000F0B7F88146786A00F0B7F8824600F0E7
:101E5C00B8F80446284600F0ACF804902946786A95
:101E6C0003F086F80546304600F0A3F88346786AFE
:101E7C0000F09FF80390796AFFF777FF07469DF80B
:101E8C00140050B17A4E404600F093F88046484614
:101E9C0000F08FF800F08BF882464FF080460898DF
:101EAC0000F087F802903146079803F061F8019032
:101EBC003146584603F05CF800F06EF80090FFF7DE
:101ECC0041FF00F065F8069903F052F80090514676
:101EDC00049803F0A9FA00F064F800F053F80090AD
:101EEC004946284603F0CEF8029903F041F800F079
:101EFC0049F812990860204600F05BF800F04CF8A5
:101F0C0000903146069803F033F804460498514685
:101F1C0003F0B8F800F051F88246384600F049F862
:101F2C0000F036F800F040F8FFF7EFFE0746039894
:101F3C00FFF72DFF029903F01BF8FFF7E9FE139949
:101F4C0008602846FFF7F3FE00F037F804460398C4
:101F5C00414603F097F800F024F800F016F8044618
:101F6C00584600F026F800F013F8089903F000F832
:101F7C0000F00BF81499086009B0BDE8F08F000070
:101F8C003333D33F009903F04FBA214603F04CBAD8
:101F9C000146009803F076B801464FF07E5003F0EE
:101FAC0071B8019902F0E4BF079902F0E1BF8146D4
:101FBC005046314602F0DCBF2046214602F0D8BF25
:101FCC0007462846294602F0D3BF2DE9F0420C46BD
:101FDC0011461D4603F056F806462046FEF728F833
:101FEC0002460B462348244904F02AFA0746894640
:101FFC001F48FFF7DEFFFFF7DCFF06464FF080407F
:10200C00FFF7DBFFFFF7D9FF0146304603F08EF9EF
:10201C00FEF70EF804F086FC3A464B4603F060FAE5
:10202C0006460F462846FEF703F832463B4603F0B9
:10203C00AFF8BDE8F04203F01FB900000100C84141
:10204C0018B7D1382D431CEBE2363A3FAE47E17A54
:10205C0014AEEF3F0AD7A3703D0AEF3F00000840D3
:10206C00080200208FC2F53E9A99193FE4320020F5
:10207C00000080BF2BF697DD9387D93F52656164D2
:10208C00792E0A0D0000000001B513460A46012105
:10209C0000A804F09BFC02BD38B55A4B1870581CB4
:1020AC00002404E011F8015B00F8015B641CE4B24D
:1020BC009442F7D3511CBDE83440C9B2184604F021
:1020CC006BBC2DE9F84F05464F4C0020207060800A
:1020DC004FF4807801F018FD01F0F9FCE8064FF0A0
:1020EC00010922D5002001F0DCFE18B1207840F067
:1020FC00100020700127F8B201F0D3FE80B17E1ED3
:10210C00608809FA06F10843608047F08000C0B28D
:10211C0001F0C7FE20B1608808FA06F10843608020
:10212C007F1C062FE7DB01F0D2FCA8063AD5002075
:10213C0001F0FDFF18B1207840F02000207001273D
:10214C004FF6FF750FF2C80B7E1E608809FA06FA6F
:10215C0010EA0A0F21D0F8B201F0E9FF40B9394674
:10216C00584601F0C8FA608885EA0A010840608088
:10217C0008FA06F6608830420FD047F08000C0B2F3
:10218C0001F0D5FF48B939460FF29C0001F0B3FAC3
:10219C00608885EA0601084060807F1C062FD3DB2F
:1021AC0001F095FC2078BDE8F28F17480078704755
:1021BC0015484088704730B5002206E01418135CAF
:1021CC0065781554921C6370D2B28A42F6DB30BD2E
:1021DC0010B50E49A1EB60044FF07C5102F0C8FE23
:1021EC00214602F0C5FE214602F0C2FE01464FF028
:1021FC007F5002F047FF2146BDE8104002F0B8BE08
:10220C00000000009833002068340020DF59375F4D
:10221C004465766963655B25645D204D6167206468
:10222C006561642E0A0D00004465766963655B2563
:10223C00645D2D32204D616720646561642E0A0D4A
:10224C000000000010B584B00820ADF80000042098
:10225C00ADF802009049914800780968904C8000D4
:10226C00019000A88847002814BF00200298A060A5
:10227C00010008BF13200BD04FF6FF7004F012FCC6
:10228C000FF2202310220A2104F12C0004F05EFE30
:10229C0004B010BD82494A681AB900B148600020E8
:1022AC007047112070473EB5134600250A467C4CFA
:1022BC0030B101281CD002281FD0042822D02BE0DA
:1022CC00142927D1194604F10C0005F07BF90FF203
:1022DC008900029004F12C03FF20019000220A20B7
:1022EC00009004F10C01A06804F0F6FB054614E024
:1022FC0001290FD1187820700FE001290AD1187824
:10230C0060700AE00C2905D1194604F1200005F093
:10231C0059F902E0182500E0022528463EBD10B50B
:10232C000246084600245E4932B1012A07D0022A2F
:10233C0007D0042A08D00CE014220C3106E00978EE
:10234C0000E04978017005E00C22203105F03AF9E3
:10235C0000E00224204610BDF8B50D460027287A6F
:10236C00C00616461C4601D50820F2BD069808B1D9
:10237C000B20F2BD00A9284605F05FF9012802D117
:10238C0027800120F2BDBDF800004AF63121401A29
:10239C0005D0401E012804D9801E08D00FE014205F
:1023AC0006E001202080E8680078307009E00C20FD
:1023BC0020800246E968304605F004F901E02780E8
:1023CC000A273846F2BD2DE9FE430E468046307A88
:1023DC000024800691461F4648BF08202AD402A933
:1023EC00304605F02AF9012824D0BDF808100A98C7
:1023FC002B4D42F60212891A40D048F22F12891A3C
:10240C0017D0491E04D0491E16D0491E24D040E0D6
:10241C0038BB012F23D1F16899F800000870F068DF
:10242C00A84206D10120696819B109680A0018BFD1
:10243C0088472046BDE8FE8398B9012F0FD199F843
:10244C00000008B98024F4E7F1680870691CF06892
:10245C008842EED10220E6E718B90C2F03D00D24E8
:10246C00E7E70B24E5E7F06805F120018842E0D1AD
:10247C000C22494605F0A6F80420D4E7012101916D
:10248C0000903B464A463146404604F083FB0446E6
:10249C00CFE70A24CDE70000780F00209406002037
:1024AC00A808002065230000D323000000000000D2
:1024BC00DFF800F013C10110DFF800F0F5C00110D7
:1024CC00DFF800F049BA0110DFF800F025C2011066
:1024DC00DFF800F0C1C20110DFF800F0E3BF01101B
:1024EC00DFF800F0B5C10110DFF800F0D5C0011025
:1024FC00DFF800F095C00110DFF800F00DA8011016
:10250C00DFF800F0BDBE0110DFF800F021C10110B2
:10251C00DFF800F02DBF0110DFF800F0E1B501107D
:10252C00DFF800F0D5C20110DFF800F0D9C20110BD
:10253C00DFF800F0F1C50110DFF8DC00007D70471A
:10254C0038B5DFF8DC00DFF8D4500068EFF3118405
:10255C0080F31188A8680021FFF7CAFF6969081A7F
:10256C00A969814238BF002084F3118832BD000074
:10257C002DE9F041DFF8A800DFF8A0400768EFF381
:10258C00118887F31188A0680121FFF7B1FF0121A1
:10259C00A1830021E183656921682268461B801AAA
:1025AC00691A884204D20020A08388F311882AE09B
:1025BC0088F31188002005E04519361A29460120B8
:1025CC00FFF79AFF8642F7D2EFF3118887F3118851
:1025DC00E18B012903D129460020FFF78DFFA1696A
:1025EC0010F1010F08BF084603D0801B814238BF91
:1025FC0008464119FFF784FF012020840020A083A6
:10260C00256088F31188BDE8F08101617047808AEC
:10261C007047FFF765BF0000A4010020780100207F
:10262C00B0D900000446DFF8CC0000687047000009
:10263C002DE9F84F04460D46FFF73EFF0646FFF71F
:10264C00F2FFEFF3118780F31188D4F80880A845C6
:10265C0002D187F3118847E0002DDFF8A49007D54D
:10266C00DFF8C40000684FF0000A00EB090B06E02D
:10267C00012000FA05FAD9F8180000EBC50B207DF3
:10268C00012822D12046FFF73FFF206CFFF710FFF7
:10269C0028B1D9F80400E1688843C9F80400D9F8D6
:1026AC001000A04207D1C9F814B02146DBF8000095
:1026BC00FFF7AFFF03E021465846FFF711FFD9F8AB
:1026CC0004004AEA0000C9F80400A560C4F80CA094
:1026DC00C4F840B0002D44BF0020C9F814000120FC
:1026EC00A9F8080087F311883046FFF7E9FE404649
:1026FC00BDE8F28FB0D90000DFF8301009687047E0
:10270C000001002010280ED3A0F11002DFF82010D9
:10271C00520901EB82011038012200F01F0002FA6D
:10272C0000F0C1F880027047E8050000B0D9000045
:10273C0000E000E004F098BF80B5002301223421B2
:10274C00DFF8E80905F04EFA00B10120C0B202BD75
:10275C00DFF8BC1A0A68002812BF42F001005008CA
:10276C0040000860704700007047FEE710B582B06B
:10277C00042005F06BFA022818BF03280DD10320A2
:10278C0000901C234FF040520021DFF8A00905F007
:10279C0006FABDE81640042066E0DFF89419DFF86D
:1027AC00940A09680C18DFF88C19DFF88C0A096890
:1027BC00B0FBF1F12046FFF78BFE2046BDE816403A
:1027CC00FFF78ABE80B5DFF870090078DFF86C0976
:1027DC0001688908890041F00101016005F043FAA4
:1027EC0005F0CDFADFF85819002008600220DFF858
:1027FC008C190968C9688847DFF8540A01684908C8
:10280C004900016000F017FA042000F00FF900F005
:10281C00B2BC00000022012904D1012807D1DFF845
:10282C00600903E0012802D1DFF82C0A0268104687
:10283C007047DFF8000A00797047000005F028BAED
:10284C0010B5DFF83C160968EFF3118481F3118899
:10285C00DFF8E019C9880120012908BFFFF76CFFD8
:10286C0084F3118810BD000030B5DFF81416DFF8C2
:10287C0088390A68EFF3118182F31188B0FA80F27B
:10288C00C2F11F02D25CB0FA80F4C4F11F04551ED1
:10289C00E55405D1DFF89C29136823EA0000106089
:1028AC0081F3118830BD00002DE9F041FFF724FFC2
:1028BC00EFF3118481F31188DFF88019425C531E09
:1028CC00435444D1DFF87819DFF8788901EB80059F
:1028DC002E786F88300618D5D8F80010096A38465B
:1028EC008847D8F80010896A38468847D8F800100D
:1028FC00096B38468847DFF8501901200860DFF86B
:10290C004C0900688007FAD514E0700606D5DFF88C
:10291C00B01951F82710002088470BE0D8F80010A8
:10292C00896938468847D8F80010496B384688477B
:10293C000228F8D106F03F003F2818BFFFF7B4FF7C
:10294C00687800F03F003F2818BFFFF7ADFF84F315
:10295C001188BDE8F08110B508B1140001D1032035
:10296C0010BD8160C26003610146DFF8E828DFF822
:10297C004C0912681018FFF7CBFD002010BD0000A9
:10298C00F8B50446DFF8F804DFF8B0180068EFF388
:10299C00118580F31188625C531C6354002A3ED16C
:1029AC00DFF89C1801EB8407387800F03F003F28D3
:1029BC0018BFFFF7E5FF787800F03F003F2818BFFD
:1029CC00FFF7DEFF7E883878DFF87878010613D5BC
:1029DC003968C969304688473968496A304688473A
:1029EC003968C96A3046884700F038F8DFF85C0867
:1029FC0000688007FAD512E0400606D5DFF8C0184B
:102A0C0051F826100120884709E039684969304699
:102A1C0088473968496B304688470128F9D185F3D6
:102A2C0011882046BDE8F24005F0BABBDFF850141F
:102A3C000A68EFF3118182F31188DFF8F827136825
:102A4C0003431360B0FA80F0C0F11F00DFF8A82731
:102A5C00835C5B1C835481F311887047DFF8E817A3
:102A6C0001200860704700002DE9F04F83B04FF053
:102A7C00000800210128C1468A4618BF022412D141
:102A8C00DFF8FC03DFF834780268EFF3118082F38F
:102A9C0011883A79012A06BF02223A71012180F38A
:102AAC00118809B10624BDE0FFF706FD0090012056
:102ABC0000F0E6F8040002D001203871AFE0FFF717
:102ACC0013FDDFF828180190C1F80090012005F0E3
:102ADC00BDF8012804D1002005F042FB4FF001089D
:102AEC00DFF8E047DFF854572168896800208847F1
:102AFC0000F0A1F8687C08B14FF00109287C08B1FE
:102B0C0049F00209E87B08B149F00409E87ADFF8DA
:102B1C00306718B1A16AF08D096B8847A87A18B193
:102B2C00A16A708D096B8847FFF798FF49F0200068
:102B3C00A16A896988470120FFF70AFE3878C00727
:102B4C0048BF4FF0010A12D4DFF8980705F062FB7A
:102B5C008346BBF1040FF7D000F067F880088000C3
:102B6C0008600321A26CDFF87C07526890470020B4
:102B7C0005F058FB00F05FF8A06A806B8047BAF153
:102B8C00000F0AD1A26CDFF85C07526859469047D7
:102B9C0000F04BF840F003000860012021688968C0
:102BAC008847DFF8440700688006FAD5B8F1000FB3
:102BBC001CBF012005F0D4FAA16A49694846884730
:102BCC00A16A496B484688470128F9D1E87A18B1BF
:102BDC00A16AF08DC96A8847A87A18B1A16A708D6C
:102BEC00C96A8847FFF73AFF0020FFF7B1FD0320C1
:102BFC003871042000F044F8DFF8F016012008606A
:102C0C0000F019F805F01CFC082000F039F8044617
:102C1C00012038710198FFF77FFC05F09CFB0098B0
:102C2C00FFF74EFC2046BDE8FE8FDFF8D006DFF83C
:102C3C00CC1600687047DFF8A806006870470000E3
:102C4C0038B58F48DFF874560068EFF3118480F3C1
:102C5C001188E888012803D105F06EF80020E8807F
:102C6C0084F3118831BD000010B5FFF745FDEFF37B
:102C7C00118481F31188FFF747FC84F3118810BD90
:102C8C0038B500F02AF80818FFF712FC002540B9F7
:102C9C00204600F008F820B1DFF86806006880478D
:102CAC000225284632BD70B500F017F80D182846DD
:102CBC00FFF736FC0646B068204206D03169F26850
:102CCC0020469047C0B2012806D03046FFF72CFCB6
:102CDC000646AE42EFD1002070BDDFF878150968CA
:102CEC000446DFF8D805704730BF704770B505F063
:102CFC00A3FBDFF840552E6806F00C000C284BD0D7
:102D0C00700727D4FFF71CFC044600210120FFF7B5
:102D1C0081FDA0421ED2DFF8C00300684519DFF820
:102D2C0014040668DFF8D8050068B0FBF6F0211A29
:102D3C002846FFF7CDFB2846FFF7CEFB4FF47A7001
:102D4C00B0FBF6F200210120FFF78EFE2846FFF7BC
:102D5C00BBFB23E030071FD4DFF8F404DFF8E444B6
:102D6C00DFF87C55F10601685ABF4908490041F06B
:102D7C0001010160DFF88405016841F00301016085
:102D8C00202021688969884728682068806B8047E3
:102D9C0001202860286801E0FFF7A6FF05F050FB32
:102DAC00BDE8704005F002BB10B50C1805F044FBF3
:102DBC00401E8041C00FDFF860150A68002AFCD065
:102DCC00246801220A6008B105F03AFB204610BDC8
:102DDC0080B50420FFF72AFE0820FFF727FE0E20FF
:102DEC00FFF7CEFDDFF82005DFF820150068C0F3F3
:102DFC00815003280CBF012000200880DFF810054B
:102E0C0002680AB1012002BDDFF8103540221A60B9
:102E1C000122C2610020486002BD10B5DFF85C13CE
:102E2C00DFF8F04482B009680968202088470F2039
:102E3C002060072341F61D5060604FF4C0720220E1
:102E4C00009000F0C9F8DFF8D80401210160016896
:102E5C008907FCD501212161DFF8B04421880129C3
:102E6C0007D1002101610220202100F091F80120FE
:102E7C0004E00121002000F08BF80220606013BDFB
:102E8C00B0D900002DE9F041DFF89804DFF87C445C
:102E9C0082B0016842688A43426001616068002820
:102EAC0004BFBDE8F341FFF7B8BF0128DFF8781481
:102EBC001AD10220606008684BF2F5214843618802
:102ECC00000A11B10021618006E0DFF86014096886
:102EDC00090210EB11204008DFF854140860000CB4
:102EEC004860012088600CE002280FD10868B0F51A
:102EFC00C06F02D10020606045E00321616000F0EA
:102F0C006FF80121BDE8FC41002041E003283DD1D0
:102F1C00002060600868A0F5C065A06800F0B2F8F9
:102F2C000646284600F0AEF886422CDAA6692846FA
:102F3C0000F0ACF88019A061E56860697B4E8542B1
:102F4C000ED0A769A7F1100000F09CF8804620690C
:102F5C00103800F097F8804502DABFB200970BE00A
:102F6C00ADB2009508234FF47F423021304604F077
:102F7C0016FE206980B2009012234FF4F80204214F
:102F8C00304604F00CFEBDE8F3418AE0BDE8F38165
:102F9C0070B50D46DFF89C4382B0032121600021FF
:102FAC00DFF89463316031688907FCD480B20090FB
:102FBC000523602200F010F8012030603068800793
:102FCC00FCD5A561002020600821DFF85003C1600A
:102FDC0001600120206073BD0021544804F0DFBD66
:102FEC0070B50646514C82B030212046FFF7DCFE0E
:102FFC00DFF81853C0F30720E86004212046FFF7E0
:10300C00D3FEC0F384402861A6F5C060A8602E6989
:10301C0000F03CF88019A861A969E868022909DA6E
:10302C00401E6FF03F039842B8BF184610310BD5C5
:10303C00002109E01E2908DB401C4028A8BF3F20C6
:10304C0010392029A8BF1F21A9616861082380B20B
:10305C0000904FF47F42302100F011F801200090D5
:10306C0011234FF4003200F009F8A86980B20090E7
:10307C0012234FF4F80200F001F873BD042120462E
:10308C0004F08DBD002848BF4042704700284CBF5B
:10309C006FF00101022101EB4000032190FBF1F0E4
:1030AC00704780B5DFF8780200210160016889075C
:1030BC00FCD40021016041600120DFF8541208604B
:1030CC000E20FFF7F1FB0820FFF7CEFBBDE8024016
:1030DC000420FFF7C9BB000094D9000010B50446CA
:1030EC000020D4E90A2347F6906105F0B1F90129D3
:1030FC0028BF4FF0FF3010BD10B50C4605F020FA7C
:10310C00011D201AB0F1004F05D8081BB0F1004F7B
:10311C0038BF8C4200D20C46DFF820221268526A6B
:10312C002146BDE8104001201047000000A00C40D3
:10313C0098D90000B4D90000783400200440034032
:10314C00401009402DE9F04180460A46D8E90A01B1
:10315C00D8E90C45A0FB026701FB0277A6196F4169
:10316C00340C002244EA07414046FFF7C5FFC8E98A
:10317C000E67BDE8F0814FF0FF3002BDA0010010DA
:10318C00A4D90000F8B50546DFF8B801DFF8B8613E
:10319C000068DFF8B871EFF3118480F311883068A0
:1031AC0040F0800030600120B96849688847F96AAE
:1031BC00096A142088472869B0F5802F34BF042190
:1031CC00010CBA68526A012090473A6812682321B0
:1031DC0000209047B968C96901208847306820F4FD
:1031EC00E02040F480303060306840F00100306006
:1031FC0084F31188F1BD00003C340020DFF8540149
:10320C0003684068002200211018594170470000E3
:10321C000C200840DFF82411DFF8240110B50968F0
:10322C0044684968012088476069A169BDE810407D
:10323C0008470000040C0020A0860100CC330020BD
:10324C00D0D40000B80100102820086028200840C5
:10325C008C2108409CD90000A8D90000F8B5044680
:10326C000D46FFF7CBFFD4E90A6732463B4605F023
:10327C00EFF83DB1A6FB002306FB013307FB00333F
:10328C00C4E90C23F2BD38B5DFF8BC40DFF8C05000
:10329C002068400840002060206840F080002060DA
:1032AC000120E062E06A2968496801208847696A60
:1032BC00096A14208847E06A31BD0000040C002024
:1032CC007C0F00209001001080B500F004F8000C79
:1032DC0040EA014002BDDFF8800000688EE7000084
:1032EC002C20094000400340141009400C400940B8
:1032FC0009B9DFF86810FFF71BB900002422084059
:10330C00ACD90000A0D90000B43F0050240F00201D
:10331C0004800C400C400C4000800C402C500C40A5
:10332C0034600C4028500C4008400C4010200940E0
:10333C003C600C4000400C4038600C408C0100108C
:10334C00E4010020B0D900000020094084010010E5
:10335C008C01001008200940EC010020A0010000A5
:10336C00DFF8FC14096821B10A898242FAD10846B7
:10337C0070470020704700BF13B5044604F029FFC6
:10338C0018B1002000F002F806E008E0009001AB54
:10339C0022464FF0FF31704700F00DF816BD4FF08C
:1033AC00FF3016BD00F007F80EBD08B582B0002343
:1033BC00009302ABF6E777B58DB01C461498ADF8C8
:1033CC00180000250F9828B92FE10EAA0DA800F0BF
:1033DC007BF96D1C00F034F9080000F020812529E0
:1033EC00F3D100F02DF92D2905D10120ADF80600FF
:1033FC0000F026F902E00020ADF80600302904D1D7
:10340C000120049000F01CF901E000200490002041
:10341C0000904FF0FF3002900A202A2918D1216821
:10342C00216051F8042B2160009200F01AF9009AE7
:10343C00002A11D50122ADF80620009A52420092C2
:10344C000AE0009A00FB02113039009100F009F9F2
:10345C00A1F130020A2AF4D32E291DD100210291A8
:10346C000F990F9A0978521C2A290F9210D100F04B
:10347C00F2F80291002944BF0020029000F0E0F81D
:10348C000AE0029A00FB02113039029100F0E9F8CF
:10349C00A1F130020A2AF4D3049808B100980490E0
:1034AC006C2918BF4C2905D10120ADF8040000F09F
:1034BC00C7F802E00020ADF8040008A807900CA89B
:1034CC00059000200390642918BF69290DD1BDF81F
:1034DC0018000028FFD000F0B8F86FF0090302982C
:1034EC00049A8242B8BF049019E00A2375291FBFC1
:1034FC001023782908236F2903D1BDF8180038B997
:10350C0006E0702913D1049320682060016814E050
:10351C0000F09BF8049A02988242B8BF0490049A77
:10352C00059800F0A4F807900599081A2FE0632974
:10353C0019D12068206001680FE0001D2060102365
:10354C000598082200F093F8401E07904020079938
:10355C00087005980799401A19E0001D206007981B
:10356C000170012013E0732913D100F074F8079156
:10357C0011B90FF2BC000790079804F0F3FF039009
:10358C00029810F1010F1ED0039988421BDA0390A8
:10359C0019E00F98401E0F900E98022813D3029832
:1035AC0010F1010F02D00E99884201D30E9800E061
:1035BC00401CDFF8B462366802906B4622460FA9B5
:1035CC000DA8B047451900980399401A0090BDF812
:1035DC00060038B902E000F02FF86D1C0098401E70
:1035EC000090F8D50398411E039150B10798401CE8
:1035FC0007900EAA10F8011D0DA800F065F86D1CBF
:10360C00F0E7BDF8060000283FF4E4AE0098401E39
:10361C0000903FF5DFAE00F00FF86D1CF6E70D984B
:10362C0010B10D9900200870284610B070BD000034
:10363C00286E756C6C2900000EAA20210DA843E0A1
:10364C000F9810F8011B0F907047206820600168DC
:10365C00001D206070472068206050F8041B20601B
:10366C0070470F990F9A0978521C0F927047F0B55A
:10367C0000240025002B44BF5B42002902D549429F
:10368C00521E2D25B1FBF3F60FF2280703FB161182
:10369C00641CC95D00F8011D31460029F2D1944229
:1036AC00BEBF302100F8011D641CF8DB0DB100F821
:1036BC00015DF0BD30313233343536373839616223
:1036CC00636465660000000010B50C4611680229A1
:1036DC000BD3491E1160016819B14A1C02600C70B1
:1036EC0010BD04F076FD00B100E010BD2046BDE831
:1036FC00104004F06CBD0EB400B501A9FFF73BFE01
:10370C005DF810FBDFF86411096808470000DFF86A
:10371C0060010068004701207047FEE7704710B554
:10372C000446606808B9012010BD0B4601462068AC
:10373C0048A200F077F8A1684118A16061680129DE
:10374C00A4BF081A6060002010BD00003EB50D46F5
:10375C004249098814468142034628BF0FF21C12C5
:10376C0010D240490988814207D3FFF7F9FD214661
:10377C004268284600F056F83EBD3549098831B9F3
:10378C000FF204122146284600F04CF83EBD394B8E
:10379C000095002C48BF47F6FF740021029101945C
:1037AC006A461B683449984702983EBD2DE9F84398
:1037BC00170048BF47F6FF7704468846002664B3D7
:1037CC00208818B13A46FFF7C1FF0646B91B0129FC
:1037DC0022DB208820B120A2404600F023F8861975
:1037EC00A068C8B1656875B1284604F0BBFEA7EBAC
:1037FC000609401D814506DB2B460FF2A002494607
:10380C0000F00EF88619B91B122905DBA3680FF21C
:10381C00940200F005F886193046BDE8F2830000EA
:10382C004046FFE708B478B504001ABF2668002E9E
:10383C0000260D4605AB3046FFF7B7FD854238BF75
:10384C00681E16B121684118216072BC5DF808FB36
:10385C008A050000257300003A200000D00000000B
:10386C00E80F00208A000000C0D90000B8D9000081
:10387C00BCD90000C4D900002B3700007B6D6F64ED
:10388C00756C652325647D007B6D6F64756C652D8F
:10389C00726F70653A25787D000000002225732236
:1038AC002C2000006C696E652025643A2000000015
:1038BC00DFF800F041AC0110DFF800F085C1011019
:1038CC00DFF800F079B50110DFF800F0F5B8011061
:1038DC00DFF800F0A9C1011000B583B00821ADF8E4
:1038EC00001001900521ADF8021000A85349096899
:1038FC00884707BDF0B589B004460D4616461F46ED
:10390C0008232422002100A8FFF7D6FF0F984C496A
:10391C000968069000AB4FF47A70B0FBF1F101FB33
:10392C0007F0059001FB06F20E98ADF81000294641
:10393C002046FFF7C5FF204609B0F0BDFEF7CCBD11
:10394C0038B504460D46FEF762FE10B12046FEF770
:10395C00BBFD00F031F800FB05F12046FEF7B8FD89
:10396C002046BDE83240FEF7B7BD80B5FEF74FFEEE
:10397C0000B10120C0B202BDFEF7A6BD70B5044671
:10398C000D46FEF744FE20B12046FEF79DFD0126B4
:10399C0000E0002600F010F8454329462046FEF7CB
:1039AC0097FD29462046FEF730FE26B12046BDE89D
:1039BC007040FEF791BD70BD214909684FF47A70D3
:1039CC00B0FBF1F0704710B504460021FFF77CFF07
:1039DC00204610BD70B584B004460820ADF8000038
:1039EC000D460420ADF802000C2014490968019022
:1039FC00164600A8884758B9029949B18E602046EE
:103A0C00FEF76EFD15B12846FFF752FF012003E0CB
:103A1C003046FFF761FF002004B070BD10B50446BE
:103A2C00FEF746FD38B92046FFF752FF8468FFF7D2
:103A3C0053FF204610BD002010BD0000780F002061
:103A4C00B4D9000070B5044604F00F05062D18DA41
:103A5C0015B96821012016E0DFF81068B07FA84284
:103A6C000AD000F044F860B10120A840C0B202F0C6
:103A7C009BFFB57702F0D3FFA54214BF69216821E3
:103A8C0000E0AAE00020BDE8704002F0A6BF10B52F
:103A9C0000F00F04062C16DA14B90C2101200EE0EC
:103AAC0000F025F878B10120A040C0B202F07CFFF4
:103ABC00DFF8B807847702F0B2FF0C210020BDE8D4
:103ACC00104002F08ABF02F0AAFF002010BD10B512
:103ADC00DFF89847A07F48B100F009F810B100203A
:103AEC0002F062FF02F09BFF0020A07710BD702156
:103AFC00002002F072BF08E080B5042004F024FF1F
:103B0C00012818BF002002BD00BF0020FFE770B5E0
:103B1C00044604F00F05A5421CBFAD1DEDB2FFF726
:103B2C0091FF00284AD0DFF844670020B077A9192C
:103B3C00A855087301228020707706F11D016B20B7
:103B4C00FEF7AAFA3DB9002000F040F8052000F07D
:103B5C0036F8002006E0042000F038F8062000F0CB
:103B6C002EF8042000F0A2FA1920FEF795FA02F0C4
:103B7C0056FF204600F095F905001ED000F074F9B0
:103B8C0000B92AE0707EC000B07600F0FBF8F07E41
:103B9C00C00000F050F902F042FFDFF8D4160968BB
:103BAC004FF4FA6000F0A4F9204600F03FFA2046EA
:103BBC0000F081FA204600F000FA284670BD7077BC
:103BCC00012206F11D011D20FEF766BA7077012255
:103BDC0006F11D011A20FEF75FBA02F020FF00204B
:103BEC0070BD6077012204F11D016B20FEF754BA01
:103BFC0010B582B0044600208DF80000FFF77CFF62
:103C0C0018B902F00CFF002016BD00F02DF948B1D8
:103C1C00012200A93A20FEF737FA08B98DF8000006
:103C2C0002F0FDFE9DF8000016BD2DE9F04782B0B4
:103C3C000D468046FFF760FF08F00F06002834465B
:103C4C0050D0062C4EDAA01D5FFA80F9444518BFFF
:103C5C004C46DFF81876E05D58BB55B3B246C2450A
:103C6C0018BFCA46FFF748FF08B34046FFF7EAFE05
:103C7C00F8B109207877012207F11D016B20FEF7BE
:103C8C000BFAA0B13F20787700F04DF800210AF82C
:103C9C00071060B1012207F11A011C20FEF7FCF994
:103CAC0028B1012207F11D013A20FEF7EDF902F0CF
:103CBC00B6FEE555E05D002830D0464518BF4E46AF
:103CCC00F05DC04378774046FFF7BCFE48B300F088
:103CDC002AF802F0A4FEF05D800900F00105FFF760
:103CEC000BFF10B902F09BFE1BE00121404600F0D7
:103CFC0083F9B0B14046FFF7CAFE38B1002D14BFAE
:103D0C001620002000F0AAFA02F089FEB8F1000F8C
:103D1C0007D00021404600F06FF902E0404600F069
:103D2C004CF9BDE8F387012207F11D016C20FEF769
:103D3C00B3B970B5DFF834650446707E0125A04236
:103D4C0001D1012070BDE000B076FFF7D5FE18B9A7
:103D5C0002F065FE002070BD00F02CF80028F9D0B0
:103D6C0000F010F800B9002502F059FE002DF1D03A
:103D7C0074760124204600F00BF8641C062CF9DB49
:103D8C00284670BD012206F11A011C20FEF784B9E9
:103D9C0010B500F02FF900B995E600F065F840B1C8
:103DAC000122DFF8D0141C20FEF776F900F05EF843
:103DBC00204610BD002045E638B504460D46FFF7F9
:103DCC009BFE00B910E000F04FF860B106222946C6
:103DDC003B20FEF759F900F049F81CB106212846A2
:103DEC00FEF7E9F9204632BD02F019FE002032BD83
:103DFC0070B5DFF878640446F07E0125A04201D14D
:103E0C00012070BDFFF778FE00B9E6E6FFF7D2FFA0
:103E1C0080B1E00000F00FF800B9002502F0FFFDC2
:103E2C0005B1F4760024204600F00CF8641C062C36
:103E3C00F9DB284670BD3077012206F11C011B20EE
:103E4C00FEF72AB910B500F0D5F800B93BE600F042
:103E5C000BF840B10122DFF820141B20FEF71CF9EF
:103E6C0000F004F8204610BD2046EBE5044602F0B5
:103E7C00D6BD38B504460D46FFF73EFE00B9B3E794
:103E8C00FFF7F2FF60B1062229464320FEF7FCF84B
:103E9C00FFF7ECFF1CB106212846FEF78CF92046F3
:103EAC0032BD10B500F0A6F8C0B1FFF7DDFFC8B108
:103EBC00DFF8B843207E40B10020DFF8B413207641
:103ECC004CF25030096800F013F800F016F8752029
:103EDC00FEF7DAF810B1607F712800D0F3E502F03C
:103EEC009EFD012010BDDFF88813096842F21070A6
:103EFC00B0FBF1F0FCF77CBB6077012204F11D01F3
:103F0C00704780B504F07CFDDFF86023527E2AB147
:103F1C00022A0AD005D3032A0BD00EE0DFF85C335B
:103F2C000AE00022DFF8583306E00022DFF85433B1
:103F3C0002E000224FF07D532BE0002002BD80B543
:103F4C00DFF82823D27E2AB1022A13D00AD3032AFF
:103F5C0018D002BD04F054FD00F02AF80022DFF85E
:103F6C00283316E004F04CFD00F022F80022DFF8B4
:103F7C001C330EE004F044FD00F01AF80022DFF8C8
:103F8C00103306E004F03CFD00F012F80022DFF8DC
:103F9C00043301F0A5FABDE8044001F06DB980B519
:103FAC0004F02EFD00F004F80022DFF8EC32F0E70C
:103FBC0000224FF07C5301F093BA10B500F01AF8C0
:103FCC0060B1062C0ADAFFF74FFF58B1A74C3F201F
:103FDC0000F009F810B14F20FFF703FEBDE81040C8
:103FEC0002F01DBD10BD6077012204F11D016C2093
:103FFC00FEF752B804467FE510B50C4600F00F01F1
:10400C00062900DB5FE5FFF71DFD60B1202004B140
:10401C0022209649487701221D313720FEF73CF8C3
:10402C00FFF724FF00E00024204610BDF8B5FFF791
:10403C00E1FF04F00F05002804BFBDE8F14002F0D9
:10404C00EEBC00F008F900282FD0A5421CBFAD1D16
:10405C00EDB200F057F820B3844E904F0F2000F0D3
:10406C0025F80A20FEF718F8FFF73DFF0322394622
:10407C001020FEF709F860B1387806EB4501803066
:10408C00088407EB4500797880318180B9788031DC
:10409C008183012000F00AF80B20FDF7FDFF02F0F0
:1040AC00BEFC2046BDE8F4403FE0F1BD7077012234
:1040BC0006F11D01704770B5FFF79CFF04F00F0669
:1040CC00002804BFBDE8704002F0A9BCA6421CBF8A
:1040DC00B61DF6B200F0BFF898B100F013F858B165
:1040EC00624D00F01AF8FFF7FEFE705D400601D538
:1040FC0000F00BF802F093FC1CB12046BDE87040B8
:10410C0013E070BD2046FFF7C2BC16206877012271
:10411C0005F11D010A20FDF7BFBF012068770122C0
:10412C0005F11D010B20FDF7B7BF002164E738B581
:10413C00FFF760FFA0B100F08EF8C8B1FFF7E2FF07
:10414C004B494A4DFFF7D1FEFF206877012205F15C
:10415C001D010020FDF798FF10B1687F482800D0A2
:10416C0042E602F05CFC14B1002100F075F801206D
:10417C0032BD2DE9F041044604F00F05062D84B044
:10418C000F460CDAA5421CBFAD1DEDB2DFF8DC808A
:10419C0005EB080606203073FFF7AEFC18B902F0E9
:1041AC003EFC002054E0002030734CB100F053F87A
:1041BC0010B90520307301E0307B08B1012047E0D5
:1041CC00FFF7A0FF012200A90220FDF75DFF98B3C5
:1041DC009DF80000C0072DD5072201A90320FDF78B
:1041EC0053FF28B301A9887900071FD4BDF8040038
:1041FC00388008EB4503B1F902007880B1F904105E
:10420C00B980B7F90020B3F920305A4312123A8022
:10421C00224A02EB4502B2F904305843001278806E
:10422C00B2F91C0048430012B88007E0032004E0F8
:10423C00042002E0022000E001203073162000F080
:10424C000DF802F0ECFB15B1002100F005F8307B05
:10425C0004B0BDE8F08101212046CDE68DF80000C8
:10426C00012200A90A20FDF717BF0000B80D00209D
:10427C00B4D90000D20D0020D40D00200000103F56
:10428C000000203F0000303F00406F4000407F4066
:10429C0000408F4000409F4000C0B2405832002088
:1042AC0010B504F0C3FB002420B104F0F2FB04466B
:1042BC0004F0C9FBDFF88808416882681143C268C2
:1042CC00114303D144608460C46015E00178491C3B
:1042DC00C9B2032291FBF2F202EB4202891A01707D
:1042EC00017800EB81014C6041688268C06851180C
:1042FC0040180321B0FBF1F4204610BD00B58FB07F
:10430C0008233C22002100A8FCF76AF9DFF83808E2
:10431C0000F15001079100234FF44071089100AA5D
:10432C00012106910FF22D31FCF75EF90FB000BDA3
:10433C0030B585B002F076FB04F0C2FB04F086FBCE
:10434C0004F079FC0FF25950DFF8F84704F06BFCDD
:10435C000FF2515004F06BFCDFF8F00704F0DBFCBB
:10436C0030B94FF4804004F034FE0120E07403E0D7
:10437C000FF2E870FFF7BFF90FF6202104F1580097
:10438C0004F03DFA206518B90FF2FC70FFF7B3F991
:10439C006FF07E0060740020A07400F059FA0120C8
:1043AC00DFF8AC170968ADF8020000A88847BDF823
:1043BC00040020830298E06404F18800FFF703FBFB
:1043CC0060650023042001904FF47A720020009065
:1043DC0004F164000FF2F161FFF78CFA01211F2048
:1043EC0002F0D4FE01208DF801000DF10102002035
:1043FC00ADF80C0001208DF800000820ADF80A0083
:10440C004FF44870ADF808000020ADF806006420A9
:10441C00ADF804000120ADF80200014640F2053071
:10442C0004F0F2FD03AA022140F2063004F0ECFD88
:10443C00DFF8202700F01BFB22460E2140F207304C
:10444C0004F0E2FD00AA01214FF4447004F0DCFDFD
:10445C000DF10A02022140F2113004F0D5FD02AA3E
:10446C00022140F2123004F0CFFD0DF106020221C0
:10447C0040F2133004F0C8FD01AA02214FF445703C
:10448C0004F0C2FD0DF10202022140F20F3004F0E3
:10449C00BBFD0FF6B8020A21002002F077FDA02127
:1044AC00062002F073FEA021072002F06FFEA0216F
:1044BC00082002F06BFEA021092002F067FE4FF0ED
:1044CC00FF3002F060FD4FF0FF3002F03CFD05F0D4
:1044DC0047FAFF22302104F11C0000F0B5FD04F175
:1044EC001C023021802003F023F848B10FF2CC706D
:1044FC00FFF701F904F11C023021802003F02DF8A4
:10450C0000206075FFF7CCFE00F09CF940F6756159
:10451C0088420FD20FF28460FFF7EDF80A2500F005
:10452C009BF96D1EFBD10FF28460FFF7E4F80220BB
:10453C0005F020FB0B2002F0DFFF0FF61C0211210F
:10454C00012005F015FA0FF624052A460521022054
:10455C0005F00EFA2A460521052005F009FA0FF69A
:10456C0014021421032005F003FA0FF62802082187
:10457C00042005F0FDF90FF610020921062005F0C4
:10458C00F7F9012000F06BF93020FDF79AFD054694
:10459C00302D06D100F060F90FF22060FFF7ABF878
:1045AC0007E00A2100F059F929460FF22460FFF7C1
:1045BC00A2F8FDF7FDFD01460FF23860FFF79BF8FE
:1045CC00A08B4FF6FF71884204D10FF24460FFF7C5
:1045DC0092F827E080070CD404F120020C2104206F
:1045EC00FDF761FE0420FCF726F8E08A40F002009B
:1045FC00E082207F400715D404F12C020F21042007
:10460C0005F094FB04F13B020F21052005F08EFB15
:10461C00042001F045F9052001F042F9E08A40F050
:10462C000400E08205F09AFC01F00EF904F194000C
:10463C0004F0BFFE002002F04AFC208BC0B202F056
:10464C0043FC206D0FF2D94104F085F905B030BD63
:10465C00000000002DE9F04F87B0FFF769FE0FF264
:10466C00FC510FF2EC500FF220640FF240590FF294
:10467C00006A0FF2285BDFF8D854DFF8C864FFF744
:10468C003AF84FF6FF780FE00221002004F008FC06
:10469C000221002004F019FC0221002004F0D0FBC0
:1046AC000028F1D104F0B4FB00F0D2F80A20ADF8E8
:1046BC0002004FF0FF30019000A8296888470028BD
:1046CC0060D10820ADF80C000920ADF80E0003A84D
:1046DC0029688847BDF81210059F70BBBDF8100003
:1046EC00102804BF308B814216D13878912807D01E
:1046FC00B02802BF397907F1080002F0F0FD0BE099
:10470C0078780E2802BFB88841F20541884203D15F
:10471C00B86890F9030070747FB100F099F8032029
:10472C0005E0787800F0C6F800F092F80520ADF8B6
:10473C000200019700A829688847706DFDF7B8FE44
:10474C00E0B9706DFFF76AF90700F6D038780128E8
:10475C00E7D00228E8D17978B8780C290BD0E3D3CC
:10476C000E2901D004D3DFE7717D08437075DBE7B8
:10477C0001F096F8D8E7FBF75EFFD5E705F00AFCE9
:10478C0001F06AF9708B410748D54FF6FB71084070
:10479C007083307C062812BF022806F16400FFF7F4
:1047AC00CDF8307C06280ED10220B074ADF808800C
:1047BC0002A940F20E3004F06DFDBDF80800404532
:1047CC0018BF02F052FE307C022804D10320B074D2
:1047DC00012100F042F8307D00B3FFF761FD00F0DD
:1047EC0031F880B2B0F5616F18D25846FEF783FFEE
:1047FC00002000F034F80A2700F02EF87F1EFBD1C1
:10480C00307C062804D104F0EDFD5046FEF773FF12
:10481C004846FEF770FF022005F0ACF9708B0107DB
:10482C007FF542AF4FF6F7710840708304F0E9FA58
:10483C0004F0E3FAC0F30020002802D02046FEF773
:10484C005AFF29E740004FF47A71B0FBF1F0704742
:10485C000820ADF8000070470521012010E110B5CB
:10486C00B84C0100206D0FD00122042104F059F83E
:10487C000120B94920750968BDE810404CF2503050
:10488C00B0FBF1F0FBF7B4BE0022042104F049F8B0
:10489C000020207510BD0146002201201BE1000004
:1048AC0070470000A748418B41F008014183C06C60
:1048BC00FEF7FEBF7FB5012804460FF29436A14DDA
:1048CC000BD0022846D0042818BF05286CD0062827
:1048DC0054D0082800F0B180BAE0052100F0D0F8DF
:1048EC0002A94FF4417004F0D5FC9DF808008DF836
:1048FC00000002A900A84A7842708A7882700022CF
:10490C000271C2704A798DF807200A79C9788DF83E
:10491C000620417100AA0821002005F029F89DF815
:10492C0008008C4A9DF80810000990740A28ACBF46
:10493C00572330231818907401F00F010A29ACBFCB
:10494C0057203020D1744018D07400F090F80FF23A
:10495C00B8317BE005F16400FFF707F818B905F1F1
:10496C006400FEF7EBFF287D10B90120FFF777FFFD
:10497C00002000F0DDF80FF29C3167E005F16400D7
:10498C00FEF7F3FF18B905F16400FEF7D7FF286DA9
:10499C000022012103F0C5FF0FF2843100F064F80E
:1049AC000420FEF743F853E000F0B1F80FF27C312D
:1049BC0000F05AF8A87C02280AD00FF27C3100F0E3
:1049CC0053F80020FFF74BFF0420FDF74DFF3FE0AD
:1049DC006E7D0120002EA8743AD0F0070DD505F19C
:1049EC0020010420FDF79BFCA88B4FF6FD710840BD
:1049FC00A883E88A40F00200E882B00706D505F1EA
:104A0C002C01042005F0D4F900F024F8700706D529
:104A1C0005F13B01052005F0CBF900F01BF805F181
:104A2C001C023021802002F098FD18B10FF2B0204A
:104A3C00FEF761FE002068750AE000F068F8286D4A
:104A4C000122012103F06DFF0FF2F82100F00CF8A8
:104A5C002C747FBDA88B4FF6FB710840A883E88AA5
:104A6C0040F00400E88270473046FEF744BE1D213A
:104A7C004FF4427004F0C8BA0A46014602202AE0FC
:104A8C002DE9F04104460D4600262E4F16E0386DF8
:104A9C000122214603F045FF2F49096844F62060A6
:104AAC00B0FBF1F84046FBF7A3FD386D0022214620
:104ABC0003F037FF4046FBF79BFD761CF6B2AE4287
:104ACC00E5D3BDE8F08100001E494A8B10434883B2
:104ADC00C86CFEF7EDBE70B584B00446FFF7B8FEA7
:104AEC000D460420ADF80200032019490968019015
:104AFC00164600A8884748B9029A3AB11470557006
:104B0C0096701048C16C406DFEF764FF7FBD80B598
:104B1C00FBF748FE00F028FFBDE8014005F068BA3D
:104B2C0011B10A2902D0704705F019BA00F06CBF18
:104B3C00044A50730E2140F2073004F065BA0000AD
:104B4C00F4330020DC0A0020D82500209CCD000086
:104B5C00780F0020E80E0020B4D90000436F6E746B
:104B6C00726F6C6C65725F53656E736F72436F6EB0
:104B7C0074726F6C6C6572496E6974204661696CF5
:104B8C0065642E0A0D00000050494E5F6F70656E13
:104B9C00204661696C65642E0A0D00004C6F77200D
:104BAC00506F7765722121210A0D000053797374BF
:104BBC00656D2048616C742E0A0D000073656C667F
:104BCC00546573744D617020506173732E0A0D001F
:104BDC0073656C66546573744D6170204661696CC5
:104BEC00656428476F74203A30782578292E0A0D91
:104BFC000000000046696754657374526573756CE8
:104C0C0074203A20307825303478200A0D000000CA
:104C1C004469646E742066696E642043616C6962D9
:104C2C00726174696F6E206461746120696E2046D4
:104C3C006C6173682C204D617920636175736520FC
:104C4C006F6666736574206572726F722E0A0D0042
:104C5C004C43443A25730A0D00000000436F6E74F8
:104C6C00726F6C6C6572205374617274000000007A
:104C7C00426C7565746F6F746820446973636F6EF2
:104C8C006E6563742E0A0D0053656E736F7220434C
:104C9C006F6E74726F6C6C6572204F766572666C99
:104CAC006F77206572726F7220686173206F636317
:104CBC007572726564210D0A00000000436F6E74FA
:104CCC00726F6C6C65725F5265616443616C696292
:104CDC00726174696F6E204572726F720A0D0000FA
:104CEC00436F6E74726F6C6C65725F53746F726528
:104CFC0043616C6962726174696F6E204572726F88
:104D0C00722E0A0D00000000496E697469616C69AD
:104D1C007A6564004164766572746973696E6700C4
:104D2C00436F6E6E6563746564000000576169744F
:104D3C00696E672E2E2E0000506F776572206F669D
:104D4C00662E00004572726F720000004672656537
:104D5C002057726974650000434332363530204663
:104D6C007265655772697465000000004E2E412E05
:104D7C0000000000312E302E3120284D6179203179
:104D8C00392032303137290053504945204C4142AB
:104D9C000000000050434220322E30000108808673
:104DAC00002007C0040080800A2007C0FF0000001C
:104DBC00E0B50821ADF8001001900421ADF8021007
:104DCC0000A836490968884708B100200EBD029832
:104DDC000EBD38B5324D334C28788000FFF7E8FF14
:104DEC00206028788000FFF7E3FF216860600029CD
:104DFC0018BF002801D1132032BD4FF6FF7528468D
:104E0C0001F050FE6168284601F04CFE04F12000D0
:104E1C0001B0BDE830400FF24C131022072102F014
:104E2C0095B821490A681AB900B10860002070478A
:104E3C00112070473EB5030010460FF27104194D56
:104E4C0002D0032B0DD01EE00C291AD101460C22E6
:104E5C0005F1080002F0B6FB00F017F805F10801A7
:104E6C000BE00C290DD101460C2205F1140002F0C7
:104E7C00A9FB00F00AF805F11401286801F02CFEDA
:104E8C003EBD18203EBD02203EBDFF200190029485
:104E9C000720009005F1200300227047780F0020B6
:104EAC0094060020740B002060340020F8B50D46E9
:104EBC000027287AC00616461C4601D50820F2BDEC
:104ECC00069808B10B20F2BD00A9284602F0B5FBEC
:104EDC00012802D127800120F2BDBDF800004AF65E
:104EEC003D21401A01D0401E07D10C2020800C22FD
:104EFC00E968304602F066FB01E027800A27384655
:104F0C00F2BD2DE9F0410D460446287A00278006B3
:104F1C0084B01646984648BF08201FD402A92846DC
:104F2C0002F08BFB012819D0BDF8080042F60211E3
:104F3C00401A05D048F23B11401A01280DD90BE05C
:104F4C000120019043460A9800903246294620469B
:104F5C0001F020FE074600E00A27384604B0BDE801
:104F6C00F0810000B94E00000F4F0000000000005F
:104F7C00FF2212EAD05C1DBF12EAD1539445934232
:104F8C002BE09C44D30780EA01021A4043EA00203C
:104F9C0043EA0121A1FB0030410038BF40007CF105
:104FAC007F010BDBFE294ADA5B0842EAC15153EA66
:104FBC00006373F1004C51EB10207047D1F1080CD9
:104FCC00DCF120012FDB5B0810FA01F10B4373F1CC
:104FDC00004120FA0CF05041704794451CBF02EA86
:104FEC00D153934280EA010202F000421DD04000EE
:104FFC0019D0490017D05BB9634514D00902B1FA36
:10500C0081F39940BCEB030CC00140F00040C1E7B8
:10501C000002B0FA80FC10FA0CF0B3EB0C0CC901D6
:10502C0041F00041B6E71000704740000AD049003B
:10503C0008D010F1807F94BF11F1807F02E042F024
:10504C00FF407047D043704762F30F2262F31F4258
:10505C0000B500BF130096469446103928BFA0E84F
:10506C000C50FAD85FEA417C28BF0CC048BF40F80E
:10507C00042BC90728BF20F8022B48BF00F8012BCE
:10508C0000BD000090EA010F44BF81F0004100F028
:10509C00D3B900BF431A4FF000423EBF5340C01A71
:1050AC00C91800BFD3095FEAD05C13EB400F34BFC3
:1050BC00B3EB410F40E07CEBD1530CD342EA01211E
:1050CC0022D8D1EB402009D3400A28BF5FEA500117
:1050DC0040EBCC507047401A15D04002B0FA80F229
:1050EC00521C9040400A4FEA3C23B3EB026384BF4E
:1050FC0000EB730007E040F400001A16DB07C2F166
:10510C000102D04018437047182BFCDC31FA03F233
:10511C0002FA03F3591A38BF42F00102D2EB4020D5
:10512C003CBF4000ACF1010C5FEACC5CC20572F1F3
:10513C0000414CEB5020704713EB400F0FD24B004B
:10514C0009D0ACEBD153022B03DB4902172BDDDD6D
:10515C0070479143401A4300D5D10020704713EBA0
:10516C00410FD0D36FF00000704700004FF0807CEF
:10517C001CEB400F94BF1CEB410F05E040EA010C07
:10518C005FEA4C0C01D28142704718BF88427047CD
:10519C00F0B44FF0004591EA030C44BF6B4001F0B2
:1051AC0085BA00BF841A71EB030603D2001BB14110
:1051BC00121973414FF4001C1CEB410F34BF7CEBF4
:1051CC00430443E00C0DA4EB1356352E50DC45EA9A
:1051DC00C323DB0A45EAC121C912B6F120050DDD56
:1051EC0063FA05F6EB4086EA0305124218BF45F058
:1051FC000105C01851F100010CD213E062FA06F55A
:10520C00F2405540F3415A40B340F3405A408018A5
:10521C00594107D349085FEA30005FEA350528BFDA
:10522C0045F0010501F58011420875F1004250F17D
:10523C00000041EB0451F0BC4FF4001C1CEB410F7F
:10524C0038BF70470020090D090570471CEB410F52
:10525C0010D252EA43060BD0BCEB410F05D80C0D13
:10526C00AB43661E342EB5DD02E0AB4380185941CA
:10527C00F0BC7047F0BC70474FEAF17CBCF1E04CDD
:10528C002CBFBCF5001F11E05FEA4C0C34BFBCF125
:10529C007F5F2EE05FEA9C0C4FEA0C1C4FEA3C0C43
:1052AC00C10071F100414CEB50707047C90241EAEA
:1052BC005051C00218BF41F0010141F000414FEACA
:1052CC006C50C0F10900212810D240EACC7CCCF102
:1052DC00200C11FA0CF070F10040CCF1200C21FAEA
:1052EC000CF00CF0004C40EB0C0070474FEACC700B
:1052FC007047490011F5001F04D84FEACC10FF305D
:10530C00C0057047C81770474FF0807C1CEB400FEE
:10531C0094BF1CEB410F05E040EA010C5FEA4C0C1A
:10532C0001D28842704718BF8142704710B5FF23E5
:10533C0013EAD0541DBF13EAD1529C429A4239E071
:10534C00A41ADA0780EA0103134042EA012142EA77
:10535C000020421A3CBF641E01EB4202090AB2FB58
:10536C00F1FE01FB1E221202B2FBF1F001FB102236
:10537C006EF30F201202B2FBF1FE4EEA00207F34D6
:10538C0006DDFE2C24DA53EA500050EBC45010BD5D
:10539C00D4F1020401FB1E2240F08071192C1DDC9B
:1053AC0021FA04F0C4F12004A140114371F1004230
:1053BC00584110BD9C421ABF03EAD1529A420FE0E9
:1053CC0080EA010E0EF00043400004D0490016D1D3
:1053DC0043F0FF4010BD490008BFD343180010BD77
:1053EC009C4205D1D21AF7D001F00041484010BDC3
:1053FC004A0212BF0846484000F0004010BD4AB9AE
:10540C000902B1FA81F2914044B1A418C00140F0F4
:10541C0000409EE7C90141F0004152420002B0FA3F
:10542C0080F4A040141B94E790EA010F44BF81F074
:10543C000041FFF72FBE00BF421A3CBF801A8918EB
:10544C004FF0004CC0F3C752FF2A24D0C1F3C7530E
:10545C0013B3D21AD2F1190327DD4CEA01214CFA0D
:10546C0003F321EA0303D140C20D4CEA002040189B
:10547C0034BF20EA0C004CEA5000D20553EA00631A
:10548C0073EB0C0C52EB1020420012F1807F38BFF2
:10549C007047C00DC0057047490212BF9A4200EB1D
:1054AC005120F8E7D2F11703D9D57047002840F105
:1054BC000980F446404200F005F850F00040604787
:1054CC00002800BF0AD0B0FA80F18840D1F19D01CC
:1054DC00C905020672F1004241EB10207047000032
:1054EC00B0B581EA030C0CF0004C40F2FF7515EAE4
:1054FC0011541DBF15EA1357AC42AF4239E0E41901
:10550C0023EA455343F48013C90241F0004141EAB8
:10551C00505EC7021100A7FB020200284FF00000EA
:10552C00EEFB01204FF00001E3FB072118BF42F016
:10553C000102401800214941E3FB0E01A4F58064EF
:10554C000F0302D252004041494154F101046CDD79
:10555C00470872F1004250F1000051EB0451A1F5E3
:10556C0080115CBF41EA0C01B0BD4CEA0551002032
:10557C00B0BD05EA1357AC4214BFAF4241E050EA4C
:10558C00410E1CBF52EA430E02E061460020B0BD42
:10559C0024423C441BD15FEA070EF6D0090302BF3C
:1055AC0001460020AEF1140EB1FA81F7AEEB070400
:1055BC0001FA07FE0C37C7F1200100FA07F7C840C3
:1055CC004EEA000E23EA455343F48013A2E733F06E
:1055DC000043B3FA83F704BFB2FA82FE77440B3F61
:1055EC00E41BB7F1200E2FBF02FA0EF3BB40C7F13C
:1055FC00200E22FA0EFE38BF43EA0E03BA40641C9A
:10560C0082E750EA410E14BF52EA430E6FF00001DC
:10561C004FF4001717EB430F8ABF194617EB410FD6
:10562C00B5E74CEA05510020B0BDD4F10104B4F14A
:10563C0020070FDAC4F12007520828BF42F00102FC
:10564C0010FA07F501FA07F7E1BF2A43E0403843A7
:10565C00E1400FE0352C98DCC7F1200452EA4002FF
:10566C0020FA07F218BF42F0010231FA07F0A1400C
:10567C000A43002172F1004250F1000051EB0C0181
:10568C00B0BD000038B50FB4DDE9020104F0E3FC55
:10569C000546DDE9000104F0DEFC0246012DB8BF31
:1056AC00012A2CDA0198002807D5DDE9000181F0E8
:1056BC000041CDE90001082400E0002403980028F3
:1056CC0007D5DDE9020181F00041CDE9020184F04A
:1056DC000604DDE90201DDE9002300F099FE02D2A7
:1056EC0000F0AEFE27E0002D06D5DDE90001DDE976
:1056FC00022300F0A5FE20E0002000211DE0022A7C
:10570C0008BFDDE900011ED0022D08BFDDE9020152
:10571C0019D09542019B07BF00200C4900200021A5
:10572C00002B039B4CBF08240024002B48BF84F0A3
:10573C000604012A01D184F00204224605B0BDE81A
:10574C00304004F0AFBC05B030BD00BF0000F03FEE
:10575C002DE970480D46C5F30A5240F2FF739A4288
:10576C0083B0044610D0002A04BF280354EA10303A
:10577C000ED020460022002300F04AFE3ABF85F0EE
:10578C0000450826002605E0280354EA1030F0D026
:10579C00204655E02946234A234B00F039FE1AD205
:1057AC00DFF888B00020594622462B4600F074FFE3
:1057BC00CDE9000100225B4620462946FFF7E8FCB4
:1057CC00DDE90023FFF78CFE01F034F802460B46AE
:1057DC00204629461DE00122144B00F019FE27D269
:1057EC009B460020594622462B4600F055FFCDE93A
:1057FC00000100225B4620462946FFF7C9FCDDE983
:10580C000023FFF76DFE01F015F886F00206224624
:10581C002B4600F015FE324603B0BDE8704804F08C
:10582C0041BC00BFCE3B7F669EA0E63F0000F03F30
:10583C0004F028FD212101604FF0FF306FF0004192
:10584C0003B0BDE8708800001CB504F03DFADFF829
:10585C00C44A04F1AC0004F05FFA002001900090FF
:10586C004FF47A7364220FF26D3104F18800FEF765
:10587C0041F801226421022000F04AF9FCF798FC5F
:10588C00A08204F168020F21042004F04FFA04F105
:10589C0078020F21052004F049FABDE8134063E0BB
:1058AC0038B5DFF8704A012804F1880506D00228C3
:1058BC0035D0042841D0052849D031BDFCF778FCFF
:1058CC0038B9FF20207001222178012000F020F946
:1058DC0031BD2078FF28F6D000A9012004F068FA29
:1058EC009DF8000060B92846FEF746F80C2200210E
:1058FC00002000F00DF900F06DF80120A0710AE015
:10590C000320A0719DF80000800900F00100607177
:10591C002846FEF713F89DF80000207031BD00A951
:10592C0004F046FA9DF800000A21484390FBF1F17F
:10593C0089B22846FEF722F831BD04F1680104F063
:10594C0037FA0FF63C20FDF7D6FE022108E004F1F1
:10595C00780104F02DFA0FF64820FDF7CCFE042157
:10596C000E20FFF789F831BD2DE9F843DFF8A44983
