:020000040000FA
:1000000058440020F1CE000001CA011001CA0110BD
:1000100001CA011001CA011001CA011001CA011070
:1000200001CA011001CA011001CA011001CA011060
:1000300001CA011001CA01103FCA01105FF0FF0C94
:100040001CEAD05114BF614506E0C110400721F001
:10005000E04101F16051704779B900F000410002C0
:100060000AD0B0FA80FC00FA0CF001F16051A1EB6B
:100070000C5101EBD0214005704741020CBF40F408
:10008000E0016FF000010020704700004100090E00
:100090007F3915D4D1F11F0114D4400007D2C0011B
:1000A00040F00040C84048BF6FF000407047C001BA
:1000B00040F00040C8404CBF4FF000404042704705
:1000C0000020704700424FF0004058BFC0437047C7
:1000D000FF7F000040EA010C5FEA4C0C07D0884229
:1000E00005D14FEA400C1CF1807F98BF80427047D9
:1000F000704700001000000050000000FFFFFFFFED
:100100003C0000000000000000000000340100007E
:1001100000000000000000000100000000000000DE
:1001200000000000000000000000000001000000CE
:100130000000000008000000000000003400000083
:100140000000000000000000680100000000000046
:10015000000000000100000000000000010000009D
:100160000000000000000000080000000000000087
:1001700030000000000000000000000098010000B6
:10018000040000000000000001000000FFFFFFFF6E
:10019000FF00000001000000080000000000000057
:1001A0002C0000000000000000000000C40100005E
:1001B000040000000000000001000000FFFFFFFF3E
:1001C000FFFFFFFF080000000000000034050000F2
:1001D000E401000099A1011095A70110A5C201102A
:1001E00009B2011045B80110000000000000000035
:1001F0002E000000280000000000000000000000A9
:10020000140200000000000000000000FFFFFFFFDC
:1002100000000000080000000000000030050000A1
:100220003002000069C201106DC101101FC201102F
:1002300095BA01100000000000000000300000002E
:10024000300500005402000075C20110A9B601106B
:100250009DBF011049B60110000000000000000021
:100260003100000024000000000000000000000039
:1002700080020000000000000000000000000000FC
:100280000800000000000000240000000000000042
:1002900000000000A40200000000000000000000B8
:1002A0000000000008000000000000002400000022
:1002B0000000000000000000C80200000000000074
:1002C0000100000000000000080000000000000025
:1002D00000000000B0110020040000000000000039
:1002E000000000002000000070010000300000004D
:1002F0001C020000E81100200400000000000000C3
:10030000000000000C000000300400001800000095
:1003100040020000F0110020040000000000000076
:100320000000000024000000480400001800000045
:100330000000000030120020040000000000000057
:100340000000000010000000A00100002C000000D0
:10035000CC01000038120020040000000000000062
:1003600000000000200000006402000024000000E3
:10037000FFFFFFFF581200200400000000000000F3
:100380000000000028000000880200002400000097
:10039000FFFFFFFF601200200400000000000000CB
:1003A00000000000580000003C0100003400000084
:1003B000FFFFFFFF681200200400000000000000A3
:1003C00000000000100000006004000018000000A1
:1003D000FFFFFFFF7012002004000000000000007B
:1003E000000000001C000000AC020000240000001F
:1003F000FFFFFFFF78120020040000000000000053
:100400000000000038000000F40100002800000097
:10041000FFFFFFFFE01200200400000000000000CA
:100420000000000054000000000100003C0000003B
:100430001800000000000000000000004004000060
:10044000080000000000000018000000000000008C
:100450000000000058040000080000000000000038
:100460001800000000000000000000007004000000
:100470000800000000000000020000004CCF000057
:1004800000FFFFFF0100000000000C0000000D0055
:100490003200000002000000B8110020000200003D
:1004A0000000000001CA0110000000000000000070
:1004B0000800000000002000F811002001000000EA
:1004C00040120020080000000000000000000000B2
:1004D000000000000000000000000000010000001B
:1004E000801200200600000001000000E812002039
:1004F00000000000000000000002000000000000FA
:10050000FFFF2A0001002500300031002E0001000D
:1005100001FF00400400000030CF00000000000098
:1005200000000000000001000000030087C401106B
:1005300038050000380500000000000080000000C1
:100540008000000000000000401200207B7D0000C1
:100550002000000008CF0000F8CC00000DC30110FF
:10056000DB370000DD37000099C801109BC801107F
:10057000000000008004000014CB00002CCB000021
:10058000FCCA0000080009000100000001FF7047DC
:10059000000000000000000000000000000000005B
:1005A000BD3200001D3300009D31000047330000C4
:1005B00005320000B93100004532000089330000E7
:1005C000F97C00007F8000008380000008000000AC
:1005D0002400000018000000280000002000000097
:1005E0003C0000000C00000034000000DFF800F0C8
:1005F000D9C10110DFF800F025B10110DFF800F0DB
:100600006DA90110DFF800F0D9B6011000B58FB068
:1006100008233C2200216846FFF7E8FFDFF8E803E3
:1006200000F1DC01079100234FF4167108916A462E
:10063000012106918C300FF2B911FFF7DBFF0FB0EB
:1006400000BD10B5012886B0DFF8BC4304D00228F5
:100650005CD0042867D081E001F019FEC00607D401
:10066000FF2020750122217D012000F0B8F975E0FE
:10067000207DFF28F6D004A9012001F0C3FE9DF8DB
:10068000100058B90FF2D80003F095F804F1680093
:1006900003F002FA002003F087FB31E080282BD022
:1006A0007F21002003F042FCD84909684FF47A709A
:1006B000B0FBF1F0FFF7A2FF9DF81000C0F341007E
:1006C00003F09CFC9DF81000C0F3C10003F0EAFCAD
:1006D0000020E06420656065A065E06520666063D9
:1006E000A063E063012104F18C0002F011F804F131
:1006F000680003F0B3F903E0207D08B10120A07584
:100700009DF81000802829D0207527E004A901F069
:1007100079FE9DF8100000EB800189B204F16800B9
:1007200003F0BCF91AE004F1280101F06BFE206B24
:10073000FFF784FCCDE90201E06AFFF77FFCCDE919
:100740000001A06AFFF77AFC02460B460FF2200078
:1007500003F031F801210E2004F021FB06B010BD9A
:10076000414852532053746F702E0A0D0000000050
:10077000476F7420426F617264204D61672043614E
:100780006C6962726174696F6E2044617461203AB1
:100790002025662C2025662C2025660A0D000000E9
:1007A00010B50FF23C00984C03F005F800202075BE
:1007B0001422002100F013F9217D0122012000F014
:1007C0000EF90020607503F030FA03F048FA0020BB
:1007D00003F0EAFA00206063A063E06310BD00004C
:1007E000414852532052657365742E0A0D00000073
:1007F0002DE9F04186B003A80021002200230EC09D
:100800000820ADF80000012081497F4C0968DFF81D
:10081000A08DADF8020004F552756846884701F0D6
:1008200083FD04F05CFC284601F0A6FD284604F098
:100830007EFC0020019000904FF47A731A460FF26C
:10084000C11104F1680003F0E5F8FFF7A9FF0122E8
:100850006421022000F0C3F804F18C0500F0B6F822
:100860000020608204F54D764FF4F070FFF7C6FE6D
:1008700003AF0BE004F1680003F007F918B904F1C5
:10088000680003F0EBF8DC20FFF7B8FE607D00287D
:1008900052D0039801F0FEFAFFF7F8FB20804146A2
:1008A000786804F0EBFCFFF7F1FB60804146B86824
:1008B00004F0E4FCFFF7EAFBA080A21DE06C0090CE
:1008C0000C21BDF80000E080BDF902002081206D00
:1008D00000F074F8606D00F068F804F031FC206CF2
:1008E0000090A21DBDF80000E0800C21BDF90200BF
:1008F0002081606C00F062F8A06C0090BDF80000F0
:10090000E081BDF902002082042004F019FC606B34
:1009100000902246BDF80000E0801421BDF90200DD
:100920002081A06B00F04AF8E06B00F03EF801F087
:100930002DFD0020E0746075A07D20B10020A07521
:100940006063A063E06303F082F9F0B1002003F07C
:10095000CEFAC00719D5207DD8B13146002003F06A
:10096000D5FB04F23A31002003F07DFB04F5507111
:10097000002003F034FD20B1022806D003F0D4FC9F
:1009800003E003A9304600F045F8207D00287FF4FD
:1009900071AF04F1680003F078F818B104F1680051
:1009A00003F07AF800F012F870E70090BDF800004C
:1009B000E081BDF902002082002070470090BDF860
:1009C00000006081BDF90200A08170474FF0FF3147
:1009D000284601F09DBE01460C2004F0E0B930B578
:1009E000154685B004460A462946684604F0B2FC1E
:1009F0006A462946204601F0C9FC05B030BD00001A
:100A00000149012048757047680500206CCF00003F
:100A1000640F00202DE9F24F94B005460BA8242165
:100A200004F0B6FC002007900BACFFF7EBFD09903B
:100A3000B5F9000003F002FC0B90B5F9020003F0D9
:100A4000FDFB6060B5F9040003F0F8FBA060B5F9A8
:100A5000060003F0D5FBE060B5F9080003F0D0FB19
:100A60002061B5F90A0003F0CBFB6061B5F90E0017
:100A700003F00FFCA061B5F90C0003F00AFCE06183
:100A8000B5F91000DFF8985C03F003FCDFF8241BD5
:100A900004F0F4FB2062A96AA06904F07DFCA06167
:100AA000E96AE06904F078FCE061296B206A04F0EF
:100AB00073FC2062E1686669276901F0D8F9804615
:100AC00001F0DEF901F0E9F901F0EEFA01F0B0F918
:100AD00001F0F0FB00F0B6FD0B99A6686768804650
:100AE00001F0C5F901F0CBF901F099F901F0DCFA58
:100AF00001F09EF901F0DEFB0646DFF8BC0A01F0CA
:100B0000D5FA0746DFF8B40A01F0D0FA00F09AFDF2
:100B10000A903846DFF8A81ADFF8A86A04F0B0FC9B
:100B200098BF4FF07E5706F1840006903946426A1E
:100B3000104604F0B7FC0AD2FFF780FADFF8882AE3
:100B4000DFF8883A04F0C0FC04F032FD0246384673
:100B5000114604F0A7FC38BF3A460698426239466F
:100B60000698406A04F06CFD00F078FD089041465C
:100B7000377AD4F80890D4F804A0781C3072404634
:100B800004F07CFB0B9901F071F901F04EF901F0D2
:100B900067F901F04AF9824601F06DF901F03CF97C
:100BA00001F088FB00F04EFD06EB87010027C1F83D
:100BB0009800307A00F00300307206EB87004FF0A7
:100BC0007A51D0F8980004F059FB079904F038FDE9
:100BD0007F1C042F0790F0DB06990998C968DFF89D
:100BE000F0A9DFF8F0B9401A263004F075FDDFF8FF
:100BF000E81904F081FD6866206AE7680490E069FE
:100C00000390A06902906069019020690090A0683B
:100C1000FFF714FA00F030FD04F0CAFC814660686A
:100C2000FFF70CFA00F028FD04F0C2FC05900B98C9
:100C3000FFF704FA52465B4604F0DCFD04F0B8FC12
:100C400005993B464A4600F05BFDFFF7DBFC069941
:100C5000C8604FF0804AAF69D5F81C9001F010F9D8
:100C600001F008F901F0E1F8296A01F0FFF801F05C
:100C7000E2F801F0FAF801F0DEF8FFF7DFF9CDE96C
:100C80000001286A01F0F8F88146686A01F0F9F875
:100C900001F0C5F801F0E6F8FFF7D0F9DDE900232F
:100CA00004F07AFEDFF83429DFF8343904F00CFC64
:100CB00004F07EFC14990860A969286A04F0DEFA41
:100CC0000746E969686A04F0D9FA00F0C3FC01F04C
:100CD000C9F8FFF7B3F904F0C5FE04F069FC1499F4
:100CE0004860AF69D5F8209001F0CAF8E96901F0D1
:100CF000BDF801F0A0F801F0BDF801F09CF801F09A
:100D0000B4F801F092F8FFF799F9CDE90001E8692C
:100D100001F0B7F80746686A01F0AEF801F088F80C
:100D200001F0A0F8FFF78AF9DDE9002304F034FEB2
:100D300004F03EFC149988601498DFF8A818006845
:100D400004F09EFB0BD8FFF779F9DFF89028DFF865
:100D5000983804F0B9FB04F02BFC1499086014983F
:100D6000DFF888780068DFF888B8FFF767F900F0E7
:100D70009AFC04F01DFC1499086014984068FFF771
:100D80005DF900F090FC04F013FC1499486014988D
:100D90008068FFF753F900F086FC04F009FC149911
:100DA0008860216A636922690291E1690191A16900
:100DB0000091E16804F092FF0A9801F06EF8DFF804
:100DC000F41704F03DFCFFF739F921F000414FF032
:100DD0008042DFF8203805F0BFFA22D2707A1A2854
:100DE0000EDBA87C60B90FF6280002F0E4FC06993F
:100DF000099808610120A8740020E86428656865E6
:100E0000707A7D28B8BF401C13DBA87C022813D061
:100E10000FF6080002F0CFFC0220A8740120A8758C
:100E200008E0A87C18B10FF6000002F0C4FC002016
:100E3000A8747072A87C022800F0378310A8029072
:100E40000FA801900EA8009062692169E068DFF8A0
:100E5000A877012301F024F80DA802900CA80190B6
:100E60000BA8009063692269E168012001F054F841
:100E7000A068FFF7E3F8DFF88427DFF8843704F091
:100E800023FB04F095FB02460B98A260394604F060
:100E900009FBDFF8703705D2194604F0F1FA9CBF60
:100EA00000200B906068394604F0FCFA05D2194620
:100EB00004F0E6FA9CBF002060601046394604F05A
:100EC000F1FA05D2194604F0DBFA9CBF0020A060BD
:100ED0000B990898DFF83087DFF8309704F0CEF9E7
:100EE0000699096804F0ACFB00F0B8FB8346616822
:100EF0000898C4F80CB004F0C1F90699496804F0E8
:100F00009FFB00F0ABFB0746A1680898276104F03F
:100F1000B5F90699896804F093FB00F09FFB8246BF
:100F20000698C4F814A0C0F800B006984760069868
:100F3000C0F808A05846FFF781F800F0C0FB04F0A5
:100F400037FB0B9000F0C1FB00F0B9FB04F030FB65
:100F50000746676000F0BEFB00F0B1FB04F028FB21
:100F60000B99D5F850A029646F64A060A864E96C5F
:100F70006F6D00F07CFF00F073FF00F056FF8246BB
:100F800000F07EFF00F048FF01F094F98346A87C52
:100F9000002840F0AC810B98F169776CD6F830A04E
:100FA000E06060682061A068606100F060FF009010
:100FB0005146504604F062F900F034FF824600F0DA
:100FC0005FFF00F029FF01F075F907464FF07E50F2
:100FD000594604F091FB80F00040FFF72FF804F031
:100FE000E7FADFF81C1E0091834600F06EFB01F06B
:100FF00097F802460B460020DFF8081EDFF8089E2F
:1010000005F0C2F904F0D4FA009900235A4601F021
:1010100050F8DFF8F81DDFF8F8BD04F02FF980462E
:10102000E0684B4600F02EFB0746E068FFF706F845
:1010300000F053FBFFF702F800F055FBDDE9002359
:1010400004F0D8FB04F0B4FAE0604B46206900F0ED
:1010500019FB07462069FEF7F1FF00F03EFBFEF7A3
:10106000EDFF00F040FBDDE9002304F0C3FB04F0DA
:101070009FFA20614B46606900F004FB07466069F7
:10108000DFF8909DFEF7DAFF00F027FBFEF7D6FFB2
:1010900000F029FB02460B46DDE9000104F0AAFB43
:1010A00004F086FAEF6CDFF860858346C4F814B06C
:1010B0003846002104F0F6F903D2E06804F0E0F9C4
:1010C00006D300F0C4FA12D2E06804F0EBF90ED2B5
:1010D00000F0FBFACDE9000100F0C4FAFEF7AEFF24
:1010E00000F0EDFA00F0AAFA04F062FA03E000F072
:1010F000B9FA00F09DFEE86400212F6D384604F037
:10110000D1F903D2206904F0BBF906D300F09FFAAD
:1011100013D2206904F0C6F90FD200F0D6FACDE957
:101120000001216900F09FFAFEF788FF00F0F8FF48
:1011300000F09CFA04F03CFA04E0216900F093FA14
:1011400000F076FE286500216F6D384604F0AAF99C
:1011500003D2584604F094F906D300F078FA1CD272
:10116000584604F09FF918D200F0AFFACDE900011B
:101170005846FEF763FF4246DFF8903D04F03AFB25
:101180000746686E8946FEF759FF3A4600F0C9FFE8
:1011900000F06CFA04F00CFA04E0686E00F059FEFE
:1011A00000F046FE6865DFF8688DA86DDFF8649D85
:1011B000FEF744FFCDE90001E86CFEF73FFF00F0C9
:1011C0007EFA00F03BFA04F0F3F9A865E86DFEF74B
:1011D00035FFCDE90001286DFEF730FF00F06FFA12
:1011E00000F02CFA04F0E4F9E8656F6D286EFEF764
:1011F00025FFCDE9000100F068FA00F060FA00F088
:101200001DFA04F0D5F98246E068C5F860A0002117
:1012100004F036F94FF03338DFF85C9E03D2E86C07
:1012200004F040F907D3E06804F03CF90AD2E86C16
:1012300004F026F906D2FEF701FF00F040FA04F0B0
:10124000B7F903E0E86CA96D04F0A6F8E8640021A2
:10125000206904F015F903D2286D04F023F907D3AF
:10126000206904F01FF90AD2286D04F009F906D2AA
:10127000FEF7E4FE00F023FA04F09AF903E0286D8B
:10128000E96D04F089F828650021584604F0F8F863
:1012900003D2384604F006F906D3584604F002F9A2
:1012A00009D200F0D4F906D2FEF7C8FE00F007FA22
:1012B00004F07EF903E03846514604F06DF86865A5
:1012C000A87CA0B9E96C00F0CEF9696B04F0B8F91C
:1012D0006863296D00F0C7F9A96B04F0B1F9A86340
:1012E000696D00F0C0F9E96B04F0AAF9E863002722
:1012F00030780B99DFF8389E00F09CF9D16000F04F
:10130000030030700020F061F069FEF797FE82461E
:1013100006F10C008B4650F82700FEF78FFE00F018
:10132000E8F952465B4604F0CFF804F041F97F1C1F
:10133000042FF061E8DB00277078616800F07AF92B
:10134000116200F00300707000203063306BFEF714
:1013500075FE824606EB87008B46006AFEF76EFE3E
:1013600000F0C7F952465B4604F0AEF804F020F9ED
:101370007F1C042F3063E9DBB078A16800F05AF9D4
:10138000516300F00300B070002400207064706CA2
:10139000FEF754FE074606EB84008B46406BFEF7D3
:1013A0004DFE00F0A6F900F078F904F001F9641C94
:1013B000042C7064EBDB00243079E96C00F03AF91E
:1013C000916400F0030030710020B065B06DFEF74D
:1013D00035FE074606F148008B4650F82400FEF71C
:1013E0002DFE00F086F900F058F904F0E1F8641CD5
:1013F000042CB065EADB00247079296D00F01AF93D
:10140000D16500F0030070710020F066F06EFEF709
:1014100015FE074606EB84008B46C06DFEF70EFEF8
:1014200000F067F900F039F904F0C2F8641C042CEC
:10143000F066EBDB0027B079696D00F0FBF811670F
:1014400000F00300B0710020C6F88000D6F88000DC
:10145000FEF7F4FD044606EB87008B46006FFEF7AF
:10146000EDFD00F046F902460B462046594604F0D1
:101470002BF804F09DF87F1C042FC6F88000E5DBF4
:101480004FF08241079804F00DF806D2B07AB0B957
:101490000120B072E874687511E0DFF8981C03F061
:1014A000EFFF0CD80020B07209E0002002900190FC
:1014B000009062692169E068002300F0F1FCE96CAA
:1014C0006C6D2E6D00F0D3FC00F0EEFD00F0B0FC72
:1014D000064600F029FE314604F0B2F800F0EAFEBC
:1014E00000F0B0F8AC6DDFF8501C03F0C9FF064601
:1014F00039D84FF0785000F0D9FDFEF79FFDDFF8A6
:101500003C2CDFF83C3C04F075F9D5F84CA00646BD
:101510000F4600F0DFF800F0DBF800F0CAF800F04A
:10152000B6F804F045F8E864D5F850A000F0D2F819
:1015300000F0CEF800F0BDF800F0A9F804F038F89B
:101540002865D5F854A000F0C5F800F0C1F800F007
:10155000B0F800F09CF804F02BF86865DFF8E46B55
:10156000DFF8E47B08E04FF07E5103F09BFF1BD2D5
:10157000DFF8D86BDFF8D87B2046FEF75FFD00F080
:1015800098F804F015F8A865E86DFEF757FD00F02F
:1015900090F804F00DF8E865286EFEF74FFD00F0B6
:1015A00088F804F005F8286615B0BDE8F08F000053
:1015B0000000C842000080BF00007A430000FA43E8
:1015C0000100803FB4080020FCA9F1D24D62503FD9
:1015D000399D52A246DF913F0050C347182D445415
:1015E000FB210940DB0F4940FB2119C0F8C1631AF8
:1015F000DCA54C40E17AD43F6F12833A3D0AD7A371
:10160000703DF0BF6E1283BA9A99999999992340C7
:101610005374656164792E0A0D000000536C656592
:10162000702E0A0D000000004D6F76696E672E0A5D
:101630000D00000006EB8002401C7047DDE900232E
:1016400003F042BF01464FF07E5004F055B83846D3
:1016500003F016BF0146384603F09EBE4FF07C51A2
:1016600003F00CBEE168686E03F008BE02460B464C
:10167000DDE9000103F028BF02460B4650465946FB
:1016800004F0B8B800224FF07F5100F012BD0246BE
:101690000B464046494604F0A3BF02460B46384677
:1016A000594603F011BF02460B463846594604F02E
:1016B000A1B802460B463046394604F09BB80246B4
:1016C0000B464046494604F095B83846FEF7B6BC8E
:1016D000804689465046FEF7B1BCCDE90001404640
:1016E000394603F0CBBD02460B460020594604F0B4
:1016F00081B802460B460020494604F07BB8000042
:101700002DE9F04F07460648DFF848AA9DB08069EA
:1017100002900C460248C06901909146004801E0E1
:1017200068050020056A466A0198984600F0A9FB02
:1017300080F0004B284600F0F8FC00F07CFB83466C
:10174000304600F099FB00F076FB00F08BFB0F9029
:10175000394600F077FB8346284600F08DFB00F009
:1017600064FB8346304600F0E0FC00F064FB00F0D0
:1017700079FB0E90214600F065FB8346019800F04E
:101780007BFB00F058FB8346304600F07AFB00F00C
:101790004CFB00F067FB0D90494600F053FB81467F
:1017A000019800F0C2FC00F03AFB0446284600F025
:1017B00068FB0146204603F0EFFD00F053FB0C9060
:1017C0004046269C0021FEF785FC08D12046FEF706
:1017D00081FC04D12798FEF77DFC00F0C58200F063
:1017E00058FB074600F0A0FC00F022FB27990746B3
:1017F00000F03DFB00F01CFB00F05CFD074640469E
:1018000000F03FFB8046204600F03BFB82462798D5
:1018100000F037FB2790289F299CDDF8A89000F066
:101820002FFB834600F080FC00F0FFFA00F022FB63
:1018300000F0FBFA00F03EFD8346384600F009FB5D
:101840000746204600F005FB0446484600F001FB31
:101850008146029900F000FB834600F012FB1490D1
:10186000214600F01AFC1390494600F016FC039044
:101870004FF08040019903F001FD009000F001FB62
:101880001090CDF860B0294600980A9000F0E4FA74
:101890000990314600F0E0FA1790294600F0FDFB70
:1018A0001690294600F0D8FA00F000FC1C9002992E
:1018B00000F0DDFA0790029900F0C8FA129029466C
:1018C00000F0C0FA1190314600F0BCFA1B9001996B
:1018D00000F0CDFA0590294600F0B8FA1A9031468A
:1018E00000F0B4FA0B902946284603F0C7FC049098
:1018F0003146284603F0C2FC19903146304603F0C9
:10190000BDFC06903946079803F0B8FC834613984F
:1019100000F0CCFB00F08FFA8346039800F0C1FB87
:1019200000F083FA8346059800F0ABFA00F07DFAE8
:1019300083460A9800F0F9FB00F0B3FB00F075FA5B
:1019400083460A9800F098FA00F0B0FB00F06DFAB8
:101950008346049800F095FA00F06DFA83460698E5
:1019600000F08FFA00F067FA08903146149803F0FF
:1019700085FC8346079800F0D8FB00F056FA8346B2
:1019800000F063FA00F057FA8346109800F089FBE4
:1019900000F04BFA8346059800F0C7FB00F04BFAC5
:1019A0008346049800F0C1FB00F03FFA8346099893
:1019B00000F062FA00F07AFB00F037FA83460698EE
:1019C00000F0B3FB00F037FA089900F04FFA0090EE
:1019D000594600F062FB00F025FAFEF72FFB04F0F9
:1019E000BFFE03F0E5FD0390139900F02FFA834644
:1019F00000F056FB00F01FFA8346079800F03CFA0F
:101A000000F013FA8346109800F050FB00F00DFA36
:101A10008346059800F030FA00F00DFA83460998E5
:101A200000F083FB00F042FB00F0FFF983460498CE
:101A300000F022FA00F0FFF98346069800F01CFA45
:101A400000F0F3F98346039900F006FA1590594621
:101A500000F002FA149011990B9803F0F1FD03992C
:101A600003F00CFC00904FF07C50059903F094FCBF
:101A7000049903F091FC00F0ECF900F0D3F9494629
:101A800003F08AFC08901B991A9803F085FC0399CF
:101A900003F0F4FB81461299199803F0D1FD00F090
:101AA000D8F900F0BCF9214603F076FC07904FF01E
:101AB0007C50049903F070FC069903F06DFC0399C7
:101AC00003F0DCFB04460B98119903F065FC00F071
:101AD000C0F900F0D3FA10904FF0804000F0AFF959
:101AE00004461698214603F057FC00F0D6F91390EF
:101AF0004FF08040129903F0C1FB1C9903F0A0FD48
:101B0000514603F049FC06902946039803F0B6FBC2
:101B10008146039800F0CAFA1290594600F096F9EF
:101B2000119006990A9803F0A9FB82461399099827
:101B300003F0A4FB00F070F900F0A6F982461099BA
:101B4000FFF789FD00F08EF900F06CF982461198DC
:101B5000129903F021FC00F09DFA00F05DF9824635
:101B6000089800F089F900F057F982461098394634
:101B700003F012FC0B904FF08040049903F07EFBC1
:101B80000746059900F068F900F07FFAFFF762FD5B
:101B9000279903F055FD10902046169903F0FCFBA1
:101BA000414603F0F9FB0590594600F04BF90490CB
:101BB0004FF081480599179803F060FB0746069996
:101BC000189803F05BFB00F033F90746019800F02A
:101BD00061F9109903F052FB00F02AF907465846C4
:101BE00000F064FA00F02BF900F022F9074604989F
:101BF00000F015F900F04EFA00F01AF907461499B2
:101C000000F024F90146129803F0C6FB089903F08E
:101C100035FB00F00DF90746039900F013F904466F
:101C200000F013F981460699179803F027FB0090FE
:101C30001399189803F022FB00F0F4F80090414645
:101C4000284603F01BFB109903F018FB00F0EAF89C
:101C50008046159800F025FA049980F0004003F0C2
:101C60009BFB00F0ECF800F018F98046584600F0B5
:101C70001DFA00F0D4F800F00DFA00F00EF98046DD
:101C800000F00EFA0146204603F086FB089903F0A7
:101C9000F5FA00F002F9804605990A9803F0EEFA89
:101CA00000900699099803F0E9FA00F0BBF800905B
:101CB0003146159803F0E2FA0146119803F06CFBE7
:101CC00000F0BDF800F0AEF800F0DEF8214603F0B9
:101CD00063FB0799DFF880B403F0D0FA00F0A2F8B4
:101CE0000446089800F0C8F800F0C8F9044600F06F
:101CF000B8F800F0C4F800F092F8814600F0C9F896
:101D000000F08DF8814600F00FFA00F088F800F03E
:101D1000D1FA8146504600F0AFF800F09AF801463B
:101D20000F9803F039FB0F90384600F0A5F800F04B
:101D300090F801460E9803F02FFB0E90494640465E
:101D400003F09CFA00F085F801460D9803F024FB9F
:101D50000D904946204603F091FA00F07AF80146CA
:101D60000C9803F019FB0C90DFF8F003446E0F9809
:101D700000F0DBF9029903F063FC80460E9800F056
:101D8000D4F9019903F05CFC07460D9800F0CDF9F9
:101D9000294603F055FC05460C9800F0C6F931467B
:101DA00003F04EFC064600F074F8044600F068F8B4
:101DB00000F064F90446284600F073F900F05EF97B
:101DC000044600F072F900F059F900F073FA044685
:101DD000404600F0AAF9E1498861384600F0A5F9CB
:101DE000DE49C861284600F0A0F9DC4908623046A7
:101DF00000F09BF9D94948621DB0BDE8F08F0000A2
:101E0000CDCCCC3F0000F03F9A99993E0000A04015
:101E100000000E409999B93F514603F011BC494664
:101E200003F00EBC009903F00BBC594603F008BC4C
:101E3000394603F005BC0146584603F0ADBA0B998C
:101E400003F01CBA029803F019BA0399019803F041
:101E500015BA594603F012BA4FF0804003F00EBA9B
:101E600083465046514603F009BA696A83460846DC
:101E700003F004BA83464846494603F0FFB9814659
:101E80003846394603F0FAB900902946584603F01F
:101E9000F5B94046414603F0F1B9414603F0D0BBE5
:101EA0002DE9F041032BA8BF022302DA002B48BF23
:101EB0000123AB4C656AB5EB030C48BF0CF1030C76
:101EC000069B002B1CBF079E002E4FF00C0E0DD062
:101ED000089F5FB10EFB0C4CDCF80080C3F800805B
:101EE000DCF804303360DCF808303B600EFB05435F
:101EF00018605960681C032190FBF1F101EB41016E
:101F00009A60401A6062BDE8F08100009999C93F6B
:101F1000B81E85EB51B89E3F2DE9FF4F8F4F85B01E
:101F2000FD69BC69204600F0BCF83E6A8046204648
:101F300000F0BCF88146786A00F0F7F8824628463F
:101F400000F0AFF80446284600F0B0F804902946A7
:101F5000786A03F093F9054600F0A7F88346786A9B
:101F600000F0A4F80390796AFFF781FF07469DF817
:101F7000140060B17B4E404600F098F88046484619
:101F800000F094F88146504600F090F882464FF0F9
:101F90008046089800F08AF802903146079803F0CE
:101FA0006DF90190314600F078F800F06EF800907D
:101FB0003146384603F062F900F063F8069903F001
:101FC0005DF900905146049803F03AFB019903F043
:101FD00055F9FFF727FF00904946284603F0DCF942
:101FE000029903F04BF9FFF71DFF12990860204694
:101FF00000F05CF800F049F800903146069803F0D4
:102000003DF904460498514603F0C6F900F08DF8F6
:102010008246384600F04AF800F033F800F03AF80B
:10202000FFF7FAFE07460398FFF737FF029903F020
:1020300025F9FFF7FDFE139908602846FFF7EFFE2C
:1020400000F073F804460398414603F0A5F901999E
:1020500003F014F900F012F80446584600F026F890
:1020600000F00FF8089903F009F900F007F8149947
:10207000086009B0BDE8F08F3333E33F214603F039
:10208000DFBA0146009803F087B901464FF07E5051
:1020900003F082B9079903F0F1B8584603F0EEB89F
:1020A0001498294603F0EAB807463046314603F053
:1020B000E5B82DE9F0420C4611461D4603F06CF9D7
:1020C00006462046FDF7BAFF02460B46264827493A
:1020D00004F05AF9074689462248FFF7E7FFFFF761
:1020E000E5FF06464FF0804000F01FF800F01DF8B5
:1020F0000146304603F000FBFDF7A0FF04F0A8FB0B
:102100003A4600F00EF806460F462846FDF796FFC1
:1021100032463B4603F0D8F9BDE8F04203F048BA36
:1021200042464B4603F066BB2046214603F0A6B864
:102130000000D03F0100C84118B7D1382D431CEB37
:10214000E2363A3FAE47E17A14AEEF3F0AD7A370CA
:102150003D0AEF3F8FC2F53E9A99193F680500206E
:1021600054340020000080BF2BF697DD9387D93FC1
:1021700001B513460A460121684604F0BDFB02BDC5
:1021800038B5594B1870581C002404E011F8015B55
:1021900000F8015B641CE4B29442F7D3511CBDE823
:1021A0003440C9B2184604F08DBB2DE9F84F0546FE
:1021B0004E4C0020207060804FF4807801F021FDAB
:1021C000E8064FF0010922D5002001F0E3FF18B125
:1021D000207840F0100020700127F8B201F0DAFFFB
:1021E00080B17E1E608809FA06F10843608047F0DE
:1021F0008000C0B201F0CEFF20B1608808FA06F17D
:10220000084360807F1C062FE7DB01F0FAFCA8067C
:102210003AD5002002F0C7F818B1207840F020002D
:10222000207001274FF6FF750FF2C80B7E1E6088E5
:1022300009FA06FA10EA0A0F21D0F8B202F0B3F850
:1022400040B93946584601F0B6FA608885EA0A0175
:102250000840608008FA06F6608830420FD047F0E8
:102260008000C0B202F09FF848B939460FF29C00D6
:1022700001F0A1FA608885EA0601084060807F1CB1
:10228000062FD3DB01F0BDFC2078BDE8F28F1748A4
:102290000078704715484088704730B5002206E046
:1022A0001418135C65781554921C6370D2B28A427C
:1022B000F6DB30BD10B50E49A1EB60044FF07C5148
:1022C00002F0DCFF214602F0D9FF214602F0D6FFE2
:1022D00001464FF07F5003F05FF82146BDE8104003
:1022E00002F0CCBF00000000E4340020883500205C
:1022F000DF59375F4465766963655B25645D204D12
:10230000616720646561642E0A0D0000446576698A
:1023100063655B25645D2D32204D616720646561D6
:10232000642E0A0D0000000010B584B00820ADF83E
:1023300000000420ADF80200904991480078096837
:10234000904C8000019068468847002814BF002008
:102350000298A060010008BF13200BD04FF6FF7059
:1023600004F036FB0FF2202310220A2104F12C0086
:1023700004F082FD04B010BD82494A681AB900B168
:102380004860002070471120704700003EB50025CE
:10239000134604280A467B4C30D8DFE800F0031BC4
:1023A000202F2500142927D1194604F10C0005F02F
:1023B00059F80FF28900029004F12C03FF200190DC
:1023C00000220A20009004F10C01A06804F01AFB1E
:1023D000054614E001290FD1187820700FE001297B
:1023E0000AD1187860700AE00C2905D1194604F169
:1023F000200005F037F802E0182500E00225284605
:102400003EBD000010B5024600240846042A5D497E
:1024100011D8DFE802F0030608100B0014220C317B
:1024200006E0097800E04978017005E00C222031CF
:1024300005F018F800E00224204610BDF8B50D465E
:102440000027287AC00616461C4601D50820F2BD92
:10245000069808B10B20F2BD6946284605F03DF804
:10246000012802D127800120F2BDBDF800004AF604
:102470003121401A05D0401E012804D9801E08D001
:102480000FE0142006E001202080E868007830701A
:1024900009E00C2020800246E968304604F0E2FFA3
:1024A00001E027800A273846F2BD2DE9FE430E469B
:1024B0008046307A0024800691461F4648BF082097
:1024C0002AD402A9304605F008F8012824D0BDF826
:1024D00008100A982B4D42F60212891A40D048F291
:1024E0002F12891A17D0491E04D0491E16D0491E32
:1024F00024D040E038BB012F23D1F16899F80000C7
:102500000870F068A84206D10120696819B109680D
:102510000A0018BF88472046BDE8FE8398B9012FFE
:102520000FD199F8000008B98024F4E7F168087029
:10253000691CF0688842EED10220E6E718B90C2F3A
:1025400003D00D24E7E70B24E5E7F06805F120014F
:102550008842E0D10C22494604F084FF0420D4E7ED
:102560000121019100903B464A463146404604F025
:10257000A7FA0446CFE70A24CDE70000640F002045
:102580008C0F0020600900203D240000AB240000D7
:1025900000000000DFF800F013C10110DFF800F0C8
:1025A000F5C00110DFF800F049BA0110DFF800F0C3
:1025B00025C20110DFF800F0C1C20110DFF800F001
:1025C000E3BF0110DFF800F0B5C10110DFF800F043
:1025D000D5C00110DFF800F095C00110DFF800F061
:1025E0000DA80110DFF800F0BDBE0110DFF800F00B
:1025F00021C10110DFF800F02DBF0110DFF800F05D
:10260000E1B50110DFF800F0D5C20110DFF800F0ED
:10261000D9C20110DFF800F0F1C50110DFF8D800D1
:10262000007D704738B5DFF8D800DFF8D05000687B
:10263000EFF3118480F31188A8680021FFF7CAFF27
:102640006969081AA969814238BF002084F311889A
:1026500032BD00002DE9F041DFF8A400DFF89C4016
:102660000768EFF3118887F31188A0680121FFF74D
:10267000B1FF0121A1830021E183656921682268FE
:10268000461B801A691A884204D20020A08388F36E
:1026900011882AE088F31188002005E04519361AD0
:1026A00029460120FFF79AFF8642F7D2EFF31188FF
:1026B00087F31188E18B012903D129460020FFF718
:1026C0008DFFA16910F1010F08BF084603D0801BE0
:1026D000814238BF08464119FFF784FF012020845A
:1026E0000020A083256088F31188BDE8F081808AEE
:1026F0007047FFF767BF0000A401002078010020A9
:1027000068CF00000446DFF8CC0000687047000086
:102710002DE9F84F04460D46FFF740FF0646FFF748
:10272000F2FFEFF3118780F31188D4F80880A845F1
:1027300002D187F3118847E0002DDFF8A49007D578
:10274000DFF8A00000684FF0000A00EB090B06E07C
:10275000012000FA05FAD9F8180000EBC50B207D1E
:10276000012822D12046FFF741FF206CFFF712FF1E
:1027700028B1D9F80400E1688843C9F80400D9F801
:102780001000A04207D1C9F814B02146DBF80000C0
:10279000FFF7AFFF03E021465846FFF713FFD9F8D4
:1027A00004004AEA0000C9F80400A560C4F80CA0BF
:1027B000C4F840B0002D44BF0020C9F81400012027
:1027C000A9F8080087F311883046FFF7EBFE404672
:1027D000BDE8F28F68CF0000DFF80C100968704781
:1027E00000010020E805000068CF000004F08CBE66
:1027F00080B5002301223421DFF8F00905F042F909
:1028000000B10120C0B202BDDFF8C41A0A68002876
:1028100012BF42F0010050084000086070470000FD
:102820007047FEE710B582B0042005F05FF902287A
:1028300018BF03280DD1032000901C234FF04052F5
:102840000021DFF8A80905F0FAF8BDE816400420D9
:102850006AE0DFF89C19DFF89C0A09680C18DFF8B9
:102860009419DFF8940A0968B0FBF1F12046FFF7EC
:10287000A1FE2046BDE81640FFF7A0BE80B5DFF8F8
:1028800078090078DFF8740901688908890041F047
:102890000101016005F037F905F0C1F9DFF86019B1
:1028A000002008600220DFF894190968C968884789
:1028B000DFF85C0A016849084900016000F01BFA72
:1028C000042000F013F900F0B6BC0000DFF82C1A69
:1028D000405C70470022012904D1012807D1DFF8AC
:1028E000600903E0012802D1DFF82C0A02681046D3
:1028F0007047DFF8000A00797047000005F018B94A
:1029000010B5DFF83C160968EFF3118481F31188E4
:10291000DFF8E019C9880120012908BFFFF768FF27
:1029200084F3118810BD000030B5DFF81416DFF80D
:1029300088390A68EFF3118182F31188B0FA80F2C6
:10294000C2F11F02D25CB0FA80F4C4F11F04551E1C
:10295000E55405D1DFF89C29136823EA00001060D4
:1029600081F3118830BD00002DE9F041FFF734FFFD
:10297000EFF3118481F31188DFF88019425C531E54
:10298000435444D1DFF87819DFF8788901EB8005EA
:102990002E786F88300618D5D8F80010096A3846A6
:1029A0008847D8F80010896A38468847D8F8001058
:1029B000096B38468847DFF8501901200860DFF8B6
:1029C0004C0900688007FAD514E0700606D5DFF8D8
:1029D000B01951F82710002088470BE0D8F80010F4
:1029E000896938468847D8F80010496B38468847C7
:1029F0000228F8D106F03F003F2818BFFFF7B4FFC8
:102A0000687800F03F003F2818BFFFF7ADFF84F360
:102A10001188BDE8F08110B508B1140001D1032080
:102A200010BD8160C26003610146DFF8E828DFF86D
:102A30004C0912681018FFF7DDFD002010BD0000E2
:102A4000F8B50446DFF8F804DFF8B0180068EFF3D3
:102A5000118580F31188625C531C6354002A3ED1B7
:102A6000DFF89C1801EB8407387800F03F003F281E
:102A700018BFFFF7E5FF787800F03F003F2818BF48
:102A8000FFF7DEFF7E883878DFF87878010613D507
:102A90003968C969304688473968496A3046884785
:102AA0003968C96A3046884700F038F8DFF85C08B2
:102AB00000688007FAD512E0400606D5DFF8C01896
:102AC00051F826100120884709E0396849693046E5
:102AD00088473968496B304688470128F9D185F322
:102AE00011882046BDE8F24005F0B6BADFF8501470
:102AF0000A68EFF3118182F31188DFF8F827136871
:102B000003431360B0FA80F0C0F11F00DFF8A8277C
:102B1000835C5B1C835481F311887047DFF8E817EE
:102B200001200860704700002DE9F04F83B04FF09E
:102B3000000800210128C1468A4618BF022412D18C
:102B4000DFF8FC03DFF834780268EFF3118082F3DA
:102B500011883A79012A06BF02223A71012180F3D5
:102B6000118809B10624BDE0FFF718FD009001208F
:102B700000F0E6F8040002D001203871AFE0FFF762
:102B800025FDDFF828180190C1F80090012004F01D
:102B9000ADFF012804D1002005F03EFA4FF00108F6
:102BA000DFF8E047DFF8545721688968002088473C
:102BB00000F0A1F8687C08B14FF00109287C08B149
:102BC00049F00209E87B08B149F00409E87ADFF826
:102BD000306718B1A16AF08D096B8847A87A18B1DF
:102BE000A16A708D096B8847FFF798FF49F02000B4
:102BF000A16A896988470120FFF706FE3878C00777
:102C000048BF4FF0010A12D4DFF8980705F05EFACA
:102C10008346BBF1040FF7D000F067F8800880000E
:102C200008600321A26CDFF87C07526890470020FF
:102C300005F054FA00F05FF8A06A806B8047BAF1A3
:102C4000000F0AD1A26CDFF85C0752685946904722
:102C500000F04BF840F0030008600120216889680B
:102C60008847DFF8440700688006FAD5B8F1000FFE
:102C70001CBF012005F0D0F9A16A49694846884780
:102C8000A16A496B484688470128F9D1E87A18B10A
:102C9000A16AF08DC96A8847A87A18B1A16A708DB7
:102CA000C96A8847FFF73AFF0020FFF7ADFD032010
:102CB0003871042000F044F8DFF8F01601200860B5
:102CC00000F019F805F018FB082000F039F8044668
:102CD000012038710198FFF791FC05F098FA0098EF
:102CE000FFF760FC2046BDE8FE8FDFF8D006DFF876
:102CF000CC1600687047DFF8A8060068704700002F
:102D000038B58F48DFF874560068EFF3118480F30C
:102D10001188E888012803D104F05EFF0020E880D4
:102D200084F3118831BD000010B5FFF755FDEFF3B6
:102D3000118481F31188FFF759FC84F3118810BDC9
:102D400038B500F02AF80818FFF724FC002540B930
:102D5000204600F008F820B1DFF8680600688047D8
:102D60000225284632BD70B500F017F80D18284628
:102D7000FFF748FC0646B068204206D03169F26889
:102D800020469047C0B2012806D03046FFF73EFCEF
:102D90000646AE42EFD1002070BDDFF87815096815
:102DA0000446DFF8D805704730BF704770B505F0AE
:102DB0009FFADFF840552E6806F00C000C284BD027
:102DC000700727D4FFF72EFC044600210120FFF7EF
:102DD00081FDA0421ED2DFF8C00300684519DFF86C
:102DE00014040668DFF8D8050068B0FBF6F0211A75
:102DF0002846FFF7DFFB2846FFF7E0FB4FF47A7029
:102E0000B0FBF6F200210120FFF78EFE2846FFF707
:102E1000CDFB23E030071FD4DFF8F404DFF8E444EF
:102E2000DFF87C55F10601685ABF4908490041F0B6
:102E300001010160DFF88405016841F003010160D0
:102E4000202021688969884728682068806B80472E
:102E500001202860286801E0FFF7A6FF05F04CFA82
:102E6000BDE8704005F0FEB910B50C1805F040FA49
:102E7000401E8041C00FDFF860150A68002AFCD0B0
:102E8000246801220A6008B105F036FA204610BD18
:102E900080B50420FFF72AFE0820FFF727FE0E204A
:102EA000FFF7CEFDDFF82005DFF820150068C0F33E
:102EB000815003280CBF012000200880DFF8100596
:102EC00002680AB1012002BDDFF8103540221A6005
:102ED0000122C2610020486002BD10B5DFF85C131A
:102EE000DFF8F04482B009680968202088470F2085
:102EF0002060072341F61D5060604FF4C07202202D
:102F0000009000F0C9F8DFF8D804012101600168E1
:102F10008907FCD501212161DFF8B044218801290E
:102F200007D1002101610220202100F091F8012049
:102F300004E00121002000F08BF80220606013BD46
:102F400068CF00002DE9F041DFF89804DFF87C44F9
:102F500082B0016842688A4342600161606800286B
:102F600004BFBDE8F341FFF7B8BF0128DFF87814CC
:102F70001AD10220606008684BF2F521484361884D
:102F8000000A11B10021618006E0DFF860140968D1
:102F9000090210EB11204008DFF854140860000CFF
:102FA0004860012088600CE002280FD10868B0F565
:102FB000C06F02D10020606045E00321616000F035
:102FC0006FF80121BDE8FC41002041E003283DD11C
:102FD000002060600868A0F5C065A06800F0B2F845
:102FE0000646284600F0AEF886422CDAA669284646
:102FF00000F0ACF88019A061E56860697B4E8542FD
:103000000ED0A769A7F1100000F09CF88046206957
:10301000103800F097F8804502DABFB200970BE055
:10302000ADB2009508234FF47F423021304604F0C2
:1030300006FD206980B2009012234FF4F8020421AB
:10304000304604F0FCFCBDE8F3418AE0BDE8F381C2
:1030500070B50D46DFF89C4382B00321216000214A
:10306000DFF89463316031688907FCD480B2009046
:103070000523602200F010F80120306030688007DE
:10308000FCD5A561002020600821DFF85003C16055
:1030900001600120206073BD0021544804F0CFBCC2
:1030A00070B50646514C82B030212046FFF7DCFE59
:1030B000DFF81853C0F30720E86004212046FFF72B
:1030C000D3FEC0F384402861A6F5C060A8602E69D5
:1030D00000F03CF88019A861A969E868022909DABA
:1030E000401E6FF03F039842B8BF184610310BD511
:1030F000002109E01E2908DB401C4028A8BF3F2012
:1031000010392029A8BF1F21A9616861082380B256
:1031100000904FF47F42302100F011F80120009020
:1031200011234FF4003200F009F8A86980B2009032
:1031300012234FF4F80200F001F873BD0421204679
:1031400004F07DBC002848BF4042704700284CBFB7
:103150006FF00101022101EB4000032190FBF1F02F
:10316000704780B5DFF878020021016001688907A7
:10317000FCD40021016041600120DFF85412086096
:103180000E20FFF7F1FB0820FFF7CEFBBDE8024061
:103190000420FFF7C9BB0000F400000010B504468E
:1031A0000020D4E90A2347F6906105F0ADF8012923
:1031B00028BF4FF0FF3010BD10B50C4605F01CF9CC
:1031C000011D201AB0F1004F05D8081BB0F1004FC7
:1031D00038BF8C4200D20C46DFF820221268526AB7
:1031E0002146BDE8104001201047000000A00C401F
:1031F000F80000006CCF0000993500200440034027
:10320000401009402DE9F04180460A46D8E90A01FC
:10321000D8E90C45A0FB026701FB0277A6196F41B4
:10322000340C002244EA07414046FFF7C5FFC8E9D5
:103230000E67BDE8F0814FF0FF3002BDA001001025
:103240005CCF0000F8B50546DFF8B801DFF8B861DB
:103250000068DFF8B871EFF3118480F311883068EB
:1032600040F0800030600120B96849688847F96AF9
:10327000096A142088472869B0F5802F34BF0421DB
:10328000010CBA68526A012090473A6812682321FB
:1032900000209047B968C96901208847306820F448
:1032A000E02040F480303060306840F00100306051
:1032B00084F31188F1BD00006C350020DFF8540163
:1032C000036840680022002110185941704700002F
:1032D0000C200840DFF82411DFF8240110B509683C
:1032E00044684968012088476069A169BDE81040C9
:1032F0000847000084130020A08601001835002034
:1033000044CB0000B80100102820086028200840A5
:103310008C21084054CF000060CF0000F8B504466F
:103320000D46FFF7CBFFD4E90A6732463B4604F06F
:10333000EBFF3DB1A6FB002306FB013307FB003387
:10334000C4E90C23F2BD38B5DFF8BC40DFF8C0504B
:103350002068400840002060206840F08000206025
:103360000120E062E06A2968496801208847696AAB
:10337000096A14208847E06A31BD000084130020E8
:10338000A41100209001001080B500F004F8000C9A
:1033900040EA014002BDDFF8800000688EE70000CF
:1033A0002C20094000400340141009400C40094003
:1033B00009B9DFF86810FFF72DB900002422084092
:1033C00064CF000058CF0000B43F005068130020C5
:1033D00004800C400C400C4000800C402C500C40F1
:1033E00034600C4028500C4008400C40102009402C
:1033F0003C600C4000400C4038600C408C010010D8
:10340000E401002068CF0000002009408401001082
:103410008C01001008200940EC010020A0010000F0
:10342000DFF85415096821B10A898242FAD10846A9
:1034300070470020704700BF13B5044604F025FE16
:1034400018B1002000F002F806E008E0009001AB9F
:1034500022464FF0FF31704700F00DF816BD4FF0D7
:10346000FF3016BD00F007F80EBD08B582B000238E
:10347000009302ABF6E777B58DB01C461498ADF813
:10348000180000250F9828B92FE10EAA0DA800F00A
:103490007BF96D1C00F034F9080000F0208125292B
:1034A000F3D100F02DF92D2905D10120ADF806004A
:1034B00000F026F902E00020ADF80600302904D122
:1034C0000120049000F01CF901E00020049000208D
:1034D00000904FF0FF3002900A202A2918D121686D
:1034E000216051F8042B2160009200F01AF9009A33
:1034F000002A11D50122ADF80620009A524200920E
:103500000AE0009A00FB02113039009100F009F93D
:10351000A1F130020A2AF4D32E291DD100210291F3
:103520000F990F9A0978521C2A290F9210D100F096
:10353000F2F80291002944BF0020029000F0E0F868
:103540000AE0029A00FB02113039029100F0E9F81A
:10355000A1F130020A2AF4D3049808B1009804902B
:103560006C2918BF4C2905D10120ADF8040000F0EA
:10357000C7F802E00020ADF8040008A807900CA8E6
:10358000059000200390642918BF69290DD1BDF86A
:1035900018000028FFD000F0B8F86FF00903029877
:1035A000049A8242B8BF049019E00A2375291FBF0C
:1035B0001023782908236F2903D1BDF8180038B9E2
:1035C00006E0702913D1049320682060016814E09C
:1035D00000F09BF8049A02988242B8BF0490049AC3
:1035E000059800F0A4F807900599081A2FE06329C0
:1035F00019D12068206001680FE0001D20601023B1
:103600000598082200F093F8401E07904020079983
:10361000087005980799401A19E0001D2060079866
:103620000170012013E0732913D100F074F80791A1
:1036300011B90FF2BC000790079804F0EFFE039059
:10364000029810F1010F1ED0039988421BDA0390F3
:1036500019E00F98401E0F900E98022813D302987D
:1036600010F1010F02D00E99884201D30E9800E0AC
:10367000401CDFF80C63366802906B4622460FA9A7
:103680000DA8B047451900980399401A0090BDF85D
:10369000060038B902E000F02FF86D1C0098401EBB
:1036A0000090F8D50398411E039150B10798401C33
:1036B00007900EAA10F8011D0DA800F065F86D1C0A
:1036C000F0E7BDF8060000283FF4E4AE0098401E85
:1036D00000903FF5DFAE00F00FF86D1CF6E70D9897
:1036E00010B10D9900200870284610B070BD000080
:1036F000286E756C6C2900000EAA20210DA843E0ED
:103700000F9810F8011B0F90704720682060016827
:10371000001D206070472068206050F8041B206066
:1037200070470F990F9A0978521C0F927047F0B5A5
:1037300000240025002B44BF5B42002902D54942EA
:10374000521E2D25B1FBF3F60FF2280703FB1611CD
:10375000641CC95D00F8011D31460029F2D1944274
:10376000BEBF302100F8011D641CF8DB0DB100F86C
:10377000015DF0BD3031323334353637383961626E
:10378000636465660000000010B50C4611680229EC
:103790000BD3491E1160016819B14A1C02600C70FC
:1037A00010BD04F072FC00B100E010BD2046BDE881
:1037B000104004F068BC0EB400B501A9FFF73BFE51
:1037C0005DF810FBDFF8BC11096808470000DFF85E
:1037D000B8010068004701207047FEE7704710B548
:1037E0000446606808B9012010BD0B4601462068F8
:1037F0005DA200F0A1F8A1684118A16061680129EB
:10380000A4BF081A6060002010BD00002DE9F0413F
:1038100004468846A088164600F022F80746F11BA9
:10382000002E01D40A2904DB236850A200F082F89C
:10383000C719A08980B1F51BA468002E05D42046C5
:1038400004F0ECFD401D854206DB23460FF24412D6
:10385000294600F06FF8C7193846BDE8F08100002E
:103860003EB50D464349098814468142034628BFA8
:103870000FF2281210D241490988814207D3FFF77D
:10388000CFFD21464268284600F056F83EBD354936
:10389000098831B90FF210122146284600F04CF881
:1038A0003EBD3A4B0095002C48BF47F6FF740021FF
:1038B000029101946A461B683549984702983EBDBB
:1038C0002DE9F843170048BF47F6FF7704468846BE
:1038D000002664B3208818B13A46FFF7C1FF0646B8
:1038E000B91B012922DB208820B121A2404600F02B
:1038F00023F88619A068C8B1656875B1284604F038
:103900008DFDA7EB0609401D814506DB2B460FF216
:10391000AC02494600F00EF88619B91B122905DBE6
:10392000A3680FF2A00200F005F886193046BDE842
:10393000F28300004046FFE708B478B504001ABFE0
:103940002668002E00260D4605AB3046FFF78DFD9C
:10395000854238BF681E16B121684118216072BCCB
:103960005DF808FB8A050000257300002570000043
:103970003A20000012050000F4130020D0000000DF
:1039800078CF000070CF000074CF00007CCF000023
:10399000DF37000028272573272900007B6D6F641F
:1039A000756C652325647D007B6D6F64756C652D7A
:1039B000726F70653A25787D000000002225732221
:1039C0002C2000006C696E652025643A2000000000
:1039D000DFF800F041AC0110DFF800F085C1011004
:1039E000DFF800F079B50110DFF800F0F5B801104C
:1039F000DFF800F0A9C1011000B583B00821ADF8CF
:103A0000001001900521ADF802106846534909687D
:103A1000884707BDF0B589B004460D4616461F46D7
:103A20000823242200216846FFF7D6FF0F984C494F
:103A3000096806906B464FF47A70B0FBF1F101FB18
:103A400007F0059001FB06F20E98ADF8100029462C
:103A50002046FFF7C5FF204609B0F0BDFEF7AEBD1A
:103A600038B504460D46FEF742FE10B12046FEF77B
:103A70009DFD00F031F800FB05F12046FEF79AFDB0
:103A80002046BDE83240FEF799BD80B5FEF72FFE17
:103A900000B10120C0B202BDFEF788BD70B504467A
:103AA0000D46FEF724FE20B12046FEF77FFD0126DD
:103AB00000E0002600F010F8454329462046FEF7B6
:103AC00079FD294620460161C04626B12046BDE861
:103AD0007040FEF773BD70BD214909684FF47A70DC
:103AE000B0FBF1F0704710B504460021FFF77CFFF2
:103AF000204610BD70B584B004460820ADF8000023
:103B00000D460420ADF802000C201449096801900C
:103B100016466846884758B9029949B18E602046D2
:103B2000FEF750FD15B12846FFF752FF012003E0D4
:103B30003046FFF761FF002004B070BD10B50446A9
:103B4000FEF728FD38B92046FFF752FF8468FFF7DB
:103B500053FF204610BD002010BD0000640F002060
:103B60006CCF000070B500F00F01062904461CDA86
:103B700014B9682101201DE0DFF86459A97B00F029
:103B80000F0081420CD000F04CF870B104F00F0629
:103B90000120B040C0B202F09DFEAE7302F0D5FE2F
:103BA00020064CBF6921682103E002F0CEFE002010
:103BB00070BD0020BDE8704002F0A5BE10B50446FF
:103BC00004F00F00062818DA14F00F0402D10C21BB
:103BD00001200EE000F025F878B10120A040C0B22D
:103BE00002F078FEDFF8F808847302F0AEFE0C21D4
:103BF0000020BDE8104002F086BE02F0A6FE0020C4
:103C000010BD10B5DFF8D848A07B48B100F009F826
:103C100010B1002002F05EFE02F097FE0020A073BB
:103C200010BD7021002002F06EBE80B5DFF8B00834
:103C3000406C01220C2104F0F8FDDFF8A818DFF831
:103C4000A808096800F0D7FABDE8014019E080B57E
:103C50000C2004F0FDFD012818BF002002BD10B5A6
:103C6000DFF87C4804F14C0104F1580004F023FD16
:103C700060640FF65D0104F005FE0020A064BDE85D
:103C800010402DE9F04100F088F801206072002218
:103C90000020E072A0730119401C06280A740A76FD
:103CA000F9DB00263046FFF75DFF002873D0802047
:103CB00000F010F9002000F094FA1A20FEF760FAE4
:103CC00000F08EFA1D20FEF75BFA00F00AF91920C9
:103CD000FEF756FA02F039FE761CF6B2062EE1DB4C
:103CE000DFF8000806684CF25030B0FBF6F0FCF745
:103CF00085FC00F028FA5FEA000849D0022000F0B5
:103D00007DF9002000F0CEF9FFF7A1FF10B902F015
:103D10001CFE36E0002740F27F150121384600F0F6
:103D2000E7FA70B33846FFF749FF10B300F058FACE
:103D30000A20FEF725FA42F21070B0FBF6F0FCF70D
:103D40005DFC032221461020FEF712FA50B12178C3
:103D500004EB470029400184617829408185A178DE
:103D60002940018700F0BDF80B20FEF709FA02F0A8
:103D7000ECFD0021384600F0BBFA7F1CFFB2062F95
:103D8000CBDB0026304600F096FA761C062EF9DBD7
:103D90000020A0734046BDE8F081DFF84447DFF81B
:103DA0004C17606C04F05ABDF8B50446062C33DAA3
:103DB000DFF82C5724B9686CDFF8301704F04EFD9B
:103DC00000F0BFF9002871D00020A873002160190D
:103DD00001740176802000F00AF93CB9002000F05F
:103DE00072F80F2000F068F8012006E0042000F0CF
:103DF0006AF8042000F060F8042000F058F8192058
:103E0000FEF7BEF902F0A1FD204600F0C3F906005E
:103E10004BD000F096F900B91FE1687AC000A87293
:103E200000F0D9F8E87AC0002873012205F10C01EE
:103E30001B20FEF7A5F902F088FDDFF8A806076849
:103E40004FF4FA60B0FBF7F0FCF7D8FBFFF7FFFE8A
:103E500030B300F092FA28B300F089FAE8B10F20ED
:103E600000F08FFA42F21070B0FBF7F0FCF7C6FBDF
:103E70000322291D1020FEF77BF950B1297905EBAB
:103E8000440080310184697980318185A97980314C
:103E9000018700F07DFA02F058FD00F06BFA01E0B6
:103EA00002F053FD204600F006FA3046F2BD68737A
:103EB000012205F10D0170476873012205F10D0122
:103EC0001D20FEF75DB96873012205F10D011A206E
:103ED000FEF756B96073012204F10D016B20FEF765
:103EE0004FB901206073012204F10D01704710B534
:103EF00082B0044600208DF80000FFF7A8FE08B14C
:103F0000062C03DB02F021FD002016BD00F019F99C
:103F100048B1012269463A20FEF72AF908B98DF81E
:103F2000000002F012FD9DF8000016BDF8B5044631
:103F30000E46FFF78CFE002846D0062C44DADFF848
:103F4000A0556719387CD8B9D6B1FFF780FEA8B163
:103F500000F0F7F8A0B1092000F049F870B13F2057
:103F6000687300F03EF80021397438B100F033F87E
:103F700020B1FFF79DFF3A20FEF7FAF802F0E5FCCA
:103F80003E74387C18B3C043687300F0DAF808B3A5
:103F900000F027F802F0D9FC387C800900F0010518
:103FA000FFF755FE80B100F0E8F998B100F0DFF9B5
:103FB00038B1002D14BF1120002000F081FA02F06A
:103FC000C4FC00F0D7F9F1BD02F0BFFCF1BD204602
:103FD00000F071F9F1BD012205F10A011C20FEF784
:103FE000CFB8012205F10D016C20FEF7C9B8687346
:103FF000012205F10D016B20FEF7C2B8F8B5DFF81C
:10400000E0640446707A0125A04201D10120F2BD8E
:10401000E000B072FFF71BFE00B91EE000F021F8CF
:10402000A0B102F092FC00F012F800B900250127BF
:104030003846FFF797FD18B100F009F802F085FC4B
:104040007F1C062FF4DB05B174722846F2BD0122F5
:1040500006F10A011C20FEF793B802F076FC00205E
:10406000F2BD00207EE538B504460D46FFF7EFFDB2
:1040700008B1062C00DB11E000F063F868B10622FD
:1040800029463B20FEF774F8044602F05EFC1CB1A2
:1040900006212846FEF701F9204632BD02F055FC04
:1040A000002032BDF8B5DFF838640446F07A012507
:1040B000A04201D10120F2BDE0003073FFF7C7FD3F
:1040C00010B902F042FC0DE0FFF7CBFF50B100F059
:1040D00017F800B9002502F038FC00273846FFF732
:1040E00041FD08B90020F2BD00F00AF802F02DFCF5
:1040F0007F1CFFB2062FF1DB05B1F4722846F2BD3A
:10410000012206F10C011B20FEF73AB838B504462F
:104110000D46FFF79CFD08B1062C00DBBEE700F062
:1041200010F868B1062229464320FEF721F804461C
:1041300002F00BFC1CB106212846FEF7AEF8204623
:1041400032BD20460EE538B5FFF781FDC8B1002429
:10415000DFF88C53FFF7F5FFD8B1287A40B1DFF8CC
:104160008413DFF88C03096800F045F800202872FA
:10417000FFF79EFE7520FDF7FBFF10B1687B7128ED
:1041800000D08BE702F0E1FB641CE4B2062CE1DB1B
:10419000012032BD10B500F003F9E0B104F00F00CA
:1041A000062818DAFFF7CDFFC8B1DFF83443207ACC
:1041B00040B10020DFF82C1320724CF25030096817
:1041C00000F019F800F00EF87520FDF7D1FF10B1DE
:1041D000607B712800D010E502F0B7FB012010BD14
:1041E0000F206073012204F10D017047DFF8F41213
:1041F000096842F21070B0FBF1F0FCF7FFB9000063
:1042000080B504F0B5FBDFF8D822527A032A13D820
:10421000DFE802F002060A0E0022DFF8D8320AE0D8
:104220000022DFF8D43206E00022DFF8D03202E0CC
:1042300000224FF07D5333E0002002BDDFF8A022C2
:10424000D27A032A00D9704780B5DFE802F0020A6B
:10425000121A04F08DFB00F029F80022DFF8A032DA
:1042600015E004F085FB00F021F80022DFF894321D
:104270000DE004F07DFB00F019F80022DFF8883231
:1042800005E004F075FB00F011F800229F4B07E0F9
:1042900002BD80B504F06CFB00F008F800229C4BD6
:1042A00001F0A8FABDE8044001F082B900224FF005
:1042B0007C5301F09FBA10B500F072F860B1062C83
:1042C0000ADAFFF73EFF58B1854C3F2000F009F8AD
:1042D00010B14F20FFF7FEFDBDE8104002F035BBE6
:1042E00010BD6073012204F10D016C20FDF748BF81
:1042F00010B50C4600F00F01062901DBFFF77DBC6D
:10430000FFF730FC68B1202004B1222074494873C3
:1043100001220D313720FDF733FF044602F015FB73
:1043200000E00024204610BD38B5FFF790FC0028BF
:1043300004BFBDE8314002F008BB0024684D00F026
:104340001CF880B100F013F858B100F021F8FFF725
:104350004DFF6019007C400601D500F011F802F015
:10436000F4FA00F007F8641C062CE8DB31BD2046A7
:10437000FFF724BC00212046BAE701212046B7E719
:1043800011206873012205F10D010A20FDF7F8BE26
:1043900001206873012205F10D010B20FDF7F0BE2D
:1043A0000446FFF754BC38B5FFF7FAFF80B1FFF7BA
:1043B000E4FF04F00F00FFF701FC494DFF20FFF779
:1043C00076FD0020FDF7D4FE10B1687B482800D0B0
:1043D00064E602F0BAFAFFF7CDFF012032BD2DE905
:1043E000F041804608F00F04062C84B00E4606DA31
:1043F0003B4FE51906202876FFF729FC18B902F093
:10440000A4FA002059E0002028764046FFF7AAFBD6
:1044100022208DF80000012269463720FDF7B0FE0A
:1044200008B90520287602F090FA287E08B101200C
:1044300043E0FFF79CFF012269460220FDF798FE4A
:1044400080B39DF80000C0072AD5072201A90320E8
:10445000FDF78EFE10B301A8817909071CD4BDF8C1
:104460000410318007EB4402B0F902107180B0F9FA
:104470000400B080B6F90030B2F920707B431B1203
:104480003380B2F92C30594309127180B2F93810D7
:1044900048430012B08007E0032004E0042002E05B
:1044A000022000E001202876112000F009F802F037
:1044B0004CFA0CB1FFF75EFF287E04B0BDE8F08136
:1044C0008DF80000012269460A20FDF759BE000060
:1044D000072904D10248806C010018BF00477047CB
:1044E000381100206CCF0000A0860100070000807A
:1044F000905F01000000103F0000203F0000303FAF
:1045000000406F4000407F4000408F4000409F408F
:1045100000C0B240F0B4016844688368091801EB38
:104520005402E40748BF4B440C3091422BD011F8A1
:10453000014B14F0030504BF11F8015BED1C2609C3
:104540000F2E07D111F8016B0F3603E011F8017B34
:1045500003F8017B6D1EF9D1002EE6D0A40811F8F6
:10456000015B04F00304032C08BF11F8014B05EBB9
:1045700004241C1BB51CD8D014F8016B03F8016B84
:104580006D1EF9D1D1E7F0BC70470000DFF8E408F8
:10459000C07C28B1DFF8E00800687D21484340096D
:1045A000704700B58FB008233C2200216846FCF715
:1045B0001DF8DFF8C80800F15001079100234FF4FF
:1045C0002F7108916A46012106910FF2E921FCF74B
:1045D00011F80FB000BD7FB5DFF8A418DFF89448DC
:1045E000032008600120E07402F0B2F904F0D6F96B
:1045F00004F054FA04F11C0000F0ACFA04F1940148
:1046000004F1580004F057F8206510221B2104F033
:1046100072F96FF07E0060740020A07400F013FA4D
:104620000120DFF860180968ADF802006846884785
:10463000BDF80400E0820298E06404F18800FFF70E
:1046400052FA60650023042001904FF47A72002032
:10465000009004F164000FF29571FFF7DBF901217E
:104660001F2002F023FD01208DF801000DF1010251
:104670000020ADF80C008DF8000001210820ADF8F5
:104680000A004FF44870ADF808000020ADF80600AD
:104690006420ADF804000120ADF8020040F20530BE
:1046A00004F05EFA03AA022140F2063004F058FA40
:1046B000DFF8D42700F06EFB22460E2140F20730CF
:1046C00004F04EFA6A4601214FF4447004F048FAAF
:1046D0000DF10A02022140F2113004F041FA02AA5F
:1046E000022140F2123004F03BFA0DF106020221E1
:1046F00040F2133004F034FA01AA02214FF445705D
:1047000004F02EFA0DF10202022140F20F3004F003
:1047100027FA0FF640120F21002002F0CDFBA02156
:10472000062002F0C3FCA021072002F0BFFCA0215C
:10473000082002F0BBFCA021092002F0B7FC4FF0DA
:10474000FF3002F0B6FB4FF0FF3002F092FB04F0B6
:10475000B1FEDFF83807056842F2107000F0F6F994
:10476000FFF714FF00F244500A21B0FBF1F604F009
:10477000ABFF01466420B6FBF0F200FB12630FF2C0
:104780001C70FFF718F8B6F5B47F14D80FF2347028
:10479000FFF711F8052400F0D6F9DFF8F40600F071
:1047A000D5F9641EF7D10FF22C70FFF704F8022040
:1047B00004F09EFFFEE7012000F049F90FF6A40285
:1047C0001221012004F07EFE0FF6AC052A460521D9
:1047D000022004F077FE2A460521052004F072FE2F
:1047E0000FF69C021921032004F06CFE0FF6C002A4
:1047F0000C21042004F066FE0FF6A0021221062010
:1048000004F060FE3020FDF7D0FC0546302D06D1C7
:1048100000F04CF80FF2CC60FEF7CDFF06E000F0A0
:1048200092F929460FF2D060FEF7C5FFFDF732FD81
:1048300001460FF2E860FEF7BEFF207F800708D434
:1048400004F120020C210420FDF7A0FD0420FBF759
:10485000F8FE207F400711D404F12C020F21042020
:1048600005F022F804F13B020F21052005F01CF8A9
:10487000042001F09FF9052001F09CF905F02CF9C6
:1048800001F06CF904F1BC0004F03FFB002002F0E1
:10489000B4FAE08AC0B202F0ADFA206D0FF2A55171
:1048A00003F0F0FF012000F071F97FBD05210F201A
:1048B00079E200002DE9F04387B0FFF78CFE0FF29C
:1048C00084610FF274600FF2A4640FF28C68DFF859
:1048D000B475DFF8A055FEF76EFF4FF6FF7946E09E
:1048E00005F03EF901F024FA288B41073FD54FF639
:1048F000FB7108402883287C062812BF022805F196
:104900006400FFF7ABF8287C06280ED10220A874BB
:10491000ADF8089002A940F20E3004F067FABDF835
:104920000800484518BF02F000FD287C022804D189
:104930000320A8740121FFF7BAFF287DB8B1FFF763
:1049400025FE40F6B831884211D2002000F07FF8F1
:104950004046FEF730FF28210A2000F024FA287C88
:10496000062804D104F0EAFA2046FEF724FF00F0FE
:104970006AF80A20ADF802004FF0FF300190684657
:10498000396888470028AFD10820ADF80C0009200D
:10499000ADF80E0003A839688847BDF81210059ECF
:1049A00070BBBDF81000102804BFE88A814216D100
:1049B0003078912807D0B02802BF317906F108007D
:1049C00002F004FC0BE070780E2802BFB08841F2C0
:1049D0000541884203D1B06890F9030068747EB144
:1049E00000F031F8032005E0707800F0EDF800F0F9
:1049F0002AF80520ADF80200019668463968884714
:104A0000686DFDF7C7FD00287FF46AAF686DFFF79A
:104A100095F80600F4D030780128E5D00228E6D1D8
:104A20007178B0780C290BD0E1D30E2901D004D3D2
:104A3000DDE7697D08436875D9E701F0BBF8D6E783
:104A4000FBF7FFFDD3E70820ADF8000070472DE924
:104A5000F041DFF820440100206D62D001221421D2
:104A600003F0E3FEDFF82404056844F6206000F05C
:104A70006DF8FFF78BFD40F6B836B0424BD200F030
:104A80005DF84FF4FA60B0FBF5F73846FBF7B6FD7A
:104A9000206D0122102103F0C8FE3846FBF7AEFD61
:104AA00000F047F80A270FF2DC48FFF76FFDB0422D
:104AB00029D200F048F8FFF769FD01464046FEF7AD
:104AC0007AFE00F03BF84FF47A7000F03FF800F007
:104AD00030F8DFF8C00300F039F87F1EE5D1FFF7AA
:104AE00055FDB0421BD20FF27040FEF764FE00F09D
:104AF00025F80FF2E030FEF75EFE00F024F8022009
:104B000004F0F6FDFEE7FFF741FD01460FF2944089
:104B1000FEF751FE03E00FF2B440FEF74CFE012019
:104B200004E00022142103F080FE00202075BDE87F
:104B3000F081206D0122142103F077BE206D002248
:104B4000142103F072BE05210A202CE1B0FBF5F020
:104B5000FBF754BD10B50446FF22302100F0FAFBEC
:104B6000002000F013F805F0E3F860B12246302190
:104B70004FF4807005F01EF918B90FF26440FEF78B
:104B80001AFE05F0FAF8BDE81040012010B5C24C3D
:104B9000216868B191B904F11001201D03F08BFD6B
:104BA000206058B1BDE810400FF2992103F06ABEB1
:104BB00021B1084603F00BFE0020206010BD014625
:104BC0000022012019E100007FB50446401E07289D
:104BD0000FF26436A74D00F2D580DFE800F0044400
:104BE000D3737358D3C7FFF761FE02A94FF4417026
:104BF00004F0FCF802A94A789DF808008DF801201D
:104C00008DF8000000208A788DF8022000228DF8AF
:104C100004208DF803204A798DF807200A79C97895
:104C20008DF806208DF805106A46082104F04AFC2C
:104C30009DF808009DF80810934A000901F00F0143
:104C4000D07411750A28ACBF572330231818D074BC
:104C50000A29ACBF572030204018107500F09AF890
:104C60000FF2AC318BE005F16400FEF70EFF18B9CE
:104C700005F16400FEF7F2FE287D10B90120FFF770
:104C8000E6FE002000F0EEF80FF2903177E005F13B
:104C90006400FEF7FAFE18B905F16400FEF7DEFEC7
:104CA000286D00220A2103F0C0FD286D00220F218B
:104CB00003F0BBFD286D0022152103F0B6FD0FF2B5
:104CC00068315CE000F0B5F80FF268313046FEF76D
:104CD00072FDA87C022808D00FF264313046FEF73E
:104CE0006AFD0020FFF7B3FE4CE06E7D0120002E30
:104CF000A87447D005F11C00FFF72CFF0020FFF738
:104D000045FF05F015F858B3F00709D505F1200166
:104D10000420FDF777FBA88B4FF6FD710840A883B0
:104D2000B00706D505F12C01042004F0FFFD00F0CA
:104D30002BF8700706D505F13B01052004F0F6FDC0
:104D400000F022F805F11C0230214FF4807005F0CC
:104D500050F818B90FF2A020FEF72DFD05F00DF860
:104D60000120FFF713FF002068750BE000F061F8E9
:104D7000286D01220A2103F058FD0FF2D0213046A0
:104D8000FEF719FD2C747FBDA88B4FF6FB71084010
:104D9000A88370471F214FF4427003F0E1BE0A461A
:104DA0000146022029E02DE9F04104460D46002687
:104DB000304F16E0386D0122214603F036FD3349AD
:104DC000096844F62060B0FBF1F84046FBF716FC9A
:104DD000386D0022214603F028FD4046FBF70EFC0B
:104DE000761CF6B2AE42E5D3BDE8F08121490A8BCC
:104DF00010430883C86CFEF7EBBD70B584B0044661
:104E0000FFF721FE0D460420ADF8020003201D49E6
:104E10000968019016466846884748B9029A3AB12F
:104E20001470557096701348C16C406DFEF762FEA9
:104E30007FBD80B5FBF7B4FC00F01CFFBDE801406E
:104E400004F0D6BE31B1032908D0042904D01129B9
:104E500006D0704704F055BE04F03FBE04F06DBEAE
:104E600000F050BF034A50730E2140F2073003F0A8
:104E700077BE0000E40A002028500940D025002019
:104E800000500940640F0020BC0B00206CCF0000D4
:104E9000A086010018310C00A40B0020414F4E5F8A
:104EA00054656D70203A202564200A0D42617474A7
:104EB00065727920203A2025752E25752056200A06
:104EC0000D0000004C6F7720506F77657221212113
:104ED0002E0A0D0053797374656D2048616C742E31
:104EE0000A0D000073656C66546573744D61702023
:104EF000506173732E0A0D0073656C66546573748C
:104F00004D6170204661696C656428476F74203A72
:104F100030782578292E0A0D000000004669675474
:104F2000657374526573756C74203A20307825303F
:104F30003478200A0D0000004C43443A25730A0DD2
:104F400000000000436F6E74726F6C6C65722053CA
:104F50007461727400000000506F776572204F6EAC
:104F6000204661696C65642E0A0D0000426C75650F
:104F7000746F6F746820446973636F6E6E656374D9
:104F80002E0A0D00506F776572204F6E20466169C2
:104F90006C65642E2056444442203D202575206DCA
:104FA000560A0D00506F7765722052657365742044
:104FB000537563636573732C2056444442203D202F
:104FC0002575206D562E0A0D00000000506F776584
:104FD00072204F6E20537563636573732E0A0D0044
:104FE000466C6173682052656164204661696C6536
:104FF000642E0A0D00000000466C61736820577231
:015000006946
:00000001FF