:2000000060400020D17F000001CA011001CA011001CA011001CA011001CA011001CA0110A8
:1C00200001CA011001CA011001CA011001CA011001CA011001CA01103FCA011082
:20003C0000008001100082FFFDFF58003AFFBFF3FFFFFFFFFFFFFFFFFFFFFFFFFFFFFFFF63
:20005C00FFFFFFFFFFFFFFFFFFFFFFFFFFFFFFFFFFFFFFC5FFFFFFFFC5FFFFFFC5C5C5FFC6
:18007C00C5C5C5FF00000000FFFFFFFFFFFFFFFFFFFFFFFFFFFFFFFF2E
:200100003C000000000000000000000034010000000000000000000001000000000000006D
:1C01200000000000000000000000000001000000000000000800000000000000BA
:20013C00340000000000000000000000680100000000000000000000010000000000000005
:14015C00010000000000000000000000080000000000000086
:2001700030000000000000000000000098010000040000000000000001000000FFFFFFFFA5
:10019000FF00000001000000080000000000000057
:2001A0002C0000000000000000000000C4010000040000000000000001000000FFFFFFFF4D
:0C01C000FFFFFFFF08000000000000002F
:2001CC0034050000E401000099A1011095A70110A5C2011009B2011045B80110000000000B
:0801EC00000000002E000000DD
:2001F400280000000000000000000000140200000000000000000000FFFFFFFF00000000B1
:080214000800000000000000DA
:20021C00300500003002000069C201106DC101101FC2011095BA011000000000000000008E
:04023C00300000008E
:20024000300500005402000075C20110A9B601109DBF011049B601100000000000000000DE
:040260003100000069
:200264002400000000000000000000008002000000000000000000000000000008000000CC
:040284000000000076
:20028800240000000000000000000000A40200000000000000000000000000000800000084
:0402A8000000000052
:2002AC00240000000000000000000000C8020000000000000100000000000000080000003B
:0402CC00000000002E
:2002D00000000000B422002004000000000000000000000020000000700100003000000053
:2002F0001C020000BC2200200400000000000000000000000C000000300400001800000076
:2003100040020000C4220020040000000000000000000000240000004804000018000000F9
:2003300000000000CC22002004000000000000000000000010000000A00100002C000000BE
:20035000CC010000D4220020040000000000000000000000200000006402000024000000FC
:20037000FFFFFFFFDC22002004000000000000000000000028000000880200002400000079
:20039000FFFFFFFFE4220020040000000000000000000000580000003C010000340000005E
:2003B000FFFFFFFFEC22002004000000000000000000000010000000600400001800000073
:2003D000FFFFFFFFF42200200400000000000000000000001C000000AC02000024000000E9
:2003F000FFFFFFFFFC22002004000000000000000000000038000000F4010000280000005A
:20041000FFFFFFFF0423002004000000000000000000000054000000000100003C000000F4
:1804300018000000000000000000000040040000080000000000000050
:1804480018000000000000000000000058040000080000000000000020
:18046000180000000000000000000000700400000800000000000000F0
:080478000100000020B20000A9
:040484000100000073
:0404880000000C0064
:04048C0000000D005F
:040490003200000036
:040494000200000062
:04049800D42000204C
:04049C00000200005A
:0404A0000000000058
:0404A40001CA011078
:0404A8000000000050
:0404AC00000000004C
:0404B0000800000040
:0404B4000000200024
:0404B80038200020C8
:0404BC00010000003B
:0404C00010220020E6
:0404C400080000002C
:0404C8000000000030
:0404CC00000000002C
:0404D0000000000028
:0404D4000000000024
:0404D8000000000020
:0404DC00010000001B
:0404E00034210020A3
:0404E400060000000E
:0404E800010000000F
:0404EC00581F002075
:0404F0000000000008
:0404F4000000000004
:0404F80000020000FE
:0404FC0000000000FC
:020502002A00CD
:020504000100F4
:020506002500CE
:020508003000C1
:02050A003100BE
:02050C002E00BF
:02050E000100EA
:0105100001E9
:080514000300000070B10000BB
:08051C000000000000000000D7
:0405240000000100D2
:0405280000000300CC
:04052C0087C401106F
:04053000380500008A
:040534003805000086
:0405380000000000BF
:04053C00800000003B
:040540008000000037
:0405440000000000B3
:04054800102200205D
:04054C0089A500007D
:040550002000000087
:04055400A4AE000051
:04055800C8AD00002A
:04055C000DC30110BA
:040560001B6000001C
:0405640037620000FA
:0405680099C801101D
:04056C009BC8011017
:040570000000000087
:04057400F7B00000DC
:04057800E0AC0000F3
:04057C00F8AC0000D7
:04058000C8AC000003
:0205840008006D
:0205860009006A
:02058800010070
:02058A0000006F
:01058C00016D
:040590000000000067
:040594000000000063
:04059800000000005F
:04059C00000000005B
:0405A0000DA30000A7
:0405A400658400006A
:0405A8005D9D000055
:0405AC00D5890000ED
:0405B000516B00008B
:0405B400AD8E000008
:0405B80015580000D2
:0405BC00E99E0000B4
:0405C0005D7000006A
:0405C40011C8011049
:0405C80021C8011035
:0405CC000800000023
:0405D0002400000003
:0405D400180000000B
:0405D80028000000F7
:0405DC0020000000FB
:0405E0003C000000DB
:0405E4000C00000007
:0405E80034000000DB
:2005EC002DE9F04FADF16C0D05F06AFCD64C04F1280004F1780104F067FFDFF89493E060E3
:20060C0049460AF0EFF801260821E44FADF828103868ADF82A6001460AA88847BDF82C0086
:20062C0060800C98A06004F134000AF061F800254FF0040804F1940A4FF47A72E2492061D0
:20064C002B4600955046CDF8048006F0E1FD1F20314608F0E1FC30468DF85E000820ADF824
:20066C0044500DF15E028DF85F503146ADF846004FF44870ADF848002846ADF84A0064201D
:20068C00ADF84C0040F2053001F068FB40F20630022111AA01F062FB04F15A054FF44270C5
:2006AC001B212A4601F05AFB04F14C0240F207300E2101F053FB4FF4447031460DF15F0255
:2006CC0001F04CFB40F2113002210DF1460201F045FB40F21230022112AA01F03FFB40F219
:2006EC00133002210DF14A0201F038FB4FF44570022113AA01F032FBA5F10E061896D74DA8
:20070C000020152105F1470209F074FE04F11C000AF01EF80620A02108F07EFC0720A0216B
:20072C0008F07AFC0820A02108F076FC0920A02108F072FC4FF0FF300AF003F94FF0FF30CA
:20074C000AF0FCF809F04CFE05F111020120112102F00EFC022005212A4602F009FC052030
:20076C002A46014602F004FC05F134020320132102F0FEFB6A1D40460C2102F0F9FB05F140
:20078C0022020620122102F0F3FB7F2004F022F8BA4DB8467F280AD00A20052107F012FA6A
:2007AC00286844F62061B1FBF0F019900AE0286844F620610025B1FBF0F01990E068052DA4
:2007CC00C0F2F68107F096FB002852D107F046FA5FEA00094DD0002528464FF4805106F0CE
:2007EC0051F905F58055E80CF6D000263AE006F500304FF4805106F045F95FEA00092FD016
:20080C0004F5847B37460025584639464FF4807204F04AFC701900F5003A4FF480715A461A
:20082C00504605F013FB5FEA000913D050464FF480715A4607F011F8B8789BF802104FF060
:20084C000009884206D1F8789BF80310884208BF4FF0010905F5807507F58077280BD3D03A
:20086C0006F58056700C08BFB9F1010FBFD007F0CBFB06F0D7F807F07FF909F0E5FE09F049
:20088C00D7F906F009F809F005FE06F09BF804F1200009F0D1FE04F1400009F029FF60610C
:2008AC0004F1180008F09EFB002008F08FFFE068374909F097FF00254FF00509AA46082007
:2008CC000A21ADF808004FF0FF36ADF80A10D8F80070039602A839468847002840F0148143
:2008EC000821ADF834100927CDF840A0D8F80000ADF8367001460DA888470F9E00281096A4
:20090C0040F0F680BDF8380010280CD16088BDF83A10884207D130460178B02903D1017984
:20092C00083009F063FB1098002800F0E1800820ADF810000321ADF81210D8F80070059658
:20094C0004A839468847D3E020050020206909F081FA071C00F0CC803E78761E36D0761E59
:20096C0040F0BB807878B978401E29D0401E23D0801E1DD0401E17D0401E11D0401E09D0F1
:20098C00801E40F0AA80084606F03EFFA5E0C04645A20000084603F0BFFE9EE08817002025
:2009AC00084604F093FA98E0084604F0AFFC94E0084603F051FE90E0084604F0F1FC8CE0E8
:2009CC00084604F037FD88E0B5A400007E78701E56D0401E20D0801E012841D9801E02D08B
:2009EC00801E28D078E07C4809F036FE10B97A4809F0E0FFE0680A212A4608F0E5F8E068A9
:200A0C000F212A4608F0E0F8E06815212A4608F0DBF805F069FB5FE06F4809F01DFE10B975
:200A2C006D4809F0C7FF189A40F207300E21557301F094F950E007F09BFE08F0FDF807F002
:200A4C0001FE08F031FF08F013F906F08FFDE0680A21012208F0B8F83EE0C04620AC0000AF
:200A6C0007F086FE08F0E8F807F0ECFD08F01CFF08F0FEF806F07AFD2EE0C0461CB20000E7
:200A8C000F20494607F09EF84FF441700DF14E0102F008F89DF84F308DF857308DF85A507D
:200AAC008DF859509DF853108DF85D109DF850208DF858209DF852309DF84E008DF85C3005
:200ACC009DF851308DF8560008210DF1560228468DF85B3002F04CFA26700820ADF8180069
:200AEC00ADF81A90D8F800600797314606A8884720690AF02DF800283FF428AF03F080FF8D
:200B0C0009F0A8F802F0C0FAA1882078CA082BD321F004010628A18018BF022803D12E4843
:200B2C0009F048FF2078062805D1284629462A4608F01AFD2078022816D12E4612E0E0681A
:200B4C000F21012208F040F8199F384609F0FCFFE0680F212A4608F037F8384609F0F4FF63
:200B6C00761CF6B2002EEAD0606909F0F1FF00287FF4A5AE606909F0E3FF0646307A0128E4
:200B8C0006D0022808D17089F16801F0E9FE03E07089F16802F0DAFE0820ADF82000ADF8B5
:200BAC002290D8F800700996394608A88847DBE70F21012208F008F8199E304609F0C4FFA4
:200BCC00E0680F21002207F0FFFF304609F0BCFF6D1CEDB2F2E5C046B40500202DE9F04F1D
:200BEC00064640F29421012541F22D00ADF10C0DC4F22231C4F2090040F81D5C0868002868
:200C0C00FCD043F6AC7E46F2440AC020C5F2000EC4F20C0AF4464AF8440CDEF80890DCF894
:200C2C00041046F25620C4F20800890807D271460A686FF00F0E4EEA1241017001E07221A9
:200C4C00017041F28C38C5F2000858F8D41CC1F304611629A8BF20396246926812175118D5
:200C6C00491C11F10A0FB8BF6FF0090100232C4625EAD96201F01F01C4F2203341F4F85191
:200C8C00018324EA996E1A60002EC3F808E073D058F83C1CC1F38360C1F38F275FEA994155
:200CAC0067D249F3072CBCF1000F29D549F307214A42B1F1FF3F4FEA620215DA7F0805D10D
:200CCC00400806BF281C2F1C4FF6FF777F080CF1010C05D1400806BF281C2F1C4FF6FF77F3
:200CEC00521E0CF1010CE9D1490809D37F0805D1400806BF281C2F1C4FF6FF770CF1010CC9
:200D0C00BCF1000F35DDBCF1020F4FEA6C020CF001031DDB4FF6FF717F0047F00107B9422E
:200D2C0007D2400040F001000F2892BF2F1C0F200F1C7F0047F00107B94207D2400040F02E
:200D4C0001000F2892BF2F1C0F200F1C521EE3D1002B0EDD7F004FF6FF7147F00107B942B1
:200D6C0007D2400040F001000F2892BF2F1C0F200F1C47EA004703E040F6FF77C0F20F0721
:200D8C0009F024FD39460022002808BF2A1C48F20007C4F20C0738680028FCD04AF2080075
:200DAC00C4F20C0001613D600AB109F015FD002E08BFD82109D058F83C1C58F83C0CC1F3E5
:200DCC00870100F0030041EA002188B2009040F2FF3200232C214AF20000C4F20C0006F0AF
:200DEC00F2FA002E1ABF58F8100CC0F30D0B40F2FF3B09F0EBFC0021002808BF291C38687C
:200E0C000028FCD04AF20800C4F20C00C0F814B03D6009B109F0E0FC002E04BF4FF0000BE9
:200E2C00C6F6880B0DD058F818BC0BF07C420BF47C010BF47C4011430BF0FC0B08434BEA90
:200E4C00000B09F0C3FC0021002808BF291C38680028FCD04AF20800C4F20C00C0F80CB060
:200E6C003D6009B109F0B8FC002E04BF47F28A6BC0F2680B0DD058F81CBC0BF47C020BF49D
:200E8C007C410BF4707011430BF03F0B08434BEA000B09F09BFC0021002808BF291C386801
:200EAC000028FCD04AF20800C4F20C00C0F808B03D6009B109F090FC002E3AD058F8140C38
:200ECC0043F6AC71C5F200014B68C0F303525B08C0F3034117D243F6AC73C5F200031B6865
:200EEC0043F3032C12EB0C0203D4102A02DB0F2200E0002243F30333C91803D4102902DB1B
:200F0C000F2100E0002141EA021100F47F4200F0F00E0B0400F00F0B222E42EA03024EEAE1
:200F2C0002014BEA010B08D300F0804040EA0B0B03E043F6277BC0F2710B09F047FC00214D
:200F4C00002808BF291C38680028FCD04AF20800C4F20C00C0F804B03D6009B109F03CFCC3
:200F6C00222E26BFD8F80000C0F30070281C4AF2400BC4F20C0B222E4FEA400040F020008C
:200F8C008BF8090126BFD8F80000C0F34070281C202E40F010008BF809013CBF0020019095
:200FAC000CD3D8F80C00C20C02F44072800D00F01C0100F0030011430843019009F006FC3C
:200FCC00019A0021002808BF291C38680028FCD04AF20800C4F20C0002623D6009B109F0C7
:200FEC00FBFB202E26BFD8F80C00C0F301500020222E4FEA400040F060008BF80C0126BFEE
:20100C00D8F80000C0F3C06100216FF07F00222E40EAC1008BF8010126BFD8F80000C0F3F9
:20102C00455100214FF60040202ECFF6FF7040EA8100ABF89C0105D248F20000C4F23F00F5
:20104C0001900BE0D8F80C000003820D00F47C11920500F4704011430843019009F0B6FB04
:20106C00019A0021002808BF291C38680028FCD04AF20800C4F20C0002603D6009B109F028
:20108C00ABFB44204FF0880E8BF8C500002E8BF8C7E01ABFD8F80000C0F3C141002140F610
:2010AC008406C9F3815041F03001C4F28C3600288BF8C81041D0401E07D0401E37D00420E1
:2010CC00022106F078FB00214BE0284608F078FD04460420214606F06EFB042008F070FD94
:2010EC008442FAD143F6AC70C5F2000050F8040C0104090C4AF8081CC0F3074E4AF804EC35
:20110C00CAF8005031680029FCD0002240F2B411CAF80020C1F2000109680B68000E4FF043
:20112C006022072198474FF48060CBF800000420032106F040FB002113E00420294606F01E
:20114C003AFB43F2BD704AF8080C4FF086094AF8049CCAF8005030680028FCD00021CAF865
:20116C00001058F8200C4BF2700342F22C0E41F22D0C47F6180240F29449C4F20C0300F032
:20118C003F00C4F2090E8BF8CB0FC4F2090C1A80DEF800004AF8441CC4F260294CF81D1C41
:2011AC0003B0C9F80050BDE8F08F70472DE9F04FDFF818B301200827ADF1540DADF81A007F
:2011CC00DBF80000ADF81870014606A88847C74CBDF81C002082002666700898A0624FF6D6
:2011EC00FF70E08207F03CFBBE4D2070BE484FF00109B04632463346CDF800802946CDF89A
:20120C00049006F005F8CDF8008002200190C74832463346294605F0FBFFCDF8008004207C
:20122C000190C34832463346294605F0F1FF0420A070C0481022314604F06EFCBE48102246
:20124C00314604F069FCBB4A04F12C0ACAF8006004F10A052E7007206072E67110212672A5
:20126C00022007F0C9FDB44A0320102107F0C4FD04205246014607F0BFFD4FF0030905F182
:20128C003A00109005F17F00119005F12E00129005F160001390343514950AE06078062891
:2012AC0018BF072805D1208AE18A1322C0B207F06FF90A21ADF80A104FF0FF35ADF80870B1
:2012CC00DBF800000395014602A88847002840F06F813046DBF800500C900923ADF82470F5
:2012EC002946ADF8263009A88847DDF82CA00028CDF830A040F05C81BDF82810208A1029BD
:20130C0040F04981BDF82A10884240F0448155462A884FF6FF71914200F035812B78A23B1E
:20132C0000F01A812E3B40F03681A978B046002900F0DE80891E00F0AC80491E012940F2B2
:20134C008180891E50D0491E23D0491E03D0083900F0F480F6E0764809F02EFB0C98457869
:20136C00002D40F0EF80C1882184018961844089A0846E4809F070F9002840F0E380656BA8
:20138C00002D00F0DF802B68208C618CA28C984701E1A88808F004FA10984146062204F039
:2013AC00BBFB26846684A684A87960735F4809F003FB5F4809F000FB4FF001084FF6FF7084
:2013CC002379E0826BB9A879082814BF042005206070608A40F001006082A06A09F0ACFBFB
:2013EC00B0E084F80190ADE06B78E27A23BB291D0B681098036089888180062363706889D7
:20140C00E082E8892084288A6084688AA084E878012A207308D11F2007F09CF84FF47A71AE
:20142C004143424807F040FCE8786A892D1D0423294606F03BFA88E06878312873D1E670C6
:20144C00042024E06B78002B6DD1A878A18A6278032811D0E078257921B9012814BF267178
:20146C00E67005E0054303D01F4807F01DFC6278072AE5D106200AE0062A07D0E578002D31
:20148C0008BF84F8019060D0022000E0072060705BE06B78002B46D1EB78A279C3B9607811
:2014AC0002281BD0072819D0062802D12079012814D10D4809F0D0F880B9608A40F00100E1
:2014CC006082A06A09F038FB08E0C04688170020119BC0B2414606F059FC68706D7815BBBE
:2014EC0030E0C0465DA200008C0A0020E40900206B78C3B90F4A0220102107F099FC0E4A19
:20150C004846102107F094FCED1C29681298AB8801600125838029466279139B207C65700F
:20152C0006F034FC88B167700FE0C046B00A0020D40A00202E0A00203E0A0020A888052186
:20154C0009F012F9B8F1010F25D1256B1DB3296809B3607888471EE0687913281BD12889C1
:20156C00012808D1A07B022805D13C4809F024FA08F000FC0FE0052006F0ECFF01463748F8
:20158C0007F092FB07E06888C00B04D3324A0420014607F04DFC0C9DDBF8000045B1ADF804
:2015AC001070ADF812900146CDF814A004A88847608A2579E17842082DD320F0010055EAA2
:2015CC000103608227D0234802886DB9E179207A8DF83410149D8DF835002B680DF1360018
:2015EC000360A988818001E08DF83490607A8DF83C00A17A8DF83D10D0B20DA909F0AEF8C1
:20160C0040B1256B67702DB12B681BB12868014638468847608A810806D320F002006082C5
:20162C00304604F097FD608AC108FFF442AE20F00400A57B60826D1E03D06D1E3FF42EAEFC
:20164C0037E601200090618BA28BE38B208B05F05BFD2EE6F4090020100A0020D40A0020C8
:20166C002DE9F84FCF4ED04C06F12D07CB4DDFF83083D7F8EF1F6368D7F8F30F8843C7F8F8
:20168C00F30F002BC7F8FF1F00F090816688012B00F04A81DFF86CA3DFF86CB3DFF86C93AC
:2016AC00022B74D0032B40F0DA810026A06857F8312C66600028A2F5C062B8BF4042114623
:2016CC000029B8BF494288422EDA002A54BF02206FF00100A16900EB4200032290FBF2F079
:2016EC000918A161E368606998420BD0B1F1100248BF52422069103848BF40428242B8BF0E
:20170C0088B209DB98B20090D64830214FF47F42082305F058FE208A0090D24804214FF420
:20172C00F802122305F04FFE2846066001688908FCD206605546012746600E202F6002F012
:20174C0091FDC9480468EFF3118584F3118859460820B0FA80F00A1AD07F431E0128D377C2
:20176C0004D14A46106820F00800106085F31188EFF3118384F311880420B0FA80F0091A00
:20178C00C87F421E0128CA7740F0CA80C3E057F8316CB6F5C06F00F08B804FF00309C4F847
:2017AC00049009F013F8B346002600B90126554633462D1F2E68002EFCD0AC4A0126D2F8AF
:2017CC002CA02E600BB109F007F8CAF30720E06008F0FCFF002300B933461A462B68002B65
:2017EC00FCD0A248D0F800A02E600AB108F0F4FFCAF38441ABF5C0602161BBF5C06FA060E8
:20180C00B4BF6FF001030223E26803EB400393FBF9F00918104602290FDB1E290BDB3F28AF
:20182C00B9BF521C401C3F22101C62613029B4BF10391F210DE060610BE010F13F0FACBF62
:20184C00401E6FF03F00606111F1100FACBF10310021A16180B2009082484FF47F42082314
:20186C00302105F0B0FD7F48009604214FF40032112305F0A8FD208B00907A4804214FF43F
:20188C00F802122305F09FFD002547F8399C4446256020688008FCD2724829466022052383
:2018AC00009105F090FD266020688008FCD367E0002161602846016002689208FCD2016079
:2018CC005546012741600E202F6002F0CBFC66480468EFF3118584F3118859460820B0FA0F
:2018EC0080F00A1AD07F431E0128D37704D14A46106820F00800106085F31188EFF3118339
:20190C0084F311880420B0FA80F0091AC87F421E0128CA7704D14A46106820F004001060D8
:20192C0083F31188BDE8F88F57F8312C02214BF2F52061605043000A36B94D49096821F0DA
:20194C007F410918480801E0002161800835010C2860012669600323AE60444647F8393C33
:20196C000025256020688008FCD23E48294660220523009105F027FD266020688008FCD325
:20198C0047F8216C47F8395C0820C7F8FF0FC7F8F30F47F8396CBDE8F88FC04634600C40EF
:2019AC0038600C400C400C40C0210020314800680068014620208847B24641F61D564FF01E
:2019CC0002090F2000214FF4C072CAF800000723CAF804602348CDF8009005F0F4FC4646E8
:2019EC0028460125056056F8040C8008FBD32088CAF8105001280BD00020294605F060FC80
:201A0C004D462BE004800C400C230020381D002040464FF000080C30C0F80080032347F8E2
:201A2C00393CC6F8008030688008FCD20D48CDF8009041466022052305F0C5FC356030683B
:201A4C008008FCD3202047F8210C47F8398C0826C7F8FF6FC7F8F36F47F8395C6560BDE8B9
:201A6C00F88FC04600A00C4018B2000004A00C4010200940A00100102DE9F04F8146B9F137
:201A8C00010FADF1140D40F04981A6480068EFF3118280F31188AE4D2879012818BF0120DD
:201AAC0002D102210020297182F31188012800F0338109F03DF80290A6480668A81909F0B9
:201ACC0047F800242746009406EB05080197A8B9404609F029F80646B068400808D3F06820
:201AEC003169024601209047C0B2012800F00D81304609F015F80646B045EDD1002F40F00D
:201B0C00088109F009F80390049787480760012008F056F8012804D1384606F05DFC01207F
:201B2C000090824F3868806801462046884780480068B9F1010F40F08A80874E0A36F3798F
:201B4C0003B10124B3790BB144F0020473790BB144F00404DFF8DCB173782BB1B86A006BE2
:201B6C0059460246C88D904733782BB1B86A006B59460246488D90476F4901200860B86A3C
:201B8C008069014644F0200088476C4A2968DFF8B4A1106840F001001060480812D2684876
:201BAC0008F09FFD8146B9F1040FF8D05146086820F003000860B86C4068024660480321D7
:201BCC00904701E001200190049800F013FBB86A5749806B09688047019850B9B86C4068A2
:201BEC0002465748494690475146086840F003000860386880680146012088475249086820
:201C0C008009FCD30098012802D1012006F0E4FBB86A4069014620468847B86A406B01467B
:201C2C00204688470128F8D174782CB1B86AC06A59460246C88D9047307828B1B86AC06A7C
:201C4C0059460246488D90473B49012008603B49032208682A7120F001000860404608F02D
:201C6C0077FF049900B101214FF00109081C19D1404608F059FF44460646B068C00807D3B5
:201C8C00F0683169024604209047C0B2012806D0304608F045FF0646B442EED102E02B488A
:201CAC00006880472048224FC0F80090386808F093FD404608F04CFF049FD0B9404608F02D
:201CCC0033FF46460446A068000907D3E0682169024608209047C0B2012806D0204608F01D
:201CEC001FFF0446A642EED103E0184800688047022748462871039808F00AFF04F030FE49
:201D0C00029808F001FF384609E0104800688047022701202871F3E7062000E0022005B09D
:201D2C00BDE8F08F18B200000C400940900100102C2009407CAC0000282008600C20084092
:201D4C000040034024220840141009400CB20000381D002008B20000502200202DE9F04133
:201D6C0003460E46A348A549A3F20135002714461A2D1CD8DFE815F031012D0127011B00EB
:201D8C000001FA00E200D000C900C200B900B100A8001B001B009F009100830079006B0020
:201DAC001B001B001B001B0051001B002600272B06DA022E04D12188184607F02DF9D3E00B
:201DCC00022713E1012E40F00A81C178012900F0F88005792678067185B9002E00F00681AF
:201DEC004178012900F0DA80042900F0D780062900F0D480052940F0F980CFE02678002E71
:201E0C0040F0F4804178032900F0D780072900F0D480052940F0EA80CFE0012E40F0DF803D
:201E2C002178012940F0DB80054605F1F00008F013FC50B9384604F08DF9071C40F0D68066
:201E4C002846CC3008F0B8FDD0E01627CEE0022E40F0C58022880A2AC0F2C180B2F5486FF0
:201E6C0000F3BD801E31104615E0022E40F0B7802088B0F5FA7F80F2B2801C310BE0022E23
:201E8C0040F0AD8020880628C0F2A980B0F5486F00F3A5801A310880A8E0022E40F09F80DA
:201EAC002288062AC0F29B80B2F5486F00F3978001F118005EE0012E40F09180207802288D
:201ECC0080F28D800B310EE0012E40F088802078042880F284800A3105E0012E7FD1207875
:201EEC0008287CDA0931087080E0062E77D122683E3108460260A688868077E0012E6ED120
:201F0C00207804286BDA0831EDE7012E67D12078042864DCC91DE6E7202E60DA054605F1B8
:201F2C00890839461F22404603F0F6FD21463246404603F0B9F83946AE7110E0202E4EDACB
:201F4C00054605F16A0839461F22404603F0E4FD21463246404603F0A7F801216E71287C0C
:201F6C003246434605F012FF07463FE0022E36D122881430014676E7012E30D10179012945
:201F8C001FD0C5782678C67085B9002E2ED04178012903D0042918BF052927D1418A41F0EF
:201FAC0001014182806A08F0C7FD1FE02678EEB94178022918BF052918D1007C08F0ECFA3A
:201FCC0014E0122712E0042E09D121682C3001600CE0102E03D15A3004E0102E01D01827CA
:201FEC0004E005482146102203F05EF83846BDE8F081C046E40900202E0A0020E4090020B6
:20200C002DE9F0411C4615468C4208BF854282BF00230022E5E0002C08BF002D0AD10029E5
:20202C000EBF00286FF000006FF0000100F0E1F8BDE8F0815FF000085FF0000E002C08BF5A
:20204C008D429CBF2C1C0025070C47EA01470E0CB44208BFBD429EBF5FEA044444EA154406
:20206C005FEA0545070A47EA01670E0AB44208BFBD429EBF5FEA042444EA15645FEA05255B
:20208C00470847EAC1774E08B44208BFBD4200F29380870847EA81778E08B44208BFBD425B
:2020AC007CD8C70847EA4177CE08B44208BFBD4266D8070947EA01770E09B44208BFBD42AC
:2020CC0050D8470947EAC1674E09B44208BFBD423AD8870947EA81678E09B44208BFBD4202
:2020EC0024D8C70947EA4167CE09B44208BFBD420DD8E60146EA5566EF01B14208BFB84241
:20210C0001D3C01BB14158EB08085EEB0E0EA60146EA95664FEA8517B14208BFB84201D32B
:20212C00C01BB14158EB08084EEB0E0E660146EAD5666F01B14208BFB84201D3C01BB14187
:20214C0058EB08084EEB0E0E260146EA15762F01B14208BFB84201D3C01BB14158EB080811
:20216C005EEB0E0EE60046EA5576EF00B14208BFB84201D3C01BB14158EB08084EEB0E0E21
:20218C00A60046EA9576AF00B14208BFB84201D3C01BB14158EB08084EEB0E0E660046EA10
:2021AC00D5766F00B14208BFB84201D3C01BB14158EB08085EEB0E0EA14208BFA84201D3E4
:2021CC00401BA14158EB08085EEB0E0EA34208BFAA423EBF2D0A45EA0465240A89D3734657
:2021EC0042461E4617460B46024631463846BDE8F0817047F8B504460020C4F209000068F1
:20220C00800880F0BB8007F0B5FA42F22421C4F208010A68002112F0030F18BF0121D20827
:20222C0028BF41F00201002C18BF41F0040143F64836C2F2000696F90720821A052A04DA6E
:20224C00B2798A4208BFB2886FD041F29C340F28A0F10F02C5F2000424DB02EB021217127B
:20226C00072F88BF07273D46062D88BF062554F825C00423A64603EB85035EF80330CD0867
:20228C00A3EB0C0303F0FF0C24BFC3F30725AC448D0824BFC3F30745AC444D0805D30CEB54
:2022AC00136C02E04FF0000C674654F82730CC0803F0FF0524BFC3F3072425448C0824BFA7
:2022CC00C3F3074425444C0828BF05EB1365A2EB07221FFA8CF3534380330022082B88BFB2
:2022EC00012243F6B473C5F200031C681B684FF4D07C34275219241703F0FF0307FB14C42F
:20230C005C434FF6FF73B4FBF2F2934238BF1A1C802892B2B28005DA10F1800F03DA6FF0FD
:20232C007F0000E07F20F071B17142F20800C4F2090001681F2A4FF00000316008D340F286
:20234C00FF11914206D25208401C9142FBD301E01F22B2800F3A4FF600714FF0350E12096F
:20236C00C8F2A401C4F2090E40EAC2000143CEF8FB1F4FF0000CCEF8FFCFF8BD43F64E32C8
:20238C004FF6FD50082141F2300EC2F20002C0F2A4001170C4F2090ECEF80000F8BD704779
:2023AC002DE9F04FADF15C0D169006F001FE4FF00009012805D107F0AFFE022808BF4FF0FF
:2023CC00010956490868C0F38150012806D151F80C1C0120090E884040EA09095049514875
:2023EC00514D09780068C0F34600286006F0E0FD2C46012818BF206802D12068401C2060C5
:20240C0038B1FF2204F1400107467F1E01F8012BFBD116990968002601F0FF02FF2A1CD048
:20242C00DDF858E08C46324601270CF0FF01884204D907FA01F319EA030F01D002206AE027
:20244C000CF0FF015EF804CF61181E4381F84020521C0CF0FF01FF29E9D1092001F052FBE5
:20246C00169800212422082360600DA808F048FB4FF0010804F124000DAA8DF84C80414670
:20248C0008F03AFB236843B300274FF0040B6035BA4608FA07F019EA000F18D1064204BF79
:2024AC0007F0FF0141F4C04105D03819169B90F8401053F821101D4802F0EAF9F8B24FF095
:2024CC00FF3107F0CBFD2368C5F800A001E0C5F800B07F1C2D1D9F42DBD301A8002130223B
:2024EC00082308F005FB002504F10800102101AB0F4A009508F0F8FA0E4A52F80D0C414694
:20250C0020F4F85040F4005042F80D0C0A4BC2F8FF1F2846196017B0BDE8F08FB43F00503A
:20252C00563B00208012084048380020007FC767297E00000D300940080009402DE9F84FDC
:20254C000D4680462868D8F80440D8F808B0002800F0A58008F0C4FA616D21B108F0BCFAE9
:20256C00032028749BE001212974656508F0B4FA94F8700030B194F859204A49A06E11430F
:20258C0006F034FEDBF80010486840F002004860D8F804E0D8F808302F689EF858201968B8
:2025AC00B8B29040B1F1804F1FFA80F914BF3E4E3E4E3F48A96849B99EF858104FEA810C89
:2025CC000CEB00018A690EF1720108E09EF858204FEA820C0CEB000212694944491EB2605B
:2025EC007160196808313160B2683F0143F6F07A103F0AEA07073A43B2601A68B2F1804FE2
:20260C0014BF2C4A2C4A6E681EB9604480699E1D03E0604480684E44761E9060166051604E
:20262C00906807439760DEF86C00DE6841689A68096846EA020088621968486A40F003002F
:20264C004862DBF80010486940F0010048616E6808F046FA194D0746287801280AD016F0EC
:20266C00704F02D1102006F0FFFB042006F0FCFB01202870384608F02FFA207828B96168F1
:20268C003834204608F024FA10B10120BDE8F88F404600F005FE2046002108F019FA00200D
:2026AC00BDE8F88F00000680000500203004002010AD00001005002040040020553B0020DD
:2026CC00B0B5456884684D48297BADF1180D01291AD001462F7E227C637C494837F00107AF
:2026EC0041EA020240EA030001904648009218BF011CA27C1143029195F859200323FF2A73
:20270C0013D0014610460DE0A17C627C237C41F00041024343F00043029195F8590000936D
:20272C0039490192014304230391FF2105F15C004DF82310694602F0C7FEA866002808BF2C
:20274C00002058D0287B314951F82000012828D02068B0F1804F14BF22220A22217CA86E90
:20276C0007F0CAF92068B0F1804F14BF21220922617CA86E07F0C0F92068B0F1804F14BFEC
:20278C0024220C22A17CA86E07F0B6F995F85910FF292FD02068B0F1804F14BF23220B2286
:2027AC0025E02068B0F1804F14BF21220922217CA86E07F0A1F92068B0F1804F14BF22227C
:2027CC000A22617CA86E07F097F92068B0F1804F14BF24220C22A17CA86E07F08DF92068D0
:2027EC00B0F1804F14BF23220B2295F85910A86E07F082F9012006B0B0BDC046000480A02C
:20280C00004000800004C0A00020008010AD00002DE9FE4F82460E460CAF307A3C889946A4
:20282C001546800928BF082080F09580084602A907F0BEF8012808BF012000F08C80BDF8AC
:20284C000800DFF818B142F6021100274FF0FF08401A69D048F2FF21401A32D0401E17D07E
:20286C00401E5FD1002C5BD1B9F1020F56D12878062824DAF06829880180F0685A46824272
:20288C005CD11078517804F039F84FF0020858E0002C45D1B9F1060F40DA287810280EDC2B
:2028AC00F06829464A4602F0FFFB04F0A3FBF0685A460C32824241D14FF0010841E080271B
:2028CC003CE06CBBB9F1100F28DCF06829464A4602F0EAFB5C465A460C32207816780128DF
:2028EC0002D9401F12D029E06178557803F04EF91EB9284607F0B8FE05E004F1110128467B
:20290C00324607F029F807F073FF17E0D2F8010004F11101324602F0C7FB0FE00D270DE0AD
:20292C000B270BE00A2709E0009401212A4650464B460191314604F01BFD0746B8F1FF0FEE
:20294C0008D05A46121D106820B1006810B10146404688473846BDE8FE8FC04618190020AF
:20296C002DE9F04F04460D464D4E68782978ADF1140D01EB0021ADF804107188BDF8040006
:20298C00884217D1706940F6FF7200EB0110024203D1000BC0B207F08BFFBDF80410B079F5
:2029AC00AA1C1023090107F08DFF7088401C81B2718007E007F03CFD20464FF6FF7103F0E8
:2029CC00D5FE7188B088884263D1684607F024FEBDF800004FF6FF71814257D0BDF8000019
:2029EC00002853D0BDF80200814203D0BDF80200002843D1B288F0880027110101F47043AD
:202A0C00C5B203975FFA92F2C91A12181FFA81FB5FFA82FAAA4528DBAAEB050101F10108BD
:202A2C00A8420CBF04240024AA45D8BFA34516DD284621460DF10602042307F03EFF0427C7
:202A4C000DF1060919F8011B039806F065FE7F1E0390F7D1241DA4B2B4F5805FE4DBF088EE
:202A6C006D1CB8F10108EDB2DAD10398002106F053FE002106F050FEADF80200BDF80200FF
:202A8C00BDF80010884201D101F084FD07F0D0FC02E0204603F06AFE05B0BDE8F08FC04612
:202AAC00701800204D4B2DE9F04F0C46343B998BADF13C0D86460991587B0E90598B089155
:202ACC0058780D90198B0791988C0C90D97A588C0691D3F82CA00B90997A188C059193F8A9
:202AEC0004900A90597A93F80C800491197AD88B0391D9795A7902919979DE8A0191D9787E
:202B0C009F8A00919978AEF5407C0025BCF11D0F10D8DFE80CF05D5653504E4C4A474340D2
:202B2C003E3C3937350F3432302E2D272422200F1D1B1A18BEF1270FA8BF022549DA704618
:202B4C0005F008FD14E0DDF83880C146CDF834900D98059016E00C980B900B980A900A9810
:202B6C00074622E04433186820609888A08030E00990099808900898079007980690069E51
:202B8C00268026E0059804900498039001E03E33E9E7039802900298009008E0019A03F12D
:202BAC00890111E003F16A010EE03846E0E700990EE03833D7E7C4F800A00AE003F15A01B7
:202BCC0001E003F14A011022204602F06DFA00E0217028460FB0BDE8F08FC046180A0020CE
:202BEC002DE9F04F04466568D4F808A00F46ADF1540D07F075FF95F89810012903D107F000
:202C0C006BFF002079E04FF0010B85F898B007F063FF1FB90DA807F0D7FC0DAFF86820B910
:202C2C00A068067B90F80D9002E0067890F80190FF2EE6D0B9F1FF0FE3D0FF223049DFF8A2
:202C4C00C480139241EA0600119041EA0901129108F1040011A902F037FC0028C8F8000011
:202C6C00CFD031460D2206F047FF4046006849460E2206F041FF3878287078686860387A42
:202C8C00002130220823E86001A807F031FF0694002600961C4ADAF8041005F1100001AB1E
:202CAC0007F022FF01A824220823314607F028FF05F12C008DF81CB0594601AA07F01CFF72
:202CCC00287838B905F14800314601AA07F014FF0E486860AE672E72EE679AF8080000F03B
:202CEC0011FF204604F05AFE05F18400084A00960421234606F0AEFA204615B0BDE8F08F29
:202D0C0000200084283B00207D380000F9A80000A5A6000047482DE9F04F0821ADF1340DF3
:202D2C000068ADF8001001460120ADF8020068468847444CBDF8040060800298A06003F028
:202D4C0031FF04F10C0007F0DBF94FF47A764FF00008062207A8A680414684F8008002F07F
:202D6C00DBFE062107AA404603F052F9012209A8414602F0D1FE012009AA014603F048F967
:202D8C0005F0C8FD0BA86421012202F0C5FE022001210BAA03F03CF904F110004FF0FF31C8
:202DAC0001F0EEFF2448254D254B0768B5FBF7F9B3FBF7FA38E0012006F0C6FE484607F0B5
:202DCC00C3FE05A805F072F88346404606F0BCFEBBF1000F1CD005A803A904AA00F058FC29
:202DEC009DF80D308DF815309DF80C208DF814209DF80E008DF816009DF812108DF819100E
:202E0C009DF811308DF818309DF810208DF817204046062105AA03F0FBF8A0887043401B0A
:202E2C00B0FBF7F007F090FE20780128C3D05046F8E7C046881700201CB20000803801005A
:202E4C0040420F00700D00202DE9F04304466568A6680F46ADF1540D07F042FE95F8A410FE
:202E6C00012903D107F038FE002076E04FF0010985F8A49007F030FE1FB90DA807F000FB07
:202E8C000DAF4FF00008C5F854803869286178696861387E2876387B2873387828707868F4
:202EAC0085F87080686078694146092828BF494685F85810707900F025FE204604F07CF912
:202ECC00F07C85F859002046FFF7FAFB50B9707901F0C8F907F004FE85F8A48007F0FCFD25
:202EEC00444639E001A841463022082307F000FE0694CDF800801A4A317905F11C0001ABD6
:202F0C0007F0F2FD287878B901A841462422082307F0F6FD05F138008DF81C90414601AAD2
:202F2C0007F0EAFD0F4800E0B868A86003F082FA297BE866012906D1A86E0B4907F052FC37
:202F4C00A86E00B1846005F19000084ACDF800800421234606F07EF9204615B0BDE8F0835F
:202F6C00AD33000001A900000D8C000045A800002DE9F0470C469046DFF8F890414D3F4F45
:202F8C003D493F4AD9F8003008284FF00006ADF1180D6AD8DFE800F0605C4D4944403A11C3
:202FAC0005C0072C5AD14046828805F108018A8087798F710068086058E003940420ADF8E1
:202FCC000A004FF0080AADF808A002A89847D8B904980746C0B1686805F1170181420BD04D
:202FEC0005214846ADF802106A68ADF800A00068019201466846884738464146224602F025
:20300C0053F86F602C7031E013262FE0142C25DC01F11505294601E0142C1FDC0D460CE07E
:20302C00142C1BDC07F1150507E0142C16DC3D4603E0142C12DC15461535284631461522CD
:20304C0002F06AFD28464146224602F02DF80DE0142C03DC1546DDE7082C01D0182605E044
:20306C00404642686A394A60A4E70226304606B0BDE8F0878817002011160020E7150020AA
:20308C00BD150020981500202DE9F0413E4F3878002876D03D4C208910F07F0F00F07F083C
:2030AC006DD005F0CCFC3A4E21783578A0700DB902293AD12279C30917D2400824D304F1AC
:2030CC00140005F045FC04F11A0005F0E5F8E578E088002D08BF217816D00021E170217876
:2030EC004FF47A7292FBF0F009E0521CD0B20228207109D1E0884FF47A72B2FBF0F002B2E2
:20310C00500000EBC200E0600025022935700CD12089C00909D304F1200000F03DFA0528DD
:20312C0022D008B103F00AFF2178E66816B901291BD124E0022904F1140509D00220207048
:20314C000026267100F0B4FD10B1404600F046FD2089000A02D3E068401EE06000201221CA
:20316C002A4602F0FFFD0AE0E560002020710126267000F09DFD10B1607800F055FC0020C4
:20318C003870BDE8F081C046503B00200C1F0020513B00202DE9F0430746ADF11C0D07F069
:2031AC0093FC06F069F94FF000090546CDF80C9007F048FB30F0010002D00398A84202D1A3
:2031CC006FF0040068E078684C4658B1B0F1FF3F05D004A906F020F930B106465BE04FF0A6
:2031EC00FF3000E02046049007F06AFC0499012600EB010802E013463DE004936868049949
:20320C0007F066FC00282FD0684604F031F9E0B9BDF8040005A906F017F990B9BA68BDF830
:20322C001400BDF806101346029A984748B1BDF81400BDF80610B881029BF9814E463B61C2
:20324C0012E0029903A805F069FF0498641CB0F1FF3FD3D00028D1D007F032FCB8EB00039B
:20326C0002D004989842C8D2039F06F0DBFE05F1080147B13B4653F80C2C002ABBD10A68CC
:20328C0043F80C2C0F6007F053F824B1686807F053FC641EFAD1304607B0BDE8F0837047CA
:2032AC002DE9F04707467E68BD6807F019FC716D002968D007F010FC2968486820F00200BC
:2032CC0048602968486A20F003004862F06EEC684168AA68096844EA0200C1F804052968D9
:2032EC00486920F00100486128684FF00108C0F820802868B0F1804F14BF40F201104FF4CE
:20330C008070234909688847384603F055FF706DD0F804A007F0E4FB1E4C8146207850B157
:20332C001AF0704F02D1102005F030FB042005F02DFB00202070484607F0CEFB716D087CF4
:20334C00042802D003200874716DF06E4368AA68E8681B68444610438440DC622868B0F1E8
:20336C00804F14BF0C480D48826808689204A0EB9250401E0860B0680023024673653846FA
:20338C009047BDE8F08707F0A7FBBDE8F087C04678000010553B00200005002030040020C2
:2033AC002DE9F0470646B1680A68D06975681062400842D2E86E40680268CC68D2F804058A
:2033CC00204206D00B68586A20F002005862C2F80445D2F804258868024258D00A68506A2A
:2033EC0020F001005062E86E406889680068C0F80415686D002404746F6DD7F804A007F01F
:20340C006FFBDFF89080814698F8000050B11AF0704F02D1102005F0B9FA042005F0B6FABA
:20342C0040460470484607F057FBA8686C653946024630469047BDE8F0870A68506920F063
:20344C00010050616F6DFFB9506820F002005060506A20F003005062E86E8B684468CF68F5
:20346C002168B2F1804F47EA0300C1F804050CBF4FF4807040F20110074909688847304608
:20348C0003F09AFEBDE8F0873046FFF709FFBDE8F087C046553B00207800001039482DE914
:2034AC00F04F08214FF00109ADF11C0DADF800100068ADF80290014668468847354CBDF83A
:2034CC00040060800298A06003F052FC04F10C0006F05EFE4FF47A764FF0000B042204A87F
:2034EC00A680594684F800B002F016FB042104AA584602F037FF217805A84A4602F00CFB64
:20350C00484605AA014602F02DFF07F04AFA06A864214A4602F000FB0220494606AA02F0BF
:20352C0021FF04F110004FF0FF3101F029FC16491648174F0D68B0460646B0FBF5FA1AE067
:20354C00484604F029FF504607F0FEFA0DF10E0003A901F0FFFF584604F01EFF5846042117
:20356C0003AA02F0FFFEA08808FB00F0801BB0FBF5F007F0E9FA20780128E1D0B7FBF5F07A
:20358C00F7E7C046881700201CB200003832040040420F00E0120020FEB53C4C05460620F1
:2035AC00611C087006F0B2FF18B907F021F90020FEBD002601206821667002F0E7FA2220EB
:2035CC0002A901228DF80800372006F0C5F908B90520607007F00CF96078002818BF301CA4
:2035EC0053D101200C2102F0D1FA022002A9012206F0BFFE00283BD09DF80800400835D3CD
:20360C0003206946072206F0B4FE68B39DF80600000927D29DF801709DF800009DF80360B0
:20362C009DF802109DF805309DF8042040EA072041EA062142EA032200B2288009B2698062
:20364C0012B2AA80B4F90830584300122880B4F90A00414308126880B4F90C004243101299
:20366C00A88007E0032004E0042002E0022000E00120607011208DF8080002A901220A2079
:20368C0006F06AF907F0B4F86078FEBD70200020F8B5034694463948DC781A79068842EAED
:2036AC00042215015A7945EA2215B0F90420C6EB2514644324136243EC10A4EB4604B0F9D1
:2036CC0002501E786C43E41204EBA23202EB8204803425125C789B780D6044EA0621B0F9DE
:2036EC000A400D01511045EA2315A1F57A418A10524353136343B0F90840DB104C4303EBB9
:20370C0064034FF4004404EBA343C4885C43E713634630D0B0F90E60B0F910E0164CB0F991
:20372C000CC0D2127143490040F635460EFB021106FB1544891001EB0C41091306FB114168
:20374C00CA0F19BFB1FBF7F149004900B1FBF7F1B0F91420B0F91250B0F916408E08C808A5
:20376C0040437243400B6043001300EB6230401901EB20111960F8BD000050C3FC3A00207A
:20378C0037482DE9F04708210125ADF1200DADF800100068ADF80250014668468847334CE0
:2037AC00BDF8040060800298A06003F057FA04F10C0006F0BDFC4FF47A764FF00009042235
:2037CC0004A8A680494684F8009002F0A5F9042104AA484602F02AFD05A849462A4602F0C8
:2037EC009BF9284605AA014602F020FD06A864212A4602F091F90220294606AA02F016FD51
:20380C0005F042FF04F110004FF0FF3101F0B8FA1448154F0568B04643F698231E46B3FB26
:20382C00F5FA16E006F03AFA504607F08DF90DF10E0103A804F02AF94846042103AA02F039
:20384C00F5FCA08808FB00F0801BB0FBF5F007F07BF920780128E5D0B7FBF5F0F7E7C046C9
:20386C00881700201CB2000040420F0028100020F8B5064634480068B46875684068014601
:20388C002068884722680121C2F81C1868B12B7AFF2B0AD0FF214009297251D20420C2F864
:2038AC000408022007F056F84AE0287A002847D0401E13D0401E02D0FD3844D03DE0D2F8DD
:2038CC000828286F0270286F401C28676F6F7F1E6F6719D0012F88BF092127E0EF6E7F1E45
:2038EC00EF6613D16F6F7FB10220696E28722268097C012F4FEA410141F00101C2F8001823
:20390C0094BF03210B2113E004210DE0A86E22680078C2F80808A86E022F00F10100A866CA
:20392C0004D26F6F17B905210020287222680220C2F8041807F00EF8F8BDFF202872F8BD75
:20394C00304603F06BFDF8BDAC010010F0B50C460746ADF1140D07F02BF810B102A804F09C
:20396C0039FAE179A0792F4D002600EB01206E808010A880E079A17901EB00218A10201DEA
:20398C0002A906F043F9211D00283AD1A968384606F012FE400831D338461B21082233468F
:2039AC0006F022F9019048B305F1180009212A4606F00EFB08224189ADF80220019CADF8BA
:2039CC0000109DF808002070BDF808100198091241709DF80A108170BDF80A2003AD121219
:2039EC00C2702968031D324638461960694606F095FA18B168461B2106F0F8FA06F018FD8F
:203A0C000EE0084606F0AAFC6861000BE88006F00BFE204604F0C0FB3846314602F0A6FEE7
:203A2C0005B0F0BD70180020F8B5064606F06EFD00284FD00120682102F0A8F800284BD050
:203A4C002E4D09202C1D0122207021466B2005F083FF00283ED007202871214601226C2045
:203A6C0005F07AFF002835D001271D2021462F713A4605F071FF00282CD0402028712146CA
:203A8C003A46382005F068FF20B3C020287121463A46692005F060FFE0B12E711F20214600
:203AAC003A4605F059FFA8B10620287121463A461E2005F051FF68B12920287121463A46C9
:203ACC006B2005F049FF28B1E91C1C203A4605F043FF18B906F08CFE0020F8BD3A2021465A
:203AEC003A4606F046FC06F083FE002129706869034905F07BFB3846F8BDC0467020002060
:203B0C00070006802DE9F04105462E480068EFF3118880F311882C4A505D411C00285155C7
:203B2C0049D12A49AC000F5D07F03F003F280C4401D0FFF7E7FF607800F03F003F2801D0FB
:203B4C00FFF7E0FF668837F07F0019D1F80911D24FF08054D4F8B801406901463046884755
:203B6C0004F5DC742068406B0146304688470128F8D120E0164850F82610012088471AE079
:203B8C004FF08054D4F8B801C069014630468847D4F8B801406A014630468847D4F8B8018C
:203BAC00C06A01463046884701210A4A0A48116001688908FCD388F31188284605F0ECFFDF
:203BCC00BDE8F08118B20000502200207CAC00008C2200202820086028200840BCB5074673
:203BEC000C2006F039FC01285CD1304C207850BB4FB30C2006F030FC012822D101206821D7
:203C0C0001F0C4FFF8B10920211D207101226B2005F0A2FE251DA0B13F20287029460122E4
:203C2C006C2005F099FE0021217050B1E11C1C20012205F091FE20B13A202946012206F01A
:203C4C0098FB06F0D5FDF8B2277040B380F0FF0020716821012001F099FF28B3211D6C20F1
:203C6C00012205F079FE06F0C3FD247806F04EFCC4F38014B0B104F0E9F9A8B101200C21EE
:203C8C0001F084FF80B1012C14BF00201120694601228DF800000A2005F05EFE02E004F07A
:203CAC005BFBBCBD06F0A4FDBCBDC04670200020F8B5334D2F49686905F098FAFF20A8702F
:203CCC0000242C7068216C70012001F05FFF002808BF271C4CD02C4680200122211D2071F1
:203CEC006B2005F039FE06F083FD234923480D68B0FBF5F006F028FF03F04EF9261D071CF2
:203D0C0036D0022003F004FD06F000FC60B304F09DF958B301200C2101F038FF30B30F2059
:203D2C003070314601220A2005F016FE42F21070B0FBF5F006F008FF04F10E011020032270
:203D4C0006F017FB04F10E0540B1287880302081687880306081A8788030A08101220B20B5
:203D6C003146227105F0F8FD06F042FD04F0F4FA3846F8BD070000801CB20000A08601007D
:203D8C00702000202DE9FF4782460D460CAF287A3F8899461446800928BF082055D2084686
:203DAC0002A905F005FE012808BF01204DD0BDF80800DFF89C8042F60211FF26401A2ED0AE
:203DCC0048F26311401A012827D827BBB9F1010F1FD1BDF808104AF666200027884202D1C4
:203DEC002178032913DA2178EA681170BDF80810884205D0E968404688421AD13E461AE023
:203E0C00E9684046401C884213D1012613E080270FE00D270DE00B270BE00A2709E0009716
:203E2C000121224650464B460191294603F0A0FA0746FF2E08D04046001D006820B10068A1
:203E4C0010B101463046884738460090BDE8FF87A81D00202DE9FE4F82460D460CAF287A10
:203E6C003C8898469146800928BF082056D2084602A905F09DFD012808BF01204ED0BDF891
:203E8C000800DFF89CB042F602110026FF27401A2ED048F23F11401A34D0401E14D0801E34
:203EAC0024D10CBBB8F1010F1CD199F800000A2808DBE9680870E9685C46601C884221D1FA
:203ECC00022721E080261DE074B9B8F1010F09D199F80000E9680870E9685C468C4211D14C
:203EEC00012711E00D260DE00B260BE00A2609E0009401214A46504643460191294603F0EF
:203F0C0037FA0646FF2F08D05846001D006820B1006810B10146384688473046BDE8FE8FB9
:203F2C00F81A00202DE9FE4F82460D460CAF287A3C8898469146800928BF082056D20846E1
:203F4C0002A905F035FD012808BF01204ED0BDF80800DFF89CB042F602110026FF27401A83
:203F6C002ED048F21F11401A34D0401E14D0401E24D10CBBB8F1010F1CD199F800000A28AA
:203F8C0008DBE9680870E9685C46601C884221D1022721E080261DE074B9B8F1010F09D1B1
:203FAC0099F80000E9680870E9685C468C4211D1012711E00D260DE00B260BE00A2609E08A
:203FCC00009401214A46504643460191294603F0CFF90646FF2F08D05846001D006820B16E
:203FEC00006810B10146384688473046BDE8FE8F8C1B00202DE9FE4F82460D460CAF287AAE
:20400C003C8898469146800928BF082056D2084602A905F0CDFC012808BF01204ED0BDF8C0
:20402C000800DFF89CB042F602110026FF27401A2ED048F2FF01401A34D0401E14D0401E22
:20404C0024D10CBBB8F1010F1CD199F800001E2808DBE9680870E9685C46601C884221D144
:20406C00022721E080261DE074B9B8F1010F09D199F80000E9680870E9685C468C4211D1AA
:20408C00012711E00D260DE00B260BE00A2609E0009401214A46504643460191294603F04D
:2040AC0067F90646FF2F08D05846001D006820B1006810B10146384688473046BDE8FE8FE9
:2040CC001C1C00202DE9FE4F82460D460CAF287A3C8898469146800928BF082056D208461A
:2040EC0002A905F065FC012808BF01204ED0BDF80800DFF89CB042F602110026FF27401AB3
:20410C002ED048F27F11401A34D0401E13D0401E24D10CBBB8F1010F1CD199F800000A28A9
:20412C0007DBE9680870E9685C468C4222D1022722E080261EE07CB9B8F1020F0AD1E8682B
:20414C00494609880180E9685C46601C884211D1012711E00D260DE00B260BE00A2609E029
:20416C00009401214A46504643460191294603F0FFF80646FF2F08D05846001D006820B19D
:20418C00006810B10146384688473046BDE8FE8FBC1900202DE9FE4F82460D460CAF287ADE
:2041AC003C8898469146800928BF082056D2084602A905F0FDFB012808BF01204ED0BDF8F0
:2041CC000800DFF89CB042F602110026FF27401A2ED048F26F11401A34D0401E14D0401E01
:2041EC0024D10CBBB8F1010F1CD199F800000A2808DBE9680870E9685C46601C884221D1B7
:20420C00022721E080261DE074B9B8F1010F09D199F80000E9680870E9685C468C4211D108
:20422C00012711E00D260DE00B260BE00A2609E0009401214A46504643460191294603F0AB
:20424C0097F80646FF2F08D05846001D006820B1006810B10146384688473046BDE8FE8F18
:20426C00AC1C00202D492DE9F0410968EFF3118881F311882A4B195C4A1E01291A5449D190
:20428C00284980000D180E5C6F8836F07F0019D1F00911D24FF08054D4F8B8018069014668
:2042AC003846884704F5DC742068406B0146384688470228F8D120E01D4850F8271000209E
:2042CC0088471AE04FF08054D4F8B801006A014638468847D4F8B801806A01463846884770
:2042EC00D4F8B801006B01463846884701210E4A0E48116001688908FCD306F03F003F2888
:20430C0001D0FFF7AFFF687800F03F003F2801D0FFF7A8FF88F31188BDE8F08118B2000044
:20432C00502200207CAC000028200860282008408C2200202C482DE9FC47006800680146C5
:20434C00202088472D4DDFF8A4A04FF002080F2000214FF4C07207232D3D286041F61D50DF
:20436C0068605046CDF8008003F02DF8214824490124A0F10C06091F0C6056F8041C890845
:20438C00FBD3DFF86C90B9F800102C61012905D00020214602F094FF444621E00027164D02
:2043AC000760032345F8393C376030688008FCD2CDF80080504639466022052303F003F83B
:2043CC00346030688008FCD3202045F8210C45F8397C0826C5F8FF6FC5F8F36F45F8394C78
:2043EC00C9F80440BDE8FC87A001001000A00C40C021002044600C4039400C4039400C406C
:20440C0038600C4038B506F0E1F92A4C256805F00C000C2846D0E8081ED204F035FF014652
:20442C0025480068884217D22448254A254D036812682868B3FBF2F20019891A06F03CFBAB
:20444C002868001906F034FB0120FDF715FB2868001906F029FB27E0280923D21A4A680998
:20446C0004D21168104621F0010103E01046016841F001010160983210684FF0805440F0BD
:20448C0003001060D4F8B8018069014620208847D4F8B8010D4C806B21688047012020601F
:2044AC00206801E006F080FA06F096F902F05EF838BDC046381D002010B2000014B2000052
:2044CC001CB2000000B200008C2108402C2009402DE9F0470E4681467068D9F80450D9F890
:2044EC0008A0002410B9F06800284ED0287801280FD106F0F5FAA96F39B1E96F8E61EE6751
:20450C0006F0EAFA0120BDE8F087AE67EE6706F0E3FA06F0E5FA1E4F80463878012804D086
:20452C00042004F0A1FC01203870404606F0D4FA05F12C084FF0FF31404606F0C9FADAF8FD
:20454C00040006F0ADFA4846314601F0A3FEDAF8040006F0A1FA287898B905F148004FF042
:20456C00FF3106F0B5FA06F0BBFA0646387818B1042004F00BFA3C70304606F0ADFA287A6C
:20458C0000B90124404606F0D7FA2046BDE8F087543B0020F0B54FF4F0204FF48051ADF109
:2045AC00140D02F06FFA2A4D4FF4F0201021AA1C01F04CFC4FF4F83004216A4603F04DF900
:2045CC000098B0F1FF3F2CD04FF0805606F5EC7420681E4F006801210A4603463846984777
:2045EC00D6F8D801406801210246384690474FF4F83005F0C0FC4FF4F8363046102101AAC2
:20460C0003F02BF938B101A83146102205F0A4FC1036700CF1D0206840680021024638460D
:20462C0090474FF4F8300068B0F1FF3F0CD0E88929898000890002465318A3F5F833002B3C
:20464C00C8BFC91A034B984705B0F0BD004003403C22002001F001001CB52D4C401E02D0E8
:20466C00401E44D01CBD06F0E1F8400931D32089FF2831D00120694604F06EFABDF8000015
:20468C0010F07F0F18D0BDF800002081022001F005FF05F03BFFA8B11E48006841F28831E9
:2046AC00B1FBF0F006F050FA03F016FEBDF8001041EA0020208105E0BDF80000208100200F
:2046CC0001F0ECFE04F108020120022101F04AFB07E0FF20083420800120FF21022205F03E
:2046EC00D9FB00201222014605F0D4FB1CBD02200DF1020104F030FA9DF80200410001EB9D
:20470C00C001E18004F1280002F084FF1CBDC0460C1F00201CB2000070B52C4E2C4D0128A0
:20472C0006D068BB31460020491C05F053FB27E03146012005F04EFB34462078022817D035
:20474C00621C0020012102F0BDFE28680A21002204F03AFA28680F21002204F035FA60680E
:20476C0006F0A2F928681521002204F02DFA07E006F05CF8621C60700121002002F0A2FE46
:20478C0031460878012820D1344628686178490834BF002201220A2104F016FA28686178F8
:2047AC00890834BF002201220F2104F00DFA61786068C90807D206F077F928681521002260
:2047CC0004F002FA70BD06F073F970BDA42000202C05002038B52D4C054600206908A4F115
:2047EC000104207009D300F0ADFC002808BF207803D0207840F001002070A90809D301F072
:20480C00E8FE002808BF207803D0207840F002002070290909D300F0E3FC002808BF20788E
:20482C0003D0207840F008002070E90809D303F07CF9002808BF207803D0207840F00400DE
:20484C002070690909D302F0A7FB002808BF207803D0207840F010002070A90909D303F097
:20486C005BFD002808BF207803D0207840F020002070E90909D305F078FE002808BF207842
:20488C0003D0207840F04000207038BDB93A0020F8B50D46EEB2290824BF27494D40274B76
:2048AC00B400DFF89CC0195900EA05020CEA020200F4E02C85EA0107BCF5E02F00EA070779
:2048CC0021EA0001C7F3006742EA010201D1510E14D300F4E0210F4310D002F4E027B7F588
:2048EC00A02707D0B7F5803704BF22F4003242F4A02203E022F4803242F4C0221A51114C1D
:20490C00C10D04D3C5F38052A4F180018A55000E11D306F0E5F8290E03D201220021B24060
:20492C0002E00122B24011465034236893431943216006F0D1F8F8BD006000A0001008408F
:20494C00007F077F802002402DE9FE4F82460D460CAF287A3C8898469146800928BF082078
:20496C0049D2084602A905F023F8012808BF012041D0BDF80800DFF884B042F602110026AC
:20498C00FF27401A22D04AF2C031401A0BD0401E1AD1BCB9B8F1010F12D199F80000E968FB
:2049AC00022708701EE06CB9B8F1080F08D149460A6858460E30496802600127416011E0E4
:2049CC000D260DE00B260BE00A2609E0009401214A46504643460191294602F0C9FC06460D
:2049EC00FF2F07D05846006820B1006810B10146384688473046BDE8FE8FC046601A0020CA
:204A0C0070B52B4C2278607882424BD000200121224603F001FC244D2878022802D120785D
:204A2C0005F046FC63782278204E980819D3900817D22878062810D1E56820693168401BCA
:204A4C004FF47A75414340F6B830B1FBF5F1884207DA41F27070884203DD02F005FC2278EF
:204A6C00637803F0030003281CD102F00300032818D030682569E16853409B083CBF6168D0
:204A8C00A5684FF47A736D1A684341F27071B0FBF3F0814206DA15200A2103F093F805F083
:204AAC00C9F92278627070BD200500201CB20000282200202DE9F8430E46914608AF706807
:204ACC00BC884278017801EB02203F88254A42F62321411A10781D464FF0000829D0491EA6
:204AEC00052918D9891F0CD0263934D1072F2FD8C7F10700A04298BF84B2D21908321146BC
:204B0C0020E0B84224DBC01BA042D8BF84B22C805268D11917E0F06805F0EEFC80B2B8425C
:204B2C0016DBC01BA042D8BF84B22C80F168C91909E0082F0CD8C7F10800A04298BF84B2D4
:204B4C00D1190F312C804846224600F0ADFA06E04FF0070803E040464FF00A0828804046CA
:204B6C00BDE8F883981500202A482DE9F84FD0F80090EFF3118489F31188274EB0680121DA
:204B8C0005F086FF4FF0010A4FF000080546326871697769A6F81CA03068A6F81E80891A8E
:204BAC002A1A8A42A5EB07052DD384F3118844463F195046394605F067FF2D1B0446AC425B
:204BCC00F6D9EFF3118B89F31188F08B012804D14046394605F058FF0446B4F1FF3F06D09A
:204BEC00B169641BA14238BF0C1C391901E0B469E119204605F044FFA6F820A0A6F81C808E
:204C0C005C46376001E0A6F81C8084F31188BDE8F88FC04618B200007801002041F21C3010
:204C2C0010B5C5F200000468B4F1FF3F08BF002405F044FC40F2844346F25C01002242F299
:204C4C00082E012040F2801CC4F26023C4F20C011A60C4F2043E0860C4F2283CCEF800006D
:204C6C00DCF8000038B140F20010C4F2203000682046FBF7B3FF44F20402C4F20302106842
:204C8C00052142F24803C2F20001C4F2030320F003000143116019684FF0000EC0F2391E53
:204CAC006FF35B414EEA01000421C4F2090118600868C0F30130012809D10A684FF6FF70D7
:204CCC00CFF6FC40104040F400320A60086010BD2DE9F04F09AFADF11C0D934602903C886F
:204CEC000493D7F80880039197F804A0059430B1081C04D0181C18BFB8F1000F01D10220CA
:204D0C0039E01E4801780026B14631E0029C04EB890425884FF6FF70A84223D0A7780FB328
:204D2C0005990498039A05F053F90690D0B178080AD3CDF800A0CDF80480069B01212846FC
:204D4C005A4600F0A7FE0643A07880080AD3CDF800A0CDF804802088069B5A46022100F0A2
:204D6C0099FE06430548017809F101075FFA87F94945CBDC304607B0BDE8F08FE409002013
:204D8C002DE9F84F0E46044605F0D2FE834625480068EFF3118A80F31188D4F808904E4529
:204DAC0033D01E481E4D0068002E06D4AF69012000FA06F807EBC60702E04FF000082F1843
:204DCC00207D012817D1204605F056FE206C05F0BFFE18B1E1686868884368602869844260
:204DEC0012BF381C6F613868214605F041FE686848EA00006860A660C4F80C802764002EA6
:204E0C0044BF00206861012028818AF31188584605F07AFE4846BDE8F88FC046E805000002
:204E2C000001002018B20000F8B5264C2068EFF3118680F3118824491D4D0B680420B0FA37
:204E4C0080F043F00403281A1F3002780B60521C027086F311882068EFF3118380F311882A
:204E6C000A680820B0FA80F042F008022D1AE87F0A60401CE87783F311880E20FEF742FEF1
:204E8C000C480068C0F38150032814BF0020012009490A4A088017683FB9094C40202060AD
:204EAC000123D36100204860F8BD0120F8BDC0460C230020B43F0050C021002004800C40D2
:204ECC002C500C4018B20000381D002030B5264C401EADF1140D02D0401E38D042E005F0FC
:204EEC00A5FC000923D32078FF2822D0012004A904F044F89DF8100030B19DF81000012803
:204F0C0021D1012121700DE00025684606222570294600F001FE06216A46284601F078F85F
:204F2C004FF0FF3104F11000FFF72AFF0BE0FF20207002A8FF21012200F0EEFD012002AAA3
:204F4C00014601F065F8002004F0FEFD0AE0022004A904F013F89DF81010241D480000EBC0
:204F6C00C100208005B030BD700D0020F0B520480127F84201D002F0E3FE204D204F214E27
:204F8C00BD4206D203CD0478A4003459401CA047F6E71D48002800D08047164D164FBD42A6
:204FAC0002D210CDA047FAE7F0BD03251BE0416808300A1C2A400BD11A1C2A40AB4305D0EC
:204FCC00046804300C600431043BF9D1131C05D0047801300C700131013BF9D1021C2A408E
:204FEC0001D0A84304300368002BE0D17047C046FFFFFFFF0000000000000000B8B8000045
:20500C0040B9000050B8000059C50110F0B50546234CAF686068ADF12C0D67BB0C2000F001
:20502C0079FC071C1ED0684600212422082305F01BFD002306976A466968ADF8103019480A
:20504C00059305F00DFD386078B908210C22ADF82410E069ADF82620014609A8884738463B
:20506C0004F0E0FB6FF0030018E0E86878602869B860AF600AE080470646386805F014FD78
:20508C002869B860A0680146304688473868696805F012FD386805F00BFD00200BB0F0BD2D
:2050AC006C170020B3A80000002A4AD05FEA000C8B071CD1830722D1102A08D370B4103ACE
:2050CC0078C978C0103AFBD270BC103238D0042A2CD3082A05D30C2A24BF08C908C008C904
:2050EC0008C008C908C092072AD0920F22E00B780370491C401C521E22D08B07F7D1C307D0
:20510C0014D18307D8D0121F12D308C903801B0C4380001D121FF8D20AE008C903701B0AAD
:20512C0043701B0A83701B0AC370001D121FF4D2121D05D00B780370491C401C521EF9D137
:20514C006046704710B50020442100F01FFD002808BF002440D0214C1F200222214605F041
:20516C0008F9002835D021880806000C40EA2120782815D11020208021460220024604F0AC
:20518C00EBFB30B302202146024605F0F2F800B321880806000C40EA2120B0F5805F01D054
:2051AC00208016E00020208021460220024604F0D3FB70B102202146024605F0DAF840B150
:2051CC0021880806000C50EA2120208008BF012400D0002405F00CFB204610BD403B00203B
:2051EC001CB50020772100F0D1FC002808BF00243FD0D0206946012205F0BBF8002835D0A4
:20520C009DF80000582831D1F5206946012205F0B0F800282AD09DF8000038BB55208DF843
:20522C00000069460122F42004F096FBF0B1F4206946012205F09DF8C0B19DF80000552863
:20524C0014D1B6208DF8000069460122E02004F083FB58B1F4206946012205F08AF828B17F
:20526C009DF80000002808BF012400D0002405F0BFFA20461CBDF8B5064604F029FC43F64D
:20528C001435C2F200056F68044604F073FA2A69E41B4FF47A716143090C801A48BF4042E2
:2052AC0040F6B83289198A4216D3062814DAA968E868814210D82A6872B1401A44F240219D
:2052CC00C0F20F014143080C00EB9140824212D91046C82811D312E043F6AC71C5F20001D3
:2052EC004868400828BF4FF4FA600DD209687D2001F0FF014843C82801D2C820F8BDB0F5B8
:20530C007A6F88BF4FF47A60F8BDFEE71FB5401E02D0401E32D03DE005F088FA1E4C8008B0
:20532C001FD32078FF281ED0012002A904F044F89DF8080060B968460021042200F0ECFB44
:20534C00002004216A4600F071FF4FF0FF3100E0012104F11000FFF713FD9DF80800207043
:20536C0018E0FF20207001A8FF21012200F0D4FB012001AA014600F059FF0BE0022002A9BC
:20538C0004F01AF89DF8082004495000091D00EBC200088000901FBD28100020281000202A
:2053AC001CB5234C401E02D0401E31D01CBD05F03DFAC00824D32078FF2823D001206946CC
:2053CC0004F0A2F89DF80010207869B9A0B104F1080005F0F1FA002004F0B5F900200222A0
:2053EC00014604F041FF07E030B9012004F0ABF904F1080005F0DEFA9DF8000020701CBDD5
:20540C00FF2020700120FF21024604F02DFF1CBD0220694604F078F89DF80000410001EB58
:20542C00C001618004F1080002F0F4F81CBDC046942100201FB5234C401E02D0401E34D05A
:20544C003EE005F0F3F940081FD32078FF281ED0012002A904F040F89DF8080060B96846FE
:20546C000021042200F058FB002004216A4600F079FF4FF0FF3100E0012104F11000FFF7CD
:20548C007FFC9DF8080020700BE0FF20207001A8FF21012200F040FB012001AA014600F0A4
:2054AC0061FF002002F078FF0AE0022002A904F013F89DF80810241D480000EBC1002080BF
:2054CC0000901FBDE01200202DE9F843204E0F4604464FF0FF3106F12405284605F0F8FA00
:2054EC00A946002000E0401C6FB117F82010FF2909D032688A4204D906EB8101096E00299F
:20550C00F1D000241CE0002020604FF0010860600546A0600EE00878636808FA00F0184325
:20552C00606006EB82030A6808491C66204604F003F86D1C27B107EB85010A78FF2AEAD150
:20554C00484605F0F9FA2046BDE8F883007FC767483800202DE9F04106460D46002044218B
:20556C0000F014FB002808BF002035D01B4C04200222214604F0FDFE5FEA000822D021881B
:20558C000806000C40EA2120C0F380382080C00B18D3A11C0120022204F0EBFEA71C5FEACE
:2055AC0000080FD0B91C0320022204F0E2FE80463A78B978FB78787840EA0220308043EAD3
:2055CC0001232B8005F014F9B8F1010F03D0A01C042104F0D9FE4046BDE8F081403B00207F
:2055EC0038B5042004F0ECFA1A4C022818BF03281FD103200090164800214FF040521C23F0
:20560C0001F0E1FE17480068EFF3118380F3118815480421B1FA81F1401AC17F4A1E01299A
:20562C00C27703D1206820F00400206083F3118838BD094D0A49094A286809680019B2FB6E
:20564C00F1F105F039FA2868001905F031FA38BD00A00C40381D002004B20000A086010038
:20566C001CB2000018B200000C23002010B51A481A490078086820F0030040F00100086019
:20568C0002F02AFF01F06CFD0021154C154821600068C0680146022088471349134A086838
:2056AC0020F0010008601068D4F8EC1FEFF3118480F311880E4B0F481A680421B1FA81F11F
:2056CC00401A42F00402C17F1A60491CC17784F311884FF0FF3010BD563B00200440034052
:2056EC0040100940A00100108C21084018B20000381D00200C2300202DE9F0411E49876834
:20570C004668086804F046FC38680024C0F810483968C1F80448D1F8200820F01000C1F8E5
:20572C00200805F0DDF9154D8046287818B1042003F02CF92C70404605F0CEF9387AFEF718
:20574C0091FD06F1100005F087F906F12C0005F07FF9307818B906F1480005F079F906F18D
:20576C00840004F0A5FC05F0BBF986F8984005F0B3F9BDE8F081C046283B0020543B002016
:20578C00F8B50E46307A1D46144606AF400928BF082036D23888002818BF0B2031D1084646
:2057AC00694604F005F9012803D1002101202980F8BDBDF800004AF601410027401A15D002
:2057CC00401E0BD0401E03D038460A27288017E002202880F0680088208011E005202880FD
:2057EC00F068016821600079207109E001F002FC04480C3002782A80F1682046FFF754FCC8
:20580C003846F8BD18190020F8B505461E480068EFF3118780F311881C4C20684FF08056A7
:20582C0040F080002060D6F88C014068014601208847D6F8B001006A01461420884728692E
:20584C0006F5C675810C14BF010C04212868406A024601209047D6F88401006823210246B3
:20586C00002090472868C069014601208847206820F4C02040F480302060206840F001009C
:20588C00206087F31188F8BD18B20000002009402DE9F041ADF1400D05F04AF905460021AB
:2058AC003C220823684605F0CFF8174918480968183805914168069181680068002204908B
:2058CC0012480891694605F0BBF8071C17D005F02FF9804605F004F90646384601F0ECF9F3
:2058EC00B7B21FFA88F161F30F0467F31F4430B1204604F01DFD284605F006F901E001F0F4
:20590C00DFFE10B0BDE8F0816C17002015A600007CAB0000F8B5001D84B214F0030002D06A
:20592C00241A241DA4B204F07DFB1A49102C02460F69CA60C8BF4F69388800231E46C10B3F
:20594C00CD0319D126B984420ADD3B46012617E01988091889B28C42198011DC1F46084652
:20596C009FB1001B80B20428B4BF3C88385344F400443C803F1D08E080F40040002680B208
:20598C003F1838880028DAD10027104604F0D0FC3846F8BD6C1700202DE9FE4305460E4608
:2059AC00307890460AAF02281AD01949DFF8649070680C681022494604F05EF90027494655
:2059CC0010B914B3012007E070681031102204F053F970B9CCB1022029464246A04714E0FE
:2059EC0070684278007842F6021100EB0220814201D00A2709E039880120009142460190FF
:205A0C003146284601F0B4FC07463846BDE8FE838018002080AD000041F2A00010B5C5F2CF
:205A2C000000D0F8781203680A0F03F0FF03802B28BF0023D0F878024BF69A11C0F30F34B6
:205A4C004FF0FF30A14213D02431A14207D04BF62031A1421DD1E2B90A3358B210BD12B122
:205A6C00921E02D010BD0A2010BD143358B210BD521E0DD0921E04D0121F04D0521E04D09C
:205A8C0010BD142010BD152010BD163358B210BD0A2010BD2DE9F0430E4691461D4607AF86
:205AAC0080461B214FF6FF72ADF11C0D06AB04F09BF8059038B300210091BDF81810019182
:205ACC00FF2402947C6802460DF1120340462946A047041C12D16889ADF81000700805D3ED
:205AEC0040464A4604A904F019FA05E03B7840464A4604A904F03EFE041C05D004A81B2168
:205B0C0004F074FA00E01524204607B0BDE8F083002213460A46194671B510F0030F0BD08C
:205B2C00002A82BF00F8011BB2F1010210F0030FF6D1002A08BF71BD11F0FF0141EA0121EE
:205B4C00042A18D341EA0141082A0FD30E46102A08D30C460D46B2F10F0312F00F0272C097
:205B6C00103BFCD812F0080F18BF42C012F0040F18BF40F8041B12F0020F18BF20F8021BA6
:205B8C0012F0010F18BF017071BDFEE72DE9F843804689461648194C144A016804F1140013
:205BAC00B2FBF1F104F094FF00284946404608BF002018D0124A0F4D11702978814211D039
:205BCC002870206804F060FE261D304604F0FCFC28783146012804BF07482061002004F0BB
:205BEC0013FA20600120BDE8F883C046A02526001CB20000533B002036B20000883A002094
:205C0C00523B0020F8B50E46307A1D46144606AF400928BF082030D23888002818BF0B206A
:205C2C002BD10846694603F0C3FE012803D1002101202980F8BDBDF800004AF68121002750
:205C4C00401A13D0401E0BD0401E03D038460A27288011E001202880F068007820700BE035
:205C6C0002202880F0680088208005E012222A80F1682046FFF718FA3846F8BD1FB5194BD9
:205C8C000C4601461046002289B1491E06D0491E23D1012C0DD1007818701FE0082C08D1FE
:205CAC00124903680E310B604068486016E0062C01D0182212E0046803F10C010C60808812
:205CCC00888008240094FF240194074C029498681C33FEF7FDFF024600E0022210460090DD
:205CEC001FBDC0465C1A002075760000601A002070B50646F088F4680B28A4F10C042CDA78
:205D0C00B0880B2829DA04F08DF9154DF28891000C3501EBC20149194968E1B104F008FB96
:205D2C0030792071B0796071307AA071F188880000EBC1004019F1684068083003F0EEF94F
:205D4C00F188880000EBC10040194068406804F0F3FE002070BD04F0EBFA6FF0020070BD48
:205D6C00E01700207FB5194C0B46002511461A4678B1401E06D0401E24D1012A0BD1087803
:205D8C00207020E0022A06D112480988401C018019E0122A01D0182515E004F10C06122229
:205DAC003046FFF781F908200090FF230193084A0292A068314604F120032A46FEF788FF1A
:205DCC00054600E00225284600907FBDBC190020115C0000BC190020F8B544688668154632
:205DEC000846203827D0401E21D0401E1CD12A781549A06E114300F01DFD90B93068B0F172
:205E0C00804F14BF23220B222978A06E03F074FEA06E94F8591001F07FFB287884F859006B
:205E2C0010E04FF0FF30F8BD6FF00100F8BD002084F87000F8BD217B0020012908BF01209F
:205E4C0084F870000020F8BD002000802DE9FC414FF0020816460F46054602E004F00CFC5F
:205E6C003619002F08BF012028D001F039F820BB03F0C2FB08BB05F0FF04C4F58074BC42A5
:205E8C0088BF3C1C8DF800808DF80350280C8DF80100280A8DF8020004F0F6FB684604214F
:205EAC0003F092FB3F1B2D1928B93046214603F08BFB0028D2D004F0DFFB0020BDE8FC81A5
:205ECC0070B5002124220823ADF1280D684604F017FE134C01256A4629468DF8185004F1EF
:205EEC00140004F009FE0F48006801464FF44070884702F0DDFD261D304604F065FB0020C6
:205F0C003146257304F080F8074BFF221A700749206000220A7008B904F08EFD0AB070BD6A
:205F2C00883A002078000010523B0020533B0020F8B50E46307A1D46144606AF400928BF43
:205F4C0008202CD23888002818BF0B2027D10846694603F02DFD012803D10021012029802B
:205F6C00F8BDBDF800004AF64121401A4FF000010DD0401E05D0801E03D008460A212880CD
:205F8C000CE001202880F0680078207006E006202880F068026822608088A0800846F8BDBD
:205FAC0010B54AF2000434214FF080521C23C4F20C04204602F0AEF8012826D0204634218D
:205FCC000122002302F0A6F8002808BF00201DD08020C1F200000068804703F079FD43F6BF
:205FEC00143344F24022C2F20003C0F20F029C681968D860041BA1EB91016243120C8A42B3
:20600C0024BF1A60012001D21960012010BDFEE71FB5174B0C4601461046002269B1491E0F
:20602C0008D0491E1FD1012C09D1134B5B1C0078187019E0012C02D1F9E7062C01D0182233
:20604C0012E0046803F10C010C608088888008240094FF240194074C029498681433FEF7BC
:20606C0037FE024600E00222104600901FBDC046F81A00203D5F0000F81A002038B5007965
:20608C00184CA0B903F0CEFF2178002904BF6FF00704051C13D0491EC9B2217029B904F03B
:2060AC0047F9606802F018FF18E0054613E003F0B9FF05462078FF2805D16FF0060428462B
:2060CC0004F036F90BE0401CC0B20128207002D1606802F01CFF284604F02AF90024204668
:2060EC0038BDC046A422002000B540F21630ADF1140D6946FCF7D6FC40F213300DF10201DD
:20610C00FCF7D0FC4FF4467001A9FCF7CBFC9DF800109DF80220BDF800009DF804308DF8F8
:20612C000610BDF802108DF8082002128DF80A3009128DF80720BDF804008DF809100012C6
:20614C000DF1060206218DF80B000020FFF796FD05B000BDFEB5194C0546208C218B8142DD
:20616C000CDC618B814209DBA08B618C884205D1E08BA18C884208BF18271DD0052002F074
:20618C00E9F9278B638BADF80270A28BADF80430E18BADF806200646ADF80810E08AADF805
:2061AC000000684604F000FA071C05D104F1F0003146A57302F078FD3846FEBDE40900201D
:2061CC0038B5054645210020FFF7E0FC002808BF002029D001206946022204F0CAF8041C51
:2061EC001BD0BDF800000024C013C003B0F5004F08BF0124B0F5004F0FD100206946022292
:20620C0004F0B7F8041C08D0BDF80000BDF80010000240EA2120288003E02846022104F0E0
:20622C00B3F804F0E5FA204638BD70471FB5164B0C4601461046002269B1491E08D0491EBC
:20624C001DD1012C09D1124B5B1C0078187017E0012C02D1F9E7042C01D0182210E00068FF
:20626C0003F10801086008240094FF240194074C0294D8681033FEF72BFD024600E0022260
:20628C00104600901FBDC0468C1B0020456600008C1B002098B54268806851660B689366EF
:2062AC004B68D3668B681367C9685167D76E77B9516E0B7C0168580040F00100C1F8000822
:2062CC00536F0220022B107212D30B2211E0516E0368097C01274900C3F80018916E1772A1
:2062EC0004684B1C93660978C4F80818016802200322C1F8042804F02DFB98BDF8B504466C
:20630C0004F0E2FB00F0D8FC054604F011FC074604F0E6FB0146A2881148BBB263F30F06CC
:20632C0089B261F31F466030002130F80C7F5FB902804560A181A76887606868002520612C
:20634C00304603F0F5FF09E0974208BF6FF00205F6D0491C0B29E8D301F0B2F92846F8BD0C
:20636C00801700201FB5164B0C4601461046002269B1491E08D0491E1DD1012C09D1124B02
:20638C005B1C0078187017E0012C02D1F9E7042C01D0182210E0006803F10801086008247F
:2063AC000094FF240194074C0294D8681033FEF78FFC024600E00222104600901FBDC04685
:2063CC001C1C0020AB6600001C1C00203EB504461448042208230178ADF802201248ADF8C7
:2063EC00003089000068019102466846904700280CBF029900210E4D281D0029016008BF71
:20640C0013200ED04FF6FF7002F020FE600838BF002006D3054B284605211022083001F004
:20642C0095FA3EBDE40900208817002064B10000601E00202DE9F041154D6C686079ADF153
:20644C00380DFDF75FFB04F04BFB2E6880463078B8B901A800213022082304F049FB0695D4
:20646C00002700970B4A2179301D01AB04F03CFB012030702168084ACF6221688A60216876
:20648C004860404604F028FB28460EB0BDE8F081C8B00000EFA800000004002038B5174DE5
:2064AC00041C09D100202870FDF798FB03F060FB05F1280004F080FA022C1ED12C46022309
:2064CC000A2100224FF47A752370E08861700C4BA270B5FBF0F0E27001B21A70480000EBAA
:2064EC00C100E06003F0E8F8208900F0FF00FDF775FB04F1280004F05DFA38BD0C1F002018
:20650C00513B0020F8B5844640F6FF741CF8013B002210E0481B401E10F8015B7F1E01F886
:20652C00015BF9D103E01CF8010B01F8010B521C5B08082AEADA5808F5D21CF8010B1CF8FF
:20654C00015B05F00F07FF1CC5F30315122F45EA001508D11CF8016B300A24BF1CF8010BC2
:20656C0060F3DF16BF19AC42D4D1F8BD45F2280010B5C4F20900046854B343F6AC71C5F244
:20658C0000018B6803EA5300C00E21D2486880081ED20022C4F209021068096810F0050FF2
:2065AC004FEA114101F0F00101F5E0710BD1A1420ED2190F38BF40F00100D90E38BF40F01E
:2065CC000400106010BDA14284BF20F00500106010BD1CB500204321FFF7D8FAFE20022297
:2065EC00694603F0C6FE10B3BDF80000BDF8001045F249440006000C40EA21208442ADF840
:20660C00000014D1FF206946022203F0B2FE70B1BDF80000BDF800100006000C40EA2120DC
:20662C00B0F5805FADF8000008BF012400D0002404F0DEF820461CBDF8B50E46307A1D462E
:20664C00144606AF400928BF082027D23888002818BF0B2022D10846694603F0A9F9012836
:20666C0004BF002101200CD0BDF800004AF62121471A4FF000000CD07F1E012F03D901468A
:20668C000A202980F8BD01212980F16809782170F8BD04212980F16809682160F8BDF8B500
:2066AC000E46307A1D46144606AF400928BF082027D23888002818BF0B2022D10846694633
:2066CC0003F076F9012804BF002101200CD0BDF800004AF60121471A4FF000000CD07F1E12
:2066EC00012F03D901460A202980F8BD01212980F16809782170F8BD04212980F168096830
:20670C002160F8BDF8B50E46307A1D46144606AF400928BF082027D23888002818BF0B20DF
:20672C0022D10846694603F043F9012804BF002101200CD0BDF800004AF67121471A4FF0FD
:20674C0000000CD07F1E012F03D901460A202980F8BD01212980F16809782170F8BD0221CB
:20676C002980F16809882180F8BD00007CB5174D0C46103DE968064603F01EFF400823D305
:20678C0030461B210222002303F02EFA0190D8B12A4602F118000921521C03F019FC022181
:2067AC004089ADF80210ADF80000019D2C7001982312002269464370304603F0AFFB18B140
:2067CC0068461B2103F012FC7CBDC046801800201FB5154B0C4601461046002269B1491E05
